:100000000C940E150C949E370C949E370C94361558
:100010000C9436150C9436150C9436150C94361534
:100020000C9436150C9436150C9436150C94361524
:100030000C9436150C9436150C9436150C94361514
:100040000C9454370C9436150C9436150C943615C4
:100050000C9436150C9436150C9436150C943615F4
:100060000C9436150C94361553415645440000182F
:10007000314B6683A0BEDDFE534D00010203040A2E
:1000800010161C222C36404A545E5F60202020004F
:1000900031206B487A200035206B487A20003920C7
:1000A0006B487A20003130206B487A003530206B65
:1000B000487A003130306B487A0031204D487A2040
:1000C00000313020487A2000323520487A2000352F
:1000D0003020487A200031303020487A00353030E6
:1000E00020487A0031206B487A200035206B487A0E
:1000F000200039206B487A20003130206B487A008C
:10010000535445503A200050586068700818203009
:10011000384048000810283840302E35206B487A87
:1001200000312E30206B487A00312E32206B487A15
:1001300000312E38206B487A00322E30206B487AFE
:1001400000322E32206B487A00322E35206B487AEE
:1001500000332E30206B487A00342E30206B487AE2
:1001600000362E30206B487A00204155544F202015
:1001700000313130206B487A003834206B487A20C7
:10018000003630206B487A20003430206B487A20CB
:10019000000041555400204F4E004F464600203588
:1001A0003000203735006B487A004D487A005253B2
:1001B0005300534E5200313030003530250031307D
:1001C0006D0031356D0033306D0036306D00524FAB
:1001D0005700434F4C005253530053505400522B7E
:1001E0004200532B4200465354004E524D00534C94
:1001F00057002041320020413100202020202020C3
:1002000053455454494E475320202020000431F7D1
:10021000210531F52D000000000C1014181C2025BC
:100220002B32373C67020205050502050202020374
:1002300002020302660806056A67076A06060606E2
:10024000040804020502020205070807080306075E
:10025000070802030403070304037F727577797BA1
:100260007E80838587898B8D8F919350678994F4E5
:10027000646792ADB0B3D8E1E6E9EBEEF1F4F6FADB
:10028000FD0F262C313335383B3F4244484A4D4F11
:10029000510400008000000094010001F5020002FA
:1002A000FE030003FFFF00040003740BD484606F9F
:1002B000AE6CF9BB84A265B14BF672011A21E85A03
:1002C000D8D604735E2C226EC4E9B58B819A1EE4E5
:1002D00087C99E7B17526DADE3E58B04A72E996A03
:1002E00032AA9997CCA65B157956480163B1DF54C1
:1002F00027065706538CA627AA66890318517EFB4A
:1003000067D3CEDD3FFD3D1F478401F3856EF83B8B
:10031000792B0C904B67467D5488FDD612E5E74853
:10032000F20EDB994D71A54068D9C95939E47520A1
:100330001CE9B1F5013C19BB60F7FA6B1E689F1907
:10034000B6ED140F56BCC134CB009D43D40FF362FD
:100350009C9DF78B9D533A8D2F3DDE3D3831039B9D
:10036000C7C159E9D175888D365886704E5B9ED0CD
:10037000DBCBF7EA1FDBA53BB3BD6BBCF37065D5E8
:10038000170F64152420D5B87B0D272985881F58A1
:1003900022574F09C04DD6E4C6B53A373327BB6A5A
:1003A0001469031BEDA8C343E8EADE410625C5C86E
:1003B0003CBF32B2A7DD22C2E9CA84F2C0267C78F3
:1003C00001F7D5C60533E4C278EC1BFDD2507D1190
:1003D000295799B0F1556674B45823A06F2ED89B55
:1003E00008B33E53CF5ECC7ADF4EED42166A918859
:1003F000431B1D845C52216658243671C56A0D2C3E
:10040000869A239DE03543C97F41BD8299ED7A26C6
:10041000B2D3A6CE4F00E687E3D7682886F7CED2C0
:10042000B3D31B0402B978B3ADE03C53A68A4A2289
:10043000BE1FCEB176F22F81A8C17872B0156519B2
:10044000E332A74D0CD300B9C327BE744DD1E10CE4
:1004500036DD23FBA722D344CAB3081BB40D4BDF00
:100460001AA69032925C1AA7CD852E351172F8210A
:10047000357D3FDB298D30B34F451477CF992FA3BE
:100480009081B0AEE845E63AA9A262B7DBBE253955
:10049000A5FCEAC5BC3AEC90AEA6FB12AAC7622244
:1004A000AFA984B964B8FB8DC11CC3D0876D5CB49F
:1004B000FE3FA4B8D889F40159BB04A543441ACB24
:1004C0004130F75B9AEE28F44C7199CA4B7F2A139E
:1004D000F04B54B3FC90EDBE483FF15E0DA1BB1E46
:1004E000591615F04B504C96861BA9CCC2694E107C
:1004F00003F0E953E5E2BB45E28DAE407108864D5D
:1005000008F49690585340A58B5B3CAD47B5D7E2B5
:100510006A1378D4DCC9EC0E93F0C01D953676A42E
:100520005385C9ACE4718DAF6861209DFF45356E80
:1005300004D82732C3DAEEA26604B72106527F3907
:100540008FFDEE9074B64FB6240E1248F0B230F222
:10055000A54C9152E3C6487B3896239ED71B951530
:100560003AC98B6F637D1DC9EA96E601D785C0EA5B
:100570003DCAD3B7FB07543A00313D74E4125BA285
:1005800038335BBF1DDC4EE8851077ABEA6579B088
:10059000AA3061C6F63BCC95FC837F8C7BB55205B7
:1005A000EBF721DE89B66DEE317713AA93559608E5
:1005B0006E1C82B57E95B994DD68425C3A00C37BBF
:1005C0006F606A2C07D76C82FBB2812569D6720AEC
:1005D000D2E8500588491B6372996CE37AAEB01B70
:1005E0009ED42554258A901797DF39B87CEAF0828B
:1005F000DD25D2ADE7F6362384A9C96A53F4822CEF
:100600001DEA06C64F705437802A6B63DBCC86E642
:100610008C7F278C7254739E1BD64CFA058280D730
:10062000B71198069869151CFC868774845BD40FF3
:10063000DBD727C54AB28F297A4A230AB807D034B4
:1006400070818E53EF43163FA8A79E5A77C091B78B
:1006500089155248C0B762ABE1746410AA096B9760
:1006600074217935A19725FC78C1EC6E8777408796
:100670001A74828156DDEC37ADAF0331AC47857417
:10068000C02A459DF4120CF986B04A16D8116C4662
:10069000C44A67988B1B42C2BEBB0E4884F708A6AB
:1006A000C38F8E8DABC29B5D5C6028578F0EAD2EC5
:1006B000C15E95299AF48A27D441BB4AAC5DB293B6
:1006C00026FD87813F2735A6422C1538ADF8026FED
:1006D00094DA08EE19D890FA89C3AD89FEC60246AD
:1006E000811D0C8D782FEED3ED6C7B95495687F4E8
:1006F000E263DA39CE681618ED98EE86F3B3C112CC
:100700001A519B571D199E987ED2FD3D2B591546B7
:1007100074577914817189D922DD9210D98991DFBA
:1007200067006E53AFDAB528301E47E6B7052D22B5
:10073000CF7F6ACD88906B8C16368807A1B7AFF350
:1007400031C4DB768B969EF017A73F847891A8CDB5
:100750003F8FA5DD5214F9395D0B568E1C5A5B890B
:10076000EE809E33BDB145154234597820FC2DDB17
:10077000C92E0F3526CF239B3E1D9F0F260EB7B5E2
:100780004EACA286D5DA36045A73466A88C52AA0CA
:1007900083E88B5F3CAF6A444E759B8F9337353847
:1007A000BD029A1D8429642597E07C2AB6CBC166D8
:1007B000513CBC3BF3552BB7BD81ECF349D5F80355
:1007C000E0BDC60CEEC01908FB4F8C94080EA53096
:1007D00037F0B818937300BB5252B4980D4B45B91B
:1007E000890A34E91C245A8FA89DC2D927A9EEBFD3
:1007F000C08090BC2A9343FB0AB396D1AE1341014B
:1008000068B92C53537C00A58441D6988898FEDEA5
:10081000F7E23743620E9383EE030A8DCA87593697
:100820006F61F7F4D6AB8B0F9C8396A46C46438024
:100830006BEA50DCD8CED4F4AE5BC6014385718D33
:100840000C395EE43B2BC488B2C554960E879A508F
:1008500093D69C91CA09648B23C429441A67E1DAB0
:10086000C71B2517022C8F2A133ACFD665312B10C0
:10087000F5B596DF01997BADD6B4C035A348E3B09A
:100880009EFE33101A09AE3C0AA1728F0051E17826
:1008900023F5E2BFA64628B34B24B1A1DEB1C4487C
:1008A0006FED5AD461F0DBE1085C64C0CAE9A9DEEF
:1008B000DEECC0685B6DBD43828CCA69B1A9C871AA
:1008C0000D5D6DA5AB1A6794EE0593E33FE81AE65C
:1008D0000F7F79F2CBC53757DFFC4FB460C7973C29
:1008E00061B00C4664F44392D2A5F0F3B7DFAB20BD
:1008F000B1F5302AB3DC4B39B7853E1E1B948C26EC
:10090000288045D60136D0EC934688D3D5895D7AC8
:1009100082213EC240E3B4DEF5A569D569495C8910
:10092000CDAE137070ED690CECC6FE75EB4ED6B310
:10093000C860FB341EF86492D929A813383D79C4E5
:10094000BF21379DE34F21E53F2C5C5F41FF1487BA
:1009500091E082040B1E5553DC5640A43578E29B8F
:1009600049222E09CD1F6F9483EEEA8BC4C210E09A
:1009700080D9A55F53349C8CEA95648794D6321C49
:10098000EB93BFE35583C2F6FCC885B2945C425F2B
:100990006B8E3B9779747EE35CC2631A22B17F94BD
:1009A000CBE7B7FF0E3795AF105317881272DDCB28
:1009B000AB4B6B6824ACC95C72094FF1FB1DE7A21D
:1009C00030E9204BDA707C9EE234EB6A35C233D7D3
:1009D0009D07B1EFF675F5FDADC74BD0B7DDAE1E87
:1009E0008D1EC0399CA71CC5CC3950C66BC6DA37E2
:1009F000C7E120EB74A53DC008FAC2DFF29E432B8D
:100A0000F07750498CC32F68F32A9B831ADC05D8F2
:100A1000B77C3C611176EC2DFE86088715A3C01CBF
:100A2000B46A8D9EBF9AD5C85B05181015FBC63CED
:100A3000EEC5524B313607B94C81EA83D782FEFCB2
:100A400043594E20BDD365CF1F5C711FBF26EC44B8
:100A5000EB0174823C8E60DF479031177E16C0EC4C
:100A60001EC33A7A5921A29B8E8725D3FE85DD6D60
:100A7000E6D8CA74BADB4230963D8622866FDE37EE
:100A80001A932F032EE16E1662C1E12DFECBA8DF73
:100A90006405EF23BC71617B1B602227BDC6A37276
:100AA00007AA09B052F219154DBEAF263B4D62A6FA
:100AB0003C41077A34253CD6CDB65547871ECBCF6F
:100AC000CED20D95C0D872A6E0332426517E71C7D0
:100AD000533FD4677352CB785A001115715F8D3C28
:100AE000CF40CDD97430D9A13FC658BCBE7818319B
:100AF0009A3960BB8D7B3495A5F1543BB98599AF8C
:100B0000C445EB64A76E5960EB1E7AFBFD9243234C
:100B1000F127AC661266288A5CF6C63F7604E809BF
:100B200027ED05AA26E5B4AD40BAF7F484CB7F07DC
:100B3000108DB6C7D477EABA962A98F056D7FF50E8
:100B40004D59793D41E0FAA99D3EA6D979C80DD10C
:100B500056C5ADD7FB703CBDF3E95D1C5393331D07
:100B6000F81BEE9FB750AC8F485961C9859EC8B03D
:100B7000D27439DF33F528E06311A7C405BD3AD933
:100B800034CAF9AAE200E6E638573EEC197C0D2794
:100B900045C552C4FFF469C5F573734FE307C7CF6A
:100BA00038235B9C99A26A72B03539C10AC71C1AF6
:100BB0003060181D2BF0C8F179A394E336359369A2
:100BC000059107126044FDB6C6FFE0CFA2CFC2A3D5
:100BD00058AC32E32EEC0D9D1BFB0540BA678ECB63
:100BE00038D7609CFE9EA170CC40728C8C50718571
:100BF000DD84925CEE44B6E0801532DD1B4B8C6EDA
:100C00008E3997A5AFC6F42985D3859385C854E45A
:100C1000591D4EA0FEC507C1F73252F94D4585FC5E
:100C2000A0FA37B59D47E852238D928743B4B84F59
:100C3000951B1E4FE545BFCEC80CB27DE7D92E8867
:100C4000B72A61E12DC4212EB84DFD218730251131
:100C5000EC1F299431D292853817DA634D8CB40693
:100C60005564B76CFCC28D5D978609D34369E8353E
:100C700077CCAF91363C7CA36E4E4AA2C94150EA74
:100C8000ABDF8704704F16F5A038F56016CD0CE584
:100C9000C7E3AD00126B12853C5C7F76ED49F29D97
:100CA0008FDFABE1DD8701ED2C1B4B55117FC3922C
:100CB000D391C1D8A737C7E55B482BED31DECEFB1A
:100CC0009508E35184000B4D2673118B1EE204043A
:100CD00073E072FFE659C90448BFABF399877C07FC
:100CE00004FB33B163616112AD08AA30AC174D301B
:100CF00086BF6713F1A7041B48422384BB7FB40857
:100D0000A69F43785CA14E8BA6E67C4901F7315D36
:100D10002730010B570B79F7024433BBB45BC70193
:100D2000ABE301C2D2017A079EAD8402F1EEF7D89F
:100D30002950012C35543ACC01C93D666A980524E6
:100D40007AF71C2440EBA24DC266C8372C030FF380
:100D500001066D9A42F0948FEDBFE3283B7269372C
:100D600075B4A09A6E31FD665BCBF3BA8CA431FFEB
:100D7000BA7C2454D3C6638993E4EDDA58474EB560
:100D80008FD793FDAF31EAB4ECC9057D2B1596C121
:100D9000007E80E6F747CD6A77F10E5913AA5C838F
:100DA0008870DCC4525220B6692D6C6C8B662ACDDB
:100DB0005A4130D6FB7BA0EC7A22887C716EAF6200
:100DC00006F4A8C688857636C5C0D867967CE84DF7
:100DD000D4FBA96F0FB2A7A3196A30FD6FFC2BCE0D
:100DE000A41B8E574851C6980FE5087B4DFC59DD72
:100DF000CF131B310C5E3B98E1F4C341D7A2645E74
:100E000016F9EBAE20E95D54BD99D3A7C1D9E532FF
:100E100022D69F4FDD6B3C6DE94D965211DA238649
:100E2000BE01C451C29CC6F52F1FD0F1F55782FEFA
:100E3000CBFB4ADF1D0046B8A73A566608714E47FD
:100E4000F827265F6CD8C305990A758F4FC1887241
:100E5000A05A1308A382842ECEB5A34605D66A787D
:100E600056442386F2C963088BBDEE56D4361F372D
:100E70005318E7DA1CFAD005D55FE7B7AD362BCBB0
:100E800006C053F432A8756FE3C9A1B0A6E6C2410B
:100E90000F5D2E0A64504692495B2D002EB5213F0E
:100EA0000B4A719688844C98AA2823EBEF455C6224
:100EB00078D6E4FB6DC3D9356CB92AC67471C40CFD
:100EC000657CA3F96E2DB986B0046394CF267D9E10
:100ED0001EF799DAE08CDD86F3C8F1C64E155DED9C
:100EE00034BB90CDD626091EF6238451C1AE428F65
:100EF0008496C957AE16363A298765B2BA5696D245
:100F0000F509EF304A0F6236FE0030BD091B50C3B1
:100F10003C48D725E18EB26F4D752DADC61EBAFA8D
:100F20004F41AF7A6FA0A04FB68834698A9E837A0A
:100F300060F3A87E392A209C325E7DC4AA97E626FB
:100F40003542A1A0EF39B31C2763D27F75C01EB410
:100F5000FA4D7A818139E0792F94A5283A437E971A
:100F6000B594AF2A10380A7F4991C06C659AC6C9FA
:100F70005DD552469874AC93E421B0EB08FAF44185
:100F80002EA6F9C5EDE33798C5DF528241A2F2568D
:100F90001AF3A4C6408DB95FAA751E151E68782B7A
:100FA0002BF43EC7CBF31360E0F48579880C2275EF
:100FB00087B751E0D6E3A092D3D7E36C5B3EB7800E
:100FC000E748D6D92F49CC75A004C94888E9CC3266
:100FD00041AF30DEC6BC9DF7FCFF69035058A1D677
:100FE000B87B5E60FCCC0014AF3A3041B34E63472F
:100FF00095E4BD5374D0F002B4FE48196C3F23F75A
:101000009B4411F2C245A637776C10630E1BA7D123
:1010100096CA0D4F5B4351D614B723E799A49F4C52
:101020007DD7DD0811844D5CE96090048B1490F04D
:101030006F26450F208CE36F4678EB12B45EF0DE2E
:10104000EB222762784293BCE848C088BD0FDE23BC
:101050002BD1880AE2B4338E6136435842AE6BD747
:10106000F2FE0AC126947ACE8C3B435A62EF708A14
:10107000FE4DD237DBA1B1061B30174CA0241EBE9B
:10108000CB64E2CE135CD705A6763938F3852C16EF
:101090000EB3E23DFF79880B93EFAD55CDB4EF8FE2
:1010A000B8167A05C05E920F4F9858D422AD4325EA
:1010B000317852C69ACA5EA64E79979ABBDF6DF117
:1010C000E2D0B3CA2A5C46825C1EDDD0C519892BEA
:1010D0002CBDC084D9333967E4E47926B69D1C1D44
:1010E000E470A5A76189254A57337D0DCAF3CC2248
:1010F000AAD7D9CBE6B29646159568D80FDF6B36DE
:10110000DA198216CE384ECFF236C88007538804DB
:101110002FB214195DC56CEF959C608B6AE4FC9D41
:10112000B29CED1D9C1BCAA326DD9C635B3B882BF8
:10113000BA2235240148EEA04F6E964E2991AAAFEF
:101140005647BD7BDDA15599D8B5A147937BCD7B93
:10115000CF65DE5018F20549F199D894213F7D52B0
:10116000C6B1B4E19FF07E60648B30E4AD2C97FB98
:1011700047F70901047BF4F7A7A804A57F0858796D
:101180006D26276AD0D9AFC1C71223E1AE98A40F4C
:10119000BC1BFA9D910B1515A524531A13E0C3002F
:1011A00095389C364CCFF6A9BCC1530604F46FBFEA
:1011B00057E0A614A649707F392A4A5A593633B9DE
:1011C0000D4725393704777C45AC19932549E07ADA
:1011D0007BA2C695768D3C79B1A7C3836303234771
:1011E000D7ACFB84166F22490B97AAD538575E2BD4
:1011F000BBA749EDD2D57A96BE8DF5F94656F52FA7
:10120000A7A87AFF3FE7E88CF148E846CB4D25F9DF
:1012100035932FCE8BB8A9C5D3D22771866F72D9DB
:10122000CA4E90D36DB13CD3CBC9303A26459D66AA
:10123000445C5FD8E3907C1BD882DDD384D4C61B8A
:1012400058BF02A53B100A3EE309940B99882B472F
:10125000A79089C4482536DB7231ACF5A30115D0BF
:10126000E62161EB5972DC9498F7B0F9FAC10A7E75
:10127000DC69CE905E82110B97E29955A23DFAEBA4
:1012800088BC4DC2548D5FDEA3E248132046C5A042
:101290008104C42B9A8415B89E9B62A1EC7D083C06
:1012A000AD214B89FCC6967C3A41358A13BD1B4360
:1012B000BF367A4ECE709E2AF63933C7334B347D13
:1012C0002A81FA252EC5C4A1280ED54D15E0691234
:1012D0007119AAFF5948815653C935124D84699135
:1012E00036D8ADF754D58CF9C684126222F1B92BE9
:1012F0001DA57C567A4D5AC4F09D8F5DB59A7FE747
:10130000B7A85D6D37E4F2EA7A73F8FC6717F3D992
:1013100060090E8B0FE2F98361DF5369D0EE425111
:10132000B5514864F8DD3EEEA747F07C4BBB2B8EF1
:10133000E28B6057634B9BAA6763EAA3D57C43416A
:10134000A95474D286C3114269C5093E8F94AFC5B2
:1013500099BBBBAC61646101F2D359B141509116A4
:101360006CCC9BEC5CFE3BB3EC6ED7F10E5A8A5F03
:101370001DB0C576542607BC66F0ED519A1FE8F7FC
:1013800051588E1E80991FEED643CCFA2FAE80F2B4
:10139000A8A8AE437C8076D41AD4737461DFBF29C9
:1013A0006F561593075892F11DE87B68B2542030B0
:1013B000012DC5D8FD6150140F584C1A5400127EEF
:1013C00046990C9DD1A304F18217FEFC12E57581AC
:1013D000AFFF3D08D539874A8EF07AD4D0D6CFA951
:1013E000D6594841C268E3A435458D141AC44489CE
:1013F0002C63C8AF7BAC354327BE7ECF56403DA59E
:10140000AC0F97CCD46ED031D7146045AEDF0AAAAA
:1014100033B388E01C26DC00B875C86711A1B58716
:1014200071F94A6AEC3F0E4121C24F928F1753EE79
:10143000D5EA4F917502590294E4DA4AB3AAA72E6D
:101440009CC780465EBD06331DD85D9F5F77730ADB
:101450007D386BA70E8F4E7D01DA4474D2F17A2F5E
:101460007FE1ECF1A57D033B2F17B6E80D333C215E
:1014700091915B302C11C6586AE4351BB5A847B36F
:10148000FFD0960E484E9737601204FFCBA5F51D8E
:10149000409CDF36123DD92A72DAE88BE45BCFE953
:1014A0003852EC2CA0F779AD2070592062739CE380
:1014B0004609C912D47755074B6A261E5D07781076
:1014C0004E4ADA5EF63B9B8DFD48D0BBAA212EF535
:1014D000DF854CA71D1A261BA082867F4B02D2F601
:1014E00060C9860C1DBF736986184B44BC74E582C5
:1014F0001793B50A5608B74A73B804D214215E2C64
:10150000A0E0C2015FDECE642AD8652BF074E354FC
:10151000BFA09B50BA02002C95CE2A4FCF2B2B0E8A
:101520009BDD8F675B54A1472E842E24FA34E05A4A
:10153000103BCFAFE2ED28D1176B9A1B496CFCCB67
:101540007A74092A415AFFA1F598C60CD26983D250
:10155000C369875E7EBBFCC0D1C117D79BE15370C6
:10156000B743D038252649405B57BA4932AA9F393C
:10157000AA8E73008513796DF1912F9EA3A0657CCF
:101580007D53B47053016B925F38F1D73D7AD60723
:10159000727ADBA165A50741004BEBC5D03BEB3070
:1015A00061420D4BA3D8078B12F5893D7CFB2E7948
:1015B000A7BCD5BF729AD81539AD2570D16CB05D76
:1015C000BBF43AF66056FAF2A528AE0D76B379F17F
:1015D0004BC72E6EB6616222D9A730234521DE4764
:1015E0008CEBE54C8B4E79A09D95B305AAAFECE64C
:1015F0007473F0DC37AD933B206DA1D8CFF97E9E9C
:10160000C6BB406456A6187528D2BA78645C4845B3
:1016100070358C499A454A6DF29C8D480A612EE3DB
:10162000D4EEA829404B53BB5639CE816CFD37A070
:10163000791CC794176C37EA97F4D8D49F9F304F22
:10164000E5A408B86BAEB9BC4F612044DF92DB1E45
:101650000483C0A12C09D8DF21F0200480AF73914E
:10166000BC0EBAE4F79B363C30F1B4BADCFA65F252
:101670002B1D184E1662D4AC8B21A5A2F132C3C922
:1016800065632D316BB88FE12493870499E6BDBA69
:10169000283063DAACC799378A8666B344D584AA02
:1016A000A15342A0381E5DF70529E7CA2A0B6AAB91
:1016B000CEF03AF390E6D125A1331C33997D24D1A5
:1016C0007423FC6F7DDBA7E9C2DE17122D1CB37EED
:1016D000880308757D9A4937AF60047CBCD31C53DE
:1016E000703497EBE1CD3079A28694585A99C2694B
:1016F000D7B232626C0A3669B1354841CE79967AF2
:101700000D2D33BF4D2FB8D8B3FBE47193B9180D2D
:1017100051ABBB09D90DD7671E4728C7F7CE605814
:1017200028235E95FC2BDBF90D1FAB49E6D0A737CC
:101730007920E4CF05E36421ACDFB1E8F9E04C3B6C
:101740005E89682A48C5640EDBF1538B1A2FF60CAC
:10175000189C529B212E4AE7D6BBB71A0A22AB4AE5
:10176000FDD3027D21FFB90E0F29ABACF4445E0F0F
:10177000D5F357E54F61724EBA55378F9A1CD4B8DE
:1017800030AF0A951A1386D40A835C991B2BC09339
:10179000F513F5EAFB6F75746C2E77C344C5386298
:1017A000B9F5AC58B4966EA4A545B51B7C9D2195A2
:1017B00016EE29572012BBF80A2325AC51FD7AE01A
:1017C0009D43B0276F2ADF0408D3F11D3C128DAF73
:1017D000F2D7B9029D46E3ABFF61C8612B19C8C1BE
:1017E000A16D0AA744FAB5A8D71E53156F7A4841D0
:1017F000E930B5ADE2F070406AF331DD1950E5BC77
:10180000B43D839FDFC8252790405B32044781FAAF
:1018100053B40A40157A745BDB24AB3AB791E344C6
:10182000B747073990D2F5A9084658DC3210A347CC
:10183000320445441371AC2EA7C971D0F9517ECA48
:10184000E509A81E775B3A08AA431CD68D6091462D
:101850006D64569E162ECEB399C8F655271384BCD8
:101860008AB3C8F51A72F76A0C46952F4A86B6D223
:101870009894F1C3370E0C8711567EAFDA22296F88
:10188000EBFAEC96E0276B42A170091AAD4888DAB2
:10189000FCE13B62952856702803B258678D0AEA2E
:1018A0009A1595515F83070920BF37AFF70A743C3B
:1018B000A552F1E3F55830E117DE98F1387BF0AF2F
:1018C000BD165952996C7470487714FF534184BC0B
:1018D000C5372F71843DF5467C63E000A05607F7BD
:1018E0008C6357BE545CE1FDAC35FAC2D5F25ABEEA
:1018F0007C318EBDDBFE4D036F5EA61F232DCA68B3
:10190000F0C614CCC33EF021D4402A72B67EE285E4
:10191000D68AFB48512777E4CBCD2FF6E1BCFEED0C
:10192000A1145FE532FCCFD9FB2FE9AD7D2D68E72F
:101930009A15956A4AE4ABE4EBE00D40BDEF8FB930
:1019400075B439086DC09F04FFCCDE13304EB6E489
:10195000E0CB69E5C61C2F436A632572D5DFBDDC89
:101960000BE9089D3D266FC389F818AC42BF4E9D18
:101970005D28B0264136768D8684FAD8D46758190A
:1019800069202D35FE09D98CFDF921A157DF17AE4D
:101990008ECBC97F2654DE104372DDBC18B934F9F2
:1019A000AB70F9744D8E6D2A331406D071E6ADAA72
:1019B000BE862E9A8D8788AF039FCBF8789A6638BB
:1019C00009CDAE89C2CCAF6A16140948AE9B55E466
:1019D0000FA586A1757F7CEF0DCB3AB30D1F020CCE
:1019E000801FB4F4E0A641CC8700406143E7FCB41B
:1019F0000124CA4534253C39FF098C39855A5BCC12
:101A0000273CBD28438645179A4E3524A423A2FDC2
:101A1000CA6CD4FBBAE741B3FB7C5507B56E3EB147
:101A20002972CC38EA273080B98CB8EE54AB3EDB53
:101A3000DD06D095EA3E42886BAE89C7E84C38B6E1
:101A400093F6BE4C204A8CCE2B22D27249461856B1
:101A50008070675AFAC0CA6D5321CAE3866891D371
:101A60007CA9D5AD6A72A1FE53E94085EA62A963FB
:101A7000753A2DEC9BFE58D873205210435C2DB460
:101A800021B9961F726DBA42EAF285BE5212A7B111
:101A90003E2B89EF0F73057C99C3C55F9653F8AF52
:101AA0009B7A49A044546055F0103A608D9050657F
:101AB000AEF779DB2E08F9BBF2D278D086B594A1C7
:101AC0000EB98189B7F9C043E88F3819DAED2FA72D
:101AD0005CDB01B338CEE6C3F2D5AA879E116FD87E
:101AE00005F072ABD9A10FFF46E94A8C0093E98655
:101AF0006F6B1470BEB1B889C9CC7D1A11D279FB55
:101B0000D9D72413948F019C4B693366018298883E
:101B1000F84C13310F58C1061130B48991349B89A8
:101B2000FC75CD11CA1A6FFA71D645E70FEB39096A
:101B3000B35A131FAA3A93CF8D6ECAEC2C8EC5836D
:101B40001B5AD6D189AC024FCB0F257696E05D2C7F
:101B5000FFA7EAEA92F1725BEE08D8848AA959E3FA
:101B60001277DAD6CA4E362D7CA413D1E8183199F3
:101B700002540AD07A74A0AD2C834A6FF1B1501B85
:101B80006469E8842F2CC8EB953DA518C74B82FCEF
:101B900088E1D37B0EBE10BA6502859B469A377AE0
:101BA000774DC2C45330679154F63D3944434213D4
:101BB0002E0929FD50A6DA94CE8697102B5C1C09BD
:101BC000CD0FFC15DC543B53E17CA7E1FD47C2AFD0
:101BD0007EEA340C6FE65C04306C84C751E3B55F79
:101BE000349EDD050C1CD4BCFBCD3AAEBC529254E5
:101BF000852CED0FFBF873105DD81F06E0A1592668
:101C0000B4393FC119F9D4BE4FF433EC3F3FFE8FD6
:101C100091D044F21278909E79A927EE05CB9F5A75
:101C20004B15DE6739181FE73A0A4198E7DEA72807
:101C3000A0D354663379B53A83375F25407047B8EF
:101C4000796B62963F48EA9F6ECB35E16F2DC4C237
:101C50004B9BA74D05790E1CFE095A9F87227A13CC
:101C60001B9F994D05DB1573D865FE395EA4437B38
:101C70006C79BD73914C9B4C941887EA68A7449F7C
:101C80005C3666FD41145EB18EEB45DA770EE0EC12
:101C90005EF40DBF41C648F015D860F74076237B4F
:101CA0001CE559445030CE064EC5A670C31817A285
:101CB00037ACBF2C6FBC9B3F58121110390018DB9A
:101CC0007D0BD22CEE0AAF76947AC15C21D2619F53
:101CD0001D7A9695DFA45181E61BD57C3644F060D1
:101CE000FF3AF632EC8FE09AC7E3BCADEBA69471F5
:101CF0004B6D38974C36A275FFFB3FEB60E131B17D
:101D0000BC32776CBD49934BC207BAF067FD68CA15
:101D1000F5A4FF2A5EE2BEB569B2A063931BB4BD11
:101D20004612FAEE885F46DFB2BAE8BA5447EA18BC
:101D3000FA0891779B1C878B01709EC0052BAAD750
:101D4000AF30A8018B28A0F59599325F08C4EF65E4
:101D5000453CC36DEFB8349D1C046686F2BC9D877C
:101D600097BE08DD58DD530F7DEC930BB95BE3089C
:101D70007615DFC7682FA8F84D338FAE0884C3E807
:101D8000CB9C718009D7116321040EC6F0509E0AC6
:101D9000A799149A5AF9AA5F06DF5C52374B390C9F
:101DA0007E18C1ABD636F578BD9F790EF233610E41
:101DB000C30B5A24023F42353DA4ADC5305076E7EF
:101DC000E34508661821EBDD1476F8F155E83B9DF4
:101DD0008B9392FFA7803438C2AD7CFFBD232B0BC1
:101DE0002C5FEAC09500FB8C376B8A42913EEFD6A0
:101DF0005143216F803EBDF2B32407A5924A76512C
:101E00003172354725E7B9D0F4C2DD52353A23C4E3
:101E100016FA2A8D99D0B953C2125C3FCE8DDBD110
:101E2000C8D159E588FF4911ABAB7BD1F2B4374932
:101E3000A0B1FEFE6C08761D0B9AF4B16DA0F220E5
:101E4000E417A74D85B38E7ACB8730AF119020A8C9
:101E500019EA2207FAC14CE8FCA2038F2AC536E42E
:101E6000AF669BBA0ADD6590DAD72762D9193BAB1A
:101E7000F666892DA53070E9AAE2D9C12347FD9AFB
:101E8000254A5F896297614B91FC341BFC97B27BBA
:101E900087F454FCD63648C28779A3C48F42B13147
:101EA00047DDE8D00A714722F3F49F287A700CBC12
:101EB0005930E0E4132465BD4C0E6D9E4D1590190C
:101EC00072C928B6950E92F9795C64B9B97BD7DCF2
:101ED000B4B9B4967F7255AE1EB0028E45BDF0A562
:101EE00090B7301240B6409CF16263726DF0BA1A3E
:101EF000F6F0406A47A2FC9BD870191AF524F64DFB
:101F00002F64FDF7C3FDA7455D94318FD69F5D21FA
:101F10006641D43951AF618C1E9F0611E97A883130
:101F2000E126B61C7406F59835171AAB193A8CC61B
:101F30000E7E14D06E441C666167F18E287230D21A
:101F4000BF7D6F08179962EE7818543AD57F61AC5F
:101F500010833E2C924F5A985997FB8297ADC873C5
:101F6000A26C0D06CF0A69DAEB9EF7677FDEE88385
:101F70000B465A3F02B3607FDCA3FF148ECFA265ED
:101F800072CE3E11392D9494478EC78C706B7C496C
:101F90008E3CD74C02C877A5FDBA9A0A1A1BD94ABB
:101FA0008303DFE2756E28D9631F021827278F4B42
:101FB000E7000000A90200187F3101187F1E0418F5
:101FC0007F1B05187F0E081800140918003C001329
:101FD000FF00011304000413BC7F0513BC7F000045
:101FE0000000001A1800011A0F00021A204E031AEE
:101FF0001400041A1400051A3C00061A0000000020
:102000000000001A7F00011A7F00021A204E031AF6
:102010001400041A1400051A3C00061A55000000AA
:1020200000000019100001191800021940000319DE
:102030002C010419AA000818140009183C000A18F9
:10204000A00F0B1828000000000003140200041465
:10205000050000000000183C8C660302080404041C
:1020600004040404040404040404030508030257DC
:102070006687898B8D8F91939597999B9D9FA1B230
:10208000B4C5C7C9000000FFFF00000000080BD462
:1020900084606FD67216F40FCE590247F5AA838872
:1020A0003601E6487EC4EA5727901A468142F87501
:1020B000F4341D9EBC7A398140948600278AE91B3E
:1020C0004C8CBD93FA5B6BBABE84C5DF28961E713B
:1020D00042C2B5601A86012F471575DF2AF7B2167E
:1020E0009422060B7767253779F9730FB641316370
:1020F00049228DA941C5C876701CA45E709186A442
:10210000CA56475657A0D46B19437D24FF25075460
:1021100081A75FE363F4E02FA89352DCBCF853B7C8
:102120003F87EC6639EDACE568D01B49F056547A30
:102130002F3F926A26975AAC25ADA043FD38F4494B
:10214000DA8621FDB0A09DBA5DEA346B49EED2B4C7
:102150003C6DC4E92161A9CC937762D94AE70A585A
:102160001370C548D9F3AD53866AB5DF55E7CFEB99
:102170003CA6C5550C168788543BF71F58846F84BE
:10218000E89DE42DA37AD113556BDC538C4E65F496
:102190004CD0C0E23ED076714EAC3C945224D0EB91
:1021A0009D2937C2265F8645D1A6A6D8CF24B70081
:1021B000576A18866614F40126C0F595460071E941
:1021C0000F65D87ECC7E5029236AC43E99D6C7932A
:1021D0001FA8783AB2FC7171C4FAF213DBD6F1C9C8
:1021E000988B8B8AFACF4B3A0D61BE78E3D5349B3E
:1021F00021A8A60324F8D733295F2A6458696E659D
:1022000092ECD7257B07838F7BD482EC8FE55A5ADB
:10221000A565E64F8F7A8074088352AC84D410474A
:10222000A44B0CB6E24B0152D0796BB312CA8BAD02
:1022300085D77D2109D57275E41F7696E3FFBF052A
:10224000DBCB5ED717E310BFB704E921074D53C4BA
:102250009FEFC70A1BB4B1E6160B18354A5361FA53
:1022600077B2622E60E3D7FF3B47F2FBB47CFFD925
:10227000BF586ABCD33CF72284D6D3366350E5906E
:102280000FD01F3983CF73BA376EFC55E02C7CBB5F
:102290004354B4293D298095C43580CD6DF5A522E0
:1022A0004771AD9A69EA5259D93E0606E90AC1DC7E
:1022B000189CA5EFCF66288107605CE104BDE2A40D
:1022C00053B5571EAAD5BFC3D707666A781D4E51AE
:1022D000F66C8E2122987355A8BEB210C9EA784FC9
:1022E0001D1124DAF108C65CF7A3CB23B0D9BA16C6
:1022F000231F9C81125440C84D85AA7EE41419CE38
:10230000CD08A9C42A52EBD78C481ED5B205BD967C
:102310003D45D5155F8CD5654C8A23FF2A8DC62D8A
:10232000F431519F3B467FD5412A54DD298F072F39
:102330007C28381A91E85ECF458D71E4344229F645
:1023400073BEEF2602378B1FE0287972010ADB4D3E
:10235000BB8C16814D1E65F2B9EC3C7F94AD6E2DA1
:10236000DE764EB847949E290B6CEB72784EE3AB49
:1023700085FA94E6E1DE8130075051B977470008CD
:102380000CD6AD3A619449C1A9A2B9EB0C331D97A3
:1023900091933F13FE2C8FD65E21C272633BC382A2
:1023A0006BEFADF39E76FB979D9414B55BCBE9DBA9
:1023B00009BD08596C84384C91203B3CB7B31D6C67
:1023C0000ACD8628190320D58AAD721A3708907372
:1023D000E689EF22C5F3DBB51DBA3F647813BAEA8C
:1023E000B9860962F3841BB796595E642B8BE59E10
:1023F00069BCCDEC4BBA9114371855631DDB9E3385
:1024000082081B131FAC8D3921EEEB3D5777E5E1B8
:10241000C0DF32A33D9CEA11243547D4E9F6FF6AB8
:10242000EC2069487F0CD8981602D710BC03457081
:1024300068DA82479103693A712053694E03E77362
:102440005B61AC07CA035D703F40066942030A8FB7
:10245000967DC1FBB103349AD047643135032E9386
:10246000CB274529E103C24A2779577EE803605408
:1024700085934CBB690325987CA01A4CB50390FB4F
:10248000CDE45F22E4031A7E2FB4121753035BA638
:10249000BF1A1CAC356BAE05DDA3A8C3D0E0A6AA5D
:1024A000149C1A61092CABA7D0DE96832F66DD2819
:1024B00097835E29C6B39223FFC6E327197D0EB129
:1024C000D07269C7A1B3AB524F4CB878A72D1A2E62
:1024D000270F681E6BAAEDE3DE3051DAE19B0ECECA
:1024E000A7FC55E79D31C9A170F64FE44D715BB370
:1024F000665DB45CBA79723F183AC58999E8EEC650
:1025000004E9DF9C0A04EED302768D84A36370ABEA
:10251000D5119A6C7B9AA41C0E525F52C583360D5E
:10252000141BFBFF2B75956AE06E31A82E1B66D835
:1025300064AC409579A9EB436101B46EFCB3CD8FD7
:102540006DB62DF1D953B6A2AD6C5E0805765D630C
:10255000836176B3BD4B51EFC2DB388D2A53B69DF4
:10256000A345AA72F72875CBC73E1824EA7214D87F
:10257000FA7D63233CE038F6941329853FCE661735
:102580007B7C71025D1514FE96B7000000AE5A0305
:1025900034030004340A00000000000002040003B9
:1025A00000011003020000030201000600040006FF
:1025B00005002006050400003900000000000000AE
:1025C000390C00013937000239400003392C01046D
:1025D00039AC000000000044454C3A4257204641C7
:1025E000564F524954455300454D505459204C497B
:1025F000535400414D20004C534200555342004378
:10260000572000464D2000AED5808D142001A1C872
:10261000817FDB40A6DA12A83FAF01010101014D25
:102620004F445F4E4F5F5244532067697468756230
:102630002E636F6D2F646971657A69742F6174738D
:1026400032305F6174735F657800415453204558A0
:10265000004154532D32302B2056372E322E31006C
:102660004D454D205245534554004D454D2057454D
:102670004152000000580284030807100E415454D0
:10268000000000253E274156430A05000A731D53EA
:10269000514C0001003C801F534D4100050020C0FB
:1026A0001D534D540005003FAF1D414E4200060131
:1026B000011C1F42464F000500FF901E53534D0161
:1026C0000A0701721C535643011A0201F22C434FB0
:1026D00046000B0002D61C53594E001A0201E02C92
:1026E00043575007050008831E444520000E030190
:1026F000161E464D50010E01014A1F464D4F001E49
:102700000201501D465341160D001F9E1D46535495
:10271000000D000F8D1D535741001502036E1F530E
:10272000435204010009FF265350540002110319BB
:102730001953575500060501F21944495300020088
:1027400004121952534901060101EF194E41560076
:10275000020F01EC19434150000201017E1A43505F
:102760005500020901E61942415000020001E31937
:1027700053434E01120201E0194656410001000F79
:10278000211D53574C00120201D619414753010A2B
:102790001502F11D534D52010615023E1E000204A2
:1027A00001030506080A07090B0C0E100D0F111284
:1027B0001416131517181A1C191B1D1E1F000301D0
:1027C0000402050609070A080B0C0F0D100E111262
:1027D0001513161417181B191C1A1D1E1F000000B4
:1027E00000250028002B000404040404040404024F
:1027F000020202020203030303030301020408109E
:10280000204080010204081020010204081020006A
:10281000000008000201000003040700000000009F
:102820000000000000000000442A3C5422082A1C3A
:102830002A0808083E080808080808080060600020
:102840000040201008043E4141413E00427F4000CC
:1028500042615149462141454B311814127F1027DE
:10286000454545393C4A4949300171090503364916
:10287000494936064949291E0036360000412214CE
:1028800008007C1211127C7F494949363E41414182
:10289000227F4141221C7F494941417F09090101B1
:1028A0003E415949327F0808087F00417F4100209E
:1028B00040413F017F081422417F404040407F0259
:1028C0000C027F7F0408107F3E4141413E7F090991
:1028D00009063E4151215E7F091929462649494989
:1028E0003201017F01013F4040403F1F2040201F37
:1028F0003F4038403F6314081463070870080761BD
:102900005149454300007F000020545454787F48CB
:102910004444383844444420384444487F3854546C
:102920005418087E0901020C5252523E7F080404DA
:102930007800447D40002040443D007F1028440042
:1029400000417F40007C041804787C080404783837
:10295000444444387C14141408081414187C7C086B
:102960000404084854545420043F4440203C404050
:10297000207C1C2040201C3C4030403C4428102837
:10298000440C5050503C4464544C448080808080BF
:1029900000FFFFFFFF01FFFFFFFF0203FF0405062B
:1029A0000708090A0B0C0D0E0F1011FFFFFF12FF95
:1029B000FF131415161718191A1B1C1D1E1F202192
:1029C00022232425262728292A2B2CFFFFFFFF4816
:1029D000FF2E2F303132333435363738393A3B3CDD
:1029E0003D3E3F4041424344454647FF2DFFFF01E6
:1029F000000C010C010F000C100F00011E0C010057
:102A0000100F0000010F00010F0C01011E02013F19
:102A1000065B4F666D7D077F6F801A3811241FBEDD
:102A2000CFEFD8E0DEBFCDBF14E0A0E0B1E0E0EB37
:102A3000F3E702C005900D92AC3BB107D9F727E050
:102A4000ACEBB4E001C01D92A433B207E1F715E18D
:102A5000CEE0D5E104C02197FE010E94C039CD30FF
:102A6000D107C9F70E9498380C94D6390C9400000D
:102A7000EBE7F4E081E08183108284E98093BC007D
:102A80000895EBE7F4E081E08283108284E980938B
:102A9000BC000895B0E0A0E0E0E5F5E10C949139C8
:102AA000EC01241708F020E031E0211101C030E0F2
:102AB000340FFE01E30FF11D1082F0E0E0E0842FFF
:102AC000821B990B5C011EE28AE0C82ED12CE41710
:102AD000B8F4222341F0AE16BF0629F43150DE01CE
:102AE000A30FB11D1C9331507E01E30EF11CCB01ED
:102AF000B6010E940939805DD7018C933196E7CFEA
:102B0000211101C0242F80E02150330BE82FF0E089
:102B1000E217F30744F4EC0FFD1F9081903319F492
:102B200000838F5FF3CFCDB7DEB7EAE00C94AD3909
:102B3000E62FE695E695E695880F880F8E0FE82F2D
:102B4000F0E0E75EF94F677021E030E001C0220F4E
:102B50006A95EAF78081822B8083089590910D0712
:102B600080910E07EEEEF6E080839183089590E069
:102B7000FC01E15FF74D2491FC01E550F84D3491E3
:102B8000FC01E951F84DE491EE23C9F0222339F01C
:102B9000233001F1A8F4213019F1223029F1F0E0BD
:102BA000EE0FFF1FE352F84DA591B4918FB7F89443
:102BB000EC91611126C030953E233C938FBF089560
:102BC0002730A9F02830C9F0243049F780918000DF
:102BD0008F7D03C0809180008F7780938000DFCF4E
:102BE00084B58F7784BDDBCF84B58F7DFBCF80919B
:102BF000B0008F778093B000D2CF8091B0008F7DEE
:102C0000F9CF3E2BDACF3FB7F8948091110690911F
:102C10001206A0911306B091140626B5A89B05C014
:102C20002F3F19F00196A11DB11D3FBFBA2FA92F4B
:102C3000982F8827BC01CD01620F711D811D911D48
:102C400042E0660F771F881F991F4A95D1F70895B4
:102C50008F929F92AF92BF92CF92DF92EF92FF92AC
:102C60006B017C01D0DF4B015C01C114D104E10494
:102C7000F104B1F0C8DF681979098A099B09683E37
:102C800073408105910588F321E0C21AD108E1085B
:102C9000F10888EE880E83E0981EA11CB11CE5CFD8
:102CA000FF90EF90DF90CF90BF90AF909F908F906C
:102CB00008952FB7F89460910D0670910E068091DB
:102CC0000F06909110062FBF08950F931F93CF9377
:102CD000DF93EC018B01EDDF607F737048815981D8
:102CE000942F9F709A01207F3370EA81FB8180814D
:102CF000EC818E236217730708F47C5FFB01E21BF3
:102D0000F30B9330A1F158F4913069F178F08823F6
:102D100009F451C0E034F10538F090E005C0953079
:102D2000B1F170F19630C9F180E005C081113AC06F
:102D30009B01892F91E0207F3370292B44275C7FF2
:102D4000242B352B398328838823B9F101151105EC
:102D500029F0632F66956695F8010995DF91CF916B
:102D60001F910F9108958111D8CF93E0E4CF811185
:102D70001BC0E034F140C0F29B0183E094E0DBCF64
:102D8000811115C0F09780F29B0187E0D4CF882392
:102D900081F09B0192E08BE0CECF882331F392E06B
:102DA00081E0C9CF892FC7CF9B0196E0BDCF95E0C9
:102DB000BBCF94E0B9CF9B01B7CF933078F288E0D6
:102DC000CDCF80E69AEE2091BC0027FD09C0019787
:102DD000D1F71092BC0084E08093BC0080E008959D
:102DE00081E008958093BC00ECCF089584EAFADF77
:102DF000811101C03DCE089590917C04911116C0BF
:102E000090917D04911112C08093BB0084E8EADFA9
:102E1000811102C036DE0AC08091B900887F8033FC
:102E2000C9F3883411F0803221F422DE90E080E092
:102E3000089581E090E00895CF93C82F10927C040C
:102E400010927D04D3DF80917C04811103C08C2F0C
:102E5000880FD2DFCF910895CF93C82F10927C04B2
:102E600010927D0481E080937E0460937B0466234E
:102E700081F0BCDF80917C04811104C08C2F880F0D
:102E80008160BADF60917B04611103C084E98093A3
:102E9000BC00862FCF910895DFCF0895ADCF089560
:102EA00080917B048823C9F0815080937B04882320
:102EB00039F084EC97DF81110EC0E3DD80E00895E6
:102EC00084E890DF8823C9F380917E04882331F061
:102ED00084E98093BC008091BB00089587DFFBCF1D
:102EE000EF92FF920F931F93CF93DF93C8E8D3E144
:102EF0000BEA14E084579F4F7C01C8010197F1F75A
:102F000061E070E0F70180819181C6DF80917B04F0
:102F1000882329F0C5DF87FD02C0219771F7CDB75F
:102F2000DEB7E6E00C94B13967CF089580911506BD
:102F300083DF80E4F9CF0895809115067DDF80E07E
:102F4000F3CF0895EF92FF921F93CF93DF93E82F73
:102F5000809117068A3738F510911606119580EE84
:102F60008E0F8F3530F5E052FF0BE057F64DC491D0
:102F7000CF3FF9F085E0C89FE0011124CD5DD74D2A
:102F80007E01E5E0EE0EF11CFE0184918127CCDF8D
:102F90002196CE15DF05C1F7812FC6DF8091170678
:102FA0008A5F80931706DF91CF911F91FF90EF907A
:102FB0000895C3E2D8E2E4CFE8E9F5E01082138295
:102FC0008AE0868311821482878312821582808729
:102FD00008958091A6059091A7059093260580936A
:102FE00025050895FC012FB7F89480819181118205
:102FF00010822FBF0895982F990F890F23E0280F73
:103000009091AD05291708F4922F089581E09091D1
:103010002104943009F080E00895E091610010925D
:10302000B900EF70E53008F0E4E0F0E0E158FB4F64
:1030300080818093B80008959FB7F894E1E6F0E0AE
:1030400020E8208380839FBFE8CF08959FB7F8943E
:10305000309903C081E080932305809123059FBFB1
:103060000895982F8091EB0520912104882319F071
:103070008150233041F4992321F0945081E0923023
:1030800010F480E0089508959A0136952795620F0F
:10309000731F811D911D9A0150E040E00E9430395C
:1030A000C901089532E1639FF0011124E95FFE4FE9
:1030B000222359F051E0213009F050E031E07085D1
:1030C000733009F030E053130AC0A481B5818A1728
:1030D0009B0728F0A681B781A817B90730F46F5F66
:1030E00072964613E5CF60912204862F0895FC0165
:1030F000DB011B968C911B9783871E968C911E97E4
:1031000086871C968C911C9784871F968C91878745
:103110000895CF93DF938091FF05882391F08091EC
:103120003301823071F4C7E0D1E08885823021F428
:103130006BE271E0CE01DBDF629684E0CF31D8072D
:10314000A1F7DF91CF9108956AE00C94FD380895BE
:10315000833041F4643028F0663020F06A506230E9
:1031600008F081E00895861B970BBC01469FC001C3
:10317000479F900D1124622F70E00E940939862F1D
:103180000895873822E0920758F58C3E21E0920797
:1031900048F1893622E0920738F02FE142E168E6F3
:1031A00072E0E1DF8E5A0895823422E0920738F00F
:1031B00027E243E261E472E0D6DF815D0895833166
:1031C00022E0920738F02FE248E262E172E0CBDFC2
:1031D000895F089527E247E06BEE71E0C4CF089560
:1031E00084E6089580E008958E508770806480930F
:1031F0007C0087EC80937A0080917A0086FDFCCF7A
:1032000080917800909179000895FC018081280FC9
:10321000261714F440830895421714F0208308956C
:1032200060830895282F44E060E087EF95E0EDCFBC
:103230000895282F43E060E085EF95E0E6CF0895FC
:103240008091220422E1829FC0011124895F9E4F58
:103250000895CF939091FF05992391F0C82FF0DF47
:10326000FC012085223061F420913301223041F4A9
:103270006BE271E0CC2319F0BC018BE291E037DF07
:10328000CF910895DDDFFC01818592859093A7059C
:103290008093A6050895D4DFFC018091A605909146
:1032A000A705248135818217930738F0268137815D
:1032B0002817390710F0928781870895C1DFFC0134
:1032C0008085089528EE33E040E050E00E943039D8
:1032D0003093AB052093AA050895EBDC7093AF05FE
:1032E0006093AE05EFCF0895E4DCECDF81E08093DE
:1032F0003205089580912104823069F0833019F0FD
:10330000813039F4089580912004823021F081E0E9
:10331000089580E0089582E00895909121049150ED
:1033200081E0933008F080E008958436910520F420
:103330000A9758F481E00895803127E2920738F423
:10334000883E934030F483E0089582E0089585E05C
:10335000089584E0089599E0899FF0011124EF57C2
:10336000F94D84910895F7DF90E0959587959595AF
:103370008795837099278230910549F083309105B4
:1033800041F0019741F442DE91E089270895C5CFCD
:1033900008953CCE089581E00895E82FF0E0EE51C5
:1033A000FA4F808191E08927808308958DE1F5DFD0
:1033B0008091FF05882319F081E04BDFAACE0895A4
:1033C0008BE1EBCF08958AE1E8CF089589E1E5DF4D
:1033D0008091FB0531CE089587E1DFCF089586E126
:1033E000DCCF089584E1D9CF08956AE070E080E0F1
:1033F00090E02ECC0895249AF8DF2C98F6DF2C9AD2
:10340000F4CF089584E98093BC0080917C048111FD
:1034100009C080917D04811107C010927C04109234
:103420007D04089582E0F9CF83E0F7CFCF93DF9357
:10343000D82FC92F81E596E053DDD093FC06C093C9
:10344000FD06C093FF06D0930007909132079923A1
:1034500061F08091FE069295990F990F907C837090
:10346000892B81608D7F8093FE068091DD06E4DCF0
:103470008091E906C1DC8091FE06BEDC8091FF06EA
:10348000BBDC80910007B8DC80910107B5DC80913E
:10349000E906803419F480910207AEDCB3DF81E5E0
:1034A00096E01EDDD093EE06C093EF066091DF0636
:1034B0007091E00690E080E0CBDBDF91CF91089542
:1034C0009C019091FE06937C9093FE068091E90604
:1034D000803461F0203C310508F020E020930107A2
:1034E0008091EE069091EF06A1CF08959D7F909375
:1034F000FE063093010720930207F2CF88E14DDFEB
:10350000DDDE833029F08091FA0590E0D9CF08956F
:1035100081E0FBCF8F929F92AF92BF92CF92DF92CA
:10352000EF92FF92CF93DF9380910606811148C0FE
:1035300080913105882309F443C0EFDE811140C03A
:10354000B8DB6B017C018091A4059091A505C09129
:10355000A605D091A705C817D907E8F14E01881A2A
:10356000990AC40120912705309128055601A21A15
:10357000B30A950140912D0550912E0560912F05BC
:103580007091300546015701841A950AA60AB70AB8
:10359000B501A401423351056105710510F4C297CC
:1035A00078F02832310560F0CE0140DF109231050D
:1035B000D0922805C0922705D093A505C093A405F5
:1035C000DF91CF91FF90EF90DF90CF90BF90AF90C1
:1035D0009F908F9008958C1B9D0BC4CF0F931F93CA
:1035E000CF93DF93182F8091E906C8E0D3E28032B1
:1035F00031F0C6E0D3E4803511F4C8E0D3E581E5CD
:1036000096E06EDC8091DD0617DC8D2FF5DB812FD7
:10361000F3DBF8DE81E596E063DC6C2F70E08091EF
:10362000DD069091DE0638DC03E017E0D0E038DC00
:10363000F80181938F01DF5FCD13F9CFDF91CF9137
:103640001F910F910895B0E0A0E0E9E2FBE10C9436
:103650009439C82FD62FD42E79018091DD06ECDB6A
:103660008C2FCADBC1E0DC1738F5CD1528F5D80161
:10367000ED91FC911197CF0101968D939C93EE0DE6
:10368000FF1D8491B9DBCF5FC83069F7BBDE81E5F0
:1036900096E026DC61E070E08091DD069091DE0628
:1036A000FBDBFEDB86FB882780F991E08927CDB71D
:1036B000DEB7E7E00C94B03980E0E4CFA2E0B0E000
:1036C000E4E6FBE10C9489396C015B014A013901A4
:1036D0001A821982FB0145905490F12CE12C312C77
:1036E000E414F50408F04CC0C5010496FC012591D2
:1036F00034912E153F05C8F3FC0132962591349183
:1037000085E1E114F10409F086E1432D50E0F40174
:10371000E40FF51FE491E20FF32FF11DEE15FF0505
:10372000C9F43394460D571DFA01449192E0292EB5
:10373000443618F04456222423948E010F5F1F4F05
:10374000960160E080DF811108C080E02296E2E10E
:103750000C94A539212C48E0F0CF222069F08E018D
:103760000F5F1F4F960148E0622D85E16CDF8823D3
:1037700061F3FFEFEF1AFF0A8FEFE81AF80AB0CFF4
:1037800083EE93E00197F1F781E0E0CF809133077A
:1037900087FD06C061E0EBD98BEA94E00197F1F771
:1037A00081E596E09DDB8091DD0646DB81E190E0DE
:1037B00075DB28DE8BE097E20197F1F7089581E54C
:1037C00096E08EDB8091DD0637DB81E090E066DB02
:1037D00081E390E063DB85E090E060DB13DE6091E5
:1037E000E1067091E20690E080E032CA0895A0E11F
:1037F000B0E0EDEFFBE10C949539C8DF81E596E090
:103800006FDB8091DD0618DB81E090E047DB8FE124
:1038100090E044DB85E090E041DBF4DD7E0181E176
:10382000E80EF11C81E596E05BDB68E070E08091DA
:10383000DD069091DE0630DB8E01075F1F4F30DB27
:10384000F80181938F01EE15FF05C9F7898586FD83
:10385000E9CF8BE097E20197F1F788E0FE01399616
:10386000DE01119601900D928A95E1F729813A8146
:103870004B815C816D817E818F8198856096E6E0C9
:103880000C94B139EF92FF920F931F93CF93DF9374
:10389000EC01F62EE72E142F052F22DBC457DF4F45
:1038A0008881CADA82E1A8DA80E0A6DA8E2DA4DA6D
:1038B0008F2DA2DA802FA0DA812F9EDAA3DD83E993
:1038C00098E00197F1F7CDB7DEB7E6E00C94B13997
:1038D00040912C0750912D0761E071E081E596E061
:1038E000D1CF089587E059DD18DD882349F0809114
:1038F0002D079091E90590FB85F980932D07E8CF7E
:103900000895A8E0B0E0E7E8FCE10C949939439A07
:1039100088E08093B8006BDF29833A834B835C8314
:103920006D837E838F8398874ADF62E370E080E057
:1039300090E08ED924E232E04AE552E060E972E09C
:1039400088EA92E0BBDE7CDC2091E906203279F047
:10395000DC011F96EC91F0E0E255FB4F80818F7007
:10396000806180932C0780E980932D07B1DF55DBC0
:1039700081E08093200510921F0543982896E2E08D
:103980000C94B5395DDCDC011F96EC91F0E0E2555A
:10399000FB4F808166DBECE2F7E0982F9295907FF9
:1039A00080818F70892B808393CF0895282F42E0E8
:1039B00060E08BEE95E029DCB0DC8111E3CF089567
:1039C0009091E906903469F4873058F4482F50E01C
:1039D000516062E071E381E596E054DF81E596E0B5
:1039E0007FCA08951F93CF93DF93EC01162F462FC4
:1039F00050E060E070E446DFC152DF4F1883DF9192
:103A0000CF911F91089560912405611116C0809196
:103A1000230490912104943091F49091FE0598171D
:103A200010F4682F691B80910401861729F06093B8
:103A3000040181E596E0D6CF089560E0F4CF682FC9
:103A4000F2CF282F4FE060E08EEF95E0DEDB809133
:103A50002104843009F4D7CF0895FF920F931F9368
:103A6000CF93DF93F090F005C6EBDFE10EEC1FE1A2
:103A7000FE0165917491FE01329645915491F110C9
:103A800002C0452F5527552781E596E0FBDE249699
:103A90000C171D0769F7CDB7DEB7E5E00C94B23916
:103AA0008EE07BDC80912104843009F4D6CF089528
:103AB0008B3008F085E0E82FF0E0E75EFD4FE49101
:103AC00084EF8E0F8F3470F4E093F30684E591E079
:103AD000E89FA001E99F500D112463E071E381E5A7
:103AE00096E0D0CE089590912104943079F0282F5B
:103AF0004AE060E083EE95E088DBFCDBE82F809114
:103B0000E305F0E0E856FA4F8683D2CF0895AB0183
:103B1000BC0181E596E0B6CE0895282F4FE060E025
:103B200082EF95E072DB80912104843031F4609162
:103B3000F20570E083E093E1EACF0895282F4FE18A
:103B400060E081EF95E061DB80912104843031F405
:103B50006091F10570E082E093E1D9CF0895282FBC
:103B60004FE360E086EE95E050DB8091E90680321D
:103B700031F06091E60570E083E093E3C8CF0895EB
:103B8000282F40E260E085EE95E03FDBB3DB6091FB
:103B9000E505E82FF0E0E856FA4F638380912104B1
:103BA000843021F070E082E093E3B1CF0895CF93A9
:103BB000DF9380910006C82FD0E064E070E002C07F
:103BC000660F771F8A95E2F780E097E3A0DFCA5A75
:103BD000DF4D688170E081E097E399DFDF91CF915D
:103BE0000895282F42E060E080E096E00EDB95DB50
:103BF0008111DDCF0895CF93DF93EB01BC0180E00D
:103C000094E185DFBE0181E094E181DF6AE070E04C
:103C100082E094E17CDFDF91CF9108956091EE0521
:103C20006F5F70E080E091E172CF08958CE0B5DBCA
:103C300080912104843009F4F1CF0895CF93DF936C
:103C4000E82FF0E0E856FA4F638170E082E093E3FA
:103C50005EDFC2EED5E06C8170E083E093E357DF76
:103C60008F8D60E870E002C0759567958A95E2F7E0
:103C700080E093E34CDFDF91CF910895282F42E05D
:103C800060E081E096E0C1DA80912104843011F097
:103C900031DBD4CF08951F93CF93DF93C0912104DC
:103CA000D09120041C2FC33009F41D2FC9DAFC0168
:103CB0008189F4E68F02C0011124123019F4919524
:103CC0008195910970E060E0C33059F46091ED0591
:103CD00024E66202B0011124D23019F47195619585
:103CE00071092091A1053091A205820F931F680FE1
:103CF000791F71956195710980E091E008DFDF918E
:103D0000CF911F910895282F48E065E08DEE95E052
:103D10007CDAEADA80912104833009F4BCCF08957B
:103D2000CF93C82FCBDA833079F02C2F49E167EE9F
:103D300088EE95E06ADA84DA2091E805FC01218BAF
:103D4000D3DAEBDA8111A7DFCF910895CF92DF921A
:103D5000EF92FF92CF93DF93809121049091030122
:103D6000981741F0809303018FEF9FEF909302012A
:103D7000809301010E9459166B0180912105909159
:103D800022059601281B390B28323105B0F0C0916D
:103D9000A605D091A7058091010190910201C81755
:103DA000D90731F0CE0142DBD0930201C09301016B
:103DB00072DFD0922205C0922105DF91CF91FF9052
:103DC000EF90DF90CF900895B0E0A0E0EAEEFEE142
:103DD0000C949339AC018B012091A6053091A70575
:103DE000A8EEB3E00E9474396B017C014DD9EC015F
:103DF000A801C701B60148D97C01BE0184E091E366
:103E000086DEB70185E091E382DECDB7DEB7E8E07C
:103E10000C94AF39CF93DF93EC01FE01859194911F
:103E2000009739F0FE0132966591749170DE249608
:103E3000F4CFDF91CF91089585E0AFDA809121042E
:103E4000843039F08091E705811104C087EB95E259
:103E5000E1CF08958FEB95E2FBCF8EEC9FE1DADFA7
:103E60006091F10570E082E093E151DE6091F2052E
:103E700070E083E093E14BDE82E290E2CBDF809161
:103E8000EF05811104C082EE9FE1C4CF089582E066
:103E900090E2FBCF8DE081DA80912104843009F437
:103EA000DCCF08958091210481110CC007DA8230A3
:103EB00031F48091F305823031F0833051F08DE0A0
:103EC00092E0A8CF089560EB74E080E496E07CCFA8
:103ED00008956CED75E080ED97E0F9CF282F43E071
:103EE00060E083EF95E091D9DDCF089550E040E0A8
:103EF00061E070E481E596E0C5DC10922905089543
:103F0000282F4CE360E084EE95E07FD98091E405B2
:103F1000811104C0809129058111E8CF0895B0E096
:103F2000A0E0E5E9FFE10C949039EC01D62E142FC6
:103F3000FC01E856FF4F8081803261F098E0E92E65
:103F4000F12C02E4803451F026E0E22EF12C02E55F
:103F5000803521F088E0E82EF12C02E2CE010E94AB
:103F6000701780E0D0FA80F910FB81F9182F1370D8
:103F70006E018CE8C80ED11CF60180810E941C17CE
:103F8000802F0E94FC16812F0E94FC163BDA5E01F6
:103F9000FAEBAF0EB11CCE010E947017B701F6010B
:103FA000808191810E944C17912C092D10E00E15F3
:103FB0001F0554F40E9450170C0F1D1FF801E65402
:103FC000FF4F80839394F1CFF501808186FDE3CF8D
:103FD000CE010E947017CDB7DEB7EBE00C94AC3980
:103FE000B0E0A0E0E6EFFFE10C949239EC010E9412
:103FF0007017FE01E457FF4F80810E941C1781E07B
:1040000090E00E944E17FE01E352FF4F80810E9414
:10401000FC16FE01E252FF4F80810E94FC16F2D98D
:10402000CE010E947017FE01E057FF4F6081718141
:1040300090E080E00E942816FE01EE51FF4F808143
:1040400087FD07C060E00E94B7158BEA94E00197F6
:10405000F1F7FE01ED55FF4F8081811123C08E01E4
:104060000A551F4FF801E080F180A70161E072E07E
:10407000CE0108DCF801F182E0820C5F1F4FF801ED
:10408000B0807E01F8EAEF0EF11CF701C080D1800C
:10409000A60162E072E0CE01F5DBF701D182C082B9
:1040A000F801B082CDB7DEB7E9E00C94AE391F93CA
:1040B000CF93DF93EC01122F9093EB068093EA06E7
:1040C0007093ED066093EC0681E090E09093F1062A
:1040D0008093F0064C175D0720F06417750708F011
:1040E000EA01909131072091F40680912E073091DA
:1040F000F50630FB87F98F7920FB84F9807F81609A
:1041000080932E0790932F0780E48093E906809197
:10411000FE06807C81608093FE061092010781E09C
:104120008093020781E596E05BDF6091300781E5CF
:1041300096E058DC1093320782E08093F206D09329
:10414000EF06C093EE06CE0171D9DF91CF911F919A
:1041500008950F931F93CF93DF93EC0184E0809336
:10416000210410922A05ED85F0E0EC55FB4F2081EB
:10417000022E000C330B89859A856E817F810C811C
:104180001D814091FE064F734093FE061093EB068F
:104190000093EA067093ED066093EC063093F10607
:1041A0002093F0068017910720F06817790708F030
:1041B0008C01ECDA909131072091F4063091F606EB
:1041C00080912E074091F50640FB87F930FB86F978
:1041D0008F7D20FB84F9807F80932E0790932F079B
:1041E00080E28093E9068091FE06807C8360809364
:1041F000FE061092010781E08093020781E596E0B8
:10420000EFDE6091300781E596E0ECDB109232073B
:1042100050E040E060E07FEF81E596E033DB83E74C
:104220009EE10197F1F71092F2061093EF060093CA
:10423000EE06C801FBD86E817F818C819D81DBDC1D
:104240008AE490E2E7DD1092200510921F0568894C
:1042500070E082E091E15BDCE1DCFFDDFEDBDF9121
:10426000CF911F910F910895CDC808950F931F937B
:10427000CF93DF93082FD62F142FC22F0E949C17A5
:1042800081E20E949417802F0E949417812F0E9430
:10429000941782E20E9494178D2F0E9494178C2FFE
:1042A0000E949417E1DFDF91CF911F910F91089544
:1042B000E5E1F6E082836383669566956695262F31
:1042C0004FE7D4CF0895660F660F660FF1CF0895BC
:1042D000FF920F931F93CF93DF93F42ED62FD69593
:1042E000D695D695CFEFC20FC60FC695C695C69583
:1042F0004FEF4F0D480F2C2F6D2FB8DFCF5FCD1B29
:10430000CF9DE00111240E9496170115110559F067
:10431000C00FD11F0C171D0761F0F80181918F01AB
:104320000E949417F7CF219720F080E00E94941705
:10433000FACF9ADFCDB7DEB7E5E00C94B2390F9330
:104340001F9310E000E0C4DF1F910F910895EF92DA
:10435000FF920F931F93CF93DF93F12CE12C0097E3
:1043600081F0EC010E9496178E017801EC1AFD0A8B
:10437000F80181918F01882319F00E94A217F5CFCF
:1043800073DFC701CDB7DEB7E6E00C94B139A4E026
:10439000B0E0EDECF1E20C949339082F8091030624
:1043A000882309F43FC08091FC058130C1F080E191
:1043B0000E94F4181816190614F08BEE91E0409143
:1043C0002504509126044F3F540759F49093260436
:1043D000809325040E94C1188093280419C08FE09F
:1043E000E7CF6FE0649F9001659F300D1124820F2D
:1043F000931F24E0959587952A95E1F790932604DD
:10440000809325040E94C11890912804891303C049
:104410001092020607C0909102069F5F90930206D9
:104420009A30D0F61091280480912704181301E0E7
:104430000E9459166B017C0180910406909105063B
:104440009601281B390BC9018131974210F40023D2
:10445000D1F08091E10581110EC068E38CE628DF80
:104460001436A8F081E3898380E38A838B831C82DE
:10447000CE0101966CDFD0920506C09204068091B1
:104480002804809327042496E8E00C94AF391A306E
:1044900048F0812F0E94A418805D8983905D9A83E3
:1044A00085E2E4CF80E28983105D1A83F9CFA3E02F
:1044B000B0E0EDE5F2E20C9497398091E1058111CD
:1044C0001EC08091240581111EC06091230470E0FC
:1044D00000E220E042E0CE0101960E944A151091D0
:1044E000B20560E082E7E4DE81E0113009F080E0AF
:1044F00080931606CE0101962ADF109216062396A7
:10450000E4E00C94B33980E289838DE48A831B82D2
:10451000E6CF90912405911115C020912304482FD6
:10452000880F550B240F352F311D37FD06C0203461
:10453000310514F02FE330E0922F9093230463DAD7
:10454000B6CF089510922405FACFCF93C82F80914B
:104550002405882341F0C3FD10C0C13011F466303A
:1045600061F481E009C08C2F8370833031F4CB304B
:1045700021F08FEF6630A9F3CCDF8C2FCF91089517
:104580008091E10581110CC08091B205813041F02C
:1045900080912405882329F01092240534DA87CFEE
:1045A0000895809123048823D9F380932405F6CFBE
:1045B000CF93C82F0E9496178C2F0E94A21754DE0B
:1045C00081E090E0CF91089568E388E171DE809109
:1045D0002104833091F020F48130A8F480E20BC0F4
:1045E0008430E1F780912A058823C1F38091F0059A
:1045F0008111F4CF8AE2DCCF0895809120048130CC
:1046000041F085E5F8CF8091EC05813039F783E5FD
:10461000F2CF8CE4F0CF0F931F93CF93DF93D0E0D2
:10462000C0E0009781F08C010E949617D0E0C0E0B6
:10463000F801EC0FFD1F8491882321F00E94A2173E
:104640002196F6CF11DECE01DF91CF911F910F9110
:104650000895A4E0B0E0EFE2F3E20C94973960E053
:1046600080E026DE05E116E081E0F80181838AEF33
:1046700091E0D1DF80912404805D89838CE78A8377
:1046800086E38B831C82CE01019661DEF8011182E4
:104690002496E4E00C94B339A4E0B0E0E2E5F3E260
:1046A0000C9496398091E105811129C08091B30560
:1046B000811125C00091F50510910601F0902104AB
:1046C00068E38AE5F5DD1F3FF1F48CE890E0A3DFB5
:1046D00080912904882399F00E948D1981110FC0BF
:1046E00020E14CE060E182E72ADE8091050783FF4C
:1046F00006C060E182E7DCDD88E790E08CDF24968D
:10470000E5E00C94B23984E0F81601F100FF1EC018
:10471000EBE7F0E080E09491911730F48F5F3196F1
:104720008F30C9F799E003C0982F8A30D8F723E576
:104730002983905D9A83893038F480E28B831C82D0
:10474000CE01019604DEC4CF8BE2F8CF812F143660
:1047500008F083E60E94A418882331F0805D8983E5
:10476000905D9A838CE7EACF80E2F9CFB0E0A0E0D9
:10477000ECEBF3E20C9493392091E105211187C011
:104780002091B305211183C0D0913105D1117FC093
:10479000C0902D05D0902E05E0902F05F0903005AB
:1047A0008B019C010C191D092E093F096801790133
:1047B00014EFC11611E0D106E104F10408F467C05A
:1047C00020912B0530912C05FB01E21BF30B9F017F
:1047D000283E334008F45BC06B017C0170932C05CC
:1047E00060932B05C091210410910601C43051F053
:1047F0008091F805813009F44FC0CC2329F0C430F2
:1048000008F04AC081E008C08091AA059091AB05EC
:104810004817590751F080E00E94EE1A809107076F
:10482000181719F08093060137DF9091E405809105
:1048300006018F3F41F0992331F0C11104C0D1E04E
:10484000891708F0D0E0809129058D1759F063E0B1
:1048500070E0D11102C070E060E081E090E457D9CF
:10486000D0932905C43099F409EBC0160BE0D006AB
:10487000E104F10460F080910607881F8827881FF3
:1048800090912A05891719F080932A059DDECDB7EE
:10489000DEB7E8E00C94AF398FEFC2CFFF920F93F1
:1048A0001F93CF93DF938A01F22E0DDDC5E1D6E091
:1048B000F982C801B0DE1982CDB7DEB7E5E00C940D
:1048C000B239ACE0B0E0E7E6F4E20C948939D82ED6
:1048D000F090AD058091AC058F1538F08FEF8F0DFE
:1048E000F11001C080E08093AC0560E080E0E0DC86
:1048F00081E08093160687ED95E28DDEE090AC05B1
:1049000080E289838A838B838C838D831E82FF2040
:10491000B1F08F2D0E94A4188C0181E08E0D0E94B1
:10492000A418105D905D1D83002381F1005D0C8350
:104930002CE72B839A83882311F0805D8983CE0135
:10494000019605DD10921606E090AC051BEAE19E8B
:10495000112D11241695D11021C080910501181335
:104960001DC0FF2051F1812F0E94FB17F92E182F37
:1049700002E01F1510F5602F80E0A5DC80E2E11257
:1049800001C08EE315DE1F5F0E5FF3CF2CE72C8393
:104990009B838823A1F2805D8A83D1CF1093050188
:1049A00028E340E868E080E0F1100BC0C8DC20E0BC
:1049B00048EE55E264E084E271DF2C96E2E10C946B
:1049C000A539BDDC812F0E94FB17D82E292E25E0AA
:1049D000829FC0011124DC01AC5CBA4F7D0112E062
:1049E00081E1382E9EE2592E28EE822E23E0922E6F
:1049F0003AE0A32EB12C44E6642E712CD214E8F6D2
:104A0000C090AC05612F80E05EDC442443944D0CE3
:104A1000842D0E94A41820E2DC1001C02EE329831B
:104A2000805D8A83905D9B83B0E2BC831D82CE0152
:104A300001968DDCF7018281843009F049C08081C4
:104A4000918180319742B8F185E0932D981B892F91
:104A5000880F890F612F880F36DCD7018D919C91CB
:104A6000B3010E9409399B01B5010E94093900E395
:104A7000060F2436310508F1B1E3B983E0E3EA8398
:104A800024532B835C820D831E82CE0101965FDC52
:104A9000612F8CE618DCD70112968C91B4E08B9FC5
:104AA000C00111248D509A4DB6DD1E5FE5E0EE0E7B
:104AB000F11CD42CA3CF84E0C8CF822F0E94A4186D
:104AC000805D8983905D9A835B820C831D82DDCF3C
:104AD0000190F081E02DDD24DA94D80EB2E0C12CF3
:104AE000BD1598F0D70113968D919C91B4010E9449
:104AF0001D3997FF04C088519C4F61507109E60F22
:104B0000F71FB5010E941D39C62E00E220E045E0E6
:104B1000BF01CE0101960E944A15B2E085E0BD15A5
:104B200008F088E0932D981B892F880F890F612F3B
:104B3000880FC9DBCE0101960ADCE2E0ED1508F42E
:104B4000A7CF8C2D0E94A4185986805D8A87905D1E
:104B50009B871C86CE0109969ACF0E942019FC01E2
:104B6000809121048330B0F48130B8F0E78543E1CF
:104B700051E0E40FF52FF11D44918091B20521E041
:104B8000833009F020E050E0475E5E4F67E088E246
:104B900085CE0895843029F00895E6854CE051E0F3
:104BA000E8CFE08947E051E0E4CF0F931F93CF9324
:104BB000DF93D0912104D33039F1C82F0E942019FE
:104BC0008C01D330D8F4D13020F12C2F45E060E0B7
:104BD0000F960E940519D8011F96EC91F0E0E2555E
:104BE000FB4FC0818C2F0E9431188295807FCF703F
:104BF0008C2B80932C070E94681C02C0D430C9F013
:104C000081E00E942919A9DFDF91CF911F910F91B7
:104C100008952C2F46E060E00E960E940519D801F9
:104C20001E96EC91F0E0E955FB4F80810E94E01C5C
:104C3000E7CF2C2F219544E060E040960E940519B3
:104C4000F801608970E082E091E10E94871DD8CF71
:104C5000CF938091B205C1E0823009F0C0E02C2FE3
:104C600040E051E060E082E219DE0E942019FC0180
:104C700033859485858520912104213028F02430C6
:104C800088F08C5F243009F0832FC093160627E04C
:104C9000829FC001112480579F4FBDDC10921606E1
:104CA000CF91089587E0890FF0CF0F931F93CF9393
:104CB000DF93D82F0E942019C0912104C13060F0E9
:104CC0008C01045F1F4F48E0C43080F08C01035F0B
:104CD0001F4F42E0C43051F08C01055F1F4FDC01D3
:104CE00018968C9146E0823008F443E02D2F60E066
:104CF000C8010E94051981E00E942919D801EC9190
:104D0000C43079F4F0E0EC55FB4F808190E0909353
:104D1000F1068093F0069CDFDF91CF911F910F91F8
:104D20000895C111F8CFF0E0EE0FFF1FEC57FB4FD5
:104D300080819181ECCFCF93C82F0E949C178EEA7F
:104D4000C1118DE80E9494178DE8C11184E10E9481
:104D5000941780E1C1118FEA0E94941785DACF91F0
:104D600008951092290481E00E941C1880E0E3DF7E
:104D700010920606089581E0809329048091FB0536
:104D80000E941C1881E0D7DF1092060608958091DA
:104D90002904811102C0EFCF08958091E1058111AE
:104DA00001C0DFCF0895CF93DF9327E04FE760E0A6
:104DB00080E05CDA0E949617C0E0D4E080E00E94B8
:104DC00094172197D9F750DA609118068091170649
:104DD0006FDADF91CF910895CF93E091F405F0E081
:104DE000E259FF4FC4910E949C1781E80E949417DA
:104DF00081E08C0F0E94941737DACF91089590913B
:104E0000F405890F8A300CF089E087FD80E08093FB
:104E1000F405E2CF08951F93CF93DF9391E0181626
:104E20000CF090E0CFEFC80F82300CF4C0E080911E
:104E3000E906D8E2803221F0D8E4803509F4D8E5DB
:104E400010E090FB10F981E596E00E9470178091C8
:104E5000DD060E941C178D2F0E94FC16812F0E94D8
:104E6000FC168C2F0E94FC160E94021A81E596E027
:104E70000E947017DF91CF911F91089590912104A6
:104E800045E2943009F44AE1282F60E082EE95E093
:104E90000E9405198091E205BEDF0E947A19E82F71
:104EA000F0E0E856FA4F8091E205808308950E9471
:104EB0007A19E82FF0E0E856FA4F8081ACCF0895D8
:104EC000B0E0A0E0E6E6F7E20C948F398E3209F408
:104ED0003EC0C0EDC80FCA3008F059C09EE0D92EC0
:104EE000E42EF62E84E0D89EA001112470E060E04C
:104EF00089E196E00E94CF39EC2FF0E0E15FF54DBB
:104F0000C49110E000E0C0FF34C0F801E151F64D5B
:104F100085919591A591B491C82EB92E9A2EDB2F2B
:104F200088248394880EBB23B1F0D0E08824839436
:104F3000890ED915F0F4AC2CAD0E6B2D8A2D0E9484
:104F40009815682D8A2D0E949815DF5FF2CFCAE070
:104F500084E0D82EC5CFD91560F4AB2CAD0E6A2DE8
:104F60008C2D0E9498156A2D882D0E949815DF5F60
:104F7000F2CFC6950C5F1F4F0032110509F0C3CF69
:104F800009E116E020E24D2D6E2D8F2DA1D9CDB770
:104F9000DEB7ECE00C94AB39A7E0B0E0E2EDF7E26D
:104FA0000C948D398090E10581109BC0982E0E9451
:104FB0008D19A82E0E9420196090A6057090A70553
:104FC000A110B3C0FC01808528EBE22E24E0F22E74
:104FD00013E0833081F0823049F48091F60538EB9C
:104FE000E32E34E0F32E12E0813029F094EBE92E29
:104FF00094E0F92E10E00FE2212F45E0B301CE013D
:1050000001960E944A15C3010E949519B82E812C61
:105010008CE045E0112329F08CE045E0882483945E
:1050200011E0140F9EE0499FA0011124882011F087
:105030004C5F5F4F123038F0E3E01E9F400D511D72
:1050400011244350510927E230E0A11002C030E0A2
:1050500020E0420F531F282F30E00AE610E0041B27
:10506000150B021713070CF48901992019F120E29E
:1050700040E860E180E063D9CE0101964C01F40183
:1050800071904F017720F9F040E1602F872D18DFF4
:10509000FEE284E07F128EE090E00396080F191F75
:1050A000EECF00E220E0482FB301CE0101960E942E
:1050B0004A1557C090911E059B15F1F240E8481B18
:1050C00020E260E1D8CFA11010C028E042E168E200
:1050D0008DE635D968E28DE6EBD8C70138D9B092B4
:1050E0001E052796EEE00C94A939B80162507109AB
:1050F00040E18EE2E5DE98012B5F3F4FC6016AE09A
:1051000070E00E940939962FD82E40E1622F80E38B
:10511000890FD6DEB8016A5E7F4F40E180E38D0DD6
:10512000CFDE84E08B1588F6DACF8091A1059091CF
:10513000A20568EE73E00E941D3997FF04C08851F4
:105140009C4F61507109660E771E6AE070E00E9404
:105150001D396B01C3010E949519B82E8111A1CF91
:1051600019824B2D84EBE82E84E0F82E83E010E0CA
:1051700058CF9093A7058093A60580E00DDF64E6E5
:1051800070E080E090E00C9428160895CF93C091D1
:10519000E105C11120C00E942019FC018091B205D7
:1051A000843031F4C1E080912104843009F4C0E0FE
:1051B00094E0A9E1B5E001900D929A95E1F7109283
:1051C0001D0560E080E074D8C093160689E195E083
:1051D000BED810921606CF910895B0E0A0E0E3EF9C
:1051E000F8E20C948A39009709F48CC07C01C091D4
:1051F000A605D091A7050E942019FC01048510E0A6
:10520000095F1F4FD801AA0FBB1FAC57BB4F0D90B2
:10521000BC91A02D97010E946E392091A10530917B
:10522000A2056901330FEE08FF08C60ED71EE81E5F
:10523000F91E309022044E01B12CA12CD701C601D9
:1052400089539D4CAF4FBF4F8F389546A105B1058F
:1052500008F46DC0C701B60128EE33E040E050E02D
:105260000E94523929013A016B017C01F7FE0BC003
:1052700088EEC80E83E0D81EE11CF11C21E0421A22
:10528000510861087108840C951CA61CB71C86E99E
:1052900088169104A104B104D4F120E3821625E715
:1052A0009206A104B104CCF5E401F801FF27EE0F4A
:1052B000FF1FEC57FB4F8081918168EE73E00E94E5
:1052C0001D399B016115710571F0C4010E940939F6
:1052D000009749F0141415041604170414F4C20FAF
:1052E000D31FC81BD90BD093A705C093A605D09296
:1052F000A205C092A10580912104843009F066C006
:105300000E944219CDB7DEB7E1E10C94A63926E937
:10531000822E912CA12CB12CC7CFC12CD12C76017F
:1053200090E3892E95E7992EA12CB12CBDCF9E013B
:10533000A8EEB3E00E9474394B015C018C0C9D1CFB
:10534000AE1CBF1C44815581268137810E9474396F
:1053500086169706A806B9064CF49A010E9474397D
:1053600086169706A806B9060CF0BDCFC501B40194
:1053700028EE33E040E050E00E9452396B017C019E
:10538000F7FE0AC088EEC80E83E0D81EE11CF11CAF
:10539000215031094109510926393105410551058D
:1053A00044F0203385E73807410551053CF4E90115
:1053B0009ACF26E930E040E050E0F9CFC12CD12C63
:1053C000760120E335E740E050E0F1CF22E04CE207
:1053D00060E0CE010E945218381631F0809322040A
:1053E000D5DE36DC80E0E1DB0E94A61E0E944B1970
:1053F0000E94591660932D0570932E0580932F05FA
:10540000909330051092A5051092A40580E0C4DDAC
:105410000E94741977CF8091B205409121048430A5
:1054200019F421E0443009F020E084E0489FA00115
:1054300011244D505A4D67E080E030DAC5D8A6CE31
:105440000895CF93C82F28D98C2FA6DDE4DF00DC88
:1054500084DB80910306882319F081E00E94C72134
:1054600026D8CF9108958F929F92AF92BF92FF92CC
:105470000F931F93CF93DF93F09022048091A605A2
:105480009091A7050E94161A6EE170E080E090E00E
:105490000E9428160E942019FC012085223051F01C
:1054A0008481958106811781233041F4B8010E94DF
:1054B000FB1D29C000E315E78EEA96E0E385F0E0E6
:1054C000EE0FFF1FEC57FB4FC081D181CB30D105D0
:1054D00008F0BAC0C13039F0C53029F0C93019F030
:1054E000CA3009F0C5E0BC0180E094E30E94871D4A
:1054F000B80181E094E30E94871D6C2F70E082E088
:1055000094E30E94871DF89410922305789480916B
:10551000F206C091EE06D091EF06823009F460C029
:10552000C09100010E9459164B015C018091E9066F
:10553000D1E4803209F4D1E281E596E00E9470174F
:1055400080E0C0FB83F9C82FC8708091DD060E94FF
:105550001C178D2F0E94FC168C2F0E94FC16D13434
:10556000A9F4C1E08091EE069091EF068930974052
:1055700008F4C0E080E00E94FC1680E00E94FC1667
:1055800080E00E94FC168C2F0E94FC160E94021ADA
:1055900068E770E080E090E00E94281664E670E022
:1055A00080E090E00E94281668EC70E080E090E0D7
:1055B0000E94281640E060E081E596E00E948F1F7F
:1055C0000E94AE15D6DD80910B0786FF3FC041E0FB
:1055D00060E081E596E00E948F1F0E94AE15EC010D
:1055E000209741F1D093A705C093A6050E942019EA
:1055F000FC018085823059F420E04BE262E0CE016C
:105600000E9452188093220480E00E942919809100
:1056100022048F1519F080E0C8DA49DC0E94521F7D
:105620000E944B1981E00DDF0E947419D093A505EB
:10563000C093A405DF91CF911F910F91FF90BF9070
:10564000AF909F908F900895CAE04DCF0E9426188A
:105650008111BDCF0E945916681979098A099B09E1
:105660000091E3061091E4062091E5063091E606EC
:10567000061717072807390708F4A9CF80910B07E9
:1056800080FF92CF40E061E0A4CFA8E0B0E0EBE47F
:10569000FBE20C948E39982E0E9420198C01DC01BB
:1056A0001896FC9077247394B3E0FB12712CAA2413
:1056B000A39480912104843009F0A12CA710439A6F
:1056C0008091290581110E94761F0E9442198FEF57
:1056D00080930601E3E0FE121FC0C8010E94A920CA
:1056E000E6DB8091E105811107C08091B30581114E
:1056F00003C059DB81E0A5DE0E94031DA71043987B
:105700008091A6059091A7059093A5058093A40587
:105710002896EDE00C94AA39D8011496ED90FC90EF
:1057200015971696CD90DC908091FA0590E00E9436
:10573000601A0E947A19B82E0E948D19882309F4E4
:1057400072C0F8018785863014F085E087878091E4
:105750002005882309F091100E94811C809021046B
:10576000F3E020912004912C8F1619F09090EC0515
:10577000282DD80119964D915C91B601C7010E9460
:1057800057204091E905B3E024E080E031E08B163A
:1057900071F0D8011F96EC910E2E000CFF0BE25514
:1057A000FB4F2081892D880F890D31E039195091E7
:1057B000EA0590E050FB94F930FB97F98F70907FE9
:1057C0002F7020932C07892B40FB85F980932D07A0
:1057D0000E94681C0E94C21C8B2D0E941E1E0E94EB
:1057E000D71D0E944B1EEB2DF0E0E856FA4F868144
:1057F0000E94581DB70180E094E30E94871DB60106
:1058000081E094E30E94871D8FE895E20E940A1FC1
:105810008091E7058111C8C087EB95E20E940A1FBD
:105820000E94521F5DCF109221041092200580919A
:105830001F0581112DC0439A88E08093B8000E9413
:10584000F71B29833A834B835C836D837E838F832D
:1058500098870E94DF1B62E370E080E090E00E9486
:10586000281629E530E24EE650E263E870E28BE864
:1058700090E20E945E1B69E170E080E090E00E948F
:1058800028160E940D181092200581E080931F05B4
:10589000D8011B96EC911B97EE0FFF0BEC57FB4FBB
:1058A0002081318119968D909C908091FE068F7396
:1058B0008093FE06F092EB06E092EA06D092ED06A7
:1058C000C092EC063093F1062093F0068E149F04EC
:1058D00018F0C814D90408F447018091F206813009
:1058E00009F440C00E94C61B909131072091F40634
:1058F00080912E073091F50630FB87F98F7920FBD8
:1059000084F9807F816080932E0790932F0780E435
:105910008093E9068091FE06807C81608093FE067C
:105920001092010781E08093020781E596E00E94D2
:10593000F01F8091F30694EF980F9F3468F424E5EC
:1059400031E0829FA001839F500D112463E071E339
:1059500081E596E00E94421C6091300781E596E067
:105960000E94F21C1092320781E08093F20690921E
:10597000EF068092EE06C4010E94161AD8011E9608
:10598000EC910E2E000CFF0BE955FB4F80810E941D
:10599000E01C62E070E081E093E30E94871D8B2DA4
:1059A0000E941E1E43981FCF8FEB95E237CF0E94B7
:1059B000CD190E948D19882311F080E066CE0895DC
:1059C00080912104833011F08AE0F1CF0895809115
:1059D000E105811106C00E948D19882311F080E035
:1059E000EFCF089588E0E3CF08950F931F93CF93EF
:1059F000DF93182FC62F0E944B190E9474190E9422
:105A00002019FC01D0851092A2051092A105809169
:105A10002204112329F18F5F8C3218F48093220421
:105A200002C01092220480E00E942919C1110E9434
:105A300042190E94E9170E942019FC01C08591E0DB
:105A4000C33009F090E081E0D33009F080E098178E
:105A500069F080E01ADEDF91CF911F910F910895D8
:105A6000811102C08BE2DACF8150D8CF0091A60518
:105A70001091A705C8010E94161A19DA80E095D87E
:105A80000E948D1981110E944B1E8091F60588237A
:105A900059F091E0D23009F090E081E0C23009F095
:105AA00080E0C1E0981301C0C0E00E94521F8C2F1B
:105AB00073DA6CDBCDD81093A5050093A405CBCF8A
:105AC000B0E0A0E0E6E6FDE20C948F39009709F41F
:105AD00067C011E0181619060CF010E0EC011093E5
