:020000040000FA
:100000000C946D110C94AE310C9487310C949511B5
:100010000C9495110C9495110C9495110C949511C8
:100020000C9495110C9495110C9495110C949511B8
:100030000C9495110C9495110C9495110C949511A8
:100040000C943D310C9495110C9495110C949511D0
:100050000C9495110C9495110C9495110C94951188
:100060000C9495110C949511534156454400534DF1
:100070000020202000030607080002080E18222C8A
:1000800036404A010203040A10161C222C36404A4C
:10009000545E31206B487A200035206B487A20006E
:1000A00039206B487A20003130206B487A00353097
:1000B000206B487A003130306B487A0031204D484F
:1000C0007A2000313020487A2000323520487A20CA
:1000D00000353020487A200031303020487A003511
:1000E000303020487A0031206B487A200035206B70
:1000F000487A200039206B487A20003130206B4844
:100100007A00535445503A200050586068700818DF
:100110002030384048000810283840302E35206BF9
:10012000487A00312E30206B487A00312E32206B15
:10013000487A00312E38206B487A00322E30206BFE
:10014000487A00322E32206B487A00322E35206BEE
:10015000487A00332E30206B487A00342E30206BE2
:10016000487A00362E30206B487A00204155544F93
:10017000202000313130206B487A003834206B4821
:100180007A20003630206B487A20003430206B48CB
:100190007A20000020202020200044454C3A42577D
:1001A000204641564F524954455300454D505459ED
:1001B000204C4953540000000000000000000000E3
:1001C000010000000700020100000201000003001E
:1001D0000100020100000000020100000201050010
:1001E000000001010F0001000900000002010000F1
:1001F00041555400204F4E004F46460020353000F8
:10020000203735006B487A004D487A00525353002E
:10021000534E5200313030003530250031306D0002
:1002200031356D0033306D0036306D00524F570060
:10023000434F4C0020413200204131002D2D2D0034
:1002400020202020202053455454494E475320203D
:100250002020000431F7210531F52D00000000F4C5
:10026000015802BC022003670202050505020502CF
:1002700002020302020302660806056A67076A06AD
:10028000060606040804020502020205070807081C
:10029000030607070802030403070304037F7275BC
:1002A00077797B7E80838587898B8D8F919350674B
:1002B0008994F4646792ADB0B3D8E1E6E9EBEEF16E
:1002C000F4F6FAFD0F262C313335383B3F424448D3
:1002D0004A4D4F00187F3101187F1E04187F1B05FF
:1002E000187F0E081800140918003C0013FF0001C5
:1002F0001304000413BC7F0513BC7F000000000042
:100300001A0000061A000000000000001A01000197
:100310001A0100021A0A00031A1400041A14000534
:100320001A3C00061A5500000000000019100001D8
:100330001918000219400003192C010419AA000819
:1003400018140009183C000A18A00F0B1828000008
:100350000000000C1014181C20252B32373C0039EB
:1003600000000000000000390C000139370002399C
:10037000400003392C010439AC0000000000AED568
:10038000808D142001A1C8817FDB40A6AF4D4F4472
:10039000204E4F20524453004154532D32302B20D5
:1003A00056362E372E3200454550524F4D2052457D
:1003B00053455400454550524F4D2057454152003A
:1003C0000000580284030807100E0000000000001F
:1003D000442A3C542200082A1C2A080008083E0827
:1003E00008000808080808000060600000004020BD
:1003F000100804003E4141413E0000427F400000A1
:100400004261514946002141454B31001814127F89
:1004100010002745454539003C4A494930000171E3
:1004200009050300364949493600064949291E0095
:100430000036360000004122140800007C12111220
:100440007C007F49494936003E41414122007F41BD
:1004500041221C007F49494141007F0909010100F7
:100460003E41594932007F0808087F0000417F4122
:1004700000002040413F01007F08142241007F40DE
:10048000404040007F020C027F007F0408107F0084
:100490003E4141413E007F09090906003E4151218C
:1004A0005E007F09192946002649494932000101A9
:1004B0007F0101003F4040403F001F2040201F00BF
:1004C0003F4038403F006314081463000708700879
:1004D000070061514945430000007F0000007F1084
:1004E000284400007C04180478004464544C440000
:1004F00000FFFFFFFF01FFFFFFFF0203FF040506F0
:100500000708090A0B0C0D0E0F1011FFFFFF12FF59
:10051000FF131415161718191A1B1C1D1E1F202156
:1005200022232425262728292A2B2CFFFFFFFFFF23
:10053000FFFFFFFFFFFFFFFFFFFFFF2EFF2FFFFF6C
:10054000FFFFFFFFFFFFFFFFFFFF30FF2DFFFF005B
:10055000000000240027002A0000000000250028D9
:10056000002B000404040404040404020202020236
:100570000203030303030301020408102040800167
:1005800002040810200102040810200000000800E6
:10059000020100000304070000000000000000004A
:1005A00003740BD484606FAE6CF9BB84A265B14B4D
:1005B000F672011A21E85AD8D604735E2C226EC452
:1005C000E9B58B819A1EE487C99E7B17526DADE316
:1005D000E58B04A72E996A32AA9997CCA65B157968
:1005E00056480163B1DF5427065706538CA627AA45
:1005F00066890318517EFB67D3CEDD3FFD3D1F4763
:100600008401F3856EF83B792B0C904B67467D5443
:1006100088FDD612E5E748F20EDB994D71A54068DA
:10062000D9C95939E475201CE9B1F5013C19BB6001
:10063000F7FA6B1E689F19B6ED140F56BCC134CB88
:10064000009D43D40FF3629C9DF78B9D533A8D2FF1
:100650003DDE3D3831039BC7C159E9D175888D36E0
:100660005886704E5B9ED0DBCBF7EA1FDBA53BB311
:10067000BD6BBCF37065D5170F64152420D5B87B0E
:100680000D272985881F5822574F09C04DD6E4C62B
:10069000B53A373327BB6A1469031BEDA8C343E897
:1006A000EADE410625C5C83CBF32B2A7DD22C2E959
:1006B000CA84F2C0267C7801F7D5C60533E4C27837
:1006C000EC1BFDD2507D11295799B0F1556674B4D9
:1006D0005823A06F2ED89B08B33E53CF5ECC7ADF51
:1006E0004EED42166A9188431B1D845C5221665868
:1006F000243671C56A0D2C869A239DE03543C97F47
:1007000041BD8299ED7A26B2D3A6CE4F00E687E3AB
:10071000D7682886F7CED2B3D31B0402B978B3AD1D
:10072000E03C53A68A4A22BE1FCEB176F22F81A8A2
:10073000C17872B0156519E332A74D0CD300B9C367
:1007400027BE744DD1E10C36DD23FBA722D344CA6A
:10075000B3081BB40D4BDF1AA69032925C1AA7CDDA
:10076000852E351172F821357D3FDB298D30B34F51
:10077000451477CF992FA39081B0AEE845E63AA90A
:10078000A262B7DBBE2539A5FCEAC5BC3AEC90AE47
:10079000A6FB12AAC76222AFA984B964B8FB8DC1B7
:1007A0001CC3D0876D5CB4FE3FA4B8D889F401594E
:1007B000BB04A543441ACB4130F75B9AEE28F44CB6
:1007C0007199CA4B7F2A13F04B54B3FC90EDBE488D
:1007D0003FF15E0DA1BB1E591615F04B504C96868D
:1007E0001BA9CCC2694E1003F0E953E5E2BB45E218
:1007F0008DAE407108864D08F49690585340A58BF5
:100800005B3CAD47B5D7E26A1378D4DCC9EC0E93F4
:10081000F0C01D953676A45385C9ACE4718DAF68E0
:1008200061209DFF45356E04D82732C3DAEEA266FB
:1008300004B72106527F398FFDEE9074B64FB6246F
:100840000E1248F0B230F2A54C9152E3C6487B3804
:1008500096239ED71B95153AC98B6F637D1DC9EAF8
:1008600096E601D785C0EA3DCAD3B7FB07543A00E4
:10087000313D74E4125BA238335BBF1DDC4EE8856A
:100880001077ABEA6579B0AA3061C6F63BCC95FC2F
:10089000837F8C7BB55205EBF721DE89B66DEE3197
:1008A0007713AA935596086E1C82B57E95B994DD90
:1008B00068425C3A00C37B6F606A2C07D76C82FB8E
:1008C000B2812569D6720AD2E8500588491B637245
:1008D000996CE37AAEB01B9ED42554258A90179765
:1008E000DF39B87CEAF082DD25D2ADE7F636238425
:1008F000A9C96A53F4822C1DEA06C64F705437808A
:100900002A6B63DBCC86E68C7F278C7254739E1B2C
:10091000D64CFA058280D7B71198069869151CFC49
:10092000868774845BD40FDBD727C54AB28F297AB8
:100930004A230AB807D03470818E53EF43163FA87C
:10094000A79E5A77C091B789155248C0B762ABE1EC
:10095000746410AA096B9774217935A19725FC78E6
:10096000C1EC6E877740871A74828156DDEC37AD13
:10097000AF0331AC478574C02A459DF4120CF9864B
:10098000B04A16D8116C46C44A67988B1B42C2BE47
:10099000BB0E4884F708A6C38F8E8DABC29B5D5CEF
:1009A0006028578F0EAD2EC15E95299AF48A27D400
:1009B00041BB4AAC5DB29326FD87813F2735A642F5
:1009C0002C1538ADF8026F94DA08EE19D890FA8930
:1009D000C3AD89FEC60246811D0C8D782FEED3ED86
:1009E0006C7B95495687F4E263DA39CE681618EDC8
:1009F00098EE86F3B3C1121A519B571D199E987E2B
:100A0000D2FD3D2B59154674577914817189D9222D
:100A1000DD9210D98991DF67006E53AFDAB52830C7
:100A20001E47E6B7052D22CF7F6ACD88906B8C16C6
:100A3000368807A1B7AFF331C4DB768B969EF017EB
:100A4000A73F847891A8CD3F8FA5DD5214F9395D79
:100A50000B568E1C5A5B89EE809E33BDB145154204
:100A600034597820FC2DDBC92E0F3526CF239B3E31
:100A70001D9F0F260EB7B54EACA286D5DA36045AA6
:100A800073466A88C52AA083E88B5F3CAF6A444EF0
:100A9000759B8F93373538BD029A1D84296425973D
:100AA000E07C2AB6CBC166513CBC3BF3552BB7BDAD
:100AB00081ECF349D5F803E0BDC60CEEC01908FB84
:100AC0004F8C94080EA53037F0B818937300BB52C2
:100AD00052B4980D4B45B9890A34E91C245A8FA8A1
:100AE0009DC2D927A9EEBFC08090BC2A9343FB0AC0
:100AF000B396D1AE13410168B92C53537C00A58441
:100B000041D6988898FEDEF7E23743620E9383EE73
:100B1000030A8DCA8759366F61F7F4D6AB8B0F9CE9
:100B20008396A46C4643806BEA50DCD8CED4F4AEF6
:100B30005BC6014385718D0C395EE43B2BC488B2E2
:100B4000C554960E879A5093D69C91CA09648B23FC
:100B5000C429441A67E1DAC71B2517022C8F2A1310
:100B60003ACFD665312B10F5B596DF01997BADD61E
:100B7000B4C035A348E3B09EFE33101A09AE3C0A58
:100B8000A1728F0051E17823F5E2BFA64628B34B4E
:100B900024B1A1DEB1C4486FED5AD461F0DBE108A5
:100BA0005C64C0CAE9A9DEDEECC0685B6DBD43824F
:100BB0008CCA69B1A9C8710D5D6DA5AB1A6794EEB9
:100BC0000593E33FE81AE60F7F79F2CBC53757DF8D
:100BD000FC4FB460C7973C61B00C4664F44392D2BA
:100BE000A5F0F3B7DFAB20B1F5302AB3DC4B39B752
:100BF000853E1E1B948C26288045D60136D0EC936A
:100C00004688D3D5895D7A82213EC240E3B4DEF5C1
:100C1000A569D569495C89CDAE137070ED690CEC9E
:100C2000C6FE75EB4ED6B3C860FB341EF86492D98D
:100C300029A813383D79C4BF21379DE34F21E53FF3
:100C40002C5C5F41FF148791E082040B1E5553DC3E
:100C50005640A43578E29B49222E09CD1F6F94831C
:100C6000EEEA8BC4C210E080D9A55F53349C8CEAB5
:100C700095648794D6321CEB93BFE35583C2F6FC90
:100C8000C885B2945C425F6B8E3B9779747EE35C5F
:100C9000C2631A22B17F94CBE7B7FF0E3795AF102E
:100CA0005317881272DDCBAB4B6B6824ACC95C72F6
:100CB000094FF1FB1DE7A230E9204BDA707C9EE280
:100CC00034EB6A35C233D79D07B1EFF675F5FDAD4C
:100CD000C74BD0B7DDAE1E8D1EC0399CA71CC5CC3E
:100CE0003950C66BC6DA37C7E120EB74A53DC008A2
:100CF000FAC2DFF29E432BF07750498CC32F68F382
:100D00002A9B831ADC05D8B77C3C611176EC2DFE5A
:100D100086088715A3C01CB46A8D9EBF9AD5C85B90
:100D200005181015FBC63CEEC5524B313607B94CC1
:100D300081EA83D782FEFC43594E20BDD365CF1F85
:100D40005C711FBF26EC44EB0174823C8E60DF4770
:100D50009031177E16C0EC1EC33A7A5921A29B8EA1
:100D60008725D3FE85DD6DE6D8CA74BADB4230969E
:100D70003D8622866FDE371A932F032EE16E1662B0
:100D8000C1E12DFECBA8DF6405EF23BC71617B1BA5
:100D9000602227BDC6A37207AA09B052F219154DE9
:100DA000BEAF263B4D62A63C41077A34253CD6CDEA
:100DB000B65547871ECBCFCED20D95C0D872A6E0D0
:100DC000332426517E71C7533FD4677352CB785A70
:100DD000001115715F8D3CCF40CDD97430D9A13F42
:100DE000C658BCBE7818319A3960BB8D7B3495A546
:100DF000F1543BB98599AFC445EB64A76E5960EBDC
:100E00001E7AFBFD924323F127AC661266288A5CAA
:100E1000F6C63F7604E80927ED05AA26E5B4AD40FD
:100E2000BAF7F484CB7F07108DB6C7D477EABA96A9
:100E30002A98F056D7FF504D59793D41E0FAA99DC7
:100E40003EA6D979C80DD156C5ADD7FB703CBDF3D0
:100E5000E95D1C5393331DF81BEE9FB750AC8F48D0
:100E60005961C9859EC8B0D27439DF33F528E06373
:100E700011A7C405BD3AD934CAF9AAE200E6E6389A
:100E8000573EEC197C0D2745C552C4FFF469C5F5E2
:100E900073734FE307C7CF38235B9C99A26A72B084
:100EA0003539C10AC71C1A3060181D2BF0C8F179FA
:100EB000A394E336359369059107126044FDB6C6E5
:100EC000FFE0CFA2CFC2A358AC32E32EEC0D9D1BA6
:100ED000FB0540BA678ECB38D7609CFE9EA170CCD4
:100EE00040728C8C507185DD84925CEE44B6E0805B
:100EF0001532DD1B4B8C6E8E3997A5AFC6F4298554
:100F0000D3859385C854E4591D4EA0FEC507C1F78B
:100F10003252F94D4585FCA0FA37B59D47E852237A
:100F20008D928743B4B84F951B1E4FE545BFCEC881
:100F30000CB27DE7D92E88B72A61E12DC4212EB8E5
:100F40004DFD2187302511EC1F299431D29285382F
:100F500017DA634D8CB4065564B76CFCC28D5D978F
:100F60008609D34369E83577CCAF91363C7CA36ED4
:100F70004E4AA2C94150EAABDF8704704F16F5A074
:100F800038F56016CD0CE5C7E3AD00126B12853C59
:100F90005C7F76ED49F29D8FDFABE1DD8701ED2CC3
:100FA0001B4B55117FC392D391C1D8A737C7E55BBF
:100FB000482BED31DECEFB9508E35184000B4D2626
:100FC00073118B1EE2040473E072FFE659C90448F2
:100FD000BFABF399877C0704FB33B163616112AD4A
:100FE00008AA30AC174D3086BF6713F1A7041B4821
:100FF000422384BB7FB408A69F43785CA14E8BA696
:10100000E67C4901F7315D2730010B570B79F70278
:101010004433BBB45BC701ABE301C2D2017A079E84
:10102000AD8402F1EEF7D82950012C35543ACC01A9
:10103000C93D666A9805247AF71C2440EBA24DC28C
:1010400066C8372C030FF301066D9A42F0948FEDBA
:10105000BFE3283B72693775B4A09A6E31FD665BB9
:10106000CBF3BA8CA431FFBA7C2454D3C6638993E2
:10107000E4EDDA58474EB58FD793FDAF31EAB4ECC3
:10108000C9057D2B1596C1007E80E6F747CD6A77AE
:10109000F10E5913AA5C838870DCC4525220B669E1
:1010A0002D6C6C8B662ACD5A4130D6FB7BA0EC7A36
:1010B00022887C716EAF6206F4A8C688857636C534
:1010C000C0D867967CE84DD4FBA96F0FB2A7A319CF
:1010D0006A30FD6FFC2BCEA41B8E574851C6980F6B
:1010E000E5087B4DFC59DDCF131B310C5E3B98E1CD
:1010F000F4C341D7A2645E16F9EBAE20E95D54BD9E
:1011000099D3A7C1D9E53222D69F4FDD6B3C6DE95B
:101110004D965211DA2386BE01C451C29CC6F52FEA
:101120001FD0F1F55782FECBFB4ADF1D0046B8A762
:101130003A566608714E47F827265F6CD8C3059962
:101140000A758F4FC18872A05A1308A382842ECECD
:10115000B5A34605D66A7856442386F2C963088B40
:10116000BDEE56D4361F375318E7DA1CFAD005D532
:101170005FE7B7AD362BCB06C053F432A8756FE3EB
:10118000C9A1B0A6E6C2410F5D2E0A64504692493D
:101190005B2D002EB5213F0B4A719688844C98AA8E
:1011A0002823EBEF455C6278D6E4FB6DC3D9356C40
:1011B000B92AC67471C40C657CA3F96E2DB986B0CA
:1011C000046394CF267D9E1EF799DAE08CDD86F3CA
:1011D000C8F1C64E155DED34BB90CDD626091EF67E
:1011E000238451C1AE428F8496C957AE16363A2930
:1011F0008765B2BA5696D2F509EF304A0F6236FECD
:101200000030BD091B50C33C48D725E18EB26F4D5D
:10121000752DADC61EBAFA4F41AF7A6FA0A04FB67A
:101220008834698A9E837A60F3A87E392A209C32AA
:101230005E7DC4AA97E6263542A1A0EF39B31C27EC
:1012400063D27F75C01EB4FA4D7A818139E0792F5F
:1012500094A5283A437E97B594AF2A10380A7F495F
:1012600091C06C659AC6C95DD552469874AC93E43A
:1012700021B0EB08FAF4412EA6F9C5EDE33798C585
:10128000DF528241A2F2561AF3A4C6408DB95FAA7A
:10129000751E151E68782B2BF43EC7CBF31360E048
:1012A000F48579880C227587B751E0D6E3A092D3F4
:1012B000D7E36C5B3EB780E748D6D92F49CC75A001
:1012C00004C94888E9CC3241AF30DEC6BC9DF7FC8A
:1012D000FF69035058A1D6B87B5E60FCCC0014AF08
:1012E0003A3041B34E634795E4BD5374D0F002B435
:1012F000FE48196C3F23F79B4411F2C245A637778D
:101300006C10630E1BA7D196CA0D4F5B4351D614C8
:10131000B723E799A49F4C7DD7DD0811844D5CE984
:101320006090048B1490F06F26450F208CE36F467D
:1013300078EB12B45EF0DEEB222762784293BCE8D1
:1013400048C088BD0FDE232BD1880AE2B4338E61FA
:1013500036435842AE6BD7F2FE0AC126947ACE8C41
:101360003B435A62EF708AFE4DD237DBA1B1061BB8
:1013700030174CA0241EBECB64E2CE135CD705A66A
:10138000763938F3852C160EB3E23DFF79880B933E
:10139000EFAD55CDB4EF8FB8167A05C05E920F4F02
:1013A0009858D422AD4325317852C69ACA5EA64ECB
:1013B00079979ABBDF6DF1E2D0B3CA2A5C46825CB2
:1013C0001EDDD0C519892B2CBDC084D9333967E403
:1013D000E47926B69D1C1DE470A5A76189254A57AE
:1013E000337D0DCAF3CC22AAD7D9CBE6B2964615E7
:1013F0009568D80FDF6B36DA198216CE384ECFF2E9
:1014000036C880075388042FB214195DC56CEF9558
:101410009C608B6AE4FC9DB29CED1D9C1BCAA326BC
:10142000DD9C635B3B882BBA2235240148EEA04F3C
:101430006E964E2991AAAF5647BD7BDDA15599D82E
:10144000B5A147937BCD7BCF65DE5018F20549F1FE
:1014500099D894213F7D52C6B1B4E19FF07E60647B
:101460008B30E4AD2C97FB47F70901047BF4F7A719
:10147000A804A57F0858796D26276AD0D9AFC1C7BF
:101480001223E1AE98A40FBC1BFA9D910B1515A574
:1014900024531A13E0C30095389C364CCFF6A9BCF0
:1014A000C1530604F46FBF57E0A614A649707F39F4
:1014B0002A4A5A593633B90D4725393704777C45BE
:1014C000AC19932549E07A7BA2C695768D3C79B11B
:1014D000A7C38363032347D7ACFB84166F22490B52
:1014E00097AAD538575E2BBBA749EDD2D57A96BEC1
:1014F0008DF5F94656F52FA7A87AFF3FE7E88CF15E
:1015000048E846CB4D25F935932FCE8BB8A9C5D3E6
:10151000D22771866F72D9CA4E90D36DB13CD3CBAE
:10152000C9303A26459D66445C5FD8E3907C1BD861
:1015300082DDD384D4C61B58BF02A53B100A3EE30C
:1015400009940B99882B47A79089C4482536DB72EC
:1015500031ACF5A30115D0E62161EB5972DC94980A
:10156000F7B0F9FAC10A7EDC69CE905E82110B9762
:10157000E29955A23DFAEB88BC4DC2548D5FDEA3C3
:10158000E248132046C5A08104C42B9A8415B89E56
:101590009B62A1EC7D083CAD214B89FCC6967C3A50
:1015A00041358A13BD1B43BF367A4ECE709E2AF654
:1015B0003933C7334B347D2A81FA252EC5C4A1287F
:1015C0000ED54D15E069127119AAFF59488156537D
:1015D000C935124D84699136D8ADF754D58CF9C60A
:1015E00084126222F1B92B1DA57C567A4D5AC4F0A3
:1015F0009D8F5DB59A7FE7B7A85D6D37E4F2EA7A13
:1016000073F8FC6717F3D960090E8B0FE2F9836159
:10161000DF5369D0EE4251B5514864F8DD3EEEA784
:1016200047F07C4BBB2B8EE28B6057634B9BAA67CA
:1016300063EAA3D57C4341A95474D286C31142699D
:10164000C5093E8F94AFC599BBBBAC61646101F223
:10165000D359B1415091166CCC9BEC5CFE3BB3EC82
:101660006ED7F10E5A8A5F1DB0C576542607BC6648
:10167000F0ED519A1FE8F751588E1E80991FEED653
:1016800043CCFA2FAE80F2A8A8AE437C8076D41A61
:10169000D4737461DFBF296F561593075892F11DFB
:1016A000E87B68B2542030012DC5D8FD6150140F7D
:1016B000584C1A5400127E46990C9DD1A304F18215
:1016C00017FEFC12E57581AFFF3D08D539874A8EBC
:1016D000F07AD4D0D6CFA9D6594841C268E3A43510
:1016E000458D141AC444892C63C8AF7BAC3543279D
:1016F000BE7ECF56403DA5AC0F97CCD46ED031D72F
:10170000146045AEDF0AAA33B388E01C26DC00B8BB
:1017100075C86711A1B58771F94A6AEC3F0E41217E
:10172000C24F928F1753EED5EA4F9175025902942A
:10173000E4DA4AB3AAA72E9CC780465EBD06331DD5
:10174000D85D9F5F77730A7D386BA70E8F4E7D0142
:10175000DA4474D2F17A2F7FE1ECF1A57D033B2FBF
:1017600017B6E80D333C2191915B302C11C6586AB5
:10177000E4351BB5A847B3FFD0960E484E973760A7
:101780001204FFCBA5F51D409CDF36123DD92A720D
:10179000DAE88BE45BCFE93852EC2CA0F779AD2086
:1017A00070592062739CE34609C912D47755074BE0
:1017B0006A261E5D0778104E4ADA5EF63B9B8DFD69
:1017C00048D0BBAA212EF5DF854CA71D1A261BA0E9
:1017D00082867F4B02D2F660C9860C1DBF73698674
:1017E000184B44BC74E5821793B50A5608B74A7380
:1017F000B804D214215E2CA0E0C2015FDECE642AC0
:10180000D8652BF074E354BFA09B50BA02002C950E
:10181000CE2A4FCF2B2B0E9BDD8F675B54A1472E1B
:10182000842E24FA34E05A103BCFAFE2ED28D117D2
:101830006B9A1B496CFCCB7A74092A415AFFA1F5BB
:1018400098C60CD26983D2C369875E7EBBFCC0D1C7
:10185000C117D79BE15370B743D038252649405B69
:1018600057BA4932AA9F39AA8E73008513796DF150
:10187000912F9EA3A0657C7D53B47053016B925F42
:1018800038F1D73D7AD607727ADBA165A50741000A
:101890004BEBC5D03BEB3061420D4BA3D8078B120D
:1018A000F5893D7CFB2E79A7BCD5BF729AD8153936
:1018B000AD2570D16CB05DBBF43AF66056FAF2A576
:1018C00028AE0D76B379F14BC72E6EB6616222D980
:1018D000A730234521DE478CEBE54C8B4E79A09D4C
:1018E00095B305AAAFECE67473F0DC37AD933B20FB
:1018F0006DA1D8CFF97E9EC6BB406456A618752848
:10190000D2BA78645C484570358C499A454A6DF284
:101910009C8D480A612EE3D4EEA829404B53BB5658
:1019200039CE816CFD37A0791CC794176C37EA97C4
:10193000F4D8D49F9F304FE5A408B86BAEB9BC4F24
:10194000612044DF92DB1E0483C0A12C09D8DF2173
:10195000F0200480AF7391BC0EBAE4F79B363C30A4
:10196000F1B4BADCFA65F22B1D184E1662D4AC8BBA
:1019700021A5A2F132C3C965632D316BB88FE12473
:1019800093870499E6BDBA283063DAACC799378AE1
:101990008666B344D584AAA15342A0381E5DF705DC
:1019A00029E7CA2A0B6AABCEF03AF390E6D125A11B
:1019B000331C33997D24D17423FC6F7DDBA7E9C2EE
:1019C000DE17122D1CB37E880308757D9A4937AF48
:1019D00060047CBCD31C53703497EBE1CD3079A20A
:1019E0008694585A99C269D7B232626C0A3669B184
:1019F000354841CE79967A0D2D33BF4D2FB8D8B3E7
:101A0000FBE47193B9180D51ABBB09D90DD7671E13
:101A10004728C7F7CE605828235E95FC2BDBF90DCD
:101A20001FAB49E6D0A7377920E4CF05E36421ACAA
:101A3000DFB1E8F9E04C3B5E89682A48C5640EDBFB
:101A4000F1538B1A2FF60C189C529B212E4AE7D685
:101A5000BBB71A0A22AB4AFDD3027D21FFB90E0F94
:101A600029ABACF4445E0FD5F357E54F61724EBA23
:101A700055378F9A1CD4B830AF0A951A1386D40AFA
:101A8000835C991B2BC093F513F5EAFB6F75746C9F
:101A90002E77C344C53862B9F5AC58B4966EA4A588
:101AA00045B51B7C9D219516EE29572012BBF80ADF
:101AB0002325AC51FD7AE09D43B0276F2ADF04084F
:101AC000D3F11D3C128DAFF2D7B9029D46E3ABFFB7
:101AD00061C8612B19C8C1A16D0AA744FAB5A8D77E
:101AE0001E53156F7A4841E930B5ADE2F070406A97
:101AF000F331DD1950E5BCB43D839FDFC825279045
:101B0000405B32044781FA53B40A40157A745BDBB8
:101B100024AB3AB791E344B747073990D2F5A90807
:101B20004658DC3210A347320445441371AC2EA74B
:101B3000C971D0F9517ECAE509A81E775B3A08AA97
:101B4000431CD68D6091466D64569E162ECEB39979
:101B5000C8F655271384BC8AB3C8F51A72F76A0C05
:101B600046952F4A86B6D29894F1C3370E0C87114A
:101B7000567EAFDA22296FEBFAEC96E0276B42A192
:101B800070091AAD4888DAFCE13B62952856702846
:101B900003B258678D0AEA9A1595515F83070920A9
:101BA000BF37AFF70A743CA552F1E3F55830E1179F
:101BB000DE98F1387BF0AFBD165952996C747048BD
:101BC0007714FF534184BCC5372F71843DF5467CA3
:101BD00063E000A05607F78C6357BE545CE1FDAC90
:101BE00035FAC2D5F25ABE7C318EBDDBFE4D036F95
:101BF0005EA61F232DCA68F0C614CCC33EF021D4C4
:101C0000402A72B67EE285D68AFB48512777E4CB1C
:101C1000CD2FF6E1BCFEEDA1145FE532FCCFD9FB80
:101C20002FE9AD7D2D68E79A15956A4AE4ABE4EBA0
:101C3000E00D40BDEF8FB975B439086DC09F04FF4A
:101C4000CCDE13304EB6E4E0CB69E5C61C2F436A08
:101C5000632572D5DFBDDC0BE9089D3D266FC38986
:101C6000F818AC42BF4E9D5D28B0264136768D8671
:101C700084FAD8D467581969202D35FE09D98CFD0E
:101C8000F921A157DF17AE8ECBC97F2654DE104352
:101C900072DDBC18B934F9AB70F9744D8E6D2A330E
:101CA0001406D071E6ADAABE862E9A8D8788AF0342
:101CB0009FCBF8789A663809CDAE89C2CCAF6A1648
:101CC000140948AE9B55E40FA586A1757F7CEF0DE6
:101CD000CB3AB30D1F020C801FB4F4E0A641CC87B1
:101CE00000406143E7FCB40124CA4534253C39FF78
:101CF000098C39855A5BCC273CBD28438645179A09
:101D00004E3524A423A2FDCA6CD4FBBAE741B3FB31
:101D10007C5507B56E3EB12972CC38EA273080B9C0
:101D20008CB8EE54AB3EDBDD06D095EA3E42886BC4
:101D3000AE89C7E84C38B693F6BE4C204A8CCE2B01
:101D400022D272494618568070675AFAC0CA6D533B
:101D500021CAE3866891D37CA9D5AD6A72A1FE53EE
:101D6000E94085EA62A963753A2DEC9BFE58D87369
:101D7000205210435C2DB421B9961F726DBA42EA0D
:101D8000F285BE5212A7B13E2B89EF0F73057C99E5
:101D9000C3C55F9653F8AF9B7A49A044546055F091
:101DA000103A608D905065AEF779DB2E08F9BBF2E2
:101DB000D278D086B594A10EB98189B7F9C043E82D
:101DC0008F3819DAED2FA75CDB01B338CEE6C3F20A
:101DD000D5AA879E116FD805F072ABD9A10FFF4627
:101DE000E94A8C0093E9866F6B1470BEB1B889C95B
:101DF000CC7D1A11D279FBD9D72413948F019C4B37
:101E000069336601829888F84C13310F58C1061166
:101E100030B48991349B89FC75CD11CA1A6FFA715F
:101E2000D645E70FEB3909B35A131FAA3A93CF8D62
:101E30006ECAEC2C8EC5831B5AD6D189AC024FCB0F
:101E40000F257696E05D2CFFA7EAEA92F1725BEE31
:101E500008D8848AA959E31277DAD6CA4E362D7C7F
:101E6000A413D1E818319902540AD07A74A0AD2C89
:101E7000834A6FF1B1501B6469E8842F2CC8EB953D
:101E80003DA518C74B82FC88E1D37B0EBE10BA6516
:101E900002859B469A377A774DC2C4533067915476
:101EA000F63D39444342132E0929FD50A6DA94CE5B
:101EB0008697102B5C1C09CD0FFC15DC543B53E1BD
:101EC0007CA7E1FD47C2AF7EEA340C6FE65C0430CC
:101ED0006C84C751E3B55F349EDD050C1CD4BCFB9C
:101EE000CD3AAEBC529254852CED0FFBF873105DC9
:101EF000D81F06E0A15926B4393FC119F9D4BE4F05
:101F0000F433EC3F3FFE8F91D044F21278909E79EB
:101F1000A927EE05CB9F5A4B15DE6739181FE73A04
:101F20000A4198E7DEA728A0D354663379B53A83EF
:101F3000375F25407047B8796B62963F48EA9F6EDD
:101F4000CB35E16F2DC4C24B9BA74D05790E1CFE0E
:101F5000095A9F87227A131B9F994D05DB1573D869
:101F600065FE395EA4437B6C79BD73914C9B4C94A8
:101F70001887EA68A7449F5C3666FD41145EB18EFF
:101F8000EB45DA770EE0EC5EF40DBF41C648F01584
:101F9000D860F74076237B1CE559445030CE064E7E
:101FA000C5A670C31817A237ACBF2C6FBC9B3F5897
:101FB000121110390018DB7D0BD22CEE0AAF76948B
:101FC0007AC15C21D2619F1D7A9695DFA45181E68A
:101FD0001BD57C3644F060FF3AF632EC8FE09AC7AE
:101FE000E3BCADEBA694714B6D38974C36A275FFF0
:101FF000FB3FEB60E131B1BC32776CBD49934BC222
:1020000007BAF067FD68CAF5A4FF2A5EE2BEB569AB
:10201000B2A063931BB4BD4612FAEE885F46DFB2EE
:10202000BAE8BA5447EA18FA0891779B1C878B01E3
:10203000709EC0052BAAD7AF30A8018B28A0F595BC
:1020400099325F08C4EF65453CC36DEFB8349D1C01
:10205000046686F2BC9D8797BE08DD58DD530F7D70
:10206000EC930BB95BE3087615DFC7682FA8F84D32
:10207000338FAE0884C3E8CB9C718009D7116321EC
:10208000040EC6F0509E0AA799149A5AF9AA5F0640
:10209000DF5C52374B390C7E18C1ABD636F578BDB4
:1020A0009F790EF233610EC30B5A24023F42353D35
:1020B000A4ADC5305076E7E34508661821EBDD1482
:1020C00076F8F155E83B9D8B9392FFA7803438C298
:1020D000AD7CFFBD232B0B2C5FEAC09500FB8C373A
:1020E0006B8A42913EEFD65143216F803EBDF2B3E1
:1020F0002407A5924A76513172354725E7B9D0F4C5
:10210000C2DD52353A23C416FA2A8D99D0B953C28A
:10211000125C3FCE8DDBD1C8D159E588FF4911ABA8
:10212000AB7BD1F2B43749A0B1FEFE6C08761D0B33
:102130009AF4B16DA0F220E417A74D85B38E7ACB47
:102140008730AF119020A819EA2207FAC14CE8FCA9
:10215000A2038F2AC536E4AF669BBA0ADD6590DA22
:10216000D72762D9193BABF666892DA53070E9AA4D
:10217000E2D9C12347FD9A254A5F896297614B9155
:10218000FC341BFC97B27B87F454FCD63648C287DC
:1021900079A3C48F42B13147DDE8D00A714722F3F9
:1021A000F49F287A700CBC5930E0E4132465BD4CD0
:1021B0000E6D9E4D15901972C928B6950E92F9793B
:1021C0005C64B9B97BD7DCB4B9B4967F7255AE1EE6
:1021D000B0028E45BDF0A590B7301240B6409CF1DC
:1021E0006263726DF0BA1AF6F0406A47A2FC9BD89F
:1021F00070191AF524F64D2F64FDF7C3FDA7455D50
:1022000094318FD69F5D216641D43951AF618C1EC8
:102210009F0611E97A8831E126B61C7406F59835D7
:10222000171AAB193A8CC60E7E14D06E441C666128
:1022300067F18E287230D2BF7D6F08179962EE78F1
:1022400018543AD57F61AC10833E2C924F5A98595E
:1022500097FB8297ADC873A26C0D06CF0A69DAEBC3
:102260009EF7677FDEE8830B465A3F02B3607FDC50
:10227000A3FF148ECFA26572CE3E11392D949447E0
:102280008EC78C706B7C498E3CD74C02C877A5FDFD
:10229000BA9A0A1A1BD94A8303DFE2756E28D963FA
:1022A0001F021827278F4BE7000000A90201000C2E
:1022B000010C010F000C100F00011E0C0100100F8B
:1022C0000000010F00010F0C01011E02013F065B1F
:1022D0004F666D7D077F6F80043211241FBECFEFE4
:1022E000D8E0DEBFCDBF14E0A0E0B1E0E0E0F4E76D
:1022F00002C005900D92A43FB107D9F727E0A4EFE3
:10230000B4E001C01D92A232B207E1F711E1CDE6BF
:10231000D1E104C02197FE010E94F839CC36D107E3
:10232000C9F70E9498320C94FE390C9400008093F7
:10233000BB0084E88093BC008091BC0087FFFCCF89
:102340008091B900887F803231F481E08093A004CD
:1023500081E090E008958033D9F781E08093A10473
:10236000F7CFE5CF089594EA9093BC009091BC001C
:1023700097FFFCCF90E0880F991FF3CF08958091CD
:102380009F04815080939F04882351F084EC8093B4
:10239000BC008091BC0087FFFCCF8091BB000895FA
:1023A00084E88093BC008091BC0087FFFCCF8091C3
:1023B000A204882321F084E98093BC00EECF84EA54
:1023C0008093BC008091BC0087FFFCCFE6CFCF9309
:1023D000C62F21E02093A20460939F0424EA209357
:1023E000BC002091BC0027FFFCCF880F991F8E7F77
:1023F00091708160B6DF8C2FCF910895E62FF0E0C9
:1024000093E0F595E7959A95E1F724E0829FC00166
:102410001124E80FF91FE950FA4F677021E030E00E
:1024200001C0220F6A95EAF78081822B808308958C
:1024300090E0FC01E557FA4F2491FC01E958FA4F6E
:102440003491FC01ED59FA4FE491EE23C9F02223B7
:1024500039F0233001F1A8F4213019F1223029F1AB
:10246000F0E0EE0FFF1FE75AFA4FA591B4918FB736
:10247000F894EC91611126C030953E233C938FBFB8
:1024800008952730A9F02830C9F0243049F7809109
:1024900080008F7D03C0809180008F7780938000C3
:1024A000DFCF84B58F7784BDDBCF84B58F7DFBCF45
:1024B0008091B0008F778093B000D2CF8091B00030
:1024C0008F7DF9CF3E2BDACFCF93DF9390E0FC01E5
:1024D000E958FA4F24918D599A4FFC018491882331
:1024E000D1F090E0880F991FFC01E15BFA4FA591B4
:1024F000B491FC01E75AFA4FC591D491623071F45E
:102500009FB7F8943C91822F809583238C93E88128
:102510002E2B28839FBFDF91CF9108958FB7F8941A
:10252000EC912E2B2C938FBFF6CF62E082E1CCDFB3
:1025300062E083E1C9DF88E48093B8001092B900BB
:1025400008958E3008F08E508770806480937C00F0
:1025500080917A00806480937A0080917A0086FD71
:10256000FCCF809178009091790008953FB7F8945E
:102570008091F3059091F405A091F505B091F605D1
:1025800026B5A89B05C02F3F19F00196A11DB11DCE
:102590003FBFBA2FA92F982F8827BC01CD01620F0A
:1025A000711D811D911D42E0660F771F881F991FC5
:1025B0004A95D1F708958F929F92AF92BF92CF9292
:1025C000DF92EF92FF926B017C01D0DF4B015C0147
:1025D000C114D104E104F104B1F0C8DF681979092C
:1025E0008A099B09683E73408105910588F321E0C3
:1025F000C21AD108E108F10888EE880E83E0981E1F
:10260000A11CB11CE5CFFF90EF90DF90CF90BF9061
:10261000AF909F908F900895CF93DF93C6ECD6E054
:1026200061E0888151DF6AE070E080E090E0C3DF24
:1026300060E08881FDDE6AE070E080E090E0BBDF72
:1026400061E08881F5DE6AE070E080E090E0B3DF71
:10265000DF91CF9108952FB7F8946091EF057091B5
:10266000F0058091F1059091F2052FBF089508952E
:10267000B0E0A0E0EEE3F3E10C94C9396C017B011A
:102680008B01040F151FEB015E01AE18BF08C017C8
:10269000D10759F06991D601ED91FC910190F0813B
:1026A000E02DC6010995892B79F7C501CDB7DEB7B5
:1026B000EAE00C94E5390F931F93CF93DF930BEA75
:1026C00014E0EC01C457DF4FC8010197F1F761E056
:1026D00070E0888199817BDE52DE87FFF5CFDF9144
:1026E000CF911F910F910895FF920F931F93CF9356
:1026F000DF938C01EB01AFDF607F7370D801ED9148
:10270000FC919F012F703327AF01407F5370FF2E44
:10271000F694F694B7E0BF15F8F089B190E00F2C6D
:1027200002C0959587950A94E2F781706417750742
:1027300008F47C5FDB01A41BB50B2330310591F15C
:10274000E8F42130310549F110F1882309F469C01A
:10275000A034B10520F519C0AF2DB0E08DE08F1584
:1027600048F083B190E0189702C095958795AA9597
:10277000E2F7DBCF86B190E01E97F6CF253031052A
:10278000A1F160F126303105C9F180E010C081115E
:10279000FCCFAB0121E030E00AC0882399F130E0A2
:1027A00020E0F3CF811131C0A034B14090F5EE2785
:1027B000FC7FE22BF32B407F53704E2B5F2BD80115
:1027C0004D935C93882379F1209719F06F2DFE01CA
:1027D0000995CDB7DEB7E5E00C94EA3981111EC04A
:1027E000D09728F3AB0187E0E2CF24E030E08823E4
:1027F000F1F2AB0122E030E08BE0D9CF22E030E013
:102800008111D5CF23E030E0D2CFAB0126E030E01C
:10281000BCCFAB0124E030E083E0C9CF25E030E05D
:10282000B4CFAB01C4CF2330310598F288E0D1CFCB
:102830009ADD80E490E095CD089595DD90E080E00C
:1028400090CD0895F894E1E6F0E090E890838083DD
:102850007894089500DF6093C8057093C90580934C
:10286000CA059093CB0528EE33E040E050E00E948B
:1028700068393093CD052093CC050895FC01F89478
:102880008081918120813181281B390B3183208304
:1028900078940895F894309903C081E080939B0563
:1028A00080919B0578940895E091480482E1E802C4
:1028B000F0011124E05BFD4F818592859093B9056D
:1028C0008093B80508958091B8059091B905E0917D
:1028D000480422E1E202F0011124E05BFD4F248173
:1028E00035818217930738F02681378128173907F9
:1028F00010F09287818708959CEF960F923030F008
:102900006A50623018F0833009F481E0089589B18B
:1029100099B1E091D205EF7086958695827092FB11
:10292000992790F9892B94E0E99FF0011124ED5546
:10293000FB4FE80FF11D87FDFA9580818093D2054A
:102940008073A9F0F8942FEF3FEF803111F421E06C
:1029500030E08091BA059091BB05820F931F909350
:10296000BB058093BA0581E080939B057894089518
:102970009AE0899FF0011124E45DFE4F948181E08B
:10298000891B8483089583E1F3CF089586E1F0CF16
:10299000089588E1EDCF08958AE1EACF08958BE1AB
:1029A000E7CF089589E1E4DF80912A024BCF0895B3
:1029B00084E1DECF0895FC018081280F261714F4EE
:1029C00040830895421714F020830895608308958A
:1029D000282F44E060E082E092E0EDCF0895CF93AD
:1029E000DF93EC01462FE091480482E1E802F00118
:1029F0001124E05BFD4FE485E95FF0E0EE0FFF1F7F
:102A0000E45FFE4F8081918168EE73E00E9455394A
:102A1000FB01309779F028813981C9010E94413941
:102A2000009741F0442311F02E0F3F1F281B390B54
:102A300039832883DF91CF9108950DDE28EE33E0AE
:102A400040E050E00E9468393093CD052093CC05DA
:102A500081E08093CE050895FEDD1092B7051092B7
:102A6000B605089580914F02823059F0833029F0E5
:102A7000813051F481E090E0089580910801823026
:102A8000C9F782E090E0089590E080E00895809199
:102A90004F02882329F090914F0281E0943008F092
:102AA00080E008958436910520F40A9758F481E077
:102AB0000895803127E2920738F4883E934030F43D
:102AC00083E0089582E0089585E0089584E0089504
:102AD0008F929F92AF92BF92CF92DF92EF920F931D
:102AE000CF93DF93EC0131E0211101C030E0340FCE
:102AF000FE01E30FF11D1082F0E0E0E0842F821B65
:102B0000990B4C018AE0A82EB12CE417B8F42223CB
:102B100041F08E169F0629F43150DE01A30FB11D3E
:102B20000C9331506E01C30ED11CCB01B5010E9434
:102B30004139805DD6018C933196E7CF211101C0D8
:102B4000242F80E02150330BE82FF0E0E217F30749
:102B500044F4EC0FFD1F9081903319F4E0828F5FF5
:102B6000F3CFDF91CF910F91EF90DF90CF90BF9097
:102B7000AF909F908F90089590914F0281E0943094
:102B800009F080E0089583CF089590914F0281E08D
:102B9000943009F480E0089581E00895089590E06C
:102BA00080E0089584E98093BC008091A00488238C
:102BB00031F01092A0041092A10482E00895809157
:102BC000A104882321F01092A10483E0089580E0FD
:102BD00008958FE296E06FDD8091BB06C4DB82E151
:102BE00090E0BFDB90E080E0BCDB81E0A0DB81E037
:102BF0009EDB80910B079BDB80910A0798DBD2DF7D
:102C000083E998E00197F1F7089587E0B1DE3FDFAF
:102C1000882349F080910B079091760190FB85F90C
:102C200080930B07D6CF0895E091480482E1E80233
:102C3000F0011124E05BFD4FE7850E2E000CFF0B29
:102C400090918A0180910A07992329F020914F02DF
:102C50009150233051F4E652FB4F2081222321F082
:102C6000245091E0223008F490E09295907F8F708C
:102C7000892B80930A07ADCF0895282F42E060E0AA
:102C80008AE891E098DE03DF8111CECF0895CF93DB
:102C9000DF93D82FC92F8FE296E00DDDD093DA06AF
:102CA000C093DB06C093DD06D093DE06909110073B
:102CB000992361F08091DC069295990F990F907C91
:102CC0008370892B81608D7F8093DC068091BB06A9
:102CD0004ADB8091C7062BDB8091DC0628DB8091E4
:102CE000DD0625DB8091DE0622DB8091DF061FDB1F
:102CF0008091C706803419F48091E00618DB52DF1A
:102D00008FE296E0D8DCD093CC06C093CD066091DC
:102D1000BD067091BE0690E080E04DDCDF91CF9162
:102D20000895CF93C82FCF708FE296E0C4DC8091D6
:102D3000BB0619DB82E190E014DB90E080E011DB60
:102D400081E3F5DA82E0F3DA81E0F1DA8C2FEFDA71
:102D500029DF8FE296E0AFDCCF91089580911107D3
:102D600087FD06C061E064DB8BEA94E00197F1F730
:102D70008FE296E0A0DC8091BB06F5DA81E190E07D
:102D8000F0DA10DF8BE097E20197F1F70895FF92F8
:102D90000F931F93CF93DF93C82FD62FF42E890163
:102DA0008091BB06E0DA8C2FC2DAC1E0DC1748F56F
:102DB000CF1538F5D801ED91FC911197CF0101960F
:102DC0008D939C93E156FA4FE4918E2F90E0C9DAEF
:102DD000CF5FC83059F7E6DE8FE296E06CDC61E049
:102DE00070E08091BB069091BC06F1DAC8DA86FBF0
:102DF000882780F991E08927CDB7DEB7E5E00C940C
:102E0000EA3990E080E0E3CFEF92FF920F931F93B7
:102E1000CF93DF93EC01F62EE72E142F052F4BDC1A
:102E2000C457DF4F88819FDA82E190E09ADA90E020
:102E300080E097DA8E2D7BDA8F2D79DA802F77DAA2
:102E4000812F75DAAFDE83E998E00197F1F7CDB70E
:102E5000DEB7E6E00C94E939CF93C82F482F50E055
:102E600060E070E48FE296E0CFDFC0930E07CF9171
:102E7000089590914F0280910901943071F490E08F
:102E800020914802821B910927FD939597FD07C069
:102E90008034910514F08FE390E0DECF089580E058
:102EA000FCCF282F4FE060E088E492E084DD809141
:102EB0004F02843009F4DDCF08951F93CF93DF9341
:102EC0008FE296E0F8DB8091BB064DDA81E090E07E
:102ED00048DA80910C072BDA80910D0728DA62DE40
:102EE0008FE296E0E8DB6091BF067091C00690E04B
:102EF00080E061DB8091110787FD06C060E098DA11
:102F00008BEA94E00197F1F78091D206811120C0FD
:102F1000C091D506D091D606AE0161E072E08FE295
:102F200096E072DFD093D606C093D5061091D906ED
:102F3000C091D706D091D806AE0162E072E08FE270
:102F400096E062DFD093D806C093D7061093D906D7
:102F5000DF91CF911F9108951F93CF93DF93EC01E1
:102F6000122F9093C9068093C8067093CB06609386
:102F7000CA0681E090E09093CF068093CE064C176E
:102F80005D0720F06417750708F0EA0190910F07BC
:102F90002091D20680910C073091D30630FB87F93F
:102FA0008F7920FB84F9807F816080930C07909358
:102FB0000D0780E48093C7068091DC06807C8160E9
:102FC0008093DC061092DF0681E08093E00675DFD7
:102FD00080910E0741DF1093100782E08093D006A6
:102FE000D093CD06C093CC06CE0151DEDF91CF91B8
:102FF0001F910895282F4FE060E080ED91E0DBDC29
:1030000080914F02843051F44091D001042E000C85
:10301000550B63E073E18FE296E0F6CE0895282F1A
:103020004FE160E086EC91E0C6DC80914F02843095
:1030300051F44091C601042E000C550B62E073E17F
:103040008FE296E0E1CE0895282F4CE360E084E41F
:1030500091E0B1DC8091440181110DC08091BC05EB
:10306000882349F050E040E061E070E48FE296E0B0
:10307000CBDE1092BC0508958CE07ADC80914F0283
:10308000843049F44091A8014F5F50E060E071E165
:103090008FE296E0B9CE089590914F02943021F1DD
:1030A000282F4AE060E08AE391E085DCDBDCE091F8
:1030B0003A0181569A4FDC011696EC93F0E0ED5AF6
:1030C000FC4FE49184EF8E0F8F3470F4E093D106BF
:1030D00084E591E0E89FA001E99F500D112463E091
:1030E00071E38FE296E090CE0895282F4FE360E0E1
:1030F00088E591E060DC8091C706803241F0409124
:10310000580150E063E073E38FE296E07DCE0895CE
:10311000282F40E260E08EE491E04DDCA3DC40919A
:103120004E0181569A4FFC01438380914F028430B7
:1031300031F050E062E073E38FE296E065CE0895EF
:1031400081569A4FFC01438150E062E073E38FE2C5
:1031500096E05ADE4091580150E063E073E38FE25D
:1031600096E052CE0895FF920F931F93CF93DF9373
:10317000F090BC01C3EDD2E00BEE12E0FE016591D0
:103180007491FE01329645915491F11002C0452F81
:10319000552755278FE296E037DE24960C171D073A
:1031A00069F7CDB7DEB7E5E00C94EA398EE0E0DBF5
:1031B00080914F02843009F4D6CF0895B0E0A0E0AA
:1031C000E4EEF8E10C94CB39AC01EB012091B805A9
:1031D0003091B905A8EEB3E00E94AC396B017C01D7
:1031E000CA019695879597018601080F191F211D21
:1031F000311DC901B8019A0150E040E00E946839D0
:10320000A90164E071E38FE296E0FEDDCE019695C0
:103210008795A7019601280F391F411D511DCA012D
:10322000B9019E0150E040E00E946839A90165E0C3
:1032300071E38FE296E0E8DDCDB7DEB7E8E00C940D
:10324000E739CF93DF93EC01FE016591749161152D
:10325000710549F0FE013296459154918FE296E056
:10326000D3DD2496F1CFDF91CF91089585E080DB07
:1032700080914F02843039F080916201811104C045
:103280008EE593E0DECF089586E693E0FBCF8BEEEC
:1032900092E0D7DF4091C601042E000C550B62E08E
:1032A00073E18FE296E0B0DD4091D001042E000C76
:1032B000550B63E073E18FE296E0A6DD8BE293E0CD
:1032C000C0DF8091B201811104C08FEF92E0B9CFCD
:1032D00008958BE093E0FBCF8DE04ADB80914F02B5
:1032E000843009F4D4CF0895E091480482E1E802E3
:1032F000F0011124E05BFD4F80858230A9F48091BC
:103300004F02811111C08091DA01823041F0833087
:1033100061F0813049F483E592E093CF089560EB4A
:1033200074E080E496E04ACF08956CED75E080ED9E
:1033300097E0F9CF282F43E060E08AED91E03BDB96
:10334000D3CF0895B0E0A0E0E8EAF9E10C94CB39DE
:103350008C01D62FFC01E856FF4F808198E0E92EC2
:10336000F12CC3E2803251F026E0E22EF12CC3E4CE
:10337000803521F488E0E82EF12CC3E5C8019BD903
:1033800068018CE8C80ED11CF60180810E94B3113F
:103390008C2F0E9497118D2F0E94971103DCC8017A
:1033A0008AD9B701F6018081918111D8D12CCD2D18
:1033B000D0E0CE15DF054CF40E94BF11C00FD11F25
:1033C000CE54DF4F8883D394F2CFCDB7DEB7E8E099
:1033D0000C94E739B0E0A0E0E0EFF9E10C94C839D3
:1033E000EC01D62E142FFC01E856FF4F808180326D
:1033F00061F098E0E92EF12C02E4803451F026E0EF
:10340000E22EF12C02E5803521F088E0E82EF12C47
:1034100002E2CE0150D980E0D0FA80F910FB81F9A8
:10342000182F13706E018CE8C80ED11CF601808134
:103430000E94B311802F0E949711812F0E94971133
:10344000B1DB5E01FAEBAF0EB11CCE0134D9B7018E
:10345000F601808191810E94E711912C092D10E0E5
:103460000E151F0554F40E94BF110C0F1D1FF8010B
:10347000E654FF4F80839394F1CFF501808186FD60
:10348000E4CFCE0118D9CDB7DEB7EBE00C94E43928
:10349000CF93DF93EC0186DB188283E090E0019705
:1034A000F1F7DF91CF910895CF93DF93EC01862F51
:1034B0000E9497118F858F5F8F87803128F0CE0112
:1034C0000F96E6DF8C81B4D9DF91CF910895B0E0FB
:1034D000A0E0EDE6FAE10C94CC39D82FC62FF42EFB
:1034E000D22E80911607A9D961E282E197E0DCDF54
:1034F0006D2F82E197E0D8DF6FEF6F0D6D0F82E1E6
:1035000097E0D2DF62E282E197E0CEDFEC2EE69434
:10351000E694E6946E2D82E197E0C6DFCD0DDD27BF
:10352000DD1F219783E0D595C7958A95E1F76C2F2C
:1035300082E197E0B9DF81E297E0AADFCE19CF5FA1
:10354000CF9DE00111248091160772D97801C00F38
:10355000D11FEC16FD0669F060E00115110511F0B0
:10356000F701608182E197E09FDFFFEFEF1AFF0A2A
:10357000F0CF81E297E08CDFCDB7DEB7E7E00C94C7
:10358000E839B0E0A0E0E7ECFAE10C94C539E0EDF1
:10359000E80FEA3008F448C08E3209F067C024E032
:1035A000C22E94E0C99EA0011124A7EFB5E01D92A0
:1035B0009D01275F354024173507C8F38E3209F483
:1035C000EAE0D62EF0E0E353FD4DE4910DEA12E27D
:1035D000F12CE12CCE2FD0E0CE010E2C02C095951F
:1035E00087950A94E2F780FF30C0F8018490319605
:1035F000A490319694903196B49066246394680CAC
:10360000BB20A9F0B12C662463946A0C9B14E9F0EA
:10361000782C7B0C6A2D872D0E94FE11662D872D3C
:103620000E94FE11B394F2CF9EE0C92EBACF9B1434
:1036300061F07A2C7B0C672D882D0E94FE11672D7E
:10364000862D0E94FE11B394F2CFFFEFEF1AFF0A0E
:103650000C5F1F4F88E0E816F10409F0BDCF07EFBB
:1036600015E020E24C2D60E18D2D31DFCDB7DEB7C6
:10367000EEE00C94E1390F931F9310E000E027DF98
:103680001F910F910895B0E0A0E0E9E4FBE10C94F4
:10369000CB396C018B017A01E90180911607CDD8F5
:1036A00061E282E197E000DF60E0D7FC07C0609153
:1036B000190770E0C616D7060CF4B60182E197E050
:1036C000F3DE6091190770E0E616F7060CF4B70117
:1036D00082E197E0E9DE62E282E197E0E5DE60E028
:1036E00017FD07C06091170770E0061717070CF465
:1036F000B80182E197E0D8DE60E0D7FD07C06091B5
:10370000170770E0C617D7070CF4BE0182E197E0F7
:10371000CBDE81E297E0BCDECDB7DEB7E8E00C940B
:10372000E739E2E1F7E0948783877687658723E0CE
:10373000759567952A95E1F7478150E09B01A3CFE6
:10374000089523E0660F771F2A95E1F7EACF0895E1
:10375000CF93C82F809116070E94B31180E890E0A4
:103760000E94B1116C2F82E197E09EDE81E297E02A
:103770008FDECF910895CF93DF932091170730E02C
:103780004091190750E070E060E090E080E07BDF5E
:10379000809116074DD8C0E0D4E060E082E197E068
:1037A00083DE2197D1F781E297E072DE60911F07F7
:1037B0007091200780911D0790911E07B2DFDF9165
:1037C000CF910895A3E0B0E0E8EEFBE10C94CC3992
:1037D0009B838A83FC01278183859485069628171D
:1037E00019060CF437C0062F848122D8F12CE12C65
:1037F000F0EEF00FF9830052110B00511B4F86E0E1
:10380000D82E89818F3560F5F80184918F3F41F181
:10381000F7018D9DE00DF11D1124E653FC4F6491DD
:10382000EA81FB818085811160958A819B813CDEE4
:10383000EA81FB8183859485019694878387FFEFD6
:10384000EF1AFF0A86E0E816F104D9F68A819B8117
:103850000F961EDE81E090E02396E7E00C94E839B5
:1038600060E0DECF682F82E197E0ACCF08950F9340
:103870001F93CF93DF938C01D0E0C0E0F801EC0FF1
:10388000FD1F6491662339F082E197E09BDF892B6D
:1038900011F02196F3CFCE01DF91CF911F910F91BF
:1038A0000895FF920F931F93CF93DF938A01F22E17
:1038B00070E090E046DFC2E1D7E0F886C801D7DFCC
:1038C0001886CDB7DEB7E5E00C94EA3980914F0257
:1038D0008330F0F4E09148048130E8F082E1E802BE
:1038E000F0011124E05BFD4FE78545E151E0E40F75
:1038F000F52FF11D44918091EA0521E0833009F014
:1039000020E050E0455E5E4F67E088E2CACF089550
:10391000843059F0089582E1E802F0011124E05B5F
:10392000FD4FE6854EE051E0E2CFE091480482E1B0
:10393000E802F0011124E05BFD4FE08949E051E02D
:10394000D6CF1F93CF93DF9390914F02933091F195
:10395000282F80914804C82F082E000CDD0B3091D1
:103960004F02333020F542E18402C001112431308E
:1039700028F145E060E0815A9D4F1DD882E18C9F7F
:10398000F0018D9FF00D1124E05BFD4FE7850E2EB9
:10399000000CFF0BE652FB4F90819F7080910A074D
:1039A000807F892B80930A0714D93ED902C0343016
:1039B00011F18CDFDF91CF911F91089546E060E017
:1039C000825A9D4F0E94DB148091C706803489F78C
:1039D00082E18C9FF0018D9FF00D1124E05BFD4F83
:1039E000E6850E2E000CFF0BED52FB4F80818730D9
:1039F00000F797D9DECF219512E18102C001112491
:103A000044E060E0805A9D4F0E94DB141C9FF0014F
:103A10001D9FF00D1124E05BFD4F408950E062E0F6
:103A200071E18FE296E0F0D9C4CF1F93CF93DF937B
:103A30008091EA0511E0823009F010E0212F42E088
:103A400051E060E082E22DDFC09148040C2E000CB2
:103A5000DD0B80914F028430C9F482E18C9FF0012C
:103A60008D9FF00D1124E05BFD4F85858C5F1093D9
:103A70001A0727E0829FC00111248E569F4FF7DE60
:103A800010921A07DF91CF911F91089500D88823D3
:103A900059F082E18C9FF0018D9FF00D1124E05BC5
:103AA000FD4F8485895FE3CF82E18C9FF0018D9F7C
:103AB000F00D1124E05BFD4F8385D9CF0F931F9349
:103AC000CF93DF93C09148042C2F0C2E000C330BA6
:103AD00090914F0242E1C402E0011124913048F17B
:103AE000943008F1943029F5C35ADD4F05E011E018
:103AF00042E0282F60E0CE010E94DB140115110581
:103B000061F08881880F990B080F191FF8018081D7
:103B100091819093CF068093CE0687DFDF91CF917E
:103B20001F910F910895C45ADD4F10E000E048E066
:103B3000E0CFC55ADD4F92E1929FF001939FF00DC7
:103B40001124E05BFD4F90850CE011E043E09230E2
:103B500080F246E0CECF68E370E088E190E0E1DDFE
:103B600080914F02843079F48091BD05811105C0A8
:103B700060E282E197E026CE08958091BC016AE27E
:103B80008823B9F3F5CF80914F02833039F48091C7
:103B9000080165E5813069F76CE4EBCF0E944715B9
:103BA000882331F38091940163E5813009F7E1CFF7
:103BB000CF93C091E401809116070E941D1461E823
:103BC00082E197E071DC82E8C89F900111242455BE
:103BD000384EAC2FB0E00E94AC3961E0670F82E153
:103BE00097E062DC81E297E053DCCF9108959091F9
:103BF000E401890F8A300CF089E087FD80E0809332
:103C0000E401D6CF0895A8E0B0E0E9E0FEE10C942D
:103C1000C9393B9A439A88E08093B8009FD88FE2D5
:103C200096E00E945B138091BB060E94B31181E075
:103C300090E00E94B1118FE190E00E94B11185E007
:103C400090E00E94B1110E94D2155E0189E0A80E99
:103C5000B11C8FE296E00E945B1368E070E08091F7
:103C6000BB069091BC060E94E7118E010F5F1F4FAB
:103C7000E02ED12E0E94BF11F80181938F01AE1664
:103C8000BF06C1F7898186FDE4CF8BE097E20197FB
:103C9000F1F78FE296E00E945B138091BB060E94D1
:103CA000B31181E090E00E94B11181E390E00E94A5
:103CB000B11185E090E00E94B1110E94D21560918F
:103CC000BF067091C00690E080E00E94DB1262E3C4
:103CD00070E080E090E00E94DB121A82198210E00E
:103CE00000E0F12C0539F1E01F0740F430E020E05E
:103CF0000138110590F020E031E00FC0063F82E06E
:103D0000180748F020E033E00F3FE3E01E0728F0FB
:103D100020E034E006C020E032E085E10115110525
:103D200009F086E14F2D50E0FA01E356FD4FE49192
:103D3000E20FF32FF11D0E171F0709F055C0F39482
:103D400049595D4FFA01449192E0C92E443618F06A
:103D50004456CC24C3942E2D3D2D60E018D88823E2
:103D6000B9F0CC2051F02E2D3D2D48E06C2D85E191
:103D70000ED8882369F00F5F1F4F0F5F1F4F01356B
:103D8000F4E01F0708F4AECF83EE93E00197F1F75C
:103D90008091C7068032E1F0E091480482E1E802B8
:103DA000F0011124E05BFD4FE7850E2E000CFF0BA8
:103DB000E652FB4F80818F70806180930A0780916B
:103DC0000B0780788061806880930B070E94E9155B
:103DD00088E48093B80081E080939C053B9A4398E7
:103DE0002896EAE00C94E539C12C48E0B4CFCF9393
:103DF000DF9380914F02D0E0C0E0833079F4E0910E
:103E00009E01EE0FFF0BE15AFD4FC591D4918091B9
:103E10000801823019F4D195C195D10980914F02E2
:103E2000833009F048C090910801E091480482E194
:103E3000E802F0011124E05BFD4F218984E62802AD
:103E400090011124923019F4319521953109809116
:103E5000C706803269F18091B4059091B505280FAD
:103E6000391FC20FD31FD195C195D1098FE296E0BA
:103E70000E945B138091BB060E94B31182E190E027
:103E80000E94B11190E080E00E94B11181E00E9497
:103E9000971180E00E9497118D2F0E9497118C2F0F
:103EA0000E9497110E94D21583E998E00197F1F7DB
:103EB000DF91CF91089590914F02B7CF282F43E023
:103EC00060E08EE991E00E94DB1480914F02833024
:103ED00009F48DCF0895CF93DF93C091480492E108
:103EE000C902E0011124C05BDD4F9885933081F059
:103EF000282F49E167EE8CE691E00E94DB14809167
:103F00006C01898B0E941D150E94471581116FDF7E
:103F1000DF91CF9108951F93CF93DF9391E018160F
:103F20000CF090E0CFEFC80F82300CF4C0E080912D
:103F3000C706D8E2803221F0D8E4803509F4D8E50C
:103F400010E090FB10F98FE296E00E945B138091E5
:103F5000BB060E94B3118D2F0E949711812F0E94E2
:103F600097118C2F0E9497110E94D2158FE296E034
:103F70000E945B13DF91CF911F91089590914F02A2
:103F800045E2943009F44AE1282F60E080E391E0B3
:103F90000E94DB1480913001BEDF0E9432158156F1
:103FA0009A4F20913001FC01208308950E94321520
:103FB00081569A4FFC018081AECF089580914904CB
:103FC00081110CC081E08093490480912A020E94F3
:103FD00022148FEABDDB1092EB0508958091C7058E
:103FE0008111FBCF1092490481E00E9422148EEAD5
:103FF000F1CF80914904811111C08091EB05882394
:1040000069F081E08093490480912A020E94221481
:104010008FEA9EDB1092EB050C942A1408958F9280
:104020009F92AF92BF920F931F93CF93DF93CDB721
:10403000DEB7A1970FB6F894DEBF0FBECDBF19A2B1
:10404000423008F44AE08E010F5D1F4F842E912C00
:10405000B12CA12CA50194010E946839E62FB90169
:10406000CA01EA3044F5E05DD801EE938D01232BBF
:10407000242B252B79F790E080E0109769F0FD0163
:1040800001900020E9F73197AF014A1B5B0BBD019E
:1040900082E197E00E943813A1960FB6F894DEBF34
:1040A0000FBECDBFDF91CF911F910F91BF90AF9009
:1040B0009F908F900895E95CD7CF682F70E090E0D3
:1040C00080E04AE0ACCF0895CF93DF9370E060E0EA
:1040D00090E080E026DBC2E1D7E081E0888780E4E1
:1040E00092E0C5DB80910B01E8DF6CE7CE016ADB73
:1040F00085E0E3DF1886DF91CF9108951F93CF937A
:10410000DF9370E060E090E080E00BDB81E0809383
:104110001A078AE991E0ABDB1091AC051123F9F0A5
:10412000D091AB05DF5F91E0DA3008F092E081E0FA
:104130001A3008F082E0C4E0C91BC81BC15018F057
:1041400080E290DBFBCF8D2FB8DF8CE78BDB812FFC
:10415000B4DF10921A07DF91CF911F91089584E97F
:1041600091E085DBF6CF0F931F93CF9390919E053F
:10417000992309F4CCC090913402913009F44DC0D8
:1041800090E1C82F892F0E94A1121816190614F069
:104190008BEE91E020910001309101012F3F3F4FC4
:1041A00021F49093010180930001609100017091CE
:1041B000010147E0469F9001479F300D1124280FD1
:1041C000391F83E0359527958A95E1F730930101F2
:1041D0002093000164E6273882E03807B0F460E0FD
:1041E0002C3E81E0380788F0293682E03807B8F0A5
:1041F00042E1429FC001439F900D112480559B4294
:104200006FE170E00E9441396E5A80910201962F51
:10421000981BA9F51092F4043FC09FE0B2CF22345E
:1042200082E0380770F043E2429FC001439F900D47
:104230001124835E9E4467E270E00E944139615D13
:10424000E4CF233182E0380770F048E2429FC0019A
:10425000439F900D1124805D92456FE270E00E94B3
:104260004139695FD2CF429FC001439F900D112415
:104270008D569D4067E270E00E944139C6CF9E5F37
:10428000953018F060930201C5CF9091F4049F5FC0
:104290009093F4049530B0F70E942B130091F5042D
:1042A0001091F6042091F7043091F804601B710B13
:1042B000820B930B613177428105910510F4CC2379
:1042C00031F18091C705811118C0C091020167E0EA
:1042D00070E08CE690E035DA10921A076C2FC53644
:1042E00008F064E670E090E080E04AE098DE10922A
:1042F0001A07C43610F485E2B5DA0E942B136093D6
:10430000F5047093F6048093F7049093F804CF912A
:104310001F910F910895009771F0BC01FC0101906D
:104320000020E9F73197AF01481B590B82E197E074
:104330000C943813089590E080E00895A9E0B0E06F
:10434000E4EAF1E20C94C139182FF090AC0528E3AF
:1043500040E868E080E0F1100BC08DD920E04BEA26
:1043600051E064E084E29DDA2996E2E10C94DD39C3
:1043700082D9812F880F180F812F90E02F2D30E0E8
:104380000396281739070CF4C901898725E0129F85
:10439000C0011124DC01A95CBA4F6D0192E0392EF5
:1043A00026E0222E3AE0632E712C44E6442E512C56
:1043B000B9851B17C8F60091AB0528E040E8632DCE
:1043C000660F660F660F80E056D9832C912CB401DE
:1043D00090E080E0B6D980E2011301C08EE342DABA
:1043E0001F5F812F6AE00E943539092F805D3ADA1C
:1043F00080E3800F37DA80E235DAF601828184309B
:10440000A1F580819181B2010E9441395B01B30124
:104410000E944139F62E85E0F4E6AF16B10408F4A7
:1044200084E021E1281BB401229DC001112489D917
:10443000B50190E080E04AE0F2DD8EE213DA8F2DE4
:104440003CDEB4018CE690E07CD9D60112968C91CA
:10445000B4E08B9FC001112481549B4F5CDFE5E0E9
:10446000CE0ED11C33943394A3CF0190F081E02D74
:10447000FF24FA94F80EB2E0B12CA12CBF15A0F0E5
:10448000D60113968D919C9168EE73E00E94553988
:1044900097FF04C088519C4F61507109E60FF71FC8
:1044A000B3010E9455395B0180E2E82E0EE220E064
:1044B00045E0BF01CE0101960E946815B2E085E09B
:1044C000BF1508F088E0E1E1E81BB401E29DC001FE
:1044D000112437D9CE0101961EDFF2E0FF1508F452
:1044E000B0CF8EE2BFD92AE0A216B10410F480E367
:1044F000B9D9B50190E080E04AE091DDA2CFA7E014
:10450000B0E0E5E8F2E20C94C4395090C7055110D0
:104510005EC0882E0E944715982E6090B805709056
:10452000B905811176C0E091480492E1E902F001F9
:104530001124E05BFD4F808520EFC22E24E0D22EB7
:1045400013E0833081F0823049F48091F80160EF0C
:10455000C62E64E0D62E12E0813029F09CEEC92EE2
:1045600094E0D92E10E08FE2E82E0EE2212F45E0F4
:10457000B301CE0101960E946815C3010E94521535
:10458000F82E512C8CE045E0112309F46CC08CE02E
:1045900045E05524539411E066C0909136059F156F
:1045A00009F48EC040E8481B20E260E187C091100A
:1045B00012C028E042E168E28DE65DD868E270E072
:1045C0008DE690E0AED8C601A6DEF09236052796BD
:1045D000EFE00C94E039B8018EE20E94C11A980114
:1045E000295F3F4FC5016AE070E00E944139962F74
:1045F000B82EB90180E3890F0E94C11AB801685E24
:104600007F4F80E38B0D0E94C11A84E08F1588F6DE
:10461000DCCF8091B4059091B50568EE73E00E94FF
:10462000553997FF04C088519C4F61507109660E3F
:10463000771E6AE070E00E9455395B01C3010E9459
:104640005215F82E30E2E32E0EE220E0482FB3019F
:10465000CE0101960E9468154F2D5CEEC52E54E0E8
:10466000D52E83E010E0140F9EE0499FA001112495
:10467000552011F04C5F5F4F123038F0E3E01E9F81
:10468000400D511D11244350510929E230E0911091
:1046900002C030E020E0420F531F282F30E00AE62E
:1046A00010E0041B150B021713070CF48901882076
:1046B00009F473CF20E240E860E180E00E943B1BF8
:1046C000CE0101963C01F30181903F01882009F45D
:1046D0006ECFB801882D0E94C11AFEE284E08F12CD
:1046E0008EE090E00396080F191FEDCF9093B90567
:1046F0008093B80580E003DF64E670E080E090E03E
:104700000C94DB120895A4E0B0E0E9E8F3E20C9425
:10471000CF398091C70581113FC08091C2058111B9
:104720003BC010914E021F3F09F468C080914F02B8
:10473000811105C080910C02813009F45FC00091A5
:10474000EE0168E370E08AE590E00E94911B0111A0
:1047500027C01A3020F460E282E197E033D8812F3D
:10476000ACDC6CE782E197E02DD828E04CE060E11A
:1047700082E70E943B1B0E94471581110DC080916A
:10478000E30683FF09C060E170E082E790E00E94E9
:10479000911B8EE690E06BD82496E4E00C94EB3904
:1047A00080914F02843061F0E3E8F0E080E0949182
:1047B000911770F58F5F31968F30C9F7ECE32FC0FA
:1047C00090E080E0FC01E758FF4FE491E11728F406
:1047D00001968A309105B1F7F1CF843030F48B58CF
:1047E0009F4FFC018491E0E01BC0E0E08430B9F011
:1047F000EAE08E9FE02D1124E85211C068E370E0DA
:104800008AE590E00E94911B81E790E030D8ADCF1F
:10481000893048F3EAE08E9FE02D1124EA5589E0C3
:1048200093E5998390E3980F893008F099E39A8390
:10483000893018F08BE2E11101C080E28B831C8289
:10484000CE01019668DD91CFEF920F931F93CF9326
:10485000DF9300D01F92CDB7DEB78091C7058111DD
:1048600023C080919D05811128C06091090170E0ED
:1048700080E2E82E00E020E042E0CE0101960E94B6
:1048800068151091EA0570E060E082E790E00E9410
:10489000A11B81E0113009F080E080931A07CE015E
:1048A000019639DD10921A070F900F900F90DF914B
:1048B000CF911F910F91EF90089580E289838DE44D
:1048C0008A831B82DECF90919D05911116C02091A5
:1048D0000901482F880F550B240F352F311D37FD47
:1048E00006C02034310514F02FE330E0922F90936E
:1048F00009010E943917A8CF089510929D05F9CF9C
:10490000CF93C82F80919D05882341F0C3FD10C02F
:10491000C13011F4663061F481E009C08C2F8370DE
:10492000833031F4CB3021F08FEF6630A9F3CBDF49
:104930008C2FCF9108958091C705811111C080916E
:10494000EA05813069F090910E0780919D059923C9
:1049500041F0811108C090939D050E942C1774CFDF
:1049600008958823E1F30E942C1710929D05F7CF3C
:10497000CF938091EA05E0914804843059F482E1B4
:10498000E802D0011124A05BBD4FC1E018968C91C4
:10499000833009F4C0E082E1E89FF0011124E05B7C
:1049A000FD4F84E0A5EEB5E001900D928A95E1F708
:1049B0001092E90570E060E090E080E00E94A11BA9
:1049C000C0931A0785EE95E0A6DC10921A07CF91E6
:1049D0000895CF93DF938091EA05843061F4E091EC
:1049E000480422E1E202F0011124E05BFD4FD1E036
:1049F0008085833009F0D0E0C0914F0267E070E01D
:104A000090E080E00E94A11BD0931A0724E0C29F8F
:104A1000C001112481549B4F7EDC10921A079BD851
:104A20008091C705811101C0A3DFDF91CF91089567
:104A3000CF93C82F68DE8C2F62DDCBDF0E94151D5F
:104A40000E94661C81E08FDBFFDECF910895B0E00D
:104A5000A0E0EDE2F5E20C94C739B82EE0914804ED
:104A600022E1E202F0011124E05BFD4F1085992460
:104A70009394133009F0912C80914F0288248394F1
:104A8000843009F0812C8091BC05882351F050E0DE
:104A900040E061E070E48FE296E00E94041710921B
:104AA000BC05891411F03B9A439A0E9454148FEF6D
:104AB00080934E0290912002133009F491E080918E
:104AC000DC06837C8093DC062091C706203409F441
:104AD00002C1903C08F090E09093DF068091CC06F4
:104AE0009091CD060E944716C09148040C2E000CF0
:104AF000DD0B133009F0F7C084E080934F02109271
:104B0000BD0582E18C9FF0018D9FF00D1124E05BCB
:104B1000FD4FA5850A2E000CBB0BAB5FBE4F2C9141
:104B2000022E000C330B81859285468157810481CA
:104B300015811093C9060093C8065093CB06409385
:104B4000CA063093CF062093CE068017910720F037
:104B50004817590708F08C010E94AE1690910F0774
:104B60002091D2063091D40680910C074091D30653
:104B700040FB87F930FB86F98F7D20FB84F9807F2D
:104B800080930C0790930D0780E28093C706809175
:104B9000DC06807C83608093DC061092DF0681E077
:104BA0008093E0060E945D1780910E070E942C17EB
:104BB000109210078091BB060E94B31182E190E031
:104BC0000E94B11190E080E00E94B1118FEF90E05F
:104BD0000E94B11190E080E00E94B11190E080E06D
:104BE0000E94B11190E080E00E94B1110E94D215A4
:104BF0008BE097E20197F1F71092D0061093CD0663
:104C00000093CC06C8010E94471622E12C9FC001E8
:104C10002D9F900D1124EC01C05BDD4F0E811F8193
:104C20004C815D8160E074E18FE296E00E940417A0
:104C3000A80161E074E18FE296E00E9404174AE067
:104C400050E062E074E18FE296E00E94041742E0D7
:104C500050E063E074E18FE296E00E94041745E0C3
:104C600050E064E074E18FE296E00E940417109235
:104C70009C05488950E062E071E18FE296E00E9475
:104C800004174091A8014F5F50E060E071E18FE2AE
:104C900096E00E9404170E9447190E94B31886D913
:104CA0008091C705811104C00E94BB1B81E0C0DE5A
:104CB0000E943917891411F03B9A43988091B805E6
:104CC0009091B9059093B7058093B605CDB7DEB73F
:104CD000ECE00C94E3398D7F8093DC061092DF06C4
:104CE0009093E006FBCE22E12C9FC0012D9F900DFA
:104CF0001124DC01A05BBD4F7D0114960D911C9128
:104D000015971696CD90DC90179780919C05882377
:104D100009F4CAC01F968C911F9786301CF084E05E
:104D20001F968C93B1100E94031E80910B079091E7
:104D3000800190FB84F980930B070E94E915809114
:104D40004F02833009F099C02091080182E18C9FC5
:104D5000F0018D9FF00D1124E05BFD4F41855285E0
:104D6000B601C8010E94AC170E94141690914F0220
:104D700080910B07933009F083C0806880930B0704
:104D80000E94E91580910B07807F80930B070E949A
:104D9000E9150E9432150E94A01880914F0294E0FC
:104DA000833079F082E18C9FF0018D9FF00D11240A
:104DB000E05BFD4FE7850E2E000CFF0BE652FB4F2C
:104DC00090819F7080910A07807F892B80930A07CA
:104DD0000E94E9150CD880910B079091760190FB09
:104DE00085F980930B070E94E9150E9432158156C0
:104DF0009A4FDC011696EC91F0E0ED5AFC4FE491ED
:104E000084EF8E0F8F3478F4E093D10684E591E03F
:104E1000E89FA001E99F500D112463E071E38FE248
:104E200096E00E940417A80160E074E38FE296E028
:104E30000E940417A60161E074E38FE296E00E94ED
:104E4000041743E050E063E074E38FE296E00E94D1
:104E500004174AE050E064E074E38FE296E00E94B9
:104E6000041780916201882309F4BBC086E693E0B1
:104E70000E9421190E94741912CF20914F0266CF0F
:104E8000F090940191E09F1990FB87F980930B07B4
:104E90000E94E9158F2D880F8F0D982F9F7080919C
:104EA0000B07807F892B71CF10924F020E94321521
:104EB0005C01D7011B96EC911B97EE0FFF0BE45F93
:104EC000FE4F808191811996ED90FC901093C90658
:104ED0000093C806D092CB06C092CA069093CF0624
:104EE0008093CE06E016F10608F479C0CE14DF04F4
:104EF00008F475C08091D0068130E1F10E94AE16B1
:104F000090910F072091D20680910C073091D30623
:104F100030FB87F98F7920FB84F9807F8160809353
:104F20000C0790930D0780E48093C7068091DC0600
:104F3000807C81608093DC061092DF0681E08093A4
:104F4000E0060E945D178091D10694EF980F9F3480
:104F500068F424E531E0829FA001839F500D112465
:104F600063E071E38FE296E00E94041780910E07E0
:104F70000E942C171092100781E08093D006F092C7
:104F8000CD06E092CC06C7010E9447168091C70665
:104F9000803499F482E18C9FF0018D9FF00D1124F3
:104FA000E05BFD4FE6850E2E000CFF0BED52FB4F34
:104FB0008081873010F40E94911642E050E061E059
:104FC00073E38FE296E00E940417C5010E94A018C7
:104FD000F501E156FA4F80810E948B1F06CF7801C0
:104FE00089CF8EE593E044CFCF9380914F028330F9
:104FF00011F18AE00E94B8140E9447158823D9F065
:10500000C091940181E08C1B90910B0780FB97F974
:1050100090930B070E94E9158C2F880F8C0F982F07
:105020009F7080910B07807F892B80930B070E94D4
:10503000E91581E00CDDCF9108958091C7058111BC
:1050400006C00E944715882311F080E0CDCF089557
:1050500088E00E94B8140E944715882361F080916F
:105060000B079091800190FB84F980930B070E94BD
:10507000E91581E0ECCC08950F931F93CF93DF9354
:10508000182FD62F0E9463140E941D15C09148044A
:105090001092B5051092B4058FEF111181E0082E22
:1050A000000C990B8C0F911DC7FD9A954C966CE1E5
:1050B00070E00E9455398C0180934804D1110E9400
:1050C00054148091B8059091B9059093A9058093E7
:1050D000A80522E12C9FF0011124E05BFD4FD08553
:1050E000209FF001219FF00D1124E05BFD4FC08552
:1050F00031E0D33009F030E021E0C33009F020E0A6
:10510000321739F080E0A3DCDF91CF911F910F912E
:1051100008950E9447160E94D61F80E00E94A11C9D
:105120008091F801882359F021E0D23009F020E085
:1051300091E0C23009F090E081E0291301C080E0E5
:10514000DED98091C705811101C012DC0E94151DB6
:105150008091B8059091B9059093B7058093B605F5
:10516000D3CFEF92FF921F93CF93DF938AEB95E01B
:105170000E943E147C01892B09F466C081E01E1454
:105180001F040CF080E08093040110914804412F2B
:10519000012E000C550B92E11902F0011124E05B85
:1051A000FD4F9085933009F055C0E5850E2E000C1B
:1051B000FF0BEB5FFE4F2081022E000C330B2E9D68
:1051C000E0012F9DD00D3E9DD00D11246091B805BA
:1051D0007091B905C60FD71F92E1949FF001959F7A
:1051E000F00D1124E05BFD4F468157814C175D07A0
:1051F000C8F144815581C417D507A0F1CE01B9018A
:105200000E944139009749F0C81BD90B1E141F0496
:1052100014F030E020E0C20FD31FD093B905C09343
:10522000B80581E08093B1050E942B136093C305FC
:105230007093C4058093C5059093C60580E05FD93F
:105240000E9463140E941D15DF91CF911F91FF9062
:10525000EF900895E385EE0FFF0BE45FFE4F208192
:105260003181ADCF60E008DF80914804082E000C4A
:10527000990B22E11202F0011124E05BFD4F308511
:10528000333059F0289FF001299FF00D1124E05B85
:10529000FD4F2085233009F0C0CF20910401222347
:1052A00059F022E1289FF001299FF00D1124E05BC5
:1052B000FD4FC481D581B1CF22E1289FF001299F04
:1052C000F00D1124E05BFD4FC681D781A6CFB0E081
:1052D000A0E0EDE6F9E20C94CB39C82FD62F83700D
:1052E000833039F58091C705811123C0CB3009F196
:1052F0000E942B136B017C018091FB049091FC04B4
:105300000BEF14E0D83031F08091F9049091FA0459
:1053100009EF14E09601281B390B203F310548F0B6
:1053200081E0D83009F080E061E0A6DEF801D182AA
:10533000C0828C2FCDB7DEB7E8E00C94E7398091BE
:10534000C70581113BC08091C205811137C0809192
:105350004F02813051F180914F02823031F18091C2
:105360004F02833059F520914F02233039F5809157
:105370000801281B20930801E09148044091B805DA
:105380005091B90582E1E802F0011124E05BFD4F84
:1053900066817781848195810E94AC170E94F71EF7
:1053A00081E0ADD80C94AB1D089580914F028130FF
:1053B00031F081E080934F0280E049CB089582E094
:1053C000F9CF8091C705811144C08091AC0584312B
:1053D00068F540914F022091B8053091B905E7E397
:1053E000F5E090E0891759F0608171812617370741
:1053F00019F452814517D1F09F5F3596F3CF909104
:105400004F024091B4055091B50565E0869FF001CB
:105410001124E95CFA4F31832083928354834383C0
:105420008F5F8093AC0581E08093FD0468E170E0BC
:105430008DE290E00E94911B88E690E00E94371C6C
:1054400064EF71E080E090E00E94DB1281E0F0CA3E
:1054500008950895833021F490914F029330B9F06C
:105460009091C705911113C09091EA05891301C06D
:1054700080E08093EA058091EA05882349F00E9444
:105480002A14E2D90E94151D0E94661CA2CA089522
:105490001092C8051092C9051092CA051092CB054A
:1054A000F0CF1F93CF93DF93CAE4D4E06A817B816E
:1054B000888199810E947413182F882379F0809134
:1054C0004904811114C08091EB05882381F00E946A
:1054D000F91F888199818C5E954059F4299684E062
:1054E000CB39D80719F7DF91CF911F9108950E940A
:1054F0002A14113039F01B3089F7EE81FF81309783
:1055000029F4ECCFEC81FD81309711F00995E6CFBD
:105510008885882319F39EDFE1CF8091EA058823EF
:1055200081F01092EA051092C8051092C9051092F8
:10553000CA051092CB0588D90E94151D0E94661CD1
:1055400048CA0895B0E0A0E0E8EAFAE20C94CB394A
:1055500020914804C2E13C2F2303F0011124E05BB9
:10556000FD4F8085833009F4ACC08091C70581115F
:10557000A8C0D3DF00914804002E000C110B20912D
:105580004F02C09FC001C19F900D1124805B9D4FB1
:10559000FC01211186C0C685D0914F020E9447159B
:1055A000882309F44FC02091B8053091B905A8EEC1
:1055B000B3E00E94AC39C090B405D090B5050D2C75
:1055C000000CEE08FF086C0D7D1D8E1D9F1D28EE42
:1055D00033E040E050E00E948A3997FF08C06851EC
:1055E0007C4F8F4F9F4F2150310941095109E2E112
:1055F000E09FD001E19FB00D1124A05BBD4F149638
:10560000ED91FC9115976F01F12CE12C2C153D05C6
:105610004E055F055CF01696ED91FC916F01F12C43
:10562000E12CC216D306E406F50624F49F0160E0DF
:1056300070E0CB013093B9052093B8057093B505A0
:105640006093B405D150D23058F4000F111FF80107
:10565000E250FB4F8091B4059091B5059183808312
:105660000E9463140E941D1580914F02833011F433
:105670003B9A439A00914804002E000C110B809134
:105680004F02833080F4813090F180914F028093FB
:10569000030183E080934F021092B5051092B40588
:1056A00004C0C78579CF833089F080E0D0D980915C
:1056B0009C05811106C080914F02811102C03B9A66
:1056C0004398CDB7DEB7E8E00C94E73910924F026B
:1056D00010929C0582E1809FF001819FF00D1124C2
:1056E000E05BFD4FC7300CF0C6E0C687DECF80918F
:1056F000030180934F020E94031E82E1809FF0010C
:10570000819FF00D1124E05BFD4FC6300CF0C5E029
:10571000C787000F111FF801E250FB4F8081918174
:105720009093B5058093B405C0CFA5E0B0E0EBE958
:10573000FBE20C94D13942E1849FF0011124E05B3B
:10574000FD4F218532853A83298393859F70268575
:1057500040E1240290011124922B9B8394859F7039
:10576000278540E1240290011124922B9C8395858A
:105770009F70208940E1240290011124922B9D8387
:1057800095E0899FB0011124665E7F4F45E050E0AF
:10579000CE0101960E9414392596E2E00C94ED3971
:1057A0000F931F93CF93DF938091AA0581111CC0A3
:1057B0006091AC0582E791E00E942339C0E005E0EA
:1057C00011E0D5E08091AC05C81770F4CD9FC00101
:1057D000112445E050E0B801895C9A4F0E941439C9
:1057E0000B5F1F4FCF5FEECFDF91CF911F910F91D6
:1057F00008958091FD04882319F0D2DF1092FD04F2
:105800001092C2051092C8051092C9051092CA05DF
:105810001092CB050E94BB1B80E00AC908958091BD
:10582000C70581111AC08091C205882311F0E1CF0C
:10583000089581E08093C2051092AB050E942A145E
:105840000E947E208091AB059BEA899F812D1124C7
:10585000869580930A010C949E210895B0E0A0E003
:10586000E4E3FCE20C94CC396CE774E189ED95E05B
:105870000E947413813009F089C00E942A1480911B
:10588000AC05882309F47EC0E091480422E1E202DD
:10589000F0011124E05BFD4FD084D0919C05009174
:1058A000AB053B9A439AE02EF12C35E0039F800133
:1058B0001124095C1A4FF801828180934F020E94E3
:1058C0004715C82F80939C0581E0F80192819430A0
:1058D00009F080E0E0E5F2E010E095E09E9DD00167
:1058E0009F9DB00D1124A95CBA4F91E02085233013
:1058F00009F090E089130DC02D913C9111974481DE
:1059000055812417350728F04681578142175307E0
:1059100030F41F5F72961C3141F71091480480915A
:105920004804082E000C990B1817190621F00E9444
:10593000631410934804E091480422E1E202F0016C
:105940001124E05BFD4F85E08E9DD0018F9DB00D51
:105950001124A95CBA4F8D919C91119792878187F0
:1059600013968D919C919093B5058093B405808595
:10597000D8120AC0CC2311F0C1E0CD278C2F67D8F4
:105980003B9A439836DF50C0C1E0F8CF6CE774E132
:1059900083EE95E00E947413813009F04AC00E94A2
:1059A0002A148091AC05882391F15091AB05952F75
:1059B000E82FE150FF0BBF0145E0292F30E026170B
:1059C0003707BCF4429FD001439FB00D1124A95C5E
:1059D000BA4F2F5F3F4F429FF001439FF00D1124BC
:1059E000E95CFA4F242F01900D922A95E1F79F5F11
:1059F000E4CF9FEF980F9093AC05992329F05917A6
:105A000018F082508093AB0581E08093FD040E94E2
:105A10007E208091AB059BEA899F812D112486957C
:105A200080930A010E949E21CDB7DEB7E7E00C9477
:105A3000E8396CE774E187ED95E00E9474138130DA
:105A400099F70E942A149ECFA6E0B0E0EAE2FDE2B8
:105A50000C94CD399091AA05992331F01092CE057E
:105A60002696E6E00C94E939182F0E946314111170
:105A70000BC02091B8053091B9058091A80590918F
:105A8000A9052817390751F36BEE90E080E00E94DA
:105A9000233963E481E090E00E94233980919D05E1
:105AA000811102C080910E078983809148048A8306
:105AB00080914F028B838091B4059091B5059D83B1
:105AC0008C83809108018E8346E050E06AE070E0AC
:105AD000CE0101960E9414398091AA05811139C026
