:020000040000FA
:100000000C94A5120C948B370C948B370C94CD1256
:100010000C94CD120C94CD120C94CD120C94CD12E4
:100020000C94CD120C94CD120C94CD120C94CD12D4
:100030000C94CD120C94CD120C94CD120C94CD12C4
:100040000C9441370C94CD120C94CD120C94CD121B
:100050000C94CD120C94CD120C94CD120C94CD12A4
:100060000C94CD120C94CD12534156454400001807
:10007000314B6683A0BEDDFE525300202000534D5D
:10008000002020200031206B487A200035206B486A
:100090007A200039206B487A20003130206B487A72
:1000A000003530206B487A003130306B487A0031AF
:1000B000204D487A2000313020487A200032352007
:1000C000487A2000353020487A20003130302048EE
:1000D0007A0035303020487A0031206B487A200091
:1000E00035206B487A200039206B487A2000313067
:1000F000206B487A00535445503A200050586068AD
:100100007008182030384048000810283840302E39
:1001100035206B487A00312E30206B487A00312E22
:1001200032206B487A00312E38206B487A00322E0C
:1001300030206B487A00322E32206B487A00322E03
:1001400035206B487A00332E30206B487A00342EED
:1001500030206B487A00362E30206B487A002041E0
:1001600055544F202000313130206B487A0038340C
:10017000206B487A20003630206B487A20003430DB
:10018000206B487A20000000000000000000000002
:10019000000100000007000201000002010000034E
:1001A0000001000201000000000201000011000532
:1001B00000000001000F0001000900000002010022
:1001C00000020141555400204F4E004F464600208A
:1001D000353000203735006B487A004D487A0052A0
:1001E000535300534E52003130300035302500312A
:1001F000306D0031356D0033306D0036306D00529A
:100200004F5700434F4C0052535300535054005229
:100210002B4200532B42002041320020413100206C
:10022000202020202053455454494E47532020205D
:1002300020000431F7210531F52D000000000C10DD
:1002400014181C20252B32373C67020205050502D5
:10025000050202020302020302660806056A670736
:100260006A060606060408040205020202050708DB
:100270000708030607070802030403070304037FB4
:10028000727577797B7E80838587898B8D8F91933B
:1002900050678994F4646792ADB0B3D8E1E6E9EBB6
:1002A000EEF1F4F6FAFD0F262C313335383B3F42A0
:1002B00044484A4D4F00187F3101187F1E04187FB3
:1002C0001B05187F0E081800140918003C0013FFC6
:1002D00000011304000413BC7F0513BC7F00000061
:1002E00000001A1800011A0F00021A204E031A14F7
:1002F00000041A1400051A3C00061A000000000051
:1003000000001A7F00011A7F00021A204E031A14FF
:1003100000041A1400051A3C00061A5500000000DB
:100320000000191000011918000219400003192CCF
:10033000010419AA000818140009183C000A18A0A2
:100340000F0B18280000000000031402000414051D
:1003500000000000000334030004340A0000000021
:100360000000020400030001100302000003020168
:100370000006000400060500200605040000390000
:10038000000000000000390C00013937000239403C
:100390000003392C010439AC000000000044454C36
:1003A0003A4257204641564F524954455300454D15
:1003B000505459204C49535400414D20004C534255
:1003C000005553420043572000464D2000010407CA
:1003D0000A0D101316191C1F2225282B2E3101136C
:1003E00016191C1F2225282B2E31010203040A1086
:1003F000161C222C36404A545E5F600102080E181B
:10040000222C36404A4C4DAED5808D142001A1C817
:10041000817FDB40A6AFDA12A83F01010101014D47
:100420004F445F4E4F5F5244532067697468756252
:100430002E636F6D2F646971657A69742F617473AF
:1004400032305F6174735F657800415453204558C2
:10045000004154532D32302B2056372E312E35008B
:100460004D454D205245534554004D454D2057456F
:100470004152001901001209041504000F1F101049
:100480000F00043F00023C001303000000580284E8
:10049000030807100E4154540000001025AB15410D
:1004A0005643000A01D919A71553514C000001B752
:1004B0001BAB15534D41000001A519A715534D5411
:1004C0000000019219A715414E420000024D1BA7E2
:1004D0001542464F000001C21AA71553534D0001A3
:1004E000022A192517535643000102D52C2517431C
:1004F0004F460000034D19251753594E000002BB0B
:100500002C2517435750000701B51AA7154445205D
:10051000000002751AA015464D500001027B1BA079
:1005200015464D4F0000023D1AA0154653410016D6
:10053000015C1AA0154653540000014B1AA0155334
:1005400057410000019F1BA715534352000401E7C8
:1005500023AB15535054000002BD22AB1553575521
:100560000000027117A715444953000002A916ABF9
:10057000155253490001026E17A7154E415600004F
:10058000026B17AB15434150000002FD17AB15433A
:1005900050550000026517AB154241500000026241
:1005A00017AB1553434E0001025F17AB154656417A
:1005B0000000018619AB1553574C0000025517ABCC
:1005C0001500020401030506080A07090B0C0E10AA
:1005D0000D0F11121416131517181A1C191B1D00D4
:1005E00003010402050609070A080B0C0F0D100E83
:1005F00011121513161417181B191C1A1D000000D0
:1006000000250028002B0004040404040404040250
:10061000020202020203030303030301020408109F
:10062000204080010204081020010204081020006C
:1006300000000800020100000304070000000000A1
:100640000000000003740BD484606FAE6CF9BB84AF
:10065000A265B14BF672011A21E85AD8D604735E2E
:100660002C226EC4E9B58B819A1EE487C99E7B1744
:10067000526DADE3E58B04A72E996A32AA9997CC07
:10068000A65B157956480163B1DF54270657065318
:100690008CA627AA66890318517EFB67D3CEDD3F5F
:1006A000FD3D1F478401F3856EF83B792B0C904B81
:1006B00067467D5488FDD612E5E748F20EDB994D7A
:1006C00071A54068D9C95939E475201CE9B1F50113
:1006D0003C19BB60F7FA6B1E689F19B6ED140F56F4
:1006E000BCC134CB009D43D40FF3629C9DF78B9D1E
:1006F000533A8D2F3DDE3D3831039BC7C159E9D1B7
:1007000075888D365886704E5B9ED0DBCBF7EA1F1E
:10071000DBA53BB3BD6BBCF37065D5170F64152427
:1007200020D5B87B0D272985881F5822574F09C02F
:100730004DD6E4C6B53A373327BB6A1469031BEDBF
:10074000A8C343E8EADE410625C5C83CBF32B2A7CC
:10075000DD22C2E9CA84F2C0267C7801F7D5C6053D
:1007600033E4C278EC1BFDD2507D11295799B0F1CA
:10077000556674B45823A06F2ED89B08B33E53CF50
:100780005ECC7ADF4EED42166A9188431B1D845C75
:1007900052216658243671C56A0D2C869A239DE035
:1007A0003543C97F41BD8299ED7A26B2D3A6CE4F9B
:1007B00000E687E3D7682886F7CED2B3D31B0402BE
:1007C000B978B3ADE03C53A68A4A22BE1FCEB176BB
:1007D000F22F81A8C17872B0156519E332A74D0CCC
:1007E000D300B9C327BE744DD1E10C36DD23FBA77E
:1007F00022D344CAB3081BB40D4BDF1AA690329221
:100800005C1AA7CD852E351172F821357D3FDB2985
:100810008D30B34F451477CF992FA39081B0AEE8B8
:1008200045E63AA9A262B7DBBE2539A5FCEAC5BCFC
:100830003AEC90AEA6FB12AAC76222AFA984B964B3
:10084000B8FB8DC11CC3D0876D5CB4FE3FA4B8D883
:1008500089F40159BB04A543441ACB4130F75B9A94
:10086000EE28F44C7199CA4B7F2A13F04B54B3FC19
:1008700090EDBE483FF15E0DA1BB1E591615F04B21
:10088000504C96861BA9CCC2694E1003F0E953E583
:10089000E2BB45E28DAE407108864D08F496905853
:1008A0005340A58B5B3CAD47B5D7E26A1378D4DCE7
:1008B000C9EC0E93F0C01D953676A45385C9ACE4FF
:1008C000718DAF6861209DFF45356E04D82732C316
:1008D000DAEEA26604B72106527F398FFDEE9074DE
:1008E000B64FB6240E1248F0B230F2A54C9152E346
:1008F000C6487B3896239ED71B95153AC98B6F63E4
:100900007D1DC9EA96E601D785C0EA3DCAD3B7FB8B
:1009100007543A00313D74E4125BA238335BBF1DCB
:10092000DC4EE8851077ABEA6579B0AA3061C6F68F
:100930003BCC95FC837F8C7BB55205EBF721DE89A0
:10094000B66DEE317713AA935596086E1C82B57E6C
:1009500095B994DD68425C3A00C37B6F606A2C07EE
:10096000D76C82FBB2812569D6720AD2E85005881D
:10097000491B6372996CE37AAEB01B9ED425542553
:100980008A901797DF39B87CEAF082DD25D2ADE78F
:10099000F6362384A9C96A53F4822C1DEA06C64F91
:1009A000705437802A6B63DBCC86E68C7F278C7291
:1009B00054739E1BD64CFA058280D7B711980698BF
:1009C00069151CFC868774845BD40FDBD727C54A66
:1009D000B28F297A4A230AB807D03470818E53EF38
:1009E00043163FA8A79E5A77C091B789155248C0B1
:1009F000B762ABE1746410AA096B9774217935A1D1
:100A00009725FC78C1EC6E877740871A74828156EF
:100A1000DDEC37ADAF0331AC478574C02A459DF49A
:100A2000120CF986B04A16D8116C46C44A67988BE6
:100A30001B42C2BEBB0E4884F708A6C38F8E8DAB87
:100A4000C29B5D5C6028578F0EAD2EC15E95299AC2
:100A5000F48A27D441BB4AAC5DB29326FD87813F1F
:100A60002735A6422C1538ADF8026F94DA08EE1936
:100A7000D890FA89C3AD89FEC60246811D0C8D78D7
:100A80002FEED3ED6C7B95495687F4E263DA39CECD
:100A9000681618ED98EE86F3B3C1121A519B571DD4
:100AA000199E987ED2FD3D2B5915467457791481B5
:100AB0007189D922DD9210D98991DF67006E53AF19
:100AC000DAB528301E47E6B7052D22CF7F6ACD88DC
:100AD000906B8C16368807A1B7AFF331C4DB768BE9
:100AE000969EF017A73F847891A8CD3F8FA5DD5241
:100AF00014F9395D0B568E1C5A5B89EE809E33BD0E
:100B0000B145154234597820FC2DDBC92E0F35260E
:100B1000CF239B3E1D9F0F260EB7B54EACA286D5A8
:100B2000DA36045A73466A88C52AA083E88B5F3C8C
:100B3000AF6A444E759B8F93373538BD029A1D843A
:100B400029642597E07C2AB6CBC166513CBC3BF3B7
:100B5000552BB7BD81ECF349D5F803E0BDC60CEECB
:100B6000C01908FB4F8C94080EA53037F0B81893C5
:100B70007300BB5252B4980D4B45B9890A34E91C35
:100B8000245A8FA89DC2D927A9EEBFC08090BC2A45
:100B90009343FB0AB396D1AE13410168B92C53536A
:100BA0007C00A58441D6988898FEDEF7E237436240
:100BB0000E9383EE030A8DCA8759366F61F7F4D618
:100BC000AB8B0F9C8396A46C4643806BEA50DCD8B9
:100BD000CED4F4AE5BC6014385718D0C395EE43B27
:100BE0002BC488B2C554960E879A5093D69C91CA4E
:100BF00009648B23C429441A67E1DAC71B2517024D
:100C00002C8F2A133ACFD665312B10F5B596DF011C
:100C1000997BADD6B4C035A348E3B09EFE33101A1D
:100C200009AE3C0AA1728F0051E17823F5E2BFA61C
:100C30004628B34B24B1A1DEB1C4486FED5AD4614C
:100C4000F0DBE1085C64C0CAE9A9DEDEECC0685BE9
:100C50006DBD43828CCA69B1A9C8710D5D6DA5AB2C
:100C60001A6794EE0593E33FE81AE60F7F79F2CB1B
:100C7000C53757DFFC4FB460C7973C61B00C466482
:100C8000F44392D2A5F0F3B7DFAB20B1F5302AB32D
:100C9000DC4B39B7853E1E1B948C26288045D60137
:100CA00036D0EC934688D3D5895D7A82213EC24006
:100CB000E3B4DEF5A569D569495C89CDAE137070E2
:100CC000ED690CECC6FE75EB4ED6B3C860FB341E66
:100CD000F86492D929A813383D79C4BF21379DE320
:100CE0004F21E53F2C5C5F41FF148791E082040BAC
:100CF0001E5553DC5640A43578E29B49222E09CD7F
:100D00001F6F9483EEEA8BC4C210E080D9A55F53B5
:100D1000349C8CEA95648794D6321CEB93BFE355E0
:100D200083C2F6FCC885B2945C425F6B8E3B9779B8
:100D3000747EE35CC2631A22B17F94CBE7B7FF0EE7
:100D40003795AF105317881272DDCBAB4B6B68240D
:100D5000ACC95C72094FF1FB1DE7A230E9204BDA08
:100D6000707C9EE234EB6A35C233D79D07B1EFF653
:100D700075F5FDADC74BD0B7DDAE1E8D1EC0399CDD
:100D8000A71CC5CC3950C66BC6DA37C7E120EB7457
:100D9000A53DC008FAC2DFF29E432BF07750498C84
:100DA000C32F68F32A9B831ADC05D8B77C3C6111FA
:100DB00076EC2DFE86088715A3C01CB46A8D9EBFF5
:100DC0009AD5C85B05181015FBC63CEEC5524B31D1
:100DD0003607B94C81EA83D782FEFC43594E20BDC9
:100DE000D365CF1F5C711FBF26EC44EB0174823CBE
:100DF0008E60DF479031177E16C0EC1EC33A7A59D9
:100E000021A29B8E8725D3FE85DD6DE6D8CA74BAF4
:100E1000DB4230963D8622866FDE371A932F032EF3
:100E2000E16E1662C1E12DFECBA8DF6405EF23BCA5
:100E300071617B1B602227BDC6A37207AA09B0524D
:100E4000F219154DBEAF263B4D62A63C41077A34E0
:100E5000253CD6CDB65547871ECBCFCED20D95C0FB
:100E6000D872A6E0332426517E71C7533FD46773EE
:100E700052CB785A001115715F8D3CCF40CDD9749B
:100E800030D9A13FC658BCBE7818319A3960BB8DA5
:100E90007B3495A5F1543BB98599AFC445EB64A764
:100EA0006E5960EB1E7AFBFD924323F127AC66126C
:100EB00066288A5CF6C63F7604E80927ED05AA266F
:100EC000E5B4AD40BAF7F484CB7F07108DB6C7D434
:100ED00077EABA962A98F056D7FF504D59793D4196
:100EE000E0FAA99D3EA6D979C80DD156C5ADD7FB6C
:100EF000703CBDF3E95D1C5393331DF81BEE9FB7A7
:100F000050AC8F485961C9859EC8B0D27439DF335F
:100F1000F528E06311A7C405BD3AD934CAF9AAE29D
:100F200000E6E638573EEC197C0D2745C552C4FF54
:100F3000F469C5F573734FE307C7CF38235B9C99FA
:100F4000A26A72B03539C10AC71C1A3060181D2B4D
:100F5000F0C8F179A394E3363593690591071260DF
:100F600044FDB6C6FFE0CFA2CFC2A358AC32E32EF9
:100F7000EC0D9D1BFB0540BA678ECB38D7609CFEFD
:100F80009EA170CC40728C8C507185DD84925CEE99
:100F900044B6E0801532DD1B4B8C6E8E3997A5AFC1
:100FA000C6F42985D3859385C854E4591D4EA0FE07
:100FB000C507C1F73252F94D4585FCA0FA37B59DFA
:100FC00047E852238D928743B4B84F951B1E4FE5D7
:100FD00045BFCEC80CB27DE7D92E88B72A61E12D76
:100FE000C4212EB84DFD2187302511EC1F299431E5
:100FF000D292853817DA634D8CB4065564B76CFC11
:10100000C28D5D978609D34369E83577CCAF9136B9
:101010003C7CA36E4E4AA2C94150EAABDF87047004
:101020004F16F5A038F56016CD0CE5C7E3AD0012FC
:101030006B12853C5C7F76ED49F29D8FDFABE1DD85
:101040008701ED2C1B4B55117FC392D391C1D8A7BB
:1010500037C7E55B482BED31DECEFB9508E35184C5
:10106000000B4D2673118B1EE2040473E072FFE641
:1010700059C90448BFABF399877C0704FB33B163BC
:10108000616112AD08AA30AC174D3086BF6713F10D
:10109000A7041B48422384BB7FB408A69F43785C07
:1010A000A14E8BA6E67C4901F7315D2730010B5735
:1010B0000B79F7024433BBB45BC701ABE301C2D287
:1010C000017A079EAD8402F1EEF7D82950012C3544
:1010D000543ACC01C93D666A9805247AF71C24402D
:1010E000EBA24DC266C8372C030FF301066D9A427E
:1010F000F0948FEDBFE3283B72693775B4A09A6E08
:1011000031FD665BCBF3BA8CA431FFBA7C2454D397
:10111000C6638993E4EDDA58474EB58FD793FDAF98
:1011200031EAB4ECC9057D2B1596C1007E80E6F747
:1011300047CD6A77F10E5913AA5C838870DCC452DC
:101140005220B6692D6C6C8B662ACD5A4130D6FB85
:101150007BA0EC7A22887C716EAF6206F4A8C68808
:10116000857636C5C0D867967CE84DD4FBA96F0F4D
:10117000B2A7A3196A30FD6FFC2BCEA41B8E574873
:1011800051C6980FE5087B4DFC59DDCF131B310C80
:101190005E3B98E1F4C341D7A2645E16F9EBAE2042
:1011A000E95D54BD99D3A7C1D9E53222D69F4FDD61
:1011B0006B3C6DE94D965211DA2386BE01C451C2D3
:1011C0009CC6F52F1FD0F1F55782FECBFB4ADF1DE1
:1011D0000046B8A73A566608714E47F827265F6C56
:1011E000D8C305990A758F4FC18872A05A1308A3F6
:1011F00082842ECEB5A34605D66A7856442386F25D
:10120000C963088BBDEE56D4361F375318E7DA1C76
:10121000FAD005D55FE7B7AD362BCB06C053F43215
:10122000A8756FE3C9A1B0A6E6C2410F5D2E0A649E
:10123000504692495B2D002EB5213F0B4A7196888E
:10124000844C98AA2823EBEF455C6278D6E4FB6DCA
:10125000C3D9356CB92AC67471C40C657CA3F96E08
:101260002DB986B0046394CF267D9E1EF799DAE0EF
:101270008CDD86F3C8F1C64E155DED34BB90CDD63E
:1012800026091EF6238451C1AE428F8496C957AEFB
:1012900016363A298765B2BA5696D2F509EF304A22
:1012A0000F6236FE0030BD091B50C33C48D725E114
:1012B0008EB26F4D752DADC61EBAFA4F41AF7A6F23
:1012C000A0A04FB68834698A9E837A60F3A87E39DD
:1012D0002A209C325E7DC4AA97E6263542A1A0EF63
:1012E00039B31C2763D27F75C01EB4FA4D7A818151
:1012F00039E0792F94A5283A437E97B594AF2A1008
:10130000380A7F4991C06C659AC6C95DD552469826
:1013100074AC93E421B0EB08FAF4412EA6F9C5EDC4
:10132000E33798C5DF528241A2F2561AF3A4C640B1
:101330008DB95FAA751E151E68782B2BF43EC7CB9E
:10134000F31360E0F48579880C227587B751E0D6F5
:10135000E3A092D3D7E36C5B3EB780E748D6D92FA2
:1013600049CC75A004C94888E9CC3241AF30DEC60B
:10137000BC9DF7FCFF69035058A1D6B87B5E60FCAA
:10138000CC0014AF3A3041B34E634795E4BD53747B
:10139000D0F002B4FE48196C3F23F79B4411F2C20F
:1013A00045A637776C10630E1BA7D196CA0D4F5B0D
:1013B0004351D614B723E799A49F4C7DD7DD08117C
:1013C000844D5CE96090048B1490F06F26450F20EB
:1013D0008CE36F4678EB12B45EF0DEEB2227627886
:1013E0004293BCE848C088BD0FDE232BD1880AE2B7
:1013F000B4338E6136435842AE6BD7F2FE0AC12633
:10140000947ACE8C3B435A62EF708AFE4DD237DB22
:10141000A1B1061B30174CA0241EBECB64E2CE1334
:101420005CD705A6763938F3852C160EB3E23DFF5E
:1014300079880B93EFAD55CDB4EF8FB8167A05C010
:101440005E920F4F9858D422AD4325317852C69AF8
:10145000CA5EA64E79979ABBDF6DF1E2D0B3CA2A75
:101460005C46825C1EDDD0C519892B2CBDC084D999
:10147000333967E4E47926B69D1C1DE470A5A761A5
:1014800089254A57337D0DCAF3CC22AAD7D9CBE69A
:10149000B29646159568D80FDF6B36DA198216CEEC
:1014A000384ECFF236C880075388042FB214195D26
:1014B000C56CEF959C608B6AE4FC9DB29CED1D9C15
:1014C0001BCAA326DD9C635B3B882BBA2235240113
:1014D00048EEA04F6E964E2991AAAF5647BD7BDDD0
:1014E000A15599D8B5A147937BCD7BCF65DE501828
:1014F000F20549F199D894213F7D52C6B1B4E19FDC
:10150000F07E60648B30E4AD2C97FB47F709010453
:101510007BF4F7A7A804A57F0858796D26276AD021
:10152000D9AFC1C71223E1AE98A40FBC1BFA9D919D
:101530000B1515A524531A13E0C30095389C364C9F
:10154000CFF6A9BCC1530604F46FBF57E0A614A69A
:1015500049707F392A4A5A593633B90D47253937E8
:1015600004777C45AC19932549E07A7BA2C6957631
:101570008D3C79B1A7C38363032347D7ACFB8416A3
:101580006F22490B97AAD538575E2BBBA749EDD2DE
:10159000D57A96BE8DF5F94656F52FA7A87AFF3F66
:1015A000E7E88CF148E846CB4D25F935932FCE8BF3
:1015B000B8A9C5D3D22771866F72D9CA4E90D36DA0
:1015C000B13CD3CBC9303A26459D66445C5FD8E335
:1015D000907C1BD882DDD384D4C61B58BF02A53BA8
:1015E000100A3EE309940B99882B47A79089C448B9
:1015F0002536DB7231ACF5A30115D0E62161EB593C
:1016000072DC9498F7B0F9FAC10A7EDC69CE905E7C
:1016100082110B97E29955A23DFAEB88BC4DC2545A
:101620008D5FDEA3E248132046C5A08104C42B9A37
:101630008415B89E9B62A1EC7D083CAD214B89FCD2
:10164000C6967C3A41358A13BD1B43BF367A4ECECF
:10165000709E2AF63933C7334B347D2A81FA252E02
:10166000C5C4A1280ED54D15E069127119AAFF59FC
:1016700048815653C935124D84699136D8ADF75417
:10168000D58CF9C684126222F1B92B1DA57C567A3D
:101690004D5AC4F09D8F5DB59A7FE7B7A85D6D3751
:1016A000E4F2EA7A73F8FC6717F3D960090E8B0F3E
:1016B000E2F98361DF5369D0EE4251B5514864F8D5
:1016C000DD3EEEA747F07C4BBB2B8EE28B60576371
:1016D0004B9BAA6763EAA3D57C4341A95474D28685
:1016E000C3114269C5093E8F94AFC599BBBBAC61BC
:1016F000646101F2D359B1415091166CCC9BEC5C02
:10170000FE3BB3EC6ED7F10E5A8A5F1DB0C576541E
:101710002607BC66F0ED519A1FE8F751588E1E80DF
:10172000991FEED643CCFA2FAE80F2A8A8AE437C28
:101730008076D41AD4737461DFBF296F561593076E
:101740005892F11DE87B68B2542030012DC5D8FDB8
:101750006150140F584C1A5400127E46990C9DD1BA
:10176000A304F18217FEFC12E57581AFFF3D08D599
:1017700039874A8EF07AD4D0D6CFA9D6594841C2FB
:1017800068E3A435458D141AC444892C63C8AF7B23
:10179000AC354327BE7ECF56403DA5AC0F97CCD489
:1017A0006ED031D7146045AEDF0AAA33B388E01C8F
:1017B00026DC00B875C86711A1B58771F94A6AECD3
:1017C0003F0E4121C24F928F1753EED5EA4F9175CC
:1017D00002590294E4DA4AB3AAA72E9CC780465E57
:1017E000BD06331DD85D9F5F77730A7D386BA70EEA
:1017F0008F4E7D01DA4474D2F17A2F7FE1ECF1A5AE
:101800007D033B2F17B6E80D333C2191915B302CC3
:1018100011C6586AE4351BB5A847B3FFD0960E48E9
:101820004E9737601204FFCBA5F51D409CDF3612A2
:101830003DD92A72DAE88BE45BCFE93852EC2CA070
:10184000F779AD2070592062739CE34609C912D420
:101850007755074B6A261E5D0778104E4ADA5EF60A
:101860003B9B8DFD48D0BBAA212EF5DF854CA71DE3
:101870001A261BA082867F4B02D2F660C9860C1DF9
:10188000BF736986184B44BC74E5821793B50A563A
:1018900008B74A73B804D214215E2CA0E0C2015FDD
:1018A000DECE642AD8652BF074E354BFA09B50BAF7
:1018B00002002C95CE2A4FCF2B2B0E9BDD8F675B22
:1018C00054A1472E842E24FA34E05A103BCFAFE2C5
:1018D000ED28D1176B9A1B496CFCCB7A74092A410D
:1018E0005AFFA1F598C60CD26983D2C369875E7E80
:1018F000BBFCC0D1C117D79BE15370B743D038258B
:101900002649405B57BA4932AA9F39AA8E7300858F
:1019100013796DF1912F9EA3A0657C7D53B4705314
:10192000016B925F38F1D73D7AD607727ADBA165F9
:10193000A50741004BEBC5D03BEB3061420D4BA3FB
:10194000D8078B12F5893D7CFB2E79A7BCD5BF72D9
:101950009AD81539AD2570D16CB05DBBF43AF660FC
:1019600056FAF2A528AE0D76B379F14BC72E6EB6B6
:10197000616222D9A730234521DE478CEBE54C8BF1
:101980004E79A09D95B305AAAFECE67473F0DC37F1
:10199000AD933B206DA1D8CFF97E9EC6BB40645667
:1019A000A6187528D2BA78645C484570358C499A77
:1019B000454A6DF29C8D480A612EE3D4EEA8294079
:1019C0004B53BB5639CE816CFD37A0791CC7941799
:1019D0006C37EA97F4D8D49F9F304FE5A408B86BD2
:1019E000AEB9BC4F612044DF92DB1E0483C0A12C42
:1019F00009D8DF21F0200480AF7391BC0EBAE4F760
:101A00009B363C30F1B4BADCFA65F22B1D184E1649
:101A100062D4AC8B21A5A2F132C3C965632D316BB1
:101A2000B88FE12493870499E6BDBA283063DAAC15
:101A3000C799378A8666B344D584AAA15342A03891
:101A40001E5DF70529E7CA2A0B6AABCEF03AF39080
:101A5000E6D125A1331C33997D24D17423FC6F7DFD
:101A6000DBA7E9C2DE17122D1CB37E880308757D43
:101A70009A4937AF60047CBCD31C53703497EBE1B8
:101A8000CD3079A28694585A99C269D7B232626C25
:101A90000A3669B1354841CE79967A0D2D33BF4D5E
:101AA0002FB8D8B3FBE47193B9180D51ABBB09D96A
:101AB0000DD7671E4728C7F7CE605828235E95FCD0
:101AC0002BDBF90D1FAB49E6D0A7377920E4CF0512
:101AD000E36421ACDFB1E8F9E04C3B5E89682A4859
:101AE000C5640EDBF1538B1A2FF60C189C529B2108
:101AF0002E4AE7D6BBB71A0A22AB4AFDD3027D2194
:101B0000FFB90E0F29ABACF4445E0FD5F357E54F88
:101B100061724EBA55378F9A1CD4B830AF0A951AF5
:101B20001386D40A835C991B2BC093F513F5EAFB4B
:101B30006F75746C2E77C344C53862B9F5AC58B470
:101B4000966EA4A545B51B7C9D219516EE295720C0
:101B500012BBF80A2325AC51FD7AE09D43B0276FF4
:101B60002ADF0408D3F11D3C128DAFF2D7B9029DD4
:101B700046E3ABFF61C8612B19C8C1A16D0AA74438
:101B8000FAB5A8D71E53156F7A4841E930B5ADE2D2
:101B9000F070406AF331DD1950E5BCB43D839FDF3E
:101BA000C8252790405B32044781FA53B40A401598
:101BB0007A745BDB24AB3AB791E344B747073990BB
:101BC000D2F5A9084658DC3210A347320445441325
:101BD00071AC2EA7C971D0F9517ECAE509A81E774C
:101BE0005B3A08AA431CD68D6091466D64569E16DA
:101BF0002ECEB399C8F655271384BC8AB3C8F51AFC
:101C000072F76A0C46952F4A86B6D29894F1C3377C
:101C10000E0C8711567EAFDA22296FEBFAEC96E0B4
:101C2000276B42A170091AAD4888DAFCE13B629546
:101C30002856702803B258678D0AEA9A1595515FA5
:101C400083070920BF37AFF70A743CA552F1E3F5CB
:101C50005830E117DE98F1387BF0AFBD1659529934
:101C60006C7470487714FF534184BCC5372F71845E
:101C70003DF5467C63E000A05607F78C6357BE54E1
:101C80005CE1FDAC35FAC2D5F25ABE7C318EBDDBCB
:101C9000FE4D036F5EA61F232DCA68F0C614CCC389
:101CA0003EF021D4402A72B67EE285D68AFB4851A6
:101CB0002777E4CBCD2FF6E1BCFEEDA1145FE53232
:101CC000FCCFD9FB2FE9AD7D2D68E79A15956A4ABF
:101CD000E4ABE4EBE00D40BDEF8FB975B439086DAE
:101CE000C09F04FFCCDE13304EB6E4E0CB69E5C6FE
:101CF0001C2F436A632572D5DFBDDC0BE9089D3DCF
:101D0000266FC389F818AC42BF4E9D5D28B02641AE
:101D100036768D8684FAD8D467581969202D35FE19
:101D200009D98CFDF921A157DF17AE8ECBC97F26CB
:101D300054DE104372DDBC18B934F9AB70F9744D40
:101D40008E6D2A331406D071E6ADAABE862E9A8D0A
:101D50008788AF039FCBF8789A663809CDAE89C2E1
:101D6000CCAF6A16140948AE9B55E40FA586A17541
:101D70007F7CEF0DCB3AB30D1F020C801FB4F4E053
:101D8000A641CC8700406143E7FCB40124CA453436
:101D9000253C39FF098C39855A5BCC273CBD28434B
:101DA0008645179A4E3524A423A2FDCA6CD4FBBAEB
:101DB000E741B3FB7C5507B56E3EB12972CC38EADA
:101DC000273080B98CB8EE54AB3EDBDD06D095EA07
:101DD0003E42886BAE89C7E84C38B693F6BE4C20BD
:101DE0004A8CCE2B22D272494618568070675AFA16
:101DF000C0CA6D5321CAE3866891D37CA9D5AD6A68
:101E000072A1FE53E94085EA62A963753A2DEC9B05
:101E1000FE58D873205210435C2DB421B9961F721E
:101E20006DBA42EAF285BE5212A7B13E2B89EF0F7E
:101E300073057C99C3C55F9653F8AF9B7A49A0445C
:101E4000546055F0103A608D905065AEF779DB2EF6
:101E500008F9BBF2D278D086B594A10EB98189B7C2
:101E6000F9C043E88F3819DAED2FA75CDB01B338EE
:101E7000CEE6C3F2D5AA879E116FD805F072ABD912
:101E8000A10FFF46E94A8C0093E9866F6B1470BE80
:101E9000B1B889C9CC7D1A11D279FBD9D724139452
:101EA0008F019C4B69336601829888F84C13310F7F
:101EB00058C1061130B48991349B89FC75CD11CA83
:101EC0001A6FFA71D645E70FEB3909B35A131FAAF7
:101ED0003A93CF8D6ECAEC2C8EC5831B5AD6D1890E
:101EE000AC024FCB0F257696E05D2CFFA7EAEA9275
:101EF000F1725BEE08D8848AA959E31277DAD6CA60
:101F00004E362D7CA413D1E818319902540AD07AA8
:101F100074A0AD2C834A6FF1B1501B6469E8842F23
:101F20002CC8EB953DA518C74B82FC88E1D37B0EEE
:101F3000BE10BA6502859B469A377A774DC2C45364
:101F400030679154F63D39444342132E0929FD5020
:101F5000A6DA94CE8697102B5C1C09CD0FFC15DCFD
:101F6000543B53E17CA7E1FD47C2AF7EEA340C6FDE
:101F7000E65C04306C84C751E3B55F349EDD050C2C
:101F80001CD4BCFBCD3AAEBC529254852CED0FFB59
:101F9000F873105DD81F06E0A15926B4393FC11966
:101FA000F9D4BE4FF433EC3F3FFE8F91D044F21290
:101FB00078909E79A927EE05CB9F5A4B15DE67399D
:101FC000181FE73A0A4198E7DEA728A0D3546633E2
:101FD00079B53A83375F25407047B8796B62963F91
:101FE00048EA9F6ECB35E16F2DC4C24B9BA74D05D0
:101FF000790E1CFE095A9F87227A131B9F994D0563
:10200000DB1573D865FE395EA4437B6C79BD739193
:102010004C9B4C941887EA68A7449F5C3666FD4148
:10202000145EB18EEB45DA770EE0EC5EF40DBF4145
:10203000C648F015D860F74076237B1CE55944501C
:1020400030CE064EC5A670C31817A237ACBF2C6F92
:10205000BC9B3F58121110390018DB7D0BD22CEEBF
:102060000AAF76947AC15C21D2619F1D7A9695DF82
:10207000A45181E61BD57C3644F060FF3AF632EC81
:102080008FE09AC7E3BCADEBA694714B6D38974CCB
:1020900036A275FFFB3FEB60E131B1BC32776CBD1E
:1020A00049934BC207BAF067FD68CAF5A4FF2A5EE0
:1020B000E2BEB569B2A063931BB4BD4612FAEE88C6
:1020C0005F46DFB2BAE8BA5447EA18FA0891779B3C
:1020D0001C878B01709EC0052BAAD7AF30A8018B3F
:1020E00028A0F59599325F08C4EF65453CC36DEFB4
:1020F000B8349D1C046686F2BC9D8797BE08DD58E7
:10210000DD530F7DEC930BB95BE3087615DFC768F1
:102110002FA8F84D338FAE0884C3E8CB9C7180099B
:10212000D7116321040EC6F0509E0AA799149A5A3B
:10213000F9AA5F06DF5C52374B390C7E18C1ABD66B
:1021400036F578BD9F790EF233610EC30B5A240227
:102150003F42353DA4ADC5305076E7E345086618EB
:1021600021EBDD1476F8F155E83B9D8B9392FFA7A8
:10217000803438C2AD7CFFBD232B0B2C5FEAC095A9
:1021800000FB8C376B8A42913EEFD65143216F8022
:102190003EBDF2B32407A5924A76513172354725E8
:1021A000E7B9D0F4C2DD52353A23C416FA2A8D9924
:1021B000D0B953C2125C3FCE8DDBD1C8D159E5886E
:1021C000FF4911ABAB7BD1F2B43749A0B1FEFE6C35
:1021D00008761D0B9AF4B16DA0F220E417A74D8587
:1021E000B38E7ACB8730AF119020A819EA2207FA74
:1021F000C14CE8FCA2038F2AC536E4AF669BBA0A3D
:10220000DD6590DAD72762D9193BABF666892DA533
:102210003070E9AAE2D9C12347FD9A254A5F896255
:1022200097614B91FC341BFC97B27B87F454FCD62E
:102230003648C28779A3C48F42B13147DDE8D00A5E
:10224000714722F3F49F287A700CBC5930E0E413F4
:102250002465BD4C0E6D9E4D15901972C928B6951A
:102260000E92F9795C64B9B97BD7DCB4B9B4967FC6
:102270007255AE1EB0028E45BDF0A590B73012402B
:10228000B6409CF16263726DF0BA1AF6F0406A478C
:10229000A2FC9BD870191AF524F64D2F64FDF7C3E4
:1022A000FDA7455D94318FD69F5D216641D439519C
:1022B000AF618C1E9F0611E97A8831E126B61C7445
:1022C00006F59835171AAB193A8CC60E7E14D06EE7
:1022D000441C666167F18E287230D2BF7D6F08178B
:1022E0009962EE7818543AD57F61AC10833E2C92F7
:1022F0004F5A985997FB8297ADC873A26C0D06CFC1
:102300000A69DAEB9EF7677FDEE8830B465A3F02E5
:10231000B3607FDCA3FF148ECFA26572CE3E11396D
:102320002D9494478EC78C706B7C498E3CD74C02A1
:10233000C877A5FDBA9A0A1A1BD94A8303DFE2754A
:102340006E28D9631F021827278F4BE7000000A9CA
:10235000020000000000442A3C5422082A1C2A08DB
:1023600008083E08080808080808006060000040E7
:10237000201008043E4141413E00427F400042613E
:102380005149462141454B311814127F10274545CC
:1023900045393C4A494930017109050336494949E3
:1023A00036064949291E003636000041221408002D
:1023B0007C1211127C7F494949363E414141227FBE
:1023C0004141221C7F494941417F090901013E41A8
:1023D0005949327F0808087F00417F410020404171
:1023E0003F017F081422417F404040407F020C02A1
:1023F0007F7F0408107F3E4141413E7F0909090665
:102400003E4151215E7F0919294626494949320139
:10241000017F01013F4040403F1F2040201F3F40BF
:1024200038403F6314081463070870080761514976
:10243000454300007F000020545454787F484444B2
:10244000383844444420384444487F38545454185D
:10245000087E0901020C5252523E7F0804047800A3
:10246000447D40002040443D007F1028440000414E
:102470007F40007C041804787C08040478384444C5
:1024800044387C14141408081414187C7C080404C0
:10249000084854545420043F4440203C4040207C91
:1024A0001C2040201C3C4030403C44281028440C58
:1024B0005050503C4464544C44808080808000FFE5
:1024C000FFFFFF01FFFFFFFF0203FF0405060708F0
:1024D000090A0B0C0D0E0F1011FFFFFF12FFFF1367
:1024E0001415161718191A1B1C1D1E1F2021222334
:1024F0002425262728292A2B2CFFFFFFFF48FF2E03
:102500002F303132333435363738393A3B3C3D3E63
:102510003F4041424344454647FF2DFFFF01000C29
:10252000010C010F000C100F00011E0C0100100F18
:102530000000010F00010F0C01011E02013F065BAC
:102540004F666D7D077F6F80073811241FBECFEF68
:10255000D8E0DEBFCDBF14E0A0E0B1E0EAE8F3E7E9
:1025600002C005900D92AC3BB107D9F727E0ACEB68
:10257000B4E001C01D92A436B207E1F712E1C5EA4A
:10258000D2E104C02197FE010E94AD39C43AD107BF
:10259000C9F70E9485380C94C3390C940000EBE70E
:1025A000F4E081E08183108284E98093BC00089587
:1025B000EBE7F4E081E08283108284E98093BC0041
:1025C0000895B0E0A0E0E7EEF2E10C947E39EC0172
:1025D000241708F020E031E0211101C030E0340F71
:1025E000FE01E30FF11D1082F0E0E0E0842F821B7A
:1025F000990B5C011EE28AE0C82ED12CE417B8F4D6
:10260000222341F0AE16BF0629F43150DE01A30F9C
:10261000B11D1C9331507E01E30EF11CCB01B601BC
:102620000E94F638805DD7018C933196E7CF211157
:1026300001C0242F80E02150330BE82FF0E0E21797
:10264000F30744F4EC0FFD1F9081903319F40083DD
:102650008F5FF3CFCDB7DEB7EAE00C949A39E62F5F
:10266000E695E695E695880F880F8E0FE82FF0E047
:10267000E75BF94F677021E030E001C0220F6A95F7
:10268000EAF78081822B8083089590913D078091A5
:102690003E07EEE1F7E080839183089590E0FC012E
:1026A000E15DF94F2491FC01E55EF94F3491FC01A5
:1026B000E95FF94FE491EE23C9F0222339F023308A
:1026C00001F1A8F4213019F1223029F1F0E0EE0FE8
:1026D000FF1FE350FA4FA591B4918FB7F894EC9196
:1026E000611126C030953E233C938FBF089527305B
:1026F000A9F02830C9F0243049F7809180008F7DFF
:1027000003C0809180008F7780938000DFCF84B5F5
:102710008F7784BDDBCF84B58F7DFBCF8091B000F8
:102720008F778093B000D2CF8091B0008F7DF9CFAA
:102730003E2BDACF3FB7F894809141069091420644
:10274000A0914306B091440626B5A89B05C02F3F33
:1027500019F00196A11DB11D3FBFBA2FA92F982FC7
:102760008827BC01CD01620F711D811D911D42E0C2
:10277000660F771F881F991F4A95D1F708958F928A
:102780009F92AF92BF92CF92DF92EF92FF926B0136
:102790007C01D0DF4B015C01C114D104E104F104E0
:1027A000B1F0C8DF681979098A099B09683E73404E
:1027B0008105910588F321E0C21AD108E108F108EA
:1027C00088EE880E83E0981EA11CB11CE5CFFF9017
:1027D000EF90DF90CF90BF90AF909F908F90089533
:1027E0002FB7F89460913D0670913E0680913F06A8
:1027F000909140062FBF08950F931F93CF93DF93BF
:10280000EC018B01EDDF607F737048815981942F5B
:102810009F709A01207F3370EA81FB818081EC8177
:102820008E236217730708F47C5FFB01E21BF30B36
:102830009330A1F158F4913069F178F0882309F4CC
:1028400051C0E034F10538F090E005C09530B1F1A9
:1028500070F19630C9F180E005C081113AC09B014A
:10286000892F91E0207F3370292B44275C7F242B14
:10287000352B398328838823B9F10115110529F0F7
:10288000632F66956695F8010995DF91CF911F91A9
:102890000F9108958111D8CF93E0E4CF81111BC02F
:1028A000E034F140C0F29B0183E094E0DBCF811182
:1028B00015C0F09780F29B0187E0D4CF882381F088
:1028C0009B0192E08BE0CECF882331F392E081E050
:1028D000C9CF892FC7CF9B0196E0BDCF95E0BBCF75
:1028E00094E0B9CF9B01B7CF933078F288E0CDCF99
:1028F00080E69AEE2091BC0027FD09C00197D1F730
:102900001092BC0084E08093BC0080E0089581E0D8
:1029100008958093BC00ECCF089584EAFADF81111A
:1029200001C03DCE089590917C04911116C0909104
:102930007D04911112C08093BB0084E8EADF81110D
:1029400002C036DE0AC08091B900887F8033C9F3A7
:10295000883411F0803221F422DE90E080E0089586
:1029600081E090E00895CF93C82F10927C041092DC
:102970007D04D3DF80917C04811103C08C2F880FEC
:10298000D2DFCF910895CF93C82F10927C0410927C
:102990007D0481E080937E0460937B04662381F054
:1029A000BCDF80917C04811104C08C2F880F816072
:1029B000BADF60917B04611103C084E98093BC009D
:1029C000862FCF910895DFCF08956DE0DCCF089575
:1029D000AACF089580914506C6DF80E4A4CF08956C
:1029E00080914506C0DF80E09ECF089580917B04F2
:1029F0008823C9F0815080937B04882339F084ECCC
:102A000088DF81110EC0D4DD80E0089584E881DF85
:102A10008823C9F380917E04882331F084E9809370
:102A2000BC008091BB00089578DFFBCFEF92FF924E
:102A30000F931F93CF93DF93C8E8D3E10BEA14E021
:102A400084579F4F7C01C8010197F1F761E070E066
:102A5000F70180819181B7DF80917B04882329F081
:102A6000C5DF87FD02C0219771F7CDB7DEB7E6E07D
:102A70000C949E3958CF0895EF92FF921F93CF93F5
:102A8000DF93E82F809147068A3738F51091460684
:102A9000119580EE8E0F8F3530F5E052FF0BE2542A
:102AA000FB4DC491CF3FF9F085E0C89FE0011124B0
:102AB000CF5ADC4D7E01E5E0EE0EF11CFE01849163
:102AC0008127D8DF2196CE15DF05C1F7812FD2DF10
:102AD000809147068A5F80934706DF91CF911F91CF
:102AE000FF90EF900895C1E5D3E2E4CFE6E6F5E08C
:102AF000108213828AE08683118214828783128275
:102B00001582808708958091D8059091D90590937A
:102B10005405809353050895FC012FB7F8948081E4
:102B20009181118210822FBF0895982F990F890FDC
:102B300023E0280F9091DF05291708F4922F0895BC
:102B400081E090912104943009F080E00895F8DF4D
:102B500091E08927089581E00895E0916100109245
:102B6000B900EF70E53008F0E4E0F0E0E158FB4F29
:102B700080818093B80008959FB7F894E1E6F0E073
:102B800020E8208380839FBFE8CF08959FB7F89403
:102B9000309903C081E080935105809151059FBF1A
:102BA0000895982F80911D0620912104882319F003
:102BB0008150233041F4992321F0945081E09230E8
:102BC00010F480E0089508959A0136952795620FD4
:102BD000731F811D911D9A0150E040E00E941D3934
:102BE000C9010895FC01DB011B968C911B9783871B
:102BF0001E968C911E9786871C968C911C978487B5
:102C00001F968C9187870895CF93DF93809131062B
:102C1000882391F080913301823071F4C7E0D1E0D4
:102C20008885823021F46BE271E0CE01DBDF6296B1
:102C300084E0CF31D807A1F7DF91CF91089580913B
:102C40001F050895CF93DF93DB01E82FF0E0EB5DE4
:102C5000FA4F80E0415060F09D91903208F490E28C
:102C600021912917B9F3EF012197988381E0F2CFE1
:102C7000DF91CF9108956AE00C94EA38089583308B
:102C800041F4643028F0663020F06A50623008F079
:102C900081E00895861B970BBC01469FC001479FAA
:102CA000900D1124622F70E00E94F638862F08954F
:102CB000873822E0920758F58C3E21E0920748F1D0
:102CC000893622E0920738F02FE142E168E672E0AF
:102CD000E1DF8E5A0895823422E0920738F027E22D
:102CE00043E261E472E0D6DF815D0895833122E042
:102CF000920738F02FE248E262E172E0CBDF895FB1
:102D0000089527E247E06BEE71E0C4CF089584E6B2
:102D1000089580E008958E508770806480937C00D1
:102D200087EC80937A0080917A0086FDFCCF8091B9
:102D30007800909179000895FC018081280F261772
:102D400014F440830895421714F02083089560839B
:102D50000895282F44E060E089E296E0EDCF0895E1
:102D60008091220422E1829FC0011124895F9E4F3D
:102D70000895CF9390913106992391F0C82FF0DFF9
:102D8000FC012085223061F420913301223041F48E
:102D90006BE271E0CC2319F0BC018BE291E022DF01
:102DA000CF910895DDDFFC01818592859093D9054F
:102DB0008093D8050895D4DFFC018091D8059091C7
:102DC000D905248135818217930738F02681378110
:102DD0002817390710F0928781870895C1DFFC0119
:102DE0008085089528EE33E040E050E00E941D39D0
:102DF0003093DD052093DC050895F2DC7093E10546
:102E00006093E005EFCF0895EBDCECDF81E0809389
:102E10006405089580912104823069F0833019F0AF
:102E2000813039F4089580912004823021F081E0CE
:102E3000089580E0089582E00895909121049150D2
:102E400081E0933008F080E00895F7CF089584364C
:102E5000910520F40A9758F481E00895803127E223
:102E6000920738F4883E934030F483E0089582E07E
:102E7000089585E0089584E008959AE0899FF0011F
:102E80001124E356FB4F85919491009719F0FC01B2
:102E90000995089581E00895E82FF0E0EC5EF94F80
:102EA000808191E08927808308958DE1F5DF80910D
:102EB0003106882319F081E05CDFA6CE08958BE10E
:102EC000EBCF08958AE1E8CF089589E1E5DF8091AD
:102ED0002D0652CE089587E1DFCF089586E1DCCF3D
:102EE000089584E1D9CF08956AE070E080E090E031
:102EF00046CC0895249AF8DF2C98F6DF2C9AF4CF6C
:102F0000089584E98093BC0080917C04811109C0FC
:102F100080917D04811107C010927C0410927D0481
:102F2000089582E0F9CF83E0F7CFCF93DF93D82FD6
:102F3000C92F81E896E07ADDD0932C07C0932D0746
:102F4000C0932F07D093300790916207992361F0C7
:102F500080912E079295990F990F907C8370892B01
:102F600081608D7F80932E0780910D07FCDC80911E
:102F70001907D9DC80912E07D6DC80912F07D3DC8E
:102F800080913007D0DC80913107CDDC809119072A
:102F9000803419F480913207C6DCB3DF81E896E013
:102FA00045DDD0931E07C0931F0760910F077091F6
:102FB000100790E080E0E3DBDF91CF9108959C0162
:102FC00090912E07937C90932E078091190780345F
:102FD00061F0203C310508F020E02093310780911A
:102FE0001E0790911F07A1CF08959D7F90932E07F4
:102FF0003093310720933207F2CF88E14DDFEEDEC8
:10300000833029F080912C0690E0D9CF089581E09B
:10301000FBCFB0E0A0E0EFE0F8E10C947C398091C8
:103020003606811157C080916305882309F452C088
:1030300004DF81114FC0D4DB6B017C018091D60588
:103040009091D705C091D805D091D905C817D90757
:1030500008F445C04E01881A990AC40140915505EB
:10306000509156056091570570915805970186015A
:10307000041B150B260B370BB901A80100915F0546
:10308000109160052091610530916205460157015C
:10309000801A910AA20AB30A95018401023311052C
:1030A0002105310510F4C297A8F048325105610599
:1030B000710580F0CE0139DF10926305C09255058D
:1030C000D0925605E0925705F0925805D093D70557
:1030D000C093D605CDB7DEB7ECE00C9498398C1BC5
:1030E0009D0BBCCF0F931F93CF93DF93182F80912D
:1030F0001907C8E0D3E2803231F0C6E0D3E480356E
:1031000011F4C8E0D3E581E896E090DC80910D07EA
:103110002ADC8D2F08DC812F06DCF3DE81E896E0C7
:1031200085DC6C2F70E080910D0790910E074BDCD1
:1031300003E317E0D0E05ADCF80181938F01DF5FF1
:10314000CD13F9CFDF91CF911F910F910895FF9289
:103150000F931F93CF93DF93C82FD62FF42E89019F
:1031600080910D0700DC8C2FDEDBC1E0DC1738F529
:10317000CF1528F5D801ED91FC911197CF0101965B
:103180008D939C93ED5BF94F8491CDDBCF5FC8307D
:1031900069F7B7DE81E896E049DC61E070E0809194
:1031A0000D0790910E070FDC21DC86FB882780F944
:1031B00091E08927CDB7DEB7E5E00C949F3980E038
:1031C000E4CF8091630787FD06C061E067DA8BEA90
:1031D00094E00197F1F781E896E028DC80910D07F3
:1031E000C2DB81E190E0F4DB8CDE8BE097E20197BB
:1031F000F1F70895EF92FF920F931F93CF93DF9310
:10320000EC01F62EE72E142F052F10DCC457DF4FEC
:103210008881A9DB82E187DB80E085DB8E2D83DB83
:103220008F2D81DB802F7FDB812F7DDB6ADE83E9C1
:1032300098E00197F1F7CDB7DEB7E6E00C949E3940
:1032400040915C0750915D0761E071E081E896E094
:10325000D1CF089587E020DEF0DD882349F080910A
:103260005D0790911B0690FB85F980935D07E8CF81
:10327000089576DDDC011F96EC91F0E0E255FB4FFE
:1032800080818FDCECE5F7E0982F9295907F80812C
:103290008F70892B8083D4CF0895282F42E060E07F
:1032A0008DE196E049DDC9DD8111E3CF08951F93DB
:1032B000CF93DF93EC01162F462F50E060E070E4CF
:1032C00099DFC152DF4F1883DF91CF911F9108958D
:1032D00060915205611116C08091230490912104E0
:1032E000943091F490913006981710F4682F691B70
:1032F00080910401861729F06093040181E896E02B
:10330000D6CF089560E0F4CF682FF2CF282F4FE09A
:1033100060E080E396E010DD80912104843009F4C0
:10332000D7CF0895282F4FE360E088E196E004DDD1
:1033300080911907803241F04091180650E063E017
:1033400073E381E896E056CF0895282F40E260E0CD
:1033500087E196E0F1DC5EDD40911706E82FF0E0B2
:10336000EA59FA4F438380912104843031F050E0D0
:1033700062E073E381E896E03DCF08958B3008F07A
:1033800085E0E82FF0E0E25CFD4FE49184EF8E0FE2
:103390008F3470F4E093230784E591E0E89FA00167
:1033A000E99F500D112463E071E381E896E022CF9C
:1033B000089590912104943079F0282F4AE060E03C
:1033C00085E196E0B9DC26DDE82F80911506F0E076
:1033D000EA59FA4F8683D2CF0895CF93DF93EB015A
:1033E000AC0160E074E181E896E004DFAE0161E0E9
:1033F00074E181E896E0FEDE4AE050E062E074E1CC
:1034000081E896E0F7DEDF91CF910895E82FF0E0B4
:10341000EA59FA4F438150E062E073E381E896E0B5
:10342000E9DE4091180650E063E073E381E896E03E
:10343000E1CE0895FF920F931F93CF93DF93F09007
:103440002206C5EBD2E00DEC12E0FE01659174910D
:10345000FE01329645915491F11002C0452F552737
:10346000552781E896E0C6DE24960C171D0769F7FC
:10347000CDB7DEB7E5E00C949F398EE00DDD80918D
:103480002104843009F4D6CF0895AB01BC0181E852
:1034900096E0B0CE0895282F4FE060E084E296E0F9
:1034A0004BDC80912104843031F46091240670E07B
:1034B00083E093E1EACF0895282F4FE160E083E2B3
:1034C00096E03ADC80912104843031F46091230647
:1034D00070E082E093E1D9CF0895609120066F5F9C
:1034E00070E080E091E1D1CF08958CE0D5DC80914F
:1034F0002104843009F4F1CF08951F93CF93DF9313
:10350000C0912104D09120041C2FC33009F41D2F39
:1035100027DCFC018189F4E68F02C00111241230FE
:1035200019F491958195910970E060E0C33059F4E8
:1035300060911F0624E66202B0011124D23019F412
:103540007195619571092091D3053091D405820F51
:10355000931F680F791F71956195710980E091E063
:1035600094DFDF91CF911F910895282F48E065E007
:103570008FE196E0E1DB48DC80912104833009F49F
:10358000BCCF0895CF93C82F29DC833079F02C2F3E
:1035900049E167EE8AE196E0CFDBE2DB20911A0693
:1035A000FC01218B31DC49DC8111A7DFCF9108952B
:1035B000CF92DF92EF92FF92CF93DF93809121041D
:1035C00090910301981741F0809303018FEF9FEFD3
:1035D000909302018093010103D96B0180914F0503
:1035E000909150059601281B390B28323105B0F017
:1035F000C091D805D091D905809101019091020127
:10360000C817D90731F0CE0190DCD0930201C093E6
:10361000010173DFD0925005C0924F05DF91CF9129
:10362000FF90EF90DF90CF900895B0E0A0E0EBE145
:10363000FBE10C948039AC018B012091D8053091CD
:10364000D905A8EEB3E00E9461396B017C01BCDAB8
:10365000EC01A801C701B601B7DA7C01BE0184E024
:1036600091E313DFB70185E091E30FDFCDB7DEB75C
:10367000E8E00C949C39CF93DF93EC01FE01859137
:103680009491009739F0FE01329665917491FDDEB8
:103690002496F4CFDF91CF91089585E0FDDB8091F2
:1036A0002104843039F080911906811104C08DE71E
:1036B00093E0E1CF089585E893E0FBCF8DEC92E0B5
:1036C000DADF6091230670E082E093E1DEDE609154
:1036D000240670E083E093E1D8DE81E293E0CBDF63
:1036E00080912106811104C081EE92E0C4CF08953B
:1036F00081E093E0FBCF8DE0CFDB8091210484302B
:1037000009F4DCCF08958091210481110CC066DB9F
:10371000823031F480912506823031F0833051F0CF
:1037200082E392E0A8CF089560EB74E080E496E035
:103730007CCF08956CED75E080ED97E0F9CF282FF0
:1037400043E060E085E296E0F7DADDCF089570E0CF
:1037500060E082E095E199CE089550E040E061E0BC
:1037600070E481E896E046DD109259050895282F0F
:103770004CE360E086E196E0DFDA80911606811185
:1037800004C0809159058111E8CF0895B0E0A0E010
:10379000ECECFBE10C947D39EC01D62E142FFC01EE
:1037A000E856FF4F8081803261F098E0E92EF12CDD
:1037B00002E4803451F026E0E22EF12C02E580355F
:1037C00021F088E0E82EF12C02E2CE012FD980E032
:1037D000D0FA80F910FB81F9182F13706E018CE874
:1037E000C80ED11CF6018081BED8802F9CD8812FB5
:1037F0009AD887DB5E01FAEBAF0EB11CCE0116D969
:10380000B701F60180819181DED8912C092D10E05D
:103810000E151F054CF4EAD80C0F1D1FF801E654D5
:10382000FF4F80839394F2CFF501808186FDE6CF30
:10383000CE01FCD8CDB7DEB7EBE00C949939B0E0FF
:10384000A0E0E5E2FCE10C947F39EC01EFD8FE0149
:10385000E457FF4F808187D881E090E0B9D8FE011E
:10386000E352FF4F80815FD8FE01E252FF4F80811B
:103870005AD847DBCE01DAD8FE01E057FF4F60810E
:10388000718190E080E00E94BF13FE01EE51FF4F76
:10389000808187FD07C060E00E944E138BEA94E0B0
:1038A0000197F1F7FE01ED55FF4F8081811123C093
:1038B0008E010A551F4FF801E080F180A70161E0F9
:1038C00072E0CE0197DCF801F182E0820C5F1F4FBD
:1038D000F801B0807E01F8EAEF0EF11CF701C0801C
:1038E000D180A60162E072E0CE0184DCF701D182D2
:1038F000C082F801B082CDB7DEB7E9E00C949B3905
:103900001F93CF93DF93EC01122F90931B078093AB
:103910001A0770931D0760931C0781E090E0909355
:103920002107809320074C175D0720F06417750767
:1039300008F0EA01909161072091240780915E07C9
:103940003091250730FB87F98F7920FB84F9807F40
:10395000816080935E0790935F0780E480931907EE
:1039600080912E07807C816080932E071092310712
:1039700081E08093320781E896E061DF6091600723
:1039800081E896E094DC1093620782E0809322073E
:10399000D0931F07C0931E07CE01C7DADF91CF91E6
:1039A0001F9108950F931F93CF93DF93EC0184E051
:1039B0008093210410925A05ED85F0E0EC55FB4F01
:1039C0002081022E000C330B89859A854E815F8100
:1039D0000C811D8110931B0700931A0750931D073C
:1039E00040931C07309321072093200780179107ED
:1039F00020F04817590708F08C01E3DB909161072C
:103A0000209124073091260780915E074091250779
:103A100040FB87F930FB86F98F7D20FB84F9807F9E
:103A200080935E0790935F0780E2809319078091EF
:103A30002E07807C836080932E071092310781E0EF
:103A40008093320781E896E0FADE6091600781E8B2
:103A500096E02DDC1092620750E040E060E07FEFDE
:103A600081E896E0C7DB83E79EE10197F1F71092CA
:103A7000220710931F0700931E07C80156DA6E81B4
:103A80007F818C819D81A9DC89E493E0F4DD109233
:103A90004E05488950E062E071E181E896E0AADBDA
:103AA0001CDD0CDEC7DCDF91CF911F910F910895D3
:103AB00028CA08950F931F93CF93DF93082FD62F13
:103AC000142FC22F0E94F01481E20E943A15802F19
:103AD0000E943A15812F0E943A1582E20E943A15FF
:103AE0008D2F0E943A158C2F0E943A15E1DFDF914D
:103AF000CF911F910F910895E5E4F6E082836383EF
:103B0000669566956695262F4FE7D4CF0895660F84
:103B1000660F660FF1CF0895FF920F931F93CF9317
:103B2000DF93F42ED62FD695D695D695CFEFC20F2C
:103B3000C60FC695C695C6954FEF4F0D480F2C2F53
:103B40006D2FB8DFCF5FCD1BCF9DE00111240E9408
:103B5000EA140115110559F0C00FD11F0C171D07EC
:103B600061F0F80181918F010E943A15F7CF2197FA
:103B700020F080E00E943A15FACF9ADFCDB7DEB789
:103B8000E5E00C949F390F931F9310E000E0C4DF31
:103B90001F910F910895EF92FF920F931F93CF9370
:103BA000DF93F12CE12C009781F0EC010E94EA14E4
:103BB0008E017801EC1AFD0AF80181918F018823AA
:103BC00019F00E943C15F5CF73DFC701CDB7DEB702
:103BD000E6E00C949E39A4E0B0E0E1EFFDE10C9446
:103BE0008039082F80913306882309F43CC08091E6
:103BF0002E068130B1F080E18ED81816190614F027
:103C00008BEE91E040912504509126044F3F5407DC
:103C100051F490932604809325044AD88093280475
:103C200018C08FE0E9CF6FE0649F9001659F300D71
:103C30001124820F931F24E0959587952A95E1F72B
:103C4000909326048093250433D8909128048913F7
:103C500003C01092320607C0909132069F5F909386
:103C600032069A30D8F61091280480912704181350
:103C700001E00E94F0136B017C0180913406909169
:103C800035069601281B390BC9018131974210F482
:103C90000023D1F08091130681110EC068E38CE6F9
:103CA0002BDF1436A8F081E3898380E38A838B833A
:103CB0001C82CE0101966FDFD0923506C092340689
:103CC00080912804809327042496E8E00C949C3982
:103CD0001A3048F0812F0E943B16805D8983905DE9
:103CE0009A8385E2E4CF80E28983105D1A83F9CF5D
:103CF000A3E0B0E0EEE7FEE10C9484398091130676
:103D000081111EC08091520581111EC06091230453
:103D100070E000E220E042E0CE0101960E94E11254
:103D20001091E40560E082E7E7DE81E0113009F000
:103D300080E080934606CE0101962DDF1092460664
:103D40002396E4E00C94A03980E289838DE48A8391
:103D50001B82E6CF90915205911115C0209123044A
:103D6000482F880F550B240F352F311D37FD06C006
:103D70002034310514F02FE330E0922F9093230488
:103D8000A7DAB6CF089510925205FACFCF93C82F75
:103D900080915205882341F0C3FD10C0C13011F459
:103DA000663061F481E009C08C2F8370833031F478
:103DB000CB3021F08FEF6630A9F3CCDF8C2FCF9181
:103DC00008958091130681110CC08091E405813023
:103DD00041F080915205882329F01092520578DA3B
:103DE00087CF0895809123048823D9F380935205C7
:103DF000F6CFCF93C82F0E94EA148C2F0E943C1557
:103E000057DE81E090E0CF91089568E388E174DEA9
:103E100080912104833091F020F48130A8F480E275
:103E20000BC08430E1F780915A058823C1F380915B
:103E300022068111F4CF8AE2DCCF0895809120041C
:103E4000813041F085E5F8CF80911E06813039F749
:103E500083E5F2CF8CE4F0CF0F931F93CF93DF93E2
:103E6000D0E0C0E0009781F08C010E94EA14D0E01D
:103E7000C0E0F801EC0FFD1F8491882321F00E941F
:103E80003C152196F6CF14DECE01DF91CF911F9124
:103E90000F910895A4E0B0E0E0E5FFE10C948439CF
:103EA00060E080E029DE05E416E081E0F80181832E
:103EB0008FE192E0D1DF80912404805D89838CE7DB
:103EC0008A8385E38B831C82CE01019664DEF80130
:103ED00011822496E4E00C94A0398091290488236F
:103EE00009F10E941D1781111DC020E14CE060E125
:103EF00082E749DE8091350783FF06C060E182E7F3
:103F0000FBDD8EE790E0A8DF60E282E7F5DD8091DF
:103F10002104843021F40E941F16811104C08BE714
:103F200090E09ACF089588E790E0FBCFFF920F933F
:103F30001F93CF93DF938A01F22EE9DDC5E4D6E02B
:103F4000F982C80189DF1982CDB7DEB7E5E00C94AC
:103F50009F39ACE0B0E0EFEAFFE10C947639D82E5F
:103F6000F090DF058091DE058F1538F08FEF8F0D13
:103F7000F11001C080E08093DE0560E080E0BCDDF0
:103F800081E0809346068DE993E066DFE090DE05F0
:103F900080E289838A838B838C838D831E82FF20BA
:103FA000B1F08F2D0E943B168C0181E08E0D0E9496
:103FB0003B16105D905D1D83002381F1005D0C8335
:103FC0002CE72B839A83882311F0805D8983CE01AF
:103FD0000196E1DD10924606E090DE051BEAE19EC7
:103FE000112D11241695D11021C0809105011813AF
:103FF0001DC0FF2051F1812F0E949515F92E182F19
:1040000002E01F1510F5602F80E081DD80E2E112F3
:1040100001C08EE3EEDE1F5F0E5FF3CF2CE72C8333
:104020009B838823A1F2805D8A83D1CF1093050101
:1040300028E340E868E080E0F1100BC0A4DD20E058
:104040004EEA53E064E084E271DF2C96E2E10C94E6
:10405000923999DD812F0E949515D82E292E25E0C1
:10406000829FC0011124DC01A159BA4F7D0112E0E9
:1040700081E1382E9EE2592E28EE822E23E0922EE8
:104080003AE0A32EB12C44E6642E712CD214E8F64B
:10409000C090DE05612F80E03ADD442443944D0C4E
:1040A000842D0E943B1620E2DC1001C02EE3298300
:1040B000805D8A83905D9B83B0E2BC831D82CE01CC
:1040C000019669DDF7018281843009F049C0808161
:1040D000918180319742B8F185E0932D981B892F0B
:1040E000880F890F612F880F12DDD7018D919C9168
:1040F000B3010E94F6389B01B5010E94F63800E337
:10410000060F2436310508F1B1E3B983E0E3EA8311
:1041100024532B835C820D831E82CE0101963BDDEE
:10412000612F8CE6F4DCD70112968C91B4E08B9F62
:10413000C001112487549C4F8FDE1E5FE5E0EE0E18
:10414000F11CD42CA3CF84E0C8CF822F0E943B1651
:10415000805D8983905D9A835B820C831D82DDCFB5
:104160000190F081E02DDD24DA94D80EB2E0C12C6C
:10417000BD1598F0D70113968D919C91B4010E94C2
:104180000A3997FF04C088519C4F61507109E60FAE
:10419000F71FB5010E940A39C62E00E220E045E073
:1041A000BF01CE0101960E94E112B2E085E0BD158B
:1041B00008F088E0932D981B892F880F890F612FB5
:1041C000880FA5DCCE010196E6DCE2E0ED1508F4EF
:1041D000A7CF8C2D0E943B165986805D8A87905D03
:1041E0009B871C86CE0109969ACF0E94B016FC01CF
:1041F000809121048330B0F48130B8F0E78548E045
:1042000051E0E40FF52FF11D44918091E40521E088
:10421000833009F020E050E0425F5E4F67E088E2C3
:1042200085CE0895843029F00895E68541E051E077
:10423000E8CFE0894CEF50E0E4CF0F931F93CF938A
:10424000DF93D0912104D33039F1C82F0E94B016EA
:104250008C01D330D8F4D13020F12C2F45E060E030
:104260000F960E949C16D8011F96EC91F0E0E25543
:10427000FB4FC0818C2F0E94D1158295807FCF701B
:104280008C2B80935C070E94201902C0D43049F126
:1042900081E00E94B916A9DFDF91CF911F910F91A4
:1042A00008952C2F46E060E00E960E949C168091A7
:1042B0001907803469F7D8011E96EC91F0E0E955B2
:1042C000FB4F4081473020F750E0516062E071E3DE
:1042D00081E896E00E94FA1881E896E00E9416159F
:1042E000D7CF2C2F219544E060E040960E949C1689
:1042F000F801408950E062E071E181E896E00E94B7
:10430000FA18C6CFCF938091E405C1E0823009F05E
:10431000C0E02C2F45EF50E060E082E207DE0E9413
:10432000B016FC01338594858585209121042130C8
:1043300028F0243088F08C5F243009F0832FC0935C
:10434000460627E0829FC00111248B579F4F84DDD2
:1043500010924606CF91089587E0890FF0CF0F9312
:104360001F93CF93DF93D82F0E94B016C0912104E2
:10437000C13060F08C01045F1F4F48E0C43080F012
:104380008C01035F1F4F42E0C43051F08C01055F88
:104390001F4FDC0118968C9146E0823008F443E010
:1043A0002D2F60E0C8010E949C1681E00E94B91682
:1043B000D801EC91C43079F4F0E0EC55FB4F8081EA
:1043C00090E090932107809320079CDFDF91CF91AD
:1043D0001F910F910895C111F8CFF0E0EE0FFF1F6C
:1043E000EC57FB4F80819181ECCFCF93C82F0E9477
:1043F000F0148DE80E943A1580E1C11184E10E9419
:104400003A158EEAC1118FEA0E943A1551DBCF911D
:1044100008951092290481E00E94BC1580E0E5DF38
:1044200010923606089581E08093290480912D062C
:104430000E94BC1581E0D9DF109236060895809164
:104440002904811102C0EFCF0895809113068111D4
:1044500001C0DFCF0895CF93DF9327E04FE760E0FF
:1044600080E028DB0E94EA14C0E0D4E080E00E94F3
:104470003A152197D9F71CDB6091480680914706D1
:104480003BDBDF91CF9108950F931F93CF93DF9381
:10449000C82F68E080E030DB0E94EA14CF3F69F467
:1044A000C1E8C15021F080E00E943A15FACF00DB4C
:1044B000DF91CF911F910F9108958091210421E107
:1044C000ADECB3E00AEE13E0843029F42CE0AEED5D
:1044D000B3E00BEF13E050E040E0942FF801E40F5D
:1044E000F51F64916C1758F44F5F5F4F4217A8F3A4
:1044F000EFEFE20FEA0FFB2FF11DD49122C0FD0177
:10450000E40FF51FD4914423E1F09150292F30E0BE
:10451000F801E20FF31F94912A0F3B1FF901249138
:10452000E62FE91BC91BD21B6E2F70E0CB019595BE
:104530008795CD9F800D911D11240E94F638D22FB2
:10454000D60FDD2389F0F0E8DF9FC00111244896E3
:1045500061E370E00E94F638D62FC62FC15020F0DC
:104560008CE00E943A15FACFC0E8CD1BC15008F488
:104570009ECF88E00E943A15F9CFCF93C0912706CD
:10458000282F43E060E087E296E00E949C16C1FF7E
:1045900006C08091270681FD02C08FEF75DFCF91A5
:1045A0000895A4E0B0E0E7EDF2E20C948339809145
:1045B0001306811117C08091E505811113C0009188
:1045C000270610910601F090210468E38AE594DA49
:1045D0001F3F61F481E890E03FDC01FF02C0812FC2
:1045E00053DF7BDC2496E5E00C949F3984E0F816D9
:1045F00001F100FF1EC0EAEEF3E080E09491911714
:1046000030F48F5F31968F30C9F799E003C0982F4F
:104610008A30D8F723E52983905D9A83893038F46E
:1046200080E28B831C82CE010196B5DAD6CF8BE275
:10463000F8CF812F143608F083E60E943B168823BA
:1046400031F0805D8983905D9A838CE7EACF80E2C8
:10465000F9CFB0E0A0E0EFE2F3E20C9480392091D2
:10466000130621119AC02091E505211196C0D09121
:104670006305D11192C0C0905F05D0906005E090B5
:104680006105F09062058B019C010C191D092E0932
:104690003F096801790114EFC11611E0D106E10468
:1046A000F10408F47AC0C0905B05D0905C05E090FE
:1046B0005D05F0905E058B019C010C191D092E090A
:1046C0003F096801790118EEC11613E0D106E10433
:1046D000F10408F462C06B017C01C0925B05D092CA
:1046E0005C05E0925D05F0925E05C0912104109199
:1046F0000601C43051F080912A06813009F452C07D
:10470000CC2329F0C43008F04DC081E008C080916E
:10471000DC059091DD054817590751F080E00E94B3
:10472000721880913707181719F08093060139DF46
:1047300090911606809106018F3F41F0992331F048
:10474000C11104C0D1E0891708F0D0E0809159056B
:104750008D1771F043E050E0D11102C050E040E00D
:1047600061E070E481E896E00E94FA18D093590560
:10477000C43099F429EBC2162BE0D206E104F1040F
:1047800060F080913607881F8827881F90915A050E
:10479000891719F080935A0538DBCDB7DEB7E8E00A
:1047A0000C949C398FEFBFCFCF93E0912606F0E0B9
:1047B000E259FF4FC4910E94F01481E80E943A151B
:1047C00081E08C0F0E943A1573D9CF910895909192
:1047D0002606890F8A300CF089E087FD80E08093FF
:1047E0002606E2CF0895A8E0B0E0E9EFF3E20C94EA
:1047F0007E39439A88E08093B8000E94E11881E8EE
:1048000096E00E94161580910D070E94B31481E076
:1048100090E00E94E8148FE190E00E94E81485E0A7
:1048200090E00E94E8140E9481175E0189E0A80EC2
:10483000B11C81E896E00E94161568E070E0809156
:104840000D0790910E070E94E3148E010F5F1F4F1A
:10485000E02ED12E0E94F614D8018D938D01AA1658
:10486000BB06C1F7898186FDE4CF8BE097E2019713
:10487000F1F781E896E00E94161580910D070E94DD
:10488000B31481E090E00E94E81481E390E00E947C
:10489000E81485E090E00E94E8140E94811760917E
:1048A00011077091120790E080E00E94BF1362E34D
:1048B00070E080E090E00E94BF131A82198210E03D
:1048C00000E0F12C0539B1E01B0740F430E020E0B6
:1048D0000138110590F020E031E00FC0063FE2E022
:1048E0001E0748F020E033E00F3FF3E01F0728F0F9
:1048F00020E034E006C020E032E085E1011511053A
:1049000009F086E14F2D50E0FA01E158FD4FE491A6
:10491000E20FF32FF11DE017F10709F04BC0F394FC
:10492000475B5D4FFA01449192E0C92E443618F07E
:104930004456CC24C3942E2D3D2D60E00E94A71830
:104940008823C1F0CC2059F02E2D3D2D48E06C2D50
:1049500085E10E94A718882369F00F5F1F4F0F5F42
:104960001F4F0135F4E01F0708F4ACCF83EE93E04E
:104970000197F1F70E94B01620911907203281F0BB
:10498000DC011F96EC91F0E0E255FB4F80818F70C7
:10499000806180935C0780E980935D070E94201905
:1049A0000E94AD1581E080934E0543982896EAE079
:1049B0000C949A39C12C48E0BECF1F93CF93DF935C
:1049C00091E018160CF090E0CFEFC80F82300CF495
:1049D000C0E080911907D8E2803221F0D8E4803518
:1049E00009F4D8E510E090FB10F981E896E00E9408
:1049F000161580910D070E94B3148D2F0E949314F9
:104A0000812F0E9493148C2F0E9493140E9481176F
:104A100081E896E00E941615DF91CF911F910895CD
:104A20009091210445E2943009F44AE1282F60E096
:104A300084E196E00E949C1680911406BEDF0E94DD
:104A40000A17E82FF0E0EA59FA4F809114068083A4
:104A500008950E940A17E82FF0E0EA59FA4F808182
:104A6000ACCF0895B0E0A0E0E8E3F5E20C947C3927
:104A70008E3209F43EC0C0EDC80FCA3008F05AC0EB
:104A80009EE0D92EE42EF62E84E0D89EA0011124BB
:104A900070E060E089E496E00E94BC39EC2FF0E021
:104AA000E35CFA4DC49110E000E0C0FF34C0F801AF
:104AB000E35EFA4D85919591A591B491C82EB92EDA
:104AC0009A2EDB2F88248394880EBB23B1F0D0E08C
:104AD00088248394890ED915F0F4AC2CAD0E6B2D7F
:104AE0008A2D0E942F13682D8A2D0E942F13DF5FBD
:104AF000F2CFCAE084E0D82EC5CFD91560F4AB2C34
:104B0000AD0E6A2D8C2D0E942F136A2D882D0E94C8
:104B10002F13DF5FF2CFC6950C5F1F4F00321105D8
:104B200009F0C3CF09E416E020E24D2D6E2D8F2D44
:104B30000E948C1DCDB7DEB7ECE00C949839A7E04D
:104B4000B0E0E5EAF5E20C947A3980901306811022
:104B50009FC0982E0E941D17A82E0E94B01660902C
:104B6000D8057090D905A110B7C0FC01808528EB4D
:104B7000E22E24E0F22E13E0833081F0823049F4FB
:104B80008091280638EBE32E34E0F32E12E08130DA
:104B900029F094EBE92E94E0F92E10E00FE2212F9A
:104BA00045E0B301CE0101960E94E112C3010E94CB
:104BB0002717B82E812C8CE045E0112329F08CE0DA
:104BC00045E08824839411E0140F9EE0499FA001E2
:104BD0001124882011F04C5F5F4F123038F0E3E071
:104BE0001E9F400D511D11244350510927E230E012
:104BF000A11002C030E020E0420F531F282F30E008
:104C00000AE610E0041B150B021713070CF48901C8
:104C1000992021F120E240E860E180E00E94C31D7C
:104C2000CE0101964C01F40171904F017720F9F00B
:104C300040E1602F872D16DFFEE284E07F128EE0D8
:104C400090E00396080F191FEECF00E220E0482FF6
:104C5000B301CE0101960E94E1125AC090911E0547
:104C60009B15F1F240E8481B20E260E1D7CFA1108C
:104C700013C028E042E168E28DE60E94C31D68E2AD
:104C80008DE60E947C1DC7010E94CB1DB0921E05BF
:104C90002796EEE00C949639B8016250710940E114
:104CA0008EE2E0DE98012B5F3F4FC6016AE070E0C4
:104CB0000E94F638962FD82E40E1622F80E3890FAC
:104CC000D1DEB8016A5E7F4F40E180E38D0DCADE20
:104CD00084E08B1570F6DACF8091D3059091D405DE
:104CE00068EE73E00E940A3997FF04C088519C4F18
:104CF00061507109660E771E6AE070E00E940A3901
:104D00006B01C3010E942717B82E81119ECF198213
:104D10004B2D84EBE82E84E0F82E83E010E054CF96
:104D20009093D9058093D80580E009DF64E670E0B0
:104D300080E090E00C94BF13089540E250E060E200
:104D400070E085E295E00E94BC3910924B0510920C
:104D50004A058FEF809345050895EFDF8FEF80932D
:104D600047058093460510924D0510924C05089515
:104D7000F4DF109224051092230510922205109260
:104D80004905109248050895A6E1B0E0EAECF6E284
:104D90000C94833920914B0540914A05421778F5D0
:104DA000241BFE01319690E080E08F0150E030E25C
:104DB000821730F4DA01A80FB91FAB5DBA4F3C91EE
:104DC000319301968031910591F780914C05909136
:104DD0004D05892BB1F445E050E060E270E0CE0172
:104DE00041960E94BC391E8A60E380E00E947C1DCF
:104DF000C8010E94CB1D6696E5E00C949F3920E027
:104E0000D0CF809147058F3F91F0F09046050E94EA
:104E10003B16805D898B905D9A8B8AE38B8B8F2DFF
:104E20000E943B16805D8C8B905D9D8BDCCF8DE26C
:104E30008D8B8C8B8A8B898B8AE38B8BD4CF98DF7D
:104E4000A3CF089580911F0591E0892780931F05C6
:104E5000811105C08091240581110E94A71BEFCF0D
:104E600008957BDF91CF0895B0E0A0E0EAE3F7E298
:104E70000C94803920911306211118C02091290427
:104E80002223A1F020911F05222381F02091E50526
:104E900021110CC0EC0180912104843061F08091DB
:104EA0002405882319F00E94A71BC9DFCDB7DEB700
:104EB000E8E00C949C398091D8059091D905209117
:104EC0002005309121052817390731F090932105ED
:104ED00080932005C6DFEACF8091220590912305BB
:104EE0009E01281B390BC90180399140F8F2D093FB
:104EF0002305C0932205809163058111D7CFE090EF
:104F00005F05F0906005CE018E199F0984389340AB
:104F100068F28091240581111CC041E050E060E0FE
:104F200075E181E896E00E94FA1841E05AEA62E0F1
:104F300075E181E896E00E94FA1841E050E061E0F6
:104F400075E181E896E00E94FA1881E080932405DB
:104F5000C1CF81E896E00E94161580910D070E944E
:104F6000B31484E290E00E94E81480E00E9493145D
:104F70000E94811781E896E00E94161580910D0726
:104F80000E94E5140CE417E049E5C42E47E0D42E56
:104F90000E94F614F80181938F01CE16DF06C1F747
:104FA00080914C0786FD82CF80914D0780FF04C021
:104FB00080914E0780FD13C080914C0590914D0566
:104FC000009709F473CF9C012E193F0937FD82CF5A
:104FD000C81BD90BC137D74108F07CCF67CFCE01B2
:104FE000816090934D0580934C050091520710917C
:104FF0005307102701271027812F82958F70823049
:1050000049F5202F2071F22E80914505281719F0BF
:1050100094DEF0924505802F8F7013FD67C08830B5
:10502000C8F444E064E577E0880F880F0E942216F8
:10503000882381F0E5E4F5E080E29291903211F46A
:105040008150D9F780934B0510924A05D0934905BA
:10505000C093480520915807822F90E09595879539
:10506000959587958370992702970CF051C023700E
:10507000223008F04DC0812F869586958695883020
:1050800009F046C06091570720915607922F9295DC
:105090009F708091550780FD906144E0249F9001AE
:1050A0001124822F8C73262F229526952695237006
:1050B000282B462F4F7141F150E055954795842F8D
:1050C0003EE160FF30E065FF03C0842F819531959C
:1050D000230F2C3384F02C538F5F980F983184F07A
:1050E0009851909347052093460512C042E066E52B
:1050F00077E0880F9BCF27FFF0CF245C8150EDCF66
:1051000097FFEFCF985EEDCF983110F42C3348F332
:1051100080914B05813120F410924A0535DEC6CED0
:105120002091480530914905FE01E21BF30B9F01D8
:105130002E35314098F3D0934905C093480590919E
:105140004A059F5F90934A058D5F981728F7E6CF31
:10515000CF93C0911306C11122C00E94B016FC016A
:105160008091E405843031F4C1E0809121048430E1
:1051700009F4C0E094E0A9E1B5E001900D929A95A0
:10518000E1F710921D0560E080E00E947C1DC09355
:10519000460689E195E00E94CB1D10924606CF910C
:1051A0000895B0E0A0E0E7EDF8E20C9477390097BD
:1051B00009F48CC07C01C091D805D091D9050E941A
:1051C000B016FC01048510E0095F1F4FD801AA0F3B
:1051D000BB1FAC57BB4F0D90BC91A02D97010E94F7
:1051E0005B392091D3053091D4056901330FEE0866
:1051F000FF08C60ED71EE81EF91E309022044E018D
:10520000B12CA12CD701C60189539D4CAF4FBF4F84
:105210008F389546A105B10508F46DC0C701B601E8
:1052200028EE33E040E050E00E943F3929013A0186
:105230006B017C01F7FE0BC088EEC80E83E0D81E20
:10524000E11CF11C21E0421A510861087108840C2C
:10525000951CA61CB71C86E988169104A104B1040C
:10526000D4F120E3821625E79206A104B104CCF51F
:10527000E401F801FF27EE0FFF1FEC57FB4F808181
:10528000918168EE73E00E940A399B0161157105F6
:1052900071F0C4010E94F638009749F01414150407
:1052A0001604170414F4C20FD31FC81BD90BD093D4
:1052B000D905C093D805D092D405C092D30580916A
:1052C0002104843009F066C00E94D216CDB7DEB743
:1052D000E1E10C94933926E9822E912CA12CB12C7A
:1052E000C7CFC12CD12C760190E3892E95E7992E5A
:1052F000A12CB12CBDCF9E01A8EEB3E00E94613974
:105300004B015C018C0C9D1CAE1CBF1C4481558163
:10531000268137810E94613986169706A806B9064C
:105320004CF49A010E94613986169706A806B906C0
:105330000CF0BDCFC501B40128EE33E040E050E0F1
:105340000E943F396B017C01F7FE0AC088EEC80E4F
:1053500083E0D81EE11CF11C21503109410951099B
:10536000263931054105510544F0203385E73807DA
:10537000410551053CF4E9019ACF26E930E040E0CF
:1053800050E0F9CFC12CD12C760120E335E740E085
:1053900050E0F1CFE7E0F1E080E09085933051F00C
:1053A00024813581C217D30728F0268137812C1735
:1053B0003D07D8F48F5F72968C3279F70E94D81A25
:1053C0000E94DB160E94F01360935F0570936005E6
:1053D00080936105909362051092D7051092D605CF
:1053E00080E0ADDB0E94041771CF381639F380934B
:1053F0002204AEDE0E94822180E00E941D21DECFC9
:105400008091E40540912104843019F421E0443076
:1054100009F020E084E0489FA001112447545C4F2C
:1054200067E080E00E94961F0E94051F91CE0895BC
:10543000CF93C82FB6D88C2F82DBE2DF0E94822167
:105440000E94F52080913306882319F081E00E94A4
:10545000EB1D0E94781ECF9108958F929F92AF927C
:10546000BF92FF920F931F93CF93DF93F09022048C
:105470008091D8059091D9050E9495176EE170E052
:1054800080E090E00E94BF130E94B016FC012085CE
:10549000223051F08481958106811781233041F4B7
:1054A000B8010E94ED192FC000E315E78EEA96E0DF
:1054B000E385F0E0EE0FFF1FEC57FB4FC081D18179
:1054C000CB30D10508F0C9C0C13039F0C53029F062
:1054D000C93019F0CA3009F0C5E0AC0160E074E3EE
:1054E00081E896E00E94FA18A80161E074E381E87F
:1054F00096E00E94FA184C2F50E062E074E381E8D5
:1055000096E00E94FA18F8941092510578948091D0
:105510002207C0911E07D0911F07823009F460C096
:10552000C09100010E94F0134B015C0180911907AA
:10553000D1E4803209F4D1E281E896E00E941615A8
:1055400080E0C0FB83F9C82FC87080910D070E94CE
:10555000B3148D2F0E9493148C2F0E949314D13476
:10556000A9F4C1E080911E0790911F0789309740F0
:1055700008F4C0E080E00E94931480E00E9493143D
:1055800080E00E9493148C2F0E9493140E94811734
:1055900068E770E080E090E00E94BF1364E670E08E
:1055A00080E090E00E94BF1368EC70E080E090E043
:1055B0000E94BF1340E060E081E896E00E94C61BB5
:1055C0000E944513ADDB80913B0786FF48C041E058
:1055D00060E081E896E00E94C61B0E944513EC0142
:1055E000209789F1D093D905C093D8050E94B016B1
:1055F000FC018085823099F4E7E0F1E020A531A537
:10560000C217D30708F44AC022A533A52C173D07BB
:1056100008F444C08093220480E00E94B91680916F
:1056200022048F1521F080E00E941D2112DA0E94D1
:10563000831B0E94DB1681E0FBDE0E940417D093DF
:10564000D705C093D605DF91CF911F910F91FF90A1
:10565000BF90AF909F908F900895CAE03ECF0E9478
:10566000C6158111B4CF0E94F013681979098A090F
:105670009B09009113071091140720911507309191
:105680001607061717072807390708F4A0CF8091D7
:105690003B0780FF89CF40E061E09BCF8F5F729630
:1056A0008B3209F0ABCFB8CFB0E0A0E0EAE5FBE287
:1056B0000C947D39D82E0E94B016EC0118859924DF
:1056C0009394133009F0912CAA24A394809121047F
:1056D000843009F0A12CA910439A809159058111B9
:1056E0000E94AD1B0E94D2168FEF809306011330EB
:1056F00009F5CE010E94D21CACD98091130681110C
:1057000008C08091E505811104C00E942B2281E030
:105710008FDE0E946819A91043988091D805909156
:10572000D9059093D7058093D605CDB7DEB7EBE0CA
:105730000C9499390C811D81EE80FF8080912C069C
:1057400090E00E94DF170E940A17B82E0E941D17D2
:10575000882309F470C08F85863014F085E08F8728
:1057600080914E05882309F0D1103DD8C0902104C6
:1057700083E020912004D12CC81619F0D0901E0689
:105780002C2D49855A85B701C8010E94801C409183
:105790001B0683E0C81609F44AC0EF850E2E000CE4
:1057A000FF0BE255FB4F20818D2D880F8D0D31E0D1
:1057B0003D1950911C0690E050FB94F930FB97F98D
:1057C0008F70907F2F7020935C07892B40FB85F9A9
:1057D00080935D070E9420190E9439198B2D0E9429
:1057E000061A0E947D1AEB2DF0E0EA59FA4F8681E5
:1057F0000E94BE19A80160E074E381E896E00E946F
:10580000FA18A70161E074E381E896E00E94FA18B3
:1058100085E593E00E943B1B8091190681119FC092
:105820008DE793E00E943B1B0E94831B65CF24E021
:1058300080E031E0BECF1092210410924E05EB853E
:10584000EE0FFF0BEC57FB4F80819181C984DA8406
:1058500010931B0700931A07F0921D07E0921C0794
:105860009093210780932007C016D10618F0EC14FE
:10587000FD0408F4680180912207813009F440C0DA
:105880000E94E118909161072091240780915E07A2
:105890003091250730FB87F98F7920FB84F9807FD1
:1058A000816080935E0790935F0780E4809319077F
:1058B00080912E07807C816080932E0710923107A3
:1058C00081E08093320781E896E00E941F1C80915E
:1058D000230794EF980F9F3468F424E531E0829F0A
:1058E000A001839F500D112463E071E381E896E0ED
:1058F0000E94FA186091600781E896E00E945719AB
:105900001092620781E080932207D0921F07C09215
:105910001E07C6010E949517809119078034A9F4CB
:10592000EE850E2E000CFF0BE955FB4F40814730F2
:1059300060F450E0516062E071E381E896E00E941B
:10594000FA1881E896E00E94161562E070E081E0A6
:1059500093E30E94451A8B2D0E94061A44CF85E8D6
:1059600093E060CF0E944C170E941D17882311F00E
:1059700080E09ACE089580912104833011F08AE06E
:10598000F1CF08958091130681110EC080912104FA
:10599000843021F457DA0C946D1F08950E941D176E
:1059A000882311F080E0E7CF089588E0DBCF0895E9
:1059B0000F931F93CF93DF93182FC62F0E94DB16F0
:1059C0000E9404170E94B016FC01D0851092D405E5
:1059D0001092D30580912204112329F18F5F8C321C
:1059E00018F48093220402C01092220480E00E94E6
:1059F000B916C1110E94D2160E9483150E94B016DA
:105A0000FC01C08591E0C33009F090E081E0D33023
:105A100009F080E0981769F080E046DEDF91CF91D1
:105A20001F910F910895811102C08BE2DACF81504E
:105A3000D8CF0091D8051091D905C8010E949517BB
:105A400008D880E00E941D210E941D1781110E942C
:105A50007D1A80912806882359F091E0D23009F010
:105A600090E081E0C23009F080E0C1E0981301C00D
:105A7000C0E00E94831B8C2F62D86ADB0E948221C7
:105A80001093D7050093D605C9CFB0E0A0E0EBE4B2
:105A9000FDE20C947C39009709F468C011E01816F7
:105AA00019060CF010E0EC01109300010E94B016F2
:105AB000AC01DC0118960C911897033009F05BC01B
:105AC0001D96EC91F0E0EC55FB4FE081F0E0E090AA
:105AD000D805F090D9059F01DE010E9470394B0175
