:020000040000FA
:100000000C9478110C94DF2E0C94B82E0C94A01143
:100010000C94A0110C94A0110C94A0110C94A0119C
:100020000C94A0110C94A0110C94A0110C94A0118C
:100030000C94A0110C94A0110C94A0110C94A0117C
:100040000C946E2E0C94A0110C94A0110C94A01181
:100050000C94A0110C94A0110C94A0110C94A0115C
:100060000C94A0110C94A01153415645440020203B
:10007000200031206B487A200035206B487A200020
:1000800039206B487A20003130206B487A003530B7
:10009000206B487A003130306B487A0031204D486F
:1000A0007A2000313020487A2000323520487A20EA
:1000B00000353020487A200031303020487A003531
:1000C000303020487A0031206B487A200035206B90
:1000D000487A200039206B487A20003130206B4864
:1000E0007A00535445503A20005058606870081800
:1000F0002030384048000810283840302E35206B1A
:10010000487A00312E30206B487A00312E32206B35
:10011000487A00312E38206B487A00322E30206B1E
:10012000487A00322E32206B487A00322E35206B0E
:10013000487A00332E30206B487A00342E30206B02
:10014000487A00362E30206B487A00204155544FB3
:10015000202000313130206B487A003834206B4841
:100160007A20003630206B487A20003430206B48EB
:100170007A20000020202020200044454C3A42579D
:10018000204641564F524954455300454D5054590D
:10019000204C495354000000020100000000000000
:1001A000030000000700020100000201000001003E
:1001B0000900000005000101000041555400204FD6
:1001C0004E004F46460020353000203735006B4842
:1001D0007A004D487A0052535300534E520031304A
:1001E00030003530250031306D0031356D00333051
:1001F0006D0036306D00204132002041310020205A
:100200002020202053455454494E4753202020207D
:1002100000000080007301760178017A017C017F83
:100220000181018401860188018A018C018E01907F
:100230000192019401510268028A029502F5026559
:100240000368039303AE03B103B403D903E203E7E6
:1002500003EA03EC03EF03F203F503F703FB03FEEA
:1002600003100427042D0432043404360439043CFA
:100270000440044304450449044B044E0450040064
:1002800003740BD484606FAE6CF9BB84A265B14B70
:10029000F672011A21E85AD8D604735E2C226EC475
:1002A000E9B58B819A1EE487C99E7B17526DADE339
:1002B000E58B04A72E996A32AA9997CCA65B15798B
:1002C00056480163B1DF5427065706538CA627AA68
:1002D00066890318517EFB67D3CEDD3FFD3D1F4786
:1002E0008401F3856EF83B792B0C904B67467D5467
:1002F00088FDD612E5E748F20EDB994D71A54068FE
:10030000D9C95939E475201CE9B1F5013C19BB6024
:10031000F7FA6B1E689F19B6ED140F56BCC134CBAB
:10032000009D43D40FF3629C9DF78B9D533A8D2F14
:100330003DDE3D3831039BC7C159E9D175888D3603
:100340005886704E5B9ED0DBCBF7EA1FDBA53BB334
:10035000BD6BBCF37065D5170F64152420D5B87B31
:100360000D272985881F5822574F09C04DD6E4C64E
:10037000B53A373327BB6A1469031BEDA8C343E8BA
:10038000EADE410625C5C83CBF32B2A7DD22C2E97C
:10039000CA84F2C0267C7801F7D5C60533E4C2785A
:1003A000EC1BFDD2507D11295799B0F1556674B4FC
:1003B0005823A06F2ED89B08B33E53CF5ECC7ADF74
:1003C0004EED42166A9188431B1D845C522166588B
:1003D000243671C56A0D2C869A239DE03543C97F6A
:1003E00041BD8299ED7A26B2D3A6CE4F00E687E3CF
:1003F000D7682886F7CED2B3D31B0402B978B3AD41
:10040000E03C53A68A4A22BE1FCEB176F22F81A8C5
:10041000C17872B0156519E332A74D0CD300B9C38A
:1004200027BE744DD1E10C36DD23FBA722D344CA8D
:10043000B3081BB40D4BDF1AA69032925C1AA7CDFD
:10044000852E351172F821357D3FDB298D30B34F74
:10045000451477CF992FA39081B0AEE845E63AA92D
:10046000A262B7DBBE2539A5FCEAC5BC3AEC90AE6A
:10047000A6FB12AAC76222AFA984B964B8FB8DC1DA
:100480001CC3D0876D5CB4FE3FA4B8D889F4015971
:10049000BB04A543441ACB4130F75B9AEE28F44CD9
:1004A0007199CA4B7F2A13F04B54B3FC90EDBE48B0
:1004B0003FF15E0DA1BB1E591615F04B504C9686B0
:1004C0001BA9CCC2694E1003F0E953E5E2BB45E23B
:1004D0008DAE407108864D08F49690585340A58B18
:1004E0005B3CAD47B5D7E26A1378D4DCC9EC0E9318
:1004F000F0C01D953676A45385C9ACE4718DAF6804
:1005000061209DFF45356E04D82732C3DAEEA2661E
:1005100004B72106527F398FFDEE9074B64FB62492
:100520000E1248F0B230F2A54C9152E3C6487B3827
:1005300096239ED71B95153AC98B6F637D1DC9EA1B
:1005400096E601D785C0EA3DCAD3B7FB07543A0007
:10055000313D74E4125BA238335BBF1DDC4EE8858D
:100560001077ABEA6579B0AA3061C6F63BCC95FC52
:10057000837F8C7BB55205EBF721DE89B66DEE31BA
:100580007713AA935596086E1C82B57E95B994DDB3
:1005900068425C3A00C37B6F606A2C07D76C82FBB1
:1005A000B2812569D6720AD2E8500588491B637268
:1005B000996CE37AAEB01B9ED42554258A90179788
:1005C000DF39B87CEAF082DD25D2ADE7F636238448
:1005D000A9C96A53F4822C1DEA06C64F70543780AD
:1005E0002A6B63DBCC86E68C7F278C7254739E1B50
:1005F000D64CFA058280D7B71198000000000000A1
:10060000069869151CFC868774845BD40FDBD7279A
:10061000C54AB28F297A4A230AB807D03470818E2E
:1006200053EF43163FA8A79E5A77C091B78915523A
:1006300048C0B762ABE1746410AA096B9774217962
:1006400035A19725FC78C1EC6E877740871A7482B4
:100650008156DDEC37ADAF0331AC478574C02A4518
:100660009DF4120CF986B04A16D8116C46C44A673C
:10067000988B1B42C2BEBB0E4884F708A6C38F8E60
:100680008DABC29B5D5C6028578F0EAD2EC15E9511
:10069000299AF48A27D441BB4AAC5DB29326FD87E0
:1006A000813F2735A6422C1538ADF8026F94DA0841
:1006B000EE19D890FA89C3AD89FEC60246811D0C99
:1006C0008D782FEED3ED6C7B95495687F4E263DA93
:1006D00039CE681618ED98EE86F3B3C1121A519B05
:1006E000571D199E987ED2FD3D2B5915467457799A
:1006F00014817189D922DD9210D98991DF67006E4A
:1007000053AFDAB528301E47E6B7052D22CF7F6AF2
:10071000CD88906B8C16368807A1B7AFF331C4DB58
:10072000768B969EF017A73F847891A8CD3F8FA532
:10073000DD5214F9395D0B568E1C5A5B89EE809E92
:1007400033BDB145154234597820FC2DDBC92E0F3D
:100750003526CF239B3E1D9F0F260EB7B54EACA26C
:1007600086D5DA36045A73466A88C52AA083E88B90
:100770005F3CAF6A444E759B8F93373538BD029A04
:100780001D8429642597E07C2AB6CBC166513CBC08
:100790003BF3552BB7BD81ECF349D5F803E0BDC65B
:1007A0000CEEC01908FB4F8C94080EA53037F0B83A
:1007B00018937300BB5252B4980D4B45B9890A3453
:1007C000E91C245A8FA89DC2D927A9EEBFC08090EA
:1007D000BC2A9343FB0AB396D1AE13410168B92CEE
:1007E00053537C00A58441D6988898FEDEF7E23703
:1007F00043620E9383EE030A8DCA8759366F61F701
:10080000F4D6AB8B0F9C8396A46C4643806BEA5066
:10081000DCD8CED4F4AE5BC6014385718D0C395E55
:10082000E43B2BC488B2C554960E879A5093D69C4D
:1008300091CA09648B23C429441A67E1DAC71B25CE
:1008400017022C8F2A133ACFD665312B10F5B596A7
:10085000DF01997BADD6B4C035A348E3B09EFE332B
:10086000101A09AE3C0AA1728F0051E17823F5E21B
:10087000BFA64628B34B24B1A1DEB1C4486FED5AE0
:10088000D461F0DBE1085C64C0CAE9A9DEDEECC03B
:10089000685B6DBD43828CCA69B1A9C8710D5D6D7D
:1008A000A5AB1A6794EE0593E33FE81AE60F7F794C
:1008B000F2CBC53757DFFC4FB460C7973C61B00C33
:1008C0004664F44392D2A5F0F3B7DFAB20B1F53024
:1008D0002AB3DC4B39B7853E1E1B948C26288045F5
:1008E000D60136D0EC934688D3D5895D7A82213EF5
:1008F000C240E3B4DEF5A569D569495C89CDAE1384
:100900007070ED690CECC6FE75EB4ED6B3C860FB9B
:10091000341EF86492D929A813383D79C4BF213711
:100920009DE34F21E53F2C5C5F41FF148791E082FE
:10093000040B1E5553DC5640A43578E29B49222E09
:1009400009CD1F6F9483EEEA8BC4C210E080D9A555
:100950005F53349C8CEA95648794D6321CEB93BF2A
:10096000E35583C2F6FCC885B2945C425F6B8E3B54
:100970009779747EE35CC2631A22B17F94CBE7B7A8
:10098000FF0E3795AF105317881272DDCBAB4B6B50
:100990006824ACC95C72094FF1FB1DE7A230E92065
:1009A0004BDA707C9EE234EB6A35C233D79D07B1D7
:1009B000EFF675F5FDADC74BD0B7DDAE1E8D1EC091
:1009C000399CA71CC5CC3950C66BC6DA37C7E120A5
:1009D000EB74A53DC008FAC2DFF29E432BF07750BE
:1009E000498CC32F68F32A9B831ADC05D8B77C3C5B
:1009F000611176EC2DFE86088715A3C01CB46A8DA4
:100A00009EBF9AD5C85B05181015FBC63CEEC552B3
:100A10004B313607B94C81EA83D782FEFC43594EED
:100A200020BDD365CF1F5C711FBF26EC44EB017462
:100A3000823C8E60DF479031177E16C0EC1EC33AB1
:100A40007A5921A29B8E8725D3FE85DD6DE6D8CA13
:100A500074BADB4230963D8622866FDE371A932FBA
:100A6000032EE16E1662C1E12DFECBA8DF6405EF17
:100A700023BC71617B1B602227BDC6A37207AA0934
:100A8000B052F219154DBEAF263B4D62A63C410750
:100A90007A34253CD6CDB65547871ECBCFCED20D66
:100AA00095C0D872A6E0332426517E71C7533FD437
:100AB000677352CB785A001115715F8D3CCF40CDD2
:100AC000D97430D9A13FC658BCBE7818319A396064
:100AD000BB8D7B3495A5F1543BB98599AFC445EBEB
:100AE00064A76E5960EB1E7AFBFD924323F127AC9D
:100AF000661266288A5CF6C63F7604E80927ED058B
:100B0000AA26E5B4AD40BAF7F484CB7F07108DB6C2
:100B1000C7D477EABA962A98F056D7FF504D59793C
:100B20003D41E0FAA99D3EA6D979C80DD156C5AD83
:100B3000D7FB703CBDF3E95D1C5393331DF81BEEEE
:100B40009FB750AC8F485961C9859EC8B0D27439DF
:100B5000DF33F528E06311A7C405BD3AD934CAF9DB
:100B6000AAE200E6E638573EEC197C0D2745C5524F
:100B7000C4FFF469C5F573734FE307C7CF38235B30
:100B80009C99A26A72B03539C10AC71C1A30601824
:100B90001D2BF0C8F179A394E336359369059107CD
:100BA000126044FDB6C6FFE0CFA2CFC2A358AC325C
:100BB000E32EEC0D9D1BFB0540BA678ECB38D7604A
:100BC0009CFE9EA170CC40728C8C507185DD84920D
:100BD0005CEE44B6E0801532DD1B4B8C6E8E39978F
:100BE000A5AFC6F42985D3859385C854E4591D4E15
:100BF000A0FEC507C1F73252F94D4585FCA0FA3772
:100C0000B59D47E852238D928743B4B84F951B1E7C
:100C10004FE545BFCEC80CB27DE7D92E88B72A6113
:100C2000E12DC4212EB84DFD2187302511EC1F295F
:100C30009431D292853817DA634D8CB4065564B777
:100C40006CFCC28D5D978609D34369E83577CCAFDC
:100C500091363C7CA36E4E4AA2C94150EAABDF8775
:100C600004704F16F5A038F56016CD0CE5C7E3AD5E
:100C700000126B12853C5C7F76ED49F29D8FDFABF5
:100C8000E1DD8701ED2C1B4B55117FC392D391C140
:100C9000D8A737C7E55B482BED31DECEFB950000CA
:100CA00000000000000008E35184000B4D26731182
:100CB0008B1EE20000000000000000040473E072DC
:100CC000FFE659C900000000000448BFABF3998754
:100CD0007C07000000000004FB33B163616112ADCA
:100CE000000000000008AA30AC174D3086BF671323
:100CF000F1A70000000000000000041B484223840C
:100D0000BB7FB4000000000008A69F43785CA14EA2
:100D10008BA6E67C49000000000000000001F731CE
:100D20005D27300000000000000000010B570B7928
:100D3000F70000000000000000024433BBB45BC7B2
:100D40000000000000000001ABE301C2D20000007F
:100D50000000000000017A079EAD84000000000042
:100D600000000002F1EEF7D829500000000000005A
:100D700000012C35543ACC000000000000000001B6
:100D8000C93D666A980000000000000005247AF75B
:100D90001C2440EBA24DC266C8372C030FF301069A
:100DA0006D9A42F0948FEDBFE3283B72693775B4BA
:100DB000A09A6E31FD665BCBF3BA8CA431FFBA7C8E
:100DC0002454D3C6638993E4EDDA58474EB58FD7E0
:100DD00093FDAF31EAB4ECC9057D2B1596C1007EB9
:100DE00080E6F747CD6A77F10E5913AA5C838870C5
:100DF000DCC4525220B6692D6C6C8B662ACD5A41E8
:100E000030D6FB7BA0EC7A22887C716EAF6206F450
:100E1000A8C688857636C5C0D867967CE84DD4FBD1
:100E2000A96F0FB2A7A3196A30FD6FFC2BCEA41BCC
:100E30008E574851C6980FE5087B4DFC59DDCF13FE
:100E40001B310C5E3B98E1F4C341D7A2645E16F9F6
:100E5000EBAE20E95D54BD99D3A7C1D9E53222D6C6
:100E60009F4FDD6B3C6DE94D965211DA2386BE0132
:100E7000C451C29CC6F52F1FD0F1F55782FECBFBA3
:100E80004ADF1D0046B8A73A566608714E47F82754
:100E9000265F6CD8C305990A758F4FC18872A05A16
:100EA0001308A382842ECEB5A34605D66A7856448D
:100EB0002386F2C963088BBDEE56D4361F3753180C
:100EC000E7DA1CFAD005D55FE7B7AD362BCB06C005
:100ED00053F432A8756FE3C9A1B0A6E6C2410F5D15
:100EE0002E0A64504692495B2D002EB5213F0B4AD5
:100EF000719688844C98AA2823EBEF455C6278D6DB
:100F0000E4FB6DC3D9356CB92AC67471C40C657C19
:100F1000A3F96E2DB986B0046394CF267D9E1EF78B
:100F200099DAE08CDD86F3C8F1C64E155DED34BB71
:100F300090CDD626091EF6238451C1AE428F8496E9
:100F4000C957AE16363A298765B2BA5696D2F50910
:100F5000EF304A0F6236FE0030BD091B50C33C48DB
:100F6000D725E18EB26F4D752DADC61EBAFA4F4131
:100F7000AF7A6FA0A04FB68834698A9E837A60F3F7
:100F8000A87E392A209C325E7DC4AA97E626354287
:100F9000A1A0EF39B31C2763D27F75C01EB4FA4DF0
:100FA0007A818139E0792F94A5283A437E97B594C8
:100FB000AF2A10380A7F4991C06C659AC6C95DD5C1
:100FC00052469874AC93E421B0EB08FAF4412EA693
:100FD000F9C5EDE33798C5DF528241A2F2561AF304
:100FE000A4C6408DB95FAA751E151E68782B2BF418
:100FF0003EC7CBF31360E0F48579880C227587B780
:1010000051E0D6E3A092D3D7E36C5B3EB780E748CC
:10101000D6D92F49CC75A004C94888E9CC3241AF54
:1010200030DEC6BC9DF7FCFF69035058A1D6B87BE3
:101030005E60FCCC0014AF3A3041B34E634795E498
:10104000BD5374D0F002B4FE48196C3F23F79B44A3
:1010500011F2C245A637776C10630E1BA7D196CA52
:101060000D4F5B4351D614B723E799A49F4C7DD70E
:10107000DD0811844D5CE96090048B1490F06F26BC
:10108000450F208CE36F4678EB12B45EF0DEEB2266
:101090002762784293BCE848C088BD0FDE232BD17D
:1010A000880AE2B4338E6136435842AE6BD7F2FE03
:1010B0000AC126947ACE8C3B435A62EF708AFE4D69
:1010C000D237DBA1B1061B30174CA0241EBECB6467
:1010D000E2CE135CD705A6763938F3852C160EB30D
:1010E000E23DFF79880B93EFAD55CDB4EF8FB81685
:1010F0007A05C05E920F4F9858D422AD43253178BF
:1011000052C69ACA5EA64E79979ABBDF6DF1E2D0BD
:10111000B3CA2A5C46825C1EDDD0C519892B2CBD62
:10112000C084D9333967E4E47926B69D1C1DE47088
:10113000A5A76189254A57337D0DCAF3CC22AAD7CA
:10114000D9CBE6B29646159568D80FDF6B36DA191B
:101150008216CE384ECFF236C880075388042FB29D
:1011600014195DC56CEF959C608B6AE4FC9DB29C84
:10117000ED1D9C1BCAA326DD9C635B3B882BBA221A
:1011800035240148EEA04F6E964E2991AAAF5647DE
:10119000BD7BDDA15599D8B5A147937BCD7BCF65AC
:1011A000DE5018F20549F199D894213F7D52C6B11D
:1011B000B4E19FF07E60648B30E4AD2C97FB47F781
:1011C0000901047BF4F7A7A804A57F0858796D26C8
:1011D000276AD0D9AFC1C71223E1AE98A40FBC1BB8
:1011E000FA9D910B1515A524531A13E0C3009538E9
:1011F0009C364CCFF6A9BCC1530604F46FBF57E030
:10120000A614A649707F392A4A5A593633B90D4770
:1012100025393704777C45AC19932549E07A7BA2C0
:10122000C695768D3C79B1A7C38363032347D7ACBA
:10123000FB84166F22490B97AAD538575E2BBBA7A4
:1012400049EDD2D57A96BE8DF5F94656F52FA7A869
:101250007AFF3FE7E88CF148E846CB4D25F9359316
:101260002FCE8BB8A9C5D3D22771866F72D9CA4E3B
:1012700090D36DB13CD3CBC9303A26459D66445CD2
:101280005FD8E3907C1BD882DDD384D4C61B58BFC3
:1012900002A53B100A3EE309940B99882B47A790BF
:1012A00089C4482536DB7231ACF5A30115D0E6219F
:1012B00061EB5972DC94000098F7B0F9FAC10A7E2C
:1012C000DC69CE905E82110B97E29955A23DFAEB54
:1012D00088BC4DC2548D5FDEA3E248132046C5A0F2
:1012E0008104C42B9A8415B89E9B62A1EC7D083CB6
:1012F000AD214B89FCC6967C3A41358A13BD1B4310
:10130000BF367A4ECE709E2AF63933C7334B347DC2
:101310002A81FA252EC5C4A1280ED54D15E06912E3
:101320007119AAFF5948815653C935124D846991E4
:1013300036D8ADF754D58CF9C684126222F1B92B98
:101340001DA57C567A4D5AC4F09D8F5DB59A7FE7F6
:10135000B7A85D6D3700000000E4F2EA7A73F8FC8C
:101360006717F3D960090E8B0FE2F98361DF5369C8
:10137000D0EE4251B5514864F8DD3EEEA747F07C0F
:101380004BBB2B8EE28B6057634B9BAA6763EAA330
:10139000D57C4341A95474D286C3114269C5093E24
:1013A0008F94AFC599BBBBAC61646101F2D359B1F5
:1013B000415091166CCC9BEC5CFE3BB3EC6ED7F1CC
:1013C0000E5A8A5F1DB0C576542607BC66F0ED51F3
:1013D0009A1FE8F751588E1E80991FEED643CCFA1B
:1013E0002FAE80F2A8A8AE437C8076D41AD4737452
:1013F00061DFBF296F561593075892F11DE87B688E
:10140000B2542030012DC5D8FD6150140F584C1A2C
:101410005400127E46990C9DD1A304F18217FEFC64
:1014200012E57581AFFF3D08D539874A8EF07AD431
:10143000D0D6CFA9D6594841C268E3A435458D140A
:101440001AC4000000000044892C63C8AF7BAC358F
:101450004327BE7ECF56403DA5AC0F97CCD46ED06F
:1014600031D7146045AEDF0AAA33B388E01C26DC0E
:1014700000B875C86711A1B58771F94A6AEC3F0ECB
:101480004121C24F928F1753EED5EA4F9175025901
:101490000000000294E4DA4AB3AAA72E9CC7804653
:1014A0005EBD06331DD85D9F5F77730A7D386BA7DD
:1014B0000E8F4E7D01DA4474D2F17A2F7FE1ECF188
:1014C000A57D033B2F17B6E80D333C2191915B308E
:1014D0002C11C6586AE4351BB5A847B3FFD0960E49
:1014E000484E9737601204FFCBA5F51D409CDF36B0
:1014F000123DD92A72DAE88BE45BCFE93852EC2C42
:10150000A0F779AD2070592062739CE34609C91297
:10151000D47755074B6A261E5D0778104E4ADA5E6F
:10152000F63B9B8DFD48D0BBAA212EF5DF854CA74D
:101530001D1A261BA082867F4B02D2F660C9860C3C
:101540001DBF736986184B44BC74E5821793B50AB6
:101550005608B74A73B804D214215E2CA0E0C20129
:101560005FDECE642AD8652BF074E354BFA09B5095
:10157000BA02002C95CE2A4FCF2B2B0E9BDD8F6706
:101580005B54A1472E842E24FA34E05A103BCFAF8F
:10159000E2ED28D1176B9A1B496CFCCB7A74092AAF
:1015A000415AFFA1F598C60CD26983D2C369875E00
:1015B0007EBBFCC0D1C117D79BE15370B743D03875
:1015C000252649405B57BA4932AA9F39AA8E730033
:1015D0008513796DF1912F9EA3A0657C7D53B47026
:1015E00053016B925F38F1D73D7AD607727ADBA14F
:1015F00065A50741004BEBC5D03BEB3061420D4B7D
:10160000A3D8078B12F5893D7CFB2E79A7BCD5BFEB
:10161000729AD81539AD2570D16CB05DBBF43AF62D
:101620006056FAF2A528AE0D76B379F14BC72E6E4F
:10163000B6616222D9A730234521DE478CEBE54C09
:101640008B4E79A09D95B305AAAFECE67473F0DCE0
:1016500037AD933B206DA1D8CFF97E9EC6BB4064C9
:1016600056A6187528D2BA78645C484570358C49FE
:101670009A454A6DF29C8D480A612EE3D4EEA82962
:10168000404B53BB5639CE816CFD37A0791CC794B3
:10169000176C37EA97F4D8D49F9F304FE5A408B869
:1016A0006BAEB9BC4F612044DF92DB1E0483C0A146
:1016B0002C09D8DF21F0200480AF7391BC0EBAE46E
:1016C000F79B363C30F1B4BADCFA65F22B1D184EAC
:1016D0001662D4AC8B21A5A2F132C3C965632D314A
:1016E0006BB88FE12493870499E6BDBA283063DA9A
:1016F000ACC799378A8666B344D584AAA15342A061
:10170000381E5DF70529E7CA2A0B6AABCEF03AF31B
:1017100090E6D125A1331C33997D24D17423FC6F2D
:101720007DDBA7E9C2DE17122D1CB37E8800000006
:101730000000000308757D9A4937AF60047CBCD374
:101740001C53703497EBE1CD3079A28694585A99A6
:10175000C269D7B232626C0A3669B1354841CE7976
:10176000967A0D2D33BF4D2FB8D8B3FBE47193B9E2
:10177000180D51ABBB09D90DD7671E4728C7F7CE47
:10178000605828235E95FC2BDBF90D1FAB49E6D092
:10179000A7377920E4CF05E36421ACDFB1E8F9E0B5
:1017A0004C3B5E89682A48C5640EDBF1538B1A2FC7
:1017B000F60C189C529B212E4AE7D6BBB71A0A2278
:1017C000AB4AFDD3027D21FFB90E0F29ABACF44427
:1017D0005E0FD5F357E54F61724EBA55378F9A1C9D
:1017E000D4B830AF0A951A1386D40A835C991B2BA0
:1017F000C093F513F5EAFB6F75746C2E77C344C57F
:101800003862B9F5AC58B4966EA4A545B51B7C9D5D
:10181000219516EE29572012BBF80A2325AC51FD5D
:101820007AE09D43B0276F2ADF0408D3F11D3C12F4
:101830008DAFF2D7B9029D46E3ABFF61C8612B19AA
:10184000C8C1A16D0AA744FAB5A8D71E53156F7A6F
:101850004841E930B5ADE2F070406AF331DD19502E
:10186000E5BCB43D839FDFC8252790405B32044729
:1018700081FA53B40A40157A745BDB24AB3AB79112
:10188000E344B747073990D2F5A9084658DC32102F
:10189000A347320445441371AC2EA7C971D0F95146
:1018A0007ECAE509A81E775B3A08AA431CD68D605C
:1018B00091466D64569E162ECEB399C8F6552713E1
:1018C00084BC8AB3C8F51A72F76A0C46952F4A860B
:1018D000B6D29894F1C3370E0C8711567EAFDA2238
:1018E000296FEBFAEC96E0276B42A170091AAD481C
:1018F00088DAFCE13B62952856702803B258678D60
:101900000AEA9A1595515F83070920BF37AFF70A96
:10191000743CA552F1E3F55830E117DE98F1387BBD
:10192000F0AFBD165952996C7470487714FF53414B
:1019300084BCC5372F71843DF5467C63E000A0561A
:1019400007F78C6357BE545CE1FDAC35FAC2D5F2A3
:101950005ABE7C318EBDDBFE4D036F5EA61F232D6C
:10196000CA68F0C614CCC33EF021D4402A72B67EB9
:10197000E285D68AFB48512777E4CBCD2FF6E1BC30
:10198000FEEDA1145FE532FCCFD9FB2FE9AD7D2D33
:1019900068E79A15956A4AE4ABE4EBE00D40BDEFC9
:1019A0008FB975B439086DC09F04FFCCDE13304E7B
:1019B000B6E4E0CB69E5C61C2F436A632572D5DF28
:1019C000BDDC0BE9089D3D266FC389F818AC42BF0A
:1019D0004E9D5D28B0264136768D8684FAD8D46730
:1019E000581969202D35FE09D98CFDF921A157DF41
:1019F00017AE8ECBC97F2654DE104372DDBC18B9FA
:101A000034F9AB70F9744D8E6D2A331406D071E63B
:101A1000ADAABE862E9A8D8788AF039FCBF8789AA1
:101A2000663809CDAE89C2CCAF6A16140948AE9BA0
:101A300055E40FA586A1757F7CEF0DCB3AB30D1F42
:101A4000020000000C801FB4F4E0A641CC870040E7
:101A50006143E7FCB40000000124CA4534253C3949
:101A6000FF098C39855A5BCC273CBD284386451736
:101A70009A4E3524A423A2FDCA6CD4FBBAE741B325
:101A8000FB7C5507B56E3EB12972CC38EA27308011
:101A9000B98CB8EE54AB3EDBDD06D095EA3E428809
:101AA0006BAE89C7E84C38B693F6BE4C204A8CCE54
:101AB0002B22D272494618568070675AFAC0CA6DF6
:101AC0005321CAE3866891D37CA9D5AD6A72A1FE81
:101AD00053E94085EA62A963753A2DEC9BFE58D81C
:101AE00073205210435C2DB421B9961F726DBA4217
:101AF000EAF285BE5212A7B13E2B89EF0F73057C27
:101B000099C3C55F9653F8AF9B7A49A0445460557A
:101B1000F0103A608D905065AEF779DB2E08F9BB76
:101B2000F2D278D086B594A10EB98189B7F9C043B5
:101B3000E88F3819DAED2FA75CDB01B338CEE6C3A6
:101B4000F2D5AA879E116FD805F072ABD9A10FFF0D
:101B500046E94A8C0093E9866F6B1470BEB1B88970
:101B6000C9CC7D1A11D279FBD9D72413948F019C4B
:101B70004B69336601829888F84C13310F58C106BF
:101B8000113000000000B48991349B89FC75CD119F
:101B9000CA1A6FFA71D645E70FEB3909B35A131F0A
:101BA000AA3A93CF8D6ECAEC2C8EC5831B5AD6D120
:101BB00089AC024FCB0F257696E05D2CFFA7EAEAB1
:101BC00092F1725BEE08D8848AA959E31277DAD6CB
:101BD000CA4E362D7CA413D1E818319902540AD08C
:101BE0007A74A0AD2C834A6FF1B1501B6469E8840C
:101BF0002F2CC8EB953DA518C74B82FC88E1D37B01
:101C00000EBE10BA6502859B469A377A774DC2C4DC
:101C10005330679154F63D39444342132E0929FD50
:101C200050A6DA94CE8697102B5C1C09CD0FFC15BC
:101C3000DC543B53E17CA7E1FD47C2AF7EEA3400B0
:101C40000000000C6FE65C04306C84C751E3B55FA4
:101C5000349EDD05000000000C1CD4BCFBCD3AAE68
:101C6000BC529254852CED0FFB00000000F873105D
:101C70005DD81F06E0A15926B4393FC119F9D4BE79
:101C80004FF433EC3F3FFE8F91D044F21278909E98
:101C900079A927EE05CB9F5A4B15DE6739181FE748
:101CA0003A0A4198E7DEA728A0D354663379B53ABB
:101CB00083375F25407047B8796B62963F48EA9F4B
:101CC0006ECB35E16F2DC4C24B9BA74D05790E1C21
:101CD000FE095A9F87227A131B9F994D05DB1573C6
:101CE000D865FE395EA4437B6C79BD73914C9B4CE7
:101CF000941887EA68A7449F5C3666FD41145EB17C
:101D00008EEB45DA770EE0EC5EF40DBF41C648F08D
:101D100015D860F74076237B1CE559445030CE0639
:101D20004EC5A670C31817A237ACBF2C6FBC9B3F23
:101D300058121110390018DB7D0BD22CEE0AAF7649
:101D4000947AC15C21D2619F1D7A9695DFA451815E
:101D5000E61BD57C3644F060FF3AF632EC8FE09A11
:101D6000C7E3BCADEBA694714B6D00000000000012
:101D700038974C36A275FFFB3FEB60E131B1BC32C6
:101D8000776CBD49934BC207BAF067FD68CAF5A4EA
:101D9000FF2A5EE2BEB569B2A063931BB4BD4612D2
:101DA000FAEE885F46DFB2BAE8BA5447EA00001894
:101DB000FA0891779B1C878B01709EC0052BAAD7D0
:101DC000AF30A8018B28A0F59599325F0000000084
:101DD000000008C4EF65453CC36DEFB8349D1C009E
:101DE00000000000000000046686F2BC9D8797BEDC
:101DF000000000000008DD58DD530F7DEC930BB9A7
:101E00005BE30000000000000000087615DFC768F3
:101E10002FA8F84D338FAE0000000000000000082E
:101E200084C3E8CB9C718009D711632100000000B6
:101E300000000000040EC6F0509E0AA799000000A2
:101E40000000149A5AF9AA5F06DF5C52374B390C2E
:101E50007E18C1ABD636F578BD9F790000000EF232
:101E600033610EC30B5A24023F42353DA4ADC53049
:101E700050000076E7E34508661821EBDD1476F89C
:101E8000F155E83B9D8B9392FFA7803438C2AD7C1F
:101E9000FFBD232B0B2C5FEAC09500FB8C376B8AB0
:101EA00042913EEFD65143216F803EBDF2B32407ED
:101EB000A5924A76513172354725E7B9D0F4C2DD93
:101EC00052353A23C416FA2A8D99D0B953C2125CFE
:101ED0003FCE8DDBD1C8D159E588FF4911ABAB7B33
:101EE000D1F2B43749A0B1FEFE6C08761D0B00009C
:101EF000009AF4B16DA0F220E417A74D85B38E7A55
:101F0000CB8730AF119020A819EA2207FAC14CE81C
:101F1000FCA2038F2AC536E4AF669BBA0ADD659042
:101F2000DAD72762D9193BABF666892DA53070E95F
:101F3000AAE2D9C12347FD9A254A5F896297614B7E
:101F400091FC341BFC97B27B87F454FCD63648C214
:101F50008779A3C48F42B13147DDE8D00A714722A7
:101F6000F3F49F287A700CBC5930E0E4132465BD6B
:101F70004C0E6D9E4D15901972C928B6950E92F9AA
:101F8000795C64B9B97BD7DCB4B9B4967F7255AECD
:101F900000001EB0028E45BDF0A590B7301240B6CD
:101FA000409CF16263726DF0BA1AF6F0406A47A283
:101FB000FC9BD87019000000000000001AF524F600
:101FC0004D2F64FDF7C3FDA7455D94318FD69F5D0E
:101FD000216641D43951AF618C1E9F00000000067C
:101FE00011E97A8831E126B61C7400000006F598E4
:101FF00035171AAB193A8CC60000000E7E14D06E4D
:10200000441C666167F18E287230D2BF7D6F00007C
:1020100008179962EE7818543AD57F61AC00000039
:10202000000000000010833E2C924F5A985997FBF5
:102030008297ADC873A26C0D06CF000000000000AF
:10204000000A69DAEB9EF7677FDEE8830B465A3FAA
:1020500000000000000002B3607FDCA3FF0000006E
:1020600000000000148ECFA26572CE3E11392D946F
:1020700094478EC78C706B7C498E3CD74C00000017
:1020800002C877A5FDBA9A000000000000000A1AF5
:102090001BD94A8303DFE2756E28D9631F00000055
:1020A000000000021827278F4BE700000000000007
:1020B00000000000A902AED5808D142001A1C881C6
:1020C0007FDB40A6AF4D4F44204E4F20524453007B
:1020D0004154532D32302A2056362E30004545507B
:1020E000524F4D205245534554000000580284037E
:1020F0000807100E000000000000442A3C54220093
:10210000082A1C2A08000808080808000060600067
:1021100000004020100804003E4141413E000042C2
:102120007F4000004261514946002141454B31004A
:102130001814127F10002745454539003C4A49498B
:102140003000017109050300364949493600064946
:1021500049291E0000363600000000412214080004
:102160007C1211127C007F49494936003E414141B1
:1021700022007F4141221C007F49494141007F09E3
:10218000090101003E41594932007F0808087F00DB
:1021900000417F4100002040413F01007F081422A0
:1021A00041007F40404040007F020C027F007F04DE
:1021B00008107F003E4141413E007F0909090600A9
:1021C0003E4151215E007F091929460026494949AF
:1021D000320001017F0101003F4040403F001F20CD
:1021E00040201F003F4038403F0063140814630044
:1021F00007087008070061514945430000007F004F
:1022000000007F10284400007C0418047800446417
:10221000544C440000FFFFFFFF01FFFFFFFF02FFE0
:10222000FF030405060708090A0B0C0D0E0F10FF2B
:10223000FFFF11FFFF12131415161718191A1B1C94
:102240001D1E1F202122232425262728292A2BFF73
:10225000FFFFFFFFFFFFFFFFFFFFFFFFFFFFFF2D60
:10226000FF2EFFFFFFFFFFFFFFFFFFFFFFFF2FFF1F
:102270002CFFFF00000000240027002A00000000BF
:1022800000250028002B00040404040404040402B4
:102290000202020202030303030303010204081003
:1022A00020408001020408102001020408102000D0
:1022B0000000080002010000030407000000000005
:1022C00000000002000A010B020C000B110C0002BE
:1022D0001E0A0100110C0000020C00020F0A01018D
:1022E0001E02013F065B4F666D7D077F6F80352FB5
:1022F00011241FBECFEFD8E0DEBFCDBF14E0A0E0B9
:10230000B1E0E2E1FEE602C005900D92AC34B10707
:10231000D9F726E0ACE4B4E001C01D92A630B207C4
:10232000E1F711E1C8E7D1E104C02197FE010E9465
:102330000137C737D107C9F70E94D32F0C9407374D
:102340000C9400008093BB0084E88093BC008091D3
:10235000BC0087FFFCCF8091B900887F803231F4C8
:1023600081E08093F30381E090E008958033D9F712
:1023700081E08093F403F7CF0E94A211089594EABC
:102380009093BC009091BC0097FFFCCF90E0880F29
:10239000991F0E94BC1108958091F203815080938F
:1023A000F203882351F084EC8093BC008091BC0040
:1023B00087FFFCCF8091BB00089584E88093BC0028
:1023C0008091BC0087FFFCCF8091F503882321F02A
:1023D00084E98093BC00EECF84EA8093BC008091B6
:1023E000BC0087FFFCCFE6CFCF93C62F21E0209320
:1023F000F5036093F20324EA2093BC002091BC0013
:1024000027FFFCCF880F991F8E7F917081600E94FB
:10241000BC118C2FCF910895E42FF0E023E0F595C7
:10242000E7952A95E1F724E0629FB0011124E60FB9
:10243000F71FE80FF91F477021E030E001C0220FBD
:102440004A95EAF78081822B8083089590E0FC0111
:10245000E155FD4D2491FC01E556FD4D3491FC0103
:10246000E957FD4DE491EE23C9F0222339F02330E2
:1024700001F1A8F4213019F1223029F1F0E0EE0F3A
:10248000FF1FE358FD4DA591B4918FB7F894EC91DF
:10249000611126C030953E233C938FBF08952730AD
:1024A000A9F02830C9F0243049F7809180008F7D51
:1024B00003C0809180008F7780938000DFCF84B548
:1024C0008F7784BDDBCF84B58F7DFBCF8091B0004B
:1024D0008F778093B000D2CF8091B0008F7DF9CFFD
:1024E0003E2BDACFCF93DF9390E0FC01E556FD4D14
:1024F000249189579D4DFC0184918823D1F090E06F
:10250000880F991FFC01ED58FD4DA591B491FC0178
:10251000E358FD4DC591D491623071F49FB7F894A2
:102520003C91822F809583238C93E8812E2B2883E6
:102530009FBFDF91CF9108958FB7F894EC912E2B28
:102540002C938FBFF6CF62E082E10E94721262E0AC
:1025500083E10E94721288E48093B8001092B9005F
:1025600008958E3008F08E508770806480937C00D0
:1025700080917A00806480937A0080917A0086FD51
:10258000FCCF809178009091790008953FB7F8943E
:1025900080910E0590910F05A0911005B091110545
:1025A00026B5A89B05C02F3F19F00196A11DB11DAE
:1025B0003FBFBA2FA92F982F8827BC01CD01620FEA
:1025C000711D811D911D42E0660F771F881F991FA5
:1025D0004A95D1F708958F929F92AF92BF92CF9272
:1025E000DF92EF92FF926B017C010E94C6124B01B9
:1025F0005C01C114D104E104F104B9F00E94C612D7
:10260000681979098A099B09683E7340810591051B
:1026100080F321E0C21AD108E108F10888EE880EA3
:1026200083E0981EA11CB11CE4CFFF90EF90DF90D7
:10263000CF90BF90AF909F908F900895CF93DF93EE
:10264000C9EAD5E061E088810E9472126AE070E018
:1026500080E090E00E94EB1260E088810E942612E8
:102660006AE070E080E090E00E94EB1261E0888117
:102670000E9426126AE070E080E090E00E94EB1277
:10268000DF91CF9108952FB7F89460910A0570916A
:102690000B0580910C0590910D052FBF08950895AD
:1026A000B0E0A0E0E6E5F3E10C94D2366C017B01EA
:1026B0008B01040F151FEB015E01AE18BF08C01798
:1026C000D10759F06991D601ED91FC910190F0810B
:1026D000E02DC6010995892B79F7C501CDB7DEB785
:1026E000EAE00C94EE360F931F93CF93DF930BEA3F
:1026F00014E0EC01C457DF4FC8010197F1F761E026
:1027000070E0888199810E94F4110E94CC1187FFAA
:10271000F3CFDF91CF911F910F910895FF920F9307
:102720001F93CF93DF938C01EB010E944313607FD3
:102730007370D801ED91FC919F012F703327AF0189
:10274000407F5370FF2EF694F694B7E0BF15F8F073
:1027500089B190E00F2C02C0959587950A94E2F715
:1027600081706417750708F47C5FDB01A41BB50B4F
:102770002330310591F1E8F42130310549F110F1B0
:10278000882309F469C0A034B10520F519C0AF2D24
:10279000B0E08DE08F1548F083B190E0189702C04B
:1027A00095958795AA95E2F7DBCF86B190E01E97C5
:1027B000F6CF25303105A1F160F126303105C9F1A0
:1027C00080E010C08111FCCFAB0121E030E00AC0F5
:1027D000882399F130E020E0F3CF811131C0A0349B
:1027E000B14090F5EE27FC7FE22BF32B407F537036
:1027F0004E2B5F2BD8014D935C93882379F1209762
:1028000019F06F2DFE010995CDB7DEB7E5E00C9408
:10281000F33681111EC0D09728F3AB0187E0E2CFD9
:1028200024E030E08823F1F2AB0122E030E08BE0DD
:10283000D9CF22E030E08111D5CF23E030E0D2CFF4
:10284000AB0126E030E0BCCFAB0124E030E083E018
:10285000C9CF25E030E0B4CFAB01C4CF2330310580
:1028600098F288E0D1CF0E94BF1180E490E00E94EE
:10287000BC1108950E94BF1190E080E00E94BC113D
:102880000895AEE2B1E014962C911497E4EFF4E0D1
:1028900020835C969C915C97928354968C91848360
:1028A0002183938385830895F894E1E6F0E090E82E
:1028B0009083808378940895F8948091B70481116F
:1028C00003C086B18095817078940895E0919B0350
:1028D00081E1E802F0011124E154FE4F81859285E7
:1028E0009093CD048093CC040895E0919B03809154
:1028F000CC049091CD0421E1E202F0011124E154D5
:10290000FE4F248135818217930738F02681378165
:102910002817390710F09287818708959CEF960F4A
:10292000923030F06A50623018F0833009F481E060
:10293000089589B199B1E091DF04EF70869586958D
:10294000827092FB992790F9892B94E0E99FF0011E
:102950001124EA50FC4FE80FF11D87FDFA958081A4
:102960008093DF04807369F0F894803159F08FEF21
:102970009FEF9093CF048093CE0481E08093B704BF
:102980007894089581E090E0F4CF98E0899FF00179
:102990001124E25DFE4F948181E0891B84830895B8
:1029A00080E10E94C51408958CE00E94C51408952A
:1029B0008EE00E94C514089581E00E94C514089518
:1029C0008DE00E94C51480919A010E9454140895CC
:1029D0008FE00E94C5140895FC018081280F2617FE
:1029E00014F440830895421714F0208308956083FF
:1029F0000895282F44E060E08AEB91E00E94EC14F7
:102A00000895CF93DF93EC01462FE0919B0381E182
:102A1000E802F0011124E154FE4FE485E95FF0E0A3
:102A2000EE0FFF1FE45FFE4F8081918168EE73E03F
:102A30000E945736FB01309779F028813981C9010E
:102A40000E944336009741F0442311F02E0F3F1FA0
:102A5000281B390B39832883DF91CF9108950E9479
:102A6000431328EE33E040E050E00E946B36309391
:102A7000DB042093DA0481E08093DC0408950E9453
:102A800043131092C9041092C804089580912D0137
:102A9000882329F090912D0181E0943008F080E0A6
:102AA00008958436910520F40A9758F481E008953A
:102AB000803127E2920738F4883E934030F483E077
:102AC000089582E0089585E0089584E008958F9246
:102AD0009F92AF92BF92CF92DF92EF920F93CF93DC
:102AE000DF93EC0131E0211101C030E0340FFE0131
:102AF000E30FF11D1082F0E0E0E0842F821B990BC0
:102B00004C018AE0A82EB12CE417B8F4222341F03E
:102B10008E169F0629F43150DE01A30FB11D0C93D0
:102B200031506E01C30ED11CCB01B5010E9443365A
:102B3000805DD6018C933196E7CF211101C0242FFF
:102B400080E02150330BE82FF0E0E217F30744F464
:102B5000EC0FFD1F9081903319F4E0828F5FF3CF6B
:102B6000DF91CF910F91EF90DF90CF90BF90AF901A
:102B70009F908F900895089590E080E008958F923F
:102B80009F92AF92BF920F931F93CF93DF93CDB7D6
:102B9000DEB7A1970FB6F894DEBF0FBECDBF19A266
:102BA000423008F44AE08E010F5D1F4F842E912CB5
:102BB000B12CA12CA50194010E946B36E62FB9011E
:102BC000CA01EA3044F5E05DD801EE938D01232B74
:102BD000242B252B79F790E080E0109769F0FD0118
:102BE00001900020E9F73197AF014A1B5B0BBD0153
:102BF00085EF95E00E945013A1960FB6F894DEBFC2
:102C00000FBECDBFDF91CF911F910F91BF90AF90BD
:102C10009F908F900895E95CD7CF009771F0BC0129
:102C2000FC0101900020E9F73197AF01481B590BD7
:102C300085EF95E00E945013089590E080E008959C
:102C400084E98093BC008091F303882331F01092D3
:102C5000F3031092F40382E008958091F403882333
:102C600021F01092F40383E0089580E008950F931B
:102C70001F93CF93DF93182F092FEB0182E195E08B
:102C80000E94731380919E050E94BF1182E190E023
:102C90000E94BC1190E080E00E94BC11802F0E9435
:102CA000A211812F0E94A2118D2F0E94A2118C2FA0
:102CB0000E94A2110E94201683E998E00197F1F783
:102CC000DF91CF911F910F910895CF93C82F682F57
:102CD00070E080E090E40E943716C093F105CF9138
:102CE000089585E00E94C51480912D01843059F427
:102CF00080915A0162E0811101C061E070E080E0E2
:102D000091E10E9437160895282F4AE56CE082E48D
:102D100091E00E94EC1480912D01843099F0809113
:102D2000420194EF980F9F3468F48093B40524E532
:102D300031E0829FB001839F700D112483E091E305
:102D40000E9437160895282F4FE360E082E591E056
:102D50000E94EC148091AA05803239F060915201F2
:102D600070E083E093E30E9437160895282F40E235
:102D700060E08AE491E00E94EC1480912D0184309F
:102D800039F060914A0170E082E093E30E943716C7
:102D9000089582E195E00E94731380919E050E9440
:102DA000BF1182E190E00E94BC1190E080E00E949F
:102DB000BC1181E00E94A21181E00E94A2118091C9
:102DC000EE050E94A2118091ED050E94A2110E94C1
:102DD000201683E998E00197F1F7089587E00E94B3
:102DE000C5140E944615882351F08091EE059091FC
:102DF0006A0190FB85F98093EE050E94C91608953B
:102E0000E0919B0381E1E802F0011124E154FE4FBF
:102E1000E7850E2E000CFF0B90917A018091ED0555
:102E2000992329F020912D019150233051F4E35D35
:102E3000FB4F2081222321F0245091E0223008F41E
:102E400090E09295907F8F70892B8093ED050E9482
:102E5000C9160895282F42E060E08AE791E00E94B9
:102E6000EC140E94461581110E9400170895CF931B
:102E7000DF93D82FC92F82E195E00E947313D0937E
:102E8000BD05C093BE05C093C005D093C105909108
:102E9000F305992361F08091BF059295990F990FE1
:102EA000907C8370892B81608D7F8093BF0580919A
:102EB0009E050E94BF118091AA050E94A2118091D7
:102EC000BF050E94A2118091C0050E94A2118091AD
:102ED000C1050E94A2118091C2050E94A211809199
:102EE000AA05803421F48091C3050E94A2110E949A
:102EF000201682E195E00E947313D093AF05C09332
:102F0000B0056091A0057091A10590E080E00E945D
:102F1000EB12DF91CF9108951F93CF93DF9382E15E
:102F200095E00E94731380919E050E94BF1181E07D
:102F300090E00E94BC118091EF050E94A211809147
:102F4000F0050E94A2110E94201682E195E00E94E5
:102F500073136091A2057091A30590E080E00E9438
:102F6000EB128091F40587FD07C060E00E942612F5
:102F70008BEA94E00197F1F78091B50581111EC0AD
:102F8000C091B805D091B905BE0181E092E00E94E0
:102F90003716D093B905C093B8051091BC05C09100
:102FA000BA05D091BB05BE0182E092E00E943716BF
:102FB000D093BB05C093BA051093BC05DF91CF91A8
:102FC0001F9108958091F40587FD07C061E00E947C
:102FD00026128BEA94E00197F1F782E195E00E94D6
:102FE000731380919E050E94BF1181E190E00E94C1
:102FF000BC110E9420168BE097E20197F1F708952B
:10300000CF93C82FCF7082E195E00E947313809117
:103010009E050E94BF1182E190E00E94BC1190E0E9
:1030200080E00E94BC1181E30E94A21182E00E9414
:10303000A21181E00E94A2118C2F0E94A2110E9475
:10304000201682E195E00E947313CF910895B0E0BD
:10305000A0E0EDE2F8E10C94D136EC01162FFC0172
:10306000E856FF4F8081803261F098E0E92EF12C24
:1030700002E4803451F026E0E22EF12C02E58035A6
:1030800021F088E0E82EF12C02E2CE010E947313B9
:10309000110F12706E018CE8C80ED11CF6018081F0
:1030A0000E94BF11802F0E94A211812F0E94A211A5
:1030B0000E9420165E01FAEBAF0EB11CCE010E94F9
:1030C0007313B701F601808191810E94F411912C54
:1030D000092D10E00E151F0554F40E94CC110C0FA1
:1030E0001D1FF801E654FF4F80839394F1CFF50143
:1030F000808186FDE3CFCE010E947313CDB7DEB78A
:10310000EBE00C94ED36B0E0A0E0E9E8F8E10C94D7
:10311000D4368C01D62FFC01E856FF4F808198E011
:10312000E92EF12CC3E2803251F026E0E22EF12CA0
:10313000C3E4803521F488E0E82EF12CC3E5C80112
:103140000E94731368018CE8C80ED11CF6018081BF
:103150000E94BF118C2F0E94A2118D2F0E94A211DC
:103160000E942016C8010E947313B701F6018081E6
:1031700091810E94F411D12CCD2DD0E0CE15DF0528
:103180004CF40E94CC11C00FD11FCE54DF4F888366
:10319000D394F2CFCDB7DEB7E8E00C94F036CF93FE
:1031A000DF93EC010E942016188283E090E00197E3
:1031B000F1F7DF91CF910895CF93DF93EC01862F44
:1031C0000E94A21188898F5F888B803138F0CE01F0
:1031D00040960E94CF188C810E943314DF91CF91CA
:1031E0000895B0E0A0E0E7EFF8E10C94D536D82FD1
:1031F000C62FF42ED22E8091F9050E943A1461E276
:1032000085EF95E00E94DC186D2F85EF95E00E9418
:10321000DC186FEF6F0D6D0F85EF95E00E94DC18E5
:1032200062E285EF95E00E94DC18EC2EE694E694CD
:10323000E6946E2D85EF95E00E94DC18CD0DDD271C
:10324000DD1F219783E0D595C7958A95E1F76C2F0F
:1032500085EF95E00E94DC1885E096E00E94CF188B
:10326000CE19CF5FCF9DE00111248091F9050E9416
:1032700033147801C00FD11FEC16FD0671F060E029
:103280000115110511F0F701608185EF95E00E94AD
:10329000DC18FFEFEF1AFF0AEFCF85E096E00E94FF
:1032A000CF18CDB7DEB7E7E00C94F136B0E0A0E080
:1032B000ECE5F9E10C94D4366C018B017A01E9015B
:1032C0008091F9050E943A1461E285EF95E00E9431
:1032D000DC1860E0D7FC07C06091FC0570E0C61602
:1032E000D7060CF4B60185EF95E00E94DC186091DA
:1032F000FC0570E0E616F7060CF4B70185EF95E0E3
:103300000E94DC1862E285EF95E00E94DC1860E024
:1033100017FD07C06091FA0570E0061717070CF457
:10332000B80185EF95E00E94DC1860E0D7FD07C08A
:103330006091FA0570E0C617D7070CF4BE0185EF5F
:1033400095E00E94DC1885E096E00E94CF18CDB78A
:10335000DEB7E8E00C94F036E5EFF5E0948783877C
:103360007687658723E0759567952A95E1F747810C
:1033700050E09B010E945619089523E0660F771FC5
:103380002A95E1F70E94AC190895FF920F931F93BD
:10339000CF93DF938A01F22E70E090E00E94BD1976
:1033A000C5EFD5E0F886C8010E940D161886CDB786
:1033B000DEB7E5E00C94F336EF920F93CF93DF93F3
:1033C00000D01F92CDB7DEB78091D90481111DC006
:1033D0008091B904811121C06091F10570E080E213
:1033E000E82E00E020E042E0CE0101960E94671541
:1033F0008091070521E0813009F020E0AE014F5FA8
:103400005F4F60E082E70E94C5190F900F900F9008
:10341000DF91CF910F91EF90089580E289838DE441
:103420008A831B82E5CF9091B904992341F0892FBB
:103430001092B9040E9465160E94DC1908959091BB
:10344000F105890F803414F08FE3F4CF87FFF2CFBA
:1034500080E0F0CFCF93C82F8091B904882341F04A
:10346000C3FD11C0C13011F4663069F481E009C0B8
:103470008C2F8370833039F4CB3029F08FEF663096
:10348000A9F30E94131A8C2FCF9108958091D9042B
:10349000811112C080910705813071F09091F10582
:1034A0008091B904992349F0811109C09093B9041E
:1034B0000E9465160E94DC1908958823D9F30E94A2
:1034C00065161092B904F6CFCF93C82F8091F905F5
:1034D0000E94BF1180E890E00E94BC116C2F85EF24
:1034E00095E00E94DC1885E096E00E94CF18CF910D
:1034F000089580919C0381111CC080910805882348
:10350000C1F081E080939C0380919A010E94541441
:103510008FEA0E94641A109208050E94431328EE55
:1035200033E040E050E00E946B363093DB042093A0
:10353000DA0408958091D90481110EC080919C0312
:1035400081110AC081E080939C0380919A010E94BE
:1035500054148FEA0E94641A0895CF93DF93209148
:10356000FA0530E04091FC0550E070E060E090E04A
:1035700080E00E9456198091F9050E943314C0E042
:10358000D4E060E085EF95E00E94DC182197C9F750
:1035900085E096E00E94CF186091020670910306C4
:1035A00080910006909101060E94AC19DF91CF91A5
:1035B0000895A3E0B0E0EFEDFAE10C94D5369B83DB
:1035C0008A83FC012781838594850696281719062E
:1035D0000CF43AC0062F84810E943314F12CE12CA4
:1035E000F0EEF00FF9830052110B0C5E1D4D86E0DA
:1035F000D82E89818F3570F5F80184918F3F51F174
:10360000F7018D9DE00DF11D1124EC50FF4D6491EB
:10361000EA81FB818085811160958A819B810E946E
:10362000DC18EA81FB8183859485019694878387E2
:10363000FFEFEF1AFF0A86E0E816F104D1F68A815F
:103640009B8140960E94CF1881E090E02396E7E0AE
:103650000C94F13660E0DCCF682F85EF95E00E9496
:10366000D91A0895CF9380912D01833089F48091E8
:103670000901C5E5813009F4CCE468E370E088E134
:1036800090E00E94AC198C2F0E942C1BCF910895C2
:103690000E944615882329F080918201C3E581307C
:1036A00061F380912D01843029F48091D004CAE225
:1036B0008111E3CFC0E2E1CF0F931F93CF93DF934C
:1036C0008C01D0E0C0E0F801EC0FFD1F649166238F
:1036D00041F085EF95E00E94D91A892B11F02196CF
:1036E000F2CFCE01DF91CF911F910F910895FF92FC
:1036F0000F931F93CF93DF938A01F22E70E090E037
:103700000E94BD19C5EFD5E0F886C8010E945C1B78
:103710001886CDB7DEB7E5E00C94F33680912D0125
:103720008330F8F4E0919B03813018F181E1E802E5
:10373000F0011124E154FE4FE78545EF50E0E40F1E
:10374000F52FF11D44918091070521E0833009F0A8
:1037500020E050E045505F4F67E088E20E94771B11
:1037600008958330E9F3843071F0E0E050E040E008
:10377000E6CF81E1E802F0011124E154FE4FE68535
:103780004EEE50E0DCCFE0919B0381E1E802F001D6
:103790001124E154FE4FE08949EE50E0D0CFEF9282
:1037A000FF920F931F93CF93DF93182FC0919B032A
:1037B000EC2E0C2E000CFF080E94461501E1C00201
:1037C000E0011124882341F1212F45E060E0CE0182
:1037D00082539E4F0E94EC140E9DF0010F9DF00D40
:1037E0001124E154FE4FE7850E2E000CFF0BE35D24
:1037F000FB4F90819F708091ED05807F892B809396
:10380000ED050E94C9160E9400170E948E1BCDB7BD
:10381000DEB7E6E00C94F23600912D0101111AC0DA
:10382000C353DE4F212F46E060E0CE010E94EC142E
:10383000011116C08091AA05803439F7E8810E2E57
:10384000000CFF0BEA5DFB4F80818730F0F60E9491
:103850000018DBCFC153DE4F212F219544E0E4CF88
:10386000688170E082E091E10E943716CECF1F930D
:10387000CF93DF938091070511E0823009F010E0CB
:10388000212F42EE50E060E082E20E94771BC0915F
:103890009B030C2E000CDD0B80912D018430D1F4A4
:1038A00081E18C9FF0018D9FF00D1124E154FE4FBA
:1038B00085858C5F1093FD0527E0829FC001112450
:1038C0008E589F4F0E945C1B1092FD05DF91CF9197
:1038D0001F9108950E944615882359F081E18C9F1D
:1038E000F0018D9FF00D1124E154FE4F8485895F16
:1038F000E1CF81E18C9FF0018D9FF00D1124E15407
:10390000FE4F8385D7CF0F931F93CF93DF93C09143
:103910009B032C2F0C2E000C330B90912D0141E1B9
:10392000C402E0011124913050F1943010F1943030
:1039300031F5C453DE4F06E011E042E0282F60E08D
:10394000CE010E94EC140115110561F08881880FE9
:10395000990B080F191FF801808191819093B2058E
:103960008093B1050E94371CDF91CF911F910F9179
:103970000895C553DE4F10E000E048E0DFCFC653A6
:10398000DE4F91E1929FF001939FF00D1124E154DD
:10399000FE4F90850CE011E043E0923078F246E073
:1039A000CDCFCF93C0918A018091F9050E943A143E
:1039B00061E885EF95E00E94DC1882E8C89F9001DD
:1039C00011242455384EAC2FB0E00E94B43661E08B
:1039D000670F85EF95E00E94DC1885E096E00E9475
:1039E000CF18CF91089590918A01890F8A300CF0F9
:1039F00089E087FD80E080938A010E94D11C0895B0
:103A0000CF93DF93209162018091CA049091CB04FF
:103A100034E62302800D911D112420912D012330C5
:103A200031F420910901223079F5845F9140209191
:103A3000AA05203231F1CC27DD27C81BD90B82E142
:103A400095E00E94731380919E050E94BF1182E150
:103A500090E00E94BC1190E080E00E94BC1181E0E7
:103A60000E94A21180E00E94A2118D2F0E94A2113B
:103A70008C2F0E94A2110E94201683E998E00197E2
:103A8000F1F7DF91CF9108958C509E4FD0CF282F22
:103A900049E167EE82E691E00E94EC140E9446152F
:103AA00081110E94001D0895A8E0B0E0EAE5FDE163
:103AB0000C94D0363B9A439A88E08093B8000E94D9
:103AC000E21782E195E00E94731380919E050E94A7
:103AD000BF1181E090E00E94BC118FE190E00E9454
:103AE000BC1185E090E00E94BC110E9420167E016E
:103AF00029E0E20EF11C82E195E00E94731368E078
:103B000070E080919E0590919F050E94F4118E01B6
:103B10000F5F1F4F0E94CC11F80181938F01EE16A9
:103B2000FF06C1F7898186FDE6CF8BE097E201971A
:103B3000F1F782E195E00E94731380919E050E9447
:103B4000BF1181E090E00E94BC1181E390E00E94EF
:103B5000BC1185E090E00E94BC110E94201660918B
:103B6000A2057091A30590E080E00E94EB1262E351
:103B700070E080E090E00E94EB12D12CC12C10E0AC
:103B800000E02BEAA22E24E0B22E81E192E0FC01BB
:103B900025913491C216D30609F460C00296F2E072
:103BA0008F379F07A1F796E1F92E80919E050E941D
:103BB000BF118F2D0E94A211F12CE12CC801815858
:103BC0009D4F4C01F401EE0DFF1D84910E94A21146
:103BD0009FEFE91AF90AE7E0EE16F10499F70E945F
:103BE0002016C5010197F1F7FFEFCF1ADF0A095F31
:103BF0001F4F07332EE1120709F0C7CF83EE93E082
:103C00000197F1F78091AA058032E1F0E0919B03E2
:103C100081E1E802F0011124E154FE4FE7850E2E08
:103C2000000CFF0BE35DFB4F80818F708061809300
:103C3000ED058091EE058078806180688093EE05C7
:103C40000E94C91688E48093B80081E08093B8048C
:103C50003B9A43982896ECE00C94EC3685E1F82EDC
:103C6000A4CF1F93CF93DF9391E018160CF090E050
:103C7000CFEFC80F82300CF4C0E08091AA05D8E2E3
:103C8000803221F0D8E4803509F4D8E510E090FBCB
:103C900010F982E195E00E94731380919E050E94C5
:103CA000BF118D2F0E94A211812F0E94A2118C2F73
:103CB0000E94A2110E94201682E195E00E947313D7
:103CC000DF91CF911F91089590912D0145E294309D
:103CD00009F44AE1282F60E082E391E00E94EC14AD
:103CE000809132010E94311E08950E944615E82FEE
:103CF000F0E0EC50FB4F80810E94311E0895682F48
:103D000070E090E080E04AE00E94BF150895CF93F4
:103D1000DF9370E060E090E080E00E94AC19C5EFB6
:103D2000D5E081E088878EEF91E00E945C1B809156
:103D30000B010E947F1E8CE70E942C1B83E00E94D7
:103D40007F1E1886DF91CF9108951F93CF93DF9345
:103D500070E060E090E080E00E94AC1981E0809328
:103D6000FD058AE791E00E945C1B1091FD04112380
:103D700019F1D091FA04DF5F91E0DA3008F092E0B7
:103D800081E01A3008F082E0C4E0C91BC81BC150B2
:103D900020F080E20E942C1BFACF8D2F0E947F1E04
:103DA0008CE70E942C1B812F0E947F1E1092FD0524
:103DB000DF91CF911F91089584E791E00E945C1BF1
:103DC000F5CFCF938091D904811112C08091DE0488
:103DD00081110EC068E370E08AE590E00E94AC19A2
:103DE000C0912C01CF3F31F48EE690E00E945C1B25
:103DF000CF910895CA3018F480E20E942C1B8C2FBA
:103E00000E947F1E8CE70E942C1BF2CF0F931F9302
:103E1000CF939091BA04992309F4CFC09091A20155
:103E2000913009F44DC090E1C82F892F0E94B11242
:103E30001816190614F08BEE91E0209100013091D4
:103E400001012F3F3F4F21F4909301018093000126
:103E5000609100017091010147E0469F9001479FEA
:103E6000300D1124280F391F83E0359527958A9549
:103E7000E1F7309301012093000164E6273882E0E6
:103E80003807B0F460E02C3E81E0380788F029362E
:103E900082E03807B8F042E1429FC001439F900D95
:103EA000112480559B426FE170E00E9443366E5AA8
:103EB00080910201962F981BA9F510924C043FC0E7
:103EC0009FE0B2CF223482E0380770F043E2429F95
:103ED000C001439F900D1124835E9E4467E270E011
:103EE0000E944336615DE4CF233182E0380770F0F1
:103EF00048E2429FC001439F900D1124805D92458E
:103F00006FE270E00E944336695FD2CF429FC001EA
:103F1000439F900D11248D569D4067E270E00E94F2
:103F20004336C6CF9E5F953018F060930201C5CF2F
:103F300090914C049F5F90934C049530B0F70E9491
:103F4000431300914D0410914E0420914F04309181
:103F50005004601B710B820B930B6131774281051A
:103F6000910510F4CC2349F18091D90481111BC033
:103F7000C091020167E070E08CE690E00E94BD19FC
:103F80001092FD056C2FC53608F064E670E090E0F5
:103F900080E04AE00E94BF151092FD05C43618F477
:103FA00085E20E942C1B0E94431360934D04709382
:103FB0004E0480934F0490935004CF911F910F9122
:103FC0000895A9E0B0E0E7EEFFE10C94CA36D09086
:103FD000FD04DD2009F488C0F090FA049BEAF99E04
:103FE000F12C1124F694811183C0809104018F1566
:103FF00009F451C0F0920401D1107CC010E000E03F
:1040000028E340E868E080E00E94F11820E04BE8F7
:1040100051E064E084E20E94771B2996E2E10C946F
:10402000E636ED91FC9111978150B12CA12C833093
:1040300098F413968D919C9168EE73E00E94573628
:1040400097FF04C088519C4F61507109E60FF71F1C
:10405000B1010E9457365B0180E2E82E0EE220E0BB
:1040600045E0BF01CE0101960E946715CE01019681
:104070000E940D168EE20E942C1BBAE0AB16B10412
:1040800018F480E30E942C1BB50190E080E04AE028
:104090000E94BF15B0C0DD2009F4BFCF4F2C440CE7
:1040A000F40C8F2D90E02D2D30E003962817390762
:1040B0000CF4C901182F02E0F11608F0AECF602F02
:1040C00070E090E080E00E94BD198091FA04F8163B
:1040D00031F080E20E942C1BF3940E5FEDCF8EE353
:1040E000F9CF109204018ACF8111FBCFF12C7DCF43
:1040F000F092040110E000E028E340E868E080E08E
:104100000E94F1184F2C440CF40C8F2D90E02D2DB3
:1041100030E00396281739070CF4C901898725E098
:10412000F29EC0011124DC01AD5ABB4F6D014F2C32
:10413000512C712C612C92E0F92E2AE0222E312C88
:10414000B42CB9854B1608F068CFA090FA0410E0A3
:1041500000E028E040E86F2D660F660F660F80E0F4
:104160000E94F1188F2C912CB40190E080E00E9405
:10417000BD1980E24A1001C08EE30E942C1BE8E0CA
:10418000EB1518F080E30E942C1BFFEF4F1A5F0A1B
:104190006F0A7F0A4AE0C301B2010E94BF1580E2A4
:1041A0000E942C1BD60112968C911297843009F034
:1041B00038CF8D919C9164E670E00E9443365B019C
:1041C000B1010E944336162F8FE394E00E940D1632
:1041D000B4E6AB16B10418F480E20E942C1BB501C2
:1041E00090E080E04AE00E94BF158EE20E942C1B06
:1041F000812F0E947F1EB40184E590E00E94BD19CA
:10420000F6018281F4E08F9FC00111248E5E9B4FE6
:104210000E940D1625E0C20ED11CF394F39490CFAA
:104220000E9443136093FE047093FF048093000583
:10423000909301054091FD044423B1F04150209139
:10424000FB0460E08AEF94E00E94EC149091BE01C0
:104250008091FA0498130E94A51E8091FA0480931D
:10426000BE0180E00E94E11F1092FC041092FB044A
:104270000895A2E0B0E0EFE3F1E20C94CA366A835D
:104280008DB69EB6E0EDE80FEA3008F45CC08E32E1
:1042900009F082C044E04983A98194E0A99F90017C
:1042A00011244DB75EB7421B530B0FB6F8945EBF97
:1042B0000FBE4DBF0DB71EB70F5F1F4FADB7BEB7D7
:1042C00011961C9211971296200F311F1D92A21762
:1042D000B307E1F78E3209F4EAE0F0E0ED51FD4D6D
:1042E000E49183EC682E82E2782EB12CA12CEE2E84
:1042F000F12CC7010A2C02C0959587950A94E2F724
:1043000080FF34C0F30144903196C49031965490AC
:104310003196D49022242394240CDD20B9F0D12CA2
:10432000222423942C0C5D1409F1342C3D0C4C2DCB
:10433000632DC8010E940C12422D632DC8010E94FA
:104340000C12D394F0CF5EE05983A6CF5D1471F0C8
:104350003C2C3D0C432D642DC8010E940C12432DB2
:10436000622DC8010E940C12D394F0CFFFEFAF1A58
:10437000BF0A44E0640E711C58E0A516B10409F0B0
:10438000B8CF20E2498160E18A810E94F1180FB61E
:10439000F8949EBE0FBE8DBE0FB6F8949EBE0FBEA3
:1043A0008DBE2296E2E10C94E636A7E0B0E0EBED9C
:1043B000F1E20C94CF369091D904911153C0182F8B
:1043C0000E944615882EA090CC04B090CD04811197
:1043D0006DC0E0919B0391E1E902F0011124E154E9
:1043E000FE4F808538E4C32E34E0D32E23E08330A3
:1043F00081F0823049F48091AA0178E4C72E74E0FC
:10440000D72E22E0813029F024E4C22E24E0D22EDF
:1044100020E08FE2E82E0EE245E0B501CE010196E4
:104420000E946715C5010E945115982EB12CA12C30
:104430009CE0F92E65C080915204891509F46BC087
:1044400040E84F1910E000E020E260E18F2D61C0EC
:1044500081100CC020E0A60164E08CE60E94C51922
:10446000909252042796EDE00C94EB36B80162501E
:1044700071098EE20E94392198012C5F3F4FC501DE
:104480006AE070E00E944336962FF82EB90180E36F
:10449000890F0E943921B8016C5E7F4F80E38F0D38
:1044A0000E94392184E08915A8F6DACF8091CA04E8
:1044B0009091CB0468EE73E00E94573697FF04C0DA
:1044C00088519C4F615071096B01CA0CDB1C6AE07A
:1044D00070E00E9457365B01C6010E945115982E6C
:1044E00040E2E42E0EE220E0482FB601CE01019614
:1044F0000E94671553E0F52E64E4C62E64E0D62EC4
:10450000112309F498CF10E000E020E240E860E1D8
:1045100080E00E94F1180F2D10E0CE0101967C0181
:10452000F70171907F01772009F492CFB801872DB0
:104530000E943921FEE286E090E07F1611F080E1D2
:1045400090E0080F191FECCF9093CD048093CC041A
:1045500080E00E94D52164E670E080E090E00E9457
:10456000EB12089580910705E0919B03843059F484
:1045700081E1E802D0011124A154BE4F21E0189638
:104580008C91833009F420E081E1E89FF00111244F
:10459000E154FE4F84E0A2E0B5E001900D928A95CF
:1045A000E1F71092060542E055E060E080E00E94ED
:1045B000C519089580910705843061F4E0919B034B
:1045C00081E1E802F0011124E154FE4F21E08085F1
:1045D000833009F020E040912D0184E0489FA00144
:1045E00011244E5E5B4F67E080E00E94C51980E2B7
:1045F0000E942C1B0E94321B8091D904811102C0A1
:104600000E94B22208950E94D5210E94DA220E94BF
:10461000371C0E948E1B81E00E94061F0E94DC193D
:104620000E94E11E0895B0E0A0E0E9E1F3E20C94FD
:10463000D136F82EE0919B0381E1E802F0011124CC
:10464000E154FE4FC085BB24B394C33009F0B12CB4
:1046500080912D01AA24A394843009F0A12CAB14DD
:1046600011F03B9A439A0E9466148FEF80932C01BD
:1046700090919201C33009F491E08091BF05837C51
:104680008093BF052091AA05203409F45DC1903CB8
:1046900008F090E09093C2058091AF059091B0052D
:1046A0000E94371700919B03002E000C110BC330A2
:1046B00009F052C184E080932D011092D00481E171
:1046C000809FF001819FF00D1124E154FE4FA585DC
:1046D0000A2E000CBB0BAA5FBE4F2C91022E000CC1
:1046E000330B8185928546815781C481D581D093D2
:1046F000AC05C093AB055093AE054093AD05309328
:10470000B2052093B1058C179D0720F04817590773
:1047100008F0EC010E94E2179091F2052091B50596
:104720003091B7058091EF054091B60540FB87F9C0
:1047300030FB86F98F7D20FB84F9807F8093EF0525
:104740009093F00580E28093AA058091BF05807C5C
:1047500083608093BF051092C20581E08093C305FA
:104760000E948C178091F1050E9465161092F30546
:1047700080919E050E94BF1182E190E00E94BC11D1
:1047800090E080E00E94BC118FEF90E00E94BC118D
:1047900090E080E00E94BC1190E080E00E94BC119B
:1047A00090E080E00E94BC110E9420168BE097E20E
:1047B0000197F1F71092B305D093B005C093AF0500
:1047C000CE010E94371781E1809FE001819FD00DCB
:1047D0001124C154DE4F0E811F816C817D8180E0E8
:1047E00094E10E943716B80181E094E10E943716E7
:1047F0006AE070E082E094E10E94371662E070E0C7
:1048000083E094E10E94371665E070E084E094E173
:104810000E9437161092B804688970E082E091E136
:104820000E94371680915A0161E0811162E070E0C8
:1048300080E091E10E9437166FEF70E080E093E135
:104840000E94371664E070E081E093E10E94371621
:1048500066E170E082E093E10E94371664E070E068
:1048600083E093E10E9437166CEB7FE784E093E1ED
:104870000E9437166CEB7FE785E093E10E943716C4
:1048800061E070E081E09AE10E9437166AE070E032
:1048900082E09AE10E94371668EF7FE783E09AE1B1
:1048A0000E94371661E070E084E09AE10E943716BA
:1048B00064E670E085E09AE10E94371665E570E0F5
:1048C00086E09AE10E94371661E070E081E090E0B6
:1048D0000E94371670E060E080E099E10E94371690
:1048E00060E370E081E099E10E94371660E470E0D7
:1048F00082E099E10E9437166CE271E083E099E171
:104900000E9437166DE770E084E099E10E94371647
:104910000E94751E8091D904811105C00E94AD1AB4
:1049200081E00E940323AB1411F03B9A43988091DD
:10493000CC049091CD049093C9048093C804CDB762
:10494000DEB7EBE00C94ED368D7F8093BF051092BF
:10495000C2059093C305A0CE81E1809FF001819FA5
:10496000F00D1124E154FE4FC481D581C680D7805B
:104970008091B804882309F403C18785853014F039
:1049800084E08787F1100E94541D8091EE0590917C
:10499000720190FB84F98093EE050E94C916809104
:1049A0002D01833009F0D1C09090090181E1809FF1
:1049B000F001819FF00D1124E154FE4FE184F28457
:1049C000D093AC05C093AB05D092AE05C092AD05B7
:1049D00081E090E09093B2058093B105EC16FD065E
:1049E00008F4B6C0CE14DF0408F4B2C09091F2050A
:1049F0002091B5058091EF053091B60530FB87F920
:104A00008F7920FB84F9807F81608093EF059093FC
:104A1000F00580E48093AA058091BF05807C8160C9
:104A20008093BF051092C20581E08093C3050E9468
:104A30008C178091F1050E9465169092F30582E033
:104A40008093B305F092B005E092AF05C7010E94D4
:104A500037170E94001790912D018091EE05933039
:104A600009F078C080688093EE050E94C916809195
:104A7000EE05807F8093EE050E94C9166091F704D1
:104A800070E082E093E30E9437166091520170E07B
:104A900083E093E30E94371680912D0194E08330E8
:104AA00079F081E1809FF001819FF00D1124E154A4
:104AB000FE4FE7850E2E000CFF0BE35DFB4F908150
:104AC0009F708091ED05807F892B8093ED050E947A
:104AD000C9160E94001D8091EE0590916A0190FB1D
:104AE00085F98093EE050E94C9160E944615E82FAD
:104AF000F0E0EC50FB4F8081811112C0848194EF73
:104B0000980F9F3468F48093B40524E531E0829FC8
:104B1000B001839F700D112483E091E30E9437164A
:104B2000BE0180E094E30E943716B60181E094E371
:104B30000E94371663E070E083E094E30E9437162A
:104B40006AE070E084E094E3E1CE90902D012ECFF6
:104B50007E014CCF91E020918201213009F490E058
:104B600090FB87F98093EE050E94C916809182011F
:104B700090E0811193E08091EE05807F892B7ACFC0
:104B800010922D01A385AA0FBB0BA45FBE4F8D9180
:104B90009C91E184F284D093AC05C093AB05D09294
:104BA000AE05C092AD059093B2058093B105EC16A9
:104BB000FD0608F476C0CE14DF0408F472C08091BC
:104BC000B3058130D1F10E94E2179091F205209156
:104BD000B5058091EF053091B60530FB87F98F79E7
:104BE00020FB84F9807F81608093EF059093F0052E
:104BF00080E48093AA058091BF05807C81608093CA
:104C0000BF051092C20581E08093C3050E948C17F6
:104C10008091B40594EF980F9F3458F424E531E067
:104C2000829FB001839F700D112483E091E30E9465
:104C300037168091F1050E9465161092F30581E008
:104C40008093B305F092B005E092AF05C7010E94D2
:104C500037176091F60470E082E093E30E94371604
:104C60006091520170E083E093E30E9437168091D7
:104C7000AA05803409F039CF81E1809FF001819F3E
:104C8000F00D1124E154FE4FE6850E2E000CFF0BB3
:104C9000EA5DFB4F8081873008F027CF0E94001823
:104CA00024CF7E018CCF80912D01833031F18AE0B9
:104CB0000E94C5140E9446158823F9F091E0809166
:104CC0008201813009F490E08091EE0590FB87F934
:104CD0008093EE050E94C9168091820193E08111B4
:104CE00001C090E08091EE05807F892B8093EE05D6
:104CF0000E94C91681E00E94132308958091D9046F
:104D0000811107C00E944615882319F080E00E9497
:104D10005326089588E00E94C5140E9446158823F2
:104D200069F08091EE059091720190FB84F9809377
:104D3000EE050E94C91681E00E94132308950F9387
:104D40001F93CF93DF93182FD62F0E9475140E94C4
:104D50002F15C0919B031092CB041092CA048FEFC1
:104D6000111181E0082E000C990B8C0F911DC7FDCD
:104D70009A954C966CE170E00E9457368C018093B6
:104D80009B03D1110E9466148091CC049091CD04B4
:104D90009093BC048093BB0421E12C9FF00111246B
:104DA000E154FE4FD085209FF001219FF00D11248A
:104DB000E154FE4FC0859093C9048093C804D3305A
:104DC00031F1C33021F10E94371780E00E94CF1BE0
:104DD0008091AA01813059F421E0D23009F020E01D
:104DE00091E0C23009F090E081E0291301C080E039
:104DF0000E94D5218091D904811102C00E94B22263
:104E00000E94371CDF91CF911F910F91089580E090
:104E10000E941323F7CFEF92FF920F931F93CF932C
:104E2000DF93E090CE04F090CF0481E01E141F04C5
:104E30000CF080E080930501E0919B030E2F0E2E75
:104E4000000C110B91E1E902F0011124E154FE4F35
:104E50009085933009F055C0E5850E2E000CFF0BB0
:104E6000EA5FFE4F2081022E000C330B4091CE04EE
:104E70005091CF04249FE001259FD00D349FD00D89
:104E800011244091CC045091CD04C40FD51F109231
:104E9000CF041092CE0491E1909FF001919FF00D0C
:104EA0001124E154FE4F468157814C175D0788F16C
:104EB00044815581C417D50760F1CE01B9010E9424
:104EC0004336009709F05DC0D093CD04C093CC0465
:104ED00081E08093C5040E9443136093D5047093CE
:104EE000D6048093D7049093D80480E00E94D52103
:104EF0000E9475140E942F15CDB7DEB7E6E00C9422
:104F0000F236E385EE0FFF0BE45FFE4F2081318127
:104F1000ADCF60E00E949F2680919B03082E000C7D
:104F2000990B21E1289FF001299FF00D1124E154F4
:104F3000FE4F3085333059F0209FF001219FF00D56
:104F40001124E154FE4F2085233009F0BDCF20917C
:104F50000501222359F021E1289FF001299FF00D3E
:104F60001124E154FE4FC481D581AECF21E1289FA9
:104F7000F001299FF00D1124E154FE4FC681D78125
:104F8000A3CFC81BD90B1E141F0414F030E020E07F
:104F9000C20FD31F99CFCF93C82F8370833069F48A
:104FA0008091D904811109C0CB3039F081E068309B
:104FB00009F080E061E00E949F268C2FCF91089538
:104FC0001F93CF93DF93E0919B0381E1E802F0010F
:104FD0001124E154FE4F80858330B9F18091D904CA
:104FE000811133C080912D0181111EC016850E9450
:104FF00075140E942F1580912D01833011F43B9A76
:10500000439AC0919B030C2E000CDD0B80912D0167
:10501000833060F4813058F180912D018093030139
:1050200083E080932D0104C01785E1CF833089F0A0
:1050300080E00E9413238091B804811106C0809102
:105040002D01811102C03B9A4398DF91CF911F91AE
:10505000089510922D011092B80481E18C9FF00107
:105060008D9FF00D1124E154FE4F1687E1CF809102
:10507000030180932D010E94541D81E18C9FF0015A
:105080008D9FF00D1124E154FE4F17871092C50437
:10509000CFCF8091D904811139C08091DE04811174
:1050A00035C080912D01813039F180912D01823000
:1050B00019F180912D01833049F590912D019330A4
:1050C00029F52091CC043091CD0480910901981BE1
:1050D00090930901990F9350A901490F511D97FD14
:1050E0005A95CA010E9437170E94001D81E00E9454
:1050F000D5210E94321B089580912D01813039F411
:1051000082E080932D0180E00E941323089581E0C6
:10511000F8CF8091D904811144C08091FD0484317D
:1051200068F52091CC043091CD04E3E5F4E090E003
:10513000891769F0408151814217530729F4409142
:105140002D0152815417D1F09F5F3596F1CF909188
:105150002D014091CA045091CB0465E0869FF00177
:105160001124ED5AFB4F3183208392835483438370
:105170008F5F8093FD0481E08093510468E170E0CB
:105180008DE290E00E94AC1988E690E00E945C1BE2
:1051900064EF71E080E090E00E94EB1281E00E94F9
:1051A000032308959091D90491111DC09091070592
:1051B000891301C080E0809307058091070588234B
:1051C00099F00E9443136093FE047093FF04809350
:1051D0000005909301050E94DC190E94371C0E9473
:1051E0008E1B0E94DA2208951092FE041092FF0492
:1051F0001092000510920105EECFCF93DF93CDE919
:10520000D3E06A817B81888199810E948E138823F3
:10521000C9F090919C03911109C0909108059923C0
:1052200029F00E94791ADF91CF910895813081F49D
:10523000EC81FD81309711F0099504C088858111BA
:105240000E94D228299683E0CE3ED807D1F6EBCF34
:105250008B30C1F7EE81FF81309771F7F3CF8091EA
:105260000705882391F0109207051092FE04109212
:10527000FF0410920005109201050E94DC190E94A3
:10528000371C0E948E1B0E94DA220895CF92DF9273
:10529000EF920F93CF936C01862F90E0FC0143E0D7
:1052A000EE0FFF1F4A95E1F7E25DFE4FC4816E30BD
:1052B00079F46AEF71E0C13011F066EF71E0C60178
:1052C0000E94F635CF910F91EF90DF90CF90089527
:1052D00025812230F0F0880F991FFC01EA56FE4F1D
:1052E000349189569E4FFC018491613151F4CC2355
:1052F00071F0C65FF4E0CF9FB001112466547E4F79
:10530000DECF2330B9F38111C195C30FF3CFC2E0D3
:10531000F1CF211105C0C11103C06AEB71E0CFCFFD
:105320006B30D1F461E06C0F062E000C770B77FF29
:1053300003C071956195710980E2E82E0EE220E0CC
:1053400043E0C6010E946715C7FF03C08DE2F60166
:105350008083F6011382B6CF6C2FE6CFA5E0B0E0D4
:10536000E4EBF9E20C94D036382F462F8091D90423
:10537000882309F45EC080910B018150932F2AEF9E
:10538000829F900D1124892F66E00E94373601E03C
:10539000933008F400E084E4933008F480E0632F55
:1053A000302F330F330F031B090F000F0E5F10E078
:1053B000C82ED12C460123E2820E911CE62EF12C40
:1053C000CE0101964423C9F10E9446298091C6046A
:1053D000082E000C990BA12CB12C8E159F0529F4D9
:1053E000A090C70481E0BA2CB82683E0EE0CFF1C25
:1053F0008A95E1F7C701825D9E4F7C01B801C60125
:1054000005960E94BD198EE3B11001C080E20E9492
:105410002C1BC7010E940D16B801C4010E94BD19C2
:10542000AA20E9F08EE30E942C1BCE0101960E9477
:105430000D162596ECE00C94EC360E944629B80136
:10544000C4010E94BD198091C604082E000C990B5E
:10545000E816F90621F48091C7048111E3CF80E2B8
:10546000E2CF1F93CF93DF93D0E0C0E016E08091AE
:105470000B01082E000C990B0197189F9001199FA2
:10548000300D11242C0F3D1F2231310564F4982F6B
:10549000990F890F880F61E08C0F0E94AE29219629
:1054A000C630D10521F7DF91CF911F9108958091EA
:1054B000D904882329F180910B018F5F84300CF08F
:1054C00081E080930B01082E000C990B0197982F17
:1054D000990F890F880F8093C6041092C7040E9409
:1054E000AD1A0E94871E0E94312A0E9443136093C6
:1054F000FE047093FF0480930005909301050895C6
:1055000084E00E94D2280895B0E0A0E0EAE8FAE240
:105510000C94D43680910705882339F00E942F29F6
:10552000CDB7DEB7E8E00C94F0368091D90488233B
:10553000B1F08091C70491E089278093C70461E0AE
:105540008091C6040E94AE290E9443136093FE041A
:105550007093FF048093000590930105E1CF0E94B2
:105560004615811104C080913A01811104C082E086
:105570000E94D228D5CF8091CC049091CD040E9476
:1055800037176EE170E080E090E00E94EB12E0914E
:105590009B032E2F0E2E000C330B81E1E802F0014D
:1055A0001124E154FE4F80858230A1F06481758121
:1055B00006811781833091F480E094E10E943716D0
:1055C000B80181E094E10E9437166AE070E082E061
:1055D00094E12EC000E315E76EEA76E081E1829F58
:1055E000F001839FF00D1124E154FE4FE385EE0F8F
:1055F000FF0BE45FFE4FC081D181CB30D10510F0AD
:10560000CAE0D0E0C13039F0C53029F0C93019F016
:10561000CA3009F0C5E080E094E30E943716B80173
:1056200081E094E30E9437166C2F70E082E094E3EF
:105630000E943716F8941092B7047894C09105012F
:105640000E9443136B017C018091B305823009F401
:1056500058C08091AA05D1E4803209F4D1E282E1F8
:1056600095E00E94731380E0C0FB83F9C82FC870D7
:1056700080919E050E94BF118D2F0E94A2118C2F38
:105680000E94A211D134A9F4C1E08091AF0590919C
:10569000B0058930974008F4C0E080E00E94A21174
:1056A00080E00E94A21180E00E94A2118C2F0E9433
:1056B000A2110E94201668E770E080E090E00E944E
:1056C000EB126091A0057091A10590E080E00E942E
:1056D000EB1260E082E195E00E9427189091CE05E0
:1056E0008091CF058093AF059093B0050E94A422CE
:1056F0008091CC0586FF41C061E082E195E00E9487
:10570000271861E082E195E00E9427182091CF05DB
:105710003091CE053093B0052093AF0521153105AA
:1057200009F4FECE3093CD042093CC04E0919B038A
:1057300081E1E802F0011124E154FE4F80858230BE
:10574000D1F1833009F44CC08091CC049091CD0408
:105750000E94371780E00E94CF1B0E94751481E0E1
:105760000E9403230E943F158091CC049091CD04A8
:105770009093C9048093C804D3CE0E945C14811115
:10578000BBCF8091CD05817809F0BBCF0E94431338
:105790006C197D098E099F090091A4051091A5053A
:1057A0002091A6053091A70560177107820793071E
:1057B00008F487CFA6CFEFEBF1E082E046A157A136
:1057C0002417350740F040A551A54217530718F09C
:1057D00080939B03B9CF8F5F71968C3179F7B4CFEB
:1057E000C9016AE070E00E944336281B390B3093F0
:1057F000CD042093CC04A8CF0F931F93CF93DF93B6
:105800006091FD048AE491E00E942536C0E006EE36
:1058100010E0D5E08091FD04C81770F4CD9FC00161
:10582000112445E050E0B8018D5A9B4F0E94153677
:105830000B5F1F4FCF5FEECFDF91CF911F910F9185
:10584000089580915104882321F00E94FC2B10922E
:1058500051041092DE041092FE041092FF04109284
:105860000005109201050E94AD1A80E00E940323FA
:105870000895FF920F931F93CF93DF936EE874E127
:1058800088EE94E00E948E13813009F083C08091ED
:10589000FD04882309F477C0E0919B0321E1E20233
:1058A000F0011124E154FE4FF084C091FA043B9AB8
:1058B000439A0C2F10E035E0C39FE0011124CD5A2C
:1058C000DB4F8A8180932D010E9446158093B80496
:1058D00081E09A81943009F080E0EFEBF1E0C0E0E4
:1058E00095E0909FD001919FB00D1124AD5ABB4F10
:1058F00091E02085233009F090E089130DC02D91AF
:105900003C911197448155812417350728F0468131
:1059100057814217530730F4CF5F7196CC3141F76E
:10592000C0919B0380919B03082E000C990BC81714
:10593000190621F00E947514C0939B03E0919B030C
:1059400081E1E802F0011124E154FE4F85E0809FDF
:10595000D001819FB00D1124AD5ABB4F8D919C9108
:1059600011979287818713968D919C919093CB0488
:105970008093CA0481E090859F1101C080E00E945D
:1059800013233B9A43980E94212CCDB7DEB7E5E064
:105990000C94F3366EE874E182EF94E00E948E136B
:1059A000813009F04AC08091FD04882391F1509123
:1059B000FA04952F282F2150330BB90145E0292FE8
:1059C00030E026173707BCF4429FD001439FB00D4B
:1059D0001124AD5ABB4F2F5F3F4F429FF001439FB1
:1059E000F00D1124ED5AFB4F242F01900D922A95B2
:1059F000E1F79F5FE4CF9FEF980F9093FD04992309
:105A000029F0591718F082508093FA0481E08093AE
:105A100051040E94A51E8091FA048093BE0181E08A
:105A20000E94E11F0E9443136093FE047093FF04E1
:105A30008093000590930105A8CF6EE874E184EE91
:105A400094E00E948E13813009F09FCF9CCF80910B
:105A5000D90481111FC08091DE04882319F00E94AF
:105A6000212C089581E08093DE041092FA040E94B4
:105A700043136093FE047093FF048093000590939A
:105A800001050E94A51E8091FA048093BE0181E069
:105A90000E94E11F08950F931F93CF93DF938AE431
:105AA00091E00E940D368531C0F48093FD04C0E082
:105AB00006EE10E0D5E08091FD04C81790F4CD9F6C
:105AC000C001112445E050E0B8018D5A9B4F0E945F
:105AD000FD350B5F1F4FCF5FEECF1092FD040E948C
