:020000040000FA
:100000000C94E2110C94E3310C94BC310C940A1260
:100010000C940A120C940A120C940A120C940A12F0
:100020000C940A120C940A120C940A120C940A12E0
:100030000C940A120C940A120C940A120C940A12D0
:100040000C9472310C940A120C940A120C940A1239
:100050000C940A120C940A120C940A120C940A12B0
:100060000C940A120C940A12534156454400534D05
:10007000002020200031206B487A200035206B487A
:100080007A200039206B487A20003130206B487A82
:10009000003530206B487A003130306B487A0031BF
:1000A000204D487A2000313020487A200032352017
:1000B000487A2000353020487A20003130302048FE
:1000C0007A0035303020487A0031206B487A2000A1
:1000D00035206B487A200039206B487A2000313077
:1000E000206B487A00535445503A200050586068BD
:1000F0007008182030384048000810283840302E4A
:1001000035206B487A00312E30206B487A00312E32
:1001100032206B487A00312E38206B487A00322E1C
:1001200030206B487A00322E32206B487A00322E13
:1001300035206B487A00332E30206B487A00342EFD
:1001400030206B487A00362E30206B487A002041F0
:1001500055544F202000313130206B487A0038341C
:10016000206B487A20003630206B487A20003430EB
:10017000206B487A20000020202020200044454C9D
:100180003A4257204641564F524954455300454D37
:10019000505459204C495354000000020100000003
:1001A000000000030000000700020100000201003F
:1001B000000100090000000500010100000100012C
:1001C000000201000000000201000000004155543F
:1001D00000204F4E004F4646002035300020373576
:1001E000006B487A004D487A0052535300534E52E8
:1001F00000313030003530250031306D0031356D43
:100200000033306D0036306D002041320020413126
:100210000020202020202053455454494E4753208D
:10022000202020000431F7210531F52D00000000C9
:10023000F4015802BC022003000080007301760123
:1002400078017A017C017F018101840186018801A6
:100250008A018C018E019001920194015102680281
:100260008A029502F502650368039303AE03B103A6
:10027000B403D903E203E703EA03EC03EF03F20359
:10028000F503F703FB03FE03100427042D043204D7
:100290003404360439043C0440044304450449044E
:1002A0004B044E0450040003740BD484606FAE6C96
:1002B000F9BB84A265B14BF672011A21E85AD8D66F
:1002C00004735E2C226EC4E9B58B819A1EE487C943
:1002D0009E7B17526DADE3E58B04A72E996A32AA77
:1002E0009997CCA65B157956480163B1DF54270670
:1002F0005706538CA627AA66890318517EFB67D33D
:10030000CEDD3FFD3D1F478401F3856EF83B792B21
:100310000C904B67467D5488FDD612E5E748F20EF7
:10032000DB994D71A54068D9C95939E475201CE99C
:10033000B1F5013C19BB60F7FA6B1E689F19B6ED69
:10034000140F56BCC134CB009D43D40FF3629C9D67
:10035000F78B9D533A8D2F3DDE3D3831039BC7C14E
:1003600059E9D175888D365886704E5B9ED0DBCBAF
:10037000F7EA1FDBA53BB3BD6BBCF37065D5170F68
:1003800064152420D5B87B0D272985881F5822574E
:100390004F09C04DD6E4C6B53A373327BB6A146956
:1003A000031BEDA8C343E8EADE410625C5C83CBFF0
:1003B00032B2A7DD22C2E9CA84F2C0267C7801F7F6
:1003C000D5C60533E4C278EC1BFDD2507D11295708
:1003D00099B0F1556674B45823A06F2ED89B08B31A
:1003E0003E53CF5ECC7ADF4EED42166A9188431BB6
:1003F0001D845C52216658243671C56A0D2C869A7C
:10040000239DE03543C97F41BD8299ED7A26B2D361
:10041000A6CE4F00E687E3D7682886F7CED2B3D3BF
:100420001B0402B978B3ADE03C53A68A4A22BE1F32
:10043000CEB176F22F81A8C17872B0156519E3327A
:10044000A74D0CD300B9C327BE744DD1E10C36DDE6
:1004500023FBA722D344CAB3081BB40D4BDF1AA653
:100460009032925C1AA7CD852E351172F821357D18
:100470003FDB298D30B34F451477CF992FA390815F
:10048000B0AEE845E63AA9A262B7DBBE2539A5FCC5
:10049000EAC5BC3AEC90AEA6FB12AAC76222AFA98D
:1004A00084B964B8FB8DC11CC3D0876D5CB4FE3FBA
:1004B000A4B8D889F40159BB04A543441ACB4130F0
:1004C000F75B9AEE28F44C7199CA4B7F2A13F04BD4
:1004D00054B3FC90EDBE483FF15E0DA1BB1E591612
:1004E00015F04B504C96861BA9CCC2694E1003F0F8
:1004F000E953E5E2BB45E28DAE407108864D08F454
:100500009690585340A58B5B3CAD47B5D7E26A1334
:1005100078D4DCC9EC0E93F0C01D953676A45385D3
:10052000C9ACE4718DAF6861209DFF45356E04D87C
:100530002732C3DAEEA26604B72106527F398FFD57
:10054000EE9074B64FB6240E1248F0B230F2A54CBD
:100550009152E3C6487B3896239ED71B95153AC91E
:100560008B6F637D1DC9EA96E601D785C0EA3DCA57
:10057000D3B7FB07543A00313D74E4125BA2383321
:100580005BBF1DDC4EE8851077ABEA6579B0AA3019
:1005900061C6F63BCC95FC837F8C7BB55205EBF7AF
:1005A00021DE89B66DEE317713AA935596086E1C3D
:1005B00082B57E95B994DD68425C3A00C37B6F607A
:1005C0006A2C07D76C82FBB2812569D6720AD2E801
:1005D000500588491B6372996CE37AAEB01B9ED4B8
:1005E0002554258A901797DF39B87CEAF082DD25FB
:1005F000D2ADE7F6362384A9C96A53F4822C1DEAEA
:1006000006C64F705437802A6B63DBCC86E68C7F3E
:10061000278C7254739E1BD64CFA058280D7B71173
:1006200098000000000000069869151CFC8687747D
:10063000845BD40FDBD727C54AB28F297A4A230AB5
:10064000B807D03470818E53EF43163FA8A79E5A47
:1006500077C091B789155248C0B762ABE174641096
:10066000AA096B9774217935A19725FC78C1EC6EA6
:10067000877740871A74828156DDEC37ADAF03313E
:10068000AC478574C02A459DF4120CF986B04A1611
:10069000D8116C46C44A67988B1B42C2BEBB0E4839
:1006A00084F708A6C38F8E8DABC29B5D5C60285714
:1006B0008F0EAD2EC15E95299AF48A27D441BB4A8C
:1006C000AC5DB29326FD87813F2735A6422C1538B5
:1006D000ADF8026F94DA08EE19D890FA89C3AD89A3
:1006E000FEC60246811D0C8D782FEED3ED6C7B95F6
:1006F000495687F4E263DA39CE681618ED98EE862B
:10070000F3B3C1121A519B571D199E987ED2FD3D1D
:100710002B59154674577914817189D922DD9210AD
:10072000D98991DF67006E53AFDAB528301E47E6EE
:10073000B7052D22CF7F6ACD88906B8C163688073F
:10074000A1B7AFF331C4DB768B969EF017A73F8439
:100750007891A8CD3F8FA5DD5214F9395D0B568EE7
:100760001C5A5B89EE809E33BDB1451542345978E1
:1007700020FC2DDBC92E0F3526CF239B3E1D9F0F5E
:10078000260EB7B54EACA286D5DA36045A73466A41
:1007900088C52AA083E88B5F3CAF6A444E759B8F67
:1007A00093373538BD029A1D8429642597E07C2A49
:1007B000B6CBC166513CBC3BF3552BB7BD81ECF3C6
:1007C00049D5F803E0BDC60CEEC01908FB4F8C9468
:1007D000080EA53037F0B818937300BB5252B49886
:1007E0000D4B45B9890A34E91C245A8FA89DC2D9FA
:1007F00027A9EEBFC08090BC2A9343FB0AB396D1D1
:10080000AE13410168B92C53537C00A58441D6989E
:100810008898FEDEF7E23743620E9383EE030A8D7B
:10082000CA8759366F61F7F4D6AB8B0F9C8396A4B9
:100830006C4643806BEA50DCD8CED4F4AE5BC60184
:100840004385718D0C395EE43B2BC488B2C5549648
:100850000E879A5093D69C91CA09648B23C429446D
:100860001A67E1DAC71B2517022C8F2A133ACFD655
:1008700065312B10F5B596DF01997BADD6B4C03547
:10088000A348E3B09EFE33101A09AE3C0AA1728F52
:100890000051E17823F5E2BFA64628B34B24B1A16D
:1008A000DEB1C4486FED5AD461F0DBE1085C64C08E
:1008B000CAE9A9DEDEECC0685B6DBD43828CCA6903
:1008C000B1A9C8710D5D6DA5AB1A6794EE0593E3F0
:1008D0003FE81AE60F7F79F2CBC53757DFFC4FB4FC
:1008E00060C7973C61B00C4664F44392D2A5F0F324
:1008F000B7DFAB20B1F5302AB3DC4B39B7853E1EEC
:100900001B948C26288045D60136D0EC934688D39C
:10091000D5895D7A82213EC240E3B4DEF5A569D572
:1009200069495C89CDAE137070ED690CECC6FE753B
:10093000EB4ED6B3C860FB341EF86492D929A813D5
:10094000383D79C4BF21379DE34F21E53F2C5C5FE3
:1009500041FF148791E082040B1E5553DC5640A4DE
:100960003578E29B49222E09CD1F6F9483EEEA8BE6
:10097000C4C210E080D9A55F53349C8CEA9564878B
:1009800094D6321CEB93BFE35583C2F6FCC885B204
:10099000945C425F6B8E3B9779747EE35CC2631A12
:1009A00022B17F94CBE7B7FF0E3795AF105317886E
:1009B0001272DDCBAB4B6B6824ACC95C72094FF192
:1009C000FB1DE7A230E9204BDA707C9EE234EB6A33
:1009D00035C233D79D07B1EFF675F5FDADC74BD0E6
:1009E000B7DDAE1E8D1EC0399CA71CC5CC3950C6C4
:1009F0006BC6DA37C7E120EB74A53DC008FAC2DF49
:100A0000F29E432BF07750498CC32F68F32A9B83C7
:100A10001ADC05D8B77C3C611176EC2DFE86088780
:100A200015A3C01CB46A8D9EBF9AD5C85B0518106B
:100A300015FBC63CEEC5524B313607B94C81EA83F3
:100A4000D782FEFC43594E20BDD365CF1F5C711F7A
:100A5000BF26EC44EB0174823C8E60DF4790311777
:100A60007E16C0EC1EC33A7A5921A29B8E8725D3ED
:100A7000FE85DD6DE6D8CA74BADB4230963D86222B
:100A8000866FDE371A932F032EE16E1662C1E12DB9
:100A9000FECBA8DF6405EF23BC71617B1B602227BE
:100AA000BDC6A37207AA09B052F219154DBEAF26F2
:100AB0003B4D62A63C41077A34253CD6CDB655471E
:100AC000871ECBCFCED20D95C0D872A6E033242698
:100AD000517E71C7533FD4677352CB785A001115BA
:100AE000715F8D3CCF40CDD97430D9A13FC658BC81
:100AF000BE7818319A3960BB8D7B3495A5F1543B93
:100B0000B98599AFC445EB64A76E5960EB1E7AFBBB
:100B1000FD924323F127AC661266288A5CF6C63F35
:100B20007604E80927ED05AA26E5B4AD40BAF7F446
:100B300084CB7F07108DB6C7D477EABA962A98F08F
:100B400056D7FF504D59793D41E0FAA99D3EA6D9AF
:100B500079C80DD156C5ADD7FB703CBDF3E95D1C1E
:100B60005393331DF81BEE9FB750AC8F485961C9A2
:100B7000859EC8B0D27439DF33F528E06311A7C46D
:100B800005BD3AD934CAF9AAE200E6E638573EEC88
:100B9000197C0D2745C552C4FFF469C5F573734F21
:100BA000E307C7CF38235B9C99A26A72B03539C17D
:100BB0000AC71C1A3060181D2BF0C8F179A394E302
:100BC00036359369059107126044FDB6C6FFE0CF44
:100BD000A2CFC2A358AC32E32EEC0D9D1BFB054007
:100BE000BA678ECB38D7609CFE9EA170CC40728CC9
:100BF0008C507185DD84925CEE44B6E0801532DD68
:100C00001B4B8C6E8E3997A5AFC6F42985D385937F
:100C100085C854E4591D4EA0FEC507C1F73252F9EC
:100C20004D4585FCA0FA37B59D47E852238D928744
:100C300043B4B84F951B1E4FE545BFCEC80CB27DDF
:100C4000E7D92E88B72A61E12DC4212EB84DFD21A8
:100C500087302511EC1F299431D292853817DA6339
:100C60004D8CB4065564B76CFCC28D5D978609D374
:100C70004369E83577CCAF91363C7CA36E4E4AA2EF
:100C8000C94150EAABDF8704704F16F5A038F56014
:100C900016CD0CE5C7E3AD00126B12853C5C7F7688
:100CA000ED49F29D8FDFABE1DD8701ED2C1B4B554C
:100CB000117FC392D391C1D8A737C7E55B482BED0D
:100CC00031DECEFB95000000000000000008E3517B
:100CD00084000B4D2673118B1EE200000000000003
:100CE0000000040473E072FFE659C9000000000030
:100CF0000448BFABF399877C07000000000004FBA9
:100D000033B163616112AD000000000008AA30AC8D
:100D1000174D3086BF6713F1A700000000000000E8
:100D200000041B48422384BB7FB40000000000087D
:100D3000A69F43785CA14E8BA6E67C49000000008C
:100D40000000000001F7315D2730000000000000C6
:100D50000000010B570B79F70000000000000000B5
:100D6000024433BBB45BC70000000000000001ABCD
:100D7000E301C2D20000000000000000017A079EDB
:100D8000AD84000000000000000002F1EEF7D82959
:100D90005000000000000000012C35543ACC000047
:100DA00000000000000001C93D666A9800000000D4
:100DB00000000005247AF71C2440EBA24DC266C84F
:100DC000372C030FF301066D9A42F0948FEDBFE3C9
:100DD000283B72693775B4A09A6E31FD665BCBF320
:100DE000BA8CA431FFBA7C2454D3C6638993E4ED52
:100DF000DA58474EB58FD793FDAF31EAB4ECC90549
:100E00007D2B1596C1007E80E6F747CD6A77F10EFF
:100E10005913AA5C838870DCC4525220B6692D6CC9
:100E20006C8B662ACD5A4130D6FB7BA0EC7A2288A7
:100E30007C716EAF6206F4A8C688857636C5C0D8C8
:100E400067967CE84DD4FBA96F0FB2A7A3196A304F
:100E5000FD6FFC2BCEA41B8E574851C6980FE5089A
:100E60007B4DFC59DDCF131B310C5E3B98E1F4C385
:100E700041D7A2645E16F9EBAE20E95D54BD99D36B
:100E8000A7C1D9E53222D69F4FDD6B3C6DE94D9667
:100E90005211DA2386BE01C451C29CC6F52F1FD061
:100EA000F1F55782FECBFB4ADF1D0046B8A73A5644
:100EB0006608714E47F827265F6CD8C305990A75F6
:100EC0008F4FC18872A05A1308A382842ECEB5A377
:100ED0004605D66A7856442386F2C963088BBDEE70
:100EE00056D4361F375318E7DA1CFAD005D55FE71A
:100EF000B7AD362BCB06C053F432A8756FE3C9A14A
:100F0000B0A6E6C2410F5D2E0A64504692495B2DA1
:100F1000002EB5213F0B4A719688844C98AA28234D
:100F2000EBEF455C6278D6E4FB6DC3D9356CB92A2A
:100F3000C67471C40C657CA3F96E2DB986B00463C8
:100F400094CF267D9E1EF799DAE08CDD86F3C8F1FA
:100F5000C64E155DED34BB90CDD626091EF6238412
:100F600051C1AE428F8496C957AE16363A2987656D
:100F7000B2BA5696D2F509EF304A0F6236FE00300B
:100F8000BD091B50C33C48D725E18EB26F4D752D6E
:100F9000ADC61EBAFA4F41AF7A6FA0A04FB68834E3
:100FA000698A9E837A60F3A87E392A209C325E7D0E
:100FB000C4AA97E6263542A1A0EF39B31C2763D215
:100FC0007F75C01EB4FA4D7A818139E0792F94A5DE
:100FD000283A437E97B594AF2A10380A7F4991C0CA
:100FE0006C659AC6C95DD552469874AC93E421B03D
:100FF000EB08FAF4412EA6F9C5EDE33798C5DF52A8
:101000008241A2F2561AF3A4C6408DB95FAA751E9A
:10101000151E68782B2BF43EC7CBF31360E0F485E4
:1010200079880C227587B751E0D6E3A092D3D7E335
:101030006C5B3EB780E748D6D92F49CC75A004C970
:101040004888E9CC3241AF30DEC6BC9DF7FCFF6971
:10105000035058A1D6B87B5E60FCCC0014AF3A3088
:1010600041B34E634795E4BD5374D0F002B4FE48DB
:10107000196C3F23F79B4411F2C245A637776C10D9
:10108000630E1BA7D196CA0D4F5B4351D614B723ED
:10109000E799A49F4C7DD7DD0811844D5CE96090F1
:1010A000048B1490F06F26450F208CE36F4678EB8D
:1010B00012B45EF0DEEB222762784293BCE848C0AF
:1010C00088BD0FDE232BD1880AE2B4338E6136430C
:1010D0005842AE6BD7F2FE0AC126947ACE8C3B43BF
:1010E0005A62EF708AFE4DD237DBA1B1061B301772
:1010F0004CA0241EBECB64E2CE135CD705A6763985
:1011000038F3852C160EB3E23DFF79880B93EFADD3
:1011100055CDB4EF8FB8167A05C05E920F4F985830
:10112000D422AD4325317852C69ACA5EA64E79972D
:101130009ABBDF6DF1E2D0B3CA2A5C46825C1EDD49
:10114000D0C519892B2CBDC084D9333967E4E47923
:1011500026B69D1C1DE470A5A76189254A57337DDD
:101160000DCAF3CC22AAD7D9CBE6B296461595681C
:10117000D80FDF6B36DA198216CE384ECFF236C86A
:1011800080075388042FB214195DC56CEF959C60DD
:101190008B6AE4FC9DB29CED1D9C1BCAA326DD9CC2
:1011A000635B3B882BBA2235240148EEA04F6E9634
:1011B0004E2991AAAF5647BD7BDDA15599D8B5A15F
:1011C00047937BCD7BCF65DE5018F20549F199D866
:1011D00094213F7D52C6B1B4E19FF07E60648B30B4
:1011E000E4AD2C97FB47F70901047BF4F7A7A804AB
:1011F000A57F0858796D26276AD0D9AFC1C71223B9
:10120000E1AE98A40FBC1BFA9D910B1515A52453B4
:101210001A13E0C30095389C364CCFF6A9BCC153D5
:101220000604F46FBF57E0A614A649707F392A4A16
:101230005A593633B90D4725393704777C45AC19EF
:10124000932549E07A7BA2C695768D3C79B1A7C3F8
:101250008363032347D7ACFB84166F22490B97AAFD
:10126000D538575E2BBBA749EDD2D57A96BE8DF502
:10127000F94656F52FA7A87AFF3FE7E88CF148E832
:1012800046CB4D25F935932FCE8BB8A9C5D3D227A0
:1012900071866F72D9CA4E90D36DB13CD3CBC93031
:1012A0003A26459D66445C5FD8E3907C1BD882DD7E
:1012B000D384D4C61B58BF02A53B100A3EE3099451
:1012C0000B99882B47A79089C4482536DB7231AC2F
:1012D000F5A30115D0E62161EB5972DC940000986A
:1012E000F7B0F9FAC10A7EDC69CE905E82110B97E5
:1012F000E29955A23DFAEB88BC4DC2548D5FDEA346
:10130000E248132046C5A08104C42B9A8415B89ED8
:101310009B62A1EC7D083CAD214B89FCC6967C3AD2
:1013200041358A13BD1B43BF367A4ECE709E2AF6D6
:101330003933C7334B347D2A81FA252EC5C4A12801
:101340000ED54D15E069127119AAFF5948815653FF
:10135000C935124D84699136D8ADF754D58CF9C68C
:1013600084126222F1B92B1DA57C567A4D5AC4F025
:101370009D8F5DB59A7FE7B7A85D6D3700000000CF
:10138000E4F2EA7A73F8FC6717F3D960090E8B0F61
:10139000E2F98361DF5369D0EE4251B5514864F8F8
:1013A000DD3EEEA747F07C4BBB2B8EE28B60576394
:1013B0004B9BAA6763EAA3D57C4341A95474D286A8
:1013C000C3114269C5093E8F94AFC599BBBBAC61DF
:1013D000646101F2D359B1415091166CCC9BEC5C25
:1013E000FE3BB3EC6ED7F10E5A8A5F1DB0C5765442
:1013F0002607BC66F0ED519A1FE8F751588E1E8003
:10140000991FEED643CCFA2FAE80F2A8A8AE437C4B
:101410008076D41AD4737461DFBF296F5615930791
:101420005892F11DE87B68B2542030012DC5D8FDDB
:101430006150140F584C1A5400127E46990C9DD1DD
:10144000A304F18217FEFC12E57581AFFF3D08D5BC
:1014500039874A8EF07AD4D0D6CFA9D6594841C21E
:1014600068E3A435458D141AC400000000004489C7
:101470002C63C8AF7BAC354327BE7ECF56403DA51D
:10148000AC0F97CCD46ED031D7146045AEDF0AAA2A
:1014900033B388E01C26DC00B875C86711A1B58796
:1014A00071F94A6AEC3F0E4121C24F928F1753EEF9
:1014B000D5EA4F917502590000000294E4DA4AB36C
:1014C000AAA72E9CC780465EBD06331DD85D9F5FD0
:1014D00077730A7D386BA70E8F4E7D01DA4474D284
:1014E000F17A2F7FE1ECF1A57D033B2F17B6E80DD4
:1014F000333C2191915B302C11C6586AE4351BB501
:10150000A847B3FFD0960E484E9737601204FFCB22
:10151000A5F51D409CDF36123DD92A72DAE88BE42E
:101520005BCFE93852EC2CA0F779AD2070592062DE
:10153000739CE34609C912D47755074B6A261E5D92
:101540000778104E4ADA5EF63B9B8DFD48D0BBAA69
:10155000212EF5DF854CA71D1A261BA082867F4B06
:1015600002D2F660C9860C1DBF736986184B44BC55
:1015700074E5821793B50A5608B74A73B804D214B3
:10158000215E2CA0E0C2015FDECE642AD8652BF07C
:1015900074E354BFA09B50BA02002C95CE2A4FCFC3
:1015A0002B2B0E9BDD8F675B54A1472E842E24FAD4
:1015B00034E05A103BCFAFE2ED28D1176B9A1B49AC
:1015C0006CFCCB7A74092A415AFFA1F598C60CD25B
:1015D0006983D2C369875E7EBBFCC0D1C117D79B2C
:1015E000E15370B743D038252649405B57BA49329A
:1015F000AA9F39AA8E73008513796DF1912F9EA34E
:10160000A0657C7D53B47053016B925F38F1D73D78
:101610007AD607727ADBA165A50741004BEBC5D0EE
:101620003BEB3061420D4BA3D8078B12F5893D7C13
:10163000FB2E79A7BCD5BF729AD81539AD2570D1CC
:101640006CB05DBBF43AF66056FAF2A528AE0D76A2
:10165000B379F14BC72E6EB6616222D9A73023450C
:1016600021DE478CEBE54C8B4E79A09D95B305AA06
:10167000AFECE67473F0DC37AD933B206DA1D8CFAF
:10168000F97E9EC6BB406456A6187528D2BA786407
:101690005C484570358C499A454A6DF29C8D480AE4
:1016A000612EE3D4EEA829404B53BB5639CE816C52
:1016B000FD37A0791CC794176C37EA97F4D8D49FEC
:1016C0009F304FE5A408B86BAEB9BC4F612044DF32
:1016D00092DB1E0483C0A12C09D8DF21F0200480F6
:1016E000AF7391BC0EBAE4F79B363C30F1B4BADC70
:1016F000FA65F22B1D184E1662D4AC8B21A5A2F10F
:1017000032C3C965632D316BB88FE1249387049987
:10171000E6BDBA283063DAACC799378A8666B34427
:10172000D584AAA15342A0381E5DF70529E7CA2A2D
:101730000B6AABCEF03AF390E6D125A1331C339976
:101740007D24D17423FC6F7DDBA7E9C2DE17122D47
:101750001CB37E880000000000000308757D9A49D4
:1017600037AF60047CBCD31C53703497EBE1CD30B1
:1017700079A28694585A99C269D7B232626C0A36F5
:1017800069B1354841CE79967A0D2D33BF4D2FB8CA
:10179000D8B3FBE47193B9180D51ABBB09D90DD780
:1017A000671E4728C7F7CE605828235E95FC2BDBC1
:1017B000F90D1FAB49E6D0A7377920E4CF05E364E4
:1017C00021ACDFB1E8F9E04C3B5E89682A48C5648A
:1017D0000EDBF1538B1A2FF60C189C529B212E4ACC
:1017E000E7D6BBB71A0A22AB4AFDD3027D21FFB967
:1017F0000E0F29ABACF4445E0FD5F357E54F617281
:101800004EBA55378F9A1CD4B830AF0A951A138642
:10181000D40A835C991B2BC093F513F5EAFB6F7513
:10182000746C2E77C344C53862B9F5AC58B4966E63
:10183000A4A545B51B7C9D219516EE29572012BB0A
:10184000F80A2325AC51FD7AE09D43B0276F2ADFCB
:101850000408D3F11D3C128DAFF2D7B9029D46E3C7
:10186000ABFF61C8612B19C8C1A16D0AA744FAB5C5
:10187000A8D71E53156F7A4841E930B5ADE2F07034
:10188000406AF331DD1950E5BCB43D839FDFC825C4
:101890002790405B32044781FA53B40A40157A74AA
:1018A0005BDB24AB3AB791E344B747073990D2F5F5
:1018B000A9084658DC3210A347320445441371ACE2
:1018C0002EA7C971D0F9517ECAE509A81E775B3AE7
:1018D00008AA431CD68D6091466D64569E162ECE86
:1018E000B399C8F655271384BC8AB3C8F51A72F7A2
:1018F0006A0C46952F4A86B6D29894F1C3370E0CDF
:101900008711567EAFDA22296FEBFAEC96E0276B4F
:1019100042A170091AAD4888DAFCE13B629528566D
:10192000702803B258678D0AEA9A1595515F8307AC
:101930000920BF37AFF70A743CA552F1E3F55830E0
:10194000E117DE98F1387BF0AFBD165952996C74EF
:1019500070487714FF534184BCC5372F71843DF51F
:10196000467C63E000A05607F78C6357BE545CE1E9
:10197000FDAC35FAC2D5F25ABE7C318EBDDBFE4DD0
:10198000036F5EA61F232DCA68F0C614CCC33EF0B9
:1019900021D4402A72B67EE285D68AFB4851277749
:1019A000E4CBCD2FF6E1BCFEEDA1145FE532FCCF18
:1019B000D9FB2FE9AD7D2D68E79A15956A4AE4AB0E
:1019C000E4EBE00D40BDEF8FB975B439086DC09FF1
:1019D00004FFCCDE13304EB6E4E0CB69E5C61C2F25
:1019E000436A632572D5DFBDDC0BE9089D3D266F98
:1019F000C389F818AC42BF4E9D5D28B026413676AB
:101A00008D8684FAD8D467581969202D35FE09D9F6
:101A10008CFDF921A157DF17AE8ECBC97F2654DE8E
:101A2000104372DDBC18B934F9AB70F9744D8E6D8A
:101A30002A331406D071E6ADAABE862E9A8D878809
:101A4000AF039FCBF8789A663809CDAE89C2CCAF88
:101A50006A16140948AE9B55E40FA586A1757F7CD4
:101A6000EF0DCB3AB30D1F020000000C801FB4F441
:101A7000E0A641CC8700406143E7FCB400000001D0
:101A800024CA4534253C39FF098C39855A5BCC275B
:101A90003CBD28438645179A4E3524A423A2FDCA8F
:101AA0006CD4FBBAE741B3FB7C5507B56E3EB12958
:101AB00072CC38EA273080B98CB8EE54AB3EDBDD0F
:101AC00006D095EA3E42886BAE89C7E84C38B6939B
:101AD000F6BE4C204A8CCE2B22D272494618568034
:101AE00070675AFAC0CA6D5321CAE3866891D37CE5
:101AF000A9D5AD6A72A1FE53E94085EA62A9637572
:101B00003A2DEC9BFE58D873205210435C2DB42123
:101B1000B9961F726DBA42EAF285BE5212A7B13E63
:101B20002B89EF0F73057C99C3C55F9653F8AF9B64
:101B30007A49A044546055F0103A608D905065AEDB
:101B4000F779DB2E08F9BBF2D278D086B594A10ED6
:101B5000B98189B7F9C043E88F3819DAED2FA75C4E
:101B6000DB01B338CEE6C3F2D5AA879E116FD80544
:101B7000F072ABD9A10FFF46E94A8C0093E9866F5A
:101B80006B1470BEB1B889C9CC7D1A11D279FBD95A
:101B9000D72413948F019C4B69336601829888F88F
:101BA0004C13310F58C106113000000000B4899168
:101BB000349B89FC75CD11CA1A6FFA71D645E70FAF
:101BC000EB3909B35A131FAA3A93CF8D6ECAEC2C86
:101BD0008EC5831B5AD6D189AC024FCB0F25769682
:101BE000E05D2CFFA7EAEA92F1725BEE08D8848AE6
:101BF000A959E31277DAD6CA4E362D7CA413D1E860
:101C000018319902540AD07A74A0AD2C834A6FF12E
:101C1000B1501B6469E8842F2CC8EB953DA518C70B
:101C20004B82FC88E1D37B0EBE10BA6502859B46D1
:101C30009A377A774DC2C45330679154F63D394490
:101C40004342132E0929FD50A6DA94CE8697102B15
:101C50005C1C09CD0FFC15DC543B53E17CA7E1FD76
:101C600047C2AF7EEA34000000000C6FE65C04302F
:101C70006C84C751E3B55F349EDD05000000000CA5
:101C80001CD4BCFBCD3AAEBC529254852CED0FFB5C
:101C900000000000F873105DD81F06E0A15926B4BB
:101CA000393FC119F9D4BE4FF433EC3F3FFE8F9159
:101CB000D044F21278909E79A927EE05CB9F5A4B1B
:101CC00015DE6739181FE73A0A4198E7DEA728A012
:101CD000D354663379B53A83375F25407047B87976
:101CE0006B62963F48EA9F6ECB35E16F2DC4C24BC5
:101CF0009BA74D05790E1CFE095A9F87227A131B5C
:101D00009F994D05DB1573D865FE395EA4437B6C46
:101D100079BD73914C9B4C941887EA68A7449F5CEB
:101D20003666FD41145EB18EEB45DA770EE0EC5E6F
:101D3000F40DBF41C648F015D860F74076237B1CF0
:101D4000E559445030CE064EC5A670C31817A237C9
:101D5000ACBF2C6FBC9B3F58121110390018DB7DB3
:101D60000BD22CEE0AAF76947AC15C21D2619F1D12
:101D70007A9695DFA45181E61BD57C3644F060FF4E
:101D80003AF632EC8FE09AC7E3BCADEBA694714B08
:101D90006D00000000000038974C36A275FFFB3F35
:101DA000EB60E131B1BC32776CBD49934BC207BAED
:101DB000F067FD68CAF5A4FF2A5EE2BEB569B2A06D
:101DC00063931BB4BD4612FAEE885F46DFB2BAE8F1
:101DD000BA5447EA000018FA0891779B1C878B01D8
:101DE000709EC0052BAAD7AF30A8018B28A0F5950F
:101DF00099325F00000000000008C4EF65453CC355
:101E00006DEFB8349D1C0000000000000000046667
:101E100086F2BC9D8797BE000000000008DD58DDFB
:101E2000530F7DEC930BB95BE30000000000000052
:101E300000087615DFC7682FA8F84D338FAE000075
:101E40000000000000000884C3E8CB9C718009D723
:101E50001163210000000000000000040EC6F050D5
:101E60009E0AA7990000000000149A5AF9AA5F067A
:101E7000DF5C52374B390C7E18C1ABD636F578BDD6
:101E80009F790000000EF233610EC30B5A24023F0B
:101E900042353DA4ADC53050000076E7E345086605
:101EA0001821EBDD1476F8F155E83B9D8B9392FFFA
:101EB000A7803438C2AD7CFFBD232B0B2C5FEAC05A
:101EC0009500FB8C376B8A42913EEFD65143216FD0
:101ED000803EBDF2B32407A5924A76513172354750
:101EE00025E7B9D0F4C2DD52353A23C416FA2A8D5B
:101EF00099D0B953C2125C3FCE8DDBD1C8D159E520
:101F000088FF4911ABAB7BD1F2B43749A0B1FEFEDB
:101F10006C08761D0B0000009AF4B16DA0F220E46D
:101F200017A74D85B38E7ACB8730AF119020A819B3
:101F3000EA2207FAC14CE8FCA2038F2AC536E4AFB7
:101F4000669BBA0ADD6590DAD72762D9193BABF6F2
:101F500066892DA53070E9AAE2D9C12347FD9A25EB
:101F60004A5F896297614B91FC341BFC97B27B8777
:101F7000F454FCD63648C28779A3C48F42B13147A6
:101F8000DDE8D00A714722F3F49F287A700CBC591F
:101F900030E0E4132465BD4C0E6D9E4D1590197212
:101FA000C928B6950E92F9795C64B9B97BD7DCB4CF
:101FB000B9B4967F7255AE00001EB0028E45BDF0DA
:101FC000A590B7301240B6409CF16263726DF0BAD2
:101FD0001AF6F0406A47A2FC9BD870190000000076
:101FE0000000001AF524F64D2F64FDF7C3FDA74548
:101FF0005D94318FD69F5D216641D43951AF618C9C
:102000001E9F000000000611E97A8831E126B61C07
:102010007400000006F59835171AAB193A8CC60003
:1020200000000E7E14D06E441C666167F18E28722B
:1020300030D2BF7D6F000008179962EE7818543ACD
:10204000D57F61AC000000000000000010833E2C32
:10205000924F5A985997FB8297ADC873A26C0D06A0
:10206000CF000000000000000A69DAEB9EF7677FEE
:10207000DEE8830B465A3F00000000000002B36018
:102080007FDCA3FF00000000000000148ECFA265DB
:1020900072CE3E11392D9494478EC78C706B7C495B
:1020A0008E3CD74C00000002C877A5FDBA9A00000C
:1020B00000000000000A1A1BD94A8303DFE2756E94
:1020C00028D9631F000000000000021827278F4B4B
:1020D000E700000000000000000000A90200390035
:1020E000000000000000390C0001393700023940BF
:1020F0000003392C010439AC000000000000187FF7
:102100003101187F1E04187F1B05187F0E08180068
:10211000140918003C0013FF00011304000413BC51
:102120007F0513BC7F00000000001A0000061A00A3
:102130000000000000001A0100011A0100021A0A42
:1021400000031A1400041A1400051A3C00061A555C
:1021500000000000000019100001191800021940C9
:102160000003192C010419AA000818140009183CCE
:10217000000A18A00F0B18280000000000AED58040
:102180008D142001A1C8817FDB40A6AF4D4F4420B4
:102190004E4F20524453004154532D32302A205682
:1021A000362E3500454550524F4D2052455345542B
:1021B00000454550524F4D205745415200000058B0
:1021C0000284030807100E000000000000442A3CAF
:1021D000542200082A1C2A080008080808080000E1
:1021E00060600000004020100804003E4141413E74
:1021F0000000427F400000426151494600214145B4
:102200004B31001814127F10002745454539003C1A
:102210004A494930000171090503003649494936E8
:1022200000064949291E0000363600000000412200
:102230001408007C1211127C007F49494936003E87
:1022400041414122007F4141221C007F49494141D7
:10225000007F09090101003E41594932007F080809
:10226000087F0000417F4100002040413F01007F86
:1022700008142241007F40404040007F020C027F52
:10228000007F0408107F003E4141413E007F090964
:102290000906003E4151215E007F091929460026AA
:1022A000494949320001017F0101003F4040403F60
:1022B000001F2040201F003F4038403F00631408AB
:1022C0001463000708700807006151494543000086
:1022D000007F0000007F10284400007C0418047870
:1022E000004464544C440000FFFFFFFF01FFFFFF68
:1022F000FF02FFFF030405060708090A0B0C0D0E79
:102300000F10FFFFFF11FFFF1213141516171819F6
:102310001A1B1C1D1E1F20212223242526272829A5
:102320002A2BFFFFFFFFFFFFFFFFFFFFFFFFFFFF66
:10233000FFFF2DFF2EFFFFFFFFFFFFFFFFFFFFFF50
:10234000FF2FFF2CFFFF00000000240027002A00C1
:1023500000000000250028002B00040404040404ED
:102360000404020202020202030303030303010244
:102370000408102040800102040810200102040813
:102380001020000000080002010000030407000004
:1023900000000000000001000C010C010F000C10F7
:1023A0000F00011E0C0100100F0000010F00010FB3
:1023B0000C01011E02013F065B4F666D7D077F6FBA
:1023C0008000393211241FBECFEFD8E0DEBFCDBF71
:1023D00014E0A0E0B1E0EEE2F4E702C005900D9257
:1023E000A838B107D9F726E0A8E8B4E001C01D92EB
:1023F000A33BB207E1F711E1C2EED1E104C021979E
:10240000FE010E940F3AC13ED107C9F70E94D632A1
:102410000C94153A0C9400008093BB0084E88093E0
:10242000BC008091BC0087FFFCCF8091B900887F01
:10243000803231F481E08093330481E090E00895AC
:102440008033D9F781E080933404F7CF0E940C12D7
:10245000089594EA9093BC009091BC0097FFFCCF44
:1024600090E0880F991F0E942612089580913204EF
:10247000815080933204882351F084EC8093BC0017
:102480008091BC0087FFFCCF8091BB00089584E859
:102490008093BC008091BC0087FFFCCF8091350405
:1024A000882321F084E98093BC00EECF84EA8093F6
:1024B000BC008091BC0087FFFCCFE6CFCF93C62F36
:1024C00021E0209335046093320424EA2093BC0079
:1024D0002091BC0027FFFCCF880F991F8E7F917041
:1024E00081600E9426128C2FCF910895E62FF0E094
:1024F00093E0F595E7959A95E1F724E0829FC00176
:102500001124E80FF91FE857FA4F677021E030E017
:1025100001C0220F6A95EAF78081822B808308959B
:1025200090E0FC01EE57FC4D2491FC01E259FC4D7A
:102530003491FC01E65AFC4DE491EE23C9F02223CC
:1025400039F0233001F1A8F4213019F1223029F1BA
:10255000F0E0EE0FFF1FE05BFC4DA591B4918FB74B
:10256000F894EC91611126C030953E233C938FBFC7
:1025700008952730A9F02830C9F0243049F7809118
:1025800080008F7D03C0809180008F7780938000D2
:10259000DFCF84B58F7784BDDBCF84B58F7DFBCF54
:1025A0008091B0008F778093B000D2CF8091B0003F
:1025B0008F7DF9CF3E2BDACFCF93DF9390E0FC01F4
:1025C000E259FC4D2491865A9C4DFC01849188234C
:1025D000D1F090E0880F991FFC01EA5BFC4DA591BA
:1025E000B491FC01E05BFC4DC591D491623071F473
:1025F0009FB7F8943C91822F809583238C93E88138
:102600002E2B28839FBFDF91CF9108958FB7F89429
:10261000EC912E2B2C938FBFF6CF62E082E10E94CB
:10262000DC1262E083E10E94DC1288E48093B8004F
:102630001092B90008958E3008F08E508770806433
:1026400080937C0080917A00806480937A008091EE
:102650007A0086FDFCCF80917800909179000895F2
:102660003FB7F8948091840590918505A0918605E7
:10267000B091870526B5A89B05C02F3F19F001969C
:10268000A11DB11D3FBFBA2FA92F982F8827BC01CC
:10269000CD01620F711D811D911D42E0660F771FF4
:1026A000881F991F4A95D1F708958F929F92AF92F4
:1026B000BF92CF92DF92EF92FF926B017C010E945A
:1026C00030134B015C01C114D104E104F104B9F0F1
:1026D0000E943013681979098A099B09683E734082
:1026E0008105910580F321E0C21AD108E108F108C3
:1026F00088EE880E83E0981EA11CB11CE4CFFF90E9
:10270000EF90DF90CF90BF90AF909F908F90089503
:10271000CF93DF93C7E5D6E061E088810E94DC12A9
:102720006AE070E080E090E00E94551360E08881EC
:102730000E9490126AE070E080E090E00E945513E1
:1027400061E088810E9490126AE070E080E090E091
:102750000E945513DF91CF9108952FB7F89460919F
:1027600080057091810580918205909183052FBF2E
:1027700008950895B0E0A0E0E0ECF3E10C94E039B6
:102780006C017B018B01040F151FEB015E01AE187C
:10279000BF08C017D10759F06991D601ED91FC919E
:1027A0000190F081E02DC6010995892B79F7C501CB
:1027B000CDB7DEB7EAE00C94FC390F931F93CF93AB
:1027C000DF930BEA14E0EC01C457DF4FC801019717
:1027D000F1F761E070E0888199810E945E120E94A9
:1027E000361287FFF3CFDF91CF911F910F9108959C
:1027F000FF920F931F93CF93DF938C01EB010E9405
:10280000AD13607F7370D801ED91FC919F012F7023
:102810003327AF01407F5370FF2EF694F694B7E054
:10282000BF15F8F089B190E00F2C02C095958795FF
:102830000A94E2F781706417750708F47C5FDB0186
:10284000A41BB50B2330310591F1E8F4213031059B
:1028500049F110F1882309F469C0A034B10520F5CD
:1028600019C0AF2DB0E08DE08F1548F083B190E036
:10287000189702C095958795AA95E2F7DBCF86B1A8
:1028800090E01E97F6CF25303105A1F160F126309A
:102890003105C9F180E010C08111FCCFAB0121E00E
:1028A00030E00AC0882399F130E020E0F3CF8111B5
:1028B00031C0A034B14090F5EE27FC7FE22BF32B22
:1028C000407F53704E2B5F2BD8014D935C93882330
:1028D00079F1209719F06F2DFE010995CDB7DEB77C
:1028E000E5E00C94013A81111EC0D09728F3AB01AA
:1028F00087E0E2CF24E030E08823F1F2AB0122E070
:1029000030E08BE0D9CF22E030E08111D5CF23E059
:1029100030E0D2CFAB0126E030E0BCCFAB0124E009
:1029200030E083E0C9CF25E030E0B4CFAB01C4CFC5
:102930002330310598F288E0D1CF0E94291280E43B
:1029400090E00E94261208950E94291290E080E0F3
:102950000E9426120895AFE2B1E014962C911497CC
:10296000E0E7F5E020835C969C915C979283549617
:102970008C9184832183938385830895F89430997F
:1029800003C081E080932F0580912F0578940895EE
:10299000F894E1E6F0E090E89083808378940895DD
:1029A000E091DB0381E1E802F0011124E150FE4FE8
:1029B0008185928590934405809343050895E09125
:1029C000DB03809143059091440521E1E202F0018F
:1029D0001124E150FE4F248135818217930738F08E
:1029E000268137812817390710F09287818708954B
:1029F0000E94AD1360935205709353058093540564
:102A00009093550528EE33E040E050E00E9479397C
:102A100030935705209356050895FC01F894808162
:102A2000918120813181281B390B31832083789457
:102A300008959CEF960F923030F06A50623018F093
:102A4000833009F481E0089589B199B1E0915D0581
:102A5000EF7086958695827092FB992790F9892B65
:102A600094E0E99FF0011124EA5CFB4FE80FF11DAF
:102A700087FDFA95808180935D058073A9F0F894B5
:102A80002FEF3FEF803111F421E030E080914505D8
:102A900090914605820F931F9093460580934505BC
:102AA00081E080932F057894089598E0899FF00144
:102AB0001124E15DFE4F948181E0891B8483089598
:102AC00080E10E94551508958CE00E9455150895E7
:102AD0008EE00E945515089581E00E9455150895D5
:102AE0008DE00E94551580919B010E94C8140895A5
:102AF0008FE00E9455150895FC018081280F26174C
:102B000014F440830895421714F0208308956083DD
:102B10000895282F44E060E08BEB91E00E947C1543
:102B20000895CF93DF93EC01462FE091DB0381E121
:102B3000E802F0011124E150FE4FE485E95FF0E086
:102B4000EE0FFF1FE35FFE4F8081918168EE73E01F
:102B50000E946539FB01309779F028813981C901DC
:102B60000E945139009741F0442311F02E0F3F1F6E
:102B7000281B390B39832883DF91CF9108950E9458
:102B8000AD1328EE33E040E050E00E9479393093F5
:102B900057052093560581E08093580508950E94BB
:102BA000AD131092400510923F05089580912E01BB
:102BB000882329F090912E0181E0943008F080E084
:102BC00008950E94D61590E008958436910520F46A
:102BD0000A9758F481E00895803127E2920738F48B
:102BE000883E934030F483E0089582E0089585E0C4
:102BF000089584E008958F929F92AF92BF92CF92F2
:102C0000DF92EF920F93CF93DF93EC0131E021112C
:102C100001C030E0340FFE01E30FF11D1082F0E03F
:102C2000E0E0842F821B990B4C018AE0A82EB12C86
:102C3000E417B8F4222341F08E169F0629F4315090
:102C4000DE01A30FB11D0C9331506E01C30ED11CD8
:102C5000CB01B5010E945139805DD6018C9331962C
:102C6000E7CF211101C0242F80E02150330BE82F42
:102C7000F0E0E217F30744F4EC0FFD1F908190336E
:102C800019F4E0828F5FF3CFDF91CF910F91EF9036
:102C9000DF90CF90BF90AF909F908F900895089550
:102CA00090E080E0089584E98093BC008091330433
:102CB000882331F0109233041092340482E0089596
:102CC00080913404882321F01092340483E0089525
:102CD00080E0089580EC95E00E94DD1380914C0621
:102CE0000E94291282E190E00E94261290E080E08A
:102CF0000E94261281E00E940C1281E00E940C12B8
:102D000080919C060E940C1280919B060E940C12DE
:102D10000E94531683E998E00197F1F7089587E040
:102D20000E9455150E94D615882351F080919C066B
:102D300090916B0190FB85F980939C060E946A1626
:102D40000895E091DB0381E1E802F0011124E150F4
:102D5000FE4FE7850E2E000CFF0B90917B018091BA
:102D60009B06992329F020912E019150233051F494
:102D7000E359FB4F2081222321F0245091E022309F
:102D800008F490E09295907F8F70892B80939B063A
:102D90000E946A160895282F42E060E08BE791E0D8
:102DA0000E947C150E94D61581110E94A1160895DB
:102DB000CF93DF93D82FC92F80EC95E00E94DD13CD
:102DC000D0936B06C0936C06C0936E06D0936F06CB
:102DD0009091A106992361F080916D069295990FCB
:102DE000990F907C8370892B81608D7F80936D0615
:102DF00080914C060E942912809158060E940C1264
:102E000080916D060E940C1280916E060E940C1239
:102E100080916F060E940C12809170060E940C1225
:102E200080915806803421F4809171060E940C1222
:102E30000E94531680EC95E00E94DD13D0935D064E
:102E4000C0935E0660914E0670914F0690E080E060
:102E50000E945513DF91CF910895CF93C82FCF7063
:102E600080EC95E00E94DD1380914C060E942912AF
:102E700082E190E00E94261290E080E00E942612FB
:102E800081E30E940C1282E00E940C1281E00E94F9
:102E90000C128C2F0E940C120E94531680EC95E0AD
:102EA0000E94DD13CF9108958091A20687FD07C08F
:102EB00061E00E9490128BEA94E00197F1F780ECB8
:102EC00095E00E94DD1380914C060E94291281E159
:102ED00090E00E9426120E9453168BE097E2019721
:102EE000F1F70895B0E0A0E0E8E7F7E10C94DF39EE
:102EF000EC01162FFC01E856FF4F8081803261F013
:102F000098E0E92EF12C02E4803451F026E0E22E24
:102F1000F12C02E5803521F088E0E82EF12C02E268
:102F2000CE010E94DD13110F12706E018CE8C80EE5
:102F3000D11CF60180810E942912802F0E940C1260
:102F4000812F0E940C120E9453165E01FAEBAF0E05
:102F5000B11CCE010E94DD13B701F6018081918181
:102F60000E945E12912C092D10E00E151F0554F4DD
:102F70000E9436120C0F1D1FF801E654FF4F80838C
:102F80009394F1CFF501808186FDE3CFCE010E94BD
:102F9000DD13CDB7DEB7EBE00C94FB39EF92FF9277
:102FA0000F931F93CF93DF93EC01F62EE72E142F90
:102FB000052F0E94DD13C457DF4F88810E9429121C
:102FC00082E190E00E94261290E080E00E942612AA
:102FD0008E2D0E940C128F2D0E940C12802F0E94A9
:102FE0000C12812F0E940C120E94531683E998E064
:102FF0000197F1F7CDB7DEB7E6E00C94003A94EF15
:10300000980F9F3478F48093620624E531E0829F24
:10301000A001839F500D112463E071E380EC95E0E3
:103020000E94CE170895282F4AE56CE083E491E0D2
:103030000E947C1580912E01843021F08091430103
:103040000E94FF170895CF93C82F482F50E060E0EB
:1030500070E480EC95E00E94CE17C0939F06CF915C
:1030600008951F93CF93DF9380EC95E00E94DD13CA
:1030700080914C060E94291281E090E00E94261265
:1030800080919D060E940C1280919E060E940C1257
:103090000E94531680EC95E00E94DD13609150066B
:1030A0007091510690E080E00E9455138091A20635
:1030B00087FD07C060E00E9490128BEA94E00197C0
:1030C000F1F780916306811122C0C0916606D0910C
:1030D0006706AE0161E072E080EC95E00E94CE17D9
:1030E000D0936706C093660610916A06C091680681
:1030F000D0916906AE0162E072E080EC95E00E943A
:10310000CE17D0936906C093680610936A06DF91C4
:10311000CF911F9108951F93CF93DF93EC01122F4E
:1031200090935A068093590670935C0660935B06F1
:1031300081E090E09093600680935F064C175D07F6
:1031400020F06417750708F0EA019091A00620911D
:10315000630680919D063091640630FB87F98F7974
:1031600020FB84F9807F816080939D0690939E066A
:1031700080E48093580680916D06807C8160809306
:103180006D061092700681E0809371060E943118DE
:1031900080919F060E9423181093A10682E08093DD
:1031A0006106D0935E06C0935D06CE010E94D816DC
:1031B000DF91CF911F910895282F4FE060E08BEFB2
:1031C00091E00E947C1580912E01843059F4409149
:1031D000FB01042E000C550B63E073E180EC95E0DD
:1031E0000E94CE170895282F4FE160E083EF91E011
:1031F0000E947C1580912E01843059F44091F30196
:10320000042E000C550B62E073E180EC95E00E9407
:10321000CE170895282F4CE360E08BED91E00E94DB
:103220007C158091DB0181110EC0809147058823B8
:1032300051F050E040E061E070E480EC95E00E94E5
:10324000CE1710924705089585E00E94551580918C
:103250002E01843051F440915B014F5F50E060E0FB
:1032600071E180EC95E00E94CE170895282F4FE37E
:1032700060E083E591E00E947C15809158068032E1
:1032800049F04091530150E063E073E380EC95E036
:103290000E94CE170895282F40E260E08BE491E071
:1032A0000E947C1580912E01843049F040914B01A1
:1032B00050E062E073E380EC95E00E94CE17089541
:1032C000FF920F931F93CF93DF93F090D301CDEF35
:1032D000D0E205E111E2FE0165917491FE013296A2
:1032E00045915491F11002C0452F5527552780EC88
:1032F00095E00E94CE1724960C171D0761F7CDB7F5
:10330000DEB7E5E00C94013A84E10E945515809106
:103310002E01843011F40E9460190895B0E0A0E0FD
:10332000E4E9F9E10C94E239AC01EB0120914305A9
:1033300030914405A8EEB3E00E94C2396B017C01D4
:10334000CA019695879597018601080F191F211DBF
:10335000311DC901B8019A0150E040E00E9479395D
:10336000A90164E071E380EC95E00E94CE17CE01E4
:1033700096958795A7019601280F391F411D511D6C
:10338000CA01B9019E0150E040E00E947939A901CB
:1033900065E071E380EC95E00E94CE17CDB7DEB713
:1033A000E8E00C94FE39CF93DF93EC01FE016591C8
:1033B00074916115710551F0FE0132964591549159
:1033C00080EC95E00E94CE172496F0CFDF91CF914C
:1033D000089585E191E20E94D3194091F301042EF2
:1033E000000C550B62E073E180EC95E00E94CE1773
:1033F0004091FB01042E000C550B63E073E180EC5F
:1034000095E00E94CE1785E591E20E94D319809144
:10341000C301882329F085E391E20E94D31908951E
:1034200089E291E2FACF82E10E94551580912E0146
:10343000843011F40E94E91908958091CB0188230A
:1034400029F085EE90E20E94D31908958DED90E267
:10345000FACF83E10E94551580912E01843011F03E
:103460000E941D1A0895E091DB0381E1E802F0015A
:103470001124E150FE4F80858230B9F480912E01F5
:10348000811113C08091EB01823049F0833071F0DB
:10349000813059F484E292E00E94D319089560EBE0
:1034A00074E080E496E00E948E1908956CED75E05A
:1034B00080ED97E0F8CF282F43E060E08BEE91E0BD
:1034C0000E947C150E94331A0895B0E0A0E0EBE65C
:1034D000FAE10C94E2398C01D62FFC01E856FF4F3B
:1034E000808198E0E92EF12CC3E2803251F026E091
:1034F000E22EF12CC3E4803521F488E0E82EF12C93
:10350000C3E5C8010E94DD1368018CE8C80ED11C18
:10351000F60180810E9429128C2F0E940C128D2F9F
:103520000E940C120E945316C8010E94DD13B701BD
:10353000F601808191810E945E12D12CCD2DD0E0C8
:10354000CE15DF054CF40E943612C00FD11FCE54A9
:10355000DF4F8883D394F2CFCDB7DEB7E8E00C9489
:10356000FE39CF93DF93EC010E945316188283E05B
:1035700090E00197F1F7DF91CF910895CF93DF931A
:10358000EC01862F0E940C128F858F5F8F87803110
:1035900038F0CE010F960E94B11A8C810E949D14C2
:1035A000DF91CF910895B0E0A0E0E9EDFAE10C944D
:1035B000E339D82FC62FF42ED22E8091A7060E9471
:1035C000A41461E283EA96E00E94BE1A6D2F83EA9A
:1035D00096E00E94BE1A6FEF6F0D6D0F83EA96E0C2
:1035E0000E94BE1A62E283EA96E00E94BE1AEC2EA6
:1035F000E694E694E6946E2D83EA96E00E94BE1A65
:10360000CD0DDD27DD1F219783E0D595C7958A95E0
:10361000E1F76C2F83EA96E00E94BE1A82EB96E0F7
:103620000E94B11ACE19CF5FCF9DE0011124809185
:10363000A7060E949D147801C00FD11FEC16FD064D
:1036400071F060E00115110511F0F701608183EA66
:1036500096E00E94BE1AFFEFEF1AFF0AEFCF82EB4F
:1036600096E00E94B11ACDB7DEB7E7E00C94FF39BF
:10367000B0E0A0E0EEE3FBE10C94DC39E0EDE80F14
:10368000EA3008F448C08E3209F068C024E0C22E47
:1036900094E0C99EA0011124A8E8B5E01D929D0107
:1036A0002858354024173507C8F38E3209F4EAE06C
:1036B000D62EF0E0EA54FC4DE49106E913E2F12C39
:1036C000E12CCE2FD0E0CE010E2C02C0959587952F
:1036D0000A94E2F780FF30C0F80184903196A490FC
:1036E000319694903196B49066246394680CBB2014
:1036F000A9F0B12C662463946A0C9B14E9F0782C31
:103700007B0C6A2D872D0E947612662D872D0E94D4
:103710007612B394F2CF9EE0C92EBACF9B1461F01B
:103720007A2C7B0C672D882D0E947612672D862DB2
:103730000E947612B394F2CFFFEFEF1AFF0A0C5FEC
:103740001F4F88E0E816F10409F0BDCF08E815E046
:1037500020E24C2D60E18D2D0E94D31ACDB7DEB74B
:10376000EEE00C94F8390F931F9310E000E00E94F4
:10377000D31A1F910F910895B0E0A0E0E2ECFBE1B5
:103780000C94E2396C018B017A01E9018091A70662
:103790000E94A41461E283EA96E00E94BE1A60E0EF
:1037A000D7FC07C06091AA0670E0C616D7060CF4D5
:1037B000B60183EA96E00E94BE1A6091AA0670E004
:1037C000E616F7060CF4B70183EA96E00E94BE1AEB
:1037D00062E283EA96E00E94BE1A60E017FD07C02D
:1037E0006091A80670E0061717070CF4B80183EA89
:1037F00096E00E94BE1A60E0D7FD07C06091A8065F
:1038000070E0C617D7070CF4BE0183EA96E00E9469
:10381000BE1A82EB96E00E94B11ACDB7DEB7E8E09F
:103820000C94FE39E3EAF6E0948783877687658710
:1038300023E0759567952A95E1F7478150E09B0154
:103840000E94BC1B089523E0660F771F2A95E1F7BD
:103850000E94121C0895CF93C82F8091A7060E9442
:10386000291280E890E00E9426126C2F83EA96E0ED
:103870000E94BE1A82EB96E00E94B11ACF91089581
:10388000CF93DF932091A80630E04091AA0650E044
:1038900070E060E090E080E00E94BC1B8091A70691
:1038A0000E949D14C0E0D4E060E083EA96E00E94AC
:1038B000BE1A2197C9F782EB96E00E94B11A609177
:1038C000B0067091B1068091AE069091AF060E944D
:1038D000121CDF91CF910895A3E0B0E0E2E7FCE194
:1038E0000C94E3399B838A83FC012781838594852B
:1038F0000696281719060CF43AC0062F84810E94F8
:103900009D14F12CE12CF0EEF00FF9830052110B15
:1039100009511D4D86E0D82E89818F3570F5F8014B
:1039200084918F3F51F1F7018D9DE00DF11D112420
:10393000E953FE4D6491EA81FB8180858111609598
:103940008A819B810E94BE1AEA81FB8183859485CE
:10395000019694878387FFEFEF1AFF0A86E0E81647
:10396000F104D1F68A819B810F960E94B11A81E001
:1039700090E02396E7E00C94FF3960E0DCCF682FFD
:1039800083EA96E00E946C1C0895CF9380912E01EB
:103990008430B1F48091480581110CC0C0E268E325
:1039A00070E088E190E00E94121C8C2F0E94BF1CE6
:1039B000CF9108958091D301CAE2882381F3EECF9D
:1039C00080912E01833039F480910901C5E5813061
:1039D00031F7CCE4E4CF0E94D6158823F9F2809128
:1039E0008301C3E58130D1F6DACF0F931F93CF93D4
:1039F000DF938C01D0E0C0E0F801EC0FFD1F649173
:103A0000662341F083EA96E00E946C1C892B11F03A
:103A10002196F2CFCE01DF91CF911F910F910895A2
:103A2000FF920F931F93CF93DF938A01F22E70E0E2
:103A300090E00E94231CC3EAD6E0F886C8010E94E9
:103A4000F51C1886CDB7DEB7E5E00C94013A8091FD
:103A50002E018330F8F4E091DB03813018F181E12D
:103A6000E802F0011124E150FE4FE78548EF50E0F5
:103A7000E40FF52FF11D449180917B0521E0833007
:103A800009F020E050E042505F4F67E088E20E947A
:103A9000101D08958330E9F3843071F0E0E050E0C8
:103AA00040E0E6CF81E1E802F0011124E150FE4F51
:103AB000E68541EF50E0DCCFE091DB0381E1E802F5
:103AC000F0011124E150FE4FE0894CEE50E0D0CFE0
:103AD000EF92FF920F931F93CF93DF9390912E015C
:103AE000933091F1182FC091DB03EC2E0C2E000CBB
:103AF000FF080E94D61501E1C002E00111248823CD
:103B000041F1212F45E060E0CE01825F9D4F0E9490
:103B10007C150E9DF0010F9DF00D1124E150FE4F1C
:103B2000E7850E2E000CFF0BE359FB4F90819F7031
:103B300080919B06807F892B80939B060E946A164A
:103B40000E94A1160E94271DCDB7DEB7E6E00C94B7
:103B5000003A00912E0101111AC0C35FDD4F212FE1
:103B600046E060E0CE010E947C15011116C08091F4
:103B70005806803439F7E8810E2E000CFF0BEA5905
:103B8000FB4F80818730F0F60E942D17DBCFC15F9D
:103B9000DD4F212F219544E0E4CF488150E062E0E1
:103BA00071E180EC95E00E94CE17CCCF1F93CF93AC
:103BB000DF9380917B0511E0823009F010E0212F26
:103BC00045EE50E060E082E20E94101DC091DB03F0
:103BD0000C2E000CDD0B80912E018430D1F481E19C
:103BE0008C9FF0018D9FF00D1124E150FE4F8585D3
:103BF0008C5F1093AB0627E0829FC00111248B5885
:103C00009F4F0E94F51C1092AB06DF91CF911F9140
:103C100008950E94D615882359F081E18C9FF00108
:103C20008D9FF00D1124E150FE4F8485895FE1CF17
:103C300081E18C9FF0018D9FF00D1124E150FE4F2A
:103C40008385D7CF0F931F93CF93DF93C091DB036F
:103C50002C2F0C2E000C330B90912E0141E1C4024D
:103C6000E0011124913050F1943010F1943031F58D
:103C7000C45FDD4F06E011E042E0282F60E0CE0196
:103C80000E947C150115110561F08881880F990B40
:103C9000080F191FF801808191819093600680932D
:103CA0005F060E94D61DDF91CF911F910F9108955D
:103CB000C55FDD4F10E000E048E0DFCFC65FDD4FBD
:103CC00091E1929FF001939FF00D1124E150FE4F7E
:103CD00090850DE011E043E0923078F246E0CDCFE0
:103CE000CF93C0918B018091A7060E94A41461E834
:103CF00083EA96E00E94BE1A82E8C89F90011124D0
:103D00002455384EAC2FB0E00E94C23961E0670FF5
:103D100083EA96E00E94BE1A82EB96E00E94B11AF6
:103D2000CF91089590918B01890F8A300CF089E032
:103D300087FD80E080938B010E94701E0895A8E0AB
:103D4000B0E0E5EAFEE10C94DE393B9A439A88E064
:103D50008093B8000E94541780EC95E00E94DD1318
:103D600080914C060E94291281E090E00E94261268
:103D70008FE190E00E94261285E090E00E942612DA
:103D80000E9453167E0189E0E80EF11C80EC95E05C
:103D90000E94DD1368E070E080914C0690914D0622
:103DA0000E945E128E010F5F1F4F0E943612F801B3
:103DB00081938F01EE15FF05C1F7898186FDE6CF5E
:103DC0008BE097E20197F1F780EC95E00E94DD131C
:103DD00080914C060E94291281E090E00E942612F8
:103DE00081E390E00E94261285E090E00E94261276
:103DF0000E945316609150067091510690E080E049
:103E00000E94551362E370E080E090E00E94551339
:103E1000D12CC12CF12CE12C10E000E0F7E3EF16DF
:103E2000F10408F076C0F701EE0FFF1FE85CFD4FCC
:103E300085919491C816D90609F06BC08FEFE81AE6
:103E4000F80A95E1B92E80914C060E9429128B2D1B
:103E50000E940C12B12CA12CF801EA55FD4F4F0124
:103E6000F401EA0DFB1D84910E940C12FFEFAF1AC2
:103E7000BF0A87E0A816B10499F70E94531680EC98
:103E800095E00E94DD1361E070E080914C06909116
:103E90004D060E945E120E94361286FD0EC09FEFF4
:103EA000C91AD90A095F1F4F0733EEE11E0709F04F
:103EB000B5CF83EE93E00197F1F7809158068032F9
:103EC000E1F0E091DB0381E1E802F0011124E1502F
:103ED000FE4FE7850E2E000CFF0BE359FB4F808150
:103EE0008F70806180939B0680919C0680788061B2
:103EF000806880939C060E946A1688E48093B800CC
:103F000081E0809330053B9A43982896ECE00C942E
:103F1000FA3986E1B82E97CFCF93DF93E091E30192
:103F2000EE0FFF0BE05DFD4FC591D49180912E0106
:103F3000833009F04DC080910901823019F4D19588
:103F4000C195D10980912E01833009F044C0909130
:103F500009012091630184E6280290011124923026
:103F600019F431952195310980915806803269F113
:103F70008091410590914205280F391FC20FD31F30
:103F8000D195C195D10980EC95E00E94DD13809117
:103F90004C060E94291282E190E00E94261290E0D5
:103FA00080E00E94261281E00E940C1280E00E94B4
:103FB0000C128D2F0E940C128C2F0E940C120E944A
:103FC000531683E998E00197F1F7DF91CF910895B7
:103FD000D0E0C0E0B7CF90912E01BBCF282F43E0B7
:103FE00060E083EE91E00E947C1580912E01833089
:103FF00011F40E948C1F0895282F49E167EE83E693
:1040000091E00E947C150E94D61581110E948C1FA0
:1040100008951F93CF93DF9391E018160CF090E072
:10402000CFEFC80F82300CF4C0E080915806D8E280
:10403000803221F0D8E4803509F4D8E510E090FB17
:1040400010F980EC95E00E94DD1380914C060E94EF
:1040500029128D2F0E940C12812F0E940C128C2F7E
:104060000E940C120E94531680EC95E00E94DD1312
:10407000DF91CF911F91089590912E0145E29430E8
:1040800009F44AE1282F60E083E391E00E947C1567
:10409000809133010E9409200E94E11580599A4FB6
:1040A00020913301FC01208308950E94E11580597D
:1040B0009A4FFC0180810E94092008958091DC03C1
:1040C00081110DC081E08093DC0380919B010E94EF
:1040D000C8148FEA0E942B1C10927C0508958091D1
:1040E00051058111FBCF1092DC0381E00E94C814BE
:1040F0008EEAF0CF8091DC03811112C080917C05A3
:10410000882371F081E08093DC0380919B010E9401
:10411000C8148FEA0E942B1C10927C050E94F81490
:1041200008958F929F92AF92BF920F931F93CF9358
:10413000DF93CDB7DEB7A1970FB6F894DEBF0FBE01
:10414000CDBF19A2423008F44AE08E010F5D1F4F27
:10415000842E912CB12CA12CA50194010E947939B7
:10416000E62FB901CA01EA3044F5E05DD801EE93CB
:104170008D01232B242B252B79F790E080E01097DD
:1041800069F0FD0101900020E9F73197AF014A1B6A
:104190005B0BBD0183EA96E00E94BA13A1960FB6AD
:1041A000F894DEBF0FBECDBFDF91CF911F910F916D
:1041B000BF90AF909F908F900895E95CD7CF682F04
:1041C00070E090E080E04AE00E9491200895CF9353
:1041D000DF9370E060E090E080E00E94121CC3EA90
:1041E000D6E081E0888781E192E00E94F51C809111
:1041F0000C010E94DF208CE70E94BF1C85E00E941A
:10420000DF201886DF91CF9108951F93CF93DF931E
:1042100070E060E090E080E00E94121C81E08093FA
:10422000AB068DE791E00E94F51C10913705112334
:1042300019F1D0913605DF5F91E0DA3008F092E0B5
:1042400081E01A3008F082E0C4E0C91BC81BC150ED
:1042500020F080E20E94BF1CFACF8D2F0E94DF2049
:104260008CE70E94BF1C812F0E94DF201092AB06BA
:10427000DF91CF911F91089587E791E00E94F51C8F
:10428000F5CFCF938091510581112AC080915A05B5
:10429000811126C068E370E08AE590E00E94121C5C
:1042A000C0912D01CF3FF1F481E790E00E94F51C11
:1042B00028E04CE060E182E70E94B31B0E94D61523
:1042C00081110EC08091740683FF0AC060E170E026
:1042D00082E790E00E94121C8EE690E00E94F51C9E
:1042E000CF910895CA3018F480E20E94BF1C8C2F31
:1042F0000E94DF208CE70E94BF1CDACF0F931F9330
:10430000CF9390913205992309F4CFC09091A301E6
:10431000913009F44DC090E1C82F892F0E941B13E2
:104320001816190614F08BEE91E0209100013091DF
:1043300001012F3F3F4F21F4909301018093000131
:10434000609100017091010147E0469F9001479FF5
:10435000300D1124280F391F83E0359527958A9554
:10436000E1F7309301012093000164E6273882E0F1
:104370003807B0F460E02C3E81E0380788F0293639
:1043800082E03807B8F042E1429FC001439F900DA0
:10439000112480559B426FE170E00E9451396E5AA2
:1043A00080910201962F981BA9F5109288043FC0B6
:1043B0009FE0B2CF223482E0380770F043E2429FA0
:1043C000C001439F900D1124835E9E4467E270E01C
:1043D0000E945139615DE4CF233182E0380770F0EB
:1043E00048E2429FC001439F900D1124805D924599
:1043F0006FE270E00E945139695FD2CF429FC001E5
:10440000439F900D11248D569D4067E270E00E94FD
:104410005139C6CF9E5F953018F060930201C5CF29
:10442000909188049F5F909388049530B0F70E9424
:10443000AD130091890410918A0420918B0430916E
:104440008C04601B710B820B930B613177428105E9
:10445000910510F4CC2349F18091510581111BC0C5
:10446000C091020167E070E08CE690E00E94231C9E
:104470001092AB066C2FC53608F064E670E090E051
:1044800080E04AE00E9491201092AB06C43618F4F6
:1044900085E20E94BF1C0E94AD1360938904709353
:1044A0008A0480938B0490938C04CF911F910F9179
:1044B0000895009771F0BC01FC0101900020E9F71C
:1044C0003197AF01481B590B83EA96E00E94BA135B
:1044D000089590E080E00895EF920F931F93CF939B
:1044E000DF9300D01F92CDB7DEB7809151058111C7
:1044F00024C080913105811129C060919F0670E030
:1045000080E2E82E00E020E042E0CE0101960E9429
:10451000FB1510917B0570E060E082E790E00E945F
:10452000231C81E0113009F080E08093AB06CE01BE
:1045300001960E9459221092AB060F900F900F9097
:10454000DF91CF911F910F91EF90089580E28983C1
:104550008DE48A831B82DDCF90913105992341F050
:10456000892F109231050E9423180E946C22089511
:1045700090919F06890F803414F08FE3F4CF87FF6A
:10458000F2CF80E0F0CFCF93C82F80913105882300
:1045900041F0C3FD11C0C13011F4663069F481E00F
:1045A00009C08C2F8370833039F4CB3029F08FEF22
:1045B0006630A9F30E94AC228C2FCF910895809190
:1045C0005105811112C080917B05813071F090916D
:1045D0009F0680913105992349F0811109C090937C
:1045E00031050E9423180E946C2208958823D9F374
:1045F0000E94231810923105F6CFA9E0B0E0E3E065
:10460000F3E20C94D839109136059BEA199F112DCD
:1046100011241695F0903705811105C08091040191
:10462000811709F4EEC01093040128E340E868E024
:1046300080E0F1100DC00E94B31B20E04EE851E075
:1046400064E084E20E94101D2996E2E10C94F439A2
:104650000E94B31B812F880F180F212F30E08F2D60
:1046600090E02D5F3F4F821793070CF49C01298740
:1046700025E0129FC0011124DC01A553BB4F6D0141
:1046800092E0392E26E0222E3AE0632E712C44E689
:10469000442E512CB9851B17B8F60091360528E039
:1046A00040E8632D660F660F660F80E00E94B31B23
:1046B000832C912CB40190E080E00E94231C8EE3B7
:1046C000101380E20E94BF1C1F5F812F6AE00E94CE
:1046D0004539092F805D0E94BF1C80E3800F0E9436
:1046E000BF1C80E20E94BF1CF60182818430D1F59C
:1046F00080819181B2010E9451395B01B3010E9416
:104700005139F62E84E0F4E6AF16B10408F085E0E6
:1047100021E1281BB401229DC00111240E94231C09
:10472000B50190E080E04AE00E9491208EE20E9474
:10473000BF1C8F2D0E94DF20B4018CE690E00E9408
:10474000231CD60112968C91B4E08B9FC0011124DA
:104750008E5A9B4F0E945922E5E0CE0ED11C339415
:10476000339498CF0190F081E02DFF24FA94F80E55
:10477000B2E0B12CA12CBF15A0F0D60113968D91FB
:104780009C9168EE73E00E94653997FF04C08851E0
:104790009C4F61507109E60FF71FB3010E94653904
:1047A0005B0180E2E82E0EE220E045E0BF01CE0191
:1047B00001960E94FB15B2E088E0BF1508F485E081
:1047C000E1E1E81BB401E29DC00111240E94231C19
:1047D000CE0101960E945922F2E0FF1508F4ACCFF9
:1047E0008EE20E94BF1C2AE0A216B10418F480E3F6
:1047F0000E94BF1CB50190E080E04AE00E94912039
:104800009BCFFF2009F420CF182F110F180F212F55
:1048100030E08F2D90E02D5F3F4F821793070CF40F
:104820009C01F22E02E01F1508F00ECF602F70E001
:1048300090E080E00E94231C80913605181306C08A
:104840008EE30E94BF1C1F5F0E5FEDCF80E2F9CFA9
:10485000A7E0B0E0EEE2F4E20C94DB3950905105B1
:10486000511061C0882E0E94D615982E6090430585
:1048700070904405811179C0E091DB0391E1E90278
:10488000F0011124E150FE4F808523E8C22E24E080
:10489000D22E13E0833081F0823049F48091AB0155
:1048A00063E8C62E64E0D62E12E0813029F09FE73F
:1048B000C92E94E0D92E10E08FE2E82E0EE2212FCF
:1048C00045E0B301CE0101960E94FB15C3010E9491
:1048D000E515F82E512C8CE045E0112309F46FC04A
:1048E0008CE045E05524539411E069C08091CA04DE
:1048F0008F1509F490C020E24DE760E183E089C0A4
:10490000911015C028E042E168E28DE60E94B31BD9
:1049100068E270E08DE690E00E94121CC6010E94E1
:104920005922F092CA042796EFE00C94F739B801A7
:104930008EE20E94381B9801295F3F4FC5016AE053
:1049400070E00E945139962FB82EB90180E3890F8B
:104950000E94381BB801685E7F4F80E38B0D0E9478
:10496000381B84E08F1570F6DCCF80914105909163
:10497000420568EE73E00E94653997FF04C08851D4
:104980009C4F61507109660E771E6AE070E00E94CC
:1049900065395B01C3010E94E515F82E30E2E32E74
:1049A0000EE220E0482FB301CE0101960E94FB15D4
:1049B0004F2D5FE7C52E54E0D52E83E010E0140F95
:1049C0009EE0499FA0011124552011F04C5F5F4FDC
:1049D000123038F0E3E01E9F400D511D112443506A
:1049E000510929E230E0911002C030E020E090E06F
:1049F000420F531F0AE610E0041B150B0817190796
:104A00000CF48C01882009F471CF20E240E860E1C9
:104A100080E00E94B31BCE0101963C01F30181901E
:104A20003F01882009F46CCFB801882D0E94381B03
:104A3000FEE284E08F128EE090E00396080F191FCB
:104A4000EDCF909344058093430580E00E94282495
:104A500064E670E080E090E00E9455130895CF93E3
:104A600080917B05E091DB03843059F481E1E80219
:104A7000D0011124A150BE4FC1E018968C91833013
:104A800009F4C0E081E1E89FF0011124E150FE4FFC
:104A900084E0A6E7B5E001900D928A95E1F71092C7
:104AA0007A0570E060E090E080E00E94231CC093F3
:104AB000AB0686E795E00E9459221092AB06CF9193
:104AC0000895CF93DF9380917B05843061F4E0916A
:104AD000DB0321E1E202F0011124E150FE4FD1E0BD
:104AE0008085833009F0D0E0C0912E0167E070E04E
:104AF00090E080E00E94231CD093AB0624E0C29F8C
:104B0000C00111248E5A9B4F0E9459221092AB066D
:104B10000E94C51C80915105811102C00E942F2561
:104B2000DF91CF910895CF93C82F0E9441218C2F00
:104B30000E9428240E9461250E94D61D0E94271DE4
:104B400081E00E947E210E946C22CF910895B0E006
:104B5000A0E0EDEAF5E20C94DE39F82EE091DB03FB
:104B600021E1E202F0011124E150FE4F1085992469
:104B70009394133009F0912C80912E018824839412
:104B8000843009F0812C80914705882351F050E052
:104B900040E061E070E480EC95E00E94CE17109256
:104BA0004705891411F03B9A439A0E94D0148FEF65
:104BB00080932D0190919301133009F491E080913D
:104BC0006D06837C80936D0620915806203409F48D
:104BD00002C1903C08F090E09093700680915D06D1
:104BE00090915E060E94D816C091DB030C2E000C3B
:104BF000DD0B133009F0F7C084E080932E01109292
:104C0000480581E18C9FF0018D9FF00D1124E1504A
:104C1000FE4FA5850A2E000CBB0BAA5FBE4F2C9140
:104C2000022E000C330B81859285468157810481C9
:104C3000158110935A060093590650935C064093D1
:104C40005B063093600620935F068017910720F083
:104C50004817590708F08C010E9454179091A0063C
:104C6000209163063091650680919D06409164060F
:104C700040FB87F930FB86F98F7D20FB84F9807F2C
:104C800080939D0690939E0680E2809358068091C3
:104C90006D06807C836080936D061092700681E0C3
:104CA000809371060E94311880919F060E942318FC
:104CB0001092A10680914C060E94291282E190E098
:104CC0000E94261290E080E00E9426128FEF90E072
:104CD0000E94261290E080E00E94261290E080E080
:104CE0000E94261290E080E00E9426120E94531635
:104CF0008BE097E20197F1F71092610610935E0640
:104D000000935D06C8010E94D81621E12C9FC001C6
:104D10002D9F900D1124EC01C150DE4F0E811F819B
:104D20004C815D8160E074E180EC95E00E94CE17DB
:104D3000A80161E074E180EC95E00E94CE174AE0A2
:104D400050E062E074E180EC95E00E94CE1742E012
:104D500050E063E074E180EC95E00E94CE1745E0FE
:104D600050E064E074E180EC95E00E94CE17109270
:104D70003005488950E062E071E180EC95E00E94E6
:104D8000CE1740915B014F5F50E060E071E180EC35
:104D900095E00E94CE170E94E9190E9460190E94B6
:104DA000552080915105811105C00E94401C81E071
:104DB0000E949325891411F03B9A439880914305F2
:104DC000909144059093400580933F05CDB7DEB7A1
:104DD000ECE00C94FA398D7F80936D06109270068A
:104DE00090937106FBCE21E12C9FC0012D9F900D69
:104DF0001124DC01A150BE4F5D0114960D911C9150
:104E000015971696CD90DC901797809130058823E2
:104E100009F4BCC01F968C911F9786301CF084E06B
:104E20001F968C93F1100E949F1E80919C0690917A
:104E3000730190FB84F980939C060E946A1680910E
:104E40002E01833009F08BC02091090181E18C9FF4
:104E5000F0018D9FF00D1124E150FE4F41855285E8
:104E6000B601C8010E948B180E94A11690912E01D4
:104E700080919C06933009F075C0806880939C06F1
:104E80000E946A1680919C06807F80939C060E94F7
:104E90006A164091730550E062E073E380EC95E0A0
:104EA0000E94CE174091530150E063E073E380EC21
:104EB00095E00E94CE1780912E0194E0833079F026
:104EC00081E18C9FF0018D9FF00D1124E150FE4F88
:104ED000E7850E2E000CFF0BE359FB4F90819F706E
:104EE00080919B06807F892B80939B060E946A1687
:104EF0000E948C1F80919C0690916B0190FB85F91C
:104F000080939C060E946A160E94E11580599A4F70
:104F1000FC0184810E94FF17A80160E074E380EC2B
:104F200095E00E94CE17A60161E074E380EC95E065
:104F30000E94CE1743E050E063E074E380EC95E01C
:104F40000E94CE174AE050E064E074E380EC95E004
:104F50000E94CE170E941D1A0E94331A20CF209162
:104F60002E0174CFF090830191E09F1990FB87F997
:104F700080939C060E946A168F2D880F8F0D982FA4
:104F80009F7080919C06807F892B7FCF10922E018D
:104F90000E94E1157C01D5011B96EC911B97EE0F49
:104FA000FF0BE35FFE4F808191811996AD90BC901D
:104FB00010935A0600935906D0925C06C0925B0685
:104FC0009093600680935F06A016B10608F47BC03C
:104FD000CA14DB0408F477C080916106813069F15E
:104FE0000E9454179091A0062091630680919D061F
:104FF0003091640630FB87F98F7920FB84F9807F3C
:10500000816080939D0690939E0680E4809358066D
:1050100080916D06807C816080936D061092700691
:1050200081E0809371060E943118809162060E948F
:10503000FF1780919F060E9423181092A10681E01D
:1050400080936106B0925E06A0925D06C5010E9443
:10505000D81680915806803499F481E18C9FF00134
:105060008D9FF00D1124E150FE4FE6850E2E000CB1
:10507000FF0BEA59FB4F8081873010F40E942D17F7
:1050800042E050E061E073E380EC95E00E94CE17CF
:10509000E701C059DA4F4A8150E062E073E380ECE7
:1050A00095E00E94CE174091530150E063E073E316
:1050B00080EC95E00E94CE1788810E9409208C81A7
:1050C0000E94FF1721CF580187CFCF9380912E01E7
:1050D000833019F18AE00E9455150E94D615882365
:1050E000E1F0C091830181E08C1B90919C0680FBD4
:1050F00097F990939C060E946A168C2F880F8C0F4C
:10510000982F9F7080919C06807F892B80939C06AE
:105110000E946A1681E00E94A725CF910895809190
:105120005105811107C00E94D615882319F080E02F
:105130000E946528089588E00E9455150E94D615A2
:10514000882369F080919C069091730190FB84F90B
:1051500080939C060E946A1681E00E94A72508950C
:105160000F931F93CF93DF93182FD62F0E94DF1436
:105170000E94BF15C091DB031092420510924105B9
:105180008FEF111181E0082E000C990B8C0F911DEF
:10519000C7FD9A954C966CE170E00E9465398C01D0
:1051A0008093DB03D1110E94D0148091430590912C
:1051B0004405909334058093330521E12C9FF00141
:1051C0001124E150FE4FD085209FF001219FF00D6A
:1051D0001124E150FE4FC08531E0D33009F030E0BA
:1051E00021E0C33009F020E0321741F080E00E9456
:1051F000A725DF91CF911F910F9108950E94D81696
:105200000E94552080E00E94681D8091AB01882398
:1052100059F021E0D23009F020E091E0C23009F0ED
:1052200090E081E0291301C080E00E942824809151
:105230005105811102C00E942F250E94D61D809128
:105240004305909144059093400580933F05D1CF4D
:10525000EF92FF920F931F93CF93DF9385E495E036
:105260000E940D157C01892B09F45FC081E01E149A
:105270001F040CF080E080930501E091DB030E2F0A
:105280000E2E000C110B91E1E902F0011124E15006
:10529000FE4F9085933009F04DC0E5850E2E000C31
:1052A000FF0BEA5FFE4F2081022E000C330B2E9D78
:1052B000E0012F9DD00D3E9DD00D1124409143055E
:1052C00050914405C40FD51F91E1909FF001919F2B
:1052D000F00D1124E150FE4F468157814C175D07B8
:1052E00088F144815581C417D50760F1CE01B90119
:1052F0000E945139009709F05DC0D0934405C093D6
:10530000430581E080933C050E94AD1360934D05F9
:1053100070934E0580934F059093500580E00E9456
:1053200028240E94DF140E94BF15CDB7DEB7E6E047
:105330000C94003AE385EE0FFF0BE35FFE4F2081F4
:105340003181B5CF60E00E94B0288091DB03082E48
:10535000000C990B21E1209FF001219FF00D1124F9
:10536000E150FE4F3085333059F0289FF001299FDE
:10537000F00D1124E150FE4F2085233009F0BDCF00
:1053800020910501222359F021E1289FF001299F56
:10539000F00D1124E150FE4FC481D581AECF21E143
:1053A000289FF001299FF00D1124E150FE4FC68186
:1053B000D781A3CFC81BD90B1E141F0414F030E0F3
:1053C00020E0C20FD31F99CFB0E0A0E0EAEEF9E2EF
:1053D0000C94E239C82FD62F8370833041F5809129
:1053E0005105811124C0CB3011F10E94AD136B0126
:1053F0007C0180918F04909190040FE814E0D830E4
:1054000031F080918D0490918E040DE814E09601A6
:10541000281B390B203F310550F081E0D83009F0CE
:1054200080E061E00E94B028F801D182C0828C2F18
:10543000CDB7DEB7E8E00C94FE39809151058111BB
:105440003DC080915A05811139C080912E01813073
:1054500059F180912E01823039F180912E018330F3
:1054600069F520912E01233049F580910901281B0F
:1054700020930901E091DB034091430550914405DD
:1054800081E1E802F0011124E150FE4F668177814D
:10549000848195810E948B180E948C1F81E00E945C
:1054A00028240E94C51C089580912E01813039F076
:1054B00081E080932E0180E00E94A725089582E07C
:1054C000F8CF80915105811144C080913705843116
:1054D00068F52091430530914405EBECF4E090E051
:1054E000891769F0408151814217530729F440918F
:1054F0002E0152815417D1F09F5F3596F1CF9091D4
:105500002E01409141055091420565E0869FF001D2
:105510001124E553FB4F31832083928354834383CB
:105520008F5F8093370581E08093910468E170E09C
:105530008DE290E00E94121C88E690E00E94F51C2B
:1055400064EF71E080E090E00E94551381E00E94DA
:1055500093250895833021F490912E019330C9F062
:1055600090915105911115C090917B05891301C04F
:1055700080E080937B0580917B05882359F00E9411
:10558000F8140E946C220E94D61D0E94271D0E94C2
:1055900061250895109252051092530510925405FA
:1055A00010925505EECF1F93CF93DF93CDEDD3E04F
:1055B0006A817B81888199810E94F813182F882342
:1055C00079F08091DC03811114C080917C058823DF
:1055D00081F00E947A20888199818D57954059F4F5
:1055E000299684E0CE32D80719F7DF91CF911F9129
:1055F00008950E94F814113039F01B3089F7EE81BC
:10560000FF81309729F4ECCFEC81FD81309711F0C8
:105610000995E6CF8885882319F30E94AA2AE0CF4E
:1056200080917B05882391F010927B0510925205A2
:105630001092530510925405109255050E946C2249
:105640000E94D61D0E94271D0E9461250895B0E08A
:10565000A0E0EDE2FBE20C94E2392091DB03C1E132
:105660003C2F2303F0011124E150FE4F808583304D
:1056700009F4B4C0809151058111B0C00E94102B73
:105680000091DB03002E000C110B20912E01C09F16
:10569000C001C19F900D112481509E4FFC0121112A
:1056A00088C0C685D0912E010E94D615882309F4A2
:1056B00051C0C0904305D0904405F12CE12C2091BD
:1056C000410530914205C90168EE73E037FF06C01D
:1056D00087EE93E0821B930B68E17CEF0E946539B3
:1056E000DB01AB01770F660B770B4C0D5D1D6E1D5B
:1056F0007F1D81E1809FF001819FF00D1124E15019
:10570000FE4F848195816C01F12CE12C4C155D05D7
:105710006E057F050CF44FC0868197816C01F12CDA
:10572000E12CC416D506E606F7060CF444C0E8E101
:10573000FCEFAE9FC001AF9F900DBE9F900D112456
:10574000820F931F50934405409343059093420565
:1057500080934105D150D23058F4000F111FF80149
:10576000EE56FB4F809141059091420591838083D5
:105770000E94DF140E94BF1580912E01833011F426
:105780003B9A439A0091DB03002E000C110B809191
:105790002E018330A0F48130B8F180912E018093E6
:1057A000030183E080932E0110924205109241057F
:1057B00008C0C78577CFAC0190E080E0C3CF8330CD
:1057C00091F080E00E94A72580913005811106C0EC
:1057D00080912E01811102C03B9A4398CDB7DEB76C
:1057E000E8E00C94FE3910922E011092300581E110
:1057F000809FF001819FF00D1124E150FE4FC730D2
:105800000CF0C6E0C687DDCF8091030180932E01A6
:105810000E949F1E81E1809FF001819FF00D112465
:10582000E150FE4FC6300CF0C5E0C787000F111FD6
:10583000F801EE56FB4F8081918190934205809351
:105840004105BFCFA5E0B0E0E8E2FCE20C94E83906
:1058500041E1849FF0011124E150FE4F2185328502
:105860003A83298393859F70268540E12402900125
:105870001124922B9B8394859F70278540E12402FD
:1058800090011124922B9C8395859F70208940E183
:10589000240290011124922B9D8395E0899FB001F1
:1058A0001124665E7F4F45E050E0CE0101960E94D4
:1058B00023392596E2E00C94043A0F931F93CF937B
:1058C000DF938091350581111CC06091370582E519
:1058D00091E00E943339C0E004EE10E0D5E0809101
:1058E0003705C81770F4CD9FC001112445E050E082
:1058F000B80185539B4F0E9423390B5F1F4FCF5F29
:10590000EECFDF91CF911F910F9108958091910477
:10591000882321F00E945D2C1092910410925A0568
:10592000109252051092530510925405109255058D
:105930000E94401C80E00E949325089580915105AB
:10594000811117C080915A05882319F00E94862C76
:10595000089581E080935A05109236050E94F8144C
:105960000E9405218091360580930B0181E00E9401
:10597000FD220895B0E0A0E0E0ECFCE20C94E339F5
:1059800069E175E184E695E00E94F813813009F041
:105990008BC00E94F81480913705882309F47FC0DA
:1059A000E091DB0321E1E202F0011124E150FE4F1E
:1059B000D084D0913005009136053B9A439AE02E71
:1059C000F12C35E0039F8001112405531B4FF80192
:1059D000828180932E010E94D615C82F80933005B6
:1059E00081E0F8019281943009F080E0EFEFF1E07E
:1059F00010E095E09E9DD0019F9DB00D1124A55310
:105A0000BB4F91E02085233009F090E089130DC051
:105A10002D913C911197448155812417350728F029
:105A2000468157814217530730F41F5F71961C312E
:105A300041F71091DB038091DB03082E000C990BDA
:105A40001817190621F00E94DF141093DB03E09170
:105A5000DB0321E1E202F0011124E150FE4F85E079
:105A60008E9DD0018F9DB00D1124A553BB4F8D91FC
:105A70009C9111979287818713968D919C91909319
:105A80004205809341058085D8120CC0CC2311F0CB
:105A9000C1E0CD278C2F0E94A7253B9A43980E94F6
:105AA000862C4CC0C1E0F6CF69E175E18EE695E049
:105AB0000E94F813813009F046C00E94F8148091CA
:105AC0003705882391F150913605952FE82FE15045
:105AD000FF0BBF0145E0292F30E026173707BCF444
