:020000040000FA
:100000000C94D6110C94B3310C948C310C94FE11D9
:100010000C94FE110C94FE110C94FE110C94FE1124
:100020000C94FE110C94FE110C94FE110C94FE1114
:100030000C94FE110C94FE110C94FE110C94FE1104
:100040000C9442310C94FE110C94FE110C94FE1190
:100050000C94FE110C94FE110C94FE110C94FE11E4
:100060000C94FE110C94FE1153415645440020207F
:100070002000534D0031206B487A200035206B481A
:100080007A200039206B487A20003130206B487A82
:10009000003530206B487A003130306B487A0031BF
:1000A000204D487A2000313020487A200032352017
:1000B000487A2000353020487A20003130302048FE
:1000C0007A0035303020487A0031206B487A2000A1
:1000D00035206B487A200039206B487A2000313077
:1000E000206B487A00535445503A200050586068BD
:1000F0007008182030384048000810283840302E4A
:1001000035206B487A00312E30206B487A00312E32
:1001100032206B487A00312E38206B487A00322E1C
:1001200030206B487A00322E32206B487A00322E13
:1001300035206B487A00332E30206B487A00342EFD
:1001400030206B487A00362E30206B487A002041F0
:1001500055544F202000313130206B487A0038341C
:10016000206B487A20003630206B487A20003430EB
:10017000206B487A20000020202020200044454C9D
:100180003A4257204641564F524954455300454D37
:10019000505459204C495354000000020100000003
:1001A000000000030000000700020100000201003F
:1001B000000100090000000500010100000100012C
:1001C0000002010000000000000000415554002022
:1001D0004F4E004F46460020353000203735006B2B
:1001E000487A004D487A0052535300534E52003122
:1001F0003030003530250031306D0031356D003341
:10020000306D0036306D0020413200204131002039
:10021000202020202053455454494E47532020206D
:100220002000F4015802BC0220030000800073018A
:10023000760178017A017C017F01810184018601C8
:1002400088018A018C018E01900192019401510272
:1002500068028A029502F502650368039303AE0300
:10026000B103B403D903E203E703EA03EC03EF03AA
:10027000F203F503F703FB03FE03100427042D0428
:1002800032043404360439043C0440044304450475
:1002900049044B044E0450040003740BD484606F73
:1002A000AE6CF9BB84A265B14BF672011A21E85A13
:1002B000D8D604735E2C226EC4E9B58B819A1EE4F5
:1002C00087C99E7B17526DADE3E58B04A72E996A13
:1002D00032AA9997CCA65B157956480163B1DF54D1
:1002E00027065706538CA627AA66890318517EFB5A
:1002F00067D3CEDD3FFD3D1F478401F3856EF83B9C
:10030000792B0C904B67467D5488FDD612E5E74863
:10031000F20EDB994D71A54068D9C95939E47520B1
:100320001CE9B1F5013C19BB60F7FA6B1E689F1917
:10033000B6ED140F56BCC134CB009D43D40FF3620D
:100340009C9DF78B9D533A8D2F3DDE3D3831039BAD
:10035000C7C159E9D175888D365886704E5B9ED0DD
:10036000DBCBF7EA1FDBA53BB3BD6BBCF37065D5F8
:10037000170F64152420D5B87B0D272985881F58B1
:1003800022574F09C04DD6E4C6B53A373327BB6A6A
:100390001469031BEDA8C343E8EADE410625C5C87E
:1003A0003CBF32B2A7DD22C2E9CA84F2C0267C7803
:1003B00001F7D5C60533E4C278EC1BFDD2507D11A0
:1003C000295799B0F1556674B45823A06F2ED89B65
:1003D00008B33E53CF5ECC7ADF4EED42166A918869
:1003E000431B1D845C52216658243671C56A0D2C4E
:1003F000869A239DE03543C97F41BD8299ED7A26D7
:10040000B2D3A6CE4F00E687E3D7682886F7CED2D0
:10041000B3D31B0402B978B3ADE03C53A68A4A2299
:10042000BE1FCEB176F22F81A8C17872B0156519C2
:10043000E332A74D0CD300B9C327BE744DD1E10CF4
:1004400036DD23FBA722D344CAB3081BB40D4BDF10
:100450001AA69032925C1AA7CD852E351172F8211A
:10046000357D3FDB298D30B34F451477CF992FA3CE
:100470009081B0AEE845E63AA9A262B7DBBE253965
:10048000A5FCEAC5BC3AEC90AEA6FB12AAC7622254
:10049000AFA984B964B8FB8DC11CC3D0876D5CB4AF
:1004A000FE3FA4B8D889F40159BB04A543441ACB34
:1004B0004130F75B9AEE28F44C7199CA4B7F2A13AE
:1004C000F04B54B3FC90EDBE483FF15E0DA1BB1E56
:1004D000591615F04B504C96861BA9CCC2694E108C
:1004E00003F0E953E5E2BB45E28DAE407108864D6D
:1004F00008F49690585340A58B5B3CAD47B5D7E2C6
:100500006A1378D4DCC9EC0E93F0C01D953676A43E
:100510005385C9ACE4718DAF6861209DFF45356E90
:1005200004D82732C3DAEEA26604B72106527F3917
:100530008FFDEE9074B64FB6240E1248F0B230F232
:10054000A54C9152E3C6487B3896239ED71B951540
:100550003AC98B6F637D1DC9EA96E601D785C0EA6B
:100560003DCAD3B7FB07543A00313D74E4125BA295
:1005700038335BBF1DDC4EE8851077ABEA6579B098
:10058000AA3061C6F63BCC95FC837F8C7BB55205C7
:10059000EBF721DE89B66DEE317713AA93559608F5
:1005A0006E1C82B57E95B994DD68425C3A00C37BCF
:1005B0006F606A2C07D76C82FBB2812569D6720AFC
:1005C000D2E8500588491B6372996CE37AAEB01B80
:1005D0009ED42554258A901797DF39B87CEAF0829B
:1005E000DD25D2ADE7F6362384A9C96A53F4822CFF
:1005F0001DEA06C64F705437802A6B63DBCC86E653
:100600008C7F278C7254739E1BD64CFA058280D740
:10061000B71198000000000000069869151CFC86C0
:100620008774845BD40FDBD727C54AB28F297A4AF7
:10063000230AB807D03470818E53EF43163FA8A722
:100640009E5A77C091B789155248C0B762ABE17422
:100650006410AA096B9774217935A19725FC78C19C
:10066000EC6E877740871A74828156DDEC37ADAF28
:100670000331AC478574C02A459DF4120CF986B04D
:100680004A16D8116C46C44A67988B1B42C2BEBB3F
:100690000E4884F708A6C38F8E8DABC29B5D5C604D
:1006A00028578F0EAD2EC15E95299AF48A27D44122
:1006B000BB4AAC5DB29326FD87813F2735A6422C0D
:1006C0001538ADF8026F94DA08EE19D890FA89C39C
:1006D000AD89FEC60246811D0C8D782FEED3ED6CE0
:1006E0007B95495687F4E263DA39CE681618ED989F
:1006F000EE86F3B3C1121A519B571D199E987ED2F4
:10070000FD3D2B59154674577914817189D922DD25
:100710009210D98991DF67006E53AFDAB528301E89
:1007200047E6B7052D22CF7F6ACD88906B8C1636B1
:100730008807A1B7AFF331C4DB768B969EF017A77D
:100740003F847891A8CD3F8FA5DD5214F9395D0B18
:10075000568E1C5A5B89EE809E33BDB145154234DE
:10076000597820FC2DDBC92E0F3526CF239B3E1D4B
:100770009F0F260EB7B54EACA286D5DA36045A7353
:10078000466A88C52AA083E88B5F3CAF6A444E75F1
:100790009B8F93373538BD029A1D8429642597E0D5
:1007A0007C2AB6CBC166513CBC3BF3552BB7BD810F
:1007B000ECF349D5F803E0BDC60CEEC01908FB4FB9
:1007C0008C94080EA53037F0B818937300BB5252C2
:1007D000B4980D4B45B9890A34E91C245A8FA89D59
:1007E000C2D927A9EEBFC08090BC2A9343FB0AB3AD
:1007F00096D1AE13410168B92C53537C00A58441B6
:10080000D6988898FEDEF7E23743620E9383EE03B4
:100810000A8DCA8759366F61F7F4D6AB8B0F9C836C
:1008200096A46C4643806BEA50DCD8CED4F4AE5B21
:10083000C6014385718D0C395EE43B2BC488B2C57B
:1008400054960E879A5093D69C91CA09648B23C400
:1008500029441A67E1DAC71B2517022C8F2A133A9D
:10086000CFD665312B10F5B596DF01997BADD6B4A7
:10087000C035A348E3B09EFE33101A09AE3C0AA16E
:10088000728F0051E17823F5E2BFA64628B34B24CE
:10089000B1A1DEB1C4486FED5AD461F0DBE1085C70
:1008A00064C0CAE9A9DEDEECC0685B6DBD43828C22
:1008B000CA69B1A9C8710D5D6DA5AB1A6794EE0543
:1008C00093E33FE81AE60F7F79F2CBC53757DFFC99
:1008D0004FB460C7973C61B00C4664F44392D2A514
:1008E000F0F3B7DFAB20B1F5302AB3DC4B39B78575
:1008F0003E1E1B948C26288045D60136D0EC9346AC
:1009000088D3D5895D7A82213EC240E3B4DEF5A565
:1009100069D569495C89CDAE137070ED690CECC680
:10092000FE75EB4ED6B3C860FB341EF86492D9292D
:10093000A813383D79C4BF21379DE34F21E53F2CF3
:100940005C5F41FF148791E082040B1E5553DC5617
:1009500040A43578E29B49222E09CD1F6F9483EE87
:10096000EA8BC4C210E080D9A55F53349C8CEA9511
:10097000648794D6321CEB93BFE35583C2F6FCC860
:1009800085B2945C425F6B8E3B9779747EE35CC268
:10099000631A22B17F94CBE7B7FF0E3795AF1053A0
:1009A00017881272DDCBAB4B6B6824ACC95C720943
:1009B0004FF1FB1DE7A230E9204BDA707C9EE23458
:1009C000EB6A35C233D79D07B1EFF675F5FDADC7BC
:1009D0004BD0B7DDAE1E8D1EC0399CA71CC5CC39CF
:1009E00050C66BC6DA37C7E120EB74A53DC008FAE4
:1009F000C2DFF29E432BF07750498CC32F68F32A55
:100A00009B831ADC05D8B77C3C611176EC2DFE8601
:100A1000088715A3C01CB46A8D9EBF9AD5C85B0514
:100A2000181015FBC63CEEC5524B313607B94C8148
:100A3000EA83D782FEFC43594E20BDD365CF1F5CAD
:100A4000711FBF26EC44EB0174823C8E60DF47903F
:100A500031177E16C0EC1EC33A7A5921A29B8E87AD
:100A600025D3FE85DD6DE6D8CA74BADB4230963DEB
:100A70008622866FDE371A932F032EE16E1662C12F
:100A8000E12DFECBA8DF6405EF23BC71617B1B6009
:100A90002227BDC6A37207AA09B052F219154DBE8E
:100AA000AF263B4D62A63C41077A34253CD6CDB6F5
:100AB0005547871ECBCFCED20D95C0D872A6E03356
:100AC0002426517E71C7533FD4677352CB785A00A6
:100AD0001115715F8D3CCF40CDD97430D9A13FC67F
:100AE00058BCBE7818319A3960BB8D7B3495A5F11E
:100AF000543BB98599AFC445EB64A76E5960EB1EB2
:100B00007AFBFD924323F127AC661266288A5CF6D5
:100B1000C63F7604E80927ED05AA26E5B4AD40BA3C
:100B2000F7F484CB7F07108DB6C7D477EABA962A3C
:100B300098F056D7FF504D59793D41E0FAA99D3EB6
:100B4000A6D979C80DD156C5ADD7FB703CBDF3E928
:100B50005D1C5393331DF81BEE9FB750AC8F485963
:100B600061C9859EC8B0D27439DF33F528E06311BE
:100B7000A7C405BD3AD934CAF9AAE200E6E6385757
:100B80003EEC197C0D2745C552C4FFF469C5F573C9
:100B9000734FE307C7CF38235B9C99A26A72B035C5
:100BA00039C10AC71C1A3060181D2BF0C8F179A38F
:100BB00094E336359369059107126044FDB6C6FF8C
:100BC000E0CFA2CFC2A358AC32E32EEC0D9D1BFBAD
:100BD0000540BA678ECB38D7609CFE9EA170CC4092
:100BE000728C8C507185DD84925CEE44B6E0801589
:100BF00032DD1B4B8C6E8E3997A5AFC6F42985D399
:100C0000859385C854E4591D4EA0FEC507C1F7322F
:100C100052F94D4585FCA0FA37B59D47E852238D22
:100C2000928743B4B84F951B1E4FE545BFCEC80C05
:100C3000B27DE7D92E88B72A61E12DC4212EB84DA7
:100C4000FD2187302511EC1F299431D29285381768
:100C5000DA634D8CB4065564B76CFCC28D5D978623
:100C600009D34369E83577CCAF91363C7CA36E4E0F
:100C70004AA2C94150EAABDF8704704F16F5A0388D
:100C8000F56016CD0CE5C7E3AD00126B12853C5C38
:100C90007F76ED49F29D8FDFABE1DD8701ED2C1B07
:100CA0004B55117FC392D391C1D8A737C7E55B4895
:100CB0002BED31DECEFB95000000000000000008A7
:100CC000E35184000B4D2673118B1EE200000000DF
:100CD00000000000040473E072FFE659C900000040
:100CE00000000448BFABF399877C070000000000B8
:100CF00004FB33B163616112AD000000000008AA7B
:100D000030AC174D3086BF6713F1A700000000001C
:100D1000000000041B48422384BB7FB40000000095
:100D20000008A69F43785CA14E8BA6E67C49000094
:100D300000000000000001F7315D273000000000D6
:100D400000000000010B570B79F7000000000000C5
:100D50000000024433BBB45BC70000000000000089
:100D600001ABE301C2D20000000000000000017AE4
:100D7000079EAD84000000000000000002F1EEF7C5
:100D8000D8295000000000000000012C35543ACC56
:100D9000000000000000000001C93D666A980000E4
:100DA000000000000005247AF71C2440EBA24DC28D
:100DB00066C8372C030FF301066D9A42F0948FED4D
:100DC000BFE3283B72693775B4A09A6E31FD665B4C
:100DD000CBF3BA8CA431FFBA7C2454D3C663899375
:100DE000E4EDDA58474EB58FD793FDAF31EAB4EC56
:100DF000C9057D2B1596C1007E80E6F747CD6A7741
:100E0000F10E5913AA5C838870DCC4525220B66973
:100E10002D6C6C8B662ACD5A4130D6FB7BA0EC7AC8
:100E200022887C716EAF6206F4A8C688857636C5C6
:100E3000C0D867967CE84DD4FBA96F0FB2A7A31961
:100E40006A30FD6FFC2BCEA41B8E574851C6980FFD
:100E5000E5087B4DFC59DDCF131B310C5E3B98E15F
:100E6000F4C341D7A2645E16F9EBAE20E95D54BD30
:100E700099D3A7C1D9E53222D69F4FDD6B3C6DE9EE
:100E80004D965211DA2386BE01C451C29CC6F52F7D
:100E90001FD0F1F55782FECBFB4ADF1D0046B8A7F5
:100EA0003A566608714E47F827265F6CD8C30599F5
:100EB0000A758F4FC18872A05A1308A382842ECE60
:100EC000B5A34605D66A7856442386F2C963088BD3
:100ED000BDEE56D4361F375318E7DA1CFAD005D5C5
:100EE0005FE7B7AD362BCB06C053F432A8756FE37E
:100EF000C9A1B0A6E6C2410F5D2E0A6450469249D0
:100F00005B2D002EB5213F0B4A719688844C98AA20
:100F10002823EBEF455C6278D6E4FB6DC3D9356CD2
:100F2000B92AC67471C40C657CA3F96E2DB986B05C
:100F3000046394CF267D9E1EF799DAE08CDD86F35C
:100F4000C8F1C64E155DED34BB90CDD626091EF610
:100F5000238451C1AE428F8496C957AE16363A29C2
:100F60008765B2BA5696D2F509EF304A0F6236FE5F
:100F70000030BD091B50C33C48D725E18EB26F4DF0
:100F8000752DADC61EBAFA4F41AF7A6FA0A04FB60D
:100F90008834698A9E837A60F3A87E392A209C323D
:100FA0005E7DC4AA97E6263542A1A0EF39B31C277F
:100FB00063D27F75C01EB4FA4D7A818139E0792FF2
:100FC00094A5283A437E97B594AF2A10380A7F49F2
:100FD00091C06C659AC6C95DD552469874AC93E4CD
:100FE00021B0EB08FAF4412EA6F9C5EDE33798C518
:100FF000DF528241A2F2561AF3A4C6408DB95FAA0D
:10100000751E151E68782B2BF43EC7CBF31360E0DA
:10101000F48579880C227587B751E0D6E3A092D386
:10102000D7E36C5B3EB780E748D6D92F49CC75A093
:1010300004C94888E9CC3241AF30DEC6BC9DF7FC1C
:10104000FF69035058A1D6B87B5E60FCCC0014AF9A
:101050003A3041B34E634795E4BD5374D0F002B4C7
:10106000FE48196C3F23F79B4411F2C245A637771F
:101070006C10630E1BA7D196CA0D4F5B4351D6145B
:10108000B723E799A49F4C7DD7DD0811844D5CE917
:101090006090048B1490F06F26450F208CE36F4610
:1010A00078EB12B45EF0DEEB222762784293BCE864
:1010B00048C088BD0FDE232BD1880AE2B4338E618D
:1010C00036435842AE6BD7F2FE0AC126947ACE8CD4
:1010D0003B435A62EF708AFE4DD237DBA1B1061B4B
:1010E00030174CA0241EBECB64E2CE135CD705A6FD
:1010F000763938F3852C160EB3E23DFF79880B93D1
:10110000EFAD55CDB4EF8FB8167A05C05E920F4F94
:101110009858D422AD4325317852C69ACA5EA64E5D
:1011200079979ABBDF6DF1E2D0B3CA2A5C46825C44
:101130001EDDD0C519892B2CBDC084D9333967E495
:10114000E47926B69D1C1DE470A5A76189254A5740
:10115000337D0DCAF3CC22AAD7D9CBE6B296461579
:101160009568D80FDF6B36DA198216CE384ECFF27B
:1011700036C880075388042FB214195DC56CEF95EB
:101180009C608B6AE4FC9DB29CED1D9C1BCAA3264F
:10119000DD9C635B3B882BBA2235240148EEA04FCF
:1011A0006E964E2991AAAF5647BD7BDDA15599D8C1
:1011B000B5A147937BCD7BCF65DE5018F20549F191
:1011C00099D894213F7D52C6B1B4E19FF07E60640E
:1011D0008B30E4AD2C97FB47F70901047BF4F7A7AC
:1011E000A804A57F0858796D26276AD0D9AFC1C752
:1011F0001223E1AE98A40FBC1BFA9D910B1515A507
:1012000024531A13E0C30095389C364CCFF6A9BC82
:10121000C1530604F46FBF57E0A614A649707F3986
:101220002A4A5A593633B90D4725393704777C4550
:10123000AC19932549E07A7BA2C695768D3C79B1AD
:10124000A7C38363032347D7ACFB84166F22490BE4
:1012500097AAD538575E2BBBA749EDD2D57A96BE53
:101260008DF5F94656F52FA7A87AFF3FE7E88CF1F0
:1012700048E846CB4D25F935932FCE8BB8A9C5D379
:10128000D22771866F72D9CA4E90D36DB13CD3CB41
:10129000C9303A26459D66445C5FD8E3907C1BD8F4
:1012A00082DDD384D4C61B58BF02A53B100A3EE39F
:1012B00009940B99882B47A79089C4482536DB727F
:1012C00031ACF5A30115D0E62161EB5972DC940035
:1012D0000098F7B0F9FAC10A7EDC69CE905E8211FF
:1012E0000B97E29955A23DFAEB88BC4DC2548D5F35
:1012F000DEA3E248132046C5A08104C42B9A8415BE
:10130000B89E9B62A1EC7D083CAD214B89FCC69642
:101310007C3A41358A13BD1B43BF367A4ECE709E50
:101320002AF63933C7334B347D2A81FA252EC5C4BA
:10133000A1280ED54D15E069127119AAFF594881EF
:101340005653C935124D84699136D8ADF754D58CB2
:10135000F9C684126222F1B92B1DA57C567A4D5A2A
:10136000C4F09D8F5DB59A7FE7B7A85D6D3700002B
:101370000000E4F2EA7A73F8FC6717F3D960090E0B
:101380008B0FE2F98361DF5369D0EE4251B55148CA
:1013900064F8DD3EEEA747F07C4BBB2B8EE28B6002
:1013A00057634B9BAA6763EAA3D57C4341A9547456
:1013B000D286C3114269C5093E8F94AFC599BBBBA4
:1013C000AC61646101F2D359B1415091166CCC9B70
:1013D000EC5CFE3BB3EC6ED7F10E5A8A5F1DB0C5D4
:1013E00076542607BC66F0ED519A1FE8F751588EE7
:1013F0001E80991FEED643CCFA2FAE80F2A8A8AE7D
:10140000437C8076D41AD4737461DFBF296F56157C
:1014100093075892F11DE87B68B2542030012DC526
:10142000D8FD6150140F584C1A5400127E46990C86
:101430009DD1A304F18217FEFC12E57581AFFF3D3B
:1014400008D539874A8EF07AD4D0D6CFA9D6594854
:1014500041C268E3A435458D141AC40000000000A1
:1014600044892C63C8AF7BAC354327BE7ECF564042
:101470003DA5AC0F97CCD46ED031D7146045AEDF0C
:101480000AAA33B388E01C26DC00B875C86711A12E
:10149000B58771F94A6AEC3F0E4121C24F928F170E
:1014A00053EED5EA4F917502590000000294E4DA38
:1014B0004AB3AAA72E9CC780465EBD06331DD85DE1
:1014C0009F5F77730A7D386BA70E8F4E7D01DA44DC
:1014D00074D2F17A2F7FE1ECF1A57D033B2F17B693
:1014E000E80D333C2191915B302C11C6586AE435EC
:1014F0001BB5A847B3FFD0960E484E97376012042D
:10150000FFCBA5F51D409CDF36123DD92A72DAE8E3
:101510008BE45BCFE93852EC2CA0F779AD20705901
:101520002062739CE34609C912D47755074B6A269B
:101530001E5D0778104E4ADA5EF63B9B8DFD48D063
:10154000BBAA212EF5DF854CA71D1A261BA082867B
:101550007F4B02D2F660C9860C1DBF736986184B9B
:1015600044BC74E5821793B50A5608B74A73B804A9
:10157000D214215E2CA0E0C2015FDECE642AD865C1
:101580002BF074E354BFA09B50BA02002C95CE2AD6
:101590004FCF2B2B0E9BDD8F675B54A1472E842EE4
:1015A00024FA34E05A103BCFAFE2ED28D1176B9A02
:1015B0001B496CFCCB7A74092A415AFFA1F598C6E5
:1015C0000CD26983D2C369875E7EBBFCC0D1C117D0
:1015D000D79BE15370B743D038252649405B57BAB3
:1015E0004932AA9F39AA8E73008513796DF1912F24
:1015F0009EA3A0657C7D53B47053016B925F38F15C
:10160000D73D7AD607727ADBA165A50741004BEB7F
:10161000C5D03BEB3061420D4BA3D8078B12F58947
:101620003D7CFB2E79A7BCD5BF729AD81539AD2564
:1016300070D16CB05DBBF43AF66056FAF2A528AEF4
:101640000D76B379F14BC72E6EB6616222D9A73001
:10165000234521DE478CEBE54C8B4E79A09D95B35D
:1016600005AAAFECE67473F0DC37AD933B206DA1B7
:10167000D8CFF97E9EC6BB406456A6187528D2BA4C
:1016800078645C484570358C499A454A6DF29C8D6A
:10169000480A612EE3D4EEA829404B53BB5639CEFD
:1016A000816CFD37A0791CC794176C37EA97F4D882
:1016B000D49F9F304FE5A408B86BAEB9BC4F6120F2
:1016C00044DF92DB1E0483C0A12C09D8DF21F02067
:1016D0000480AF7391BC0EBAE4F79B363C30F1B492
:1016E000BADCFA65F22B1D184E1662D4AC8B21A51C
:1016F000A2F132C3C965632D316BB88FE1249387A2
:101700000499E6BDBA283063DAACC799378A866691
:10171000B344D584AAA15342A0381E5DF70529E73A
:10172000CA2A0B6AABCEF03AF390E6D125A1331C5E
:1017300033997D24D17423FC6F7DDBA7E9C2DE17CA
:10174000122D1CB37E880000000000000308757D88
:101750009A4937AF60047CBCD31C53703497EBE1DB
:10176000CD3079A28694585A99C269D7B232626C48
:101770000A3669B1354841CE79967A0D2D33BF4D81
:101780002FB8D8B3FBE47193B9180D51ABBB09D98D
:101790000DD7671E4728C7F7CE605828235E95FCF3
:1017A0002BDBF90D1FAB49E6D0A7377920E4CF0535
:1017B000E36421ACDFB1E8F9E04C3B5E89682A487C
:1017C000C5640EDBF1538B1A2FF60C189C529B212B
:1017D0002E4AE7D6BBB71A0A22AB4AFDD3027D21B7
:1017E000FFB90E0F29ABACF4445E0FD5F357E54FAC
:1017F00061724EBA55378F9A1CD4B830AF0A951A19
:101800001386D40A835C991B2BC093F513F5EAFB6E
:101810006F75746C2E77C344C53862B9F5AC58B493
:10182000966EA4A545B51B7C9D219516EE295720E3
:1018300012BBF80A2325AC51FD7AE09D43B0276F17
:101840002ADF0408D3F11D3C128DAFF2D7B9029DF7
:1018500046E3ABFF61C8612B19C8C1A16D0AA7445B
:10186000FAB5A8D71E53156F7A4841E930B5ADE2F5
:10187000F070406AF331DD1950E5BCB43D839FDF61
:10188000C8252790405B32044781FA53B40A4015BB
:101890007A745BDB24AB3AB791E344B747073990DE
:1018A000D2F5A9084658DC3210A347320445441348
:1018B00071AC2EA7C971D0F9517ECAE509A81E776F
:1018C0005B3A08AA431CD68D6091466D64569E16FD
:1018D0002ECEB399C8F655271384BC8AB3C8F51A1F
:1018E00072F76A0C46952F4A86B6D29894F1C337A0
:1018F0000E0C8711567EAFDA22296FEBFAEC96E0D8
:10190000276B42A170091AAD4888DAFCE13B629569
:101910002856702803B258678D0AEA9A1595515FC8
:1019200083070920BF37AFF70A743CA552F1E3F5EE
:101930005830E117DE98F1387BF0AFBD1659529957
:101940006C7470487714FF534184BCC5372F718481
:101950003DF5467C63E000A05607F78C6357BE5404
:101960005CE1FDAC35FAC2D5F25ABE7C318EBDDBEE
:10197000FE4D036F5EA61F232DCA68F0C614CCC3AC
:101980003EF021D4402A72B67EE285D68AFB4851C9
:101990002777E4CBCD2FF6E1BCFEEDA1145FE53255
:1019A000FCCFD9FB2FE9AD7D2D68E79A15956A4AE2
:1019B000E4ABE4EBE00D40BDEF8FB975B439086DD1
:1019C000C09F04FFCCDE13304EB6E4E0CB69E5C621
:1019D0001C2F436A632572D5DFBDDC0BE9089D3DF2
:1019E000266FC389F818AC42BF4E9D5D28B02641D2
:1019F00036768D8684FAD8D467581969202D35FE3D
:101A000009D98CFDF921A157DF17AE8ECBC97F26EE
:101A100054DE104372DDBC18B934F9AB70F9744D63
:101A20008E6D2A331406D071E6ADAABE862E9A8D2D
:101A30008788AF039FCBF8789A663809CDAE89C204
:101A4000CCAF6A16140948AE9B55E40FA586A17564
:101A50007F7CEF0DCB3AB30D1F020000000C801FFE
:101A6000B4F4E0A641CC8700406143E7FCB4000039
:101A7000000124CA4534253C39FF098C39855A5B5D
:101A8000CC273CBD28438645179A4E3524A423A273
:101A9000FDCA6CD4FBBAE741B3FB7C5507B56E3E7B
:101AA000B12972CC38EA273080B98CB8EE54AB3EFD
:101AB000DBDD06D095EA3E42886BAE89C7E84C383C
:101AC000B693F6BE4C204A8CCE2B22D272494618D1
:101AD000568070675AFAC0CA6D5321CAE38668916E
:101AE000D37CA9D5AD6A72A1FE53E94085EA62A90B
:101AF00063753A2DEC9BFE58D873205210435C2D31
:101B0000B421B9961F726DBA42EAF285BE5212A78D
:101B1000B13E2B89EF0F73057C99C3C55F9653F8CF
:101B2000AF9B7A49A044546055F0103A608D9050B4
:101B300065AEF779DB2E08F9BBF2D278D086B59482
:101B4000A10EB98189B7F9C043E88F3819DAED2FB2
:101B5000A75CDB01B338CEE6C3F2D5AA879E116F2E
:101B6000D805F072ABD9A10FFF46E94A8C0093E982
:101B7000866F6B1470BEB1B889C9CC7D1A11D27949
:101B8000FBD9D72413948F019C4B6933660182984B
:101B900088F84C13310F58C106113000000000B412
:101BA0008991349B89FC75CD11CA1A6FFA71D6459B
:101BB000E70FEB3909B35A131FAA3A93CF8D6ECAB8
:101BC000EC2C8EC5831B5AD6D189AC024FCB0F2586
:101BD0007696E05D2CFFA7EAEA92F1725BEE08D8F8
:101BE000848AA959E31277DAD6CA4E362D7CA4131B
:101BF000D1E818319902540AD07A74A0AD2C834AE6
:101C00006FF1B1501B6469E8842F2CC8EB953DA59A
:101C100018C74B82FC88E1D37B0EBE10BA650285E3
:101C20009B469A377A774DC2C45330679154F63D3C
:101C300039444342132E0929FD50A6DA94CE8697E3
:101C4000102B5C1C09CD0FFC15DC543B53E17CA729
:101C5000E1FD47C2AF7EEA34000000000C6FE65C95
:101C600004306C84C751E3B55F349EDD050000008D
:101C7000000C1CD4BCFBCD3AAEBC529254852CED6A
:101C80000FFB00000000F873105DD81F06E0A1599B
:101C900026B4393FC119F9D4BE4FF433EC3F3FFEAF
:101CA0008F91D044F21278909E79A927EE05CB9FB0
:101CB0005A4B15DE6739181FE73A0A4198E7DEA745
:101CC00028A0D354663379B53A83375F25407047EF
:101CD000B8796B62963F48EA9F6ECB35E16F2DC4B1
:101CE000C24B9BA74D05790E1CFE095A9F87227A8D
:101CF000131B9F994D05DB1573D865FE395EA44310
:101D00007B6C79BD73914C9B4C941887EA68A7440F
:101D10009F5C3666FD41145EB18EEB45DA770EE0CE
:101D2000EC5EF40DBF41C648F015D860F74076234D
:101D30007B1CE559445030CE064EC5A670C318171B
:101D4000A237ACBF2C6FBC9B3F5812111039001842
:101D5000DB7D0BD22CEE0AAF76947AC15C21D26186
:101D60009F1D7A9695DFA45181E61BD57C3644F001
:101D700060FF3AF632EC8FE09AC7E3BCADEBA69475
:101D8000714B6D00000000000038974C36A275FFC3
:101D9000FB3FEB60E131B1BC32776CBD49934BC284
:101DA00007BAF067FD68CAF5A4FF2A5EE2BEB5690E
:101DB000B2A063931BB4BD4612FAEE885F46DFB251
:101DC000BAE8BA5447EA000018FA0891779B1C87D2
:101DD0008B01709EC0052BAAD7AF30A8018B28A01D
:101DE000F59599325F00000000000008C4EF6545DA
:101DF0003CC36DEFB8349D1C0000000000000000E3
:101E0000046686F2BC9D8797BE000000000008DDD6
:101E100058DD530F7DEC930BB95BE300000000002D
:101E2000000000087615DFC7682FA8F84D338FAE85
:101E300000000000000000000884C3E8CB9C718013
:101E400009D71163210000000000000000040EC645
:101E5000F0509E0AA7990000000000149A5AF9AAAF
:101E60005F06DF5C52374B390C7E18C1ABD636F5B6
:101E700078BD9F790000000EF233610EC30B5A2427
:101E8000023F42353DA4ADC53050000076E7E34542
:101E900008661821EBDD1476F8F155E83B9D8B932D
:101EA00092FFA7803438C2AD7CFFBD232B0B2C5F83
:101EB000EAC09500FB8C376B8A42913EEFD65143C6
:101EC000216F803EBDF2B32407A5924A765131724C
:101ED000354725E7B9D0F4C2DD52353A23C416FAA6
:101EE0002A8D99D0B953C2125C3FCE8DDBD1C8D1B7
:101EF00059E588FF4911ABAB7BD1F2B43749A0B1AA
:101F0000FEFE6C08761D0B0000009AF4B16DA0F285
:101F100020E417A74D85B38E7ACB8730AF11902080
:101F2000A819EA2207FAC14CE8FCA2038F2AC53699
:101F3000E4AF669BBA0ADD6590DAD72762D9193B10
:101F4000ABF666892DA53070E9AAE2D9C12347FD19
:101F50009A254A5F896297614B91FC341BFC97B2CA
:101F60007B87F454FCD63648C28779A3C48F42B12C
:101F70003147DDE8D00A714722F3F49F287A700CCC
:101F8000BC5930E0E4132465BD4C0E6D9E4D159098
:101F90001972C928B6950E92F9795C64B9B97BD7E4
:101FA000DCB4B9B4967F7255AE00001EB0028E4507
:101FB000BDF0A590B7301240B6409CF16263726DDF
:101FC000F0BA1AF6F0406A47A2FC9BD870190000DC
:101FD00000000000001AF524F64D2F64FDF7C3FD44
:101FE000A7455D94318FD69F5D216641D43951AFAD
:101FF000618C1E9F000000000611E97A8831E126FD
:10200000B61C7400000006F59835171AAB193A8C07
:10201000C60000000E7E14D06E441C666167F18E0F
:10202000287230D2BF7D6F000008179962EE7818D1
:10203000543AD57F61AC000000000000000010831E
:102040003E2C924F5A985997FB8297ADC873A26C59
:102050000D06CF000000000000000A69DAEB9EF7D1
:10206000677FDEE8830B465A3F0000000000000255
:10207000B3607FDCA3FF00000000000000148ECFDF
:10208000A26572CE3E11392D9494478EC78C706B29
:102090007C498E3CD74C00000002C877A5FDBA9A57
:1020A000000000000000000A1A1BD94A8303DFE287
:1020B000756E28D9631F0000000000000218272752
:1020C0008F4BE700000000000000000000A90200A4
:1020D0003900000000000000390C0001393700020F
:1020E00039400003392C010439AC00000000000025
:1020F000187F3101187F1E04187F1B05187F0E08FA
:102100001800140918003C0013FF00011304000418
:1021100013BC7F0513BC7F00000000001A000006FE
:102120001A000000000000001A0100011A0100025C
:102130001A0A00031A1400041A1400051A3C0006B7
:102140001A550000000000001910000119180002C3
:1021500019400003192C010419AA000818140009D9
:10216000183C000A18A00F0B18280000000000AE51
:10217000D5808D142001A1C8817FDB40A6AF4D4FD3
:1021800044204E4F20524453004154532D32302AA4
:102190002056362E332E3500454550524F4D205295
:1021A00045534554000000580284030807100E00F0
:1021B0000000000000442A3C542200082A1C2A087F
:1021C00000080808080800006060000000402010B7
:1021D0000804003E4141413E0000427F4000004271
:1021E00061514946002141454B31001814127F10BE
:1021F000002745454539003C4A49493000017109ED
:10220000050300364949493600064949291E0000A0
:1022100036360000000041221408007C1211127CA6
:10222000007F49494936003E41414122007F4141FA
:10223000221C007F49494141007F09090101003EFC
:1022400041594932007F0808087F0000417F410062
:10225000002040413F01007F08142241007F4040A0
:102260004040007F020C027F007F0408107F003E88
:102270004141413E007F09090906003E4151215E6E
:10228000007F091929460026494949320001017F8A
:102290000101003F4040403F001F2040201F003F01
:1022A0004038403F006314081463000708700807B3
:1022B0000061514945430000007F0000007F102865
:1022C0004400007C04180478004464544C4400002A
:1022D000FFFFFFFF01FFFFFFFF02FFFF03040506F3
:1022E0000708090A0B0C0D0E0F10FFFFFF11FFFF6F
:1022F00012131415161718191A1B1C1D1E1F202146
:1023000022232425262728292A2BFFFFFFFFFFFF52
:10231000FFFFFFFFFFFFFFFFFFFF2DFF2EFFFFFF70
:10232000FFFFFFFFFFFFFFFFFF2FFF2CFFFF00005E
:102330000000240027002A000000000025002800DB
:102340002B00040404040404040402020202020236
:102350000303030303030102040810204080010269
:1023600004081020010204081020000000080002E8
:10237000010000030407000000000000000001004D
:102380000C010C010F000C100F00011E0C010010BD
:102390000F0000010F00010F0C01011E02013F069A
:1023A0005B4F666D7D077F6F8000093211241FBE71
:1023B000CFEFD8E0DEBFCDBF14E0A0E0B1E0E4E3B2
:1023C000F4E702C005900D92A238B107D9F726E0D4
:1023D000A2E8B4E001C01D92AC3AB207E1F711E106
:1023E000C6EDD1E104C02197FE010E94123AC53D1D
:1023F000D107C9F70E94A6320C94183A0C94000039
:102400008093BB0084E88093BC008091BC0087FF70
:10241000FCCF8091B900887F803231F481E08093D5
:102420002D0481E090E008958033D9F781E0809316
:102430002E04F7CF0E940012089594EA9093BC00F6
:102440009091BC0097FFFCCF90E0880F991F0E94ED
:102450001A12089580912C04815080932C048823B3
:1024600051F084EC8093BC008091BC0087FFFCCFCE
:102470008091BB00089584E88093BC008091BC00EB
:1024800087FFFCCF80912F04882321F084E980937B
:10249000BC00EECF84EA8093BC008091BC0087FF33
:1024A000FCCFE6CFCF93C62F21E020932F0460937B
:1024B0002C0424EA2093BC002091BC0027FFFCCF11
:1024C000880F991F8E7F917081600E941A128C2F45
:1024D000CF910895E62FF0E093E0F595E7959A9572
:1024E000E1F724E0829FC0011124E80FF91FEF57A4
:1024F000FA4F677021E030E001C0220F6A95EAF7D9
:102500008081822B8083089590E0FC01E659FC4D88
:102510002491FC01EA5AFC4D3491FC01EE5BFC4D28
:10252000E491EE23C9F0222339F0233001F1A8F41D
:10253000213019F1223029F1F0E0EE0FFF1FE85CA5
:10254000FC4DA591B4918FB7F894EC91611126C020
:1025500030953E233C938FBF08952730A9F0283053
:10256000C9F0243049F7809180008F7D03C08091AD
:1025700080008F7780938000DFCF84B58F7784BD14
:10258000DBCF84B58F7DFBCF8091B0008F778093B8
:10259000B000D2CF8091B0008F7DF9CF3E2BDACF43
:1025A000CF93DF9390E0FC01EA5AFC4D24918E5BBF
:1025B0009C4DFC0184918823D1F090E0880F991FF5
:1025C000FC01E25DFC4DA591B491FC01E85CFC4D81
:1025D000C591D491623071F49FB7F8943C91822FE9
:1025E000809583238C93E8812E2B28839FBFDF91D6
:1025F000CF9108958FB7F894EC912E2B2C938FBF29
:10260000F6CF62E082E10E94D01262E083E10E9494
:10261000D01288E48093B8001092B90008958E30EB
:1026200008F08E508770806480937C0080917A00DF
:10263000806480937A0080917A0086FDFCCF80913F
:1026400078009091790008953FB7F89480917D05C6
:1026500090917E05A0917F05B091800526B5A89B3D
:1026600005C02F3F19F00196A11DB11D3FBFBA2F24
:10267000A92F982F8827BC01CD01620F711D811DE4
:10268000911D42E0660F771F881F991F4A95D1F769
:1026900008958F929F92AF92BF92CF92DF92EF9266
:1026A000FF926B017C010E9424134B015C01C11459
:1026B000D104E104F104B9F00E94241368197909E6
:1026C0008A099B09683E73408105910580F321E0EA
:1026D000C21AD108E108F10888EE880E83E0981E3E
:1026E000A11CB11CE4CFFF90EF90DF90CF90BF9082
:1026F000AF909F908F900895CF93DF93C0E5D6E081
:1027000061E088810E94D0126AE070E080E090E091
:102710000E94491360E088810E9484126AE070E0A0
:1027200080E090E00E94491361E088810E94841259
:102730006AE070E080E090E00E944913DF91CF9161
:1027400008952FB7F8946091790570917A0580917A
:102750007B0590917C052FBF08950895B0E0A0E01F
:10276000E4EBF3E10C94E3396C017B018B01040F82
:10277000151FEB015E01AE18BF08C017D10759F055
:102780006991D601ED91FC910190F081E02DC60197
:102790000995892B79F7C501CDB7DEB7EAE00C942E
:1027A000FF390F931F93CF93DF930BEA14E0EC01F3
:1027B000C457DF4FC8010197F1F761E070E08881ED
:1027C00099810E9452120E942A1287FFF3CFDF9153
:1027D000CF911F910F910895FF920F931F93CF9365
:1027E000DF938C01EB010E94A113607F7370D8010D
:1027F000ED91FC919F012F703327AF01407F537003
:10280000FF2EF694F694B7E0BF15F8F089B190E08A
:102810000F2C02C0959587950A94E2F78170641792
:10282000750708F47C5FDB01A41BB50B2330310571
:1028300091F1E8F42130310549F110F1882309F4D0
:1028400069C0A034B10520F519C0AF2DB0E08DE00E
:102850008F1548F083B190E0189702C09595879541
:10286000AA95E2F7DBCF86B190E01E97F6CF253030
:102870003105A1F160F126303105C9F180E010C0C9
:102880008111FCCFAB0121E030E00AC0882399F12F
:1028900030E020E0F3CF811131C0A034B14090F599
:1028A000EE27FC7FE22BF32B407F53704E2B5F2BE8
:1028B000D8014D935C93882379F1209719F06F2DFF
:1028C000FE010995CDB7DEB7E5E00C94043A81111D
:1028D0001EC0D09728F3AB0187E0E2CF24E030E0C0
:1028E0008823F1F2AB0122E030E08BE0D9CF22E087
:1028F00030E08111D5CF23E030E0D2CFAB0126E02C
:1029000030E0BCCFAB0124E030E083E0C9CF25E06C
:1029100030E0B4CFAB01C4CF2330310598F288E06A
:10292000D1CF0E941D1280E490E00E941A120895F7
:102930000E941D1290E080E00E941A120895A1E307
:10294000B1E014962C911497EBE6F5E020835C96A9
:102950009C915C97928354968C918483218393837A
:1029600085830895F89480912905789481110BC08E
:1029700096B1892F8095817090FD05C0F89491E003
:102980009093290578940895F894E1E6F0E090E8B2
:102990009083808378940895E091D50381E1E802E3
:1029A000F0011124E750FE4F8185928590933D05FB
:1029B00080933C050895E091D50380913C0590916A
:1029C0003D0521E1E202F0011124E750FE4F248190
:1029D00035818217930738F0268137812817390708
:1029E00010F09287818708959CEF960F923030F017
:1029F0006A50623018F0833009F481E0089589B19B
:102A000099B1E0915605EF7086958695827092FB9C
:102A1000992790F9892B94E0E99FF0011124E05D5A
:102A2000FB4FE80FF11D87FDFA95808180935605D5
:102A3000807381F0F894803171F480913E0590911B
:102A40003F05019690933F0580933E0581E080937A
:102A500029057894089580913E0590913F0501974E
:102A6000F1CF98E0899FF0011124EF5CFE4F948133
:102A700081E0891B8483089580E10E9431150895C7
:102A80008CE00E94311508958EE00E943115089562
:102A900081E00E94311508958DE00E9431158091EA
:102AA0009D010E94C41408958FE00E94311508957D
:102AB000FC018081280F261714F4408308954217E3
:102AC00014F02083089560830895282F44E060E087
:102AD0008DEB91E00E9458150895CF93DF93EC01A0
:102AE000462FE091D50381E1E802F0011124E7507F
:102AF000FE4FE485E95FF0E0EE0FFF1FE15FFE4F60
:102B00008081918168EE73E00E946839FB01309703
:102B100079F028813981C9010E945439009741F028
:102B2000442311F02E0F3F1F281B390B39832883B4
:102B3000DF91CF9108950E94A11328EE33E040E089
:102B400050E00E947C393093500520934F0581E07E
:102B50008093510508950E94A11310923905109297
:102B60003805089580913001882329F09091300133
:102B700081E0943008F080E008950E94B21590E062
:102B800008958436910520F40A9758F481E0089559
:102B9000803127E2920738F4883E934030F483E096
:102BA000089582E0089585E0089584E008958F9265
:102BB0009F92AF92BF92CF92DF92EF920F93CF93FB
:102BC000DF93EC0131E0211101C030E0340FFE0150
:102BD000E30FF11D1082F0E0E0E0842F821B990BDF
:102BE0004C018AE0A82EB12CE417B8F4222341F05E
:102BF0008E169F0629F43150DE01A30FB11D0C93F0
:102C000031506E01C30ED11CCB01B5010E94543965
:102C1000805DD6018C933196E7CF211101C0242F1E
:102C200080E02150330BE82FF0E0E217F30744F483
:102C3000EC0FFD1F9081903319F4E0828F5FF3CF8A
:102C4000DF91CF910F91EF90DF90CF90BF90AF9039
:102C50009F908F900895089590E080E008958F925E
:102C60009F92AF92BF920F931F93CF93DF93CDB7F5
:102C7000DEB7A1970FB6F894DEBF0FBECDBF19A285
:102C8000423008F44AE08E010F5D1F4F842E912CD4
:102C9000B12CA12CA50194010E947C39E62FB90129
:102CA000CA01EA3044F5E05DD801EE938D01232B93
:102CB000242B252B79F790E080E0109769F0FD0137
:102CC00001900020E9F73197AF014A1B5B0BBD0172
:102CD0008CE996E00E94AE13A1960FB6F894DEBF81
:102CE0000FBECDBFDF91CF911F910F91BF90AF90DD
:102CF0009F908F900895E95CD7CF009771F0BC0149
:102D0000FC0101900020E9F73197AF01481B590BF6
:102D10008CE996E00E94AE13089590E080E008955B
:102D200084E98093BC0080912D04882331F01092B7
:102D30002D0410922E0482E0089580912E048823A1
:102D400021F010922E0483E0089580E0089589EB2D
:102D500095E00E94D113809145060E941D1282E1E8
:102D600090E00E941A1290E080E00E941A1281E026
:102D70000E94001281E00E940012809195060E943C
:102D80000012809194060E9400120E94901683E91E
:102D900098E00197F1F7089587E00E9431150E94AD
:102DA000B215882351F08091950690916D0190FBAA
:102DB00085F9809395060E94A7160895E091D503A2
:102DC00081E1E802F0011124E750FE4FE7850E2E65
:102DD000000CFF0B90917D0180919406992329F0BE
:102DE000209130019150233051F4E959FB4F20815B
:102DF000222321F0245091E0223008F490E09295B3
:102E0000907F8F70892B809394060E94A716089557
:102E1000282F42E060E08DE791E00E9458150E9463
:102E2000B21581110E94DE160895CF93DF93D82F3B
:102E3000C92F89EB95E00E94D113D0936406C0930B
:102E40006506C0936706D093680690919A06992309
:102E500061F0809166069295990F990F907C83702E
:102E6000892B81608D7F80936606809145060E9444
:102E70001D12809151060E940012809166060E94E8
:102E80000012809167060E940012809168060E94DD
:102E90000012809169060E940012809151068034D0
:102EA00021F480916A060E9400120E94901689EB1C
:102EB00095E00E94D113D0935606C09357066091B7
:102EC00047067091480690E080E00E944913DF9128
:102ED000CF910895CF93C82FCF7089EB95E00E94D2
:102EE000D113809145060E941D1282E190E00E945C
:102EF0001A1290E080E00E941A1281E30E940012F0
:102F000082E00E94001281E00E9400128C2F0E9439
:102F100000120E94901689EB95E00E94D113CF9188
:102F2000089580919B0687FD07C061E00E9484128E
:102F30008BEA94E00197F1F789EB95E00E94D113B9
:102F4000809145060E941D1281E190E00E941A12B4
:102F50000E9490168BE097E20197F1F70895B0E098
:102F6000A0E0E5EBF7E10C94E239EC01162FFC014F
:102F7000E856FF4F8081803261F098E0E92EF12C15
:102F800002E4803451F026E0E22EF12C02E5803597
:102F900021F088E0E82EF12C02E2CE010E94D1134C
:102FA000110F12706E018CE8C80ED11CF6018081E1
:102FB0000E941D12802F0E940012812F0E94001279
:102FC0000E9490165E01FAEBAF0EB11CCE010E947A
:102FD000D113B701F601808191810E945212912C88
:102FE000092D10E00E151F0554F40E942A120C0F33
:102FF0001D1FF801E654FF4F80839394F1CFF50134
:10300000808186FDE3CFCE010E94D113CDB7DEB71C
:10301000EBE00C94FE39EF92FF920F931F93CF9346
:10302000DF93EC01F62EE72E142F052F0E94D1130B
:10303000C457DF4F88810E941D1282E190E00E94F8
:103040001A1290E080E00E941A128E2D0E94001247
:103050008F2D0E940012802F0E940012812F0E944B
:1030600000120E94901683E998E00197F1F7CDB71E
:10307000DEB7E6E00C94033A94EF980F9F3478F4AF
:1030800080935B0624E531E0829FA001839F500D71
:10309000112463E071E389EB95E00E940B18089519
:1030A000282F4AE56CE085E491E00E945815809154
:1030B0003001843021F0809145010E943C18089530
:1030C000CF93C82F482F50E060E070E489EB95E083
:1030D0000E940B18C0939806CF9108951F93CF9329
:1030E000DF9389EB95E00E94D113809145060E9401
:1030F0001D1281E090E00E941A12809196060E94B3
:103100000012809197060E9400120E94901689EB8F
:1031100095E00E94D1136091490670914A0690E0B3
:1031200080E00E94491380919B0687FD07C060E004
:103130000E9484128BEA94E00197F1F780915C067B
:10314000811122C0C0915F06D0916006AE0161E09E
:1031500072E089EB95E00E940B18D0936006C09353
:103160005F0610916306C0916106D0916206AE01C0
:1031700062E072E089EB95E00E940B18D093620642
:10318000C093610610936306DF91CF911F9108955C
:103190001F93CF93DF93EC01122F909353068093EC
:1031A0005206709355066093540681E090E0909328
:1031B0005906809358064C175D0720F06417750771
:1031C00008F0EA019091990620915C06809196069C
:1031D00030915D0630FB87F98F7920FB84F9807F81
:1031E0008160809396069093970680E480935106C1
:1031F00080916606807C81608093660610926906E5
:1032000081E080936A060E946E18809198060E9461
:10321000601810939A0682E080935A06D09357065E
:10322000C0935606CE010E941517DF91CF911F91D2
:103230000895282F4FE060E085EF91E00E94581537
:1032400080913001843059F44091F501042E000C36
:10325000550B63E073E189EB95E00E940B1808952C
:10326000282F4FE160E08DEE91E00E94581580918B
:103270003001843059F44091ED01042E000C550BBF
:1032800062E073E189EB95E00E940B180895282F06
:103290004CE360E08DED91E00E9458158091DD01D6
:1032A00081110EC080914005882351F050E040E02C
:1032B00061E070E489EB95E00E940B1810924005E4
:1032C000089585E00E94311580913001843069F4C1
:1032D00080915D0142E0811101C041E050E060E079
:1032E00071E189EB95E00E940B180895282F4FE3B8
:1032F00060E085E591E00E9458158091510680328A
:1033000049F04091550150E063E073E389EB95E0AB
:103310000E940B180895282F40E260E08DE491E0B0
:103320000E94581580913001843049F040914D0140
:1033300050E062E073E389EB95E00E940B1808957A
:10334000FF920F931F93CF93DF93F090D501CFEEB1
:10335000D0E207E011E2FE0165917491FE01329620
:103360004591549181E0F81611F0452F55275527C6
:1033700089EB95E00E940B1824960C171D0759F74E
:10338000CDB7DEB7E5E00C94043A84E10E94311534
:1033900080913001843011F40E94A0190895CF93D8
:1033A000DF93FC0165917491EC0124966115710520
:1033B00051F00296FC014591549189EB95E00E94F1
:1033C0000B18CE01EECFDF91CF91089587E091E207
:1033D0000E94CF194091ED01042E000C550B62E0C4
:1033E00073E189EB95E00E940B184091F501042EE2
:1033F000000C550B63E073E189EB95E00E940B181C
:1034000087E491E20E94CF198091C501813029F4AF
:1034100087E291E20E94CF1908958BE191E2FACF01
:1034200082E10E94311580913001843011F40E94B4
:10343000E61908958091CD01813029F487ED90E25D
:103440000E94CF1908958FEC90E2FACF83E10E9499
:10345000311580913001843011F00E941A1A0895BC
:10346000B0E0A0E0E6E3FAE10C94E5398C01D62F58
:10347000FC01E856FF4F808198E0E92EF12CC3E271
:10348000803251F026E0E22EF12CC3E4803521F4A5
:1034900088E0E82EF12CC3E5C8010E94D113680131
:1034A0008CE8C80ED11CF60180810E941D128C2F61
:1034B0000E9400128D2F0E9400120E949016C801D7
:1034C0000E94D113B701F601808191810E945212AE
:1034D000D12CCD2DD0E0CE15DF054CF40E942A1260
:1034E000C00FD11FCE54DF4F8883D394F2CFCDB716
:1034F000DEB7E8E00C94013ACF93DF93EC010E9431
:103500009016188283E090E00197F1F7DF91CF9158
:103510000895CF93DF93EC01862F0E9400128F85D0
:103520008F5F8F87803138F0CE010F960E947C1A12
:103530008C810E949114DF91CF910895B0E0A0E0BA
:10354000E4EAFAE10C94E639D82FC62FF42ED22EF5
:103550008091A0060E94981461E28CE996E00E9496
:10356000891A6D2F8CE996E00E94891A6FEF6F0D12
:103570006D0F8CE996E00E94891A62E28CE996E070
:103580000E94891AEC2EE694E694E6946E2D8CE95E
:1035900096E00E94891ACD0DDD27DD1F219783E07B
:1035A000D595C7958A95E1F76C2F8CE996E00E9436
:1035B000891A8BEA96E00E947C1ACE19CF5FCF9DC4
:1035C000E00111248091A0060E9491147801C00F9F
:1035D000D11FEC16FD0671F060E00115110511F028
:1035E000F70160818CE996E00E94891AFFEFEF1ADB
:1035F000FF0AEFCF8BEA96E00E947C1ACDB7DEB7C8
:10360000E7E00C94023AB0E0A0E0E9E0FBE10C94C2
:10361000DF39E0EDE80FEA3008F448C08E3209F0F7
:1036200068C024E0C22E94E0C99EA0011124A1E844
:10363000B5E01D929D012158354024173507C8F388
:103640008E3209F4EAE0D62EF0E0E256FC4DE49129
:103650000EE713E2F12CE12CCE2FD0E0CE010E2CA0
:1036600002C0959587950A94E2F780FF30C0F80173
:1036700084903196A490319694903196B4906624BB
:103680006394680CBB20A9F0B12C662463946A0C87
:103690009B14E9F0782C7B0C6A2D872D0E946A120E
:1036A000662D872D0E946A12B394F2CF9EE0C92E38
:1036B000BACF9B1461F07A2C7B0C672D882D0E9469
:1036C0006A12672D862D0E946A12B394F2CFFFEF23
:1036D000EF1AFF0A0C5F1F4F88E0E816F10409F0AB
:1036E000BDCF01E815E020E24C2D60E18D2D0E9458
:1036F0009E1ACDB7DEB7EEE00C94FB390F931F9303
:1037000010E000E00E949E1A1F910F910895B0E012
:10371000A0E0EDE8FBE10C94E5396C018B017A0146
:10372000E9018091A0060E94981461E28CE996E07C
:103730000E94891A60E0D7FC07C06091A30670E080
:10374000C616D7060CF4B6018CE996E00E94891AD9
:103750006091A30670E0E616F7060CF4B7018CE959
:1037600096E00E94891A62E28CE996E00E94891A2A
:1037700060E017FD07C06091A10670E0061717070B
:103780000CF4B8018CE996E00E94891A60E0D7FD3C
:1037900007C06091A10670E0C617D7070CF4BE0100
:1037A0008CE996E00E94891A8BEA96E00E947C1AC6
:1037B000CDB7DEB7E8E00C94013AECE9F6E0948787
:1037C00083877687658723E0759567952A95E1F766
:1037D000478150E09B010E94871B089523E0660FFC
:1037E000771F2A95E1F70E94DD1B0895EF920F9352
:1037F0001F93CF93DF9300D01F92CDB7DEB7809198
:103800004A05811124C080912B05811129C0609146
:10381000980670E080E2E82E00E020E042E0CE0171
:1038200001960E94D7151091760570E060E082E75E
:1038300090E00E94EE1B81E0113009F080E080935F
:10384000A406CE0101960E947D161092A4060F9048
:103850000F900F90DF91CF911F910F91EF900895EE
:1038600080E289838DE48A831B82DDCF90912B05D2
:10387000992341F0892F10922B050E9460180E9415
:10388000F61B089590919806890F803414F08FE309
:10389000F4CF87FFF2CF80E0F0CFCF93C82F809195
:1038A0002B05882341F0C3FD11C0C13011F46630EF
:1038B00069F481E009C08C2F8370833039F4CB30F8
:1038C00029F08FEF6630A9F30E94361C8C2FCF9120
:1038D000089580914A05811112C08091760581304A
:1038E00071F09091980680912B05992349F08111F0
:1038F00009C090932B050E9460180E94F61B089542
:103900008823D9F30E94601810922B05F6CFA7E008
:10391000B0E0EDE8FCE10C94DE3990904A0591109E
:103920006FC0882E0E94B215682EA0903C05B09002
:103930003D05811187C0E091D50391E1E902F001D5
:103940001124E750FE4F80852DE7C22E24E0D22EB1
:1039500013E0833081F0823049F48091AD016DE74E
:10396000C62E64E0D62E12E0813029F099E7C92EE8
:1039700094E0D92E10E08FE2E82E0EE2212F45E0F0
:10398000B501CE0101960E94D715C5010E94C1154F
:10399000782E112341F0B12CA12C9CE045E0992414
:1039A000939411E07AC0912CB12CA12C9CE045E0BD
:1039B00074C09091C404971509F4A7C040E8481B4F
:1039C00020E260E1A0C061101FC028E042E160E297
:1039D0008DE60E947E1B28E042E168E28DE60E94AF
:1039E0007E1B68E270E08DE690E00E94DD1BC60160
:1039F0000E947D167092C404F0920501E0920401C9
:103A00002796EFE00C94FA39B8018EE20E94031B6E
:103A10009801295F3F4FC5016AE070E00E94543968
:103A2000962FB82EB90180E3890F0E94031BB801BD
:103A3000685E7F4F80E38B0D0E94031B84E0871537
:103A400020F6D8CF80913A0590913B0568EE73E05F
:103A50000E94683997FF04C088519C4F61507109DA
:103A60006B01CA0CDB1C6AE070E00E9468395B01E4
:103A7000C6010E94C115782E30E2E32E0EE220E04E
:103A8000482FB601CE0101960E94D715472D59E760
:103A9000C52E54E0D52E93E010E0140F8EE0489F21
:103AA000A0011124992011F04C5F5F4F123038F0C3
:103AB000E3E01E9F400D511D11244350510929E29E
:103AC00030E0611002C030E020E0892F90E0420F2A
:103AD000531F2AE630E07901E41AF50AE816F906E0
:103AE0000CF47C0120910401309105018E2D37FDED
:103AF00003C02E1508F4822F882009F45ACF20E243
:103B000040E860E180E00E947E1BCE0101964C01FE
:103B10008701F40151904F01552009F454CFB801A9
:103B2000852D0E94031BFEE284E05F128EE090E090
:103B30000396080F191FEDCF90933D0580933C0528
:103B400080E00E94871C64E670E080E090E00E94C4
:103B500049130895CF93C82F8091A0060E941D128B
:103B600080E890E00E941A126C2F8CE996E00E9487
:103B7000891A8BEA96E00E947C1ACF910895CF9320
:103B8000DF932091A10630E04091A30650E070E061
:103B900060E090E080E00E94871B8091A0060E9478
:103BA0009114C0E0D4E060E08CE996E00E94891AAC
:103BB0002197C9F78BEA96E00E947C1A6091A906CA
:103BC0007091AA068091A7069091A8060E94DD1B1D
:103BD000DF91CF910895A3E0B0E0E1EFFDE10C9417
:103BE000E6399B838A83FC01278183859485069629
:103BF000281719060CF43AC0062F84810E949114EC
:103C0000F12CE12CF0EEF00FF9830052110B01536F
:103C10001D4D86E0D82E89818F3570F5F80184918D
:103C20008F3F51F1F7018D9DE00DF11D1124E155FC
:103C3000FE4D6491EA81FB818085811160958A81C6
:103C40009B810E94891AEA81FB8183859485019674
:103C500094878387FFEFEF1AFF0A86E0E816F104E6
:103C6000D1F68A819B810F960E947C1A81E090E0B8
:103C70002396E7E00C94023A60E0DCCF682F8CE9F1
:103C800096E00E94EB1D0895CF938091300184301F
:103C9000B1F48091410581110CC0C0E268E370E08D
:103CA00088E190E00E94DD1B8C2F0E943E1ECF9188
:103CB00008958091D501CAE2882381F3EECF8091E7
:103CC0003001833039F480910B01C5E5813031F743
:103CD000CCE4E4CF0E94B2158823F9F280918501EB
:103CE000C3E58130D1F6DACF0F931F93CF93DF93E3
:103CF0008C01D0E0C0E0F801EC0FFD1F6491662359
:103D000041F08CE996E00E94EB1D892B11F0219681
:103D1000F2CFCE01DF91CF911F910F910895FF92C5
:103D20000F931F93CF93DF938A01F22E70E090E000
:103D30000E94EE1BCCE9D6E0F886C8010E94741EF2
:103D40001886CDB7DEB7E5E00C94043A80913001D7
:103D50008330F8F4E091D503813018F181E1E80275
:103D6000F0011124E750FE4FE78548EF50E0E40FE3
:103D7000F52FF11D44918091760521E0833009F003
:103D800020E050E042505F4F67E088E20E948F1EC3
:103D900008958330E9F3843071F0E0E050E040E0D2
:103DA000E6CF81E1E802F0011124E750FE4FE685FD
:103DB00041EF50E0DCCFE091D50381E1E802F00172
:103DC0001124E750FE4FE0894CEE50E0D0CFEF9247
:103DD000FF920F931F93CF93DF9390913001933015
:103DE00091F1182FC091D503EC2E0C2E000CFF087A
:103DF0000E94B21501E1C002E0011124882341F1C3
:103E0000212F45E060E0CE01885F9D4F0E9458154C
:103E10000E9DF0010F9DF00D1124E750FE4FE78538
:103E20000E2E000CFF0BE959FB4F90819F70809183
:103E30009406807F892B809394060E94A7160E9487
:103E4000DE160E94A61ECDB7DEB7E6E00C94033A5C
:103E50000091300101111AC0C95FDD4F212F46E0EA
:103E600060E0CE010E945815011116C080915106E4
:103E7000803439F7E8810E2E000CFF0BE05AFB4F1F
:103E800080818730F0F60E946A17DBCFC75FDD4F75
:103E9000212F219544E0E4CF488150E062E071E1B8
:103EA00089EB95E00E940B18CCCF1F93CF93DF9343
:103EB0008091760511E0823009F010E0212F45EE67
:103EC00050E060E082E20E948F1EC091D5030C2E6C
:103ED000000CDD0B809130018430D1F481E18C9FA6
:103EE000F0018D9FF00D1124E750FE4F85858C5F0A
:103EF0001093A40627E0829FC00111248B589F4F86
:103F00000E94741E1092A406DF91CF911F91089514
:103F10000E94B215882359F081E18C9FF0018D9F9A
:103F2000F00D1124E750FE4F8485895FE1CF81E1D8
:103F30008C9FF0018D9FF00D1124E750FE4F83857B
:103F4000D7CF0F931F93CF93DF93C091D5032C2F1F
:103F50000C2E000C330B9091300141E1C402E001C2
:103F60001124913050F1943010F1943031F5CA5F42
:103F7000DD4F08E011E042E0282F60E0CE010E9412
:103F800058150115110561F08881880F990B080FEC
:103F9000191FF801808191819093590680935806EA
:103FA0000E94551FDF91CF911F910F910895CB5F14
:103FB000DD4F10E000E048E0DFCFCC5FDD4F91E166
:103FC000929FF001939FF00D1124E750FE4F9085D2
:103FD0000FE011E043E0923078F246E0CDCFCF938E
:103FE00080914A0581111FC0C0915305C1111BC0AA
:103FF0000E94B215811105C0C0916D06C3FBCC278C
:10400000C0F928E04CE060E182E70E947E1BCC23EF
:1040100051F060E170E082E790E00E94DD1B82E7F2
:1040200090E00E94741ECF910895CF93C0918D01AE
:104030008091A0060E94981461E88CE996E00E94A5
:10404000891A82E8C89F900111242455384EAC2F5C
:10405000B0E00E94C53961E0670F8CE996E00E94EC
:10406000891A8BEA96E00E947C1ACF91089590916C
:104070008D01890F8A300CF089E087FD80E0809304
:104080008D010E9415200895A8E0B0E0EAE4F0E276
:104090000C94E1393B9A439A88E08093B8000E94DF
:1040A000911789EB95E00E94D113809145060E94FB
:1040B0001D1281E090E00E941A128FE190E00E94B0
:1040C0001A1285E090E00E941A120E9490167E015A
:1040D00089E0E80EF11C89EB95E00E94D11368E0BD
:1040E00070E080914506909146060E9452128E0122
:1040F0000F5F1F4F0E942A12F80181938F01EE1566
:10410000FF05C1F7898186FDE6CF8BE097E2019735
:10411000F1F789EB95E00E94D113809145060E944A
:104120001D1281E090E00E941A1281E390E00E944B
:104130001A1285E090E00E941A120E949016609177
:10414000490670914A0690E080E00E94491362E3BC
:1041500070E080E090E00E944913D12CC12CF12C3A
:10416000E12C10E000E0F7E3EF16F10408F076C070
:10417000F701EE0FFF1FE65DFD4F85919491C81684
:10418000D90609F06BC08FEFE81AF80A95E1B92E4D
:10419000809145060E941D128B2D0E940012B12CA9
:1041A000A12CF801E856FD4F4F01F401EA0DFB1D6B
:1041B00084910E940012FFEFAF1ABF0A87E0A81691
:1041C000B10499F70E94901689EB95E00E94D113F3
:1041D00061E070E080914506909146060E9452127F
:1041E0000E942A1286FD0EC09FEFC91AD90A095FE4
:1041F0001F4F0733EEE11E0709F0B5CF83EE93E0C2
:104200000197F1F7809151068032E1F0E091D503FA
:1042100081E1E802F0011124E750FE4FE7850E2E00
:10422000000CFF0BE959FB4F80818F7080618093F8
:1042300094068091950680788061806880939506C9
:104240000E94A71688E48093B80081E080932A0535
:104250003B9A43982896ECE00C94FD3986E1B82E01
:1042600097CFCF93DF93E091E501EE0FFF0BEE5D6B
:10427000FD4FC591D49180913001833009F052C037
:1042800080910B01823019F4D195C195D109CE01ED
:1042900020913001233009F048C020910B0141E00A
:1042A000223009F44FEF209151062032C1F12091C4
:1042B000650154E62502900111244203E001439F69
:1042C000D00D112420913A0530913B05C20FD31F28
:1042D000C80FD91FD195C195D10989EB95E00E94EE
:1042E000D113809145060E941D1282E190E00E9448
:1042F0001A1290E080E00E941A1281E00E940012DF
:1043000080E00E9400128D2F0E9400128C2F0E94CC
:1043100000120E94901683E998E00197F1F7DF916F
:10432000CF91089590E080E0B3CF20913001B7CFD6
:10433000282F43E060E085EE91E00E9458158091BF
:104340003001833011F40E9431210895282F49E172
:1043500067EE85E691E00E9458150E94B215811122
:104360000E94312108951F93CF93DF9391E0181697
:104370000CF090E0CFEFC80F82300CF4C0E08091D9
:104380005106D8E2803221F0D8E4803509F4D8E52E
:1043900010E090FB10F989EB95E00E94D113809119
:1043A00045060E941D128D2F0E940012812F0E942F
:1043B00000128C2F0E9400120E94901689EB95E04B
:1043C0000E94D113DF91CF911F91089590913001F8
:1043D00045E2943009F44AE1282F60E085E391E05A
:1043E0000E945815809135010E94B3210E94BD158D
:1043F00085599A4F20913501FC01208308950E9430
:10440000BD1585599A4FFC0180810E94B321089502
:10441000682F70E090E080E04AE00E942F16089537
:10442000CF93DF9370E060E090E080E00E94DD1BBE
:10443000CCE9D6E081E088878FE092E00E94741E8C
:1044400080910E010E9408228CE70E943E1E85E0AA
:104450000E9408221886DF91CF9108951F93CF9371
:10446000DF9370E060E090E080E00E94DD1B81E07F
:104470008093A4068DE791E00E94741E1091300590
:10448000112319F1D0912F05DF5F91E0DA3008F0A8
:1044900092E081E01A3008F082E0C4E0C91BC81B3A
:1044A000C15020F080E20E943E1EFACF8D2F0E9464
:1044B00008228CE70E943E1E812F0E940822109243
:1044C000A406DF91CF911F91089587E791E00E94A4
:1044D000741EF5CFCF9380914A05811114C080914D
:1044E0005305811110C068E370E08AE590E00E94F6
:1044F000DD1BC0912F01CF3F41F48EE690E00E947A
:10450000741E0E94EF1FCF910895CA3018F480E204
:104510000E943E1E8C2F0E9408228CE70E943E1EA5
:10452000F0CF0F931F93CF9390912C05992309F40B
:10453000CFC09091A501913009F44DC090E1C82FF2
:10454000892F0E940F131816190614F08BEE91E0B4
:1045500020910001309101012F3F3F4F21F49093B2
:10456000010180930001609100017091010147E019
:10457000469F9001479F300D1124280F391F83E07B
:10458000359527958A95E1F7309301012093000135
:1045900064E6273882E03807B0F460E02C3E81E022
:1045A000380788F0293682E03807B8F042E1429FA8
:1045B000C001439F900D112480559B426FE170E034
:1045C0000E9454396E5A80910201962F981BA9F5CA
:1045D000109282043FC09FE0B2CF223482E03807BD
:1045E00070F043E2429FC001439F900D1124835E0F
:1045F0009E4467E270E00E945439615DE4CF23314C
:1046000082E0380770F048E2429FC001439F900D5E
:104610001124805D92456FE270E00E945439695F19
:10462000D2CF429FC001439F900D11248D569D40D3
:1046300067E270E00E945439C6CF9E5F953018F053
:1046400060930201C5CF909182049F5F9093820492
:104650009530B0F70E94A113009183041091840457
:104660002091850430918604601B710B820B930BA3
:10467000613177428105910510F4CC2349F1809195
:104680004A0581111BC0C091020167E070E08CE611
:1046900090E00E94EE1B1092A4066C2FC53608F025
:1046A00064E670E090E080E04AE00E942F161092ED
:1046B000A406C43618F485E20E943E1E0E94A1138F
:1046C000609383047093840480938504909386049C
:1046D000CF911F910F910895A9E0B0E0E2E7F3E2D6
:1046E0000C94DB39F0903005FF2009F4A0C0109144
:1046F0002F059BEA199F112D1124169581119BC03E
:1047000080910601811709F468C010930601F11029
:1047100094C028E340E868E080E00E947E1B20E02F
:104720004EE851E064E084E20E948F1E2996E2E1A7
:104730000C94F739ED91FC91FF24FA94F80EB2E055
:10474000B12CA12CBF15A8F0D60113968D919C9188
:1047500068EE73E00E94683997FF04C088519C4F4F
:1047600061507109E60FF71F6AE070E00E94683936
:104770005B0180E2E82E0EE220E045E0BF01CE01C1
:1047800001960E94D715B2E085E0BF1508F088E0D9
:10479000F101E81BF109B40126E02E9FC0012F9F13
:1047A000900D11240E94EE1BCE0101960E947D16F1
:1047B00032E03F1508F4C6C08EE20E943E1E4AE079
:1047C000A416B10418F480E30E943E1EB50190E0E7
:1047D00080E04AE00E942F16B5C0FF2009F4A6CF62
:1047E000812F880F180F212F30E08F2D90E02D5F43
:1047F0003F4F821793070CF49C01F22E02E01F1525
:1048000008F094CF602F70E090E080E00E94EE1BF3
:1048100080912F05181731F080E20E943E1E1F5F25
:104820000E5FEDCF8EE3F9CF1092060172CF8111AA
:10483000FBCF10E065CF1093060128E340E868E065
:1048400080E00E947E1B812F880F180F212F30E0FF
:104850008F2D90E02D5F3F4F821793070CF49C0142
:10486000298725E0129FC0011124DC01AB53BB4F07
:104870006D01412E512C712C612C12E091E1292EF9
:10488000312C042DB9854B1608F050CFF0902F0530
:1048900028E040E8612F660F660F660F80E00E94F7
:1048A0007E1B812E912CB40190E080E00E94EE1BD3
:1048B00080E24F1001C08EE30E943E1E093018F4C2
:1048C00080E30E943E1EEFEF4E1A5E0A6E0A7E0AD9
:1048D0004AE0C301B2010E942F1680E20E943E1EF0
:1048E000D60112968C911297843009F023CF8D91C6
:1048F0009C9164E670E00E9454395B016AE070E0CC
:104900000E945439F62E83E0B4E6AB16B10408F4E5
:1049100082E08E5FF101E81BF109B40126E02E9FD1
:10492000C0012F9F900D11240E94EE1BB50190E055
:1049300080E04AE00E942F168EE20E943E1E8F2DDC
:104940000E940822B4018CE690E00E94EE1BD60182
:1049500012968C91B4E08B9FC0011124845B9B4F15
:104960000E947D16E5E0CE0ED11C1E5F8ACF80919D
:10497000D60381110DC081E08093D60380919D0103
:104980000E94C4148FEA0E94AA1D10927705089510
:1049900080914A058111FBCF1092D60381E00E94DD
:1049A000C4148EEAF0CF8091D60381111CC080918F
:1049B00077058823C1F081E08093D60380919D0123
:1049C0000E94C4148FEA0E94AA1D109277050E94CB
:1049D000A11328EE33E040E050E00E947C39309390
:1049E000500520934F050895CF9380917605E0916F
:1049F000D503843059F481E1E802D0011124A75095
:104A0000BE4FC1E018968C91833009F4C0E081E17B
:104A1000E89FF0011124E750FE4F84E0A1E7B5E0E4
:104A200001900D928A95E1F71092750570E060E0B3
:104A300090E080E00E94EE1BC093A40681E795E021
:104A40000E947D161092A406CF910895CF93DF9314
:104A500080917605843061F4E091D50321E1E20292
:104A6000F0011124E750FE4FD1E08085833009F03A
:104A7000D0E0C091300167E070E090E080E00E94FB
:104A8000EE1BD093A40624E0C29FC0011124845BD6
:104A90009B4F0E947D161092A40680E20E943E1E4B
:104AA0000E94441E80914A05811102C00E94F42494
:104AB000DF91CF910895CF93C82F0E946A228C2F47
:104AC0000E94871C0E9426250E94551F0E94A61E38
:104AD00081E00E9491220E94F61BCF910895B0E0E0
:104AE000A0E0E5E7F5E20C94E139F82EE091D5037A
:104AF00021E1E202F0011124E750FE4F10859924D4
:104B00009394133009F0912C809130018824839480
:104B1000843009F0812C80914005882351F050E0C9
:104B200040E061E070E489EB95E00E940B18109280
:104B30004005891411F03B9A439A0E94CC148FEFE0
:104B400080932F0190919501133009F491E08091A9
:104B50006606837C8093660620915106203409F412
:104B600004C1903C08F090E090936906809156064D
:104B7000909157060E941517C091D5030C2E000C7A
:104B8000DD0B133009F0F9C084E0809330011092FE
:104B9000410581E18C9FF0018D9FF00D1124E750BC
:104BA000FE4FA5850A2E000CBB0BA85FBE4F2C91B3
:104BB000022E000C330B818592854681578104813A
:104BC0001581109353060093520650935506409357
:104BD000540630935906209358068017910720F009
:104BE0004817590708F08C010E9491179091990677
:104BF00020915C0630915E068091960640915D069C
:104C000040FB87F930FB86F98F7D20FB84F9807F9C
:104C1000809396069093970680E280935106809148
:104C20006606807C8360809366061092690681E048
:104C300080936A060E946E18809198060E94601800
:104C400010929A06809145060E941D1282E190E022
:104C50000E941A1290E080E00E941A128FEF90E0FA
:104C60000E941A1290E080E00E941A1290E080E008
:104C70000E941A1290E080E00E941A120E94901680
:104C80008BE097E20197F1F710925A0610935706BE
:104C900000935606C8010E94151721E12C9FC00100
:104CA0002D9F900D1124EC01C750DE4F0E811F8106
:104CB0004C815D8160E074E189EB95E00E940B1806
:104CC000A80161E074E189EB95E00E940B184AE0CD
:104CD00050E062E074E189EB95E00E940B1842E03D
:104CE00050E063E074E189EB95E00E940B1845E029
:104CF00050E064E074E189EB95E00E940B1810929B
:104D00002A05488950E062E071E189EB95E00E9454
:104D10000B1880915D0141E0811142E050E060E0BC
:104D200071E189EB95E00E940B180E94E6190E9440
:104D3000A0190E94FF2180914A05811105C00E949F
:104D4000BF1D81E00E945B25891411F03B9A4398B6
:104D500080913C0590913D059093390580933805ED
:104D6000CDB7DEB7ECE00C94FD398D7F80936606FD
:104D70001092690690936A06F9CE21E12C9FC0013A
:104D80002D9F900D1124DC01A750BE4F5D0114969C
:104D90000D911C9115971696CD90DC9017978091E8
:104DA0002A05882309F4BCC01F968C911F97863072
:104DB0001CF084E01F968C93F1100E944420809197
:104DC00095069091750190FB84F9809395060E9459
:104DD000A71680913001833009F089C020910B0122
:104DE00081E18C9FF0018D9FF00D1124E750FE4F63
:104DF00041855285B601C8010E94C8180E94DE167E
:104E00009091300180919506933009F073C08068CD
:104E1000809395060E94A71680919506807F8093C7
:104E200095060E94A71640916E0550E062E073E37C
:104E300089EB95E00E940B184091550150E063E02A
:104E400073E389EB95E00E940B188091300194E0A8
:104E5000833079F081E18C9FF0018D9FF00D11245A
:104E6000E750FE4FE7850E2E000CFF0BE959FB4F74
:104E700090819F7080919406807F892B8093940607
:104E80000E94A7160E9431218091950690916D0194
:104E900090FB85F9809395060E94A7160E94BD1588
:104EA00085599A4FFC0184810E943C18A80160E05A
:104EB00074E389EB95E00E940B18A60161E074E3AE
:104EC00089EB95E00E940B1843E050E063E074E347
:104ED00089EB95E00E940B184AE050E064E074E32F
:104EE00089EB95E00E940B180E941A1A22CF20919C
:104EF000300176CF91E020918501213009F490E0D6
:104F000090FB87F9809395060E94A71680918501F2
:104F100090E0811193E080919506807F892B7FCF6F
:104F2000109230010E94BD157C01D5011B96EC91B9
:104F30001B97EE0FFF0BE15FFE4F80819181199669
:104F4000AD90BC901093530600935206D092550634
:104F5000C09254069093590680935806A016B10645
:104F600008F47BC0CA14DB0408F477C080915A06A9
:104F7000813069F10E9491179091990620915C0609
:104F80008091960630915D0630FB87F98F7920FB82
:104F900084F9807F8160809396069093970680E4E1
:104FA0008093510680916606807C816080936606BE
:104FB0001092690681E080936A060E946E188091C3
:104FC0005B060E943C18809198060E94601810921F
:104FD0009A0681E080935A06B0925706A092560630
:104FE000C5010E94151780915106803499F481E122
:104FF0008C9FF0018D9FF00D1124E750FE4FE68548
:105000000E2E000CFF0BE05AFB4F8081873010F40E
:105010000E946A1742E050E061E073E389EB95E09B
:105020000E940B18E701C559DA4F4A8150E062E04F
:1050300073E389EB95E00E940B184091550150E015
:1050400063E073E389EB95E00E940B1888810E946E
:10505000B3218C810E943C1821CF580187CF8091C9
:105060003001833031F18AE00E9431150E94B2157F
:105070008823F9F091E080918501813009F490E076
:105080008091950690FB87F9809395060E94A7165C
:105090008091850193E0811101C090E08091950697
:1050A000807F892B809395060E94A71681E00E943D
:1050B0006F25089580914A05811107C00E94B2159D
:1050C000882319F080E00E942F28089588E00E942C
:1050D00031150E94B215882369F080919506909150
:1050E000750190FB84F9809395060E94A71681E0D4
:1050F0000E946F2508950F931F93CF93DF93182F6E
:10510000D62F0E94DB140E949B15C091D5031092EC
:105110003B0510923A058FEF111181E0082E000C2B
:10512000990B8C0F911DC7FD9A954C966CE170E020
:105130000E9468398C018093D503D1110E94CC1450
:1051400080913C0590913D0590932E0580932D050F
:1051500021E12C9FF0011124E750FE4FD085209FC4
:10516000F001219FF00D1124E750FE4FC08531E082
:10517000D33009F030E021E0C33009F020E03217ED
:1051800041F080E00E946F25DF91CF911F910F9138
:1051900008950E9415170E94FF2180E00E94E71EDB
:1051A0008091AD01813059F421E0D23009F020E046
:1051B00091E0C23009F090E081E0291301C080E065
:1051C0000E94871C80914A05811102C00E94F4242C
:1051D0000E94551F80913C0590913D0590933905A3
:1051E00080933805D1CFEF92FF920F931F93CF9307
:1051F000DF93F894E0903E05F0903F0510923F0554
:1052000010923E057894E114F10409F45FC081E046
:105210001E141F040CF080E080930701E091D50379
:105220000E2F0E2E000C110B91E1E902F00111245A
:10523000E750FE4F9085933009F04DC0E5850E2E66
:10524000000CFF0BE85FFE4F2081022E000C330B99
:105250002E9DE0012F9DD00D3E9DD00D112440913B
:105260003C0550913D05C40FD51F91E1909FF00181
:10527000919FF00D1124E750FE4F468157814C1746
:105280005D0788F144815581C417D50760F1CE01CF
:10529000B9010E945439009709F05DC0D0933D05D3
:1052A000C0933C0581E0809335050E94A113609373
:1052B000460570934705809348059093490580E023
:1052C0000E94871C0E94DB140E949B15CDB7DEB79D
:1052D000E6E00C94033AE385EE0FFF0BE15FFE4F2F
:1052E00020813181B5CF60E00E947B288091D50379
:1052F000082E000C990B21E1289FF001299FF00D49
:105300001124E750FE4F3085333059F0209FF001D3
:10531000219FF00D1124E750FE4F2085233009F026
:10532000BDCF20910701222359F021E1289FF001F0
:10533000299FF00D1124E750FE4FC481D581AECFD7
:1053400021E1289FF001299FF00D1124E750FE4F25
:10535000C681D781A3CFC81BD90B1E141F0414F01C
:1053600030E020E0C20FD31F99CFB0E0A0E0EBEB1C
:10537000F9E20C94E539C82FD62F8370833041F5BC
:1053800080914A05811124C0CB3011F10E94A113F4
:105390006B017C018091890490918A0409E814E0F2
:1053A000D83031F0809187049091880407E814E0A8
:1053B0009601281B390B203F310550F081E0D83091
:1053C00009F080E061E00E947B28F801D182C08270
:1053D0008C2FCDB7DEB7E8E00C94013A80914A05F6
:1053E00081113DC080915305811139C080913001F8
:1053F000813059F180913001823039F18091300152
:10540000833069F520913001233049F580910B01FB
:10541000281B20930B01E091D50340913C0550914E
:105420003D0581E1E802F0011124E750FE4F66815D
:105430007781848195810E94C8180E94312181E082
:105440000E94871C0E94441E089580913001813083
:1054500039F081E08093300180E00E946F2508954B
:1054600082E0F8CF80914A05811144C080913005D7
:10547000843168F520913C0530913D05E5ECF4E080
:1054800090E0891769F0408151814217530729F450
:105490004091300152815417D1F09F5F3596F1CF82
:1054A0009091300140913A0550913B0565E0869F0F
:1054B000F0011124EB53FB4F3183208392835483FB
:1054C00043838F5F8093300581E080938B0468E194
:1054D00070E08DE290E00E94DD1B88E690E00E9483
:1054E000741E64EF71E080E090E00E94491381E057
:1054F0000E945B250895833021F490913001933010
:1055000009F190914A0591111DC09091760589137A
:1055100001C080E08093760580917605882399F01C
:105520000E94A11360934B0570934C0580934D0529
:1055300090934E050E94F61B0E94551F0E94A61EC6
:105540000E942625089510924B0510924C0510924A
:105550004D0510924E05EECFCF93DF93C7EDD3E00C
:105560006A817B81888199810E94EC138823C9F02C
:105570009091D603911109C090917705992329F054
:105580000E94D324DF91CF910895813081F4EC8182
:10559000FD81309711F0099504C0888581110E9422
:1055A0007B2A299684E0C832D807D1F6EBCF8B301E
:1055B000C1F7EE81FF81309771F7F3CF80917605C7
:1055C000882391F01092760510924B0510924C05AD
:1055D00010924D0510924E050E94F61B0E94551F19
:1055E0000E94A61E0E9426250895B0E0A0E0EBEFE1
:1055F000FAE20C94E5392091D50311E12103F00181
:105600001124E750FE4F8085833009F4B3C08091A8
:105610004A058111AFC00E94DE2AC091D5030C2E2D
:10562000000CDD0B209130011C9FC0011D9F900DCF
:10563000112487509E4FFC01211187C016850091CF
:1056400030010E94B215882309F451C0C0903C0576
:10565000D0903D05F12CE12C20913A0530913B058D
:10566000C90168EE73E037FF06C087EE93E0821B46
:10567000930B68E17CEF0E946839DB01AB01770F87
:10568000660B770B4C0D5D1D6E1D7F1D81E18C9FA0
:10569000F0018D9FF00D1124E750FE4F848195811C
:1056A0006C01F12CE12C4C155D056E057F050CF4A9
:1056B0004EC0868197816C01F12CE12CC416D50671
:1056C000E606F7060CF443C0E8E1FCEFAE9FC0012C
:1056D000AF9F900DBE9F900D1124820F931F50938A
:1056E0003D0540933C0590933B0580933A0501505E
:1056F000023050F4CC0FDD1FC457DB4F80913A05C8
:1057000090913B05998388830E94DB140E949B152E
:1057100080913001833011F43B9A439AC091D503B4
:105720000C2E000CDD0B809130018330A0F4813011
:10573000A0F1809130018093030183E080933001D8
:1057400010923B0510923A0508C0178578CFAC013E
:1057500090E080E0C4CF833091F080E00E946F251C
:1057600080912A05811106C080913001811102C00B
:105770003B9A4398CDB7DEB7E8E00C94013A10921B
:10578000300110922A0581E18C9FF0018D9FF00D70
:105790001124E750FE4F1687E0CF809103018093DC
:1057A00030010E94442081E18C9FF0018D9FF00D1B
:1057B0001124E750FE4F1787CC0FDD1FC457DB4F76
:1057C0008881998190933B0580933A05C6CFEF92EB
:1057D0000F931F93CF93DF93EC01862F90E0FC0192
:1057E00053E0EE0FFF1F5A95E1F7EF5CFE4F148177
:1057F0006631A9F4E12FEE0FFF0BEE5DFD4F6591D1
:10580000749140E2E42E0EE220E043E0CE010E94DB
:10581000D715DF91CF911F910F91EF9008956E30C2
:1058200051F46BE072E0113011F067E072E0CE01EC
:105830000E940739EECF25812230F0F0880F991FA2
:10584000FC01E756FE4F349186569E4FFC01849131
:10585000613151F4112371F0165FF4E01F9FB00124
:10586000112465537E4FE3CF2330B9F38111119595
:10587000130FF3CF12E0F1CF11110AC0211103C0B1
:105880006BEC71E0D4CF6531E9F463ED71E0CFCF1B
:105890006B3009F41F5F612F012E000C770B77FF2F
:1058A00003C071956195710990E2E92E0EE220E046
:1058B00043E0CE010E94D71517FF02C08DE2888316
:1058C0001B82A7CF6B3031F380E2E82E0EE220E09E
:1058D00043E070E060E0CE010E94D715F1CFA5E073
:1058E000B0E0E5E7FCE20C94E139282F362F8091F7
:1058F0004A05882309F45CC080910E01082E000C33
:10590000990B0197982F990F990F891B880F820F78
:1059100066E00E94483980E040E0933010F084E473
:1059200043E0622F01E0090F041B000F10E0C82EB6
:10593000D12C460183E2880E911CE22EF12CCE017F
:1059400001963323C9F10E94E72B80913605082E7A
:10595000000C990BA12CB12C8E159F0529F4A09059
:10596000370581E0BA2CB82683E0EE0CFF1C8A953F
:10597000E1F7C7018F5C9E4F7C01B801C601059617
:105980000E94EE1B8EE3B11001C080E20E943E1E19
:10599000C7010E947D16B801C4010E94EE1BAA2017
:1059A000E9F08EE30E943E1ECE0101960E947D1614
:1059B0002596ECE00C94FD390E94E72BB801C40158
:1059C0000E94EE1B80913605082E000C990BE816FC
:1059D000F90621F4809137058111E3CF80E2E2CF0F
:1059E0001F93CF93DF93D0E0C0E016E080910E01CB
:1059F000082E000C990B0197189F9001199F300DEC
:105A000011242C0F3D1F2931310564F4982F990F73
:105A1000890F880F61E08C0F0E946F2C2196C63091
:105A2000D10521F7DF91CF911F91089580914A050B
:105A3000882329F180910E018F5F86300CF081E080
:105A400080930E01082E000C990B0197982F990F47
:105A5000890F880F80933605109237050E94BF1D6D
:105A60000E9410220E94F02C0E94A11360934B050B
:105A700070934C0580934D0590934E05089584E0F6
:105A80000E947B2A0895B0E0A0E0E9E4FDE20C94D6
:105A9000E53980917605882339F00E94DE2ACDB75A
:105AA000DEB7E8E00C94013A80914A058823B1F012
:105AB0008091370591E089278093370561E08091D7
:105AC00036050E946F2C0E94A11360934B057093C2
:105AD0004C0580934D0590934E05E1CF0E94B21581
