:100000000C94DC110C9429310C946B310C94041277
:100010000C9404120C9404120C9404120C94041208
:100020000C9404120C9404120C9404120C940412F8
:100030000C9404120C9404120C9404120C940412E8
:100040000C94DF300C9404120C9404120C940412DF
:100050000C9404120C9404120C9404120C940412C8
:100060000C9404120C940412534156454400534D11
:100070000003060708010203040A10161C222C368E
:10008000404A545E0002080E18222C36404A2020B6
:10009000200031206B487A200035206B487A200000
:1000A00039206B487A20003130206B487A00353097
:1000B000206B487A003130306B487A0031204D484F
:1000C0007A2000313020487A2000323520487A20CA
:1000D00000353020487A200031303020487A003511
:1000E000303020487A0031206B487A200035206B70
:1000F000487A200039206B487A20003130206B4844
:100100007A00535445503A200050586068700818DF
:100110002030384048000810283840302E35206BF9
:10012000487A00312E30206B487A00312E32206B15
:10013000487A00312E38206B487A00322E30206BFE
:10014000487A00322E32206B487A00322E35206BEE
:10015000487A00332E30206B487A00342E30206BE2
:10016000487A00362E30206B487A00204155544F93
:10017000202000313130206B487A003834206B4821
:100180007A20003630206B487A20003430206B48CB
:100190007A20000020202020200044454C3A42577D
:1001A000204641564F524954455300454D505459ED
:1001B000204C4953540000000000000000000000E3
:1001C000010000000700020100000201000003001E
:1001D0000100020100000000020100000201050010
:1001E000000001000F0001000900000002010000F2
:1001F00041555400204F4E004F46460020353000F8
:10020000203735006B487A004D487A00525353002E
:10021000534E5200313030003530250031306D0002
:1002200031356D0033306D0036306D00524F570060
:10023000434F4C0020413200204131002D2D2D0034
:1002400020202020202053455454494E475320203D
:100250002020000431F7210531F52D000000006752
:1002600002020505050205020202030202030266FC
:100270000806056A67076A060606060408040205FA
:10028000020202050708070803060707080203041D
:1002900003070304037F727577797B7E80838587EC
:1002A000898B8D8F919350678994F4646792ADB078
:1002B000B3D8E1E6E9EBEEF1F4F6FAFD0F262C31C6
:1002C0003335383B3F4244484A4D4F00187F310197
:1002D000187F1E04187F1B05187F0E0818001409CC
:1002E00018003C0013FF00011304000413BC7F0539
:1002F00013BC7F00000000001A0000061A00000076
:10030000000000001A0100011A0100021A0A00038D
:100310001A1400041A1400051A3C00061A550000AD
:100320000000000019100001191800021940000314
:10033000192C010419AA000818140009183C000A15
:1003400018A00F0B182800000000000C1014181C37
:1003500020252B32373C0039000000000000003916
:100360000C00013937000239400003392C010439EF
:10037000AC0000000000AED5808D142001A1C88122
:100380007FDB40A6AF415453204558004154532DC4
:1003900032302B2056372E30004D454D20524553DC
:1003A0004554004D454D205745415200000058022C
:1003B00084030807100E415454000000EE22011679
:1003C000415643000A016318FA1553514C000001CD
:1003D0003B180116534D41000001A018FA15534D6A
:1003E000540000018D18FA15414E420000025019C8
:1003F000FA1542464F0000019B22FA1553534D0057
:1004000001027916F8155356430001023028F815F9
:10041000434F46000003B116F81553594E00000231
:10042000FB27F8154357500007018C22FA15444565
:10043000200000025318F115464D500001028619A4
:10044000F115464D4F000002F018F11546534100DA
:1004500016012618F115465354000A011118F1151A
:10046000535741000001B219FA15534352000401D9
:10047000222101165350540000021B160116535737
:10048000550000023016FA15444953000002791550
:1004900001165253490001021E16FA154E4156002C
:1004A0000002C32E0116434150000002211601161E
:1004B0004350550000022A16011642415000000226
:1004C0002416011653434E00010227160116465604
:1004D000410000010518011600000008000201009B
:1004E00000030407000000000000000000000000FE
:1004F000250028002B0000000000240027002A000F
:1005000004040404040404040202020202020303B9
:1005100003030303010204081020408001020408C1
:1005200010200102040810200003740BD484606FB3
:10053000AE6CF9BB84A265B14BF672011A21E85A80
:10054000D8D604735E2C226EC4E9B58B819A1EE462
:1005500087C99E7B17526DADE3E58B04A72E996A80
:1005600032AA9997CCA65B157956480163B1DF543E
:1005700027065706538CA627AA66890318517EFBC7
:1005800067D3CEDD3FFD3D1F478401F3856EF83B09
:10059000792B0C904B67467D5488FDD612E5E748D1
:1005A000F20EDB994D71A54068D9C95939E475201F
:1005B0001CE9B1F5013C19BB60F7FA6B1E689F1985
:1005C000B6ED140F56BCC134CB009D43D40FF3627B
:1005D0009C9DF78B9D533A8D2F3DDE3D3831039B1B
:1005E000C7C159E9D175888D365886704E5B9ED04B
:1005F000DBCBF7EA1FDBA53BB3BD6BBCF37065D566
:10060000170F64152420D5B87B0D272985881F581E
:1006100022574F09C04DD6E4C6B53A373327BB6AD7
:100620001469031BEDA8C343E8EADE410625C5C8EB
:100630003CBF32B2A7DD22C2E9CA84F2C0267C7870
:1006400001F7D5C60533E4C278EC1BFDD2507D110D
:10065000295799B0F1556674B45823A06F2ED89BD2
:1006600008B33E53CF5ECC7ADF4EED42166A9188D6
:10067000431B1D845C52216658243671C56A0D2CBB
:10068000869A239DE03543C97F41BD8299ED7A2644
:10069000B2D3A6CE4F00E687E3D7682886F7CED23E
:1006A000B3D31B0402B978B3ADE03C53A68A4A2207
:1006B000BE1FCEB176F22F81A8C17872B015651930
:1006C000E332A74D0CD300B9C327BE744DD1E10C62
:1006D00036DD23FBA722D344CAB3081BB40D4BDF7E
:1006E0001AA69032925C1AA7CD852E351172F82188
:1006F000357D3FDB298D30B34F451477CF992FA33C
:100700009081B0AEE845E63AA9A262B7DBBE2539D2
:10071000A5FCEAC5BC3AEC90AEA6FB12AAC76222C1
:10072000AFA984B964B8FB8DC11CC3D0876D5CB41C
:10073000FE3FA4B8D889F40159BB04A543441ACBA1
:100740004130F75B9AEE28F44C7199CA4B7F2A131B
:10075000F04B54B3FC90EDBE483FF15E0DA1BB1EC3
:10076000591615F04B504C96861BA9CCC2694E10F9
:1007700003F0E953E5E2BB45E28DAE407108864DDA
:1007800008F49690585340A58B5B3CAD47B5D7E233
:100790006A1378D4DCC9EC0E93F0C01D953676A4AC
:1007A0005385C9ACE4718DAF6861209DFF45356EFE
:1007B00004D82732C3DAEEA26604B72106527F3985
:1007C0008FFDEE9074B64FB6240E1248F0B230F2A0
:1007D000A54C9152E3C6487B3896239ED71B9515AE
:1007E0003AC98B6F637D1DC9EA96E601D785C0EAD9
:1007F0003DCAD3B7FB07543A00313D74E4125BA203
:1008000038335BBF1DDC4EE8851077ABEA6579B005
:10081000AA3061C6F63BCC95FC837F8C7BB5520534
:10082000EBF721DE89B66DEE317713AA9355960862
:100830006E1C82B57E95B994DD68425C3A00C37B3C
:100840006F606A2C07D76C82FBB2812569D6720A69
:10085000D2E8500588491B6372996CE37AAEB01BED
:100860009ED42554258A901797DF39B87CEAF08208
:10087000DD25D2ADE7F6362384A9C96A53F4822C6C
:100880001DEA06C64F705437802A6B63DBCC86E6C0
:100890008C7F278C7254739E1BD64CFA058280D7AE
:1008A000B71198069869151CFC868774845BD40F71
:1008B000DBD727C54AB28F297A4A230AB807D03432
:1008C00070818E53EF43163FA8A79E5A77C091B709
:1008D00089155248C0B762ABE1746410AA096B97DE
:1008E00074217935A19725FC78C1EC6E8777408714
:1008F0001A74828156DDEC37ADAF0331AC47857495
:10090000C02A459DF4120CF986B04A16D8116C46DF
:10091000C44A67988B1B42C2BEBB0E4884F708A628
:10092000C38F8E8DABC29B5D5C6028578F0EAD2E42
:10093000C15E95299AF48A27D441BB4AAC5DB29333
:1009400026FD87813F2735A6422C1538ADF8026F6A
:1009500094DA08EE19D890FA89C3AD89FEC602462A
:10096000811D0C8D782FEED3ED6C7B95495687F465
:10097000E263DA39CE681618ED98EE86F3B3C11249
:100980001A519B571D199E987ED2FD3D2B59154635
:1009900074577914817189D922DD9210D98991DF38
:1009A00067006E53AFDAB528301E47E6B7052D2233
:1009B000CF7F6ACD88906B8C16368807A1B7AFF3CE
:1009C00031C4DB768B969EF017A73F847891A8CD33
:1009D0003F8FA5DD5214F9395D0B568E1C5A5B8989
:1009E000EE809E33BDB145154234597820FC2DDB95
:1009F000C92E0F3526CF239B3E1D9F0F260EB7B560
:100A00004EACA286D5DA36045A73466A88C52AA047
:100A100083E88B5F3CAF6A444E759B8F93373538C4
:100A2000BD029A1D8429642597E07C2AB6CBC16655
:100A3000513CBC3BF3552BB7BD81ECF349D5F803D2
:100A4000E0BDC60CEEC01908FB4F8C94080EA53013
:100A500037F0B818937300BB5252B4980D4B45B998
:100A6000890A34E91C245A8FA89DC2D927A9EEBF50
:100A7000C08090BC2A9343FB0AB396D1AE134101C8
:100A800068B92C53537C00A58441D6988898FEDE23
:100A9000F7E23743620E9383EE030A8DCA87593615
:100AA0006F61F7F4D6AB8B0F9C8396A46C464380A2
:100AB0006BEA50DCD8CED4F4AE5BC6014385718DB1
:100AC0000C395EE43B2BC488B2C554960E879A500D
:100AD00093D69C91CA09648B23C429441A67E1DA2E
:100AE000C71B2517022C8F2A133ACFD665312B103E
:100AF000F5B596DF01997BADD6B4C035A348E3B018
:100B00009EFE33101A09AE3C0AA1728F0051E178A3
:100B100023F5E2BFA64628B34B24B1A1DEB1C448F9
:100B20006FED5AD461F0DBE1085C64C0CAE9A9DE6C
:100B3000DEECC0685B6DBD43828CCA69B1A9C87127
:100B40000D5D6DA5AB1A6794EE0593E33FE81AE6D9
:100B50000F7F79F2CBC53757DFFC4FB460C7973CA6
:100B600061B00C4664F44392D2A5F0F3B7DFAB203A
:100B7000B1F5302AB3DC4B39B7853E1E1B948C2669
:100B8000288045D60136D0EC934688D3D5895D7A46
:100B900082213EC240E3B4DEF5A569D569495C898E
:100BA000CDAE137070ED690CECC6FE75EB4ED6B38E
:100BB000C860FB341EF86492D929A813383D79C463
:100BC000BF21379DE34F21E53F2C5C5F41FF148738
:100BD00091E082040B1E5553DC5640A43578E29B0D
:100BE00049222E09CD1F6F9483EEEA8BC4C210E018
:100BF00080D9A55F53349C8CEA95648794D6321CC7
:100C0000EB93BFE35583C2F6FCC885B2945C425FA8
:100C10006B8E3B9779747EE35CC2631A22B17F943A
:100C2000CBE7B7FF0E3795AF105317881272DDCBA5
:100C3000AB4B6B6824ACC95C72094FF1FB1DE7A29A
:100C400030E9204BDA707C9EE234EB6A35C233D750
:100C50009D07B1EFF675F5FDADC74BD0B7DDAE1E04
:100C60008D1EC0399CA71CC5CC3950C66BC6DA375F
:100C7000C7E120EB74A53DC008FAC2DFF29E432B0A
:100C8000F07750498CC32F68F32A9B831ADC05D870
:100C9000B77C3C611176EC2DFE86088715A3C01C3D
:100CA000B46A8D9EBF9AD5C85B05181015FBC63C6B
:100CB000EEC5524B313607B94C81EA83D782FEFC30
:100CC00043594E20BDD365CF1F5C711FBF26EC4436
:100CD000EB0174823C8E60DF479031177E16C0ECCA
:100CE0001EC33A7A5921A29B8E8725D3FE85DD6DDE
:100CF000E6D8CA74BADB4230963D8622866FDE376C
:100D00001A932F032EE16E1662C1E12DFECBA8DFF0
:100D10006405EF23BC71617B1B602227BDC6A372F3
:100D200007AA09B052F219154DBEAF263B4D62A677
:100D30003C41077A34253CD6CDB65547871ECBCFEC
:100D4000CED20D95C0D872A6E0332426517E71C74D
:100D5000533FD4677352CB785A001115715F8D3CA5
:100D6000CF40CDD97430D9A13FC658BCBE78183118
:100D70009A3960BB8D7B3495A5F1543BB98599AF09
:100D8000C445EB64A76E5960EB1E7AFBFD924323CA
:100D9000F127AC661266288A5CF6C63F7604E8093D
:100DA00027ED05AA26E5B4AD40BAF7F484CB7F075A
:100DB000108DB6C7D477EABA962A98F056D7FF5066
:100DC0004D59793D41E0FAA99D3EA6D979C80DD18A
:100DD00056C5ADD7FB703CBDF3E95D1C5393331D85
:100DE000F81BEE9FB750AC8F485961C9859EC8B0BB
:100DF000D27439DF33F528E06311A7C405BD3AD9B1
:100E000034CAF9AAE200E6E638573EEC197C0D2711
:100E100045C552C4FFF469C5F573734FE307C7CFE7
:100E200038235B9C99A26A72B03539C10AC71C1A73
:100E30003060181D2BF0C8F179A394E3363593691F
:100E4000059107126044FDB6C6FFE0CFA2CFC2A352
:100E500058AC32E32EEC0D9D1BFB0540BA678ECBE0
:100E600038D7609CFE9EA170CC40728C8C507185EE
:100E7000DD84925CEE44B6E0801532DD1B4B8C6E57
:100E80008E3997A5AFC6F42985D3859385C854E4D8
:100E9000591D4EA0FEC507C1F73252F94D4585FCDC
:100EA000A0FA37B59D47E852238D928743B4B84FD7
:100EB000951B1E4FE545BFCEC80CB27DE7D92E88E5
:100EC000B72A61E12DC4212EB84DFD2187302511AF
:100ED000EC1F299431D292853817DA634D8CB40611
:100EE0005564B76CFCC28D5D978609D34369E835BC
:100EF00077CCAF91363C7CA36E4E4AA2C94150EAF2
:100F0000ABDF8704704F16F5A038F56016CD0CE501
:100F1000C7E3AD00126B12853C5C7F76ED49F29D14
:100F20008FDFABE1DD8701ED2C1B4B55117FC392A9
:100F3000D391C1D8A737C7E55B482BED31DECEFB97
:100F40009508E35184000B4D2673118B1EE20404B7
:100F500073E072FFE659C90448BFABF399877C0779
:100F600004FB33B163616112AD08AA30AC174D3098
:100F700086BF6713F1A7041B48422384BB7FB408D4
:100F8000A69F43785CA14E8BA6E67C4901F7315DB4
:100F90002730010B570B79F7024433BBB45BC70111
:100FA000ABE301C2D2017A079EAD8402F1EEF7D81D
:100FB0002950012C35543ACC01C93D666A98052464
:100FC0007AF71C2440EBA24DC266C8372C030FF3FE
:100FD00001066D9A42F0948FEDBFE3283B726937AA
:100FE00075B4A09A6E31FD665BCBF3BA8CA431FF69
:100FF000BA7C2454D3C6638993E4EDDA58474EB5DE
:101000008FD793FDAF31EAB4ECC9057D2B1596C19E
:10101000007E80E6F747CD6A77F10E5913AA5C830C
:101020008870DCC4525220B6692D6C6C8B662ACD58
:101030005A4130D6FB7BA0EC7A22887C716EAF627D
:1010400006F4A8C688857636C5C0D867967CE84D74
:10105000D4FBA96F0FB2A7A3196A30FD6FFC2BCE8A
:10106000A41B8E574851C6980FE5087B4DFC59DDEF
:10107000CF131B310C5E3B98E1F4C341D7A2645EF1
:1010800016F9EBAE20E95D54BD99D3A7C1D9E5327D
:1010900022D69F4FDD6B3C6DE94D965211DA2386C7
:1010A000BE01C451C29CC6F52F1FD0F1F55782FE78
:1010B000CBFB4ADF1D0046B8A73A566608714E477B
:1010C000F827265F6CD8C305990A758F4FC18872BF
:1010D000A05A1308A382842ECEB5A34605D66A78FB
:1010E00056442386F2C963088BBDEE56D4361F37AB
:1010F0005318E7DA1CFAD005D55FE7B7AD362BCB2E
:1011000006C053F432A8756FE3C9A1B0A6E6C24188
:101110000F5D2E0A64504692495B2D002EB5213F8B
:101120000B4A719688844C98AA2823EBEF455C62A1
:1011300078D6E4FB6DC3D9356CB92AC67471C40C7A
:10114000657CA3F96E2DB986B0046394CF267D9E8D
:101150001EF799DAE08CDD86F3C8F1C64E155DED19
:1011600034BB90CDD626091EF6238451C1AE428FE2
:101170008496C957AE16363A298765B2BA5696D2C2
:10118000F509EF304A0F6236FE0030BD091B50C32F
:101190003C48D725E18EB26F4D752DADC61EBAFA0B
:1011A0004F41AF7A6FA0A04FB68834698A9E837A88
:1011B00060F3A87E392A209C325E7DC4AA97E62679
:1011C0003542A1A0EF39B31C2763D27F75C01EB48E
:1011D000FA4D7A818139E0792F94A5283A437E9798
:1011E000B594AF2A10380A7F4991C06C659AC6C978
:1011F0005DD552469874AC93E421B0EB08FAF44103
:101200002EA6F9C5EDE33798C5DF528241A2F2560A
:101210001AF3A4C6408DB95FAA751E151E68782BF7
:101220002BF43EC7CBF31360E0F48579880C22756C
:1012300087B751E0D6E3A092D3D7E36C5B3EB7808B
:10124000E748D6D92F49CC75A004C94888E9CC32E3
:1012500041AF30DEC6BC9DF7FCFF69035058A1D6F4
:10126000B87B5E60FCCC0014AF3A3041B34E6347AC
:1012700095E4BD5374D0F002B4FE48196C3F23F7D7
:101280009B4411F2C245A637776C10630E1BA7D1A1
:1012900096CA0D4F5B4351D614B723E799A49F4CD0
:1012A0007DD7DD0811844D5CE96090048B1490F0CB
:1012B0006F26450F208CE36F4678EB12B45EF0DEAC
:1012C000EB222762784293BCE848C088BD0FDE233A
:1012D0002BD1880AE2B4338E6136435842AE6BD7C5
:1012E000F2FE0AC126947ACE8C3B435A62EF708A92
:1012F000FE4DD237DBA1B1061B30174CA0241EBE19
:10130000CB64E2CE135CD705A6763938F3852C166C
:101310000EB3E23DFF79880B93EFAD55CDB4EF8F5F
:10132000B8167A05C05E920F4F9858D422AD432567
:10133000317852C69ACA5EA64E79979ABBDF6DF194
:10134000E2D0B3CA2A5C46825C1EDDD0C519892B67
:101350002CBDC084D9333967E4E47926B69D1C1DC1
:10136000E470A5A76189254A57337D0DCAF3CC22C5
:10137000AAD7D9CBE6B29646159568D80FDF6B365B
:10138000DA198216CE384ECFF236C8800753880459
:101390002FB214195DC56CEF959C608B6AE4FC9DBF
:1013A000B29CED1D9C1BCAA326DD9C635B3B882B76
:1013B000BA2235240148EEA04F6E964E2991AAAF6D
:1013C0005647BD7BDDA15599D8B5A147937BCD7B11
:1013D000CF65DE5018F20549F199D894213F7D522E
:1013E000C6B1B4E19FF07E60648B30E4AD2C97FB16
:1013F00047F70901047BF4F7A7A804A57F085879EB
:101400006D26276AD0D9AFC1C71223E1AE98A40FC9
:10141000BC1BFA9D910B1515A524531A13E0C300AC
:1014200095389C364CCFF6A9BCC1530604F46FBF67
:1014300057E0A614A649707F392A4A5A593633B95B
:101440000D4725393704777C45AC19932549E07A57
:101450007BA2C695768D3C79B1A7C38363032347EE
:10146000D7ACFB84166F22490B97AAD538575E2B51
:10147000BBA749EDD2D57A96BE8DF5F94656F52F24
:10148000A7A87AFF3FE7E88CF148E846CB4D25F95D
:1014900035932FCE8BB8A9C5D3D22771866F72D959
:1014A000CA4E90D36DB13CD3CBC9303A26459D6628
:1014B000445C5FD8E3907C1BD882DDD384D4C61B08
:1014C00058BF02A53B100A3EE309940B99882B47AD
:1014D000A79089C4482536DB7231ACF5A30115D03D
:1014E000E62161EB5972DC9498F7B0F9FAC10A7EF3
:1014F000DC69CE905E82110B97E29955A23DFAEB22
:1015000088BC4DC2548D5FDEA3E248132046C5A0BF
:101510008104C42B9A8415B89E9B62A1EC7D083C83
:10152000AD214B89FCC6967C3A41358A13BD1B43DD
:10153000BF367A4ECE709E2AF63933C7334B347D90
:101540002A81FA252EC5C4A1280ED54D15E06912B1
:101550007119AAFF5948815653C935124D846991B2
:1015600036D8ADF754D58CF9C684126222F1B92B66
:101570001DA57C567A4D5AC4F09D8F5DB59A7FE7C4
:10158000B7A85D6D37E4F2EA7A73F8FC6717F3D910
:1015900060090E8B0FE2F98361DF5369D0EE42518F
:1015A000B5514864F8DD3EEEA747F07C4BBB2B8E6F
:1015B000E28B6057634B9BAA6763EAA3D57C4341E8
:1015C000A95474D286C3114269C5093E8F94AFC530
:1015D00099BBBBAC61646101F2D359B14150911622
:1015E0006CCC9BEC5CFE3BB3EC6ED7F10E5A8A5F81
:1015F0001DB0C576542607BC66F0ED519A1FE8F77A
:1016000051588E1E80991FEED643CCFA2FAE80F231
:10161000A8A8AE437C8076D41AD4737461DFBF2946
:101620006F561593075892F11DE87B68B25420302D
:10163000012DC5D8FD6150140F584C1A5400127E6C
:1016400046990C9DD1A304F18217FEFC12E5758129
:10165000AFFF3D08D539874A8EF07AD4D0D6CFA9CE
:10166000D6594841C268E3A435458D141AC444894B
:101670002C63C8AF7BAC354327BE7ECF56403DA51B
:10168000AC0F97CCD46ED031D7146045AEDF0AAA28
:1016900033B388E01C26DC00B875C86711A1B58794
:1016A00071F94A6AEC3F0E4121C24F928F1753EEF7
:1016B000D5EA4F917502590294E4DA4AB3AAA72EEB
:1016C0009CC780465EBD06331DD85D9F5F77730A59
:1016D0007D386BA70E8F4E7D01DA4474D2F17A2FDC
:1016E0007FE1ECF1A57D033B2F17B6E80D333C21DC
:1016F00091915B302C11C6586AE4351BB5A847B3ED
:10170000FFD0960E484E9737601204FFCBA5F51D0B
:10171000409CDF36123DD92A72DAE88BE45BCFE9D0
:101720003852EC2CA0F779AD2070592062739CE3FD
:101730004609C912D47755074B6A261E5D077810F3
:101740004E4ADA5EF63B9B8DFD48D0BBAA212EF5B2
:10175000DF854CA71D1A261BA082867F4B02D2F67E
:1017600060C9860C1DBF736986184B44BC74E58242
:101770001793B50A5608B74A73B804D214215E2CE1
:10178000A0E0C2015FDECE642AD8652BF074E3547A
:10179000BFA09B50BA02002C95CE2A4FCF2B2B0E08
:1017A0009BDD8F675B54A1472E842E24FA34E05AC8
:1017B000103BCFAFE2ED28D1176B9A1B496CFCCBE5
:1017C0007A74092A415AFFA1F598C60CD26983D2CE
:1017D000C369875E7EBBFCC0D1C117D79BE1537044
:1017E000B743D038252649405B57BA4932AA9F39BA
:1017F000AA8E73008513796DF1912F9EA3A0657C4D
:101800007D53B47053016B925F38F1D73D7AD607A0
:10181000727ADBA165A50741004BEBC5D03BEB30ED
:1018200061420D4BA3D8078B12F5893D7CFB2E79C5
:10183000A7BCD5BF729AD81539AD2570D16CB05DF3
:10184000BBF43AF66056FAF2A528AE0D76B379F1FC
:101850004BC72E6EB6616222D9A730234521DE47E1
:101860008CEBE54C8B4E79A09D95B305AAAFECE6C9
:101870007473F0DC37AD933B206DA1D8CFF97E9E19
:10188000C6BB406456A6187528D2BA78645C484531
:1018900070358C499A454A6DF29C8D480A612EE359
:1018A000D4EEA829404B53BB5639CE816CFD37A0EE
:1018B000791CC794176C37EA97F4D8D49F9F304FA0
:1018C000E5A408B86BAEB9BC4F612044DF92DB1EC3
:1018D0000483C0A12C09D8DF21F0200480AF7391CC
:1018E000BC0EBAE4F79B363C30F1B4BADCFA65F2D0
:1018F0002B1D184E1662D4AC8B21A5A2F132C3C9A0
:1019000065632D316BB88FE12493870499E6BDBAE6
:10191000283063DAACC799378A8666B344D584AA7F
:10192000A15342A0381E5DF70529E7CA2A0B6AAB0E
:10193000CEF03AF390E6D125A1331C33997D24D122
:101940007423FC6F7DDBA7E9C2DE17122D1CB37E6A
:10195000880308757D9A4937AF60047CBCD31C535B
:10196000703497EBE1CD3079A28694585A99C269C8
:10197000D7B232626C0A3669B1354841CE79967A6F
:101980000D2D33BF4D2FB8D8B3FBE47193B9180DAB
:1019900051ABBB09D90DD7671E4728C7F7CE605892
:1019A00028235E95FC2BDBF90D1FAB49E6D0A7374A
:1019B0007920E4CF05E36421ACDFB1E8F9E04C3BEA
:1019C0005E89682A48C5640EDBF1538B1A2FF60C2A
:1019D000189C529B212E4AE7D6BBB71A0A22AB4A63
:1019E000FDD3027D21FFB90E0F29ABACF4445E0F8D
:1019F000D5F357E54F61724EBA55378F9A1CD4B85C
:101A000030AF0A951A1386D40A835C991B2BC093B6
:101A1000F513F5EAFB6F75746C2E77C344C5386215
:101A2000B9F5AC58B4966EA4A545B51B7C9D21951F
:101A300016EE29572012BBF80A2325AC51FD7AE097
:101A40009D43B0276F2ADF0408D3F11D3C128DAFF0
:101A5000F2D7B9029D46E3ABFF61C8612B19C8C13B
:101A6000A16D0AA744FAB5A8D71E53156F7A48414D
:101A7000E930B5ADE2F070406AF331DD1950E5BCF4
:101A8000B43D839FDFC8252790405B32044781FA2D
:101A900053B40A40157A745BDB24AB3AB791E34444
:101AA000B747073990D2F5A9084658DC3210A3474A
:101AB000320445441371AC2EA7C971D0F9517ECAC6
:101AC000E509A81E775B3A08AA431CD68D609146AB
:101AD0006D64569E162ECEB399C8F655271384BC56
:101AE0008AB3C8F51A72F76A0C46952F4A86B6D2A1
:101AF0009894F1C3370E0C8711567EAFDA22296F06
:101B0000EBFAEC96E0276B42A170091AAD4888DA2F
:101B1000FCE13B62952856702803B258678D0AEAAB
:101B20009A1595515F83070920BF37AFF70A743CB8
:101B3000A552F1E3F55830E117DE98F1387BF0AFAC
:101B4000BD165952996C7470487714FF534184BC88
:101B5000C5372F71843DF5467C63E000A05607F73A
:101B60008C6357BE545CE1FDAC35FAC2D5F25ABE67
:101B70007C318EBDDBFE4D036F5EA61F232DCA6830
:101B8000F0C614CCC33EF021D4402A72B67EE28562
:101B9000D68AFB48512777E4CBCD2FF6E1BCFEED8A
:101BA000A1145FE532FCCFD9FB2FE9AD7D2D68E7AD
:101BB0009A15956A4AE4ABE4EBE00D40BDEF8FB9AE
:101BC00075B439086DC09F04FFCCDE13304EB6E407
:101BD000E0CB69E5C61C2F436A632572D5DFBDDC07
:101BE0000BE9089D3D266FC389F818AC42BF4E9D96
:101BF0005D28B0264136768D8684FAD8D467581988
:101C000069202D35FE09D98CFDF921A157DF17AECA
:101C10008ECBC97F2654DE104372DDBC18B934F96F
:101C2000AB70F9744D8E6D2A331406D071E6ADAAEF
:101C3000BE862E9A8D8788AF039FCBF8789A663838
:101C400009CDAE89C2CCAF6A16140948AE9B55E4E3
:101C50000FA586A1757F7CEF0DCB3AB30D1F020C4B
:101C6000801FB4F4E0A641CC8700406143E7FCB498
:101C70000124CA4534253C39FF098C39855A5BCC8F
:101C8000273CBD28438645179A4E3524A423A2FD40
:101C9000CA6CD4FBBAE741B3FB7C5507B56E3EB1C5
:101CA0002972CC38EA273080B98CB8EE54AB3EDBD1
:101CB000DD06D095EA3E42886BAE89C7E84C38B65F
:101CC00093F6BE4C204A8CCE2B22D272494618562F
:101CD0008070675AFAC0CA6D5321CAE3866891D3EF
:101CE0007CA9D5AD6A72A1FE53E94085EA62A96379
:101CF000753A2DEC9BFE58D873205210435C2DB4DE
:101D000021B9961F726DBA42EAF285BE5212A7B18E
:101D10003E2B89EF0F73057C99C3C55F9653F8AFCF
:101D20009B7A49A044546055F0103A608D905065FC
:101D3000AEF779DB2E08F9BBF2D278D086B594A144
:101D40000EB98189B7F9C043E88F3819DAED2FA7AA
:101D50005CDB01B338CEE6C3F2D5AA879E116FD8FB
:101D600005F072ABD9A10FFF46E94A8C0093E986D2
:101D70006F6B1470BEB1B889C9CC7D1A11D279FBD2
:101D8000D9D72413948F019C4B69336601829888BC
:101D9000F84C13310F58C1061130B48991349B8926
:101DA000FC75CD11CA1A6FFA71D645E70FEB3909E8
:101DB000B35A131FAA3A93CF8D6ECAEC2C8EC583EB
:101DC0001B5AD6D189AC024FCB0F257696E05D2CFD
:101DD000FFA7EAEA92F1725BEE08D8848AA959E378
:101DE0001277DAD6CA4E362D7CA413D1E818319971
:101DF00002540AD07A74A0AD2C834A6FF1B1501B03
:101E00006469E8842F2CC8EB953DA518C74B82FC6C
:101E100088E1D37B0EBE10BA6502859B469A377A5D
:101E2000774DC2C45330679154F63D394443421351
:101E30002E0929FD50A6DA94CE8697102B5C1C093A
:101E4000CD0FFC15DC543B53E17CA7E1FD47C2AF4D
:101E50007EEA340C6FE65C04306C84C751E3B55FF6
:101E6000349EDD050C1CD4BCFBCD3AAEBC52925462
:101E7000852CED0FFBF873105DD81F06E0A15926E5
:101E8000B4393FC119F9D4BE4FF433EC3F3FFE8F54
:101E900091D044F21278909E79A927EE05CB9F5AF3
:101EA0004B15DE6739181FE73A0A4198E7DEA72885
:101EB000A0D354663379B53A83375F25407047B86D
:101EC000796B62963F48EA9F6ECB35E16F2DC4C2B5
:101ED0004B9BA74D05790E1CFE095A9F87227A134A
:101EE0001B9F994D05DB1573D865FE395EA4437BB6
:101EF0006C79BD73914C9B4C941887EA68A7449FFA
:101F00005C3666FD41145EB18EEB45DA770EE0EC8F
:101F10005EF40DBF41C648F015D860F74076237BCC
:101F20001CE559445030CE064EC5A670C31817A202
:101F300037ACBF2C6FBC9B3F58121110390018DB17
:101F40007D0BD22CEE0AAF76947AC15C21D2619FD0
:101F50001D7A9695DFA45181E61BD57C3644F0604E
:101F6000FF3AF632EC8FE09AC7E3BCADEBA6947172
:101F70004B6D38974C36A275FFFB3FEB60E131B1FA
:101F8000BC32776CBD49934BC207BAF067FD68CA93
:101F9000F5A4FF2A5EE2BEB569B2A063931BB4BD8F
:101FA0004612FAEE885F46DFB2BAE8BA5447EA183A
:101FB000FA0891779B1C878B01709EC0052BAAD7CE
:101FC000AF30A8018B28A0F59599325F08C4EF6562
:101FD000453CC36DEFB8349D1C046686F2BC9D87FA
:101FE00097BE08DD58DD530F7DEC930BB95BE3081A
:101FF0007615DFC7682FA8F84D338FAE0884C3E885
:10200000CB9C718009D7116321040EC6F0509E0A43
:10201000A799149A5AF9AA5F06DF5C52374B390C1C
:102020007E18C1ABD636F578BD9F790EF233610EBE
:10203000C30B5A24023F42353DA4ADC5305076E76C
:10204000E34508661821EBDD1476F8F155E83B9D71
:102050008B9392FFA7803438C2AD7CFFBD232B0B3E
:102060002C5FEAC09500FB8C376B8A42913EEFD61D
:102070005143216F803EBDF2B32407A5924A7651A9
:102080003172354725E7B9D0F4C2DD52353A23C461
:1020900016FA2A8D99D0B953C2125C3FCE8DDBD18E
:1020A000C8D159E588FF4911ABAB7BD1F2B43749B0
:1020B000A0B1FEFE6C08761D0B9AF4B16DA0F22063
:1020C000E417A74D85B38E7ACB8730AF119020A847
:1020D00019EA2207FAC14CE8FCA2038F2AC536E4AC
:1020E000AF669BBA0ADD6590DAD72762D9193BAB98
:1020F000F666892DA53070E9AAE2D9C12347FD9A79
:10210000254A5F896297614B91FC341BFC97B27B37
:1021100087F454FCD63648C28779A3C48F42B131C4
:1021200047DDE8D00A714722F3F49F287A700CBC8F
:102130005930E0E4132465BD4C0E6D9E4D15901989
:1021400072C928B6950E92F9795C64B9B97BD7DC6F
:10215000B4B9B4967F7255AE1EB0028E45BDF0A5DF
:1021600090B7301240B6409CF16263726DF0BA1ABB
:10217000F6F0406A47A2FC9BD870191AF524F64D78
:102180002F64FDF7C3FDA7455D94318FD69F5D2178
:102190006641D43951AF618C1E9F0611E97A8831AE
:1021A000E126B61C7406F59835171AAB193A8CC699
:1021B0000E7E14D06E441C666167F18E287230D298
:1021C000BF7D6F08179962EE7818543AD57F61ACDD
:1021D00010833E2C924F5A985997FB8297ADC87343
:1021E000A26C0D06CF0A69DAEB9EF7677FDEE88303
:1021F0000B465A3F02B3607FDCA3FF148ECFA2656B
:1022000072CE3E11392D9494478EC78C706B7C49E9
:102210008E3CD74C02C877A5FDBA9A0A1A1BD94A38
:102220008303DFE2756E28D9631F021827278F4BBF
:10223000E7000000A9020000000000442A3C5422EC
:10224000082A1C2A0808083E080808080808080088
:102250006060000040201008043E4141413E0042C1
:102260007F400042615149462141454B31181412CB
:102270007F1027454545393C4A49493001710905D8
:10228000033649494936064949291E0036360000B9
:1022900041221408007C1211127C7F494949363EC4
:1022A000414141227F4141221C7F494941417F09EF
:1022B0000901013E415949327F0808087F00417FEA
:1022C00041002040413F017F081422417F404040AF
:1022D000407F020C027F7F0408107F3E4141413E57
:1022E0007F090909063E4151215E7F0919294626C9
:1022F0004949493201017F01013F4040403F1F20D1
:1023000040201F3F4038403F6314081463070870A3
:102310000807615149454300007F00007F102844B1
:10232000007C041804784464544C4400FFFFFFFF11
:1023300001FFFFFFFF0203FF0405060708090A0B60
:102340000C0D0E0F1011FFFFFF12FFFF13141516D7
:102350001718191A1B1C1D1E1F2021222324252695
:102360002728292A2B2CFFFFFFFFFFFFFFFFFFFF7E
:10237000FFFFFFFFFFFF2EFF2FFFFFFFFFFFFFFF0E
:10238000FFFFFFFFFF30FF2DFFFF01000C010C01DD
:102390000F000C100F00011E0C0100100F000001B7
:1023A0000F00010F0C01011E02013F065B4F666D1D
:1023B0007D077F6F8000C73111241FBECFEFD8E0AB
:1023C000DEBFCDBF14E0A0E0B1E0E8EFF2E702C06D
:1023D00005900D92AC35B107D9F726E0ACE5B4E035
:1023E00001C01D92A93CB207E1F711E1CCEDD1E1AA
:1023F00004C02197FE010E946D39CB3DD107C9F77A
:102400000E9448320C947A390C9400008093BB00EF
:1024100084E88093BC008091BC0087FFFCCF809152
:10242000B900887F803231F481E080930A0481E032
:1024300090E008958033D9F781E080930B04F7CFC3
:10244000E5CF089594EA9093BC009091BC0097FF6B
:10245000FCCF90E0880F991FF3CF08958091090475
:10246000815080930904882351F084EC8093BC0050
:102470008091BC0087FFFCCF8091BB00089584E869
:102480008093BC008091BC0087FFFCCF80910C043E
:10249000882321F084E98093BC00EECF84EA809306
:1024A000BC008091BC0087FFFCCFE6CFCF93C62F46
:1024B00021E020930C046093090424EA2093BC00DB
:1024C0002091BC0027FFFCCF880F991F8E7F917051
:1024D0008160B6DF8C2FCF910895B0E0A0E0E3E7F4
:1024E000F2E10C943E39EC01241708F020E031E0D1
:1024F000211101C030E0340FFE01E30FF11D108205
:10250000F0E0E0E0842F821B990B5C011EE28AE080
:10251000C82ED12CE417B8F4222341F0AE16BF0622
:1025200029F43150DE01A30FB11D1C9331507E01FF
:10253000E30EF11CCB01B6010E94B638805DD701D5
:102540008C933196E7CF211101C0242F80E02150D8
:10255000330BE82FF0E0E217F30744F4EC0FFD1F14
:102560009081903319F400838F5FF3CFCDB7DEB73E
:10257000EAE00C945A39E62FF0E093E0F595E79500
:102580009A95E1F724E0829FC0011124E80FF91F1A
:10259000E255FA4F677021E030E001C0220F6A95E2
:1025A000EAF78081822B808308958091A7054ADF16
:1025B00080E42CCF08958091A70544DF80E026CFEA
:1025C0000895CF93DF9390E0FC01EC5EFA4F2491E5
:1025D00080509B4FFC0184918823C1F090E0880FCC
:1025E000991FFC01EA50FB4FC591D491FC01E451C5
:1025F000FB4FA591B4919FB7F8943881822F8095B5
:1026000083238883EC91E22BEC939FBFDF91CF91E2
:10261000089582E1D6DF83E1D4DF88E48093B800B7
:102620001092B900089590E0FC01E852FB4F24910C
:10263000FC01EC5EFA4F3491FC01E050FB4FE49159
:10264000EE23C9F0222339F0233001F1A8F4213020
:1026500019F1223029F1F0E0EE0FFF1FE451FB4F9A
:10266000A591B4918FB7F894EC91611126C0309583
:102670003E233C938FBF08952730A9F02830C9F03E
:10268000243049F7809180008F7D03C080918000C5
:102690008F7780938000DFCF84B58F7784BDDBCFC9
:1026A00084B58F7DFBCF8091B0008F778093B00091
:1026B000D2CF8091B0008F7DF9CF3E2BDACF3FB7DC
:1026C000F8948091A3059091A405A091A505B091DF
:1026D000A60526B5A89B05C02F3F19F00196A11DA0
:1026E000B11D3FBFBA2FA92F982F8827BC01CD015C
:1026F000620F711D811D911D42E0660F771F881FBB
:10270000991F4A95D1F708958F929F92AF92BF92E9
:10271000CF92DF92EF92FF926B017C01D0DF4B01F1
:102720005C01C114D104E104F104B1F0C8DF6819FF
:1027300079098A099B09683E73408105910588F3F0
:1027400021E0C21AD108E108F10888EE880E83E082
:10275000981EA11CB11CE5CFFF90EF90DF90CF90A9
:10276000BF90AF909F908F9008952FB7F89460918D
:102770009F057091A0058091A1059091A2052FBFA2
:1027800008950F931F93CF93DF930BEA14E0EC01AE
:10279000C457DF4FC8010197F1F761E070E088810D
:1027A000998184DE5BDE87FFF5CFDF91CF911F91AA
:1027B0000F9108950F931F93CF93DF93EC018B013B
:1027C000D4DF607F7370E881F9819F012F70332718
:1027D000AF01407F5370AA81BB818C919C8189237A
:1027E0006417750708F47C5FDB01A41BB50B23306D
:1027F0003105D1F168F42130310589F190F0882359
:1028000009F45AC0A034B10550F030E020E007C010
:1028100025303105D1F190F126303105E9F180E024
:1028200005C08111FCCFAB0121E030E0EE27FC7F39
:10283000E22BF32B407F53704E2B5F2B5983488341
:102840008823E1F10115110529F0652F669566953C
:10285000F8010995DF91CF911F910F910895811192
:10286000D4CF23E030E0E2CF81111CC0A034B140CE
:10287000B0F2AB0124E030E083E0D8CF811116C084
:10288000D09768F2AB0187E0D1CF882391F0AB01FC
:1028900022E030E08BE0CACF882319F322E030E059
:1028A00081E0C4CFAB0126E030E0B9CF25E030E0D5
:1028B000B6CF24E030E0B3CFAB01B1CF2330310548
:1028C00048F288E0C7CF809161008F7020E939E538
:1028D00042E050E0813089F028EC3CE241E050E0F9
:1028E000823058F028EB38E840E050E004C0220F76
:1028F000331F441F551F8A95D2F760E074E284EFBE
:1029000090E00E94DD382051310941095109569566
:102910004795379527952093B80008959FB7F89469
:10292000E1E6F0E020E8208380839FBFCCCF0895CC
:10293000E3EBF4E0108213828AE086831182148232
:10294000878312821582808708950FDF60935D056B
:1029500070935E0580935F059093600528EE33E0E9
:1029600040E050E00E94DD3830936205209361051D
:102970000895FC014FB7F8948081918120813181C5
:10298000281B390B318320834FBF08959FB7F894DC
:10299000309903C081E08093B0048091B0049FBF60
:1029A0000895E091B60382E1E802F0011124E25DAE
:1029B000FE4F81859285909331058093300508956F
:1029C0008091300590913105E091B60322E1E20259
:1029D000F0011124E25DFE4F2481358182179307B7
:1029E00038F0268137812817390710F092878187C0
:1029F0000895833041F4643028F0663020F06A5046
:102A0000623008F081E0089564E6873822E092079A
:102A1000B8F460E08C3E21E0920790F0893622E025
:102A2000920780F042E1489F9001499F300D1124A8
:102A3000C90180559B426FE170E00E94B6386E5A22
:102A4000862F0895823422E0920778F043E2489F6F
:102A50009001499F300D1124C901835E9E4467E2B5
:102A600070E00E94B638615DEBCF833122E09207BF
:102A700078F048E2489F9001499F300D1124C90128
:102A8000805D92456FE270E00E94B638695FD8CFF2
:102A900047E0489F9001499F300D1124C9018D5690
:102AA0009D4067E270E00E94B638CACF8E508770B2
:102AB000806480937C0087E880937A0080917A001C
:102AC000806480937A0080917A0086FDFCCF8091AB
:102AD0007800909179000895FC018081280F2617D5
:102AE00014F440830895421714F0208308956083FE
:102AF0000895282F44E060E08AE495E0EDCF089542
:102B0000CF93DF93EC01462FE091B60382E1E80218
:102B1000F0011124E25DFE4FE485E95FF0E0EE0F85
:102B2000FF1FE45FFE4F8081918168EE73E00E9499
:102B3000CA38FB01309779F028813981C9010E9498
:102B4000B638009741F0442311F02E0F3F1F281B89
:102B5000390B39832883DF91CF91089506DE28EE63
:102B600033E040E050E00E94DD383093620520936E
:102B7000610581E080936305089580912D01823085
:102B800069F0833019F0813039F40895809109019A
:102B9000823021F081E0089580E0089582E0089578
:102BA00080912D01882329F090912D0181E09430AE
:102BB00008F080E008958436910520F40A9758F4CF
:102BC00081E00895803127E2920738F4883E9340EF
:102BD00030F483E0089582E0089585E0089584E06C
:102BE000089590912D0181E0943009F080E00895DE
:102BF000D7CF089590912D0181E0943009F480E0C1
:102C0000089581E008959AE0899FF0011124E2542B
:102C1000FC4F85919491009719F0FC010995089556
:102C200081E00895E82FF0E0EB5CFA4F908181E0BD
:102C3000891B8083089583E1F5CF089586E1F2CF63
:102C4000089588E1EFCF08958AE1ECCF08958BE1F4
:102C5000E9CF089589E1E6DF80914E055FCE0895C2
:102C600084E1E0CF0895249A6AE070E080E090E08B
:102C70004BDD2C986AE070E080E090E045DD2C9A16
:102C80006AE070E080E090E03FCD089584E98093B1
:102C9000BC0080910A04882331F010920A0410923B
:102CA0000B0482E0089580910B04882321F0109298
:102CB0000B0483E0089580E0089586EE95E061DDE1
:102CC00080917206BFDB82E190E0BADB90E080E0A9
:102CD000B7DB81E09BDB81E099DB8091C20696DB6C
:102CE0008091C10693DBD2DF83E998E00197F1F789
:102CF000089587E097DF54DF882349F08091C2066A
:102D000090913C0590FB85F98093C206D6CF08953B
:102D1000E091B60382E1E802F0011124E25DFE4F8A
:102D2000E7850E2E000CFF0B90913E058091C106A9
:102D3000992329F020912D019150233051F4E25B29
:102D4000FB4F2081222321F0245091E0223008F40F
:102D500090E09295907F8F70892B8093C106ADCFC4
:102D60000895282F42E060E08EE395E0B5DE18DF9D
:102D70008111CECF0895CF93DF93D82FC92F86EE40
:102D800095E0FFDCD0939106C0939206C093940621
:102D9000D09395069091C706992361F08091930690
:102DA0009295990F990F907C8370892B81608D7F0C
:102DB000809393068091720645DB80917E0626DB28
:102DC0008091930623DB8091940620DB8091950609
:102DD0001DDB809196061ADB80917E06803419F403
:102DE0008091970613DB52DF86EE95E0CADCD09324
:102DF0008306C0938406609174067091750690E016
:102E000080E082DCDF91CF910895FF920F931F93B2
:102E1000CF93DF93D82F80917E0608E010E0C3E2C5
:102E2000803241F006E010E0C3E4803519F408E098
:102E300010E0C3E586EE95E0A4DC8091720602DB2B
:102E40008C2FE4DA8D2FE2DA21DF86EE95E099DC33
:102E5000B801809172069091730628DBF12CCF2D7A
:102E6000D0E0C017D10734F4F9DAC856D94F8883B7
:102E7000F394F5CFCDB7DEB7E5E00C945F39CF938F
:102E8000C82FCF7086EE95E07CDC80917206DADA8E
:102E900082E190E0D5DA90E080E0D2DA81E3B6DA40
:102EA00082E0B4DA81E0B2DA8C2FB0DAEFDE86EEBF
:102EB00095E067DCCF9108958091C80687FD06C034
:102EC00061E0B1DB8BEA94E00197F1F786EE95E0E3
:102ED00058DC80917206B6DA81E190E0B1DAD6DE94
:102EE0008BE097E20197F1F70895FF920F931F93FC
:102EF000CF93DF93C82FD62FF42E890180917206CD
:102F0000A1DA8C2F83DAC1E0DC1748F5CF1538F54C
:102F1000D801ED91FC911197CF0101968D939C936F
:102F2000E85DFA4FE4918E2F90E08ADACF5FC830E7
:102F300059F7ACDE86EE95E024DC61E070E080912C
:102F4000720690917306B2DA89DA86FB882780F9D7
:102F500091E08927CDB7DEB7E5E00C945F3990E0CA
:102F600080E0E3CFEF92FF920F931F93CF93DF9315
:102F7000EC01F62EE72E142F052F03DCC457DF4F8C
:102F8000888160DA82E190E05BDA90E080E058DAF4
:102F90008E2D3CDA8F2D3ADA802F38DA812F36DA0F
:102FA00075DE83E998E00197F1F7CDB7DEB7E6E08B
:102FB0000C945E391F93CF93DF93EC01162F462FAD
:102FC00050E060E070E4CEDFC152DF4F1883DF9144
:102FD000CF911F91089580912D0160910A01843055
:102FE00071F470E080915105681B710987FD73953C
:102FF00077FD09C06034710514F06FE370E086EE70
:1030000095E0D8CF089560E0FACF282F4FE060E038
:1030100081E595E061DD80912D01843009F4DBCFFD
:103020000895282F4FE060E085E495E055DD80911C
:103030002D01843051F440914505042E000C550BB0
:1030400063E073E186EE95E08DCF0895282F4FE180
:1030500060E084E495E040DD80912D01843051F4FE
:1030600040914405042E000C550B62E073E186EE9E
:1030700095E078CF0895282F4CE360E087E395E052
:103080002BDD8091370581110DC080913405882397
:1030900049F050E040E061E070E486EE95E062DFE8
:1030A0001092340508958CE0BDDD80912D018430AF
:1030B00049F4409141054F5F50E060E071E186EED8
:1030C00095E050CF089590912D01943029F1282F4B
:1030D0004AE060E086E395E0FFDC4FDDE0913605F5
:1030E000A82FB0E0AD54BB4F1696EC93F0E0E55B33
:1030F000FC4FE49184EF8E0F8F3470F4E0938806D8
:1031000084E591E0E89FA001E99F500D112463E060
:1031100071E386EE95E026CF0895282F4FE360E017
:1031200089E395E0D9DC80917E06803241F04091C0
:10313000390550E063E073E386EE95E013CF089520
:10314000282F40E260E088E395E0C6DC16DD409180
:103150003805E82FF0E0ED54FB4F438380912D01BB
:10316000843031F050E062E073E386EE95E0FACE11
:103170000895E82FF0E0ED54FB4F438150E062E00A
:1031800073E386EE95E0EEDE4091390550E063E0B2
:1031900073E386EE95E0E6CE0895FF920F931F93BA
:1031A000CF93DF93F0904305CBECD2E003EE12E037
:1031B000FE0165917491FE01329645915491F11092
:1031C00002C0452F5527552786EE95E0CBDE249685
:1031D0000C171D0769F7CDB7DEB7E5E00C945F3932
:1031E0008EE020DD80912D01843009F4D6CF089542
:1031F000B0E0A0E0EEEFF8E10C944039AC01EB0157
:103200002091300530913105A8EEB3E00E942139BC
:103210006B017C01CA019695879597018601080F7D
:10322000191F211D311DC901B8019A0150E040E06C
:103230000E94DD38A90164E071E386EE95E092DE3C
:10324000CE0196958795A7019601280F391F411D3C
:10325000511DCA01B9019E0150E040E00E94DD38D5
:10326000A90165E071E386EE95E07CDECDB7DEB7BF
:10327000E8E00C945C39CF93DF93EC01FE0165919B
:1032800074916115710549F0FE0132964591549192
:1032900086EE95E067DE2496F1CFDF91CF91089519
:1032A00085E0C0DC80912D01843039F080913A05B1
:1032B000811104C086E593E0DECF08958EE593E0AA
:1032C000FBCF83EE92E0D7DF40914405042E000C43
:1032D000550B62E073E186EE95E044DE40914505D2
:1032E000042E000C550B63E073E186EE95E03ADEA8
:1032F00083E293E0C0DF80914205811104C087EF33
:1033000092E0B9CF089583E093E0FBCF8DE08ADCB3
:1033100080912D01843009F4D4CF089580912D013E
:10332000811114C0E091B60382E1E802F00111249A
:10333000E25DFE4F8085823031F480914605823017
:1033400031F0833051F083E592E095CF089560EB42
:1033500074E080E496E04CCF08956CED75E080ED6C
:1033600097E0F9CF282F43E060E086E495E0B4DBF6
:10337000D5CF0895B0E0A0E0E0ECF9E10C943D3940
:10338000EC01D62E142FFC01E856FF4F80818032CD
:1033900061F098E0E92EF12C02E4803451F026E04F
:1033A000E22EF12C02E5803521F088E0E82EF12CA8
:1033B00002E2CE01E6D980E0D0FA80F910FB81F973
:1033C000182F13706E018CE8C80ED11CF601808195
:1033D00039D8802F1BD8812F19D858DC5E01FAEB21
:1033E000AF0EB11CCE01CDD9B701F601808191811C
:1033F0005DD8912C092D10E00E151F054CF42ED828
:103400000C0F1D1FF801E654FF4F80839394F2CFF9
:10341000F501808186FDE6CFCE01B3D9CDB7DEB709
:10342000EBE00C945939B0E0A0E0E9E1FAE10C944A
:103430003F39EC01A6D9FE01E457FF4F808102D845
:1034400081E090E00E942012FE01E352FF4F808154
:103450000E940612FE01E252FF4F80810E94061276
:1034600015DCCE018ED9FE01E057FF4F60817181DE
:1034700090E080E049D9FE01EE51FF4F808187FD49
:1034800006C060E0D0D88BEA94E00197F1F7FE0126
:10349000ED55FF4F8081811123C08E010A551F4FCA
:1034A000F801E080F180A70161E072E0CE015ADD11
:1034B000F801F182E0820C5F1F4FF801B0807E01BD
:1034C000F8EAEF0EF11CF701C080D180A60162E09E
:1034D00072E0CE0147DDF701D182C082F801B082EF
:1034E000CDB7DEB7E9E00C945B391F93CF93DF9340
:1034F000EC01122F9093800680937F0670938206D2
:103500006093810681E090E0909386068093850623
:103510004C175D0720F06417750708F0EA019091D9
:10352000C606209189068091C30630918A0630FB39
:1035300087F98F7920FB84F9807F81608093C306AF
:103540009093C40680E480937E0680919306807CED
:103550008160809393061092960681E0809397068F
:1035600086EE95E060DF6091C50686EE95E022DD8F
:103570001093C70682E080938706D0938406C09399
:103580008306CE01F8DBDF91CF911F910895CF9391
:10359000DF93EC017BDB1882DF91CF9108950E94CD
:1035A00006128091AD058F5F8093AD05803428F0C1
:1035B0008DEA95E0ECDF0C94D5120895B0E0A0E020
:1035C000E4EEFAE10C944039C82ED42EC62FD0E098
:1035D0007E0183E0F594E7948A95E1F7C20FD11D4F
:1035E000219793E0D595C7959A95E1F70E94DB1254
:1035F00081E2D5DF8C2DD3DF8FEF8D0D8C0DCFDFEA
:1036000082E2CDDF8E2DCBDF8C2FC9DF8DEA95E0F6
:10361000BEDFCE19CF5FCD9DE00111240E94D512EF
:103620007801C00FD11FEC16FD0659F080E001159E
:10363000110511F0F7018081B2DFFFEFEF1AFF0AE9
:10364000F2CF8DEA95E0A3DFCDB7DEB7E8E00C94CA
:103650005C390F931F9310E000E0B0DF1F910F91D2
:103660000895A3E0B0E0E7E3FBE10C9443398983DC
:103670008091A9059091AA058A3791050CF046C062
:1036800089818A830E94D51210E000E09A819052CD
:103690009983EA81E052FF0BE55DFC4DFB83EA83F1
:1036A00085E0F82EF981FF3508F036C0EA81FB810C
:1036B00084918F3F89F1F8018F9DE00DF11D112458
:1036C000EA5CFD4D84919091A8059111809567DF8A
:1036D0008091A9059091AA0501969093AA058093DF
:1036E000A9050F5F1F4F05301105E1F68091A80570
:1036F000819555DF8091A9059091AA050196909337
:10370000AA058093A9058DEA95E041DF81E090E06C
:103710002396E5E00C945F3980E0D5CF0F931F939B
:10372000CF93DF93009769F0EC018C01C8018C1BEB
:103730009D0BF80121918F01222329F0822F91DF27
:10374000F5CF90E080E0DF91CF911F910F91089528
:103750000F931F93CF93DF938C01D0E0C0E0F8016B
:10376000EC0FFD1F8491882319F07BDF2196F7CFA2
:10377000CE01DF91CF911F910F9108954F925F92EB
:103780006F927F92AF92BF92CF92DF92EF92FF92B1
:103790000F931F93CF93DF93CDB7DEB72A970FB662
:1037A000F894DEBF0FBECDBF6B017C01B12C8AE067
:1037B000482E512C612C712C8E010F5F1F4F9AE007
:1037C000A92EC701B601A30192010E94DD38F801BC
:1037D000EB0DF11D80E3C80EA29EC0181124C0821B
:1037E00069017A01B394C114D104E104F10449F7E9
:1037F000EB2CF12C6801CE0CDF1C0C151D0529F0FB
:10380000F60182916F012DDFF8CFC7012A960FB61E
:10381000F894DEBF0FBECDBFDF91CF911F910F9106
:10382000FF90EF90DF90CF90BF90AF907F906F9020
:103830005F904F900895682F70E090E080E09ECFF9
:103840000895EF92FF920F931F93CF93DF937C0124
:103850008B01EA010E94DB1281E2A1DE80E0F7FC2D
:1038600006C0C7018038910514F08FE790E097DE1D
:103870008FE795DE82E293DE80E017FD06C0C80187
:103880000830110514F087E090E089DE80E0D7FD74
:1038900005C0CE01289714F087E090E080DE8DEA25
:1038A00095E075DECDB7DEB7E6E00C945E39E7EA69
:1038B000F5E0938382837583648323E07595679530
:1038C0002A95E1F7AB01BDCF089523E0660F771F7E
:1038D0002A95E1F7ECCF0895FF920F931F93CF93B2
:1038E000DF938A01F22E70E090E0EFDFC7EAD5E0C7
:1038F000F982C8012DDF1982CDB7DEB7E5E00C945F
:103900005F3980912D018330F0F4E091B60381306E
:10391000E8F082E1E802F0011124E25DFE4FE78564
:1039200045E151E0E40FF52FF11D44918091970599
:1039300021E0833009F020E050E0455E5E4F67E013
:1039400088E2CACF0895843059F0089582E1E802F0
:10395000F0011124E25DFE4FE6854EE051E0E2CF3A
:10396000E091B60382E1E802F0011124E25DFE4F2E
:10397000E08949E051E0D6CF1F93CF93DF93909138
:103980002D01933091F1282F8091B603C82F082E76
:10399000000CDD0B30912D01333020F542E1840223
:1039A000C0011124313028F145E060E0835C9E4F76
:1039B00093D882E18C9FF0018D9FF00D1124E25D80
:1039C000FE4FE7850E2E000CFF0BE25BFB4F908154
:1039D0009F708091C106807F892B8093C1066DD92D
:1039E00097D902C0343009F18CDFDF91CF911F915C
:1039F000089546E060E0845C9E4F6ED880917E061C
:103A0000803491F782E18C9FF0018D9FF00D11249D
:103A1000E25DFE4FE6850E2E000CFF0BE95BFB4FCF
:103A20008081873008F72BDADFCF219512E1810200
:103A3000C001112444E060E0825C9E4F4DD81C9F81
:103A4000F0011D9FF00D1124E25DFE4F408950E012
:103A500062E071E186EE95E085DAC6CFCF93809182
:103A60009705C1E0823009F0C0E02C2F42E051E020
:103A700060E082E231DF8091B603082E000C990BE2
:103A800020912D01213030F12430C8F0243011F57F
:103A900022E1289FF001299FF00D1124E25DFE4FE5
:103AA00085858C5FC093A80527E0829FC001112403
:103AB0008E569F4F4DDE1092A805CF91089522E1BA
:103AC000289FF001299FF00D1124E25DFE4F8485AF
:103AD000895FE8CF22E1289FF001299FF00D112492
:103AE000E25DFE4F8385DECF0F931F93CF93DF936D
:103AF000C091B6032C2F0C2E000C330B90912D018E
:103B000042E1C402E0011124913050F1943010F1EF
:103B1000943031F5C55CDE4F05E011E042E0282F1E
:103B200060E0CE010E946C150115110569F08881D5
:103B300090E0880F991F080F191FF801808191816B
:103B4000909386068093850689DFDF91CF911F9140
:103B50000F910895C65CDE4F10E000E048E0DFCF33
:103B6000C75CDE4F92E1929FF001939FF00D11240C
:103B7000E25DFE4F90850CE011E043E0923078F278
:103B800046E0CDCFA3E0B0E0E8ECFDE10C94443991
:103B900080915C05811120C08091B104811120C009
:103BA00060910A0170E000E220E042E0CE0101965F
:103BB0000E946D121091970570E060E082E790E03E
:103BC00084DE81E0113009F080E08093A805CE0109
:103BD0000196A4DD1092A8052396E4E00C946039C8
:103BE00080E289838DE48A831B82E4CF9091B104C3
:103BF000911115C020910A01482F880F550B240FF1
:103C0000352F311D37FD06C02034310514F02FE368
:103C100030E0922F90930A01DED9B4CF089510922C
:103C2000B104FACFCF93C82F8091B104882341F01B
:103C3000C3FD10C0C13011F4663061F481E009C0E9
:103C40008C2F8370833031F4CB3021F08FEF6630CE
:103C5000A9F3CCDF8C2FCF91089580915C05811161
:103C60000CC080919705813041F08091B104882388
:103C700029F01092B104AFD985CF089580910A013F
:103C80008823D9F38093B10460E086EE95E092D961
:103C9000F3CF0F931F93CF939091B204992309F41C
:103CA00075C090914F059130D1F090E1C82F892FC8
:103CB0000E9456151816190614F08BEE91E04091EB
:103CC0000001509101014F3F540759F490930101B5
:103CD000809300010E9404158093020119C09FE0A7
:103CE000E5CF6FE0649F9001659F300D1124820F36
:103CF000931F24E0959587952A95E1F7909301010C
:103D0000809300010E94041590910201891303C061
:103D100010925C0407C090915C049F5F90935C04D8
:103D20009A30D0F60E94B51300915D0410915E04A4
:103D300020915F0430916004601B710B820B930B28
:103D4000613177428105910510F4CC23F9F080911F
:103D50005C05811111C0C091020167E070E08CE642
:103D600090E0B3DD1092A8058C2F65DD1092A805B8
:103D7000C43610F485E275DC0E94B51360935D04CF
:103D800070935E0480935F0490936004CF911F91C1
:103D90000F910895CF93DF9370E060E090E080E0B2
:103DA00086DDC7EAD5E081E0898380E492E0D0DC5B
:103DB00080910B0140DD8CE754DC85E03CDD19820D
:103DC000DF91CF910895A9E0B0E0E9EEFEE10C9417
:103DD0003639D82EE0902405809123058E1538F0D1
:103DE0008FEF8E0DE11001C080E08093230570E01D
:103DF00060E090E080E05BDD81E08093A8058AE9E7
:103E000091E0A6DCEE2009F44AC0009123050F5F83
:103E100092E00A3008F491E029E082E02E1508F0E3
:103E200081E014E0191B181B115018F080E219DC16
:103E3000FBCF802F00DD8CE714DC8E2DFCDC109294
:103E4000A805109123058BEA189F112D1124F12E3E
:103E5000F694D1102AC080910301F81226C0EE20FA
:103E600099F11F2D110F1F0D212F30E0F12C2D5F27
:103E70003F4FE216F3060CF49701F22E02E01F15F5
:103E800018F5602F70E090E080E01FDD8091230541
:103E9000181309C08EE3E5DB1F5F0E5FF0CF84E9E6
:103EA00091E056DCCCCF80E2F6CFF092030128E31C
:103EB00040E868E080E0E1100BC0CBDB20E04BEA9B
:103EC00051E064E084E208DD2996E2E10C94523985
:103ED000C0DB1F2D110F1F0D212F30E0F12C2D5FA6
:103EE0003F4FE216F3060CF49701298735E0139F44
:103EF000C0011124DC01A454BB4F7D0182E0582E87
:103F000098EE292E93E0392E2AE0822E912C34E669
:103F1000632E712CB9851B17B8F60091230528E094
:103F200040E8652D660F660F660F80E092DBA52CDA
:103F3000B12CB50190E080E0C8DC8EE3101380E284
:103F400090DB1F5F812F6AE00E94AA38092F805DF5
:103F500088DB80E3800F85DB80E283DBF7018281F1
:103F60008430A1F580819181B3010E94B6386B0144
:103F7000B4010E94B638462E84E0F4E6CF16D10490
:103F800008F085E021E1281BB50136E0239FC00140
:103F900011249BDCB60190E080E0F0DB8EE261DB77
:103FA000842D49DCB5018CE690E08FDCD7011296B8
:103FB0008C91B4E08B9FC0011124895E9B4FAEDBD6
:103FC000E5E0EE0EF11C53945394A4CF0190F081E0
:103FD000E02D44244A94480EB2E0D12CC12CB415F3
:103FE00098F0D70113968D919C91B1010E94CA3827
:103FF00097FF04C088519C4F61507109E60FF71F6D
:10400000B4010E94CA386B0100E220E045E0BF0124
:10401000CE0101960E946D12B2E088E0B41508F45A
:1040200085E0E1E1E81BB501F6E0EF9FC001112456
:104030004CDCCE01019672DB22E0241508F4B2CFED
:104040008EE20FDB3AE0C316D10410F480E309DB03
:10405000B60190E080E092DBA5CFA4E0B0E0E3E31E
:10406000F0E20C94443980915C0581112DC080915F
:104070005705811129C010912C011F3F41F08091FB
:104080002D01811125C080914B05813009F568E330
:1040900070E08AE590E00BDC8EE890E059DB0E944E
:1040A000D015811111C028E04CE060E182E7D1DA3F
:1040B00080919A0683FF08C060E170E082E790E09B
:1040C000F6DB8EE690E044DB2496E4E00C94603965
:1040D0000091480568E370E08AE590E0E8DB0111B3
:1040E00009C01A3010F480E2BCDA812FA4DB8CE71F
:1040F000B8DAD5CF90912D01E5E7F0E02FE09430CC
:1041000019F4E4E8F0E02AE080E03491311760F43B
:104110008F5F31962813F9CF9430F9F491E0853010
:1041200008F490E089E00AC09430B9F48430B0F724
:10413000E82FF0E0EF58FF4F849190E023E52983CA
:10414000893078F4805D8A8380E291118BE28B83E1
:104150001C82CE010196E2DAA2CF91E0893010F7FD
:10416000ECCF89E3F0CF68E370E088E190E09FDB7B
:1041700080912D01833091F020F48130A8F480E209
:104180000BC08430E1F7809152058823C1F3809100
:1041900043058111F4CF8AE264CA08958091090130
:1041A000813041F085E5F8CF80913F05813039F7C6
:1041B00083E5F2CF8CE4F0CFCF93C82F0E94DB12BF
:1041C0008DE8EDD980E1C11184E1E9D98EEAC11110
:1041D0008FEAE5D98DEA95E0DAD9CF910895CF93AA
:1041E000DF9347E050E070E060E090E080E029DBA2
:1041F0000E94D512C0E0D4E080E0D1D92197E1F748
:104200008DEA95E0C4D96091AB057091AC058091C1
:10421000A9059091AA054BDBDF91CF910895CF932B
:10422000E0914705F0E0E35FFB4FC081CF5F0E9464
:10423000DB1281E8B4D98C2FB2D98DEA95E0A7D9E9
:10424000CF91089590914705890F8A300CF089E04D
:1042500087FD80E080934705E2CF0895A8E0B0E0B5
:10426000E4E3F1E20C943E393B9A439A88E0809370
:10427000B8000E945C1786EE95E00E94C113809101
:1042800072060E94221281E090E00E9420128FE1CB
:1042900090E00E94201285E090E00E9420120E948F
:1042A00046165E0189E0A80EB11C86EE95E00E94DC
:1042B000C11368E070E080917206909173060E94CD
:1042C00056128E010F5F1F4FE02ED12E0E942E122C
:1042D000F80181938F01AE16BF06C1F7898186FD73
:1042E000E4CF8BE097E20197F1F786EE95E00E942C
:1042F000C113809172060E94221281E090E00E9418
:10430000201281E390E00E94201285E090E00E945C
:1043100020120E944616609176067091770690E012
:1043200080E00E94841362E370E080E090E00E94ED
:1043300084131A82198210E000E0F12C0539F1E0B3
:104340001F0740F430E020E00138110590F020E034
:1043500031E00FC0063F82E0180748F020E033E06C
:104360000F3FE3E01E0728F020E034E006C020E025
:1043700032E085E10115110509F086E14F2D50E08D
:10438000FA01EB56FD4FE491E20FF32FF11D0E17EA
:104390001F0709F059C0F394415A5D4FFA01449147
:1043A00092E0C92E443618F04456CC24C3942E2DE6
:1043B0003D2D60E00E9475178823C1F0CC2059F094
:1043C0002E2D3D2D48E06C2D85E10E947517882328
:1043D00069F00F5F1F4F0F5F1F4F0135F4E01F079C
:1043E00008F4ACCF83EE93E00197F1F780917E065D
:1043F0008032E1F0E091B60382E1E802F00111249D
:10440000E25DFE4FE7850E2E000CFF0BE25BFB4FDB
:1044100080818F7080618093C1068091C206807810
:10442000806180688093C2060E945D1688E4809354
:10443000B8000E94631481E08093AF043B9A4398D4
:104440002896EAE00C945A39C12C48E0B0CFCF93BB
:10445000DF9380912D01833009F05BC080910901C9
:10446000E091B60392E1E902F0011124E25DFE4F12
:10447000218994E6290290011124823019F43195A2
:104480002195310980912D01D0E0C0E0833069F49D
:10449000C091400584E6C802E00111248091090121
:1044A000823019F4D195C195D10980917E06803270
:1044B00069F180912C0590912D05280F391FC20FAD
:1044C000D31FD195C195D10986EE95E00E94C11305
:1044D000809172060E94221282E190E00E942012D6
:1044E00090E080E00E94201281E00E94061280E0AD
:1044F0000E9406128D2F0E9406128C2F0E94061217
:104500000E94461683E998E00197F1F7DF91CF9179
:10451000089580912D01A4CF282F48E065E080E424
:1045200095E00E946C150E94AE1580912D0183309C
:1045300009F48DCF0895CF93DF93C091B60392E134
:10454000C902E0011124C25DDE4F9885933081F0ED
:10455000282F49E167EE8BE395E00E946C1580916E
:104560003B05898B0E94AE150E94D01581116FDF2B
:10457000DF91CF9108951F93CF93DF9391E01816A9
:104580000CF090E0CFEFC80F82300CF4C0E08091C7
:104590007E06D8E2803221F0D8E4803509F4D8E5EF
:1045A00010E090FB10F986EE95E00E94C113809117
:1045B00072060E9422128D2F0E940612812F0E94E5
:1045C00006128C2F0E9406120E94461686EE95E077
:1045D0000E94C113DF91CF911F91089590912D01F9
:1045E00045E2943009F44AE1282F60E085E395E044
:1045F0000E946C1580913505BEDF0E94BD15E82F25
:10460000F0E0ED54FB4F80913505808308950E94C2
:10461000BD15E82FF0E0ED54FB4F8081ACCF08953D
:104620008091B70381110CC081E08093B703809122
:104630004E050E948E1481E0BFDD1092980508950A
:1046400080915C058111FBCF1092B70381E00E943D
:104650008E1480E0F1CF8091B703811111C0809159
:104660009805882369F081E08093B70380914E0517
:104670000E948E1481E0A0DD109298050C94A51480
:104680000895B0E0A0E0E7E4F3E20C943A398E320A
:1046900009F445C0C0EDC80FCA3008F064C09EE000
:1046A000C92ED62E84E0C89EA001112470E060E0DF
:1046B0008EEA95E00E947339EC2FF0E0E655FC4D50
:1046C000E491F12CE12C0AE813E2CE2FD0E0CE01E8
:1046D0000E2C02C0959587950A94E2F780FF31C0B1
:1046E000F80184903196A490319694903196B490CC
:1046F00066246394680CBB20B1F0B12C66246394EB
:104700006A0C9B14F1F0782C7B0C6A2D872D0E948B
:10471000BB12662D872D0E94BB12B394F2CFCAE064
:1047200084E0C82EBECF9B1461F07A2C7B0C672DE1
:10473000882D0E94BB12672D862D0E94BB12B39458
:10474000F2CF0C5F1F4FFFEFEF1AFF0A88E0E81669
:10475000F10409F0BCCF0EEA15E020E24C2D60E137
:104760008D2D0E94DE1ACDB7DEB7EEE00C945639DF
:10477000A7E0B0E0EEEBF3E20C943A3980905C05F0
:104780008110A5C0982E0E94D015A82E60903005EB
:10479000709031058111BCC0E091B60392E1E9024D
:1047A000F0011124E25DFE4F808528E5E22E24E031
:1047B000F22E13E0833081F0823049F48091490574
:1047C00038E5E32E34E0F32E12E0813029F094E551
:1047D000E92E94E0F92E10E00FE2212F45E0B3011D
:1047E000CE0101960E946D12C3010E94DB15B82E06
:1047F000812C8CE045E0112329F08CE045E08824F1
:10480000839411E0140F9EE0499FA0011124882099
:1048100011F04C5F5F4F123038F0E3E01E9F400D07
:10482000511D11244350510927E230E0A11002C06C
:1048300030E020E0420F531F282F30E00AE610E05E
:10484000041B150B021713070CF48901992019F1A9
:1048500020E240E860E180E00E94291BCE01019641
:104860004C01F40171904F017720F1F0B801872DD0
:1048700008DFFEE284E07F128EE090E00396080FEE
:10488000191FEFCF00E220E0482FB301CE010196BF
:104890000E946D1259C09091AE049B15F9F240E848
:1048A000481B20E260E1D8CFA11015C028E042E10A
:1048B00068E28DE60E94291B68E270E08DE690E0D8
:1048C0000E94571CC7010E948E1BB092AE0427960F
:1048D000EEE00C945639B801625071098EE2D1DED7
:1048E00098012B5F3F4FC6016AE070E00E94B63826
:1048F000962FD82EB90180E3890FC3DEB8016A5E16
:104900007F4F80E38D0DBDDE84E08B1578F6DDCF23
:1049100080912C0590912D0568EE73E00E94CA38B5
:1049200097FF04C088519C4F61507109660E771E35
:104930006AE070E00E94CA386B01C3010E94DB1577
:10494000B82E81119FCF19824B2D84E5E82E84E08B
:10495000F82E83E010E056CF909331058093300518
:1049600080E006DF64E670E080E090E00C94841361
:104970000895CF9380919705E091B603843059F460
:1049800082E1E802D0011124A25DBE4FC1E0189679
:104990008C91833009F4C0E082E1E89FF00111249A
:1049A000E25DFE4F84E0A2E9B5E001900D928A95A8
:1049B000E1F71092960570E060E090E080E00E94E0
:1049C000651CC093A80582E995E00E948E1B109299
:1049D000A805CF910895CF93DF93809197058430F8
:1049E00061F4E091B60322E1E202F0011124E25DFC
:1049F000FE4FD1E08085833009F0D0E0C0912D01D9
:104A000067E070E090E080E00E94651CD093A8050C
:104A100024E0C29FC0011124895E9B4F0E948E1B1F
:104A20001092A805A0DB80915C05811101C0A1DF77
:104A3000DF91CF910895CF93C82F0FDB8C2F98DE95
:104A4000CADF0CD80E94811C81E023D99BD8CF916A
:104A50000895B0E0A0E0EFE2F5E20C943D39982E25
:104A6000E091B60322E1E202F0011124E25DFE4F83
:104A70001085DD24D394133009F0D12C80912D01C1
:104A8000CC24C394843009F0C12C80913405882350
:104A900051F050E040E061E070E486EE95E00E9465
:104AA000B21710923405CD1411F03B9A439A0E942C
:104AB000D1148FEF80932C0190914D05133009F4A0
:104AC00091E080919306837C8093930620917E06EB
:104AD000203409F409C1903C08F090E090939606C8
:104AE00080918306909184060E94BB16C091B60304
:104AF0000C2E000CDD0B133009F0FEC084E0809317
:104B00002D011092520582E18C9FF0018D9FF00DD6
:104B10001124E25DFE4FA5850A2E000CBB0BAB5F96
:104B2000BE4F2C91022E000C330B8185928546815D
:104B30005781048115811093800600937F0650935E
:104B4000820640938106309386062093850680175F
:104B5000910720F04817590708F08C010E945C1754
:104B60009091C6062091890630918B068091C306EC
:104B700040918A0640FB87F930FB86F98F7D20FB48
:104B800084F9807F8093C3069093C40680E280936B
:104B90007E0680919306807C8360809393061092BA
:104BA000960681E08093970686EE95E00E94131AA0
:104BB0006091C50686EE95E00E94DA171092C7064E
:104BC000809172060E94221282E190E00E942012DF
:104BD00090E080E00E9420128FEF90E00E9420126F
:104BE00090E080E00E94201290E080E00E9420127D
:104BF00090E080E00E9420120E9446168BE097E22F
:104C00000197F1F7109287061093840600938306AC
:104C1000C8010E94BB1622E12C9FC0012D9F900D60
:104C20001124EC01C25DDE4F0E811F814C815D813C
:104C300060E074E186EE95E00E94B217A80161E0A1
:104C400074E186EE95E00E94B2174AE050E062E01F
:104C500074E186EE95E00E94B21742E050E063E016
:104C600074E186EE95E00E94B21745E050E064E002
:104C700074E186EE95E00E94B2171092AF04488965
:104C800050E062E071E186EE95E00E94B21740913B
:104C900041054F5F50E060E071E186EE95E00E94D3
:104CA000B2170E9461190E94CD18B1DC80915C0599
:104CB000811107C080915705811103C090DA81E00E
:104CC000BADE0E94EB17CD1411F03B9A4398809105
:104CD00030059091310590932F0580932E05CDB727
:104CE000DEB7EBE00C9459398D7F809393061092D8
:104CF000960690939706F4CE22E12C9FC0012D9F3B
:104D0000900D1124DC01A25DBE4F5D0114960D9142
:104D10001C9115971696ED90FC9017978091AF0413
:104D2000882309F4C9C01F968C911F9786301CF008
:104D300084E01F968C93911091DA8091C206909135
:104D40003D0590FB84F98093C2060E945D16809118
:104D50002D01833009F099C02091090182E18C9FD7
:104D6000F0018D9FF00D1124E25DFE4F41855285CB
:104D7000B701C8010E94751A0E94881690912D01F2
:104D80008091C206933009F083C080688093C20688
:104D90000E945D168091C206807F8093C2060E94A9
:104DA0005D160E94BD150E94B91880912D0194E0F6
:104DB000833079F082E18C9FF0018D9FF00D1124FA
:104DC000E25DFE4FE7850E2E000CFF0BE25BFB4F12
:104DD00090819F708091C106807F892B8093C1064E
:104DE0000E945D1634DB8091C20690913C0590FBD9
:104DF00085F98093C2060E945D160E94BD15E82FBA
:104E0000F0E0ED54FB4FE681F0E0E55BFC4FE49110
:104E100084EF8E0F8F3478F4E093880684E591E078
:104E2000E89FA001E99F500D112463E071E386EE35
:104E300095E00E94B217A80160E074E386EE95E069
:104E40000E94B217A70161E074E386EE95E00E942C
:104E5000B21743E050E063E074E386EE95E00E9411
:104E6000B2174AE050E064E074E386EE95E00E94F9
:104E7000B21780913A05882309F4BAC08EE593E011
:104E80000E943B190E948E1910CF20912D0166CFF0
:104E9000B0903F0591E09B1990FB87F98093C20683
:104EA0000E945D168B2D880F8B0D982F9F7080911F
:104EB000C206807F892B71CF10922D010E94BD15F3
:104EC000982ED5011B96EC911B97EE0FFF0BE45F1C
:104ED000FE4F808191811996AD90BC901093800611
:104EE00000937F06F0928206E092810690938606F8
:104EF00080938506A016B10608F478C0EA14FB0476
:104F000008F474C080918706813009F440C00E9483
:104F10005C179091C606209189068091C306309156
:104F20008A0630FB87F98F7920FB84F9807F8160C6
:104F30008093C3069093C40680E480937E0680919C
:104F40009306807C8160809393061092960681E0A0
:104F50008093970686EE95E00E94131A809188064A
:104F600094EF980F9F3468F424E531E0829FA0010C
:104F7000839F500D112463E071E386EE95E00E945B
:104F8000B2176091C50686EE95E00E94DA1710927E
:104F9000C70681E080938706B0928406A0928306BC
:104FA000C5010E94BB1680917E06803499F482E18F
:104FB0008C9FF0018D9FF00D1124E25DFE4FE68580
:104FC0000E2E000CFF0BE95BFB4F8081873010F445
:104FD0000E943F1742E050E061E073E386EE95E007
:104FE0000E94B217892D0E94B91807CF58018ACFA5
:104FF00086E593E045CFCF9380912D01833019F161
:105000008AE00E94121680912D0181508230D8F4DE
:10501000C0913F0581E08C1B9091C20680FB97F9FF
:105020009093C2060E945D168C2F880F8C0F982FCC
:105030009F708091C206807F892B8093C2060E9458
:105040005D1681E006DDCF91089580915C058111A8
:1050500006C00E94D015882311F080E0CCCF0895BF
:1050600088E00E9412160E94D015882361F080917A
:10507000C20690913D0590FB84F98093C2060E9480
:105080005D1681E0E6CC0895EF92FF920F931F9397
:10509000CF93DF93182FD62F0E94E0140E94AE15F5
:1050A000C091B60310922D0510922C058FEF1111AF
:1050B00081E0082E000C990B8C0F911DC7FD9A956D
:1050C000849664E270E00E94CA387C018093B60343
:1050D000D1110E94D1140091300510913105109327
:1050E00021050093200582E18C9FF0011124E25DEF
:1050F000FE4FD0858E9DF0018F9DF00D1124E25D55
:10510000FE4FC08591E0D33009F090E081E0C330DC
:1051100009F080E0981739F080E09BDCCDB7DEB76E
:10512000E6E00C945E39C8010E94BB1670DA80E09C
:105130000E94BC1C0E94D015811189D9809149051B
:10514000882359F021E0D23009F020E091E0C2300C
:1051500009F090E081E0291301C080E009DB809133
:105160005C05811101C005DC0E942E1D10932F05E6
:1051700000932E05D3CFB0E0A0E0E1ECF8E20C9470
:105180003C3982E395E00E94B9148C01009709F440
:1051900077C0D1E0181619060CF0D0E0D0930401C6
:1051A000C091B6034C2F0C2E000C550B82E1C802A7
:1051B000F0011124E25DFE4F8085833009F065C067
:1051C000E5850E2E000CFF0BEB5FFE4FE0810E2EEF
:1051D000000CFF0BE0903005F09031059F01D801E5
:1051E0000E9430394B015C018E0C9F1CA11CB11C2C
:1051F0007501640182E1849FD001859FB00D112467
:10520000A25DBE4F16964D915C91179770E060E0DD
:105210004C155D056E057F050CF440C014968D910C
:105220009C91B0E0A0E0C816D906EA06FB06B4F1EE
:105230009401C401BF010E94B638009751F0C81A0A
:10524000D90A1016110614F0F0E0E0E096012E0FD6
:105250003F1F309331052093300581E0809329056D
:105260000E94B513609358057093590580935A05B1
:1052700090935B0580E07CDA0E94E0140E94AE15FA
:10528000CDB7DEB7ECE00C945839E385EE0FFF0B99
:10529000E45FFE4F0190F081E02D9CCF60E08D2F08
:1052A000F3DE8091B603082E000C990B22E1C202B6
:1052B000F0011124E25DFE4F3085333051F0289F1C
:1052C000F001299FF00D1124E25DFE4F208523306F
:1052D00069F422E1289FF001299FF00D1124E25D7D
:1052E000FE4F101611063CF4C480D580D0923105D3
:1052F000C0923005B2CFC680D780F8CFB0E0A0E032
:10530000E4E8F9E20C944039C82FD62F837083303B
:1053100039F580915C05811123C0CB3009F10E94E1
:10532000B5136B017C01809163049091640403E6E2
:1053300014E0D83031F0809161049091620401E66C
:1053400014E09601281B390B203F310548F081E01D
:10535000D83009F080E061E097DEF801D182C082A8
:105360008C2FCDB7DEB7E8E00C945C3980915C05FA
:10537000811135C080915705811131C080912D0177
:10538000823051F0833051F0813049F582E08093D2
:105390002D0180E05ECB089581E0F9CF20912D01B1
:1053A0002330E9F480910901281B20930901E09141
:1053B000B603409130055091310582E1E802F001D9
:1053C0001124E25DFE4F66817781848195810E9480
:1053D000751A3DD81CD981E0CBD90C94B32008951F
:1053E00080915C05811144C080912405843168F569
:1053F00040912D012091300530913105ECEBF4E026
:1054000090E0891759F0608171812617370719F4E8
:1054100052814517D1F09F5F3596F3CF90912D01C2
:1054200040912C0550912D0565E0869FF0011124D7
:10543000E454FB4F318320839283548343838F5FF3
:105440008093240581E08093650468E170E08DE23B
:1054500090E00E94571C88E690E00E94A81B64EF31
:1054600071E080E090E00E94841381E0E4CA089536
:105470000895833021F490912D019330C1F09091E3
:105480005C05911114C090919705891301C080E0CB
:105490008093970580919705882351F00E94A51469
:1054A0000E94C21D0E942E1D0E94811C94CA089554
:1054B00010925D0510925E0510925F0510926005D6
:1054C000EFCF1F93CF93DF93C8EBD3E06A817B814B
:1054D000888199810E94DA13182F882371F08091B6
:1054E000B703811113C080919805882379F0B3D850
:1054F000888199818959954059F4299684E0C93069
:10550000D80721F7DF91CF911F9108950E94A5142C
:10551000113039F01B3089F7EE81FF81309729F483
:10552000ECCFEC81FD81309711F00995E6CF8885AD
:10553000882319F39EDFE1CF80919705882389F0B6
:105540001092970510925D0510925E0510925F050E
:10555000109260050E94C21D0E942E1D0E94811C97
:105560003ACA0895B0E0A0E0E8EBFAE20C944039C2
:10557000C091B6030C2F0C2E000C110B82E1C80257
:10558000E0011124C25DDE4F8885833009F49FC09D
:1055900080915C0581119BC0CFDF80912D0181112D
:1055A00086C0CE85D0912D010E94D015882309F4A4
:1055B0004FC02091300530913105A8EEB3E00E9434
:1055C0002139C0902C05D0902D050D2C000CEE0833
:1055D000FF086C0D7D1D8E1D9F1D28EE33E040E001
:1055E00050E00E94FF3897FF08C068517C4F8F4FF2
:1055F0009F4F2150310941095109E2E1E09FD0015B
:10560000E19FB00D1124A25DBE4F1496ED91FC9167
:1056100015976F01F12CE12C2C153D054E055F050A
:105620005CF01696ED91FC916F01F12CE12CC21605
:10563000D306E406F50624F49F0160E070E0CB0198
:10564000309331052093300570932D0560932C0520
:10565000D150D23058F4000F111FF801EA59FB4F16
:1056600080912C0590912D05918380830E94E014F8
:105670000E94AE1580912D01833011F43B9A439A1C
:105680000091B603002E000C110B80912D01833088
:1056900080F4813090F180912D018093080183E0A6
:1056A00080932D0110922D0510922C0504C0CF85FA
:1056B00079CF833089F080E0CCD98091AF0481111B
:1056C00006C080912D01811102C03B9A4398CDB74D
:1056D000DEB7E8E00C945C3910922D011092AF0413
:1056E00082E1809FF001819FF00D1124E25DFE4F69
:1056F000C7300CF0C6E0C687DECF809108018093EA
:105700002D010E942E2182E1809FF001819FF00DEA
:105710001124E25DFE4FC6300CF0C5E0C787000FD4
:10572000111FF801EA59FB4F8081918190932D055B
:1057300080932C05C0CFA6E0B0E0E1EAFBE20C9438
:10574000463942E1849FF0011124E25DFE4F21853C
:1057500032853A83298393859F70268540E1249F73
:1057600090011124922B9B8394859F70278540E1A3
:10577000249F90011124922B9C8395859F702089F2
:1057800040E1249F90011124922B9D8391899E8357
:1057900096E0899FB0011124665E7F4F46E050E09D
:1057A000CE0101960E9489382696E2E00C94623977
:1057B0000F931F93CF93DF938091220581111AC01D
:1057C00010912405153108F014E1612F8DE791E067
:1057D0000E949838C9E1D1E000E0011759F045E096
:1057E00050E0BE01CE018D559C4F0E9489380F5F5D
:1057F0002596F3CFDF91CF911F910F91089580915E
:105800006504882319F0D4DF1092650410925705BF
:1058100010925D0510925E0510925F051092600572
:105820000E94EF2081E007C9089580915C058111F5
:1058300010C080915705882311F0E1CF089581E0D1
:1058400080935705109223050E94A51481E00C94C3
:10585000E31E0895EF92FF920F931F93CF93DF9370
:1058600069EF74E184E795E00E94DA13813009F072
:105870008CC00E94A51480912405882309F483C05C
:10588000E091B60322E1E202F0011124E25DFE4F55
:10589000F084D091AF04E09123053B9A439A0E2FF8
:1058A00010E085E0E89FF0011124E454FB4F828171
:1058B00080932D01EE24EA94E80E91E022E02E156B
:1058C00008F490E09093AF04EEE2F1E0C0E095E0E0
:1058D000909FD001919FB00D1124A454BB4F21E0A3
:1058E000843009F020E091E03085333009F090E019
:1058F00029130DC02D913C91119744815581241796
:10590000350728F0468157814217530730F4CF5F9F
:105910007296C43221F7C091B6038091B603082E67
:10592000000C990BC817190621F00E94E014C093CF
:10593000B603E091B60382E1E802F0011124E25DD2
:10594000FE4F85E0809FD001819FB00D1124A454AB
:10595000BB4F8D919C9111979287818713968D9162
:105960009C9190932D0580932C058085F81207C09B
:1059700022E081E08D272E1518F480E001C081E03F
:1059800068D83B9A43983BDF3BC069EF74E18DE8F0
:1059900095E00E94DA138130F1F50E94A514209160
:1059A0002405222351F140912305842F35E051E055
:1059B000580F5217B8F490E0389FD001399FB00DBE
:1059C0001124A454BB4F0196389FF001399FF00D6C
:1059D0001124E454FB4F832F01900D928A95E1F737
:1059E000852FE5CF8FEF820F8093240581110DC0A5
:1059F0001092230581E08093650481E00E94E31EFC
:105A0000CDB7DEB7E6E00C945E39481798F3225024
:105A100020932305EFCF69EF74E18FE695E00E94B4
:105A2000DA13813069F70E94A514ADCFA7E0B0E08A
:105A3000ECE1FDE20C94423990912205992331F07A
:105A4000109263052796E6E00C945E39182F0E94A9
:105A5000E01411110BC02091300530913105809177
:105A60002005909121052817390751F36BEE90E03E
:105A700080E00E94983867E081E090E00E949838CA
:105A80008091B104811102C080910A0189838091C3
:105A9000B6038A8380912D018B8380912C05909190
:105AA0002D059D838C83809109018E83809108014F
:105AB0008F8347E050E06AE070E0CE0101960E94DB
:105AC000893880912205811138C0112351F110E0ED
:105AD00080912205811102C0812F2DDE1F5F1432BB
