:020000040000FA
:100000000C9487110C9416300C94EF2F0C94AF11B4
:100010000C94AF110C94AF110C94AF110C94AF1160
:100020000C94AF110C94AF110C94AF110C94AF1150
:100030000C94AF110C94AF110C94AF110C94AF1140
:100040000C94A52F0C94AF110C94AF110C94AF111C
:100050000C94AF110C94AF110C94AF110C94AF1120
:100060000C94AF110C94AF1153415645440020201D
:10007000200031206B487A200035206B487A200020
:1000800039206B487A20003130206B487A003530B7
:10009000206B487A003130306B487A0031204D486F
:1000A0007A2000313020487A2000323520487A20EA
:1000B00000353020487A200031303020487A003531
:1000C000303020487A0031206B487A200035206B90
:1000D000487A200039206B487A20003130206B4864
:1000E0007A00535445503A20005058606870081800
:1000F0002030384048000810283840302E35206B1A
:10010000487A00312E30206B487A00312E32206B35
:10011000487A00312E38206B487A00322E30206B1E
:10012000487A00322E32206B487A00322E35206B0E
:10013000487A00332E30206B487A00342E30206B02
:10014000487A00362E30206B487A00204155544FB3
:10015000202000313130206B487A003834206B4841
:100160007A20003630206B487A20003430206B48EB
:100170007A20000020202020200044454C3A42579D
:10018000204641564F524954455300454D5054590D
:10019000204C495354000000020100000000000000
:1001A000030000000700020100000201000001003E
:1001B000090000000500010100000100010002012A
:1001C00041555400204F4E004F4646002035300028
:1001D000203735006B487A004D487A00525353005F
:1001E000534E5200313030003530250031306D0033
:1001F00031356D0033306D0036306D0020413200F6
:100200002041310020202020202053455454494EC5
:1002100047532020202000000080007301760178E1
:10022000017A017C017F0181018401860188018AB4
:10023000018C018E01900192019401510268028AA1
:10024000029502F502650368039303AE03B103B49C
:1002500003D903E203E703EA03EC03EF03F203F538
:1002600003F703FB03FE03100427042D04320434B8
:1002700004360439043C0440044304450449044B57
:10028000044E0450040003740BD484606FAE6CF908
:10029000BB84A265B14BF672011A21E85AD8D60484
:1002A000735E2C226EC4E9B58B819A1EE487C99EC9
:1002B0007B17526DADE3E58B04A72E996A32AA999C
:1002C00097CCA65B157956480163B1DF54270657D2
:1002D00006538CA627AA66890318517EFB67D3CEE6
:1002E000DD3FFD3D1F478401F3856EF83B792B0C04
:1002F000904B67467D5488FDD612E5E748F20EDB49
:10030000994D71A54068D9C95939E475201CE9B1E6
:10031000F5013C19BB60F7FA6B1E689F19B6ED1426
:100320000F56BCC134CB009D43D40FF3629C9DF7A4
:100330008B9D533A8D2F3DDE3D3831039BC7C1590C
:10034000E9D175888D365886704E5B9ED0DBCBF731
:10035000EA1FDBA53BB3BD6BBCF37065D5170F641B
:10036000152420D5B87B0D272985881F5822574F83
:1003700009C04DD6E4C6B53A373327BB6A146903C2
:100380001BEDA8C343E8EADE410625C5C83CBF32E1
:10039000B2A7DD22C2E9CA84F2C0267C7801F7D573
:1003A000C60533E4C278EC1BFDD2507D1129579964
:1003B000B0F1556674B45823A06F2ED89B08B33E95
:1003C00053CF5ECC7ADF4EED42166A9188431B1DF7
:1003D000845C52216658243671C56A0D2C869A2396
:1003E0009DE03543C97F41BD8299ED7A26B2D3A6FF
:1003F000CE4F00E687E3D7682886F7CED2B3D31B6B
:100400000402B978B3ADE03C53A68A4A22BE1FCE9F
:10041000B176F22F81A8C17872B0156519E332A7C1
:100420004D0CD300B9C327BE744DD1E10C36DD238A
:10043000FBA722D344CAB3081BB40D4BDF1AA69006
:1004400032925C1AA7CD852E351172F821357D3F89
:10045000DB298D30B34F451477CF992FA39081B00E
:10046000AEE845E63AA9A262B7DBBE2539A5FCEAAB
:10047000C5BC3AEC90AEA6FB12AAC76222AFA98413
:10048000B964B8FB8DC11CC3D0876D5CB4FE3FA4BA
:10049000B8D889F40159BB04A543441ACB4130F7BD
:1004A0005B9AEE28F44C7199CA4B7F2A13F04B5497
:1004B000B3FC90EDBE483FF15E0DA1BB1E59161571
:1004C000F04B504C96861BA9CCC2694E1003F0E944
:1004D00053E5E2BB45E28DAE407108864D08F496C7
:1004E00090585340A58B5B3CAD47B5D7E26A137873
:1004F000D4DCC9EC0E93F0C01D953676A45385C9A3
:10050000ACE4718DAF6861209DFF45356E04D8273E
:1005100032C3DAEEA26604B72106527F398FFDEEB0
:100520009074B64FB6240E1248F0B230F2A54C913A
:1005300052E3C6487B3896239ED71B95153AC98B44
:100540006F637D1DC9EA96E601D785C0EA3DCAD32F
:10055000B7FB07543A00313D74E4125BA238335BB9
:10056000BF1DDC4EE8851077ABEA6579B0AA306133
:10057000C6F63BCC95FC837F8C7BB55205EBF7210F
:10058000DE89B66DEE317713AA935596086E1C82FC
:10059000B57E95B994DD68425C3A00C37B6F606AB2
:1005A0002C07D76C82FBB2812569D6720AD2E8503B
:1005B0000588491B6372996CE37AAEB01B9ED42503
:1005C00054258A901797DF39B87CEAF082DD25D26E
:1005D000ADE7F6362384A9C96A53F4822C1DEA06D6
:1005E000C64F705437802A6B63DBCC86E68C7F273E
:1005F0008C7254739E1BD64CFA058280D7B7119823
:10060000000000000000069869151CFC86877484B1
:100610005BD40FDBD727C54AB28F297A4A230AB8A1
:1006200007D03470818E53EF43163FA8A79E5A77A8
:10063000C091B789155248C0B762ABE1746410AA83
:10064000096B9774217935A19725FC78C1EC6E87E9
:100650007740871A74828156DDEC37ADAF0331AC39
:10066000478574C02A459DF4120CF986B04A16D805
:10067000116C46C44A67988B1B42C2BEBB0E4884AD
:10068000F708A6C38F8E8DABC29B5D5C6028578F29
:100690000EAD2EC15E95299AF48A27D441BB4AAC8F
:1006A0005DB29326FD87813F2735A6422C1538ADD4
:1006B000F8026F94DA08EE19D890FA89C3AD89FE72
:1006C000C60246811D0C8D782FEED3ED6C7B9549CB
:1006D0005687F4E263DA39CE681618ED98EE86F3A1
:1006E000B3C1121A519B571D199E987ED2FD3D2B06
:1006F00059154674577914817189D922DD9210D920
:100700008991DF67006E53AFDAB528301E47E6B730
:10071000052D22CF7F6ACD88906B8C16368807A175
:10072000B7AFF331C4DB768B969EF017A73F847882
:1007300091A8CD3F8FA5DD5214F9395D0B568E1C63
:100740005A5B89EE809E33BDB145154234597820FD
:10075000FC2DDBC92E0F3526CF239B3E1D9F0F2678
:100760000EB7B54EACA286D5DA36045A73466A88FF
:10077000C52AA083E88B5F3CAF6A444E759B8F937C
:10078000373538BD029A1D8429642597E07C2AB646
:10079000CBC166513CBC3BF3552BB7BD81ECF34953
:1007A000D5F803E0BDC60CEEC01908FB4F8C9408C9
:1007B0000EA53037F0B818937300BB5252B4980DA1
:1007C0004B45B9890A34E91C245A8FA89DC2D92700
:1007D000A9EEBFC08090BC2A9343FB0AB396D1AE6A
:1007E00013410168B92C53537C00A58441D69888E5
:1007F00098FEDEF7E23743620E9383EE030A8DCA5A
:100800008759366F61F7F4D6AB8B0F9C8396A46C37
:100810004643806BEA50DCD8CED4F4AE5BC60143CD
:1008200085718D0C395EE43B2BC488B2C554960E9D
:10083000879A5093D69C91CA09648B23C429441A81
:1008400067E1DAC71B2517022C8F2A133ACFD6652A
:10085000312B10F5B596DF01997BADD6B4C035A329
:1008600048E3B09EFE33101A09AE3C0AA1728F0015
:1008700051E17823F5E2BFA64628B34B24B1A1DEAF
:10088000B1C4486FED5AD461F0DBE1085C64C0CAC2
:10089000E9A9DEDEECC0685B6DBD43828CCA69B13C
:1008A000A9C8710D5D6DA5AB1A6794EE0593E33F82
:1008B000E81AE60F7F79F2CBC53757DFFC4FB460FB
:1008C000C7973C61B00C4664F44392D2A5F0F3B7ED
:1008D000DFAB20B1F5302AB3DC4B39B7853E1E1BA8
:1008E000948C26288045D60136D0EC934688D3D503
:1008F000895D7A82213EC240E3B4DEF5A569D569FF
:10090000495C89CDAE137070ED690CECC6FE75EBD9
:100910004ED6B3C860FB341EF86492D929A81338A8
:100920003D79C4BF21379DE34F21E53F2C5C5F41FA
:10093000FF148791E082040B1E5553DC5640A4350A
:1009400078E29B49222E09CD1F6F9483EEEA8BC477
:10095000C210E080D9A55F53349C8CEA95648794DB
:10096000D6321CEB93BFE35583C2F6FCC885B29424
:100970005C425F6B8E3B9779747EE35CC2631A22A4
:10098000B17F94CBE7B7FF0E3795AF10531788129E
:1009900072DDCBAB4B6B6824ACC95C72094FF1FBC9
:1009A0001DE7A230E9204BDA707C9EE234EB6A3519
:1009B000C233D79D07B1EFF675F5FDADC74BD0B784
:1009C000DDAE1E8D1EC0399CA71CC5CC3950C66B30
:1009D000C6DA37C7E120EB74A53DC008FAC2DFF2E2
:1009E0009E432BF07750498CC32F68F32A9B831AC0
:1009F000DC05D8B77C3C611176EC2DFE86088715A6
:100A0000A3C01CB46A8D9EBF9AD5C85B051810158B
:100A1000FBC63CEEC5524B313607B94C81EA83D751
:100A200082FEFC43594E20BDD365CF1F5C711FBFB2
:100A300026EC44EB0174823C8E60DF479031177ED8
:100A400016C0EC1EC33A7A5921A29B8E8725D3FE8D
:100A500085DD6DE6D8CA74BADB4230963D862286C3
:100A60006FDE371A932F032EE16E1662C1E12DFE61
:100A7000CBA8DF6405EF23BC71617B1B602227BD1F
:100A8000C6A37207AA09B052F219154DBEAF263B94
:100A90004D62A63C41077A34253CD6CDB6554787F2
:100AA0001ECBCFCED20D95C0D872A6E033242651EE
:100AB0007E71C7533FD4677352CB785A00111571BA
:100AC0005F8D3CCF40CDD97430D9A13FC658BCBE54
:100AD0007818319A3960BB8D7B3495A5F1543BB9B8
:100AE0008599AFC445EB64A76E5960EB1E7AFBFD98
:100AF000924323F127AC661266288A5CF6C63F76DD
:100B000004E80927ED05AA26E5B4AD40BAF7F48458
:100B1000CB7F07108DB6C7D477EABA962A98F056DD
:100B2000D7FF504D59793D41E0FAA99D3EA6D979AC
:100B3000C80DD156C5ADD7FB703CBDF3E95D1C5364
:100B400093331DF81BEE9FB750AC8F485961C98590
:100B50009EC8B0D27439DF33F528E06311A7C4050D
:100B6000BD3AD934CAF9AAE200E6E638573EEC1994
:100B70007C0D2745C552C4FFF469C5F573734FE377
:100B800007C7CF38235B9C99A26A72B03539C10A76
:100B9000C71C1A3060181D2BF0C8F179A394E336F6
:100BA000359369059107126044FDB6C6FFE0CFA2F8
:100BB000CFC2A358AC32E32EEC0D9D1BFB0540BA0F
:100BC000678ECB38D7609CFE9EA170CC40728C8C17
:100BD000507185DD84925CEE44B6E0801532DD1BF9
:100BE0004B8C6E8E3997A5AFC6F42985D385938536
:100BF000C854E4591D4EA0FEC507C1F73252F94D45
:100C00004585FCA0FA37B59D47E852238D9287436E
:100C1000B4B84F951B1E4FE545BFCEC80CB27DE75B
:100C2000D92E88B72A61E12DC4212EB84DFD218728
:100C3000302511EC1F299431D292853817DA634D93
:100C40008CB4065564B76CFCC28D5D978609D3439E
:100C500069E83577CCAF91363C7CA36E4E4AA2C989
:100C60004150EAABDF8704704F16F5A038F56016E7
:100C7000CD0CE5C7E3AD00126B12853C5C7F76EDD1
:100C800049F29D8FDFABE1DD8701ED2C1B4B551148
:100C90007FC392D391C1D8A737C7E55B482BED310D
:100CA000DECEFB95000000000000000008E3518448
:100CB000000B4D2673118B1EE200000000000000A7
:100CC00000040473E072FFE659C90000000000044C
:100CD00048BFABF399877C07000000000004FB339A
:100CE000B163616112AD000000000008AA30AC17CA
:100CF0004D3086BF6713F1A7000000000000000020
:100D0000041B48422384BB7FB4000000000008A6F7
:100D10009F43785CA14E8BA6E67C49000000000052
:100D200000000001F7315D273000000000000000E6
:100D300000010B570B79F7000000000000000002D3
:100D40004433BBB45BC70000000000000001ABE30C
:100D500001C2D20000000000000000017A079EAD31
:100D600084000000000000000002F1EEF7D82950D6
:100D700000000000000000012C35543ACC000000B7
:100D8000000000000001C93D666A980000000000F4
:100D9000000005247AF71C2440EBA24DC266C83738
:100DA0002C030FF301066D9A42F0948FEDBFE328F8
:100DB0003B72693775B4A09A6E31FD665BCBF3BAAE
:100DC0008CA431FFBA7C2454D3C6638993E4EDDA52
:100DD00058474EB58FD793FDAF31EAB4ECC9057DC6
:100DE0002B1596C1007E80E6F747CD6A77F10E5944
:100DF00013AA5C838870DCC4525220B6692D6C6CD7
:100E00008B662ACD5A4130D6FB7BA0EC7A22887CB7
:100E1000716EAF6206F4A8C688857636C5C0D867FD
:100E2000967CE84DD4FBA96F0FB2A7A3196A30FDD9
:100E30006FFC2BCEA41B8E574851C6980FE5087B3C
:100E40004DFC59DDCF131B310C5E3B98E1F4C341DF
:100E5000D7A2645E16F9EBAE20E95D54BD99D3A725
:100E6000C1D9E53222D69F4FDD6B3C6DE94D9652DC
:100E700011DA2386BE01C451C29CC6F52F1FD0F1E2
:100E8000F55782FECBFB4ADF1D0046B8A73A5666EF
:100E900008714E47F827265F6CD8C305990A758FED
:100EA0004FC18872A05A1308A382842ECEB5A346E0
:100EB00005D66A7856442386F2C963088BBDEE5680
:100EC000D4361F375318E7DA1CFAD005D55FE7B7D9
:100ED000AD362BCB06C053F432A8756FE3C9A1B071
:100EE000A6E6C2410F5D2E0A64504692495B2D0072
:100EF0002EB5213F0B4A719688844C98AA2823EB83
:100F0000EF455C6278D6E4FB6DC3D9356CB92AC66F
:100F10007471C40C657CA3F96E2DB986B00463941A
:100F2000CF267D9E1EF799DAE08CDD86F3C8F1C6E8
:100F30004E155DED34BB90CDD626091EF6238451A7
:100F4000C1AE428F8496C957AE16363A298765B22C
:100F5000BA5696D2F509EF304A0F6236FE0030BD20
:100F6000091B50C33C48D725E18EB26F4D752DAD9E
:100F7000C61EBAFA4F41AF7A6FA0A04FB688346947
:100F80008A9E837A60F3A87E392A209C325E7DC4D3
:100F9000AA97E6263542A1A0EF39B31C2763D27F7A
:100FA00075C01EB4FA4D7A818139E0792F94A52855
:100FB0003A437E97B594AF2A10380A7F4991C06CA6
:100FC000659AC6C95DD552469874AC93E421B0EBDE
:100FD00008FAF4412EA6F9C5EDE33798C5DF528231
:100FE00041A2F2561AF3A4C6408DB95FAA751E1528
:100FF0001E68782B2BF43EC7CBF31360E0F48579A1
:10100000880C227587B751E0D6E3A092D3D7E36C62
:101010005B3EB780E748D6D92F49CC75A004C948B4
:1010200088E9CC3241AF30DEC6BC9DF7FCFF6903D6
:101030005058A1D6B87B5E60FCCC0014AF3A30416A
:10104000B34E634795E4BD5374D0F002B4FE481923
:101050006C3F23F79B4411F2C245A637776C1063AF
:101060000E1BA7D196CA0D4F5B4351D614B723E789
:1010700099A49F4C7DD7DD0811844D5CE9609004F4
:101080008B1490F06F26450F208CE36F4678EB129F
:10109000B45EF0DEEB222762784293BCE848C08859
:1010A000BD0FDE232BD1880AE2B4338E613643585C
:1010B00042AE6BD7F2FE0AC126947ACE8C3B435ADD
:1010C00062EF708AFE4DD237DBA1B1061B30174CA0
:1010D000A0241EBECB64E2CE135CD705A6763938B9
:1010E000F3852C160EB3E23DFF79880B93EFAD55D7
:1010F000CDB4EF8FB8167A05C05E920F4F9858D4D2
:1011000022AD4325317852C69ACA5EA64E79979A87
:10111000BBDF6DF1E2D0B3CA2A5C46825C1EDDD033
:10112000C519892B2CBDC084D9333967E4E47926ED
:10113000B69D1C1DE470A5A76189254A57337D0D16
:10114000CAF3CC22AAD7D9CBE6B29646159568D871
:101150000FDF6B36DA198216CE384ECFF236C880E2
:10116000075388042FB214195DC56CEF959C608BF2
:101170006AE4FC9DB29CED1D9C1BCAA326DD9C630A
:101180005B3B882BBA2235240148EEA04F6E964E69
:101190002991AAAF5647BD7BDDA15599D8B5A14786
:1011A000937BCD7BCF65DE5018F20549F199D89439
:1011B000213F7D52C6B1B4E19FF07E60648B30E484
:1011C000AD2C97FB47F70901047BF4F7A7A804A50A
:1011D0007F0858796D26276AD0D9AFC1C71223E19D
:1011E000AE98A40FBC1BFA9D910B1515A524531A9C
:1011F00013E0C30095389C364CCFF6A9BCC153060A
:1012000004F46FBF57E0A614A649707F392A4A5AE2
:10121000593633B90D4725393704777C45AC1993D6
:101220002549E07A7BA2C695768D3C79B1A7C38328
:1012300063032347D7ACFB84166F22490B97AAD5CB
:1012400038575E2BBBA749EDD2D57A96BE8DF5F9FE
:101250004656F52FA7A87AFF3FE7E88CF148E84605
:10126000CB4D25F935932FCE8BB8A9C5D3D2277195
:10127000866F72D9CA4E90D36DB13CD3CBC9303A88
:1012800026459D66445C5FD8E3907C1BD882DDD305
:1012900084D4C61B58BF02A53B100A3EE309940B39
:1012A00099882B47A79089C4482536DB7231ACF565
:1012B000A30115D0E62161EB5972DC94000098F788
:1012C000B0F9FAC10A7EDC69CE905E82110B97E21A
:1012D0009955A23DFAEB88BC4DC2548D5FDEA3E266
:1012E00048132046C5A08104C42B9A8415B89E9B40
:1012F00062A1EC7D083CAD214B89FCC6967C3A414D
:10130000358A13BD1B43BF367A4ECE709E2AF639FE
:1013100033C7334B347D2A81FA252EC5C4A1280E4C
:10132000D54D15E069127119AAFF5948815653C964
:1013300035124D84699136D8ADF754D58CF9C684F1
:10134000126222F1B92B1DA57C567A4D5AC4F09D2C
:101350008F5DB59A7FE7B7A85D6D3700000000E4A8
:10136000F2EA7A73F8FC6717F3D960090E8B0FE283
:10137000F98361DF5369D0EE4251B5514864F8DD1D
:101380003EEEA747F07C4BBB2B8EE28B6057634B46
:101390009BAA6763EAA3D57C4341A95474D286C350
:1013A000114269C5093E8F94AFC599BBBBAC61645E
:1013B0006101F2D359B1415091166CCC9BEC5CFEAB
:1013C0003BB3EC6ED7F10E5A8A5F1DB0C57654263A
:1013D00007BC66F0ED519A1FE8F751588E1E8099B0
:1013E0001FEED643CCFA2FAE80F2A8A8AE437C8085
:1013F00076D41AD4737461DFBF296F5615930758DA
:1014000092F11DE87B68B2542030012DC5D8FD61F2
:1014100050140F584C1A5400127E46990C9DD1A3BB
:1014200004F18217FEFC12E57581AFFF3D08D53946
:10143000874A8EF07AD4D0D6CFA9D6594841C2680F
:10144000E3A435458D141AC4000000000044892C23
:1014500063C8AF7BAC354327BE7ECF56403DA5ACBD
:101460000F97CCD46ED031D7146045AEDF0AAA33C3
:10147000B388E01C26DC00B875C86711A1B5877178
:10148000F94A6AEC3F0E4121C24F928F1753EED5B5
:10149000EA4F917502590000000294E4DA4AB3AAB7
:1014A000A72E9CC780465EBD06331DD85D9F5F7723
:1014B000730A7D386BA70E8F4E7D01DA4474D2F12A
:1014C0007A2F7FE1ECF1A57D033B2F17B6E80D33B2
:1014D0003C2191915B302C11C6586AE4351BB5A8AC
:1014E00047B3FFD0960E484E9737601204FFCBA546
:1014F000F51D409CDF36123DD92A72DAE88BE45B99
:10150000CFE93852EC2CA0F779AD207059206273E6
:101510009CE34609C912D47755074B6A261E5D071E
:1015200078104E4ADA5EF63B9B8DFD48D0BBAA216F
:101530002EF5DF854CA71D1A261BA082867F4B0245
:10154000D2F660C9860C1DBF736986184B44BC7403
:10155000E5821793B50A5608B74A73B804D2142126
:101560005E2CA0E0C2015FDECE642AD8652BF07449
:10157000E354BFA09B50BA02002C95CE2A4FCF2B2C
:101580002B0E9BDD8F675B54A1472E842E24FA34EB
:10159000E05A103BCFAFE2ED28D1176B9A1B496C94
:1015A000FCCB7A74092A415AFFA1F598C60CD2697E
:1015B00083D2C369875E7EBBFCC0D1C117D79BE1D4
:1015C0005370B743D038252649405B57BA4932AAF1
:1015D0009F39AA8E73008513796DF1912F9EA3A078
:1015E000657C7D53B47053016B925F38F1D73D7ABF
:1015F000D607727ADBA165A50741004BEBC5D03B4E
:10160000EB3061420D4BA3D8078B12F5893D7CFB73
:101610002E79A7BCD5BF729AD81539AD2570D16C7B
:10162000B05DBBF43AF66056FAF2A528AE0D76B37B
:1016300079F14BC72E6EB6616222D9A730234521BE
:10164000DE478CEBE54C8B4E79A09D95B305AAAF98
:10165000ECE67473F0DC37AD933B206DA1D8CFF985
:101660007E9EC6BB406456A6187528D2BA78645CC4
:10167000484570358C499A454A6DF29C8D480A61FF
:101680002EE3D4EEA829404B53BB5639CE816CFDD6
:1016900037A0791CC794176C37EA97F4D8D49F9F6A
:1016A000304FE5A408B86BAEB9BC4F612044DF925F
:1016B000DB1E0483C0A12C09D8DF21F0200480AFF9
:1016C0007391BC0EBAE4F79B363C30F1B4BADCFA45
:1016D00065F22B1D184E1662D4AC8B21A5A2F132F7
:1016E000C3C965632D316BB88FE12493870499E6F4
:1016F000BDBA283063DAACC799378A8666B344D559
:1017000084AAA15342A0381E5DF70529E7CA2A0B17
:101710006AABCEF03AF390E6D125A1331C33997D24
:1017200024D17423FC6F7DDBA7E9C2DE17122D1CC8
:10173000B37E880000000000000308757D9A4937D9
:10174000AF60047CBCD31C53703497EBE1CD30798F
:10175000A28694585A99C269D7B232626C0A366925
:10176000B1354841CE79967A0D2D33BF4D2FB8D87B
:10177000B3FBE47193B9180D51ABBB09D90DD76711
:101780001E4728C7F7CE605828235E95FC2BDBF94F
:101790000D1FAB49E6D0A7377920E4CF05E36421DC
:1017A000ACDFB1E8F9E04C3B5E89682A48C5640EBD
:1017B000DBF1538B1A2FF60C189C529B212E4AE713
:1017C000D6BBB71A0A22AB4AFDD3027D21FFB90E60
:1017D0000F29ABACF4445E0FD5F357E54F61724E61
:1017E000BA55378F9A1CD4B830AF0A951A1386D4DD
:1017F0000A835C991B2BC093F513F5EAFB6F757494
:101800006C2E77C344C53862B9F5AC58B4966EA453
:10181000A545B51B7C9D219516EE29572012BBF8D6
:101820000A2325AC51FD7AE09D43B0276F2ADF04DF
:1018300008D3F11D3C128DAFF2D7B9029D46E3AB40
:10184000FF61C8612B19C8C1A16D0AA744FAB5A8E8
:10185000D71E53156F7A4841E930B5ADE2F07040BC
:101860006AF331DD1950E5BCB43D839FDFC82527FD
:1018700090405B32044781FA53B40A40157A745B96
:10188000DB24AB3AB791E344B747073990D2F5A9C7
:10189000084658DC3210A347320445441371AC2E7D
:1018A000A7C971D0F9517ECAE509A81E775B3A082D
:1018B000AA431CD68D6091466D64569E162ECEB3FB
:1018C00099C8F655271384BC8AB3C8F51A72F76A0B
:1018D0000C46952F4A86B6D29894F1C3370E0C87E2
:1018E00011567EAFDA22296FEBFAEC96E0276B42B5
:1018F000A170091AAD4888DAFCE13B629528567060
:101900002803B258678D0AEA9A1595515F83070933
:1019100020BF37AFF70A743CA552F1E3F55830E128
:1019200017DE98F1387BF0AFBD165952996C747080
:10193000487714FF534184BCC5372F71843DF54669
:101940007C63E000A05607F78C6357BE545CE1FD52
:10195000AC35FAC2D5F25ABE7C318EBDDBFE4D03EA
:101960006F5EA61F232DCA68F0C614CCC33EF021BB
:10197000D4402A72B67EE285D68AFB48512777E4A6
:10198000CBCD2FF6E1BCFEEDA1145FE532FCCFD943
:10199000FB2FE9AD7D2D68E79A15956A4AE4ABE423
:1019A000EBE00D40BDEF8FB975B439086DC09F04F1
:1019B000FFCCDE13304EB6E4E0CB69E5C61C2F4306
:1019C0006A632572D5DFBDDC0BE9089D3D266FC338
:1019D00089F818AC42BF4E9D5D28B0264136768D01
:1019E0008684FAD8D467581969202D35FE09D98C18
:1019F000FDF921A157DF17AE8ECBC97F2654DE102B
:101A00004372DDBC18B934F9AB70F9744D8E6D2A90
:101A1000331406D071E6ADAABE862E9A8D8788AFA4
:101A2000039FCBF8789A663809CDAE89C2CCAF6AED
:101A300016140948AE9B55E40FA586A1757F7CEF6F
:101A40000DCB3AB30D1F020000000C801FB4F4E070
:101A5000A641CC8700406143E7FCB40000000124AC
:101A6000CA4534253C39FF098C39855A5BCC273C63
:101A7000BD28438645179A4E3524A423A2FDCA6C7F
:101A8000D4FBBAE741B3FB7C5507B56E3EB1297272
:101A9000CC38EA273080B98CB8EE54AB3EDBDD069B
:101AA000D095EA3E42886BAE89C7E84C38B693F6CB
:101AB000BE4C204A8CCE2B22D272494618568070DA
:101AC000675AFAC0CA6D5321CAE3866891D37CA9CC
:101AD000D5AD6A72A1FE53E94085EA62A963753A01
:101AE0002DEC9BFE58D873205210435C2DB421B9C5
:101AF000961F726DBA42EAF285BE5212A7B13E2B12
:101B000089EF0F73057C99C3C55F9653F8AF9B7A35
:101B100049A044546055F0103A608D905065AEF77E
:101B200079DB2E08F9BBF2D278D086B594A10EB934
:101B30008189B7F9C043E88F3819DAED2FA75CDB4C
:101B400001B338CEE6C3F2D5AA879E116FD805F04F
:101B500072ABD9A10FFF46E94A8C0093E9866F6BFF
:101B60001470BEB1B889C9CC7D1A11D279FBD9D70E
:101B70002413948F019C4B69336601829888F84C3A
:101B800013310F58C106113000000000B4899134A0
:101B90009B89FC75CD11CA1A6FFA71D645E70FEB18
:101BA0003909B35A131FAA3A93CF8D6ECAEC2C8E03
:101BB000C5831B5AD6D189AC024FCB0F257696E050
:101BC0005D2CFFA7EAEA92F1725BEE08D8848AA93D
:101BD00059E31277DAD6CA4E362D7CA413D1E81811
:101BE000319902540AD07A74A0AD2C834A6FF1B1B6
:101BF000501B6469E8842F2CC8EB953DA518C74B92
:101C000082FC88E1D37B0EBE10BA6502859B469AA2
:101C1000377A774DC2C45330679154F63D39444307
:101C200042132E0929FD50A6DA94CE8697102B5C1C
:101C30001C09CD0FFC15DC543B53E17CA7E1FD47AB
:101C4000C2AF7EEA34000000000C6FE65C04306C2A
:101C500084C751E3B55F349EDD05000000000C1C15
:101C6000D4BCFBCD3AAEBC529254852CED0FFB0098
:101C7000000000F873105DD81F06E0A15926B439A2
:101C80003FC119F9D4BE4FF433EC3F3FFE8F91D0E2
:101C900044F21278909E79A927EE05CB9F5A4B15F6
:101CA000DE6739181FE73A0A4198E7DEA728A0D374
:101CB00054663379B53A83375F25407047B8796BFE
:101CC00062963F48EA9F6ECB35E16F2DC4C24B9BB5
:101CD000A74D05790E1CFE095A9F87227A131B9F78
:101CE000994D05DB1573D865FE395EA4437B6C798D
:101CF000BD73914C9B4C941887EA68A7449F5C364F
:101D000066FD41145EB18EEB45DA770EE0EC5EF4D1
:101D10000DBF41C648F015D860F74076237B1CE51F
:101D200059445030CE064EC5A670C31817A237AC22
:101D3000BF2C6FBC9B3F58121110390018DB7D0B74
:101D4000D22CEE0AAF76947AC15C21D2619F1D7AC3
:101D50009695DFA45181E61BD57C3644F060FF3AAE
:101D6000F632EC8FE09AC7E3BCADEBA694714B6DF5
:101D700000000000000038974C36A275FFFB3FEBD7
:101D800060E131B1BC32776CBD49934BC207BAF008
:101D900067FD68CAF5A4FF2A5EE2BEB569B2A0631A
:101DA000931BB4BD4612FAEE885F46DFB2BAE8BABA
:101DB0005447EA000018FA0891779B1C878B017042
:101DC0009EC0052BAAD7AF30A8018B28A0F5959906
:101DD000325F00000000000008C4EF65453CC36DA1
:101DE000EFB8349D1C00000000000000000466866F
:101DF000F2BC9D8797BE000000000008DD58DD534F
:101E00000F7DEC930BB95BE30000000000000000C5
:101E1000087615DFC7682FA8F84D338FAE00000095
:101E200000000000000884C3E8CB9C718009D71132
:101E300063210000000000000000040EC6F0509E68
:101E40000AA7990000000000149A5AF9AA5F06DF59
:101E50005C52374B390C7E18C1ABD636F578BD9F36
:101E6000790000000EF233610EC30B5A24023F4288
:101E7000353DA4ADC53050000076E7E3450866184F
:101E800021EBDD1476F8F155E83B9D8B9392FFA78B
:101E9000803438C2AD7CFFBD232B0B2C5FEAC0958C
:101EA00000FB8C376B8A42913EEFD65143216F8005
:101EB0003EBDF2B32407A5924A76513172354725CB
:101EC000E7B9D0F4C2DD52353A23C416FA2A8D9907
:101ED000D0B953C2125C3FCE8DDBD1C8D159E58851
:101EE000FF4911ABAB7BD1F2B43749A0B1FEFE6C18
:101EF00008761D0B0000009AF4B16DA0F220E417E3
:101F0000A74D85B38E7ACB8730AF119020A819EA00
:101F10002207FAC14CE8FCA2038F2AC536E4AF665B
:101F20009BBA0ADD6590DAD72762D9193BABF66612
:101F3000892DA53070E9AAE2D9C12347FD9A254A27
:101F40005F896297614B91FC341BFC97B27B87F4ED
:101F500054FCD63648C28779A3C48F42B13147DDDD
:101F6000E8D00A714722F3F49F287A700CBC5930EC
:101F7000E0E4132465BD4C0E6D9E4D15901972C999
:101F800028B6950E92F9795C64B9B97BD7DCB4B9FF
:101F9000B4967F7255AE00001EB0028E45BDF0A50E
:101FA00090B7301240B6409CF16263726DF0BA1A7D
:101FB000F6F0406A47A2FC9BD870190000000000B0
:101FC00000001AF524F64D2F64FDF7C3FDA7455D0B
:101FD00094318FD69F5D216641D43951AF618C1EFB
:101FE0009F000000000611E97A8831E126B61C74D2
:101FF00000000006F59835171AAB193A8CC6000098
:10200000000E7E14D06E441C666167F18E2872301B
:10201000D2BF7D6F000008179962EE7818543AD548
:102020007F61AC000000000000000010833E2C9295
:102030004F5A985997FB8297ADC873A26C0D06CF83
:10204000000000000000000A69DAEB9EF7677FDEFF
:10205000E8830B465A3F00000000000002B3607F97
:10206000DCA3FF00000000000000148ECFA2657208
:10207000CE3E11392D9494478EC78C706B7C498E5F
:102080003CD74C00000002C877A5FDBA9A000000BA
:10209000000000000A1A1BD94A8303DFE2756E288C
:1020A000D9631F000000000000021827278F4BE7AC
:1020B00000000000000000000000A90200187F31AD
:1020C00001187F1E04187F1B05187F0E08180014C6
:1020D0000918003CAED5808D142001A1C8817FDB9A
:1020E00040A6AF4D4F44204E4F2052445300415420
:1020F000532D32302A2056362E3100454550524F4E
:102100004D205245534554000000580284030807EF
:10211000100E000000000000442A3C542200082A4F
:102120001C2A080008080808080000606000000079
:102130004020100804003E4141413E0000427F40E3
:1021400000004261514946002141454B31001814BD
:10215000127F10002745454539003C4A4949300067
:1021600001710905030036494949360006494929E4
:102170001E000036360000000041221408007C12C8
:1021800011127C007F49494936003E4141412200FD
:102190007F4141221C007F49494141007F090901DB
:1021A00001003E41594932007F0808087F00004184
:1021B0007F4100002040413F01007F081422410080
:1021C0007F40404040007F020C027F007F040810E7
:1021D0007F003E4141413E007F09090906003E4122
:1021E00051215E007F0919294600264949493200DC
:1021F00001017F0101003F4040403F001F2040207F
:102200001F003F4038403F00631408146300070874
:102210007008070061514945430000007F0000003D
:102220007F10284400007C04180478004464544C57
:10223000440000FFFFFFFF01FFFFFFFF02FFFF035E
:102240000405060708090A0B0C0D0E0F10FFFFFF0F
:1022500011FFFF12131415161718191A1B1C1D1E37
:102260001F202122232425262728292A2BFFFFFF90
:10227000FFFFFFFFFFFFFFFFFFFFFFFFFF2DFF2E11
:10228000FFFFFFFFFFFFFFFFFFFFFFFF2FFF2CFF01
:10229000FF00000000240027002A000000000025A5
:1022A0000028002B000404040404040404020202B5
:1022B0000202020303030303030102040810204087
:1022C0008001020408102001020408102000000010
:1022D00008000201000003040700000000000000E5
:1022E0000002000A010B020C000B110C00021E0A76
:1022F0000100110C0000020C00020F0A01011E0275
:10230000013F065B4F666D7D077F6F806C30112447
:102310001FBECFEFD8E0DEBFCDBF14E0A0E0B1E03C
:10232000ECEAF0E702C005900D92A436B107D9F7A8
:1023300026E0A4E6B4E001C01D92AE31B207E1F799
:1023400011E1C7E8D1E104C02197FE010E944E3897
:10235000C638D107C9F70E940A310C9454380C943E
:1023600000008093BB0084E88093BC008091BC0097
:1023700087FFFCCF8091B900887F803231F481E003
:1023800080930B0481E090E008958033D9F781E0D9
:1023900080930C04F7CF0E94B111089594EA9093B2
:1023A000BC009091BC0097FFFCCF90E0880F991F74
:1023B0000E94CB11089580910A04815080930A04F1
:1023C000882351F084EC8093BC008091BC0087FF8F
:1023D000FCCF8091BB00089584E88093BC0080917D
:1023E000BC0087FFFCCF80910D04882321F084E995
:1023F0008093BC00EECF84EA8093BC008091BC0047
:1024000087FFFCCFE6CFCF93C62F21E020930D04AA
:1024100060930A0424EA2093BC002091BC0027FFAB
:10242000FCCF880F991F8E7F917081600E94CB1125
:102430008C2FCF910895E42FF0E023E0F595E795F8
:102440002A95E1F724E0629FB0011124E60FF71FFF
:10245000E80FF91F477021E030E001C0220F4A95D4
:10246000EAF78081822B8083089590E0FC01E3539A
:10247000FD4D2491FC01E754FD4D3491FC01EB55D9
:10248000FD4DE491EE23C9F0222339F0233001F110
:10249000A8F4213019F1223029F1F0E0EE0FFF1FEE
:1024A000E556FD4DA591B4918FB7F894EC9161116B
:1024B00026C030953E233C938FBF08952730A9F066
:1024C0002830C9F0243049F7809180008F7D03C007
:1024D000809180008F7780938000DFCF84B58F77E5
:1024E00084BDDBCF84B58F7DFBCF8091B0008F772B
:1024F0008093B000D2CF8091B0008F7DF9CF3E2B7A
:10250000DACFCF93DF9390E0FC01E754FD4D2491A7
:102510008B559D4DFC0184918823D1F090E0880F6C
:10252000991FFC01EF56FD4DA591B491FC01E556B4
:10253000FD4DC591D491623071F49FB7F8943C91F0
:10254000822F809583238C93E8812E2B28839FBF35
:10255000DF91CF9108958FB7F894EC912E2B2C93A7
:102560008FBFF6CF62E082E10E94811262E083E1D8
:102570000E94811288E48093B8001092B9000895F7
:102580008E3008F08E508770806480937C0080913C
:102590007A00806480937A0080917A0086FDFCCF77
:1025A000809178009091790008953FB7F8948091D8
:1025B000260590912705A0912805B091290526B5FB
:1025C000A89B05C02F3F19F00196A11DB11D3FBF6B
:1025D000BA2FA92F982F8827BC01CD01620F711D3A
:1025E000811D911D42E0660F771F881F991F4A9534
:1025F000D1F708958F929F92AF92BF92CF92DF92C0
:10260000EF92FF926B017C010E94D5124B015C019D
:10261000C114D104E104F104B9F00E94D512681983
:1026200079098A099B09683E73408105910580F309
:1026300021E0C21AD108E108F10888EE880E83E093
:10264000981EA11CB11CE4CFFF90EF90DF90CF90BB
:10265000BF90AF909F908F900895CF93DF93C1EC80
:10266000D5E061E088810E9481126AE070E080E03C
:1026700090E00E94FA1260E088810E9435126AE0C0
:1026800070E080E090E00E94FA1261E088810E9490
:1026900035126AE070E080E090E00E94FA12DF916B
:1026A000CF9108952FB7F89460912205709123057A
:1026B00080912405909125052FBF08950895B0E0DD
:1026C000A0E0E5E6F3E10C941F386C017B018B017F
:1026D000040F151FEB015E01AE18BF08C017D1072C
:1026E00059F06991D601ED91FC910190F081E02DB6
:1026F000C6010995892B79F7C501CDB7DEB7EAE0A8
:102700000C943B380F931F93CF93DF930BEA14E0A5
:10271000EC01C457DF4FC8010197F1F761E070E0A9
:10272000888199810E9403120E94DB1187FFF3CFF9
:10273000DF91CF911F910F910895FF920F931F93F7
:10274000CF93DF938C01EB010E945213607F737073
:10275000D801ED91FC919F012F703327AF01407F8D
:102760005370FF2EF694F694B7E0BF15F8F089B1D8
:1027700090E00F2C02C0959587950A94E2F781703E
:102780006417750708F47C5FDB01A41BB50B2330CD
:10279000310591F1E8F42130310549F110F1882338
:1027A00009F469C0A034B10520F519C0AF2DB0E01F
:1027B0008DE08F1548F083B190E0189702C0959591
:1027C0008795AA95E2F7DBCF86B190E01E97F6CF0A
:1027D00025303105A1F160F126303105C9F180E0E5
:1027E00010C08111FCCFAB0121E030E00AC088238A
:1027F00099F130E020E0F3CF811131C0A034B14035
:1028000090F5EE27FC7FE22BF32B407F53704E2B8D
:102810005F2BD8014D935C93882379F1209719F0B1
:102820006F2DFE010995CDB7DEB7E5E00C94403879
:1028300081111EC0D09728F3AB0187E0E2CF24E0DE
:1028400030E08823F1F2AB0122E030E08BE0D9CF19
:1028500022E030E08111D5CF23E030E0D2CFAB01D0
:1028600026E030E0BCCFAB0124E030E083E0C9CF0C
:1028700025E030E0B4CFAB01C4CF2330310598F26E
:1028800088E0D1CF0E94CE1180E490E00E94CB116D
:1028900008950E94CE1190E080E00E94CB1108952F
:1028A000AEE2B1E014962C911497ECE0F5E02083B1
:1028B0005C969C915C97928354968C91848321833F
:1028C000938385830895F894E1E6F0E090E890839F
:1028D000808378940895F8948091CF04811103C087
:1028E00086B18095817078940895E091B20381E17A
:1028F000E802F0011124EA52FE4F818592859093FF
:10290000E5048093E4040895E091B2038091E40427
:102910009091E50421E1E202F0011124EA52FE4F18
:10292000248135818217930738F026813781281753
:10293000390710F09287818708959CEF960F9230A7
:1029400030F06A50623018F0833009F481E0089565
:1029500089B199B1E091F704EF7086958695827000
:1029600092FB992790F9892B94E0E99FF0011124BB
:10297000E25FFB4FE80FF11D87FDFA9580818093A0
:10298000F704807369F0F894803159F08FEF9FEF6E
:102990009093E7048093E60481E08093CF047894D9
:1029A000089581E090E0F4CF98E0899FF001112430
:1029B000E25DFE4F948181E0891B8483089580E16C
:1029C0000E94D41408958CE00E94D41408958EE0DF
:1029D0000E94D414089581E00E94D41408958DE0DB
:1029E0000E94D41480919A010E94631408958FE08C
:1029F0000E94D4140895FC018081280F261714F436
:102A000040830895421714F0208308956083089549
:102A1000282F44E060E08AEB91E00E94FB140895C7
:102A2000CF93DF93EC01462FE091B20381E1E802FE
:102A3000F0011124EA52FE4FE485E95FF0E0EE0F69
:102A4000FF1FE45FFE4F8081918168EE73E00E947A
:102A5000A437FB01309779F028813981C9010E94A0
:102A60009037009741F0442311F02E0F3F1F281B91
:102A7000390B39832883DF91CF9108950E94521337
:102A800028EE33E040E050E00E94B8373093F30482
:102A90002093F20481E08093F40408950E9452137D
:102AA0001092E1041092E004089580912D01882392
:102AB00029F090912D0181E0943008F080E0089594
:102AC0000E94551590E008958436910520F40A97E8
:102AD00058F481E00895803127E2920738F4883E67
:102AE000934030F483E0089582E0089585E00895EE
:102AF00084E008958F929F92AF92BF92CF92DF921F
:102B0000EF920F93CF93DF93EC0131E0211101C0DD
:102B100030E0340FFE01E30FF11D1082F0E0E0E041
:102B2000842F821B990B4C018AE0A82EB12CE4174C
:102B3000B8F4222341F08E169F0629F43150DE01AD
:102B4000A30FB11D0C9331506E01C30ED11CCB01EC
:102B5000B5010E949037805DD6018C933196E7CF06
:102B6000211101C0242F80E02150330BE82FF0E029
:102B7000E217F30744F4EC0FFD1F9081903319F432
:102B8000E0828F5FF3CFDF91CF910F91EF90DF90D5
:102B9000CF90BF90AF909F908F900895089590E050
:102BA00080E008958F929F92AF92BF920F931F93F0
:102BB000CF93DF93CDB7DEB7A1970FB6F894DEBF02
:102BC0000FBECDBF19A2423008F44AE08E010F5D5E
:102BD0001F4F842E912CB12CA12CA50194010E9491
:102BE000B837E62FB901CA01EA3044F5E05DD801F3
:102BF000EE938D01232B242B252B79F790E080E099
:102C0000109769F0FD0101900020E9F73197AF01BD
:102C10004A1B5B0BBD018DE096E00E945F13A196FD
:102C20000FB6F894DEBF0FBECDBFDF91CF911F91DD
:102C30000F91BF90AF909F908F900895E95CD7CF90
:102C4000009771F0BC01FC0101900020E9F7319779
:102C5000AF01481B590B8DE096E00E945F13089569
:102C600090E080E0089584E98093BC0080910B049B
:102C7000882331F010920B0410920C0482E0089526
:102C800080910C04882321F010920C0483E00895B5
:102C900080E008958AE295E00E9482138091B60553
:102CA0000E94CE1182E190E00E94CB1190E080E082
:102CB0000E94CB1181E00E94B11181E00E94B1110C
:102CC000809106060E94B111809105060E94B11103
:102CD0000E94331683E998E00197F1F7089587E0A1
:102CE0000E94D4140E945515882351F08091060645
:102CF00090916A0190FB85F9809306060E944A161E
:102D00000895E091B20381E1E802F0011124EA5252
:102D1000FE4FE7850E2E000CFF0B90917A018091FB
:102D20000506992329F020912D019150233051F46B
:102D3000EB5BFB4F2081222321F0245091E02230D5
:102D400008F490E09295907F8F70892B8093050610
:102D50000E944A160895282F42E060E08AE791E039
:102D60000E94FB140E94551581110E94811608953E
:102D7000CF93DF93D82FC92F8AE295E00E94821368
:102D8000D093D505C093D605C093D805D093D90567
:102D900090910B06992361F08091D7059295990F38
:102DA000990F907C8370892B81608D7F8093D705EC
:102DB0008091B6050E94CE118091C2050E94B1118A
:102DC0008091D7050E94B1118091D8050E94B11160
:102DD0008091D9050E94B1118091DA050E94B1114C
:102DE0008091C205803421F48091DB050E94B111ED
:102DF0000E9433168AE295E00E948213D093C705A1
:102E0000C093C8056091B8057091B90590E080E065
:102E10000E94FA12DF91CF910895CF93C82FCF70FF
:102E20008AE295E00E9482138091B6050E94CE113D
:102E300082E190E00E94CB1190E080E00E94CB11F3
:102E400081E30E94B11182E00E94B11181E00E94F1
:102E5000B1118C2F0E94B1110E9433168AE295E0C5
:102E60000E948213CF91089580910C0687FD07C0C0
:102E700061E00E9435128BEA94E00197F1F78AE253
:102E800095E00E9482138091B6050E94CE1181E1E7
:102E900090E00E94CB110E9433168BE097E20197DD
:102EA000F1F70895B0E0A0E0E8E5F7E10C941E38F2
:102EB000EC01162FFC01E856FF4F8081803261F053
:102EC00098E0E92EF12C02E4803451F026E0E22E65
:102ED000F12C02E5803521F088E0E82EF12C02E2A9
:102EE000CE010E948213110F12706E018CE8C80E81
:102EF000D11CF60180810E94CE11802F0E94B11159
:102F0000812F0E94B1110E9433165E01FAEBAF0EC1
:102F1000B11CCE010E948213B701F601808191811C
:102F20000E940312912C092D10E00E151F0554F478
:102F30000E94DB110C0F1D1FF801E654FF4F808328
:102F40009394F1CFF501808186FDE3CFCE010E94FD
:102F50008213CDB7DEB7EBE00C943A38EF92FF92D4
:102F60000F931F93CF93DF93EC01F62EE72E142FD0
:102F7000052F0E948213C457DF4F88810E94CE1113
:102F800082E190E00E94CB1190E080E00E94CB11A2
:102F90008E2D0E94B1118F2D0E94B111802F0E94A1
:102FA000B111812F0E94B1110E94331683E998E07C
:102FB0000197F1F7CDB7DEB7E6E00C943F38CF9339
:102FC000C82F482F50E060E070E48AE295E00E944C
:102FD000AE17C0930906CF9108951F93CF93DF9347
:102FE0008AE295E00E9482138091B6050E94CE117C
:102FF00081E090E00E94CB11809107060E94B11100
:10300000809108060E94B1110E9433168AE295E071
:103010000E9482136091BA057091BB0590E080E038
:103020000E94FA1280910C0687FD07C060E00E94A2
:1030300035128BEA94E00197F1F78091CD0581116B
:1030400022C0C091D005D091D105AE0161E072E0FF
:103050008AE295E00E94AE17D093D105C093D005C7
:103060001091D405C091D205D091D305AE0162E094
:1030700072E08AE295E00E94AE17D093D305C09328
:10308000D2051093D405DF91CF911F91089594EF4D
:10309000980F9F3478F48093CC0524E531E0829F2B
:1030A000A001839F500D112463E071E38AE295E053
:1030B0000E94AE170895282F4AE56CE082E491E063
:1030C0000E94FB1480912D01843021F080914201F7
:1030D0000E944718089585E00E94D41480912D0124
:1030E000843069F480915A0142E0811101C041E0CD
:1030F00050E060E071E18AE295E00E94AE17089529
:10310000282F4FE360E082E591E00E94FB1480915C
:10311000C205803249F04091520150E063E073E310
:103120008AE295E00E94AE170895282F40E260E001
:103130008AE491E00E94FB1480912D01843049F0D3
:1031400040914A0150E062E073E38AE295E00E9418
:10315000AE170895FF920F931F93CF93DF93F090D4
:10316000D201CCEBD0E204ED10E2FE016591749146
:10317000FE0132964591549181E0F81611F0452FE9
:10318000552755278AE295E00E94AE1724960C1722
:103190001D0759F7CDB7DEB7E5E00C94403884E160
:1031A0000E94D41480912D01843011F40E94AA1839
:1031B00008958091CA0150E040E060E079E38130F9
:1031C00021F54CE050E060E079E38AE295E00E946E
:1031D000AE1747E350E061E079E38AE295E00E94B0
:1031E000AE1740E450E062E079E38AE295E00E94A5
:1031F000AE174CE251E063E079E38AE295E00E9489
:10320000AE174CEA50E064E079E38AE295E00E9470
:10321000AE17089583E10E94D41480912D0184306B
:1032200011F00E94D91808954FEF50E060E073E16B
:103230008AE295E00E94AE1744E050E061E073E15D
:103240008AE295E00E94AE1746E150E062E073E149
:103250008AE295E00E94AE174AE050E063E073E135
:103260008AE295E00E94AE174CEB5FE764E073E101
:103270008AE295E00E94AE174CEB5FE765E073E1F0
:103280008AE295E00E94AE1740E150E060E079E10B
:103290008AE295E00E94AE1748E150E061E079E1F2
:1032A0008AE295E00E94AE1740E450E062E079E1E6
:1032B0008AE295E00E94AE174CE251E063E079E1CA
:1032C0008AE295E00E94AE174AEA50E064E079E1B4
:1032D0008AE295E00E94AE178091C2018130C9F563
:1032E00041E050E061E07AE18AE295E00E94AE17A9
:1032F0004AE050E062E07AE18AE295E00E94AE178F
:1033000048EF5FE763E07AE18AE295E00E94AE175A
:1033100041E050E064E07AE18AE295E00E94AE1775
:1033200044E650E065E07AE18AE295E00E94AE175B
:1033300045E550E066E07AE18AE295E00E94AE174A
:1033400041E050E061E070E08AE295E00E94AE1753
:10335000089550E040E061E070E08AE295E00E946C
:10336000AE1750E040E066E07AE1EECF82E10E94E5
:10337000D41480912D01843011F40E941419089501
:10338000B0E0A0E0E6ECF9E10C9421388C01D62FF6
:10339000FC01E856FF4F808198E0E92EF12CC3E252
:1033A000803251F026E0E22EF12CC3E4803521F486
:1033B00088E0E82EF12CC3E5C8010E948213680161
:1033C0008CE8C80ED11CF60180810E94CE118C2F92
:1033D0000E94B1118D2F0E94B1110E943316C801B5
:1033E0000E948213B701F601808191810E9403122D
:1033F000D12CCD2DD0E0CE15DF054CF40E94DB1191
:10340000C00FD11FCE54DF4F8883D394F2CFCDB7F6
:10341000DEB7E8E00C943D38CF93DF93EC010E94D7
:103420003316188283E090E00197F1F7DF91CF9196
:103430000895CF93DF93EC01862F0E94B111888904
:103440008F5F888B803138F0CE0140960E940C1A35
:103450008C810E944214DF91CF910895B0E0A0E0EA
:10346000E4E3FAE10C942238D82FC62FF42ED22EA2
:10347000809111060E94491461E28DE096E00E945D
:10348000191A6D2F8DE096E00E94191A6FEF6F0DDB
:103490006D0F8DE096E00E94191A62E28DE096E0D1
:1034A0000E94191AEC2EE694E694E6946E2D8DE0B7
:1034B00096E00E94191ACD0DDD27DD1F219783E0CC
:1034C000D595C7958A95E1F76C2F8DE096E00E941F
:1034D000191A8DE196E00E940C1ACE19CF5FCF9D8C
:1034E000E0011124809111060E9442147801C00F5E
:1034F000D11FEC16FD0671F060E00115110511F009
:10350000F70160818DE096E00E94191AFFEFEF1A33
:10351000FF0AEFCF8DE196E00E940C1ACDB7DEB71F
:10352000E7E00C943E38B0E0A0E0E9E9FAE10C9461
:1035300021386C018B017A01E901809111060E940A
:10354000491461E28DE096E00E94191A60E0D7FC10
:1035500007C06091140670E0C616D7060CF4B601D9
:103560008DE096E00E94191A6091140670E0E6164C
:10357000F7060CF4B7018DE096E00E94191A62E29A
:103580008DE096E00E94191A60E017FD07C0609177
:10359000120670E0061717070CF4B8018DE096E0EC
:1035A0000E94191A60E0D7FD07C06091120670E012
:1035B000C617D7070CF4BE018DE096E00E94191AD9
:1035C0008DE196E00E940C1ACDB7DEB7E8E00C94CE
:1035D0003D38EDE0F6E0948783877687658723E0C2
:1035E000759567952A95E1F7478150E09B010E9408
:1035F000931A089523E0660F771F2A95E1F70E943A
:10360000E91A0895FF920F931F93CF93DF938A01D6
:10361000F22E70E090E00E94FA1ACDE0D6E0F88633
:10362000C8010E9420161886CDB7DEB7E5E00C94DD
:103630004038EF920F93CF93DF9300D01F92CDB716
:10364000DEB78091F10481111DC08091D1048111F8
:1036500021C06091090670E080E2E82E00E020E0E1
:1036600042E0CE0101960E947A158091170521E073
:10367000813009F020E0AE014F5F5F4F60E082E7EC
:103680000E94021B0F900F900F90DF91CF910F912E
:10369000EF90089580E289838DE48A831B82E5CFD1
:1036A0009091D104992341F0892F1092D1040E9466
:1036B000DF170E94191B089590910906890F803425
:1036C00014F08FE3F4CF87FFF2CF80E0F0CFCF93F9
:1036D000C82F8091D104882341F0C3FD11C0C130AF
:1036E00011F4663069F481E009C08C2F8370833057
:1036F00039F4CB3029F08FEF6630A9F30E94501BCC
:103700008C2FCF9108958091F104811112C0809186
:103710001705813071F0909109068091D1049923A9
:1037200049F0811109C09093D1040E94DF170E94D3
:10373000191B08958823D9F30E94DF171092D10432
:10374000F6CFCF93C82F809111060E94CE1180E84A
:1037500090E00E94CB116C2F8DE096E00E94191A28
:103760008DE196E00E940C1ACF9108958091B403E8
:1037700081111CC0809120058823C1F081E08093D5
:10378000B40380919A010E9463148FEA0E94A11BE6
:10379000109220050E94521328EE33E040E050E0E2
:1037A0000E94B8373093F3042093F2040895809177
:1037B000F10481110EC08091B40381110AC081E02F
:1037C0008093B40380919A010E9463148FEA0E944F
:1037D000A11B0895CF93DF932091120630E0409112
:1037E000140650E070E060E090E080E00E94931AE0
:1037F000809111060E944214C0E0D4E060E08DE0A8
:1038000096E00E94191A2197C9F78DE196E00E946F
:103810000C1A60911A0670911B06809118069091FF
:1038200019060E94E91ADF91CF910895A3E0B0E054
:10383000ECE1FCE10C9422389B838A83FC01278114
:10384000838594850696281719060CF43AC0062F2E
:1038500084810E944214F12CE12CF0EEF00FF983E8
:103860000052110B0E5C1D4D86E0D82E89818F35DC
:1038700070F5F80184918F3F51F1F7018D9DE00DB6
:10388000F11D1124EE5EFE4D6491EA81FB8180857D
:10389000811160958A819B810E94191AEA81FB81BE
:1038A00083859485019694878387FFEFEF1AFF0A3B
:1038B00086E0E816F104D1F68A819B8140960E9449
:1038C0000C1A81E090E02396E7E00C943E3860E02B
:1038D000DCCF682F8DE096E00E94161C0895CF93F0
:1038E00080912D018430B1F48091E80481110CC0E5
:1038F000C0E268E370E088E190E00E94E91A8C2F52
:103900000E94691CCF9108958091D201CAE2882358
:1039100081F3EECF80912D01833039F4809109013C
:10392000C5E5813031F7CCE4E4CF0E9455158823FA
:10393000F9F280918201C3E58130D1F6DACF0F939D
:103940001F93CF93DF938C01D0E0C0E0F801EC0F20
:10395000FD1F6491662341F08DE096E00E94161CE5
:10396000892B11F02196F2CFCE01DF91CF911F91DB
:103970000F910895FF920F931F93CF93DF938A01C6
:10398000F22E70E090E00E94FA1ACDE0D6E0F886C0
:10399000C8010E949F1C1886CDB7DEB7E5E00C94E5
:1039A000403880912D018330F8F4E091B2038130EA
:1039B00018F181E1E802F0011124EA52FE4FE78597
:1039C00045EF50E0E40FF52FF11D4491809117056C
:1039D00021E0833009F020E050E045505F4F67E080
:1039E00088E20E94BA1C08958330E9F3843071F0B4
:1039F000E0E050E040E0E6CF81E1E802F001112490
:103A0000EA52FE4FE6854EEE50E0DCCFE091B20385
:103A100081E1E802F0011124EA52FE4FE08949EE0B
:103A200050E0D0CFEF92FF920F931F93CF93DF938D
:103A300090912D01933091F1182FC091B203EC2E8B
:103A40000C2E000CFF080E94551501E1C002E00198
:103A50001124882341F1212F45E060E0CE018B51F4
:103A60009E4F0E94FB140E9DF0010F9DF00D11243E
:103A7000EA52FE4FE7850E2E000CFF0BEB5BFB4F6F
:103A800090819F7080910506807F892B8093050629
:103A90000E944A160E9481160E94D11CCDB7DEB743
:103AA000E6E00C943F3800912D0101111AC0CC5171
:103AB000DE4F212F46E060E0CE010E94FB14011191
:103AC00016C08091C205803439F7E8810E2E000CB3
:103AD000FF0BE25CFB4F80818730F0F60E940D17F0
:103AE000DBCFCA51DE4F212F219544E0E4CF48813E
:103AF00050E062E071E18AE295E00E94AE17CCCF1F
:103B00001F93CF93DF938091170511E0823009F066
:103B100010E0212F42EE50E060E082E20E94BA1CE9
:103B2000C091B2030C2E000CDD0B80912D0184306E
:103B3000D1F481E18C9FF0018D9FF00D1124EA52A8
:103B4000FE4F85858C5F1093150627E0829FC0018C
:103B500011248E589F4F0E949F1C10921506DF91D2
:103B6000CF911F9108950E945515882359F081E146
:103B70008C9FF0018D9FF00D1124EA52FE4F848539
:103B8000895FE1CF81E18C9FF0018D9FF00D1124C1
:103B9000EA52FE4F8385D7CF0F931F93CF93DF93C6
:103BA000C091B2032C2F0C2E000C330B90912D01E1
:103BB00041E1C402E0011124913050F1943010F140
:103BC000943031F5CD51DE4F06E011E042E0282F70
:103BD00060E0CE010E94FB140115110561F088819F
:103BE000880F990B080F191FF8018081918190931C
:103BF000CA058093C9050E94801DDF91CF911F9156
:103C00000F910895CE51DE4F10E000E048E0DFCF85
:103C1000CF51DE4F91E1929FF001939FF00D11245F
:103C2000EA52FE4F90850CE011E043E0923078F2CA
:103C300046E0CDCFCF93C0918A01809111060E94BA
:103C4000491461E88DE096E00E94191A82E8C89F45
:103C5000900111242455384EAC2FB0E00E94013859
:103C600061E0670F8DE096E00E94191A8DE196E001
:103C70000E940C1ACF91089590918A01890F8A3081
:103C80000CF089E087FD80E080938A010E941A1E73
:103C90000895A8E0B0E0EFE4FEE10C941D383B9AF3
:103CA000439A82E08093B8000E9434178AE295E03C
:103CB0000E9482138091B6050E94CE1181E090E0AF
:103CC0000E94CB118FE190E00E94CB1185E090E043
:103CD0000E94CB110E9433167E0189E0E80EF11C90
:103CE0008AE295E00E94821368E070E08091B60558
:103CF0009091B7050E9403128E010F5F1F4F0E9423
:103D0000DB11F80181938F01EE15FF05C1F7898161
:103D100086FDE6CF8BE097E20197F1F78AE295E026
:103D20000E9482138091B6050E94CE1181E090E03E
:103D30000E94CB1181E390E00E94CB1185E090E0DE
:103D40000E94CB110E9433166091BA057091BB0599
:103D500090E080E00E94FA1262E370E080E090E080
:103D60000E94FA12D12CC12CF12CE12C10E000E0C1
:103D7000F7E3EF16F10408F076C0F701EE0FFF1F2E
:103D8000E95EFD4F85919491C816D90609F06BC084
:103D90008FEFE81AF80A95E1B92E8091B6050E94D6
:103DA000CE118B2D0E94B111B12CA12CF801EB5733
:103DB000FD4F4F01F401EA0DFB1D84910E94B111EA
:103DC000FFEFAF1ABF0A87E0A816B10499F70E9467
:103DD00033168AE295E00E94821361E070E08091E0
:103DE000B6059091B7050E9403120E94DB1186FD73
:103DF0000EC09FEFC91AD90A095F1F4F0733EEE1C2
:103E00001E0709F0B5CF83EE93E00197F1F780919B
:103E1000C2058032E1F0E091B20381E1E802F001F5
:103E20001124EA52FE4FE7850E2E000CFF0BEB5BD0
:103E3000FB4F80818F70806180930506809106061C
:103E4000807880618068809306060E944A1688E424
:103E50008093B80081E08093D0043B9A43982896E1
:103E6000ECE00C94393886E1B82E97CFCF93DF93EE
:103E7000209162018091E2049091E30434E62302F0
:103E8000800D911D112420912D01233031F42091BA
:103E90000901223079F5845F91402091C2052032DA
:103EA00031F1CC27DD27C81BD90B8AE295E00E94AF
:103EB00082138091B6050E94CE1182E190E00E94AB
:103EC000CB1190E080E00E94CB1181E00E94B11103
:103ED00080E00E94B1118D2F0E94B1118C2F0E94A1
:103EE000B1110E94331683E998E00197F1F7DF9151
:103EF000CF9108958C509E4FD0CF282F49E167EE87
:103F000082E691E00E94FB140E94551581110E94E7
:103F1000361F08951F93CF93DF9391E018160CF08E
:103F200090E0CFEFC80F82300CF4C0E08091C20562
:103F3000D8E2803221F0D8E4803509F4D8E510E0E9
:103F400090FB10F98AE295E00E9482138091B605F9
:103F50000E94CE118D2F0E94B111812F0E94B111AC
:103F60008C2F0E94B1110E9433168AE295E00E94C4
:103F70008213DF91CF911F91089590912D0145E219
:103F8000943009F44AE1282F60E082E391E00E9436
:103F9000FB14809132010E948A1F0895682F70E0FF
:103FA00090E080E04AE00E94D2150895CF93DF931D
:103FB00070E060E090E080E00E94E91ACDE0D6E099
:103FC00081E0888784E092E00E949F1C80910B0131
:103FD0000E94CE1F8CE70E94691C84E00E94CE1FC5
:103FE0001886DF91CF9108951F93CF93DF9370E0F0
:103FF00060E090E080E00E94E91A81E0809315067D
:104000008AE791E00E949F1C10911B05112319F172
:10401000D0911805DF5F91E0DA3008F092E081E09E
:104020001A3008F082E0C4E0C91BC81BC15020F060
:1040300080E20E94691CFACF8D2F0E94CE1F8CE770
:104040000E94691C812F0E94CE1F10921506DF91DD
:10405000CF911F91089584E791E00E949F1CF5CFB6
:10406000CF938091F104811112C08091F6048111E7
:104070000EC068E370E08AE590E00E94E91AC09102
:104080002C01CF3F31F48EE690E00E949F1CCF912F
:104090000895CA3018F480E20E94691C8C2F0E9497
:1040A000CE1F8CE70E94691CF2CF0F931F93CF9312
:1040B0009091D204992309F4CFC09091A20191303C
:1040C00009F44DC090E1C82F892F0E94C012181624
:1040D000190614F08BEE91E020910001309101015E
:1040E0002F3F3F4F21F49093010180930001609195
:1040F00000017091010147E0469F9001479F300DFC
:104100001124280F391F83E0359527958A95E1F70B
:10411000309301012093000164E6273882E03807DC
:10412000B0F460E02C3E81E0380788F0293682E068
:104130003807B8F042E1429FC001439F900D11241F
:1041400080559B426FE170E00E9490376E5A8091DB
:104150000201962F981BA9F5109264043FC09FE0BE
:10416000B2CF223482E0380770F043E2429FC001B0
:10417000439F900D1124835E9E4467E270E00E948D
:104180009037615DE4CF233182E0380770F048E278
:10419000429FC001439F900D1124805D92456FE2C4
:1041A00070E00E949037695FD2CF429FC001439F69
:1041B000900D11248D569D4067E270E00E9490376B
:1041C000C6CF9E5F953018F060930201C5CF9091E5
:1041D00064049F5F909364049530B0F70E9452137B
:1041E0000091650410916604209167043091680481
:1041F000601B710B820B930B613177428105910536
:1042000010F4CC2349F18091F10481111BC0C091BD
:10421000020167E070E08CE690E00E94FA1A1092CA
:1042200015066C2FC53608F064E670E090E080E07B
:104230004AE00E94D21510921506C43618F485E2A1
:104240000E94691C0E945213609365047093660477
:104250008093670490936804CF911F910F91089504
:10426000A9E0B0E0E6E3F1E20C941738D0901B052A
:10427000DD2009F488C0F09018059BEAF99EF12C26
:104280001124F694811183C0809104018F1509F4E3
:1042900051C0F0920401D1107CC010E000E028E38E
:1042A00040E868E080E00E942E1A20E04BE851E0F0
:1042B00064E084E20E94BA1C2996E2E10C9433384F
:1042C000ED91FC9111978150B12CA12C833098F481
:1042D00013968D919C9168EE73E00E94A43797FF2E
:1042E00004C088519C4F61507109E60FF71FB1015E
:1042F0000E94A4375B0180E2E82E0EE220E045E058
:10430000BF01CE0101960E947A15CE0101960E944E
:1043100020168EE20E94691CBAE0AB16B10418F4B4
:1043200080E30E94691CB50190E080E04AE00E94B1
:10433000D215B0C0DD2009F4BFCF4F2C440CF40CD3
:104340008F2D90E02D2D30E00396281739070CF4BF
:10435000C901182F02E0F11608F0AECF602F70E00F
:1043600090E080E00E94FA1A80911805F81631F06A
:1043700080E20E94691CF3940E5FEDCF8EE3F9CFCB
:10438000109204018ACF8111FBCFF12C7DCFF092E6
:10439000040110E000E028E340E868E080E00E94CB
:1043A0002E1A4F2C440CF40C8F2D90E02D2D30E064
:1043B0000396281739070CF4C901898725E0F29E76
:1043C000C0011124DC01A559BB4F6D014F2C512CAC
:1043D000712C612C92E0F92E2AE0222E312CB42C83
:1043E000B9854B1608F068CFA090180510E000E0E2
:1043F00028E040E86F2D660F660F660F80E00E9490
:104400002E1A8F2C912CB40190E080E00E94FA1AB1
:1044100080E24A1001C08EE30E94691CE8E0EB15BF
:1044200018F080E30E94691CFFEF4F1A5F0A6F0AC1
:104430007F0A4AE0C301B2010E94D21580E20E94C5
:10444000691CD60112968C911297843009F038CFEE
:104450008D919C9164E670E00E9490375B01B10100
:104460000E949037162F87E594E00E942016B4E64C
:10447000AB16B10418F480E20E94691CB50190E00B
:1044800080E04AE00E94D2158EE20E94691C812FD2
:104490000E94CE1FB40184E590E00E94FA1AF60152
:1044A0008281F4E08F9FC0011124865D9B4F0E94A2
:1044B000201625E0C20ED11CF394F39490CF0E94F5
:1044C000521360931C0570931D0580931E059093F5
:1044D0001F0540911B054423B1F04150209119055F
:1044E00060E088E195E00E94FB149091B303809115
:1044F000180598130E94F41F809118058093B30348
:1045000080E00E94302110921A051092190508953A
:10451000A2E0B0E0EEE8F2E20C9417386A838DB6C0
:104520009EB6E0EDE80FEA3008F45CC08E3209F088
:1045300082C044E04983A98194E0A99F900111249D
:104540004DB75EB7421B530B0FB6F8945EBF0FBE5C
:104550004DBF0DB71EB70F5F1F4FADB7BEB711965A
:104560001C9211971296200F311F1D92A217B307AC
:10457000E1F78E3209F4EAE0F0E0EF5FFC4DE49100
:1045800081EE682E82E2782EB12CA12CEE2EF12C39
:10459000C7010A2C02C0959587950A94E2F780FF1F
:1045A00034C0F30144903196C490319654903196C2
:1045B000D49022242394240CDD20B9F0D12C222481
:1045C00023942C0C5D1409F1342C3D0C4C2D632DDF
:1045D000C8010E941B12422D632DC8010E941B12AC
:1045E000D394F0CF5EE05983A6CF5D1471F03C2CDC
:1045F0003D0C432D642DC8010E941B12432D622DDA
:10460000C8010E941B12D394F0CFFFEFAF1ABF0A6C
:1046100044E0640E711C58E0A516B10409F0B8CF4F
:1046200020E2498160E18A810E942E1A0FB6F89437
:104630009EBE0FBE8DBE0FB6F8949EBE0FBE8DBE41
:104640002296E2E10C943338A7E0B0E0EAE2F3E22C
:104650000C941C389091F104911153C0182F0E94B2
:104660005515882EA090E404B090E50481116DC02A
:10467000E091B20391E1E902F0011124EA52FE4F08
:10468000808530E6C32E34E0D32E23E0833081F0E2
:10469000823049F48091AA0170E6C72E74E0D72ECB
:1046A00022E0813029F02CE5C22E24E0D22E20E039
:1046B0008FE2E82E0EE245E0B501CE0101960E94A0
:1046C0007A15C5010E946415982EB12CA12C9CE08E
:1046D000F92E65C080916A04891509F46BC040E821
:1046E0004F1910E000E020E260E18F2D61C08110E1
:1046F0000CC020E0A60164E08CE60E94021B9092B0
:104700006A042796EDE00C943838B80162507109BC
:104710008EE20E94882298012C5F3F4FC5016AE01B
:1047200070E00E949037962FF82EB90180E3890F30
:104730000E948822B8016C5E7F4F80E38F0D0E943B
:10474000882284E08915A8F6DACF8091E20490915E
:10475000E30468EE73E00E94A43797FF04C0885119
:104760009C4F615071096B01CA0CDB1C6AE070E060
:104770000E94A4375B01C6010E946415982E40E296
:10478000E42E0EE220E0482FB601CE0101960E94F1
:104790007A1553E0F52E6CE5C62E64E0D62E112373
:1047A00009F498CF10E000E020E240E860E180E00A
:1047B0000E942E1A0F2D10E0CE0101967C01F70108
:1047C00071907F01772009F492CFB801872D0E9464
:1047D0008822FEE286E090E07F1611F080E190E012
:1047E000080F191FECCF9093E5048093E40480E058
:1047F0000E94242364E670E080E090E00E94FA12B8
:10480000089580911705E091B203843059F481E155
:10481000E802D0011124AA52BE4F21E018968C91D3
:10482000833009F420E081E1E89FF0011124EA528D
:10483000FE4F84E0A2E1B5E001900D928A95E1F788
:104840001092160542E155E060E080E00E94021BF4
:10485000089580911705843061F4E091B20381E1FD
:10486000E802F0011124EA52FE4F21E080858330F6
:1048700009F020E040912D0184E0489FA00111241F
:10488000465D5B4F67E080E00E94021B80E20E9471
:10489000691C0E946F1C8091F104811102C00E946A
:1048A000012408950E9424230E9429240E94801D2F
:1048B0000E94D11C81E00E9455200E94191B0E9479
:1048C00030200895B0E0A0E0E8E6F4E20C941D3852
:1048D000D82EE091B20321E1E202F0011124EA5264
:1048E000FE4FC08599249394C33009F0912C809198
:1048F0002D0188248394843009F0812C891411F0CF
:104900003B9A439A0E9475148FEF80932C019091EB
:104910009201C33009F491E08091D705837C8093A4
:10492000D7052091C205203409F409C1903C08F054
:1049300090E09093DA058091C7059091C8050E9498
:10494000B8160091B203002E000C110BC33009F011
:10495000FEC084E080932D011092E80481E1809FE5
:10496000F001819FF00D1124EA52FE4FA5850A2E19
:10497000000CBB0BAA5FBE4F2C91022E000C330B18
:104980008185928546815781C481D581D093C405A4
:10499000C093C3055093C6054093C5053093CA051F
:1049A0002093C9058C179D0720F04817590708F078
:1049B000EC010E94341790910A062091CD053091A8
:1049C000CF05809107064091CE0540FB87F930FB6B
:1049D00086F98F7D20FB84F9807F80930706909372
:1049E000080680E28093C2058091D705807C8360B1
:1049F0008093D7051092DA0581E08093DB050E9451
:104A0000ED17809109060E94DF1710920B06809126
:104A1000B6050E94CE1182E190E00E94CB1190E099
:104A200080E00E94CB118FEF90E00E94CB1190E0CC
:104A300080E00E94CB1190E080E00E94CB1190E0DA
:104A400080E00E94CB110E9433168BE097E2019721
:104A5000F1F71092CB05D093C805C093C705CE01DE
:104A60000E94B81681E1809FE001819FD00D112442
:104A7000CA52DE4F0E811F814C815D8160E074E17E
:104A80008AE295E00E94AE17A80161E074E18AE233
:104A900095E00E94AE174AE050E062E074E18AE2DD
:104AA00095E00E94AE1742E050E063E074E18AE2D4
:104AB00095E00E94AE1745E050E064E074E18AE2C0
:104AC00095E00E94AE171092D004488950E062E051
:104AD00071E18AE295E00E94AE1780915A0141E0AF
:104AE000811142E050E060E071E18AE295E00E94CD
:104AF000AE170E9414190E94AA180E946015845FC4
:104B00009A4FFC0180810E948A1F8091F1048111DB
:104B100005C00E94EA1B81E00E945224891411F012
:104B20003B9A43988091E4049091E5049093E104CA
:104B30008093E004CDB7DEB7ECE00C9439388D7F7C
:104B40008093D7051092DA059093DB05F4CE21E12E
:104B5000209FC001219F900D1124DC01AA52BE4F5D
:104B60005D011496CD91DC9115971696ED90FC9011
:104B700017978091D004882309F404C11F968C9163
:104B80001F9785301CF084E01F968C93D1100E94F3
:104B9000491E809106069091720190FB84F98093E2
:104BA00006060E944A1680912D01833009F0CFC07D
:104BB000B090090181E1809FF001819FF00D1124E7
:104BC000EA52FE4FC184D284D093C405C093C3057A
:104BD000F092C605E092C50581E090E09093CA0589
:104BE0008093C905CC16DD0608F4B4C0EC14FD04AE
:104BF00008F4B0C090910A062091CD058091070677
:104C00003091CE0530FB87F98F7920FB84F9807FC6
:104C10008160809307069093080680E48093C20524
:104C20008091D705807C81608093D7051092DA054A
:104C300081E08093DB050E94ED17809109060E94B8
:104C4000DF17B0920B0682E08093CB05D092C805A7
:104C5000C092C705C6010E94B8160E9481169091A5
:104C60002D0180910606933009F076C0806880930C
:104C700006060E944A1680910606807F80930606EB
:104C80000E944A1640910F0550E062E073E38AE209
:104C900095E00E94AE174091520150E063E073E34B
:104CA0008AE295E00E94AE1780912D0194E0833056
:104CB00079F081E1809FF001819FF00D1124EA528B
:104CC000FE4FE7850E2E000CFF0BEB5BFB4F908138
:104CD0009F7080910506807F892B809305060E9436
:104CE0004A160E94361F8091060690916A0190FB39
:104CF00085F9809306060E944A160E946015845F1B
:104D00009A4FDC0114968C910E944718AE0160E026
:104D100074E38AE295E00E94AE17A70161E074E3B4
:104D20008AE295E00E94AE1743E050E063E074E34E
:104D30008AE295E00E94AE174AE050E064E074E336
:104D40008AE295E00E94AE170E94D918D6CEB090A4
:104D50002D0130CF6E014ECF91E0209182012130A4
:104D600009F490E090FB87F9809306060E944A16AA
:104D70008091820190E0811193E080910606807F0E
:104D8000892B7CCF10922D010E9460156C01D501FA
:104D90001B96EC911B97EE0FFF0BE45FFE4F80819B
:104DA00091811996AD90BC90D093C405C093C30572
:104DB000F092C605E092C5059093CA058093C90597
:104DC000AC16BD0608F47EC0EA14FB0408F47AC0F1
:104DD0008091CB05813069F10E94341790910A06C9
:104DE0002091CD05809107063091CE0530FB87F9E3
:104DF0008F7920FB84F9807F8160809307069093F0
:104E0000080680E48093C2058091D705807C81608C
:104E10008093D7051092DA0581E08093DB050E942C
:104E2000ED178091CC050E944718809109060E94D9
:104E3000DF1710920B0681E08093CB05B092C80576
:104E4000A092C705C5010E94B8168091C2058034A2
:104E500099F481E1809FF001819FF00D1124EA52C5
:104E6000FE4FE6850E2E000CFF0BE25CFB4F8081AF
:104E7000873010F40E940D1742E050E061E073E3C8
:104E80008AE295E00E94AE178601045F1A4FF8018E
:104E9000428150E062E073E38AE295E00E94AE173F
:104EA0004091520150E063E073E38AE295E00E9492
:104EB000AE17D8018C910E948A1FF80184810E944C
:104EC00047181BCF5E0184CF80912D01833031F1D3
:104ED0008AE00E94D4140E9455158823F9F091E0CD
:104EE00080918201813009F490E08091060690FB68
:104EF00087F9809306060E944A168091820193E00A
:104F0000811101C090E080910606807F892B8093FB
:104F100006060E944A1681E00E946224089580914C
:104F2000F104811107C00E945515882319F080E013
:104F30000E946427089588E00E94D4140E945515A9
:104F4000882369F0809106069091720190FB84F9A4
:104F5000809306060E944A1681E00E94622408950A
:104F60000F931F93CF93DF93182FD62F0E94841493
:104F70000E943E15C091B2031092E3041092E20425
:104F80008FEF111181E0082E000C990B8C0F911DF1
:104F9000C7FD9A954C966CE170E00E94A4378C0195
:104FA0008093B203D1110E9475148091E404909112
:104FB000E5049093D4048093D30421E12C9FF00165
:104FC0001124EA52FE4FD085209FF001219FF00D61
:104FD0001124EA52FE4FC0859093E1048093E004CF
:104FE000D33031F1C33021F10E94B81680E00E9425
:104FF000121D8091AA01813059F421E0D23009F0CC
:1050000020E091E0C23009F090E081E0291301C076
:1050100080E00E9424238091F104811102C00E944B
:1050200001240E94801DDF91CF911F910F9108955F
:1050300080E00E946224F7CFEF92FF920F931F93BC
:10504000CF93DF93E090E604F090E70481E01E1434
:105050001F040CF080E080930501E091B2030E2F55
:105060000E2E000C110B91E1E902F0011124EA521D
:10507000FE4F9085933009F055C0E5850E2E000C4B
:10508000FF0BEA5FFE4F2081022E000C330B409194
:10509000E6045091E704249FE001259FD00D349F42
:1050A000D00D11244091E4045091E504C40FD51FA4
:1050B0001092E7041092E60491E1909FF001919F15
:1050C000F00D1124EA52FE4F468157814C175D07BF
:1050D00088F144815581C417D50760F1CE01B9012B
:1050E0000E949037009709F05DC0D093E504C0930B
:1050F000E40481E08093DD040E9452136093ED0488
:105100007093EE048093EF049093F00480E00E948B
:1051100024230E9484140E943E15CDB7DEB7E6E03A
:105120000C943F38E385EE0FFF0BE45FFE4F2081C8
:105130003181ADCF60E00E94B0278091B203082E8C
:10514000000C990B21E1289FF001299FF00D1124FB
:10515000EA52FE4F3085333059F0209FF001219FF5
:10516000F00D1124EA52FE4F2085233009F0BDCF07
:1051700020910501222359F021E1289FF001299F68
:10518000F00D1124EA52FE4FC481D581AECF21E14A
:10519000289FF001299FF00D1124EA52FE4FC6818D
:1051A000D781A3CFC81BD90B1E141F0414F030E005
:1051B00020E0C20FD31F99CFCF93C82F83708330C5
:1051C00069F48091F104811109C0CB3039F081E09C
:1051D000683009F080E061E00E94B0278C2FCF9109
:1051E00008958091F104811139C08091F6048111F4
:1051F00035C080912D01813039F180912D018230AF
:1052000019F180912D01833049F590912D01933052
:1052100029F52091E4043091E50480910901981B5F
:1052200090930901990F9350A901490F511D97FDC2
:105230005A95CA010E94B8160E94361F81E00E944A
:1052400024230E946F1C089580912D01813039F430
:1052500082E080932D0180E00E946224089581E025
:10526000F8CF8091F104811144C080911B058431F5
:1052700068F52091E4043091E504EBE6F4E090E079
:10528000891769F0408151814217530729F44091F1
:105290002D0152815417D1F09F5F3596F1CF909137
:1052A0002D014091E2045091E30465E0869FF001F6
:1052B0001124E559FB4F3183208392835483438328
:1052C0008F5F80931B0581E08093690468E170E043
:1052D0008DE290E00E94E91A88E690E00E949F1C0F
:1052E00064EF71E080E090E00E94FA1281E00E9499
:1052F00052240895833021F490912D01933009F1C7
:105300009091F10491111DC090911705891301C06E
:1053100080E08093170580911705882399F00E94FB
:10532000521360931C0570931D0580931E05909386
:105330001F050E94191B0E94801D0E94D11C0E9403
:105340002924089510921C0510921D0510921E0527
:1053500010921F05EECFCF93DF93C5EBD3E06A81A8
:105360007B81888199810E949D138823C9F0909147
:10537000B403911109C090912005992329F00E944E
:10538000B61BDF91CF910895813081F4EC81FD81CE
:10539000309711F0099504C0888581110E947A29FF
:1053A000299684E0C630D807D1F6EBCF8B30C1F711
:1053B000EE81FF81309771F7F3CF80911705882335
:1053C00091F01092170510921C0510921D05109275
:1053D0001E0510921F050E94191B0E94801D0E942D
:1053E000D11C0E94292408950F931F93CF932091DD
:1053F000B20311E12103F0011124EA52FE4F80852E
:10540000833009F441C08091F10481113DC00E94B4
:10541000DD293091B20320912D013103C001112407
:105420008A529E4FFC0121111EC0C6850E94841421
:105430000E943E1580912D01833011F43B9A439ACE
:105440000091B203002E000C110B80912D018330CE
:1054500060F4813058F180912D018093030183E045
:1054600080932D0104C0C785E1CF833089F080E0AF
:105470000E9462248091D004811106C080912D0188
:10548000811102C03B9A4398CF911F910F910895CB
:1054900010922D011092D00481E1809FF001819F34
:1054A000F00D1124EA52FE4FC687E1CF809103012F
:1054B00080932D010E94491E81E1809FF001819F10
:1054C000F00D1124EA52FE4FC7871092DD04CFCFB2
:1054D000CF92DF92EF920F93CF936C01862F90E0E3
:1054E000FC0143E0EE0FFF1F4A95E1F7E25DFE4F3E
:1054F000C4816E3079F460E072E0C13011F06CEF7D
:1055000071E0C6010E944337CF910F91EF90DF9079
:10551000CF90089525812230F0F0880F991FFC016B
:10552000EA56FE4F349189569E4FFC0184916131B9
:1055300051F4CC2371F0C65FF4E0CF9FB001112489
:1055400060547E4FDECF2330B9F38111C195C30F74
:10555000F3CFC2E0F1CF211105C0C11103C060EC4F
:1055600071E0CFCF6B30D1F461E06C0F062E000CF0
:10557000770B77FF03C071956195710980E2E82E82
:105580000EE220E043E0C6010E947A15C7FF03C087
:105590008DE2F6018083F6011382B6CF6C2FE6CF41
:1055A000A5E0B0E0E6EDFAE20C941D38382F462F66
:1055B0008091F104882309F45EC080910B01815031
:1055C000932F2AEF829F900D1124892F66E00E946D
:1055D000843701E0933008F400E084E4933008F469
:1055E00080E0632F302F330F330F031B090F000FA1
:1055F0000E5F10E0C82ED12C460123E2820E911CD2
:10560000E62EF12CCE0101964423C9F10E94682AAE
:105610008091DE04082E000C990BA12CB12C8E1564
:105620009F0529F4A090DF0481E0BA2CB82683E01E
:10563000EE0CFF1C8A95E1F7C701825D9E4F7C014D
:10564000B801C60105960E94FA1A8EE3B11001C096
:1056500080E20E94691CC7010E942016B801C401A3
:105660000E94FA1AAA20E9F08EE30E94691CCE017A
:1056700001960E9420162596ECE00C9439380E9481
:10568000682AB801C4010E94FA1A8091DE04082E2B
:10569000000C990BE816F90621F48091DF048111C2
:1056A000E3CF80E2E2CF1F93CF93DF93D0E0C0E05F
:1056B00016E080910B01082E000C990B0197189FA2
:1056C0009001199F300D11242C0F3D1F25313105FC
:1056D00064F4982F990F890F880F61E08C0F0E9456
:1056E000D02A2196C630D10521F7DF91CF911F91A5
:1056F00008958091F104882329F180910B018F5F37
:1057000085300CF081E080930B01082E000C990B82
:105710000197982F990F890F880F8093DE041092BC
:10572000DF040E94EA1B0E94D61F0E94532B0E9496
:10573000521360931C0570931D0580931E05909372
:105740001F05089584E00E947A290895B0E0A0E042
:10575000ECEAFBE20C94213880911705882339F09C
:105760000E94DD29CDB7DEB7E8E00C943D3880918A
:10577000F1048823B1F08091DF0491E089278093C0
:10578000DF0461E08091DE040E94D02A0E9452135F
:1057900060931C0570931D0580931E0590931F0553
:1057A000E1CF0E945515811104C080913A01811109
:1057B00004C082E00E947A29D5CF8091E4049091C0
:1057C000E5040E94B8166EE170E080E090E00E946F
:1057D000FA12E091B2032E2F0E2E000C330B81E152
:1057E000E802F0011124EA52FE4F80858230C1F0B8
:1057F00044815581068117818330B1F460E074E102
:105800008AE295E00E94AE17A80161E074E18AE2A5
:1058100095E00E94AE174AE050E062E074E132C0C9
:1058200000E315E74EEA56E081E1829FF001839F95
:10583000F00D1124EA52FE4FE385EE0FFF0BE45FFB
:10584000FE4FC081D181CB30D10510F0CAE0D0E04D
:10585000C13039F0C53029F0C93019F0CA3009F02B
:10586000C5E060E074E38AE295E00E94AE17A8010B
:1058700061E074E38AE295E00E94AE174C2F50E09D
:1058800062E074E38AE295E00E94AE17F894109209
:10589000CF047894C09105010E9452136B017C01E2
:1058A0008091CB05823009F458C08091C205D1E4C3
:1058B000803209F4D1E28AE295E00E94821380E00E
:1058C000C0FB83F9C82FC8708091B6050E94CE1125
:1058D0008D2F0E94B1118C2F0E94B111D134A9F4E7
:1058E000C1E08091C7059091C8058930974008F4C0
:1058F000C0E080E00E94B11180E00E94B11180E020
:105900000E94B1118C2F0E94B1110E94331668E7DA
:1059100070E080E090E00E94FA126091B80570910A
:10592000B90590E080E00E94FA1260E08AE295E01A
:105930000E9452179091E6058091E7058093C70574
:105940009093C8050E94F3238091E40586FF41C02F
:1059500061E08AE295E00E94521761E08AE295E0F8
:105960000E9452172091E7053091E6053093C80553
:105970002093C7052115310509F4F4CE3093E504D1
:105980002093E404E091B20381E1E802F0011124E4
:10599000EA52FE4F80858230D1F1833009F44CC049
:1059A0008091E4049091E5040E94B81680E00E9482
:1059B000121D0E94841481E00E9452240E944E1500
:1059C0008091E4049091E5049093E1048093E004D5
:1059D000C9CE0E946B148111BBCF8091E5058178FF
:1059E00009F0BBCF0E9452136C197D098E099F09E3
:1059F0000091BC051091BD052091BE053091BF05F9
:105A0000601771078207930708F487CFA6CFE6EDEA
:105A1000F1E082E046A157A12417350740F040A5E8
:105A200051A54217530718F08093B203B9CF8F5F87
:105A300071968C3179F7B4CFC9016AE070E00E94A9
:105A40009037281B390B3093E5042093E404A8CF4A
:105A50000F931F93CF93DF9360911B058DE491E02B
:105A60000E947237C0E00FED10E0D5E080911B0579
:105A7000C81770F4CD9FC001112445E050E0B80173
:105A800085599B4F0E9462370B5F1F4FCF5FEECF50
:105A9000DF91CF911F910F91089580916904882320
:105AA00021F00E94282D109269041092F6041092A1
:105AB0001C0510921D0510921E0510921F050E94D4
:105AC000EA1B80E00E9452240895B0E0A0E0EBE6DB
:105AD000FDE20C9422386DE974E180E095E00E94CB
