:100000000C9406120C9402310C9444310C942E1270
:100010000C942E120C942E120C942E120C942E1260
:100020000C942E120C942E120C942E120C942E1250
:100030000C942E120C942E120C942E120C942E1240
:100040000C94B8300C942E120C942E120C942E1288
:100050000C942E120C942E120C942E120C942E1220
:100060000C942E120C942E12534156454400534DBD
:100070000003060708010203040A10161C222C368E
:10008000404A545E0002080E18222C36404A2020B6
:10009000200031206B487A200035206B487A200000
:1000A00039206B487A20003130206B487A00353097
:1000B000206B487A003130306B487A0031204D484F
:1000C0007A2000313020487A2000323520487A20CA
:1000D00000353020487A200031303020487A003511
:1000E000303020487A0031206B487A200035206B70
:1000F000487A200039206B487A20003130206B4844
:100100007A00535445503A200050586068700818DF
:100110002030384048000810283840302E35206BF9
:10012000487A00312E30206B487A00312E32206B15
:10013000487A00312E38206B487A00322E30206BFE
:10014000487A00322E32206B487A00322E35206BEE
:10015000487A00332E30206B487A00342E30206BE2
:10016000487A00362E30206B487A00204155544F93
:10017000202000313130206B487A003834206B4821
:100180007A20003630206B487A20003430206B48CB
:100190007A20000020202020200044454C3A42577D
:1001A000204641564F524954455300454D505459ED
:1001B000204C4953540000000000000000000000E3
:1001C000010000000700020100000201000003001E
:1001D0000100020100000000020100000201050010
:1001E000000001000F0001000900000002010000F2
:1001F00041555400204F4E004F46460020353000F8
:10020000203735006B487A004D487A00525353002E
:10021000534E5200313030003530250031306D0002
:1002200031356D0033306D0036306D00524F570060
:10023000434F4C0020413200204131002D2D2D0034
:1002400020202020202053455454494E475320203D
:100250002020000431F7210531F52D000000006752
:1002600002020505050205020202030202030266FC
:100270000806056A67076A060606060408040205FA
:10028000020202050708070803060707080203041D
:1002900003070304037F727577797B7E80838587EC
:1002A000898B8D8F919350678994F4646792ADB078
:1002B000B3D8E1E6E9EBEEF1F4F6FAFD0F262C31C6
:1002C0003335383B3F4244484A4D4F00187F310197
:1002D000187F1E04187F1B05187F0E0818001409CC
:1002E00018003C0013FF00011304000413BC7F0539
:1002F00013BC7F00000000001A0000061A00000076
:10030000000000001A0100011A0100021A0A00038D
:100310001A1400041A1400051A3C00061A550000AD
:100320000000000019100001191800021940000314
:10033000192C010419AA000818140009183C000A15
:1003400018A00F0B1828000000000003140200047E
:10035000140500000000000334030004340A000008
:100360000000000C1014181C20252B32373C0039DB
:1003700000000000000000390C000139370002398C
:10038000400003392C010439AC0000000000AED558
:10039000808D142001A1C8817FDB40A6AF4154535A
:1003A000204558004154532D32302B2056372E30E3
:1003B0002E31004D454D205245534554004D454D7D
:1003C0002057454152000000580284030807100ED0
:1003D000415454000000E7222716415643000A0109
:1003E0001019201653514C000001E8182716534DE0
:1003F000410000014D192016534D540000013A19D7
:100400002016414E42000002FD19201642464F00C0
:1004100000019422201653534D0001028F161E1620
:10042000535643000102602A1E16434F4600000344
:10043000C7161E1653594E0000022B2A1E1643578C
:1004400050000701852220164445200000020019B3
:100450001716464D50000102331A1716464D4F002D
:1004600000029D191716465341001601D31817169E
:10047000465354000A01BE18171653574100000195
:100480005F1A20165343520004011B2127165350B4
:1004900054000002441627165357550000025916FF
:1004A0002016444953000002CD1527165253490027
:1004B0000102471620164E4156000002411627162B
:1004C0004341500000024A162716435055000002CF
:1004D000531627164241500000024D16271653436B
:1004E0004E0001025016271646564100000115180D
:1004F000271600020401030506080A07090B0C0E63
:10050000100D0F11121416131517181A1C191B00B1
:1005100003010402050609070A080B0C0F0D100E53
:1005200011121513161417181B191C1A00000000BD
:10053000240027002A0000000000250028002B00CE
:100540000404040404040404020202020202030379
:100550000303030301020408102040800102040881
:100560001020010204081020000000080002010011
:100570000003040700000000000000000003740BEB
:10058000D484606FAE6CF9BB84A265B14BF6720186
:100590001A21E85AD8D604735E2C226EC4E9B58BB2
:1005A000819A1EE487C99E7B17526DADE3E58B04EB
:1005B000A72E996A32AA9997CCA65B15795648015D
:1005C00063B1DF5427065706538CA627AA66890312
:1005D00018517EFB67D3CEDD3FFD3D1F478401F3FD
:1005E000856EF83B792B0C904B67467D5488FDD681
:1005F00012E5E748F20EDB994D71A54068D9C9595B
:1006000039E475201CE9B1F5013C19BB60F7FA6BC0
:100610001E689F19B6ED140F56BCC134CB009D4324
:10062000D40FF3629C9DF78B9D533A8D2F3DDE3D99
:100630003831039BC7C159E9D175888D365886700A
:100640004E5B9ED0DBCBF7EA1FDBA53BB3BD6BBC9B
:10065000F37065D5170F64152420D5B87B0D2729B5
:1006600085881F5822574F09C04DD6E4C6B53A3782
:100670003327BB6A1469031BEDA8C343E8EADE41D4
:100680000625C5C83CBF32B2A7DD22C2E9CA84F242
:10069000C0267C7801F7D5C60533E4C278EC1BFD93
:1006A000D2507D11295799B0F1556674B45823A0E2
:1006B0006F2ED89B08B33E53CF5ECC7ADF4EED420F
:1006C000166A9188431B1D845C522166582436713A
:1006D000C56A0D2C869A239DE03543C97F41BD82B2
:1006E00099ED7A26B2D3A6CE4F00E687E3D76828E5
:1006F00086F7CED2B3D31B0402B978B3ADE03C5336
:10070000A68A4A22BE1FCEB176F22F81A8C1787286
:10071000B0156519E332A74D0CD300B9C327BE74D9
:100720004DD1E10C36DD23FBA722D344CAB3081B0D
:10073000B40D4BDF1AA69032925C1AA7CD852E35E8
:100740001172F821357D3FDB298D30B34F45147789
:10075000CF992FA39081B0AEE845E63AA9A262B73F
:10076000DBBE2539A5FCEAC5BC3AEC90AEA6FB126F
:10077000AAC76222AFA984B964B8FB8DC11CC3D0DB
:10078000876D5CB4FE3FA4B8D889F40159BB04A5B9
:1007900043441ACB4130F75B9AEE28F44C7199CA66
:1007A0004B7F2A13F04B54B3FC90EDBE483FF15EF3
:1007B0000DA1BB1E591615F04B504C96861BA9CCAB
:1007C000C2694E1003F0E953E5E2BB45E28DAE404D
:1007D0007108864D08F49690585340A58B5B3CAD4C
:1007E00047B5D7E26A1378D4DCC9EC0E93F0C01D8C
:1007F000953676A45385C9ACE4718DAF6861209DB0
:10080000FF45356E04D82732C3DAEEA26604B7215D
:1008100006527F398FFDEE9074B64FB6240E124803
:10082000F0B230F2A54C9152E3C6487B3896239E35
:10083000D71B95153AC98B6F637D1DC9EA96E601F2
:10084000D785C0EA3DCAD3B7FB07543A00313D749F
:10085000E4125BA238335BBF1DDC4EE8851077AB3A
:10086000EA6579B0AA3061C6F63BCC95FC837F8CF3
:100870007BB55205EBF721DE89B66DEE317713AA11
:10088000935596086E1C82B57E95B994DD68425CDE
:100890003A00C37B6F606A2C07D76C82FBB281255C
:1008A00069D6720AD2E8500588491B6372996CE3D5
:1008B0007AAEB01B9ED42554258A901797DF39B89D
:1008C0007CEAF082DD25D2ADE7F6362384A9C96A39
:1008D00053F4822C1DEA06C64F705437802A6B638E
:1008E000DBCC86E68C7F278C7254739E1BD64CFA29
:1008F000058280D7B71198069869151CFC86877405
:10090000845BD40FDBD727C54AB28F297A4A230AE2
:10091000B807D03470818E53EF43163FA8A79E5A74
:1009200077C091B789155248C0B762ABE1746410C3
:10093000AA096B9774217935A19725FC78C1EC6ED3
:10094000877740871A74828156DDEC37ADAF03316B
:10095000AC478574C02A459DF4120CF986B04A163E
:10096000D8116C46C44A67988B1B42C2BEBB0E4866
:1009700084F708A6C38F8E8DABC29B5D5C60285741
:100980008F0EAD2EC15E95299AF48A27D441BB4AB9
:10099000AC5DB29326FD87813F2735A6422C1538E2
:1009A000ADF8026F94DA08EE19D890FA89C3AD89D0
:1009B000FEC60246811D0C8D782FEED3ED6C7B9523
:1009C000495687F4E263DA39CE681618ED98EE8658
:1009D000F3B3C1121A519B571D199E987ED2FD3D4B
:1009E0002B59154674577914817189D922DD9210DB
:1009F000D98991DF67006E53AFDAB528301E47E61C
:100A0000B7052D22CF7F6ACD88906B8C163688076C
:100A1000A1B7AFF331C4DB768B969EF017A73F8466
:100A20007891A8CD3F8FA5DD5214F9395D0B568E14
:100A30001C5A5B89EE809E33BDB14515423459780E
:100A400020FC2DDBC92E0F3526CF239B3E1D9F0F8B
:100A5000260EB7B54EACA286D5DA36045A73466A6E
:100A600088C52AA083E88B5F3CAF6A444E759B8F94
:100A700093373538BD029A1D8429642597E07C2A76
:100A8000B6CBC166513CBC3BF3552BB7BD81ECF3F3
:100A900049D5F803E0BDC60CEEC01908FB4F8C9495
:100AA000080EA53037F0B818937300BB5252B498B3
:100AB0000D4B45B9890A34E91C245A8FA89DC2D927
:100AC00027A9EEBFC08090BC2A9343FB0AB396D1FE
:100AD000AE13410168B92C53537C00A58441D698CC
:100AE0008898FEDEF7E23743620E9383EE030A8DA9
:100AF000CA8759366F61F7F4D6AB8B0F9C8396A4E7
:100B00006C4643806BEA50DCD8CED4F4AE5BC601B1
:100B10004385718D0C395EE43B2BC488B2C5549675
:100B20000E879A5093D69C91CA09648B23C429449A
:100B30001A67E1DAC71B2517022C8F2A133ACFD682
:100B400065312B10F5B596DF01997BADD6B4C03574
:100B5000A348E3B09EFE33101A09AE3C0AA1728F7F
:100B60000051E17823F5E2BFA64628B34B24B1A19A
:100B7000DEB1C4486FED5AD461F0DBE1085C64C0BB
:100B8000CAE9A9DEDEECC0685B6DBD43828CCA6930
:100B9000B1A9C8710D5D6DA5AB1A6794EE0593E31D
:100BA0003FE81AE60F7F79F2CBC53757DFFC4FB429
:100BB00060C7973C61B00C4664F44392D2A5F0F351
:100BC000B7DFAB20B1F5302AB3DC4B39B7853E1E19
:100BD0001B948C26288045D60136D0EC934688D3CA
:100BE000D5895D7A82213EC240E3B4DEF5A569D5A0
:100BF00069495C89CDAE137070ED690CECC6FE7569
:100C0000EB4ED6B3C860FB341EF86492D929A81302
:100C1000383D79C4BF21379DE34F21E53F2C5C5F10
:100C200041FF148791E082040B1E5553DC5640A40B
:100C30003578E29B49222E09CD1F6F9483EEEA8B13
:100C4000C4C210E080D9A55F53349C8CEA956487B8
:100C500094D6321CEB93BFE35583C2F6FCC885B231
:100C6000945C425F6B8E3B9779747EE35CC2631A3F
:100C700022B17F94CBE7B7FF0E3795AF105317889B
:100C80001272DDCBAB4B6B6824ACC95C72094FF1BF
:100C9000FB1DE7A230E9204BDA707C9EE234EB6A60
:100CA00035C233D79D07B1EFF675F5FDADC74BD013
:100CB000B7DDAE1E8D1EC0399CA71CC5CC3950C6F1
:100CC0006BC6DA37C7E120EB74A53DC008FAC2DF76
:100CD000F29E432BF07750498CC32F68F32A9B83F5
:100CE0001ADC05D8B77C3C611176EC2DFE860887AE
:100CF00015A3C01CB46A8D9EBF9AD5C85B05181099
:100D000015FBC63CEEC5524B313607B94C81EA8320
:100D1000D782FEFC43594E20BDD365CF1F5C711FA7
:100D2000BF26EC44EB0174823C8E60DF47903117A4
:100D30007E16C0EC1EC33A7A5921A29B8E8725D31A
:100D4000FE85DD6DE6D8CA74BADB4230963D862258
:100D5000866FDE371A932F032EE16E1662C1E12DE6
:100D6000FECBA8DF6405EF23BC71617B1B602227EB
:100D7000BDC6A37207AA09B052F219154DBEAF261F
:100D80003B4D62A63C41077A34253CD6CDB655474B
:100D9000871ECBCFCED20D95C0D872A6E0332426C5
:100DA000517E71C7533FD4677352CB785A001115E7
:100DB000715F8D3CCF40CDD97430D9A13FC658BCAE
:100DC000BE7818319A3960BB8D7B3495A5F1543BC0
:100DD000B98599AFC445EB64A76E5960EB1E7AFBE9
:100DE000FD924323F127AC661266288A5CF6C63F63
:100DF0007604E80927ED05AA26E5B4AD40BAF7F474
:100E000084CB7F07108DB6C7D477EABA962A98F0BC
:100E100056D7FF504D59793D41E0FAA99D3EA6D9DC
:100E200079C80DD156C5ADD7FB703CBDF3E95D1C4B
:100E30005393331DF81BEE9FB750AC8F485961C9CF
:100E4000859EC8B0D27439DF33F528E06311A7C49A
:100E500005BD3AD934CAF9AAE200E6E638573EECB5
:100E6000197C0D2745C552C4FFF469C5F573734F4E
:100E7000E307C7CF38235B9C99A26A72B03539C1AA
:100E80000AC71C1A3060181D2BF0C8F179A394E32F
:100E900036359369059107126044FDB6C6FFE0CF71
:100EA000A2CFC2A358AC32E32EEC0D9D1BFB054034
:100EB000BA678ECB38D7609CFE9EA170CC40728CF6
:100EC0008C507185DD84925CEE44B6E0801532DD95
:100ED0001B4B8C6E8E3997A5AFC6F42985D38593AD
:100EE00085C854E4591D4EA0FEC507C1F73252F91A
:100EF0004D4585FCA0FA37B59D47E852238D928772
:100F000043B4B84F951B1E4FE545BFCEC80CB27D0C
:100F1000E7D92E88B72A61E12DC4212EB84DFD21D5
:100F200087302511EC1F299431D292853817DA6366
:100F30004D8CB4065564B76CFCC28D5D978609D3A1
:100F40004369E83577CCAF91363C7CA36E4E4AA21C
:100F5000C94150EAABDF8704704F16F5A038F56041
:100F600016CD0CE5C7E3AD00126B12853C5C7F76B5
:100F7000ED49F29D8FDFABE1DD8701ED2C1B4B5579
:100F8000117FC392D391C1D8A737C7E55B482BED3A
:100F900031DECEFB9508E35184000B4D2673118B97
:100FA0001EE2040473E072FFE659C90448BFABF3C4
:100FB00099877C0704FB33B163616112AD08AA30E5
:100FC000AC174D3086BF6713F1A7041B484223843A
:100FD000BB7FB408A69F43785CA14E8BA6E67C49F4
:100FE00001F7315D2730010B570B79F7024433BB12
:100FF000B45BC701ABE301C2D2017A079EAD8402A4
:10100000F1EEF7D82950012C35543ACC01C93D6690
:101010006A9805247AF71C2440EBA24DC266C837B3
:101020002C030FF301066D9A42F0948FEDBFE32875
:101030003B72693775B4A09A6E31FD665BCBF3BA2B
:101040008CA431FFBA7C2454D3C6638993E4EDDACF
:1010500058474EB58FD793FDAF31EAB4ECC9057D43
:101060002B1596C1007E80E6F747CD6A77F10E59C1
:1010700013AA5C838870DCC4525220B6692D6C6C54
:101080008B662ACD5A4130D6FB7BA0EC7A22887C35
:10109000716EAF6206F4A8C688857636C5C0D8677B
:1010A000967CE84DD4FBA96F0FB2A7A3196A30FD57
:1010B0006FFC2BCEA41B8E574851C6980FE5087BBA
:1010C0004DFC59DDCF131B310C5E3B98E1F4C3415D
:1010D000D7A2645E16F9EBAE20E95D54BD99D3A7A3
:1010E000C1D9E53222D69F4FDD6B3C6DE94D96525A
:1010F00011DA2386BE01C451C29CC6F52F1FD0F160
:10110000F55782FECBFB4ADF1D0046B8A73A56666C
:1011100008714E47F827265F6CD8C305990A758F6A
:101120004FC18872A05A1308A382842ECEB5A3465D
:1011300005D66A7856442386F2C963088BBDEE56FD
:10114000D4361F375318E7DA1CFAD005D55FE7B756
:10115000AD362BCB06C053F432A8756FE3C9A1B0EE
:10116000A6E6C2410F5D2E0A64504692495B2D00EF
:101170002EB5213F0B4A719688844C98AA2823EB00
:10118000EF455C6278D6E4FB6DC3D9356CB92AC6ED
:101190007471C40C657CA3F96E2DB986B004639498
:1011A000CF267D9E1EF799DAE08CDD86F3C8F1C666
:1011B0004E155DED34BB90CDD626091EF623845125
:1011C000C1AE428F8496C957AE16363A298765B2AA
:1011D000BA5696D2F509EF304A0F6236FE0030BD9E
:1011E000091B50C33C48D725E18EB26F4D752DAD1C
:1011F000C61EBAFA4F41AF7A6FA0A04FB6883469C5
:101200008A9E837A60F3A87E392A209C325E7DC450
:10121000AA97E6263542A1A0EF39B31C2763D27FF7
:1012200075C01EB4FA4D7A818139E0792F94A528D2
:101230003A437E97B594AF2A10380A7F4991C06C23
:10124000659AC6C95DD552469874AC93E421B0EB5B
:1012500008FAF4412EA6F9C5EDE33798C5DF5282AE
:1012600041A2F2561AF3A4C6408DB95FAA751E15A5
:101270001E68782B2BF43EC7CBF31360E0F485791E
:10128000880C227587B751E0D6E3A092D3D7E36CE0
:101290005B3EB780E748D6D92F49CC75A004C94832
:1012A00088E9CC3241AF30DEC6BC9DF7FCFF690354
:1012B0005058A1D6B87B5E60FCCC0014AF3A3041E8
:1012C000B34E634795E4BD5374D0F002B4FE4819A1
:1012D0006C3F23F79B4411F2C245A637776C10632D
:1012E0000E1BA7D196CA0D4F5B4351D614B723E707
:1012F00099A49F4C7DD7DD0811844D5CE960900472
:101300008B1490F06F26450F208CE36F4678EB121C
:10131000B45EF0DEEB222762784293BCE848C088D6
:10132000BD0FDE232BD1880AE2B4338E61364358D9
:1013300042AE6BD7F2FE0AC126947ACE8C3B435A5A
:1013400062EF708AFE4DD237DBA1B1061B30174C1D
:10135000A0241EBECB64E2CE135CD705A676393836
:10136000F3852C160EB3E23DFF79880B93EFAD5554
:10137000CDB4EF8FB8167A05C05E920F4F9858D44F
:1013800022AD4325317852C69ACA5EA64E79979A05
:10139000BBDF6DF1E2D0B3CA2A5C46825C1EDDD0B1
:1013A000C519892B2CBDC084D9333967E4E479266B
:1013B000B69D1C1DE470A5A76189254A57337D0D94
:1013C000CAF3CC22AAD7D9CBE6B29646159568D8EF
:1013D0000FDF6B36DA198216CE384ECFF236C88060
:1013E000075388042FB214195DC56CEF959C608B70
:1013F0006AE4FC9DB29CED1D9C1BCAA326DD9C6388
:101400005B3B882BBA2235240148EEA04F6E964EE6
:101410002991AAAF5647BD7BDDA15599D8B5A14703
:10142000937BCD7BCF65DE5018F20549F199D894B6
:10143000213F7D52C6B1B4E19FF07E60648B30E401
:10144000AD2C97FB47F70901047BF4F7A7A804A587
:101450007F0858796D26276AD0D9AFC1C71223E11A
:10146000AE98A40FBC1BFA9D910B1515A524531A19
:1014700013E0C30095389C364CCFF6A9BCC1530687
:1014800004F46FBF57E0A614A649707F392A4A5A60
:10149000593633B90D4725393704777C45AC199354
:1014A0002549E07A7BA2C695768D3C79B1A7C383A6
:1014B00063032347D7ACFB84166F22490B97AAD549
:1014C00038575E2BBBA749EDD2D57A96BE8DF5F97C
:1014D0004656F52FA7A87AFF3FE7E88CF148E84683
:1014E000CB4D25F935932FCE8BB8A9C5D3D2277113
:1014F000866F72D9CA4E90D36DB13CD3CBC9303A06
:1015000026459D66445C5FD8E3907C1BD882DDD382
:1015100084D4C61B58BF02A53B100A3EE309940BB6
:1015200099882B47A79089C4482536DB7231ACF5E2
:10153000A30115D0E62161EB5972DC9498F7B0F95C
:10154000FAC10A7EDC69CE905E82110B97E2995552
:10155000A23DFAEB88BC4DC2548D5FDEA3E2481376
:101560002046C5A08104C42B9A8415B89E9B62A115
:10157000EC7D083CAD214B89FCC6967C3A41358A0E
:1015800013BD1B43BF367A4ECE709E2AF63933C741
:10159000334B347D2A81FA252EC5C4A1280ED54DA2
:1015A00015E069127119AAFF5948815653C93512BD
:1015B0004D84699136D8ADF754D58CF9C684126242
:1015C00022F1B92B1DA57C567A4D5AC4F09D8F5D32
:1015D000B59A7FE7B7A85D6D37E4F2EA7A73F8FC55
:1015E0006717F3D960090E8B0FE2F98361DF536946
:1015F000D0EE4251B5514864F8DD3EEEA747F07C8D
:101600004BBB2B8EE28B6057634B9BAA6763EAA3AD
:10161000D57C4341A95474D286C3114269C5093EA1
:101620008F94AFC599BBBBAC61646101F2D359B172
:10163000415091166CCC9BEC5CFE3BB3EC6ED7F149
:101640000E5A8A5F1DB0C576542607BC66F0ED5170
:101650009A1FE8F751588E1E80991FEED643CCFA98
:101660002FAE80F2A8A8AE437C8076D41AD47374CF
:1016700061DFBF296F561593075892F11DE87B680B
:10168000B2542030012DC5D8FD6150140F584C1AAA
:101690005400127E46990C9DD1A304F18217FEFCE2
:1016A00012E57581AFFF3D08D539874A8EF07AD4AF
:1016B000D0D6CFA9D6594841C268E3A435458D1488
:1016C0001AC444892C63C8AF7BAC354327BE7ECF98
:1016D00056403DA5AC0F97CCD46ED031D7146045A1
:1016E000AEDF0AAA33B388E01C26DC00B875C867F1
:1016F00011A1B58771F94A6AEC3F0E4121C24F92A0
:101700008F1753EED5EA4F917502590294E4DA4AE5
:10171000B3AAA72E9CC780465EBD06331DD85D9F29
:101720005F77730A7D386BA70E8F4E7D01DA4474A4
:10173000D2F17A2F7FE1ECF1A57D033B2F17B6E8BC
:101740000D333C2191915B302C11C6586AE4351B56
:10175000B5A847B3FFD0960E484E9737601204FFE6
:10176000CBA5F51D409CDF36123DD92A72DAE88BF5
:10177000E45BCFE93852EC2CA0F779AD207059200A
:1017800062739CE34609C912D47755074B6A261E3B
:101790005D0778104E4ADA5EF63B9B8DFD48D0BB64
:1017A000AA212EF5DF854CA71D1A261BA082867F55
:1017B0004B02D2F660C9860C1DBF736986184B4474
:1017C000BC74E5821793B50A5608B74A73B804D2B9
:1017D00014215E2CA0E0C2015FDECE642AD8652B06
:1017E000F074E354BFA09B50BA02002C95CE2A4F50
:1017F000CF2B2B0E9BDD8F675B54A1472E842E24AD
:10180000FA34E05A103BCFAFE2ED28D1176B9A1BA8
:10181000496CFCCB7A74092A415AFFA1F598C60C91
:10182000D26983D2C369875E7EBBFCC0D1C117D7A2
:101830009BE15370B743D038252649405B57BA49DE
:1018400032AA9F39AA8E73008513796DF1912F9E6C
:10185000A3A0657C7D53B47053016B925F38F1D7C0
:101860003D7AD607727ADBA165A50741004BEBC52F
:10187000D03BEB3061420D4BA3D8078B12F5893D6D
:101880007CFB2E79A7BCD5BF729AD81539AD2570CF
:10189000D16CB05DBBF43AF66056FAF2A528AE0DF5
:1018A00076B379F14BC72E6EB6616222D9A7302389
:1018B0004521DE478CEBE54C8B4E79A09D95B30519
:1018C000AAAFECE67473F0DC37AD933B206DA1D882
:1018D000CFF97E9EC6BB406456A6187528D2BA784A
:1018E000645C484570358C499A454A6DF29C8D4838
:1018F0000A612EE3D4EEA829404B53BB5639CE8162
:101900006CFD37A0791CC794176C37EA97F4D8D4CC
:101910009F9F304FE5A408B86BAEB9BC4F6120441F
:10192000DF92DB1E0483C0A12C09D8DF21F0200444
:1019300080AF7391BC0EBAE4F79B363C30F1B4BA79
:10194000DCFA65F22B1D184E1662D4AC8B21A5A2D1
:10195000F132C3C965632D316BB88FE124938704DD
:1019600099E6BDBA283063DAACC799378A8666B380
:1019700044D584AAA15342A0381E5DF70529E7CAC1
:101980002A0B6AABCEF03AF390E6D125A1331C3393
:10199000997D24D17423FC6F7DDBA7E9C2DE171289
:1019A0002D1CB37E880308757D9A4937AF60047C8F
:1019B000BCD31C53703497EBE1CD3079A286945898
:1019C0005A99C269D7B232626C0A3669B135484158
:1019D000CE79967A0D2D33BF4D2FB8D8B3FBE47175
:1019E00093B9180D51ABBB09D90DD7671E4728C74E
:1019F000F7CE605828235E95FC2BDBF90D1FAB4911
:101A0000E6D0A7377920E4CF05E36421ACDFB1E865
:101A1000F9E04C3B5E89682A48C5640EDBF1538BC4
:101A20001A2FF60C189C529B212E4AE7D6BBB71AE8
:101A30000A22AB4AFDD3027D21FFB90E0F29ABACC0
:101A4000F4445E0FD5F357E54F61724EBA55378FA8
:101A50009A1CD4B830AF0A951A1386D40A835C99BD
:101A60001B2BC093F513F5EAFB6F75746C2E77C3CF
:101A700044C53862B9F5AC58B4966EA4A545B51BFB
:101A80007C9D219516EE29572012BBF80A2325AC20
:101A900051FD7AE09D43B0276F2ADF0408D3F11D82
:101AA0003C128DAFF2D7B9029D46E3ABFF61C8612E
:101AB0002B19C8C1A16D0AA744FAB5A8D71E5315A2
:101AC0006F7A4841E930B5ADE2F070406AF331DD3C
:101AD0001950E5BCB43D839FDFC8252790405B3299
:101AE000044781FA53B40A40157A745BDB24AB3A9D
:101AF000B791E344B747073990D2F5A9084658DCB7
:101B00003210A347320445441371AC2EA7C971D0DB
:101B1000F9517ECAE509A81E775B3A08AA431CD68C
:101B20008D6091466D64569E162ECEB399C8F655BB
:101B3000271384BC8AB3C8F51A72F76A0C46952F2E
:101B40004A86B6D29894F1C3370E0C8711567EAFF1
:101B5000DA22296FEBFAEC96E0276B42A170091AA2
:101B6000AD4888DAFCE13B62952856702803B258EC
:101B7000678D0AEA9A1595515F83070920BF37AF31
:101B8000F70A743CA552F1E3F55830E117DE98F1FD
:101B9000387BF0AFBD165952996C7470487714FFBA
:101BA000534184BCC5372F71843DF5467C63E0000A
:101BB000A05607F78C6357BE545CE1FDAC35FAC202
:101BC000D5F25ABE7C318EBDDBFE4D036F5EA61F83
:101BD000232DCA68F0C614CCC33EF021D4402A722B
:101BE000B67EE285D68AFB48512777E4CBCD2FF627
:101BF000E1BCFEEDA1145FE532FCCFD9FB2FE9ADCE
:101C00007D2D68E79A15956A4AE4ABE4EBE00D4058
:101C1000BDEF8FB975B439086DC09F04FFCCDE13DA
:101C2000304EB6E4E0CB69E5C61C2F436A632572EB
:101C3000D5DFBDDC0BE9089D3D266FC389F818ACE4
:101C400042BF4E9D5D28B0264136768D8684FAD8F7
:101C5000D467581969202D35FE09D98CFDF921A1C9
:101C600057DF17AE8ECBC97F2654DE104372DDBC22
:101C700018B934F9AB70F9744D8E6D2A331406D04F
:101C800071E6ADAABE862E9A8D8788AF039FCBF8EA
:101C9000789A663809CDAE89C2CCAF6A1614094865
:101CA000AE9B55E40FA586A1757F7CEF0DCB3AB3B3
:101CB0000D1F020C801FB4F4E0A641CC87004061E8
:101CC00043E7FCB40124CA4534253C39FF098C396B
:101CD000855A5BCC273CBD28438645179A4E352450
:101CE000A423A2FDCA6CD4FBBAE741B3FB7C550721
:101CF000B56E3EB12972CC38EA273080B98CB8EE87
:101D000054AB3EDBDD06D095EA3E42886BAE89C718
:101D1000E84C38B693F6BE4C204A8CCE2B22D272B9
:101D2000494618568070675AFAC0CA6D5321CAE3F3
:101D3000866891D37CA9D5AD6A72A1FE53E940852E
:101D4000EA62A963753A2DEC9BFE58D873205210B5
:101D5000435C2DB421B9961F726DBA42EAF285BE7A
:101D60005212A7B13E2B89EF0F73057C99C3C55F53
:101D70009653F8AF9B7A49A044546055F0103A60EE
:101D80008D905065AEF779DB2E08F9BBF2D278D092
:101D900086B594A10EB98189B7F9C043E88F381987
:101DA000DAED2FA75CDB01B338CEE6C3F2D5AA8704
:101DB0009E116FD805F072ABD9A10FFF46E94A8C8E
:101DC0000093E9866F6B1470BEB1B889C9CC7D1AD7
:101DD00011D279FBD9D72413948F019C4B693366B8
:101DE00001829888F84C13310F58C1061130B4891C
:101DF00091349B89FC75CD11CA1A6FFA71D645E7EB
:101E00000FEB3909B35A131FAA3A93CF8D6ECAEC60
:101E10002C8EC5831B5AD6D189AC024FCB0F2576A9
:101E200096E05D2CFFA7EAEA92F1725BEE08D88497
:101E30008AA959E31277DAD6CA4E362D7CA413D17B
:101E4000E818319902540AD07A74A0AD2C834A6FF5
:101E5000F1B1501B6469E8842F2CC8EB953DA5189F
:101E6000C74B82FC88E1D37B0EBE10BA6502859B0E
:101E7000469A377A774DC2C45330679154F63D394C
:101E8000444342132E0929FD50A6DA94CE869710BA
:101E90002B5C1C09CD0FFC15DC543B53E17CA7E106
:101EA000FD47C2AF7EEA340C6FE65C04306C84C739
:101EB00051E3B55F349EDD050C1CD4BCFBCD3AAEBE
:101EC000BC529254852CED0FFBF873105DD81F06A1
:101ED000E0A15926B4393FC119F9D4BE4FF433EC0F
:101EE0003F3FFE8F91D044F21278909E79A927EE61
:101EF00005CB9F5A4B15DE6739181FE73A0A419800
:101F0000E7DEA728A0D354663379B53A83375F2537
:101F1000407047B8796B62963F48EA9F6ECB35E1D7
:101F20006F2DC4C24B9BA74D05790E1CFE095A9F0D
:101F300087227A131B9F994D05DB1573D865FE39EF
:101F40005EA4437B6C79BD73914C9B4C941887EADB
:101F500068A7449F5C3666FD41145EB18EEB45DA9E
:101F6000770EE0EC5EF40DBF41C648F015D860F77F
:101F70004076237B1CE559445030CE064EC5A670F2
:101F8000C31817A237ACBF2C6FBC9B3F581211105F
:101F9000390018DB7D0BD22CEE0AAF76947AC15C47
:101FA00021D2619F1D7A9695DFA45181E61BD57CD5
:101FB0003644F060FF3AF632EC8FE09AC7E3BCADEE
:101FC000EBA694714B6D38974C36A275FFFB3FEB37
:101FD00060E131B1BC32776CBD49934BC207BAF0B6
:101FE00067FD68CAF5A4FF2A5EE2BEB569B2A063C8
:101FF000931BB4BD4612FAEE885F46DFB2BAE8BA68
:102000005447EA18FA0891779B1C878B01709EC091
:10201000052BAAD7AF30A8018B28A0F59599325F80
:1020200008C4EF65453CC36DEFB8349D1C0466865B
:10203000F2BC9D8797BE08DD58DD530F7DEC930BF6
:10204000B95BE3087615DFC7682FA8F84D338FAE6C
:102050000884C3E8CB9C718009D7116321040EC6A4
:10206000F0509E0AA799149A5AF9AA5F06DF5C52AB
:10207000374B390C7E18C1ABD636F578BD9F790E3B
:10208000F233610EC30B5A24023F42353DA4ADC565
:10209000305076E7E34508661821EBDD1476F8F159
:1020A00055E83B9D8B9392FFA7803438C2AD7CFFEF
:1020B000BD232B0B2C5FEAC09500FB8C376B8A424B
:1020C000913EEFD65143216F803EBDF2B32407A568
:1020D000924A76513172354725E7B9D0F4C2DD52C4
:1020E000353A23C416FA2A8D99D0B953C2125C3FEF
:1020F000CE8DDBD1C8D159E588FF4911ABAB7BD17F
:10210000F2B43749A0B1FEFE6C08761D0B9AF4B10B
:102110006DA0F220E417A74D85B38E7ACB8730AF40
:10212000119020A819EA2207FAC14CE8FCA2038FFB
:102130002AC536E4AF669BBA0ADD6590DAD7276216
:10214000D9193BABF666892DA53070E9AAE2D9C151
:102150002347FD9A254A5F896297614B91FC341BA6
:10216000FC97B27B87F454FCD63648C28779A3C467
:102170008F42B13147DDE8D00A714722F3F49F283E
:102180007A700CBC5930E0E4132465BD4C0E6D9E92
:102190004D15901972C928B6950E92F9795C64B9FB
:1021A000B97BD7DCB4B9B4967F7255AE1EB0028E3F
:1021B00045BDF0A590B7301240B6409CF162637205
:1021C0006DF0BA1AF6F0406A47A2FC9BD870191A53
:1021D000F524F64D2F64FDF7C3FDA7455D94318FBF
:1021E000D69F5D216641D43951AF618C1E9F061187
:1021F000E97A8831E126B61C7406F59835171AABD2
:10220000193A8CC60E7E14D06E441C666167F18E3E
:10221000287230D2BF7D6F08179962EE7818543A51
:10222000D57F61AC10833E2C924F5A985997FB8210
:1022300097ADC873A26C0D06CF0A69DAEB9EF767FB
:102240007FDEE8830B465A3F02B3607FDCA3FF14B6
:102250008ECFA26572CE3E11392D9494478EC78CD5
:10226000706B7C498E3CD74C02C877A5FDBA9A0AA0
:102270001A1BD94A8303DFE2756E28D9631F02183F
:1022800027278F4BE7000000A90200000000004450
:102290002A3C5422082A1C2A0808083E0808080874
:1022A000080808006060000040201008043E41411A
:1022B000413E00427F400042615149462141454B29
:1022C000311814127F1027454545393C4A49493099
:1022D00001710905033649494936064949291E0055
:1022E0003636000041221408007C1211127C7F490E
:1022F0004949363E414141227F4141221C7F4949A3
:1023000041417F090901013E415949327F080808CE
:102310007F00417F41002040413F017F081422415E
:102320007F404040407F020C027F7F0408107F3EC8
:102330004141413E7F090909063E4151215E7F0925
:10234000192946264949493201017F01013F404090
:10235000403F1F2040201F3F4038403F6314081477
:10236000630708700807615149454300007F00007A
:102370007F102844007C041804784464544C4400C2
:10238000FFFFFFFF01FFFFFFFF0203FF040506073A
:1023900008090A0B0C0D0E0F1011FFFFFF12FFFFB3
:1023A000131415161718191A1B1C1D1E1F20212285
:1023B000232425262728292A2B2CFFFFFFFFFFFF98
:1023C000FFFFFFFFFFFFFFFFFFFF2EFF2FFFFFFFBE
:1023D000FFFFFFFFFFFFFFFFFF30FF2DFFFF0100AB
:1023E0000C010C010F000C100F00011E0C0100105D
:1023F0000F0000010F00010F0C01011E02013F063A
:102400005B4F666D7D077F6F8000A03111241FBE7A
:10241000CFEFD8E0DEBFCDBF14E0A0E0B1E0E0EE4A
:10242000F3E702C005900D92AC35B107D9F726E06D
:10243000ACE5B4E001C01D92A93CB207E1F712E19E
:10244000C6E0D2E104C02197FE010E94E139C53007
:10245000D107C9F70E9421320C94EE390C94000088
:102460008093BB0084E88093BC008091BC0087FF10
:10247000FCCF8091B900887F803231F481E0809375
:102480000A0481E090E008958033D9F781E08093D9
:102490000B04F7CFE5CF089594EA9093BC00909198
:1024A000BC0097FFFCCF90E0880F991FF3CF0895F1
:1024B00080910904815080930904882351F084ECB1
:1024C0008093BC008091BC0087FFFCCF8091BB0053
:1024D000089584E88093BC008091BC0087FFFCCF06
:1024E00080910C04882321F084E98093BC00EECF16
:1024F00084EA8093BC008091BC0087FFFCCFE6CFCC
:10250000CF93C62F21E020930C046093090424EAA2
:102510002093BC002091BC0027FFFCCF880F991F9F
:102520008E7F91708160B6DF8C2FCF910895B0E0DF
:10253000A0E0EDE9F2E10C94B239EC01241708F0C7
:1025400020E031E0211101C030E0340FFE01E30F43
:10255000F11D1082F0E0E0E0842F821B990B5C01FA
:102560001EE28AE0C82ED12CE417B8F4222341F0F1
:10257000AE16BF0629F43150DE01A30FB11D1C9326
:1025800031507E01E30EF11CCB01B6010E942039CF
:10259000805DD7018C933196E7CF211101C0242FA4
:1025A00080E02150330BE82FF0E0E217F30744F40A
:1025B000EC0FFD1F9081903319F400838F5FF3CFF0
:1025C000CDB7DEB7EAE00C94CE39E62FF0E093E029
:1025D000F595E7959A95E1F724E0829FC0011124D3
:1025E000E80FF91FE255FA4F677021E030E001C0B3
:1025F000220F6A95EAF78081822B8083089580916B
:10260000A7054ADF80E42CCF08958091A70544DF19
:1026100080E026CF089590E0FC01E859FA4F24911C
:10262000FC01EC5AFA4F3491FC01E05CFA4FE49162
:10263000EE23C9F0222339F0233001F1A8F4213030
:1026400019F1223029F1F0E0EE0FFF1FEA5CFA4F9A
:10265000A591B4918FB7F894EC91611126C0309593
:102660003E233C938FBF08952730A9F02830C9F04E
:10267000243049F7809180008F7D03C080918000D5
:102680008F7780938000DFCF84B58F7784BDDBCFD9
:1026900084B58F7DFBCF8091B0008F778093B000A1
:1026A000D2CF8091B0008F7DF9CF3E2BDACFCF9380
:1026B000DF9390E0FC01EC5AFA4F2491805C9A4F32
:1026C000FC0184918823D1F090E0880F991FFC01D0
:1026D000E45DFA4FA591B491FC01EA5CFA4FC59113
:1026E000D491623071F49FB7F8943C91822F809519
:1026F00083238C93E8812E2B28839FBFDF91CF917A
:1027000008958FB7F894EC912E2B2C938FBFF6CFB2
:1027100062E082E1CCDF62E083E1C9DF88E480939C
:10272000B8001092B90008953FB7F8948091A305BE
:102730009091A405A091A505B091A60526B5A89BEA
:1027400005C02F3F19F00196A11DB11D3FBFBA2F43
:10275000A92F982F8827BC01CD01620F711D811D03
:10276000911D42E0660F771F881F991F4A95D1F788
:1027700008958F929F92AF92BF92CF92DF92EF9285
:10278000FF926B017C01D0DF4B015C01C114D104CD
:10279000E104F104B1F0C8DF681979098A099B09DD
:1027A000683E73408105910588F321E0C21AD10883
:1027B000E108F10888EE880E83E0981EA11CB11C88
:1027C000E5CFFF90EF90DF90CF90BF90AF909F90BC
:1027D0008F900895CF93DF93CDE7D6E061E08881B5
:1027E00066DF6AE070E080E090E0C3DF60E088814F
:1027F00012DF6AE070E080E090E0BBDF61E088819A
:102800000ADF6AE070E080E090E0B3DFDF91CF9113
:1028100008952FB7F89460919F057091A00580915D
:10282000A1059091A2052FBF08950F931F93CF93F9
:10283000DF930BEA14E0EC01C457DF4FC8010197A6
:10284000F1F761E070E0888199815ADE31DE87FF1F
:10285000F5CFDF91CF911F910F9108950F931F93A3
:10286000CF93DF93EC018B01D4DF607F7370E8813D
:10287000F9819F012F703327AF01407F5370AA81E8
:10288000BB818C919C8189236417750708F47C5F58
:10289000DB01A41BB50B23303105D1F168F42130E5
:1028A000310589F190F0882309F45AC0A034B105AC
:1028B00050F030E020E007C025303105D1F190F133
:1028C00026303105E9F180E005C08111FCCFAB0174
:1028D00021E030E0EE27FC7FE22BF32B407F5370AA
:1028E0004E2B5F2B598348838823E1F10115110595
:1028F00029F0652F66956695F8010995DF91CF91CE
:102900001F910F9108958111D4CF23E030E0E2CFE1
:1029100081111CC0A034B140B0F2AB0124E030E022
:1029200083E0D8CF811116C0D09768F2AB0187E061
:10293000D1CF882391F0AB0122E030E08BE0CACF09
:10294000882319F322E030E081E0C4CFAB0126E018
:1029500030E0B9CF25E030E0B6CF24E030E0B3CFAF
:10296000AB01B1CF2330310548F288E0C7CF809169
:1029700061008F7020E939E542E050E0813089F054
:1029800028EC3CE241E050E0823058F028EB38E897
:1029900040E050E004C0220F331F441F551F8A95AA
:1029A000D2F760E074E284EF90E00E944739205152
:1029B0003109410951095695479537952795209337
:1029C000B80008959FB7F894E1E6F0E020E820838E
:1029D00080839FBFCCCF0895E8EBF4E01082138290
:1029E0008AE086831182148287831282158280870F
:1029F00008950FDF60936305709364058093650508
:102A00009093660528EE33E040E050E00E9447399D
:102A100030936805209367050895FC014FB7F8943B
:102A20008081918120813181281B390B3183208362
:102A30004FBF08959FB7F894309903C081E0809309
:102A4000B5048091B5049FBF0895E0912C0182E107
:102A5000E802F0011124E15DFE4F8185928590939B
:102A6000360580933505089580913505909136059A
:102A7000E0912C0122E1E202F0011124E15DFE4F20
:102A8000248135818217930738F0268137812817F2
:102A9000390710F0928781870895833041F46430BC
:102AA00028F0663020F06A50623008F081E0089526
:102AB00064E6873822E09207B8F460E08C3E21E0BB
:102AC000920790F0893622E0920780F042E1489F19
:102AD0009001499F300D1124C90180559B426FE13F
:102AE00070E00E9420396E5A862F0895823422E0C9
:102AF000920778F043E2489F9001499F300D1124DE
:102B0000C901835E9E4467E270E00E942039615DE6
:102B1000EBCF833122E0920778F048E2489F9001A2
:102B2000499F300D1124C901805D92456FE270E02C
:102B30000E942039695FD8CF47E0489F9001499FA4
:102B4000300D1124C9018D569D4067E270E00E944E
:102B50002039CACF8E508770806480937C0087E8CC
:102B600080937A0080917A00806480937A008091CB
:102B70007A0086FDFCCF80917800909179000895CD
:102B8000FC018081280F261714F440830895421712
:102B900014F02083089560830895282F44E060E0B6
:102BA0008FE495E0EDCF089534DE28EE33E040E089
:102BB00050E00E944739309368052093670581E013
:102BC00080936905089580912E01823069F08330E9
:102BD00019F0813039F4089580910901823021F093
:102BE00081E0089580E0089582E0089580912E01AB
:102BF000882329F090912E0181E0943008F080E044
:102C000008958436910520F40A9758F481E00895D8
:102C1000803127E2920738F4883E934030F483E015
:102C2000089582E0089585E0089584E008959091E4
:102C30002E0181E0943009F080E00895D7CF089507
:102C400090912E0181E0943009F480E0089581E0B4
:102C500008959AE0899FF0011124E852FC4F859174
:102C60009491009719F0FC010995089581E0089569
:102C7000E82FF0E0E65CFA4F908181E0891B8083C9
:102C8000089587E1F5CF089583E1F2CF089586E1B5
:102C9000EFCF089588E1ECCF08958AE1E9CF089558
:102CA0008BE1E6CF089589E1E3DF809153058ACE79
:102CB000089584E1DDCF089584E98093BC0080917C
:102CC0000A04882331F010920A0410920B0482E067
:102CD000089580910B04882321F010920B0483E067
:102CE000089580E0089586EE95E09FDD809172065C
:102CF000D3DB82E190E0CEDB90E080E0CBDB81E0D3
:102D0000AFDB81E0ADDB8091C206AADB8091C1061A
:102D1000A7DBD2DF83E998E00197F1F7089587E018
:102D2000A7DF64DF882349F08091C20690914105B6
:102D300090FB85F98093C206D6CF0895E0912C01CF
:102D400082E1E802F0011124E15DFE4FE7850E2EDD
:102D5000000CFF0B909143058091C106992329F047
:102D600020912E019150233051F4E25BFB4F2081E2
:102D7000222321F0245091E0223008F490E0929533
:102D8000907F8F70892B8093C106ADCF0895282F37
:102D900042E060E083E495E0F3DE28DF8111CECFEE
:102DA0000895CF93DF93D82FC92F86EE95E03DDDB0
:102DB000D0939106C0939206C0939406D093950643
:102DC0009091C706992361F0809193069295990F8F
:102DD000990F907C8370892B81608D7F80939306FF
:102DE0008091720659DB80917E063ADB80919306D2
:102DF00037DB8091940634DB8091950631DB80913E
:102E000096062EDB80917E06803419F48091970619
:102E100027DB52DF86EE95E008DDD0938306C09372
:102E20008406609174067091750690E080E0A1DCE4
:102E3000DF91CF910895FF920F931F93CF93DF936C
:102E4000D82F80917E0608E010E0C3E2803241F086
:102E500006E010E0C3E4803519F408E010E0C3E5B3
:102E600086EE95E0E2DC8091720616DB8C2FF8DAB4
:102E70008D2FF6DA21DF86EE95E0D7DCB801809160
:102E80007206909173063CDBF12CCF2DD0E0C01779
:102E9000D10734F40DDBC856D94F8883F394F5CFAE
:102EA000CDB7DEB7E5E00C94D339CF93C82FCF7000
:102EB00086EE95E0BADC80917206EEDA82E190E06F
:102EC000E9DA90E080E0E6DA81E3CADA82E0C8DAA3
:102ED00081E0C6DA8C2FC4DAEFDE86EE95E0A5DC61
:102EE000CF9108958091C80687FD06C061E093DB0D
:102EF0008BEA94E00197F1F786EE95E096DC8091FD
:102F00007206CADA81E190E0C5DAD6DE8BE097E29C
:102F10000197F1F70895FF920F931F93CF93DF93DB
:102F2000C82FD62FF42E890180917206B5DA8C2F26
:102F300097DAC1E0DC1748F5CF1538F5D801ED91E7
:102F4000FC911197CF0101968D939C93E458FA4F11
:102F5000E4918E2F90E09EDACF5FC83059F7ACDE57
:102F600086EE95E062DC61E070E0809172069091FF
:102F70007306C6DA9DDA86FB882780F991E08927F7
:102F8000CDB7DEB7E5E00C94D33990E080E0E3CF35
:102F9000EF92FF920F931F93CF93DF93EC01F62EE6
:102FA000E72E142F052F41DCC457DF4F888174DAD8
:102FB00082E190E06FDA90E080E06CDA8E2D50DAFA
:102FC0008F2D4EDA802F4CDA812F4ADA75DE83E9B5
:102FD00098E00197F1F7CDB7DEB7E6E00C94D2396F
:102FE000CF93C82F482F50E060E070E486EE95E064
:102FF000CFDFC093C506CF91089590912E018091A7
:103000000A01943071F490E020915605821B9109D9
:1030100027FD939597FD07C08034910514F08FE349
:1030200090E0DECF089580E0FCCF282F4FE060E0F5
:1030300086E595E0A5DD80912E01843009F4DDCF91
:1030400008951F93CF93DF9386EE95E0EEDB80919A
:10305000720622DA81E090E01DDA8091C30600DA80
:103060008091C406FDD928DE86EE95E0DEDB609116
:1030700076067091770690E080E07BDB8091C80651
:1030800087FD06C060E0C7DA8BEA94E00197F1F7AC
:1030900080918906811120C0C0918C06D0918D0647
:1030A000AE0161E072E086EE95E072DFD0938D06AE
:1030B000C0938C0610919006C0918E06D0918F0619
:1030C000AE0162E072E086EE95E062DFD0938F069B
:1030D000C0938E0610939006DF91CF911F910895B3
:1030E0001F93CF93DF93EC01122F90938006809370
:1030F0007F06709382066093810681E090E0909352
:103100008606809385064C175D0720F064177507C7
:1031100008F0EA019091C606209189068091C306C5
:1031200030918A0630FB87F98F7920FB84F9807F04
:1031300081608093C3069093C40680E480937E06EA
:1031400080919306807C816080939306109296060E
:1031500081E08093970675DF8091C50641DF10936B
:10316000C70682E080938706D0938406C0938306C7
:10317000CE0117DEDF91CF911F910895282F4FE0E8
:1031800060E08AE495E0FCDC80912E01843051F40B
:1031900040914A05042E000C550B63E073E186EE66
:1031A00095E0F6CE0895282F4FE160E089E495E0A0
:1031B000E7DC80912E01843051F440914905042EC2
:1031C000000C550B62E073E186EE95E0E1CE0895C8
:1031D000282F4CE360E08CE395E0D2DC80913C0545
:1031E00081110DC080915705882349F050E040E0DF
:1031F00061E070E486EE95E0CBDE1092570508950D
:103200008CE036DD80912E01843049F440914605F2
:103210004F5F50E060E071E186EE95E0B9CE089531
:1032200090912E01943029F1282F4AE060E08BE341
:1032300095E0A6DCC8DCE0913B05A82FB0E0A854DF
:10324000BB4F1696EC93F0E0ED59FC4FE49184EF00
:103250008E0F8F3470F4E093880684E591E0E89F48
:10326000A001E99F500D112463E071E386EE95E023
:103270008FCE0895282F4FE360E08EE395E080DC49
:1032800080917E06803241F040913E0550E063E03F
:1032900073E386EE95E07CCE0895282F40E260E04F
:1032A0008DE395E06DDC8FDC40913D05E82FF0E08B
:1032B000E854FB4F438380912E01843031F050E07D
:1032C00062E073E386EE95E063CE0895E82FF0E0C8
:1032D000E854FB4F438150E062E073E386EE95E0F3
:1032E00057DE40913E0550E063E073E386EE95E0E3
:1032F0004FCE0895FF920F931F93CF93DF93F090DB
:103300004805CBECD2E003EE12E0FE01659174912A
:10331000FE01329645915491F11002C0452F552778
:10332000552786EE95E034DE24960C171D0769F7C5
:10333000CDB7DEB7E5E00C94D3398EE099DC80910F
:103340002E01843009F4D6CF0895B0E0A0E0EBEA76
:10335000F9E10C94B439AC01EB01209135053091C1
:103360003605A8EEB3E00E948B396B017C01CA01DF
:103370009695879597018601080F191F211D311D0C
:10338000C901B8019A0150E040E00E944739A90103
:1033900064E071E386EE95E0FBDDCE0196958795BE
:1033A000A7019601280F391F411D511DCA01B901FE
:1033B0009E0150E040E00E944739A90165E071E3B9
:1033C00086EE95E0E5DDCDB7DEB7E8E00C94D039C8
:1033D000CF93DF93EC01FE01659174916115710546
:1033E00049F0FE0132964591549186EE95E0D0DD8C
:1033F0002496F1CFDF91CF91089585E039DC80915B
:103400002E01843039F080913F05811104C08EE691
:1034100093E0DECF089586E793E0FBCF83EE92E062
:10342000D7DF40914905042E000C550B62E073E193
:1034300086EE95E0ADDD40914A05042E000C550B5B
:1034400063E073E186EE95E0A3DD83E293E0C0DF05
:1034500080914705811104C087EF92E0B9CF0895AC
:1034600083E093E0FBCF8DE003DC80912E0184307C
:1034700009F4D4CF089580912E01811114C0E091F8
:103480002C0182E1E802F0011124E15DFE4F80850C
:10349000823031F480914B05823031F0833051F02D
:1034A00083E592E095CF089560EB74E080E496E0C8
:1034B0004CCF08956CED75E080ED97E0F9CF282FA3
:1034C00043E060E08BE495E05BDBD5CF0895B0E0AE
:1034D000A0E0EDE6FAE10C94B139EC01D62E142F00
:1034E000FC01E856FF4F8081803261F098E0E92EC0
:1034F000F12C02E4803451F026E0E22EF12C02E5BA
:10350000803521F088E0E82EF12C02E2CE018DD941
:1035100080E0D0FA80F910FB81F9182F13706E014A
:103520008CE8C80ED11CF60180810E944C12802FBD
:103530000E943012812F0E943012BEDB5E01FAEB36
:10354000AF0EB11CCE0171D9B701F6018081918116
:103550000E948012912C092D10E00E151F0554F4C5
:103560000E9458120C0F1D1FF801E654FF4F808374
:103570009394F1CFF501808186FDE4CFCE0155D93A
:10358000CDB7DEB7EBE00C94CD39CF93DF93EC01F0
:1035900093DB1882DF91CF9108950E9430128091C1
:1035A000AD058F5F8093AD05803420F08DEA95E006
:1035B000ECDF25C80895B0E0A0E0E1EEFAE10C945C
:1035C000B439C82ED42EC62FD0E07E0183E0F59406
:1035D000E7948A95E1F7C20FD11D219793E0D59525
:1035E000C7959A95E1F711D881E2D7DF8C2DD5DF09
:1035F0008FEF8D0D8C0DD1DF82E2CFDF8E2DCDDFF1
:103600008C2FCBDF8DEA95E0C0DFCE19CF5FCD9D4B
:10361000E00111240E94FF127801C00FD11FEC16A7
:10362000FD0659F080E00115110511F0F7018081C8
:10363000B4DFFFEFEF1AFF0AF2CF8DEA95E0A5DFC6
:10364000CDB7DEB7E8E00C94D0390F931F9310E0AC
:1036500000E0B1DF1F910F910895A3E0B0E0E3E334
:10366000FBE10C94B73989838091A9059091AA0553
:103670008A3791050CF046C089818A830E94FF1227
:1036800010E000E09A8190529983EA81E052FF0BAA
:10369000E158FC4DFB83EA8385E0F82EF981FF3584
:1036A00008F036C0EA81FB8184918F3F89F1F801EF
:1036B0008F9DE00DF11D1124E657FD4D84919091F1
:1036C000A8059111809569DF8091A9059091AA05BF
:1036D00001969093AA058093A9050F5F1F4F0530AF
:1036E0001105E1F68091A805819557DF8091A90524
:1036F0009091AA0501969093AA058093A9058DEA59
:1037000095E043DF81E090E02396E5E00C94D33927
:1037100080E0D5CF0F931F93CF93DF93009769F08D
:10372000EC018C01C8018C1B9D0BF80121918F01CC
:10373000222329F0822F91DFF5CF90E080E0DF9106
:10374000CF911F910F9108950F931F93CF93DF9304
:103750008C01D0E0C0E0F801EC0FFD1F84918823BC
:1037600019F07BDF2196F7CFCE01DF91CF911F912A
:103770000F9108954F925F926F927F92AF92BF9296
:10378000CF92DF92EF92FF920F931F93CF93DF932D
:10379000CDB7DEB72A970FB6F894DEBF0FBECDBF08
:1037A0006B017C01B12C8AE0482E512C612C712CCC
:1037B0008E010F5F1F4F9AE0A92EC701B601A3012A
:1037C00092010E944739F801EB0DF11D80E3C80E0C
:1037D000A29EC0181124C08269017A01B394C11459
:1037E000D104E104F10449F7EB2CF12C6801CE0C73
:1037F000DF1C0C151D0529F0F60182916F012DDFEC
:10380000F8CFC7012A960FB6F894DEBF0FBECDBF22
:10381000DF91CF911F910F91FF90EF90DF90CF90AC
:10382000BF90AF907F906F905F904F900895682FFA
:1038300070E090E080E09ECF0895EF92FF920F93AA
:103840001F93CF93DF937C018B01EA010E94051344
:1038500081E2A3DE80E0F7FC06C0C7018038910555
:1038600014F08FE790E099DE8FE797DE82E295DE35
:1038700080E017FD06C0C8010830110514F087E08C
:1038800090E08BDE80E0D7FD05C0CE01289714F0D4
:1038900087E090E082DE8DEA95E077DECDB7DEB797
:1038A000E6E00C94D239E7EAF5E0938382837583EE
:1038B000648323E0759567952A95E1F7AB01BDCF49
:1038C000089523E0660F771F2A95E1F7ECCF08955E
:1038D000FF920F931F93CF93DF938A01F22E70E034
:1038E00090E0EFDFC7EAD5E0F982C8012DDF198249
:1038F000CDB7DEB7E5E00C94D33980912E0183304B
:10390000F0F4E0912C018130E8F082E1E802F0016E
:103910001124E15DFE4FE78545E151E0E40FF52F0D
:10392000F11D44918091390521E0833009F020E0B8
:1039300050E0455E5E4F67E088E2CACF089584306C
:1039400059F0089582E1E802F0011124E15DFE4F93
:10395000E6854EE051E0E2CFE0912C0182E1E80201
:10396000F0011124E15DFE4FE08949E051E0D6CF3E
:103970001F93CF93DF9390912E01933091F1282FD5
:1039800080912C01C82F082E000CDD0B30912E01E8
:10399000333020F542E18402C0011124313028F196
:1039A00045E060E0825C9E4FEBD882E18C9FF001A5
:1039B0008D9FF00D1124E15DFE4FE7850E2E000C6A
:1039C000FF0BE25BFB4F90819F708091C106807F6F
:1039D000892B8093C10687D9B1D902C0343009F14F
:1039E0008CDFDF91CF911F91089546E060E0835C0A
:1039F0009E4FC6D880917E06803491F782E18C9FDD
:103A0000F0018D9FF00D1124E15DFE4FE6850E2E35
:103A1000000CFF0BE95BFB4F8081873008F745DA2C
:103A2000DFCF219512E18102C001112444E060E062
:103A3000815C9E4FA5D81C9FF0011D9FF00D1124A5
:103A4000E15DFE4F408950E062E071E186EE95E075
:103A50009FDAC6CFCF9380913905C1E0823009F05B
:103A6000C0E02C2F42E051E060E082E231DF809143
:103A70002C01082E000C990B20912E01213030F1E1
:103A80002430C8F0243011F522E1289FF001299F4D
:103A9000F00D1124E15DFE4F85858C5FC093A80574
:103AA00027E0829FC00111248E569F4F4DDE109259
:103AB000A805CF91089522E1289FF001299FF00DDC
:103AC0001124E15DFE4F8485895FE8CF22E1289FC4
:103AD000F001299FF00D1124E15DFE4F8385DECFBB
:103AE0000F931F93CF93DF93C0912C012C2F0C2E9B
:103AF000000C330B90912E0142E1C402E00111242D
:103B0000913048F1943008F1943029F5C45CDE4FCF
:103B100005E011E042E0282F60E0CE0131D8011528
:103B2000110569F0888190E0880F991F080F191F0F
:103B3000F8018081918190938606809385068ADFC3
:103B4000DF91CF911F910F910895C55CDE4F10E07A
:103B500000E048E0E0CFC65CDE4F92E1929FF001CA
:103B6000939FF00D1124E15DFE4F90850CE011E074
:103B700043E0923080F246E0CECFA3E0B0E0E3EC49
:103B8000FDE10C94B83980916205811120C08091CB
:103B9000B604811120C060910A0170E000E220E0CB
:103BA00042E0CE0101960E9497121091390570E013
:103BB00060E082E790E085DE81E0113009F080E08E
:103BC0008093A805CE010196A5DD1092A805239645
:103BD000E4E00C94D43980E289838DE48A831B82EB
:103BE000E4CF9091B604911115C020910A01482F9D
:103BF000880F550B240F352F311D37FD06C020349B
:103C0000310514F02FE330E0922F90930A01F5D99B
:103C1000B4CF08951092B604FACFCF93C82F8091F5
:103C2000B604882341F0C3FD10C0C13011F46630E2
:103C300061F481E009C08C2F8370833031F4CB3084
:103C400021F08FEF6630A9F3CCDF8C2FCF91089550
:103C50008091620581110CC080913905813041F05D
:103C60008091B604882329F01092B604C6D985CF76
:103C7000089580910A018823D9F38093B60480E0E7
:103C8000AFD9F5CF0F931F93CF939091B70499239A
:103C900009F475C0909154059130D1F090E1C82F8E
:103CA000892F0E94AA151816190614F08BEE91E0C0
:103CB00040910001509101014F3F540759F49093F6
:103CC0000101809300010E9458158093020119C0E0
:103CD0009FE0E5CF6FE0649F9001659F300D112458
:103CE000820F931F24E0959587952A95E1F790938D
:103CF0000101809300010E945815909102018913DF
:103D000003C010925C0407C090915C049F5F909385
:103D10005C049A30D0F60E94091400915D04109161
:103D20005E0420915F0430916004601B710B820B74
:103D3000930B613177428105910510F4CC23F9F0A2
:103D400080916205811111C0C091020167E070E0AD
:103D50008CE690E0B6DD1092A8058C2F68DD1092FD
:103D6000A805C43610F485E278DC0E94091460933B
:103D70005D0470935E0480935F0490936004CF9120
:103D80001F910F910895CF93DF9370E060E090E072
:103D900080E089DDC7EAD5E081E0898380E492E0B4
:103DA000D3DC80910B0143DD8CE757DC85E03FDD00
:103DB0001982DF91CF910895A9E0B0E0E2EEFEE133
:103DC0000C94AA39D82EE0902905809128058E15EB
:103DD00038F08FEF8E0DE11001C080E08093280550
:103DE00070E060E090E080E05EDD81E08093A80517
:103DF0008AE991E0A9DCEE2009F44AC00091280587
:103E00000F5F92E00A3008F491E029E082E02E157D
:103E100008F081E014E0191B181B115018F080E223
:103E20001CDCFBCF802F03DD8CE717DC8E2DFFDC45
:103E30001092A805109128058BEA189F112D1124C6
:103E4000F12EF694D1102AC080910301F81226C0F9
:103E5000EE2099F11F2D110F1F0D212F30E0F12CB5
:103E60002D5F3F4FE216F3060CF49701F22E02E0AD
:103E70001F1518F5602F70E090E080E022DD809142
:103E80002805181309C08EE3E8DB1F5F0E5FF0CF33
:103E900084E991E059DCCCCF80E2F6CFF0920301C7
:103EA00028E340E868E080E0E1100BC0CEDB20E0D2
:103EB0004BEA51E064E084E20BDD2996E2E10C94E8
:103EC000C639C3DB1F2D110F1F0D212F30E0F12C40
:103ED0002D5F3F4FE216F3060CF49701298735E07A
:103EE000139FC0011124DC01AF53BB4F7D0182E061
:103EF000582E98EE292E93E0392E2AE0822E912C0E
:103F000034E6632E712CB9851B17B8F6009128058D
:103F100028E040E8652D660F660F660F80E095DBB0
:103F2000A52CB12CB50190E080E0CBDC8EE3101322
:103F300080E293DB1F5F812F6AE00E941439092F12
:103F4000805D8BDB80E3800F88DB80E286DBF7011E
:103F500082818430A1F580819181B3010E94203952
:103F60006B01B4010E942039462E84E0F4E6CF169E
:103F7000D10408F085E021E1281BB50136E0239F3C
:103F8000C00111249EDCB60190E080E0F3DB8EE2FC
:103F900064DB842D4CDCB5018CE690E092DCD7012B
:103FA00012968C91B4E08B9FC0011124895E9B4FC7
:103FB000B1DBE5E0EE0EF11C53945394A4CF0190D5
:103FC000F081E02D44244A94480EB2E0D12CC12C5B
:103FD000B41598F0D70113968D919C91B1010E9470
:103FE000343997FF04C088519C4F61507109E60F26
:103FF000F71FB4010E9434396B0100E220E045E074
:10400000BF01CE0101960E949712B2E088E0B4157C
:1040100008F485E0E1E1E81BB501F6E0EF9FC0019F
:1040200011244FDCCE01019675DB22E0241508F443
:10403000B2CF8EE212DB3AE0C316D10410F480E373
:104040000CDBB60190E080E095DBA5CFA4E0B0E00A
:10405000ECE2F0E20C94B8398091620581112DC038
:1040600080915D05811129C010912D011F3F41F004
:1040700080912E01811125C080915005813009F574
:1040800068E370E08AE590E00EDC8EE890E05CDBAF
:104090000E94F615811111C028E04CE060E182E732
:1040A000D4DA80919A0683FF08C060E170E082E76D
:1040B00090E0F9DB8EE690E047DB2496E4E00C9498
:1040C000D43900914D0568E370E08AE590E0EBDBC0
:1040D000011109C01A3010F480E2BFDA812FA7DB8A
:1040E0008CE7BBDAD5CF90912E01E5E7F0E02FE029
:1040F000943019F4E4E8F0E02AE080E034913117DC
:1041000060F48F5F31962813F9CF9430F9F491E081
:10411000853008F490E089E00AC09430B9F4843026
:10412000B0F7E82FF0E0EF58FF4F849190E023E5DF
:104130002983893078F4805D8A8380E291118BE253
:104140008B831C82CE010196E5DAA2CF91E0893003
:1041500010F7ECCF89E3F0CF68E370E088E190E0FE
:10416000A2DB80912E01833091F020F48130A8F4FD
:1041700080E20BC08430E1F7809158058823C1F3B9
:10418000809148058111F4CF8AE267CA0895809131
:104190000901813041F085E5F8CF809144058130F7
:1041A00039F783E5F2CF8CE4F0CFCF93C82F0E948C
:1041B00005138DE8F2D980E1C11184E1EED98EEAD0
:1041C000C1118FEAEAD98DEA95E0DFD9CF91089540
:1041D000CF93DF9347E050E070E060E090E080E054
:1041E0002CDB0E94FF12C0E0D4E080E0D6D92197FA
:1041F000E1F78DEA95E0C9D96091AB057091AC0506
:104200008091A9059091AA054EDBDF91CF91089589
:10421000CF93E0914C05F0E0E35FFB4FC081CF5FAF
:104220000E94051381E8B9D98C2FB7D98DEA95E0A2
:10423000ACD9CF91089590914C05890F8A300CF03C
:1042400089E087FD80E080934C05E2CF0895A8E0E7
:10425000B0E0EDE2F1E20C94B2393B9A439A88E087
:104260008093B8000E94721786EE95E00E941514A4
:10427000809172060E944C1281E090E00E944A12E6
:104280008FE190E00E944A1285E090E00E944A127D
:104290000E945C165E0189E0A80EB11C86EE95E0D6
:1042A0000E94151468E070E0809172069091730688
:1042B0000E9480128E010F5F1F4FE02ED12E0E94B0
:1042C0005812F80181938F01AE16BF06C1F789819C
:1042D00086FDE4CF8BE097E20197F1F786EE95E05B
:1042E0000E941514809172060E944C1281E090E0A9
:1042F0000E944A1281E390E00E944A1285E090E019
:104300000E944A120E945C166091760670917706B0
:1043100090E080E00E94B91362E370E080E090E0FA
:104320000E94B9131A82198210E000E0F12C0539BD
:10433000F1E01F0740F430E020E00138110590F073
:1043400020E031E00FC0063F82E0180748F020E08F
:1043500033E00F3FE3E01E0728F020E034E006C022
:1043600020E032E085E10115110509F086E14F2DCD
:1043700050E0FA01EB56FD4FE491E20FF32FF11DEF
:104380000E171F0709F059C0F394415A5D4FFA0107
:10439000449192E0C92E443618F04456CC24C3947C
:1043A0002E2D3D2D60E00E948B178823C1F0CC207C
:1043B00059F02E2D3D2D48E06C2D85E10E948B1784
:1043C000882369F00F5F1F4F0F5F1F4F0135F4E027
:1043D0001F0708F4ACCF83EE93E00197F1F78091CB
:1043E0007E068032E1F0E0912C0182E1E802F001EA
:1043F0001124E15DFE4FE7850E2E000CFF0BE25B02
:10440000FB4F80818F7080618093C1068091C206CE
:104410008078806180688093C2060E94731688E469
:104420008093B8000E94B71481E08093B4043B9A53
:1044300043982896EAE00C94CE39C12C48E0B0CFDE
:10444000CF93DF9380912E01833009F05BC0809180
:104450000901E0912C0192E1E902F0011124E15DF2
:10446000FE4F218994E6290290011124823019F42B
:1044700031952195310980912E01D0E0C0E0833043
:1044800069F4C091450584E6C802E00111248091D9
:104490000901823019F4D195C195D10980917E0628
:1044A000803269F18091310590913205280F391FD2
:1044B000C20FD31FD195C195D10986EE95E00E9418
:1044C0001514809172060E944C1282E190E00E94C5
:1044D0004A1290E080E00E944A1281E00E9430126D
:1044E00080E00E9430128D2F0E9430128C2F0E948B
:1044F00030120E945C1683E998E00197F1F7DF9192
:10450000CF91089580912E01A4CF282F48E065E037
:1045100085E495E00E94C0150E94D41580912E017B
:10452000833009F48DCF0895CF93DF93C0912C0190
:1045300092E1C902E0011124C15DDE4F98859330FC
:1045400081F0282F49E167EE80E495E00E94C015D4
:1045500080914005898B0E94D4150E94F615811127
:104560006FDFDF91CF9108951F93CF93DF9391E099
:1045700018160CF090E0CFEFC80F82300CF4C0E0BA
:1045800080917E06D8E2803221F0D8E4803509F4AB
:10459000D8E510E090FB10F986EE95E00E94151426
:1045A000809172060E944C128D2F0E943012812F32
:1045B0000E9430128C2F0E9430120E945C1686EEF0
:1045C00095E00E941514DF91CF911F91089590916D
:1045D0002E0145E2943009F44AE1282F60E08AE395
:1045E00095E00E94C01580913A05BEDF0E94E31558
:1045F000E82FF0E0E854FB4F80913A05808308955E
:104600000E94E315E82FF0E0E854FB4F8081ACCF27
:1046100008958091B70381110CC081E08093B703A6
:10462000809153050E94E21481E0BFDD109298054D
:104630000895809162058111FBCF1092B70381E04C
:104640000E94E21480E0F1CF8091B703811111C084
:1046500080919805882369F081E08093B703809169
:1046600053050E94E21481E0A0DD109298050C949D
:10467000F9140895B0E0A0E0E0E4F3E20C94AE3960
:104680008E3209F445C0C0EDC80FCA3008F064C0CE
:104690009EE0C92ED62E84E0C89EA001112470E0B1
:1046A00060E08EEA95E00E94E739EC2FF0E0E250FE
:1046B000FC4DE491F12CE12C0EED13E2CE2FD0E075
:1046C000CE010E2C02C0959587950A94E2F780FFE3
:1046D00031C0F80184903196A4903196949031962F
:1046E000B49066246394680CBB20B1F0B12C6624AE
:1046F00063946A0C9B14F1F0782C7B0C6A2D872D47
:104700000E94E512662D872D0E94E512B394F2CF28
:10471000CAE084E0C82EBECF9B1461F07A2C7B0CDB
:10472000672D882D0E94E512672D862D0E94E512C7
:10473000B394F2CF0C5F1F4FFFEFEF1AFF0A88E030
:10474000E816F10409F0BCCF0EEA15E020E24C2D8A
:1047500060E18D2D0E94DB1ACDB7DEB7EEE00C9440
:10476000CA39A7E0B0E0E7EBF3E20C94AE398090F1
:1047700062058110A5C0982E0E94F615A82E6090A3
:104780003505709036058111BCC0E0912C0192E195
:10479000E902F0011124E15DFE4F808528E5E22E5B
:1047A00024E0F22E13E0833081F0823049F48091CE
:1047B0004E0538E5E32E34E0F32E12E0813029F087
:1047C00094E5E92E94E0F92E10E00FE2212F45E068
:1047D000B301CE0101960E949712C3010E940116F7
:1047E000B82E812C8CE045E0112329F08CE045E0C7
:1047F0008824839411E0140F9EE0499FA0011124A6
:10480000882011F04C5F5F4F123038F0E3E01E9FBC
:10481000400D511D11244350510927E230E0A110F1
:1048200002C030E020E0420F531F282F30E00AE69C
:1048300010E0041B150B021713070CF489019920D3
:1048400019F120E240E860E180E00E94251BCE01E2
:1048500001964C01F40171904F017720F1F0B801FD
:10486000872D08DFFEE284E07F128EE090E0039661
:10487000080F191FEFCF00E220E0482FB301CE014F
:1048800001960E94971259C09091B3049B15F9F2BA
:1048900040E8481B20E260E1D8CFA11015C028E015
:1048A00042E168E28DE60E94251B68E270E08DE639
:1048B00090E00E94531CC7010E948A1BB092B3046F
:1048C0002796EEE00C94CA39B801625071098EE265
:1048D000D1DE98012B5F3F4FC6016AE070E00E9475
:1048E0002039962FD82EB90180E3890FC3DEB80195
:1048F0006A5E7F4F80E38D0DBDDE84E08B1578F618
:10490000DDCF809131059091320568EE73E00E9411
:10491000343997FF04C088519C4F61507109660E6D
:10492000771E6AE070E00E9434396B01C3010E9477
:104930000116B82E81119FCF19824B2D84E5E82EE8
:1049400084E0F82E83E010E056CF909336058093F4
:10495000350580E006DF64E670E080E090E00C94CE
:10496000B9130895A6E0B0E0E8EBF4E20C94BA398C
:1049700042E1849FF0011124E15DFE4F21853285E3
:104980003A83298393859F70268540E1249F900177
:104990001124922B9B8394859F70278540E1249F4F
:1049A00090011124922B9C8395859F70208940E172
:1049B000249F90011124922B9D8391899E8396E0E0
:1049C000899FB0011124665E7F4F46E050E0CE0122
:1049D00001960E94F3382696E2E00C94D6390F93A4
:1049E0001F93CF93DF938091270581111AC01091F7
:1049F0002905153108F014E1612F8DE791E00E943F
:104A00000239C9E1D1E000E0011759F045E050E07A
:104A1000BE01CE0188559C4F0E94F3380F5F25964A
:104A2000F3CFDF91CF911F910F910895A7E0B0E0F0
:104A3000ECE1F5E20C94B63990912705992331F019
:104A4000109269052796E6E00C94D239182F0E943F
:104A5000341511110BC02091350530913605809128
:104A60002505909126052817390751F36BEE90E044
:104A700080E00E94023967E081E090E00E94023904
:104A80008091B604811102C080910A0189838091CE
:104A90002C018A8380912E018B8380913105909126
:104AA00032059D838C83809109018E83809108015A
:104AB0008F8347E050E06AE070E0CE0101960E94EB
:104AC000F33880912705811138C0112351F110E08E
:104AD00080912705811102C0812F44DF1F5F1432AE
:104AE000B9F78AE3E82E85E0F82E02EF10E0F7012F
:104AF00061917F01C8010E9402390F5F1F4F0F3083
:104B0000F1E01F07A1F780912705811108C049E056
:104B100050E060E171E088EB94E00E94F3385FDFE1
:104B200003C080912C011EDF8091350590913605E0
:104B3000909326058093250585CF1123A9F3D1CF26
:104B4000A8E0B0E0E6EAF5E20C94AD39182F562E55
:104B500080916205882309F4D1C080910B01982FC0
:104B6000990F990F891B880F8A5F810F66E00E9459
:104B70001439E92EF12CF594E79444E4C42E90FF07
:104B8000C12CE394EE0C812F0E942916A12EB12C8A
:104B90006CE372E0882319F1F501E65CFA4FF080CE
:104BA0008AE0189FF0011124EB52FC4FE4911A3176
:104BB00079F0E23008F44AC0153179F56AE06F0DFA
:104BC000F11001C062E084E0689FB00111242CC0A4
:104BD00081E068E372E0F81611F064E372E0CE0160
:104BE00005960E94D43860902F05062C000C77089B
:104BF000F12CD12C460183E2880E911C6A147B04AF
:104C000021F48091300581118BC0511048C0B7014B
:104C1000C4010E94611C80E26BC02F2DE33039F487
:104C200084E0F89EB001112460517E4FD8CFC501B9
:104C3000880F991FFC01EA54FE4F6491FC01E9546E
:104C4000FE4FE491E1112195620FBDCFF1100AC032
:104C500060EF71E0EE2309F4C2CF68EF71E012302B
:104C600009F4BDCF1B3041F460E36F0D6D8380E329
:104C70008E838F831886B7CF123109F4F3946F2D8A
:104C800067FD619570E000E220E043E0CE0105960B
:104C90000E949712F7FEEECF8DE28D83EBCF8AE074
:104CA000189FB001112460537C4F44E050E0CE01C6
:104CB00001960E94CB3811E06A147B0409F010E0E1
:104CC000512CB701C60105960E94611C8EE311119B
:104CD00001C080E20E942D1BCE0101960E948A1B1A
:104CE000B701C4010E94611C552009F494CF8EE3E2
:104CF0000E942D1BCE0105960E948A1B2896EFE08C
:104D00000C94C9398AE0189FB001112460537C4F7C
:104D100044E050E0CE0101960E94CB3810E0D1CFA4
:104D20005110F0CFB701C4010E94611CE0CFCF93B6
:104D3000DF93C0910B010C2E000CDD0BCE0101970F
:104D4000C82FCC0FC80FCC0FD6E0DC0FCD3130F41C
:104D500061E08C2FF5DECF5FCD13F8CFDF91CF91DF
:104D60000895CF93C0916205C1112FC0809139057C
:104D7000E0912C01843061F482E1E802D001112439
:104D8000A15DBE4FC1E018968C91833009F4C0E05C
:104D900082E1E89FF0011124E15DFE4F84E0AEEA7C
:104DA000B4E001900D928A95E1F71092B20470E0A0
:104DB00060E090E080E00E94611CC093A8058EEA4C
:104DC00094E00E948A1B1092A805CF910895CF937A
:104DD000DF9380913905843061F4E0912C0122E168
:104DE000E202F0011124E15DFE4FD1E080858330C5
:104DF00009F0D0E0C0912E0167E070E090E080E023
:104E00000E94611CD093A80524E0C29FC001112418
:104E1000895E9B4F0E948A1B1092A8059DD9A1DF35
:104E2000DF91CF910895CF93C82F10D98C2F99DCA3
:104E3000CEDF0E942A1D0E947D1C81E00E94421E3E
:104E40000E94BD1DCF910895CF93C2D98091620574
:104E50008823D1F10E94E315C82F8091BE048F3FB3
:104E600011F40E94EC14EC2FF0E0E854FB4F808129
:104E700080933A05838180933D05868180933B052D
:104E8000E0912C0182E1E802F0011124E15DFE4F86
:104E900081898093400580910B01882311F0863031
:104EA0001CF081E080930B010E94C31E90910B01C6
:104EB000892F880F890F880F865080932F051092B5
:104EC000300535DFCF9108950E94E315E82FF0E01B
:104ED000E854FB4F80913A05808380913D058383A0
:104EE00080913B05868381E080936A059FDD80E0A9
:104EF0009ADFE8CFB0E0A0E0E0E8F7E20C94B13947
:104F0000982EE0912C0122E1E202F0011124E15DF2
:104F1000FE4F1085DD24D394133009F0D12C8091FD
:104F20002E01CC24C394843009F0C12C8091570504
:104F3000882351F050E040E061E070E486EE95E0B7
:104F40000E94C81710925705CD1411F03B9A439A4E
:104F50000E9425158FEF80932D01909152051330FB
:104F600009F491E080919306837C809393062091CD
:104F70007E06203409F4F9C0903C08F090E090934C
:104F8000960680918306909184060E94D116C09166
:104F90002C010C2E000CDD0B133009F0EEC084E068
:104FA00080932E011092580582E18C9FF0018D9F15
:104FB000F00D1124E15DFE4FA5850A2E000CBB0B00
:104FC000AB5FBE4F2C91022E000C330B8185928576
:104FD00046815781048115811093800600937F06D6
:104FE000509382064093810630938606209385066F
:104FF0008017910720F04817590708F08C010E948C
:1050000072179091C6062091890630918B06809187
:10501000C30640918A0640FB87F930FB86F98F7DF5
:1050200020FB84F9807F8093C3069093C40680E2BE
:1050300080937E0680919306807C836080939306A4
:105040001092960681E0809397060E942118809125
:10505000C5060E94F0171092C706809172060E9442
:105060004C1282E190E00E944A1290E080E00E949F
:105070004A128FEF90E00E944A1290E080E00E9476
:105080004A1290E080E00E944A1290E080E00E9484
:105090004A120E945C168BE097E20197F1F710929A
:1050A00087061093840600938306C8010E94D116D8
:1050B00022E12C9FC0012D9F900D1124EC01C15DB8
:1050C000DE4F0E811F814C815D8160E074E186EED0
:1050D00095E00E94C817A80161E074E186EE95E0B2
:1050E0000E94C8174AE050E062E074E186EE95E065
:1050F0000E94C8178BE493E00E94E8191092B40450
:10510000488950E062E071E186EE95E00E94C817A0
:10511000409146054F5F50E060E071E186EE95E01A
:105120000E94C8170E940E1A0E947A1969DA8091AB
:105130006205811107C080915D05811103C048D8C7
:1051400081E071DE0E94FD17CD1411F03B9A439867
:105150008091350590913605909334058093330501
:10516000CDB7DEB7EBE00C94CD398D7F80939306FD
:10517000109296069093970604CF22E12C9FC001CF
:105180002D9F900D1124DC01A15DBE4F5D01149691
:105190000D911C9115971696ED90FC9017978091A4
:1051A000B404882309F4BDC01F968C911F978630E4
:1051B0001CF084E01F968C93911049D88091C20610
:1051C0009091420590FB84F98093C2060E94731669
:1051D00080912E01833009F08DC02091090182E178
:1051E0008C9FF0018D9FF00D1124E15DFE4F4185F4
:1051F0005285B701C8010E9470180E949E169091B6
:105200002E018091C206933009F077C080688093A8
:10521000C2060E9473168091C206807F8093C206E8
:105220000E9473160E94E3150E94661980912E0158
:1052300094E0833079F082E18C9FF0018D9FF00D36
:105240001124E15DFE4FE7850E2E000CFF0BE25BA3
:10525000FB4F90819F708091C106807F892B809346
:10526000C1060E947316ECD88091C2069091410548
:1052700090FB85F98093C2060E9473160E94E31585
:10528000E82FF0E0E854FB4FE681F0E0ED59FC4FE9
:10529000E49184EF8E0F8F3478F4E093880684E5F0
:1052A00091E0E89FA001E99F500D112463E071E3B4
:1052B00086EE95E00E94C817A80160E074E386EED0
:1052C00095E00E94C817A70161E074E386EE95E0BF
:1052D0000E94C81787E593E00E94E81980913F0576
:1052E000882309F4B5C086E793E00E94E8190E947C
:1052F0003B1A1CCF20912E0172CFB090440591E053
:105300009B1990FB87F98093C2060E9473168B2D20
:10531000880F8B0D982F9F708091C206807F892BFC
:105320007DCF10922E010E94E315982ED5011B9679
:10533000EC911B97EE0FFF0BE45FFE4F8081918194
:105340001996AD90BC901093800600937F06F09262
:105350008206E09281069093860680938506A016C9
:10536000B10608F473C0EA14FB0408F46FC080911E
:1053700087068130E1F10E9472179091C606209154
:1053800089068091C30630918A0630FB87F98F79B0
:1053900020FB84F9807F81608093C3069093C406CC
:1053A00080E480937E0680919306807C8160809368
:1053B00093061092960681E0809397060E9421182A
:1053C0008091880694EF980F9F3468F424E531E0CB
:1053D000829FA001839F500D112463E071E386EE4C
:1053E00095E00E94C8178091C5060E94F0171092A0
:1053F000C70681E080938706B0928406A092830658
:10540000C5010E94D11680917E06803499F482E114
:105410008C9FF0018D9FF00D1124E15DFE4FE6851C
:105420000E2E000CFF0BE95BFB4F8081873010F4E0
:105430000E94551742E050E061E073E386EE95E08C
:105440000E94C817892D0E94661918CF58018FCF66
:105450008EE693E04ACFCF9380912E01833019F1ED
:105460008AE00E94381680912E0181508230D8F453
:10547000C091440581E08C1B9091C20680FB97F996
:105480009093C2060E9473168C2F880F8C0F982F52
:105490009F708091C206807F892B8093C2060E94F4
:1054A000731681E027DDCF91089580916205811107
:1054B00006C00E94F615882311F080E0CCCF089535
:1054C00088E00E9438160E94F615882361F08091CA
:1054D000C2069091420590FB84F98093C2060E9417
:1054E000731681E007CD0895EF92FF920F931F93FB
:1054F000CF93DF93182FD62F0E9434150E94D41516
:10550000C0912C0110923205109231058FEF1111CC
:1055100081E0082E000C990B8C0F911DC7FD9A9508
:10552000849664E270E00E9434397C0180932C01FF
:10553000D1110E9425150091350510913605109363
:1055400026050093250582E18C9FF0011124E15D81
:10555000FE4FD0858E9DF0018F9DF00D1124E15DF1
:10556000FE4FC08591E0D33009F090E081E0C33078
:1055700009F080E0981739F080E0BCDCCDB7DEB7E9
:10558000E6E00C94D239C8010E94D11639D880E0E7
:105590000E94B81C0E94F61581110E942022809161
:1055A0004E05882359F021E0D23009F020E091E047
:1055B000C23009F090E081E0291301C080E0D1D829
:1055C000D0DB0E942A1D1093340500933305D6CFFB
:1055D000B0E0A0E0EEEEFAE20C94B03987E395E09B
:1055E0000E940D158C01009709F477C0D1E01816C0
:1055F00019060CF0D0E0D0930401C0912C014C2F7F
:105600000C2E000C550B82E1C802F0011124E15D63
:10561000FE4F8085833009F065C0E5850E2E000CB5
:10562000FF0BEB5FFE4FE0810E2E000CFF0BE090B6
:105630003505F09036059F01D8010E949A394B013B
:105640005C018E0C9F1CA11CB11C7501640182E1E0
:10565000849FD001859FB00D1124A15DBE4F169689
:105660004D915C91179770E060E04C155D056E05FB
:105670007F050CF440C014968D919C91B0E0A0E0A1
:10568000C816D906EA06FB06B4F19401C401BF01AD
:105690000E942039009751F0C81AD90A1016110635
:1056A00014F0F0E0E0E096012E0F3F1F3093360536
:1056B0002093350581E080932E050E9409146093A4
:1056C0005E0570935F05809360059093610580E0AF
:1056D00048D80E9434150E94D415CDB7DEB7ECE04F
:1056E0000C94CC39E385EE0FFF0BE45FFE4F019085
:1056F000F081E02D9CCF60E08D2FF6DE80912C01B3
:10570000082E000C990B22E1C202F0011124E15D88
:10571000FE4F3085333051F0289FF001299FF00D66
:105720001124E15DFE4F2085233069F422E1289F9A
:10573000F001299FF00D1124E15DFE4F10161106B6
:105740003CF4C480D580D0923605C0923505B2CFE6
:10575000C680D780F8CFB0E0A0E0E1EBFBE20C948C
:10576000B439C82FD62F8370833039F58091620504
:10577000811123C0CB3009F10E9409146B017C0117
:10578000809163049091640403E614E0D83031F012
:10579000809161049091620401E614E09601281B57
:1057A000390B203F310548F081E0D83009F080E026
:1057B00061E09ADEF801D182C0828C2FCDB7DEB7CE
:1057C000E8E00C94D03980916205811138C0809155
:1057D0005D05811134C080912E01823051F08330FB
:1057E00051F0813061F582E080932E0180E082CB20
:1057F000089581E0F9CF20912E01233001F58091A9
:105800000901281B20930901E0912C0140913505E5
:105810005091360582E1E802F0011124E15DFE4F6E
:1058200066817781848195810E9470180E94202270
:105830000E94002381E00E94B1230C94AC200895C3
:1058400080916205811144C080912905843168F5F9
:1058500040912E012091350530913605E1ECF4E0C0
:1058600090E0891759F0608171812617370719F484
:1058700052814517D1F09F5F3596F3CF90912E015D
:10588000409131055091320565E0869FF001112469
:10589000EF53FB4F318320839283548343838F5F85
:1058A0008093290581E08093650468E170E08DE2D2
:1058B00090E00E94531C88E690E00E94A41B64EFD5
:1058C00071E080E090E00E94B91381E0ACCA0895D5
:1058D000089580916504882319F081D81092650499
:1058E00010925D0510926305109264051092650593
:1058F000109266050E94E82081E095CA0895809183
:105900006205811110C080915D05882311F0E1CFFF
:10591000089581E080935D05109228050E94F91496
:1059200081E00C94DC1E0895EF92FF920F931F9379
:10593000CF93DF936DE475E18AE795E00E942E1422
:10594000813009F08CC00E94F914809129058823C8
:1059500009F483C0E0912C0122E1E202F00111245C
:10596000E15DFE4FF084D091B404E09128053B9AAC
:10597000439A0E2F10E085E0E89FF0011124EF53C9
:10598000FB4F828180932E01EE24EA94E80E91E091
:1059900022E02E1508F490E09093B404EFE2F1E0D9
:1059A000C0E095E0909FD001919FB00D1124AF53BE
:1059B000BB4F21E0843009F020E091E030853330A6
:1059C00009F090E029130DC02D913C91119744816D
:1059D00055812417350728F0468157814217530710
:1059E00030F4CF5F7296C43221F7C0912C018091C0
:1059F0002C01082E000C990BC817190621F00E94E3
:105A00003415C0932C01E0912C0182E1E802F001F1
:105A10001124E15DFE4F85E0809FD001819FB00D94
:105A20001124AF53BB4F8D919C9111979287818721
:105A300013968D919C9190933205809331058085CA
:105A4000F81207C022E081E08D272E1518F480E0BF
:105A500001C081E04FDA3B9A43983BDF3BC06DE4E5
:105A600075E183E995E00E942E148130F1F50E94E2
:105A7000F91420912905222351F140912805842F02
:105A800035E051E0580F5217B8F490E0389FD0013C
:105A9000399FB00D1124AF53BB4F0196389FF001D1
:105AA000399FF00D1124EF53FB4F832F01900D927E
:105AB0008A95E1F7852FE5CF8FEF820F8093290537
:105AC00081110DC01092280581E08093650481E06A
:105AD0000E94DC1ECDB7DEB7E6E00C94D239481741
