:020000040000FA
:100000000C94E4110C9433310C940C310C940C12BC
:100010000C940C120C940C120C940C120C940C12E8
:100020000C940C120C940C120C940C120C940C12D8
:100030000C940C120C940C120C940C120C940C12C8
:100040000C94C2300C940C120C940C120C940C12E4
:100050000C940C120C940C120C940C120C940C12A8
:100060000C945A310C940C1200008000730176013C
:1000700078017A017C017F01810184018601880178
:100080008A018C018E019001920194015102680253
:100090008A029502F502650368039303AE03B10378
:1000A000B403D903E203E703EA03EC03EF03F2032B
:1000B000F503F703FB03FE03100427042D043204A9
:1000C0003404360439043C04400443044504490420
:1000D0004B044E0450040003740BD484606FAE6C68
:1000E000F9BB84A265B14BF672011A21E85AD8D641
:1000F00004735E2C226EC4E9B58B819A1EE487C915
:100100009E7B17526DADE3E58B04A72E996A32AA48
:100110009997CCA65B157956480163B1DF54270641
:100120005706538CA627AA66890318517EFB67D30E
:10013000CEDD3FFD3D1F478401F3856EF83B792BF3
:100140000C904B67467D5488FDD612E5E748F20EC9
:10015000DB994D71A54068D9C95939E475201CE96E
:10016000B1F5013C19BB60F7FA6B1E689F19B6ED3B
:10017000140F56BCC134CB009D43D40FF3629C9D39
:10018000F78B9D533A8D2F3DDE3D3831039BC7C120
:1001900059E9D175888D365886704E5B9ED0DBCB81
:1001A000F7EA1FDBA53BB3BD6BBCF37065D5170F3A
:1001B00064152420D5B87B0D272985881F58225720
:1001C0004F09C04DD6E4C6B53A373327BB6A146928
:1001D000031BEDA8C343E8EADE410625C5C83CBFC2
:1001E00032B2A7DD22C2E9CA84F2C0267C7801F7C8
:1001F000D5C60533E4C278EC1BFDD2507D112957DA
:1002000099B0F1556674B45823A06F2ED89B08B3EB
:100210003E53CF5ECC7ADF4EED42166A9188431B87
:100220001D845C52216658243671C56A0D2C869A4D
:10023000239DE03543C97F41BD8299ED7A26B2D333
:10024000A6CE4F00E687E3D7682886F7CED2B3D391
:100250001B0402B978B3ADE03C53A68A4A22BE1F04
:10026000CEB176F22F81A8C17872B0156519E3324C
:10027000A74D0CD300B9C327BE744DD1E10C36DDB8
:1002800023FBA722D344CAB3081BB40D4BDF1AA625
:100290009032925C1AA7CD852E351172F821357DEA
:1002A0003FDB298D30B34F451477CF992FA3908131
:1002B000B0AEE845E63AA9A262B7DBBE2539A5FC97
:1002C000EAC5BC3AEC90AEA6FB12AAC76222AFA95F
:1002D00084B964B8FB8DC11CC3D0876D5CB4FE3F8C
:1002E000A4B8D889F40159BB04A543441ACB4130C2
:1002F000F75B9AEE28F44C7199CA4B7F2A13F04BA6
:1003000054B3FC90EDBE483FF15E0DA1BB1E5916E3
:1003100015F04B504C96861BA9CCC2694E1003F0C9
:10032000E953E5E2BB45E28DAE407108864D08F425
:100330009690585340A58B5B3CAD47B5D7E26A1306
:1003400078D4DCC9EC0E93F0C01D953676A45385A5
:10035000C9ACE4718DAF6861209DFF45356E04D84E
:100360002732C3DAEEA26604B72106527F398FFD29
:10037000EE9074B64FB6240E1248F0B230F2A54C8F
:100380009152E3C6487B3896239ED71B95153AC9F0
:100390008B6F637D1DC9EA96E601D785C0EA3DCA29
:1003A000D3B7FB07543A00313D74E4125BA23833F3
:1003B0005BBF1DDC4EE8851077ABEA6579B0AA30EB
:1003C00061C6F63BCC95FC837F8C7BB55205EBF781
:1003D00021DE89B66DEE317713AA935596086E1C0F
:1003E00082B57E95B994DD68425C3A00C37B6F604C
:1003F0006A2C07D76C82FBB2812569D6720AD2E8D3
:10040000500588491B6372996CE37AAEB01B9ED489
:100410002554258A901797DF39B87CEAF082DD25CC
:10042000D2ADE7F6362384A9C96A53F4822C1DEABB
:1004300006C64F705437802A6B63DBCC86E68C7F10
:10044000278C7254739E1BD64CFA058280D7B71145
:1004500098000000000000069869151CFC8687744F
:10046000845BD40FDBD727C54AB28F297A4A230A87
:10047000B807D03470818E53EF43163FA8A79E5A19
:1004800077C091B789155248C0B762ABE174641068
:10049000AA096B9774217935A19725FC78C1EC6E78
:1004A000877740871A74828156DDEC37ADAF033110
:1004B000AC478574C02A459DF4120CF986B04A16E3
:1004C000D8116C46C44A67988B1B42C2BEBB0E480B
:1004D00084F708A6C38F8E8DABC29B5D5C602857E6
:1004E0008F0EAD2EC15E95299AF48A27D441BB4A5E
:1004F000AC5DB29326FD87813F2735A6422C153887
:10050000ADF8026F94DA08EE19D890FA89C3AD8974
:10051000FEC60246811D0C8D782FEED3ED6C7B95C7
:10052000495687F4E263DA39CE681618ED98EE86FC
:10053000F3B3C1121A519B571D199E987ED2FD3DEF
:100540002B59154674577914817189D922DD92107F
:10055000D98991DF67006E53AFDAB528301E47E6C0
:10056000B7052D22CF7F6ACD88906B8C1636880711
:10057000A1B7AFF331C4DB768B969EF017A73F840B
:100580007891A8CD3F8FA5DD5214F9395D0B568EB9
:100590001C5A5B89EE809E33BDB1451542345978B3
:1005A00020FC2DDBC92E0F3526CF239B3E1D9F0F30
:1005B000260EB7B54EACA286D5DA36045A73466A13
:1005C00088C52AA083E88B5F3CAF6A444E759B8F39
:1005D00093373538BD029A1D8429642597E07C2A1B
:1005E000B6CBC166513CBC3BF3552BB7BD81ECF398
:1005F00049D5F803E0BDC60CEEC01908FB4F8C943A
:10060000080EA53037F0B818937300BB5252B49857
:100610000D4B45B9890A34E91C245A8FA89DC2D9CB
:1006200027A9EEBFC08090BC2A9343FB0AB396D1A2
:10063000AE13410168B92C53537C00A58441D69870
:100640008898FEDEF7E23743620E9383EE030A8D4D
:10065000CA8759366F61F7F4D6AB8B0F9C8396A48B
:100660006C4643806BEA50DCD8CED4F4AE5BC60156
:100670004385718D0C395EE43B2BC488B2C554961A
:100680000E879A5093D69C91CA09648B23C429443F
:100690001A67E1DAC71B2517022C8F2A133ACFD627
:1006A00065312B10F5B596DF01997BADD6B4C03519
:1006B000A348E3B09EFE33101A09AE3C0AA1728F24
:1006C0000051E17823F5E2BFA64628B34B24B1A13F
:1006D000DEB1C4486FED5AD461F0DBE1085C64C060
:1006E000CAE9A9DEDEECC0685B6DBD43828CCA69D5
:1006F000B1A9C8710D5D6DA5AB1A6794EE0593E3C2
:100700003FE81AE60F7F79F2CBC53757DFFC4FB4CD
:1007100060C7973C61B00C4664F44392D2A5F0F3F5
:10072000B7DFAB20B1F5302AB3DC4B39B7853E1EBD
:100730001B948C26288045D60136D0EC934688D36E
:10074000D5895D7A82213EC240E3B4DEF5A569D544
:1007500069495C89CDAE137070ED690CECC6FE750D
:10076000EB4ED6B3C860FB341EF86492D929A813A7
:10077000383D79C4BF21379DE34F21E53F2C5C5FB5
:1007800041FF148791E082040B1E5553DC5640A4B0
:100790003578E29B49222E09CD1F6F9483EEEA8BB8
:1007A000C4C210E080D9A55F53349C8CEA9564875D
:1007B00094D6321CEB93BFE35583C2F6FCC885B2D6
:1007C000945C425F6B8E3B9779747EE35CC2631AE4
:1007D00022B17F94CBE7B7FF0E3795AF1053178840
:1007E0001272DDCBAB4B6B6824ACC95C72094FF164
:1007F000FB1DE7A230E9204BDA707C9EE234EB6A05
:1008000035C233D79D07B1EFF675F5FDADC74BD0B7
:10081000B7DDAE1E8D1EC0399CA71CC5CC3950C695
:100820006BC6DA37C7E120EB74A53DC008FAC2DF1A
:10083000F29E432BF07750498CC32F68F32A9B8399
:100840001ADC05D8B77C3C611176EC2DFE86088752
:1008500015A3C01CB46A8D9EBF9AD5C85B0518103D
:1008600015FBC63CEEC5524B313607B94C81EA83C5
:10087000D782FEFC43594E20BDD365CF1F5C711F4C
:10088000BF26EC44EB0174823C8E60DF4790311749
:100890007E16C0EC1EC33A7A5921A29B8E8725D3BF
:1008A000FE85DD6DE6D8CA74BADB4230963D8622FD
:1008B000866FDE371A932F032EE16E1662C1E12D8B
:1008C000FECBA8DF6405EF23BC71617B1B60222790
:1008D000BDC6A37207AA09B052F219154DBEAF26C4
:1008E0003B4D62A63C41077A34253CD6CDB65547F0
:1008F000871ECBCFCED20D95C0D872A6E03324266A
:10090000517E71C7533FD4677352CB785A0011158B
:10091000715F8D3CCF40CDD97430D9A13FC658BC52
:10092000BE7818319A3960BB8D7B3495A5F1543B64
:10093000B98599AFC445EB64A76E5960EB1E7AFB8D
:10094000FD924323F127AC661266288A5CF6C63F07
:100950007604E80927ED05AA26E5B4AD40BAF7F418
:1009600084CB7F07108DB6C7D477EABA962A98F061
:1009700056D7FF504D59793D41E0FAA99D3EA6D981
:1009800079C80DD156C5ADD7FB703CBDF3E95D1CF0
:100990005393331DF81BEE9FB750AC8F485961C974
:1009A000859EC8B0D27439DF33F528E06311A7C43F
:1009B00005BD3AD934CAF9AAE200E6E638573EEC5A
:1009C000197C0D2745C552C4FFF469C5F573734FF3
:1009D000E307C7CF38235B9C99A26A72B03539C14F
:1009E0000AC71C1A3060181D2BF0C8F179A394E3D4
:1009F00036359369059107126044FDB6C6FFE0CF16
:100A0000A2CFC2A358AC32E32EEC0D9D1BFB0540D8
:100A1000BA678ECB38D7609CFE9EA170CC40728C9A
:100A20008C507185DD84925CEE44B6E0801532DD39
:100A30001B4B8C6E8E3997A5AFC6F42985D3859351
:100A400085C854E4591D4EA0FEC507C1F73252F9BE
:100A50004D4585FCA0FA37B59D47E852238D928716
:100A600043B4B84F951B1E4FE545BFCEC80CB27DB1
:100A7000E7D92E88B72A61E12DC4212EB84DFD217A
:100A800087302511EC1F299431D292853817DA630B
:100A90004D8CB4065564B76CFCC28D5D978609D346
:100AA0004369E83577CCAF91363C7CA36E4E4AA2C1
:100AB000C94150EAABDF8704704F16F5A038F560E6
:100AC00016CD0CE5C7E3AD00126B12853C5C7F765A
:100AD000ED49F29D8FDFABE1DD8701ED2C1B4B551E
:100AE000117FC392D391C1D8A737C7E55B482BEDDF
:100AF00031DECEFB95000000000000000008E3514D
:100B000084000B4D2673118B1EE2000000000000D4
:100B10000000040473E072FFE659C9000000000001
:100B20000448BFABF399877C07000000000004FB7A
:100B300033B163616112AD000000000008AA30AC5F
:100B4000174D3086BF6713F1A700000000000000BA
:100B500000041B48422384BB7FB40000000000084F
:100B6000A69F43785CA14E8BA6E67C49000000005E
:100B70000000000001F7315D273000000000000098
:100B80000000010B570B79F7000000000000000087
:100B9000024433BBB45BC70000000000000001AB9F
:100BA000E301C2D20000000000000000017A079EAD
:100BB000AD84000000000000000002F1EEF7D8292B
:100BC0005000000000000000012C35543ACC000019
:100BD00000000000000001C93D666A9800000000A6
:100BE00000000005247AF71C2440EBA24DC266C821
:100BF000372C030FF301066D9A42F0948FEDBFE39B
:100C0000283B72693775B4A09A6E31FD665BCBF3F1
:100C1000BA8CA431FFBA7C2454D3C6638993E4ED23
:100C2000DA58474EB58FD793FDAF31EAB4ECC9051A
:100C30007D2B1596C1007E80E6F747CD6A77F10ED1
:100C40005913AA5C838870DCC4525220B6692D6C9B
:100C50006C8B662ACD5A4130D6FB7BA0EC7A228879
:100C60007C716EAF6206F4A8C688857636C5C0D89A
:100C700067967CE84DD4FBA96F0FB2A7A3196A3021
:100C8000FD6FFC2BCEA41B8E574851C6980FE5086C
:100C90007B4DFC59DDCF131B310C5E3B98E1F4C357
:100CA00041D7A2645E16F9EBAE20E95D54BD99D33D
:100CB000A7C1D9E53222D69F4FDD6B3C6DE94D9639
:100CC0005211DA2386BE01C451C29CC6F52F1FD033
:100CD000F1F55782FECBFB4ADF1D0046B8A73A5616
:100CE0006608714E47F827265F6CD8C305990A75C8
:100CF0008F4FC18872A05A1308A382842ECEB5A349
:100D00004605D66A7856442386F2C963088BBDEE41
:100D100056D4361F375318E7DA1CFAD005D55FE7EB
:100D2000B7AD362BCB06C053F432A8756FE3C9A11B
:100D3000B0A6E6C2410F5D2E0A64504692495B2D73
:100D4000002EB5213F0B4A719688844C98AA28231F
:100D5000EBEF455C6278D6E4FB6DC3D9356CB92AFC
:100D6000C67471C40C657CA3F96E2DB986B004639A
:100D700094CF267D9E1EF799DAE08CDD86F3C8F1CC
:100D8000C64E155DED34BB90CDD626091EF62384E4
:100D900051C1AE428F8496C957AE16363A2987653F
:100DA000B2BA5696D2F509EF304A0F6236FE0030DD
:100DB000BD091B50C33C48D725E18EB26F4D752D40
:100DC000ADC61EBAFA4F41AF7A6FA0A04FB68834B5
:100DD000698A9E837A60F3A87E392A209C325E7DE0
:100DE000C4AA97E6263542A1A0EF39B31C2763D2E7
:100DF0007F75C01EB4FA4D7A818139E0792F94A5B0
:100E0000283A437E97B594AF2A10380A7F4991C09B
:100E10006C659AC6C95DD552469874AC93E421B00E
:100E2000EB08FAF4412EA6F9C5EDE33798C5DF5279
:100E30008241A2F2561AF3A4C6408DB95FAA751E6C
:100E4000151E68782B2BF43EC7CBF31360E0F485B6
:100E500079880C227587B751E0D6E3A092D3D7E307
:100E60006C5B3EB780E748D6D92F49CC75A004C942
:100E70004888E9CC3241AF30DEC6BC9DF7FCFF6943
:100E8000035058A1D6B87B5E60FCCC0014AF3A305A
:100E900041B34E634795E4BD5374D0F002B4FE48AD
:100EA000196C3F23F79B4411F2C245A637776C10AB
:100EB000630E1BA7D196CA0D4F5B4351D614B723BF
:100EC000E799A49F4C7DD7DD0811844D5CE96090C3
:100ED000048B1490F06F26450F208CE36F4678EB5F
:100EE00012B45EF0DEEB222762784293BCE848C081
:100EF00088BD0FDE232BD1880AE2B4338E613643DE
:100F00005842AE6BD7F2FE0AC126947ACE8C3B4390
:100F10005A62EF708AFE4DD237DBA1B1061B301743
:100F20004CA0241EBECB64E2CE135CD705A6763956
:100F300038F3852C160EB3E23DFF79880B93EFADA5
:100F400055CDB4EF8FB8167A05C05E920F4F985802
:100F5000D422AD4325317852C69ACA5EA64E7997FF
:100F60009ABBDF6DF1E2D0B3CA2A5C46825C1EDD1B
:100F7000D0C519892B2CBDC084D9333967E4E479F5
:100F800026B69D1C1DE470A5A76189254A57337DAF
:100F90000DCAF3CC22AAD7D9CBE6B29646159568EE
:100FA000D80FDF6B36DA198216CE384ECFF236C83C
:100FB00080075388042FB214195DC56CEF959C60AF
:100FC0008B6AE4FC9DB29CED1D9C1BCAA326DD9C94
:100FD000635B3B882BBA2235240148EEA04F6E9606
:100FE0004E2991AAAF5647BD7BDDA15599D8B5A131
:100FF00047937BCD7BCF65DE5018F20549F199D838
:1010000094213F7D52C6B1B4E19FF07E60648B3085
:10101000E4AD2C97FB47F70901047BF4F7A7A8047C
:10102000A57F0858796D26276AD0D9AFC1C712238A
:10103000E1AE98A40FBC1BFA9D910B1515A5245386
:101040001A13E0C30095389C364CCFF6A9BCC153A7
:101050000604F46FBF57E0A614A649707F392A4AE8
:101060005A593633B90D4725393704777C45AC19C1
:10107000932549E07A7BA2C695768D3C79B1A7C3CA
:101080008363032347D7ACFB84166F22490B97AACF
:10109000D538575E2BBBA749EDD2D57A96BE8DF5D4
:1010A000F94656F52FA7A87AFF3FE7E88CF148E804
:1010B00046CB4D25F935932FCE8BB8A9C5D3D22772
:1010C00071866F72D9CA4E90D36DB13CD3CBC93003
:1010D0003A26459D66445C5FD8E3907C1BD882DD50
:1010E000D384D4C61B58BF02A53B100A3EE3099423
:1010F0000B99882B47A79089C4482536DB7231AC01
:10110000F5A30115D0E62161EB5972DC940000983B
:10111000F7B0F9FAC10A7EDC69CE905E82110B97B6
:10112000E29955A23DFAEB88BC4DC2548D5FDEA317
:10113000E248132046C5A08104C42B9A8415B89EAA
:101140009B62A1EC7D083CAD214B89FCC6967C3AA4
:1011500041358A13BD1B43BF367A4ECE709E2AF6A8
:101160003933C7334B347D2A81FA252EC5C4A128D3
:101170000ED54D15E069127119AAFF5948815653D1
:10118000C935124D84699136D8ADF754D58CF9C65E
:1011900084126222F1B92B1DA57C567A4D5AC4F0F7
:1011A0009D8F5DB59A7FE7B7A85D6D3700000000A1
:1011B000E4F2EA7A73F8FC6717F3D960090E8B0F33
:1011C000E2F98361DF5369D0EE4251B5514864F8CA
:1011D000DD3EEEA747F07C4BBB2B8EE28B60576366
:1011E0004B9BAA6763EAA3D57C4341A95474D2867A
:1011F000C3114269C5093E8F94AFC599BBBBAC61B1
:10120000646101F2D359B1415091166CCC9BEC5CF6
:10121000FE3BB3EC6ED7F10E5A8A5F1DB0C5765413
:101220002607BC66F0ED519A1FE8F751588E1E80D4
:10123000991FEED643CCFA2FAE80F2A8A8AE437C1D
:101240008076D41AD4737461DFBF296F5615930763
:101250005892F11DE87B68B2542030012DC5D8FDAD
:101260006150140F584C1A5400127E46990C9DD1AF
:10127000A304F18217FEFC12E57581AFFF3D08D58E
:1012800039874A8EF07AD4D0D6CFA9D6594841C2F0
:1012900068E3A435458D141AC40000000000448999
:1012A0002C63C8AF7BAC354327BE7ECF56403DA5EF
:1012B000AC0F97CCD46ED031D7146045AEDF0AAAFC
:1012C00033B388E01C26DC00B875C86711A1B58768
:1012D00071F94A6AEC3F0E4121C24F928F1753EECB
:1012E000D5EA4F917502590000000294E4DA4AB33E
:1012F000AAA72E9CC780465EBD06331DD85D9F5FA2
:1013000077730A7D386BA70E8F4E7D01DA4474D255
:10131000F17A2F7FE1ECF1A57D033B2F17B6E80DA5
:10132000333C2191915B302C11C6586AE4351BB5D2
:10133000A847B3FFD0960E484E9737601204FFCBF4
:10134000A5F51D409CDF36123DD92A72DAE88BE400
:101350005BCFE93852EC2CA0F779AD2070592062B0
:10136000739CE34609C912D47755074B6A261E5D64
:101370000778104E4ADA5EF63B9B8DFD48D0BBAA3B
:10138000212EF5DF854CA71D1A261BA082867F4BD8
:1013900002D2F660C9860C1DBF736986184B44BC27
:1013A00074E5821793B50A5608B74A73B804D21485
:1013B000215E2CA0E0C2015FDECE642AD8652BF04E
:1013C00074E354BFA09B50BA02002C95CE2A4FCF95
:1013D0002B2B0E9BDD8F675B54A1472E842E24FAA6
:1013E00034E05A103BCFAFE2ED28D1176B9A1B497E
:1013F0006CFCCB7A74092A415AFFA1F598C60CD22D
:101400006983D2C369875E7EBBFCC0D1C117D79BFD
:10141000E15370B743D038252649405B57BA49326B
:10142000AA9F39AA8E73008513796DF1912F9EA31F
:10143000A0657C7D53B47053016B925F38F1D73D4A
:101440007AD607727ADBA165A50741004BEBC5D0C0
:101450003BEB3061420D4BA3D8078B12F5893D7CE5
:10146000FB2E79A7BCD5BF729AD81539AD2570D19E
:101470006CB05DBBF43AF66056FAF2A528AE0D7674
:10148000B379F14BC72E6EB6616222D9A7302345DE
:1014900021DE478CEBE54C8B4E79A09D95B305AAD8
:1014A000AFECE67473F0DC37AD933B206DA1D8CF81
:1014B000F97E9EC6BB406456A6187528D2BA7864D9
:1014C0005C484570358C499A454A6DF29C8D480AB6
:1014D000612EE3D4EEA829404B53BB5639CE816C24
:1014E000FD37A0791CC794176C37EA97F4D8D49FBE
:1014F0009F304FE5A408B86BAEB9BC4F612044DF04
:1015000092DB1E0483C0A12C09D8DF21F0200480C7
:10151000AF7391BC0EBAE4F79B363C30F1B4BADC41
:10152000FA65F22B1D184E1662D4AC8B21A5A2F1E0
:1015300032C3C965632D316BB88FE1249387049959
:10154000E6BDBA283063DAACC799378A8666B344F9
:10155000D584AAA15342A0381E5DF70529E7CA2AFF
:101560000B6AABCEF03AF390E6D125A1331C339948
:101570007D24D17423FC6F7DDBA7E9C2DE17122D19
:101580001CB37E880000000000000308757D9A49A6
:1015900037AF60047CBCD31C53703497EBE1CD3083
:1015A00079A28694585A99C269D7B232626C0A36C7
:1015B00069B1354841CE79967A0D2D33BF4D2FB89C
:1015C000D8B3FBE47193B9180D51ABBB09D90DD752
:1015D000671E4728C7F7CE605828235E95FC2BDB93
:1015E000F90D1FAB49E6D0A7377920E4CF05E364B6
:1015F00021ACDFB1E8F9E04C3B5E89682A48C5645C
:101600000EDBF1538B1A2FF60C189C529B212E4A9D
:10161000E7D6BBB71A0A22AB4AFDD3027D21FFB938
:101620000E0F29ABACF4445E0FD5F357E54F617252
:101630004EBA55378F9A1CD4B830AF0A951A138614
:10164000D40A835C991B2BC093F513F5EAFB6F75E5
:10165000746C2E77C344C53862B9F5AC58B4966E35
:10166000A4A545B51B7C9D219516EE29572012BBDC
:10167000F80A2325AC51FD7AE09D43B0276F2ADF9D
:101680000408D3F11D3C128DAFF2D7B9029D46E399
:10169000ABFF61C8612B19C8C1A16D0AA744FAB597
:1016A000A8D71E53156F7A4841E930B5ADE2F07006
:1016B000406AF331DD1950E5BCB43D839FDFC82596
:1016C0002790405B32044781FA53B40A40157A747C
:1016D0005BDB24AB3AB791E344B747073990D2F5C7
:1016E000A9084658DC3210A347320445441371ACB4
:1016F0002EA7C971D0F9517ECAE509A81E775B3AB9
:1017000008AA431CD68D6091466D64569E162ECE57
:10171000B399C8F655271384BC8AB3C8F51A72F773
:101720006A0C46952F4A86B6D29894F1C3370E0CB0
:101730008711567EAFDA22296FEBFAEC96E0276B21
:1017400042A170091AAD4888DAFCE13B629528563F
:10175000702803B258678D0AEA9A1595515F83077E
:101760000920BF37AFF70A743CA552F1E3F55830B2
:10177000E117DE98F1387BF0AFBD165952996C74C1
:1017800070487714FF534184BCC5372F71843DF5F1
:10179000467C63E000A05607F78C6357BE545CE1BB
:1017A000FDAC35FAC2D5F25ABE7C318EBDDBFE4DA2
:1017B000036F5EA61F232DCA68F0C614CCC33EF08B
:1017C00021D4402A72B67EE285D68AFB485127771B
:1017D000E4CBCD2FF6E1BCFEEDA1145FE532FCCFEA
:1017E000D9FB2FE9AD7D2D68E79A15956A4AE4ABE0
:1017F000E4EBE00D40BDEF8FB975B439086DC09FC3
:1018000004FFCCDE13304EB6E4E0CB69E5C61C2FF6
:10181000436A632572D5DFBDDC0BE9089D3D266F69
:10182000C389F818AC42BF4E9D5D28B0264136767C
:101830008D8684FAD8D467581969202D35FE09D9C8
:101840008CFDF921A157DF17AE8ECBC97F2654DE60
:10185000104372DDBC18B934F9AB70F9744D8E6D5C
:101860002A331406D071E6ADAABE862E9A8D8788DB
:10187000AF039FCBF8789A663809CDAE89C2CCAF5A
:101880006A16140948AE9B55E40FA586A1757F7CA6
:10189000EF0DCB3AB30D1F020000000C801FB4F413
:1018A000E0A641CC8700406143E7FCB400000001A2
:1018B00024CA4534253C39FF098C39855A5BCC272D
:1018C0003CBD28438645179A4E3524A423A2FDCA61
:1018D0006CD4FBBAE741B3FB7C5507B56E3EB1292A
:1018E00072CC38EA273080B98CB8EE54AB3EDBDDE1
:1018F00006D095EA3E42886BAE89C7E84C38B6936D
:10190000F6BE4C204A8CCE2B22D272494618568005
:1019100070675AFAC0CA6D5321CAE3866891D37CB6
:10192000A9D5AD6A72A1FE53E94085EA62A9637543
:101930003A2DEC9BFE58D873205210435C2DB421F5
:10194000B9961F726DBA42EAF285BE5212A7B13E35
:101950002B89EF0F73057C99C3C55F9653F8AF9B36
:101960007A49A044546055F0103A608D905065AEAD
:10197000F779DB2E08F9BBF2D278D086B594A10EA8
:10198000B98189B7F9C043E88F3819DAED2FA75C20
:10199000DB01B338CEE6C3F2D5AA879E116FD80516
:1019A000F072ABD9A10FFF46E94A8C0093E9866F2C
:1019B0006B1470BEB1B889C9CC7D1A11D279FBD92C
:1019C000D72413948F019C4B69336601829888F861
:1019D0004C13310F58C106113000000000B489913A
:1019E000349B89FC75CD11CA1A6FFA71D645E70F81
:1019F000EB3909B35A131FAA3A93CF8D6ECAEC2C58
:101A00008EC5831B5AD6D189AC024FCB0F25769653
:101A1000E05D2CFFA7EAEA92F1725BEE08D8848AB7
:101A2000A959E31277DAD6CA4E362D7CA413D1E831
:101A300018319902540AD07A74A0AD2C834A6FF100
:101A4000B1501B6469E8842F2CC8EB953DA518C7DD
:101A50004B82FC88E1D37B0EBE10BA6502859B46A3
:101A60009A377A774DC2C45330679154F63D394462
:101A70004342132E0929FD50A6DA94CE8697102BE7
:101A80005C1C09CD0FFC15DC543B53E17CA7E1FD48
:101A900047C2AF7EEA34000000000C6FE65C043001
:101AA0006C84C751E3B55F349EDD05000000000C77
:101AB0001CD4BCFBCD3AAEBC529254852CED0FFB2E
:101AC00000000000F873105DD81F06E0A15926B48D
:101AD000393FC119F9D4BE4FF433EC3F3FFE8F912B
:101AE000D044F21278909E79A927EE05CB9F5A4BED
:101AF00015DE6739181FE73A0A4198E7DEA728A0E4
:101B0000D354663379B53A83375F25407047B87947
:101B10006B62963F48EA9F6ECB35E16F2DC4C24B96
:101B20009BA74D05790E1CFE095A9F87227A131B2D
:101B30009F994D05DB1573D865FE395EA4437B6C18
:101B400079BD73914C9B4C941887EA68A7449F5CBD
:101B50003666FD41145EB18EEB45DA770EE0EC5E41
:101B6000F40DBF41C648F015D860F74076237B1CC2
:101B7000E559445030CE064EC5A670C31817A2379B
:101B8000ACBF2C6FBC9B3F58121110390018DB7D85
:101B90000BD22CEE0AAF76947AC15C21D2619F1DE4
:101BA0007A9695DFA45181E61BD57C3644F060FF20
:101BB0003AF632EC8FE09AC7E3BCADEBA694714BDA
:101BC0006D00000000000038974C36A275FFFB3F07
:101BD000EB60E131B1BC32776CBD49934BC207BABF
:101BE000F067FD68CAF5A4FF2A5EE2BEB569B2A03F
:101BF00063931BB4BD4612FAEE885F46DFB2BAE8C3
:101C0000BA5447EA000018FA0891779B1C878B01A9
:101C1000709EC0052BAAD7AF30A8018B28A0F595E0
:101C200099325F00000000000008C4EF65453CC326
:101C30006DEFB8349D1C0000000000000000046639
:101C400086F2BC9D8797BE000000000008DD58DDCD
:101C5000530F7DEC930BB95BE30000000000000024
:101C600000087615DFC7682FA8F84D338FAE000047
:101C70000000000000000884C3E8CB9C718009D7F5
:101C80001163210000000000000000040EC6F050A7
:101C90009E0AA7990000000000149A5AF9AA5F064C
:101CA000DF5C52374B390C7E18C1ABD636F578BDA8
:101CB0009F790000000EF233610EC30B5A24023FDD
:101CC00042353DA4ADC53050000076E7E3450866D7
:101CD0001821EBDD1476F8F155E83B9D8B9392FFCC
:101CE000A7803438C2AD7CFFBD232B0B2C5FEAC02C
:101CF0009500FB8C376B8A42913EEFD65143216FA2
:101D0000803EBDF2B32407A5924A76513172354721
:101D100025E7B9D0F4C2DD52353A23C416FA2A8D2C
:101D200099D0B953C2125C3FCE8DDBD1C8D159E5F1
:101D300088FF4911ABAB7BD1F2B43749A0B1FEFEAD
:101D40006C08761D0B0000009AF4B16DA0F220E43F
:101D500017A74D85B38E7ACB8730AF119020A81985
:101D6000EA2207FAC14CE8FCA2038F2AC536E4AF89
:101D7000669BBA0ADD6590DAD72762D9193BABF6C4
:101D800066892DA53070E9AAE2D9C12347FD9A25BD
:101D90004A5F896297614B91FC341BFC97B27B8749
:101DA000F454FCD63648C28779A3C48F42B1314778
:101DB000DDE8D00A714722F3F49F287A700CBC59F1
:101DC00030E0E4132465BD4C0E6D9E4D15901972E4
:101DD000C928B6950E92F9795C64B9B97BD7DCB4A1
:101DE000B9B4967F7255AE00001EB0028E45BDF0AC
:101DF000A590B7301240B6409CF16263726DF0BAA4
:101E00001AF6F0406A47A2FC9BD870190000000047
:101E10000000001AF524F64D2F64FDF7C3FDA74519
:101E20005D94318FD69F5D216641D43951AF618C6D
:101E30001E9F000000000611E97A8831E126B61CD9
:101E40007400000006F59835171AAB193A8CC600D5
:101E500000000E7E14D06E441C666167F18E2872FD
:101E600030D2BF7D6F000008179962EE7818543A9F
:101E7000D57F61AC000000000000000010833E2C04
:101E8000924F5A985997FB8297ADC873A26C0D0672
:101E9000CF000000000000000A69DAEB9EF7677FC0
:101EA000DEE8830B465A3F00000000000002B360EA
:101EB0007FDCA3FF00000000000000148ECFA265AD
:101EC00072CE3E11392D9494478EC78C706B7C492D
:101ED0008E3CD74C00000002C877A5FDBA9A0000DE
:101EE00000000000000A1A1BD94A8303DFE2756E66
:101EF00028D9631F000000000000021827278F4B1D
:101F0000E700000000000000000000A902202020DF
:101F10000031206B487A200035206B487A20003948
:101F2000206B487A20003130206B487A0035302011
:101F30006B487A003130306B487A0031204D487A56
:101F40002000313020487A2000323520487A2000A5
:101F5000353020487A200031303020487A00353042
:101F60003020487A0031206B487A200035206B48B9
:101F70007A200039206B487A20003130206B487A73
:101F800000535445503A200050586068700818209B
:101F900030384048000810283840302E35206B4833
:101FA0007A00312E30206B487A00312E32206B4877
:101FB0007A00312E38206B487A00322E30206B4860
:101FC0007A00322E32206B487A00322E35206B4850
:101FD0007A00332E30206B487A00342E30206B4844
:101FE0007A00362E30206B487A00204155544F201D
:101FF0002000313130206B487A003834206B487A29
:1020000020003630206B487A20003430206B487A2C
:10201000200000204D487A2020002044454C3A42C0
:102020005700202020202020202020202020202099
:102030002020004E4F2053415645440020202020B0
:1020400020464D204641564F5249544553202020AA
:10205000200000000201000000000000030000005A
:102060000700020100000201000001000900000059
:1020700005000101000041555400204F6E004F66DD
:10208000660035307500373575006B487A004D486D
:102090007A0052535300534E5200313030003530E5
:1020A000250031306D0031356D0033306D00363034
:1020B0006D002041320020413100202020202020CE
:1020C00053455454494E47532020202000AED5801C
:1020D0008D142001A1C8817FDB40A6AF4D6F642025
:1020E0004E6F20524453004154532D32302B2076F2
:1020F000352E3600454550524F4D205245534554DC
:10210000000000580284030807100E0000000000C1
:1021100000002F2F000000000606000606287C287D
:102120007C2800242A7F2A1200442A3C54220038AA
:102130004448344800000606000000001C2241000C
:10214000000041221C0000082A1C2A080008083E42
:102150000808000080600000000808080808000067
:1021600060600000004020100804003E4141413EF4
:102170000000427F40000042615149460021414534
:102180004B31001814127F10002745454539003C9B
:102190004A49493000017109050300364949493669
:1021A00000064949291E000036360000000080362E
:1021B00036000008142241000014141414140041C5
:1021C00022140800000201510906003E415D551E1F
:1021D000007C1211127C007F49494936003E414182
:1021E0004122007F4141221C007F49494141007F3B
:1021F00009090101003E41594932007F0808087F62
:102200000000417F4100002040413F01007F081451
:102210002241007F40404040007F020C027F007F4F
:102220000408107F003E4141413E007F0909090634
:10223000003E4151215E007F091929460026494987
:1022400049320001017F0101003F4040403F001F33
:102250002040201F003F4038403F006314081463B3
:1022600000070870080700615149454300007F419D
:102270004100000408102040000041417F0000049C
:1022800002010204008080808080000002010000C2
:10229000002054545478007F484444380038444463
:1022A000442800384444487F0038545454180008E7
:1022B0007E0901020018A4A4A47C007F080404780D
:1022C0000000447D4000004080847D00007F102895
:1022D00044000000417F4000007C04180478007C2A
:1022E0000804047800384444443800FC24242418AA
:1022F0000018242418FC007C0804040800485454E6
:10230000542400043F444020003C4040207C001CFA
:102310002040201C003C4030403C00442810284411
:10232000009CA0A0A07C004464544C4400000836EB
:1023300041000000007F0000000041360800000856
:1023400010081008005341564544000000000800E2
:10235000020100000304070000000000000000026A
:10236000000A010B0209000B0D090002160A010008
:102370000D090000020900020B0A01011602013FCB
:10238000065B4F666D7D077F6F80000000002500B3
:1023900028002B0000000000240027002A0004046D
:1023A00004040404040402020202020203030303FD
:1023B00003030102040810204080010204081020D9
:1023C000010204081020A83211241FBECFEFD8E06C
:1023D000DEBFCDBF14E0A0E0B1E0E8EEF4E702C05C
:1023E00005900D92A230B107D9F726E0A2E0B4E043
:1023F00001C01D92A233B207E1F711E1C4EED1E1B1
:1024000004C02197FE010E946C3AC33ED107C9F770
:102410000E9456330C94723A0C94000091E0909311
:102420001C0580931B0510921A051092190508953A
:1024300008950895E42FF0E023E0F595E7952A95B7
:10244000E1F723E0629FE00DF11D1124E80FF91F71
:10245000477021E030E001C0220F4A95EAF7808101
:10246000822B8083089590E0FC01E55BFC4D249174
:10247000FC01EE54FC4D3491FC01E256FC4DE4911C
:10248000EE23C9F0222339F0233001F1A8F42130E2
:1024900019F1223029F1F0E0EE0FFF1FE657FC4D55
:1024A000A591B4918FB7F894EC91611126C0309545
:1024B0003E233C938FBF08952730A9F02830C9F000
:1024C000243049F7809180008F7D03C08091800087
:1024D0008F7780938000DFCF84B58F7784BDDBCF8B
:1024E00084B58F7DFBCF8091B0008F778093B00053
:1024F000D2CF8091B0008F7DF9CF3E2BDACF8E30D6
:1025000008F08E508770806480937C0080917A0000
:10251000806480937A0080917A0086FDFCCF809160
:1025200078009091790008953FB7F8948091A304C2
:102530009091A404A091A504B091A60426B5A89BEF
:1025400005C02F3F19F00196A11DB11D3FBFBA2F45
:10255000A92F982F8827BC01CD01620F711D811D05
:10256000911D42E0660F771F881F991F4A95D1F78A
:1025700008958F929F92AF92BF92CF92DF92EF9287
:10258000FF926B017C010E9494124B015C01C1140B
:10259000D104E104F104B9F00E9494126819790998
:1025A0008A099B09683E73408105910580F321E00B
:1025B000C21AD108E108F10888EE880E83E0981E5F
:1025C000A11CB11CE4CFFF90EF90DF90CF90BF90A3
:1025D000AF909F908F9008958091C00590E0FC018E
:1025E000EE54FC4D249182569C4DFC01849188232D
:1025F00099F090E0880F991FFC01EC56FC4DA591D5
:10260000B491FC01E657FC4D859194918FB7F894F5
:10261000EC91E22BEC938FBF6AE070E080E090E0F9
:102620000E94B91260E08091C0050E9433126AE0F6
:1026300070E080E090E00E94B91261E08091C005F6
:102640000E9433126AE070E080E090E00C94B912CE
:102650002FB7F89460919F047091A0048091A10419
:102660009091A2042FBF08950895AF92BF92CF9288
:10267000DF92EF92FF920F931F93CF93DF936C0142
:102680007B018B01040F151FEB015E01AE18BF0823
:10269000C017D10759F06991D601ED91FC910190D5
:1026A000F081E02DC6010995892B79F7C501DF91ED
:1026B000CF911F910F91FF90EF90DF90CF90BF903F
:1026C000AF90089520917B04260F3327331F2132CA
:1026D0003105ECF42091F104FC0190E080E024301D
:1026E00069F082E00895A0917B042191AC01455AE4
:1026F0005B4FA40FB52FB11D2C930196861798F34D
:1027000080917B04680F60937B0480E0089581E0F2
:1027100008951092F10481E08093F0041092EB048C
:1027200061E082E10E94331261E083E10E94331292
:10273000E9EBF0E080818E7F808380818D7F8083D4
:1027400088E48093B80085E48093BC0008951092DB
:10275000F8041092F70410921A05109219050E94BD
:10276000891388E192E19093AA048093A90489E1F6
:1027700092E19093A8048093A7040895CF93DF93E8
:1027800091E090935A048823B9F0C091B800D09199
:10279000BA008091BC008A7B8093BC0060E082E13B
:1027A0000E94331260E083E10E9433120E94891379
:1027B000D093BA00C093B800DF91CF910895CF9223
:1027C000DF92EF92FF920F931F93CF93DF93D091FD
:1027D000190581E0D13208F09CC0C0911B050E9410
:1027E00094126B017C018091F10481116CC082E034
:1027F0008093F10481E08093F0048FEF8093EF04E5
:102800001092EE04D093ED04ABEAB4E0EBECF4E00C
:1028100080E0D8138DC01092EC048091EC04CC0FB2
:10282000C82BC093EC048091EB04813009F084C084
:102830001092EB040E9494126B017C018091EC04D5
:102840008093BB008091F3049091F404A091F5046F
:10285000B091F604892B8A2B8B2BA1F00E94941245
:102860000091F3041091F4042091F5043091F604E2
:102870006C197D098E099F09061717072807390764
:1028800008F442C08091BC0083FDD8CF85EC8093D2
:10289000BC000E9494126B017C018091F104823093
:1028A00009F44CC08091EF048F3F09F469C0809116
:1028B000EF04803209F466C08091EF04803309F49C
:1028C00063C084E026C08091F3049091F404A09149
:1028D000F504B091F604892B8A2B8B2B09F483CF56
:1028E0000E9494120091F3041091F4042091F504D5
:1028F0003091F6046C197D098E099F090617170798
:102900002807390708F06FCF8091F2040E94BE13A8
:1029100085E010921A051092190510921C05DF919E
:10292000CF911F910F91FF90EF90DF90CF9008957E
:102930009D9191938F5F6DCF85EEA9CF8091F30428
:102940009091F404A091F504B091F604892B8A2BA0
:102950008B2B09F4A2CF0E9494120091F3041091E2
:10296000F4042091F5043091F6046C197D098E0968
:102970009F09061717072807390708F08ECFC4CF1D
:1029800080E0C7CF82E0C5CF83E0C3CF0895E09158
:10299000F8048091F704E81730F4F0E0E750FB4FBB
:1029A000808190E008958FEF9FEF08959091F80453
:1029B0008091F7042FEF3FEF981748F4E92FF0E0EC
:1029C000E750FB4F208130E09F5F9093F804C901EE
:1029D00008958091F7049091F804891B990B08954C
:1029E000CF92DF92EF92FF920F931F93CF93DF93DB
:1029F0007C01CB018A0120911C05222389F0EB0187
:102A00006B01C40ED51ECC15DD0569F06991D701A7
:102A1000ED91FC910190F081E02DC7010995F3CF74
:102A2000642F0E946213C801DF91CF911F910F9113
:102A3000FF90EF90DF90CF900895CF93DF931F9298
:102A4000CDB7DEB7698320911C052223F9F02091D0
:102A50001905203258F021E030E0FC013383228355
:102A600090E080E00F90DF91CF91089580911A055A
:102A7000E82FF0E0E555FB4F998190838F5F8093BD
:102A80001A058093190581E090E0ECCF61E0CE015A
:102A900001960E946213F7CF682F8DE195E00C94A8
:102AA0001D15FF920F931F93CF93DF938C01EB01C2
:102AB0000E942813607F7370D801ED91FC919F01F3
:102AC0002F703327AF01407F5370FF2EF694F6949A
:102AD000B7E0BF15F8F089B190E00F2C02C09595D2
:102AE00087950A94E2F781706417750708F47C5F94
:102AF000DB01A41BB50B2330310591F1E8F4213043
:102B0000310549F110F1882309F467C0A034B105FB
:102B100020F519C0AF2DB0E08DE08F1548F083B1DE
:102B200090E0189702C095958795AA95E2F7DBCFBC
:102B300086B190E01E97F6CF2530310591F150F126
:102B400026303105B9F180E010C08111FCCFAB0116
:102B500021E030E00AC0882389F130E020E0F3CFA3
:102B600081112FC0A034B14080F5EE27FC7FE22B0D
:102B7000F32B407F53704E2B5F2BD8014D935C930A
:102B8000882369F16F2DFE01DF91CF911F910F9185
:102B9000FF90099481111EC0D09738F3AB0187E0F4
:102BA000E4CF24E030E0882301F3AB0122E030E001
:102BB0008BE0DBCF22E030E08111D7CF23E030E0A3
:102BC000D4CFAB0126E030E0BECFAB0124E030E053
:102BD00083E0CBCF25E030E0B6CFAB01C6CF2330CA
:102BE000310508F088E0DF91CF911F910F91FF90A0
:102BF0000895643029F06A3019F0833009F481E0D7
:102C00000895F89480914D04811103C086B1809598
:102C10008170789408950E940E1290E080E00C94E8
:102C20004C15CF93DF93EC010E94DF13188283E0F1
:102C300090E00197F1F7DF91CF9108950E940E1275
:102C400080E490E00C944C15CF93DF93EC018DE180
:102C500095E00E941D1588898F5F888B803148F030
:102C6000CE0140960E9411168C81DF91CF910C9479
:102C70001E16DF91CF910895EF92FF920F931F934D
:102C8000CF93DF93D82FC62FF42E8901809125068C
:102C90000E940B1661E281E296E00E9424166D2FDD
:102CA00081E296E00E9424166FEF6F0D6D0F81E2B6
:102CB00096E00E94241662E281E296E00E942416C9
:102CC000EC2EE694E694E6946E2D81E296E00E9466
:102CD0002416D0E0679683E0D595C7958A95E1F7ED
:102CE0006C2F81E296E00E94241681E396E00E9418
:102CF0001116CE19CF5FCF9DE001112480912506DA
:102D00000E941E167801C00FD11FEC16FD0671F04F
:102D100060E00115110511F0F701608181E296E094
:102D20000E942416FFEFEF1AFF0AEFCF81E396E02F
:102D3000DF91CF911F910F91FF90EF900C9411169E
:102D4000CF92DF92EF92FF920F931F93CF93DF9377
:102D50006C018B017A01E901809125060E940B1616
:102D600061E281E296E00E94241660E0D7FC07C091
:102D70006091280670E0C616D7060CF4B60181E211
:102D800096E00E9424166091280670E0E616F70689
:102D90000CF4B70181E296E00E94241662E281E21F
:102DA00096E00E94241660E017FD07C06091260699
:102DB00070E0061717070CF4B80181E296E00E9454
:102DC000241660E0D7FD07C06091260670E0C617A4
:102DD000D7070CF4BE0181E296E00E94241681E33D
:102DE00096E0DF91CF911F910F91FF90EF90DF90D0
:102DF000CF900C941116E1E2F6E0948783877687F2
:102E0000658723E0759567952A95E1F7478150E03E
:102E10009B010C94A016AF92BF92CF92DF92EF92DB
:102E2000FF920F931F93CF93DF936F5F7F4FC091FC
:102E30002606D0E0BC2EAD2EC430D1051CF023E018
:102E4000B22EA12CC630D10514F0C5E0D0E010E0C0
:102E500000E097FD07C00091280610E08017910759
:102E60000CF48C01F12CE12C77FD07C0E0902806D2
:102E7000F12C6E157F050CF47B019E01A7016B2DD3
:102E80007A2DC8010E94A016809125060E941E1668
:102E90000E151F058CF4CB2CDA2CCC15DD054CF06F
:102EA00060E081E296E00E9424168FEFC81AD80AEB
:102EB000F4CF0F5F1F4FECCF81E396E00E94111615
:102EC00060912E0670912F0680912C0690912D0610
:102ED000DF91CF911F910F91FF90EF90DF90CF90F6
:102EE000BF90AF900C94FB16CF93DF9320912606F2
:102EF00030E04091280650E070E060E090E080E033
:102F00000E94A016809125060E941E16C0E0D4E003
:102F100060E081E296E00E9424162197C9F781E3E0
:102F200096E00E94111660912E0670912F068091F6
:102F30002C0690912D06DF91CF910C94FB16CF9328
:102F4000C82F809125060E940E1280E890E00E9412
:102F50004C156C2F81E296E00E94241681E396E0E6
:102F6000CF910C941116CF92DF92EF92FF921F93A4
:102F7000CF93DF93EC012F818B859C8506962817D4
:102F8000190664F1162F8C810E941E16105226E03D
:102F9000129FC0011124F12CE12C9C01255F3E4DB4
:102FA000690160E01F3520F4F601EE0DFF1D64910C
:102FB000888581116095CE010E9424168B859C85A1
:102FC00001969C878B873FEFE31AF30A86E0E816A9
:102FD000F10439F7CE0140960E94111681E090E08D
:102FE000DF91CF911F91FF90EF90DF90CF900895E8
:102FF0000F931F93CF93DF938C01D0E0C0E0F801D3
:10300000EC0FFD1F6491662341F081E296E00E947F
:10301000B317892B11F02196F2CFCE01DF91CF911A
:103020001F910F910895CF93DF93C1E2D6E0688797
:103030000E94F8171886DF91CF910895682F81E2DA
:1030400096E00C94B31789B199B1E0910C06EF703A
:1030500086958695827092FB992790F9892B94E04A
:10306000E99FF0011124E054FC4FE80FF11D87FDAA
:10307000FA95808180930C06807369F0F894803112
:1030800059F08FEF9FEF909329048093280481E0FB
:1030900080934D047894089581E090E0F4CFF89403
:1030A000E1E6F0E090E89083808378940895CF93F0
:1030B000DF9380910C01833028F5E0910A03813081
:1030C00048F181E1E802F0011124E25DFE4FE7855D
:1030D00084E99FE1E80FF92FF11DC491D0915904C3
:1030E00068E370E088E290E00E94FB1661E0D33074
:1030F00009F060E08C2F90E08656904EDF91CF91E2
:103100000C9413188330E1F0843071F0E0E090E02B
:1031100080E0E0CF81E1E802F0011124E25DFE4FA2
:10312000E6858DE89FE1D6CFE0910A0381E1E802D0
:10313000F0011124E25DFE4FE08988E89FE1CACFEB
:10314000DF91CF910895CF93C091670380912506B9
:103150000E940B1661E881E296E00E94241682E844
:10316000C89F900111242455384EAC2FB0E00E9426
:10317000563A61E0670F81E296E00E94241681E3EF
:1031800096E0CF910C94111690916703890F8A30C5
:103190000CF089E087FD80E0809367030C94A3180E
:1031A000CF93DF93EC01462FE0910A0381E1E8021F
:1031B000F0011124E25DFE4FE485EE0FFF0BE55EAA
:1031C000FE4F8081918168EE73E00E94F939FB0126
:1031D000309779F028813981C9010E94E53900973B
:1031E00041F0442311F02E0F3F1F281B390B398368
:1031F0002883DF91CF9108950E94281328EE33E0B1
:1032000040E050E00E940D3A30931D0420931C04CE
:1032100081E080931A0408950E94281310924F04AD
:1032200010924E040895E0910A0381E1E802F00152
:103230001124E25DFE4F8185928590935104809325
:1032400050040895E0910A03809150049091510434
:1032500021E1E202F0011124E25DFE4F248135817B
:103260008217930738F0268137812817390710F025
:1032700092878187089580910C01882329F090918D
:103280000C0181E0943008F080E00895CF938091A4
:103290000C01833081F480910901C5E5813009F486
:1032A000CCE468E370E088E190E00E94FB168C2F8C
:1032B000CF910C941E180E943B19882329F080910D
:1032C0005F03C3E5813069F380910C01843029F4F8
:1032D00080911504CAE28111E4CFC0E2E2CF1F93CE
:1032E000CF93DF938091590411E0823009F010E010
:1032F00070E060E082E290E00E94FB16612F81E8BE
:103300009FE10E941318C0910A030C2E000CDD0BE4
:1033100080910C018430B1F481E18C9FF0018D9F8C
:10332000F00D1124E25DFE4F85858C5F27E0829FC2
:10333000C0011124612F8F5E904EDF91CF911F91BC
:103340000C9413180E943B19882359F081E18C9F3B
:10335000F0018D9FF00D1124E25DFE4F8485895FA1
:10336000E5CF81E18C9FF0018D9FF00D1124E25D8E
:10337000FE4F8385DBCF98E0899FF0011124E55F44
:10338000FC4F948181E0891B8483089580E10C9433
:10339000BB198CE00C94BB198EE00C94BB1981E036
:1033A0000C94BB198DE00E94BB19809177030C949B
:1033B0004F188FE00C94BB19FC018081280F261751
:1033C00014F440830895421714F020830895608315
:1033D0000895282F44E060E087E993E00C94DC191D
:1033E0000F931F93CF93DF93C0910A032C2F0C2EC2
:1033F000000C330B90910C0141E1C402E001112457
:10340000913048F1943008F1943029F5C55CDE4FD5
:1034100003E011E042E0282F60E0CE010E94DC19B9
:103420000115110561F08881880F990B080F191F8C
:10343000F801808191819093C9058093C805DF913F
:10344000CF911F910F910C946F19C65CDE4F10E065
:1034500000E048E0E0CFC75CDE4F91E1929FF001D1
:10346000939FF00D1124E25DFE4F90850DE011E079
:1034700043E0923080F246E0CECF8436910520F4CE
:103480000A9758F481E00895803127E2920738F4D2
:10349000883E934030F483E0089582E0089585E00B
:1034A000089584E008958F929F92AF92BF92CF9239
:1034B000DF92EF920F93CF93DF93EC0131E0211174
:1034C00001C030E0340FFE01E30FF11D1082F0E087
:1034D000E0E0842F821B990B4C018AE0A82EB12CCE
:1034E000E417B8F4222341F08E169F0629F43150D8
:1034F000DE01A30FB11D0C9331506E01C30ED11C20
:10350000CB01B5010E94E539805DD6018C933196DF
:10351000E7CF211101C0242F80E02150330BE82F89
:10352000F0E0E217F30744F4EC0FFD1F90819033B5
:1035300019F4E0828F5FF3CFDF91CF910F91EF907D
:10354000DF90CF90BF90AF909F908F900895089597
:1035500090E080E008958F929F92AF92BF92CF92B9
:10356000DF92EF92FF921F93CF93DF93D82F162F06
:103570000E9494126B017C018091F104811166C05C
:10358000C12F81E08093F1048093F0049FEF90932A
:10359000EF041092EE04910F9093ED048093EC04ED
:1035A0008091EC04DD0FD82BD093EC048091EB04D8
:1035B000813009F082C01092EB040E9494126B01DA
:1035C0007C018091EC048093BB008091F304909186
:1035D000F404A091F504B091F604892B8A2B8B2B6F
:1035E000A1F00E9494128090F3049090F404A090B3
:1035F000F504B090F6046C197D098E099F098616B2
:103600009706A806B90608F442C08091BC0083FD65
:10361000D8CF85EC8093BC000E9494126B017C0192
:103620008091F104813009F44AC08091EE04811741
:1036300010F4C091EE04ABECB4E0E9EFF4E080E00C
:103640008C1751F19D9191938F5FFACF8091F30484
:103650009091F404A091F504B091F604892B8A2B83
:103660008B2B09F489CF0E9494128090F3049090E0
:10367000F404A090F504B090F6046C197D098E094D
:103680009F0986169706A806B90608F075CF80919F
:10369000F2040E94BE13C0E01092F804C093F70435
:1036A0008C2FDF91CF911F91FF90EF90DF90CF9003
:1036B000BF90AF909F908F90089585EEABCF809193
:1036C000F3049091F404A091F504B091F604892BD1
:1036D0008A2B8B2B09F4A4CF0E9494128090F304C0
:1036E0009090F404A090F504B090F6046C197D0954
:1036F0008E099F0986169706A806B90608F090CF8E
:10370000C6CF0F931F93CF93DF930BEA14E0EC0126
:10371000C457DF4FC8010197F1F761E070E088817D
:1037200099810E94AB1A8DE195E00E94D61487FF23
:10373000F1CFDF91CF911F910F91089589E295E02C
:103740000E94811B8091B5050E940E1282E190E0DB
:103750000E944C1590E080E00E944C1561E08DE1E4
:1037600095E00E941D1561E08DE195E00E941D1518
:10377000609105068DE195E00E941D15609104069B
:103780008DE195E00E941D150E94DF1383E998E00A
:103790000197F1F7089587E00E94BB190E943B1939
:1037A000882351F0809105069091470390FB85F99D
:1037B000809305060C949E1B0895E0910A0381E115
:1037C000E802F0011124E25DFE4FE7850E2E000CA9
:1037D000FF0B9091570380910406992329F02091C3
:1037E0000C019150233051F4E654FC4F20812223E8
:1037F00021F0245091E0223008F490E09295907FDF
:103800008F70892B809304060C949E1B282F42E016
:1038100060E087E593E00E94DC190E943B1981116A
:103820000C94DD1B08950F931F93CF93DF93182FF4
:10383000092FEB0189E295E00E94811B8091B5057B
:103840000E940E1282E190E00E944C1590E080E010
:103850000E944C15602F8DE195E00E941D15612F8F
:103860008DE195E00E941D156D2F8DE195E00E9480
:103870001D156C2F8DE195E00E941D150E94DF1330
:1038800083E998E00197F1F7DF91CF911F910F91B4
:103890000895CF93C82F682F70E080E090E40E94D5
:1038A000131CC0930806CF91089585E00E94BB19B0
:1038B00080910C01843059F48091370362E08111CA
:1038C00001C061E070E080E091E10C94131C089568
:1038D000282F4AE56CE08FE193E00E94DC1980918B
:1038E0000C01843099F080911F0394EF980F9F345E
:1038F00068F48093CB0524E531E0829FB001839F7B
:10390000700D112483E091E30C94131C0895282F6B
:103910004FE360E08FE293E00E94DC198091C105E3
:10392000803239F060912F0370E083E093E30C94D0
:10393000131C0895282F40E260E087E293E00E9484
:10394000DC1980910C01843039F06091270370E01C
:1039500082E093E30C94131C08951F93CF93DF939D
:1039600089E295E00E94811B8091B5050E940E12AC
:1039700081E090E00E944C15609106068DE195E093
:103980000E941D15609107068DE195E00E941D15AE
:103990000E94DF1389E295E00E94811B6091B905C6
:1039A0007091BA0590E080E00E94B91280910B06F8
:1039B00087FD07C060E00E9433128BEA94E0019714
:1039C000F1F78091CC0581111EC0C091CF05D09137
:1039D000D005BE0181E092E00E94131CD093D00577
:1039E000C093CF051091D305C091D105D091D205D8
:1039F000BE0182E092E00E94131CD093D205C093D6
:103A0000D1051093D305DF91CF911F910895CF93E6
:103A1000DF93D82FC92F89E295E00E94811BD093B4
:103A2000D405C093D505C093D705D093D805909100
:103A30000A06992361F08091D6059295990F990F06
:103A4000907C8370892B81608D7F8093D6058091D7
:103A5000B5050E940E126091C1058DE195E00E94AE
:103A60001D156091D6058DE195E00E941D156091B0
:103A7000D7058DE195E00E941D156091D8058DE177
:103A800095E00E941D156091D9058DE195E00E9499
:103A90001D158091C105803431F46091DA058DE106
:103AA00095E00E941D150E94DF1389E295E00E94B7
:103AB000811BD093C605C093C7056091B70570916F
:103AC000B80590E080E0DF91CF910C94B91280911D
:103AD0000B0687FD07C061E00E9433128BEA94E079
:103AE0000197F1F789E295E00E94811B8091B5056D
:103AF0000E940E1281E190E00E944C150E94DF139B
:103B00008BE097E20197F1F70895CF93C82FCF701C
:103B100089E295E00E94811B8091B5050E940E12FA
:103B200082E190E00E944C1590E080E00E944C15EC
:103B300061E38DE195E00E941D1562E08DE195E065
:103B40000E941D1561E08DE195E00E941D156C2F0E
:103B50008DE195E00E941D150E94DF1389E295E03A
:103B6000CF910C94811BEF92FF920F931F93CF93F1
:103B7000DF93182FC0910A03EC2E0C2E000CFF08C7
:103B80000E943B1901E1C002E0011124882349F1A0
:103B9000212F45E060E0CE01835C9E4F0E94DC193E
:103BA0000E9DF0010F9DF00D1124E25DFE4FE785A3
:103BB0000E2E000CFF0BE654FC4F90819F708091FD
:103BC0000406807F892B809304060E949E1B0E941E
:103BD000DD1BDF91CF911F910F91FF90EF900C941F
:103BE000571800910C0101111AC0C45CDE4F212F3F
:103BF00046E060E0CE010E94DC19011116C0809100
:103C0000C105803431F7E8810E2E000CFF0BED5416
:103C1000FC4F80818730E8F60E94851DDACFC25CB8
:103C2000DE4F212F219544E0E4CF688170E082E0EF
:103C300091E10E94131CCDCF9F92AF92BF92CF9281
:103C4000DF92EF92FF920F931F93CF93DF93EC01DC
:103C5000162FFC01E856FF4F8081803261F098E01A
:103C6000E92EF12C02E4803451F026E0E22EF12C12
:103C700002E5803521F088E0E82EF12C02E2CE0149
:103C80000E94811B110F12706E018CE8C80ED11CAE
:103C9000F60180810E940E12602F8DE195E00E9456
:103CA0001D15612F8DE195E00E941D150E94DF1307
:103CB0005E01FAEBAF0EB11CCE010E94811BB70171
:103CC000F601808191810E94AB1A912C092D10E0A0
:103CD0000E151F0564F48DE195E00E94D6140C0FBB
:103CE0001D1FF801E654FF4F80839394EFCFF50139
:103CF000808186FDE1CFCE01DF91CF911F910F91A1
:103D0000FF90EF90DF90CF90BF90AF909F900C947A
:103D1000811BCF92DF92EF92FF920F931F93CF936D
:103D2000DF938C01D62FFC01E856FF4F808198E08D
:103D3000E92EF12CC3E2803251F026E0E22EF12C84
:103D4000C3E4803521F488E0E82EF12CC3E5C801F6
:103D50000E94811B68018CE8C80ED11CF60180818D
:103D60000E940E126C2F8DE195E00E941D156D2FA3
:103D70008DE195E00E941D150E94DF13C8010E948D
:103D8000811BB701F601808191810E94AB1AD12C71
:103D9000CD2DD0E0CE15DF055CF48DE195E00E94DD
:103DA000D614C00FD11FCE54DF4F8883D394F0CFE9
:103DB000DF91CF911F910F91FF90EF90DF90CF9007
:103DC00008951F93CF93DF9391E018160CF090E0C5
:103DD000CFEFC80F82300CF4C0E08091C105D8E26B
:103DE000803221F0D8E4803509F4D8E510E090FB6A
:103DF00010F989E295E00E94811B8091B5050E942F
:103E00000E126D2F8DE195E00E941D15612F8DE141
:103E100095E00E941D156C2F8DE195E00E941D1507
:103E20000E94DF1389E295E0DF91CF911F910C94FE
:103E3000811B90910C0145E2943009F44AE1282F4E
:103E400060E08FE093E00E94DC1980910F030C94F6
:103E5000E11E0E943B19E82FF0E0E75FFB4F8081F5
:103E60000C94E11ECF93DF9380913F0360911E0479
:103E700070911F0494E68902600D711D11248091D8
:103E80000C01833031F4809109018230B9F5645F0F
:103E900071408091C105803271F1CC27DD27C61BAE
:103EA000D70B89E295E00E94811B8091B5050E94A5
:103EB0000E1282E190E00E944C1590E080E00E949A
:103EC0004C1561E08DE195E00E941D1560E08DE1EB
:103ED00095E00E941D156D2F8DE195E00E941D1546
:103EE0006C2F8DE195E00E941D150E94DF1383E980
:103EF00098E00197F1F7DF91CF9108956C507E4FD4
:103F0000C8CF282F49E167EE8FE393E00E94DC19C8
:103F10000E943B1981110C94321F08958F929F9239
:103F2000AF92BF92CF92DF92EF92FF920F931F93C7
:103F3000CF93DF93CDB7DEB728970FB6F894DEBFE7
:103F40000FBECDBF3B9A439A88E08093B8000E9491
:103F5000671D89E295E00E94811B8091B5050E9452
:103F60000E1281E090E00E944C158FE190E00E94DB
:103F70004C1585E090E00E944C150E94DF137E01F5
:103F800029E0E20EF11C89E295E00E94811B68E0C5
:103F900070E08091B5059091B6050E94AB1A8E0134
:103FA0000F5F1F4F8DE195E00E94D614F8018193B9
:103FB0008F01EE16FF06B1F7898186FDE4CF8BE015
:103FC00097E20197F1F789E295E00E94811B8091C9
:103FD000B5050E940E1281E090E00E944C1581E32D
:103FE00090E00E944C1585E090E00E944C150E94E4
:103FF000DF136091B9057091BA0590E080E00E94EE
:10400000B91262E370E080E090E00E94B912D12C16
:10401000C12C10E000E02BEAA22E24E0B22E88E6AC
:1040200090E0FC0125913491C216D30609F473C0C7
:104030000296F0E0863D9F07A1F796E1F92E809168
:10404000B5050E940E126F2D8DE195E00E941D15A1
:10405000F12CE12CC8018A529F4F4C01F401EE0D66
:10406000FF1D64918DE195E00E941D159FEFE91AF7
:10407000F90AE7E0EE16F10489F70E94DF13C501A3
:104080000197F1F7FFEFCF1ADF0A095F1F4F0733E0
:104090002EE1120709F0C3CF83EE93E00197F1F709
:1040A0008091C1058032E1F0E0910A0381E1E802EC
:1040B000F0011124E25DFE4FE7850E2E000CFF0B90
:1040C000E654FC4F80818F7080618093040680915C
:1040D0000506807880618068809305060E949E1B9B
:1040E00088E48093B80081E0809332043B9A43983F
:1040F00028960FB6F894DEBF0FBECDBFDF91CF91EB
:104100001F910F91FF90EF90DF90CF90BF90AF90F5
:104110009F908F90089585E1F82E91CF2F923F9236
:104120004F925F926F927F928F929F92AF92BF92C7
:10413000CF92DF92EF92FF920F931F93CF93DF9373
:1041400000D0CDB7DEB76A836DB67EB6E0EDE80F7E
:10415000EA3008F45CC08E3209F082C044E0498342
:10416000A98193E0A99F900111244DB75EB7421B2E
:10417000530B0FB6F8945EBF0FBE4DBFADB7BEB7C1
:1041800011967D01ADB7BEB711961C92119712968C
:104190002E0D3F1D1D92A217B307E1F78E3209F4D1
:1041A000EAE0F0E0E158FC4DE4918FE5A82E83E2CF
:1041B000B82E912C812C0E2F10E0C801082C02C0C3
:1041C000959587950A94E2F780FF34C0F5014490F5
:1041D0003196C490319654903196D49022242394F1
:1041E000240CDD20B9F0D12C222423942C0C5D1456
:1041F00009F1342C3D0C4C2D632DC7010E941A127D
:10420000422D632DC7010E941A12D394F0CF5EE0B5
:104210005983A6CF5D1471F03C2C3D0C432D642DC9
:10422000C7010E941A12432D622DC7010E941A1263
:10423000D394F0CFFFEF8F1A9F0A44E0A40EB11C75
:1042400058E08516910409F0B8CF9701498168E1DB
:104250008A810E943C160FB6F8947EBE0FBE6DBEDA
:104260000FB6F8947EBE0FBE6DBE0F900F90DF911B
:10427000CF911F910F91FF90EF90DF90CF90BF9063
:10428000AF909F908F907F906F905F904F903F90F6
:104290002F9008958F929F92AF92BF920F931F938A
:1042A000CF93DF93CDB7DEB7A1970FB6F894DEBFFB
:1042B0000FBECDBF19A2423008F44AE08E010F5D57
:1042C0001F4F842E912CB12CA12CA50194010E948A
:1042D0000D3AE62FB901CA01EA3044F5E05DD80194
:1042E000EE938D01232B242B252B79F790E080E092
:1042F000109769F0FD0101900020E9F73197AF01B7
:104300004A1B5B0BBD0181E296E00E943513A1962A
:104310000FB6F894DEBF0FBECDBFDF91CF911F91D6
:104320000F91BF90AF909F908F900895E95CD7CF89
:10433000682F70E090E080E04AE00C944A211F93DF
:10434000CF93DF9370E060E090E080E00E94FB1686
:1043500061E08AEB90E20E94131880910B01C1E2A8
:10436000D6E011E018870E94982118878CE70E94F8
:104370001E18188783E00E9498211886DF91CF913C
:104380001F910895CF938091580481111FC080918F
:10439000340481111BC068E370E08AE590E00E945C
:1043A000FB16C0910701CF3F29F48DE09FE1CF912B
:1043B0000C94F817CA3018F480E20E941E188C2F53
:1043C0000E9498218CE7CF910C941E18CF910895EC
:1043D000BC01990F880B990B4AE00C944A218F92EB
:1043E0009F92AF92BF92CF92DF92EF92FF920F9384
:1043F0001F93CF93DF9370E060E090E080E00E9435
:10440000FB1661E08CE390E20E94131810914A04BD
:10441000111116C068E170E08EE190E00E94FB1679
:1044200083E390E2DF91CF911F910F91FF90EF9086
:10443000DF90CF90BF90AF909F908F900C94F81723
:10444000C0913304CE7F82E08C0F811708F4182FBF
:10445000D0E0CE01880F991F9C012A5C3B4F690177
:1044600030E1832E912C5E0100913304C11708F0D6
:1044700047C0B40190E080E00E94FB1680E2C013C8
:1044800001C08EE30E941E1880E30E941E18219630
:10449000CE010E94E8218AE30E941E18F601E190F5
:1044A000F1906F0100E0F4E6EF16F10428F00F5FE1
:1044B00024E6E21AF108F7CF043640F480E20E94C5
:1044C0001E180A3018F480E20E941E18802F0E94E5
:1044D00098218EE20E941E1880E03AE0E316F10473
:1044E00028F08F5F9AE0E91AF108F7CF0E9498212F
:1044F00083E190E20E94F817E0E18E0E911CB4CFA8
:10450000FFEFAF1ABF0A1A151B0451F460E270E006
:1045100090E080E00E94FB1682E290E20E94F81791
:1045200068E370E090E080E00E94FB1680E20E9469
:104530001E18802F90E001960E94E8218FE20E94D1
:104540001E1880914A040E9498218AE190E26ACF65
:104550000F931F93CF9390910804992309F4C8C037
:1045600090917F03913009F44DC090E1C82F892FBD
:104570000E947F121816190614F08BEE91E020911C
:104580000001309101012F3F3F4F21F49093010131
:1045900080930001609100017091010147E0469F06
:1045A0009001479F300D1124280F391F83E0359566
:1045B00027958A95E1F7309301012093000164E685
:1045C000273882E03807B0F460E02C3E81E03807FD
:1045D00088F0293682E03807B8F042E1429FC001F6
:1045E000439F900D112480559B426FE170E00E9423
:1045F000E5396E5A80910201962F981BA9F5109209
:1046000002043FC09FE0B2CF223482E0380770F04E
:1046100043E2429FC001439F900D1124835E9E445C
:1046200067E270E00E94E539615DE4CF233182E00A
:10463000380770F048E2429FC001439F900D11245B
:10464000805D92456FE270E00E94E539695FD2CFEC
:10465000429FC001439F900D11248D569D4067E2FB
:1046600070E00E94E539C6CF9E5F953018F06093E8
:104670000201C5CF909102049F5F90930204953090
:10468000B0F70E94281300910304109104042091B4
:10469000050430910604601B710B820B930B613192
:1046A00077428105910510F4CC2311F180915804D3
:1046B000811114C0C091020168E370E08CE690E0C3
:1046C0000E94FB168C2FC53608F084E690E00E940D
:1046D000E821C43618F485E20E941E180E942813AF
:1046E000609303047093040480930504909306047C
:1046F000CF911F910F910895009769F0FC010190EF
:104700000020E9F73197AF01481B590BBC0181E24A
:1047100096E00C94351390E080E00895EF920F93AB
:104720001F93CF93DF9300D01F92CDB7DEB7809158
:104730005804811124C080914C04811129C06091DA
:10474000080670E080E2E82E00E020E042E0CE01C2
:1047500001960E94531A1091590470E060E082E7BC
:1047600090E00E94FB1681E0113009F080E0809318
:104770002906CE0101960E947C23109229060F90F3
:104780000F900F90DF91CF911F910F91EF900895AF
:1047900080E289838DE48A831B82DDCF90914C0473
:1047A000992339F0892F10924C040E94491C0C94D3
:1047B0008E2390910806890F803414F08FE3F5CF93
:1047C00087FFF3CF80E0F1CFCF93C82F80914C04C7
:1047D000882341F0C3FD11C0C13011F4663069F483
:1047E00081E009C08C2F8370833039F4CB3029F0FD
:1047F0008FEF6630A9F30E94CE238C2FCF910895BE
:104800007F928F929F92AF92BF92CF92DF92EF9260
:10481000FF920F931F93CF93DF9300D000D000D06F
:104820001F92CDB7DEB79091580491117EC0182F1A
:104830000E943B19782EC0905004D09051048111F1
:1048400088C0E0910A0381E1E802F0011124E25DF1
:10485000FE4F80852EEF822E23E0922E23E08330C0
:1048600081F0823049F4809187035EEF852E53E01A
:10487000952E22E0813029F09AEF892E93E0992E2F
:1048800020E08FE2E82E0EE245E0B601CE0101966F
:104890000E94531AC6010E943D1AF82EB12CA12C79
:1048A0000CE07FC0EF1409F487C040E8401B30E003
:1048B00020E068E1802F0E943C167EC080E190E0FD
:1048C00090C0772039F1B801625071098EE20E94E0
:1048D0008E20C5016AE070E00E94E539962FD82E3F
:1048E000B8016C5F7F4F80E3890F0E948E20B80172
:1048F0006C5E7F4F80E38D0D0E948E20FE1438F495
:10490000B8016F5C7F4FC80184960E940B1784E04A
:104910008F1548F060E270E08CE690E00E94FB1694
:10492000C4010E947C23F092070427960FB6F894E6
:10493000DEBF0FBECDBFDF91CF911F910F91FF90D2
:10494000EF90DF90CF90BF90AF909F908F907F902F
:10495000089580911E0490911F0468EE73E00E94F8
:10496000F93997FF04C088519C4F61507109C60EF8
:10497000D71E6AE070E00E94F9395B01C6010E940F
:104980003D1AF82E30E2E32E0EE220E0482FB60169
:10499000CE0101960E94531A4AEF842E43E0942ED2
:1049A00003E0E0900704112309F47CCF60E870E095
:1049B00090E080E00E940B1710E0D12CE1E0F0E0E5
:1049C000EC0FFD1FED0DF11DC080CC2009F479CF57
:1049D000B8018C2D0E948E208EE2C8126FCF86E027
:1049E00090E0080F191FD394E9CF9093510480935E
:1049F000500480E00E94002464E670E080E090E0D3
:104A00000C94B91285ED8093BC008091F3049091D1
:104A1000F404A091F504B091F6040796A11DB11D10
:104A200023E0B695A795979587952A95D1F720917C
:104A3000BC0024FD03C01092F10408954091F304DA
:104A40005091F4046091F5047091F604452B462BC7
:104A5000472B69F30097A105B10541F02AE22A9599
:104A6000F1F700C00197A109B109E1CF8091F204EB
:104A70000C94BE13CF9380915904E0910A038430C3
:104A800059F481E1E802D0011124A25DBE4FC1E0DA
:104A900018968C91833009F4C0E081E1E89FF00121
:104AA0001124E25DFE4F84E0ACE2B4E001900D928F
:104AB0008A95E1F71092300470E060E090E080E0C9
:104AC0000E94FB16C09329068CE294E00E947C238E
:104AD00010922906CF910895CF9380915904843084
:104AE00061F4E0910A0321E1E202F0011124E25DA8
:104AF000FE4FC1E08085833009F0C0E068E370E0DC
:104B000090E080E00E94FB1680910C01C093290682
:104B100024E0829FC001112481569C4F0E947C2377
:104B20001092290680E20E941E180E944619809168
:104B30005804811103C0CF910C943A25CF91089568
:104B4000909159049817A1F0809359040E9428135A
:104B500060935204709353048093540490935504CB
:104B60000E948E230E946F190E9457180C946C2586
:104B7000109259041092520410925304109254044B
:104B800010925504EDCF80915904882391F0109232
:104B9000590410925204109253041092540410922B
:104BA00055040E948E230E946F190E9457180C947E
:104BB0006C2508950E9400240E946C250E946F19A4
:104BC0000E94571881E00E94A8220E948E230C9414
:104BD000C2219F92AF92BF92CF92DF92EF92FF924B
:104BE0000F931F93CF93DF93D82E80910C01AA24AB
:104BF000A394843009F0A12CE0910A0381E1E8023A
:104C0000F0011124E25DFE4FBB24B3948085833014
:104C100009F0B12CAB1411F03B9A439A0E9413197E
:104C20008FEF80930701E0910A030E2F0E2E000CE8
:104C3000110B81E1E802F0011124E25DFE4F808555
:104C400090916F03833009F491E08091D605837CC5
:104C50008093D6052091C105203409F4F4C0903C1E
:104C600008F090E09093D9058091C6059091C70512
:104C70000E94071D81E1809FF001819FF00D1124AA
:104C8000E25DFE4F8085833009F0E5C084E08093CB
:104C90000C0110921504A5850A2E000CBB0BAD5F0C
:104CA000BE4F2C91022E000C330B818592854681DC
:104CB0005781C481D581D093C305C093C205509359
:104CC000C5054093C4053093C9052093C8058C17CA
:104CD0009D0720F04817590708F0EC010E94671D56
:104CE000909109062091CC053091CE058091060661
:104CF0004091CD0540FB87F930FB86F98F7D20FB85
:104D000084F9807F809306069093070680E2809363
:104D1000C1058091D605807C83608093D605109272
:104D2000D90581E08093DA050E94AD1C80910806C8
:104D30000E94491C10920A068091B5050E940E122D
:104D400082E190E00E944C1590E080E00E944C15BA
:104D50008FEF90E00E944C1590E080E00E944C158F
:104D600090E080E00E944C1590E080E00E944C159D
:104D70000E94DF138BE097E20197F1F71092CA05CA
:104D8000D093C705C093C605CE010E94071D81E1DF
:104D9000809FE001819FD00D1124C25DDE4F0E8106
:104DA0001F816C817D8180E094E10E94131CB80119
:104DB00081E094E10E94131C6AE070E082E094E1DB
:104DC0000E94131C62E070E083E094E10E94131CD7
:104DD00065E070E084E094E10E94131C10923204BC
:104DE000688970E082E091E10E94131C8091370392
:104DF00061E0811162E070E080E091E10E94131CAB
:104E00000E94291F80915804811105C00E947417C7
:104E100081E00E94DA25AB1411F03B9A439880910F
:104E200050049091510490934F0480934E04DF916D
:104E3000CF911F910F91FF90EF90DF90CF90BF9097
:104E4000AF909F9008958D7F8093D6051092D905DD
:104E50009093DA0509CFC481D581E680F7808091EF
:104E60003204882309F403C18785853014F084E077
:104E70008787D1100E948E1F8091050690914F0365
:104E800090FB84F9809305060E949E1B80910C0183
:104E9000833009F0D1C09090090181E1809FF00139
:104EA000819FF00D1124E25DFE4FC184D284D09326
:104EB000C305C093C205F092C505E092C40581E028
:104EC00090E09093C9058093C805CC16DD0608F4E0
:104ED000B6C0EC14FD0408F4B2C09091090620910C
:104EE000CC05809106063091CD0530FB87F98F798E
:104EF00020FB84F9807F81608093060690930706EB
:104F000080E48093C1058091D605807C8160809388
:104F1000D6051092D90581E08093DA050E94AD1C78
:104F2000809108060E94491C90920A0682E08093B4
:104F3000CA05D092C705C092C605C6010E94071DCA
:104F40000E94DD1B90910C0180910506933009F0C1
:104F500078C08068809305060E949E1B809105069C
:104F6000807F809305060E949E1B60910C0470E078
:104F700082E093E30E94131C60912F0370E083E0B2
:104F800093E30E94131C80910C0194E0833079F02C
:104F900081E1809FF001819FF00D1124E25DFE4FC1
:104FA000E7850E2E000CFF0BE654FC4F90819F709E
:104FB00080910406807F892B809304060E949E1BAB
:104FC0000E94321F809105069091470390FB85F95E
:104FD000809305060E949E1B0E943B19E82FF0E07B
:104FE000E75FFB4F8081811112C0848194EF980F9D
:104FF0009F3468F48093CB0524E531E0829FB001B3
:10500000839F700D112483E091E30E94131CBE0165
:1050100080E094E30E94131CB70181E094E30E94B6
:10502000131C63E070E083E094E30E94131C6AE0C9
:1050300070E084E094E3E2CE90900C012ECF6E01FC
:105040004CCF91E020915F03213009F490E090FB78
:1050500087F9809305060E949E1B80915F0390E074
:10506000811193E080910506807F892B7ACF109281
:105070000C01A385AA0FBB0BA35FBE4F8D919C9122
:10508000C184D284D093C305C093C205F092C505F4
:10509000E092C4059093C9058093C805CC16DD063F
:1050A00008F476C0EC14FD0408F472C08091CA05BF
:1050B0008130D1F10E94671D909109062091CC05A5
:1050C000809106063091CD0530FB87F98F7920FB62
:1050D00084F9807F8160809306069093070680E4C0
:1050E0008093C1058091D605807C81608093D60530
:1050F0001092D90581E08093DA050E94AD1C809161
:10510000CB0594EF980F9F3458F424E531E0829F4B
:10511000B001839F700D112483E091E30E94131C62
:10512000809108060E94491C10920A0681E0809333
:10513000CA05D092C705C092C605C6010E94071DC8
:1051400060910B0470E082E093E30E94131C609175
:105150002F0370E083E093E30E94131C8091C1054C
:10516000803409F039CF81E1809FF001819FF00DFB
:105170001124E25DFE4FE6850E2E000CFF0BED5470
:10518000FC4F8081873008F027CF0E94851D24CFF7
:105190006E018CCF80910C01833031F18AE00E9446
:1051A000BB190E943B198823F9F091E080915F03BD
:1051B000813009F490E08091050690FB87F9809397
:1051C00005060E949E1B80915F0393E0811101C040
:1051D00090E080910506807F892B809305060E94D0
:1051E0009E1B81E00C94E925089588E00E94BB197C
:1051F0000E943B19882369F08091050690914F0326
:1052000090FB84F9809305060E949E1B81E00C941C
:10521000E92508950F931F93CF93DF93182FD62F6F
:105220000E9422190E94FC18C0910A0310921F04C8
:1052300010921E048FEF111181E0082E000C990BC3
:105240008C0F911DC7FD9A954C966CE170E00E9401
:10525000F9398C0180930A03D1110E9413198091AE
:105260005004909151049093100480930F0421E115
:105270002C9FF0011124E25DFE4FD085209FF001AC
:10528000219FF00D1124E25DFE4FC08590934F04E5
:1052900080934E04D33029F1C33019F10E94071DC9
:1052A00080E00E94B31D80918703813059F421E092
:1052B000D23009F020E091E0C23009F090E081E0C6
:1052C000291301C080E00E940024809158048111BC
:1052D00002C00E943A25DF91CF911F910F910C944B
:1052E0006F1980E0DF91CF911F910F910C94E92508
:1052F000CF93C82F8370833069F480915804811153
:1053000009C0CB3039F081E0683009F080E061E01D
:105310000E940A298C2FCF910895EF92FF920F934C
:105320001F93CF93DF93E0902804F090290481E04D
:105330001E141F040CF080E080932D01E0910A03FD
:105340000E2F0E2E000C110B91E1E902F001112439
:10535000E25DFE4F9085933009F056C0E5850E2E34
:10536000000CFF0BED5FFE4F2081022E000C330B73
:105370004091280450912904249FE001259FD00DDD
:10538000349FD00D11244091500450915104C40F0A
:10539000D51F109229041092280491E1909FF001EA
:1053A000919FF00D1124E25DFE4F468157814C170D
:1053B0005D0790F144815581C417D50768F1CE018E
:1053C000B9010E94E539009709F05EC0D0935104FD
:1053D000C093500481E0809331040E9428136093AD
:1053E000240470932504809326049093270480E07E
:1053F0000E9400240E942219DF91CF911F910F91EA
:10540000FF90EF900C94FC18E385EE0FFF0BE35F29
:10541000FE4F20813181ACCF60E00E940A2980914B
:105420000A03082E000C990B21E1289FF001299F07
:10543000F00D1124E25DFE4F3085333059F0209F8E
:10544000F001219FF00D1124E25DFE4F20852330F5
:1054500009F0BCCF20912D01222359F021E1289F92
:10546000F001299FF00D1124E25DFE4FC481D5812A
:10547000ADCF21E1289FF001299FF00D1124E25DBD
:10548000FE4FC681D781A2CFC81BD90B1E141F04A3
:1054900014F030E020E0C20FD31F98CF1F93CF93BA
:1054A000DF93EC01162F0E94CF39181739F0612FC6
:1054B000CE01DF91CF911F910C94D739DF91CF911D
:1054C0001F910895EF92FF920F931F93CF93DF9355
:1054D00060914A0484EA91E00E944E2A10E0C0E9FB
:1054E000D1E080914A041817B8F4E12FF0E0EE0FF4
:1054F000FF1FEA5CFB4F00816181CE010E944E2AB2
:105500007E0182E0E80EF11C602FCE0101960E9420
:105510004E2A1F5FE701E5CFDF91CF911F910F91D9
:10552000FF90EF90089580913504882321F00E9428
:10553000622A10923504109234040E94741780E09D
:105540000C94DA2569EF75E185E196E00E9451152A
:105550008130A9F480914A04882379F0E0913304E2
:10556000F0E0EE0FFF1FEA5CFB4F8081918190938A
:105570005104809350040E94071D0C94932A69EFF4
:1055800075E18FE196E00E945115813091F52091EF
:105590004A04222351F140913304342F822F815049
:1055A000990BBC01832F90E08617970784F4DC01E8
:1055B000AA0FBB1FAA5CBB4F880F991FFC01E85CB8
:1055C000FB4F808191818D939C933F5FEBCF8FEF59
:1055D000820F80934A04882329F0481718F022503C
:1055E0002093330481E0809335040E9474170C9457
:1055F000EF2169EF75E18FE096E00E94511581304F
:1056000009F4BBCF08950F931F93CF93DF93EC0161
:105610008B01FB0162850E944E2AF8016185CE0153
:1056200001960E944E2AF8016385CE0102960E94DF
:105630004E2AF8016485CE0103960E944E2AF80195
:105640006585CE0104960E944E2AF8016685CE013A
:1056500005960E944E2AF8016785CE0106960E94A3
:105660004E2AF8016089CE010796DF91CF911F91F4
:105670000F910C944E2A0F931F93CF93DF93C82F53
:105680000E942219C11112C020915004309151047E
:1056900080910F04909110042817390739F4109263
:1056A0001A04DF91CF911F910F9108956BEE90E056
:1056B00080E00E944E2A68E381E090E00E944E2A3A
:1056C00060914C04611102C0609108068AE090E08C
:1056D0000E944E2A60910A038BE090E00E944E2ABD
:1056E00060910C018CE090E00E944E2A60911F04B2
:1056F0008DE090E00E944E2A60911E048EE090E0C2
:105700000E944E2A609109018FE090E00E944E2A8B
:10571000CC2381F10EE211E0C4E1D0E0B801CE016A
:105720000E94032B28960F5E1F4FC43FD105B1F78F
:105730000BE013E0CAEFD0E0F8016481CE010E94D3
:105740004E2A085F1F4F2196CC30F1E0DF07A1F70A
:1057500009E014E0CCE2D1E0F80161918F01CE01C3
:105760000E944E2A2196C233F1E0DF07A9F70E947A
:10577000622A0FC080910A0321E18202B001112444
:10578000625D7E4FE8E08E02C001112444960E94C3
:10579000032B8091500490915104909310048093B6
:1057A0000F047FCF0C94CF39CF92DF92FF920F93EB
:1057B0001F93CF93DF9384EA91E00E94D22BF82EBF
:1057C0008AE08F15D8F0F0924A0486E3C82E84E070
:1057D000D82E10E0C0E9D1E0F116D9F0CE010E9438
:1057E000D22B082FCE0101960E94D22B2296902F09
:1057F000F601819391936F011F5FEECF10924A04DF
:10580000DF91CF911F910F91FF90DF90CF900C947B
:10581000622ADF91CF911F910F91FF90DF90CF907F
:1058200008958F929F92AF92BF92CF92DF92EF92A4
:105830000F931F93CF93DF9300D000D01F92CDB76B
:10584000DEB790915804992309F46FC090910B0131
:105850009150282F3AEF939F200D112491E023308F
:1058600008F490E0082F84E4989FC02C1124D12CD8
:10587000A02EB12C892F880F880F981B920F990F9B
:105880009E5F88E0989F400111246623F9F0B401DF
:10589000C60105960E94FB1680915604082E000C46
:1058A000990B8A159B0509F051C08091570481110D
:1058B0004DC08EE30E941E18C50153E0880F991F4A
:1058C0005A95E1F7855F9C4F0E947C23F50143E0E8
:1058D000EE0FFF1F4A95E1F7E55FFC4F14810E3094
:1058E000B9F566EB70E2113011F062EB70E2CE01B7
:1058F00001960E94C839B401C60183960E94FB1626
:1059000080915604082E000C990B8A159B0509F00E
:1059100064C080915704882309F45FC08EE30E941D
:105920001E18CE0101960E947C230F900F900F90BD
:105930000F900F90DF91CF911F910F91EF90DF901B
:10594000CF90BF90AF909F908F90089580E2B2CF9C
:1059500025812230F8F0C501880F991FFC01EE5A0D
:10596000FF4D34918D5A9F4DFC018491013151F4CA
:10597000112371F0165FF4E01F9FB00111246A58E3
:105980007F4DB5CF2330B9F381111195130FF3CFAC
:1059900012E0F1CF211105C066E770E2112309F48E
:1059A000A6CF61E0610F0B3009F0612F062E000CCD
:1059B000770B77FF03C071956195710980E2E82E3E
:1059C0000EE220E043E0CE0101960E94531A17FF39
:1059D00002C08DE289831C828ECF80E2A0CF1F930C
:1059E000CF93DF93D0E0C0E016E080910B01082E4A
:1059F000000C990B0197189F9001199F300D1124ED
:105A00002C0F3D1F2231310564F4982F990F890F17
:105A1000880F61E08C0F0E94112C2196C630D105B1
:105A200021F7DF91CF911F9108950E947417809103
:105A300058048823D1F00E943B19E82FF0E0E75F7B
:105A4000FB4F808180930F038281809327038481A1
:105A500080931F0381E080930B010E949F2110928D
:105A60005604109257040C94EF2C0E943B19E82F17
:105A7000F0E0E75FFB4F80910F0380838091270365
:105A8000828380911F03848381E080931B040E94A2
:105A90003B2B80E00C94DA25CF92DF92EF92FF92BD
:105AA0000F931F93CF93DF9369EF75E185E196E044
:105AB0000E945115813039F490915904992309F4C9
:105AC000F0C00E94C32569EF75E18FE196E00E9466
:105AD0005115813059F480915804811107C080918B
