:020000040000FA
:100000000C9473110C94B4300C948D300C949B119F
:100010000C949B110C949B110C949B110C949B11B0
:100020000C949B110C949B110C949B110C949B11A0
:100030000C949B110C949B110C949B110C949B1190
:100040000C9443300C949B110C949B110C949B11B9
:100050000C949B110C949B110C949B110C949B1170
:100060000C949B110C949B11534156454400534DE5
:1000700000030607080002080E18222C36404A0129
:100080000203040A10161C222C36404A545E20201B
:10009000200031206B487A200035206B487A200000
:1000A00039206B487A20003130206B487A00353097
:1000B000206B487A003130306B487A0031204D484F
:1000C0007A2000313020487A2000323520487A20CA
:1000D00000353020487A200031303020487A003511
:1000E000303020487A0031206B487A200035206B70
:1000F000487A200039206B487A20003130206B4844
:100100007A00535445503A200050586068700818DF
:100110002030384048000810283840302E35206BF9
:10012000487A00312E30206B487A00312E32206B15
:10013000487A00312E38206B487A00322E30206BFE
:10014000487A00322E32206B487A00322E35206BEE
:10015000487A00332E30206B487A00342E30206BE2
:10016000487A00362E30206B487A00204155544F93
:10017000202000313130206B487A003834206B4821
:100180007A20003630206B487A20003430206B48CB
:100190007A20000020202020200044454C3A42577D
:1001A000204641564F524954455300454D505459ED
:1001B000204C4953540000000201000000000000E0
:1001C000030000000700020100000201000001001E
:1001D000090000000500010100000100010002010A
:1001E000000000000201000000000201415554001F
:1001F000204F4E004F464600203530002037350056
:100200006B487A004D487A0052535300534E5200C7
:10021000313030003530250031306D0031356D0022
:1002200033306D0036306D00204132002041310006
:1002300020202020202053455454494E475320204D
:100240002020000431F7210531F52D00000000F4D5
:10025000015802BC022003008094516895F565683E
:1002600093AEB1B4E2FBFE10273234363949660151
:1002700001040404010401010102010102016504F9
:1002800066030301040101010402010203020203E7
:10029000027F727577797B7E80838587898B8D8FCE
:1002A000919389F4D8E6E9EBEEF1F4F62C3B3F426A
:1002B000444A4D4F003900000000000000390C0096
:1002C000013937000239400003392C010439AC00F0
:1002D0000000000000187F3101187F1E04187F1BEA
:1002E00005187F0E081800140918003C0013FF00C1
:1002F000011304000413BC7F0513BC7F0000000041
:10030000001A0000061A000000000000001A010098
:10031000011A0100021A0A00031A1400041A140038
:10032000051A3C00061A55000000000000191000D4
:10033000011918000219400003192C010419AA0020
:100340000818140009183C000A18A00F0B18280000
:1003500000000000AED5808D142001A1C8817FDB94
:1003600040A6AF4D4F44204E4F20524453004154BD
:10037000532D32302A2056362E3600454550524FE6
:100380004D20524553455400454550524F4D20573E
:10039000454152000000580284030807100E000077
:1003A00000000000442A3C542200082A1C2A0800AD
:1003B00008080808080000606000000040201008DD
:1003C00004003E4141413E0000427F400000426146
:1003D000514946002141454B31001814127F10004D
:1003E0002745454539003C4A494930000171090516
:1003F0000300364949493600064949291E0000369E
:10040000360000000041221408007C1211127C000A
:100410007F49494936003E41414122007F41412206
:100420001C007F49494141007F09090101003E410B
:10043000594932007F0808087F0000417F410000D1
:100440002040413F01007F08142241007F4040408E
:1004500040007F020C027F007F0408107F003E41B5
:1004600041413E007F09090906003E4151215E00DD
:100470007F091929460026494949320001017F01B7
:1004800001003F4040403F001F2040201F003F40F0
:1004900038403F0063140814630007087008070021
:1004A00061514945430000007F0000007F1028444F
:1004B00000007C04180478004464544C440000FF9D
:1004C000FFFFFF01FFFFFFFF02FFFF030405060719
:1004D00008090A0B0C0D0E0F10FFFFFF11FFFF1292
:1004E000131415161718191A1B1C1D1E1F20212264
:1004F000232425262728292A2BFFFFFFFFFFFFFFA4
:10050000FFFFFFFFFFFFFFFFFF2DFF2EFFFFFFFF9E
:10051000FFFFFFFFFFFFFFFF2FFF2CFFFF0000008B
:1005200000240027002A0000000000250028002BDE
:10053000000404040404040404020202020202038C
:100540000303030303010204081020408001020496
:100550000810200102040810200000000800020119
:100560000000030407000000000000000000037406
:100570000BD484606FAE6CF9BB84A265B14BF6728C
:10058000011A21E85AD8D604735E2C226EC4E9B54C
:100590008B819A1EE487C99E7B17526DADE3E58B74
:1005A00004A72E996A32AA9997CCA65B157956486A
:1005B0000163B1DF5427065706538CA627AA668924
:1005C0000318517EFB67D3CEDD3FFD3D1F478401FD
:1005D000F3856EF83B792B0C904B67467D5488FD74
:1005E000D612E5E748F20EDB994D71A54068D9C9EE
:1005F0005939E475201CE9B1F5013C19BB60F7FAE3
:100600006B1E689F19B6ED140F56BCC134CB009D0C
:1006100043D40FF3629C9DF78B9D533A8D2F3DDEA3
:100620003D3831039BC7C159E9D175888D3658864D
:10063000704E5B9ED0DBCBF7EA1FDBA53BB3BD6BF7
:10064000BCF37065D5170F64152420D5B87B0D2732
:100650002985881F5822574F09C04DD6E4C6B53AA0
:10066000373327BB6A1469031BEDA8C343E8EADEEE
:10067000410625C5C83CBF32B2A7DD22C2E9CA8403
:10068000F2C0267C7801F7D5C60533E4C278EC1BAE
:10069000FDD2507D11295799B0F1556674B4582395
:1006A000A06F2ED89B08B33E53CF5ECC7ADF4EEDC1
:1006B00042166A9188431B1D845C52216658243679
:1006C00071C56A0D2C869A239DE03543C97F41BDD3
:1006D0008299ED7A26B2D3A6CE4F00E687E3D7689B
:1006E0002886F7CED2B3D31B0402B978B3ADE03C71
:1006F00053A68A4A22BE1FCEB176F22F81A8C178B6
:1007000072B0156519E332A74D0CD300B9C327BEEB
:10071000744DD1E10C36DD23FBA722D344CAB308C4
:100720001BB40D4BDF1AA69032925C1AA7CD852E12
:10073000351172F821357D3FDB298D30B34F4514DB
:1007400077CF992FA39081B0AEE845E63AA9A2628F
:10075000B7DBBE2539A5FCEAC5BC3AEC90AEA6FBDA
:1007600012AAC76222AFA984B964B8FB8DC11CC3A9
:10077000D0876D5CB4FE3FA4B8D889F40159BB049E
:10078000A543441ACB4130F75B9AEE28F44C71999B
:10079000CA4B7F2A13F04B54B3FC90EDBE483FF197
:1007A0005E0DA1BB1E591615F04B504C96861BA929
:1007B000CCC2694E1003F0E953E5E2BB45E28DAED1
:1007C000407108864D08F49690585340A58B5B3CC9
:1007D000AD47B5D7E26A1378D4DCC9EC0E93F0C00C
:1007E0001D953676A45385C9ACE4718DAF68612040
:1007F0009DFF45356E04D82732C3DAEEA26604B7F2
:100800002106527F398FFDEE9074B64FB6240E123A
:1008100048F0B230F2A54C9152E3C6487B3896239B
:100820009ED71B95153AC98B6F637D1DC9EA96E665
:1008300001D785C0EA3DCAD3B7FB07543A00313D22
:1008400074E4125BA238335BBF1DDC4EE885107781
:10085000ABEA6579B0AA3061C6F63BCC95FC837FE4
:100860008C7BB55205EBF721DE89B66DEE3177133F
:10087000AA935596086E1C82B57E95B994DD6842A0
:100880005C3A00C37B6F606A2C07D76C82FBB28135
:100890002569D6720AD2E8500588491B6372996CA3
:1008A000E37AAEB01B9ED42554258A901797DF3982
:1008B000B87CEAF082DD25D2ADE7F6362384A9C9FB
:1008C0006A53F4822C1DEA06C64F705437802A6B97
:1008D00063DBCC86E68C7F278C7254739E1BD64CD0
:1008E000FA058280D7B7119800069869151CFC8616
:1008F0008774845BD40FDBD727C54AB28F297A4A25
:10090000230AB807D03470818E53EF43163FA8A74F
:100910009E5A77C091B789155248C0B762ABE1744F
:100920006410AA096B9774217935A19725FC78C1C9
:10093000EC6E877740871A74828156DDEC37ADAF55
:100940000331AC478574C02A459DF4120CF986B07A
:100950004A16D8116C46C44A67988B1B42C2BEBB6C
:100960000E4884F708A6C38F8E8DABC29B5D5C607A
:1009700028578F0EAD2EC15E95299AF48A27D4414F
:10098000BB4AAC5DB29326FD87813F2735A6422C3A
:100990001538ADF8026F94DA08EE19D890FA89C3C9
:1009A000AD89FEC60246811D0C8D782FEED3ED6C0D
:1009B0007B95495687F4E263DA39CE681618ED98CC
:1009C000EE86F3B3C1121A519B571D199E987ED221
:1009D000FD3D2B59154674577914817189D922DD53
:1009E0009210D98991DF67006E53AFDAB528301EB7
:1009F00047E6B7052D22CF7F6ACD88906B8C1636DF
:100A00008807A1B7AFF331C4DB768B969EF017A7AA
:100A10003F847891A8CD3F8FA5DD5214F9395D0B45
:100A2000568E1C5A5B89EE809E33BDB1451542340B
:100A3000597820FC2DDBC92E0F3526CF239B3E1D78
:100A40009F0F260EB7B54EACA286D5DA36045A7380
:100A5000466A88C52AA083E88B5F3CAF6A444E751E
:100A60009B8F93373538BD029A1D8429642597E002
:100A70007C2AB6CBC166513CBC3BF3552BB7BD813C
:100A8000ECF349D5F803E0BDC60CEEC01908FB4FE6
:100A90008C94080EA53037F0B818937300BB5252EF
:100AA000B4980D4B45B9890A34E91C245A8FA89D86
:100AB000C2D927A9EEBFC08090BC2A9343FB0AB3DA
:100AC00096D1AE13410168B92C53537C00A58441E3
:100AD000D6988898FEDEF7E23743620E9383EE03E2
:100AE0000A8DCA8759366F61F7F4D6AB8B0F9C839A
:100AF00096A46C4643806BEA50DCD8CED4F4AE5B4F
:100B0000C6014385718D0C395EE43B2BC488B2C5A8
:100B100054960E879A5093D69C91CA09648B23C42D
:100B200029441A67E1DAC71B2517022C8F2A133ACA
:100B3000CFD665312B10F5B596DF01997BADD6B4D4
:100B4000C035A348E3B09EFE33101A09AE3C0AA19B
:100B5000728F0051E17823F5E2BFA64628B34B24FB
:100B6000B1A1DEB1C4486FED5AD461F0DBE1085C9D
:100B700064C0CAE9A9DEDEECC0685B6DBD43828C4F
:100B8000CA69B1A9C8710D5D6DA5AB1A6794EE0570
:100B900093E33FE81AE60F7F79F2CBC53757DFFCC6
:100BA0004FB460C7973C61B00C4664F44392D2A541
:100BB000F0F3B7DFAB20B1F5302AB3DC4B39B785A2
:100BC0003E1E1B948C26288045D60136D0EC9346D9
:100BD00088D3D5895D7A82213EC240E3B4DEF5A593
:100BE00069D569495C89CDAE137070ED690CECC6AE
:100BF000FE75EB4ED6B3C860FB341EF86492D9295B
:100C0000A813383D79C4BF21379DE34F21E53F2C20
:100C10005C5F41FF148791E082040B1E5553DC5644
:100C200040A43578E29B49222E09CD1F6F9483EEB4
:100C3000EA8BC4C210E080D9A55F53349C8CEA953E
:100C4000648794D6321CEB93BFE35583C2F6FCC88D
:100C500085B2945C425F6B8E3B9779747EE35CC295
:100C6000631A22B17F94CBE7B7FF0E3795AF1053CD
:100C700017881272DDCBAB4B6B6824ACC95C720970
:100C80004FF1FB1DE7A230E9204BDA707C9EE23485
:100C9000EB6A35C233D79D07B1EFF675F5FDADC7E9
:100CA0004BD0B7DDAE1E8D1EC0399CA71CC5CC39FC
:100CB00050C66BC6DA37C7E120EB74A53DC008FA11
:100CC000C2DFF29E432BF07750498CC32F68F32A82
:100CD0009B831ADC05D8B77C3C611176EC2DFE862F
:100CE000088715A3C01CB46A8D9EBF9AD5C85B0542
:100CF000181015FBC63CEEC5524B313607B94C8176
:100D0000EA83D782FEFC43594E20BDD365CF1F5CDA
:100D1000711FBF26EC44EB0174823C8E60DF47906C
:100D200031177E16C0EC1EC33A7A5921A29B8E87DA
:100D300025D3FE85DD6DE6D8CA74BADB4230963D18
:100D40008622866FDE371A932F032EE16E1662C15C
:100D5000E12DFECBA8DF6405EF23BC71617B1B6036
:100D60002227BDC6A37207AA09B052F219154DBEBB
:100D7000AF263B4D62A63C41077A34253CD6CDB622
:100D80005547871ECBCFCED20D95C0D872A6E03383
:100D90002426517E71C7533FD4677352CB785A00D3
:100DA0001115715F8D3CCF40CDD97430D9A13FC6AC
:100DB00058BCBE7818319A3960BB8D7B3495A5F14B
:100DC000543BB98599AFC445EB64A76E5960EB1EDF
:100DD0007AFBFD924323F127AC661266288A5CF603
:100DE000C63F7604E80927ED05AA26E5B4AD40BA6A
:100DF000F7F484CB7F07108DB6C7D477EABA962A6A
:100E000098F056D7FF504D59793D41E0FAA99D3EE3
:100E1000A6D979C80DD156C5ADD7FB703CBDF3E955
:100E20005D1C5393331DF81BEE9FB750AC8F485990
:100E300061C9859EC8B0D27439DF33F528E06311EB
:100E4000A7C405BD3AD934CAF9AAE200E6E6385784
:100E50003EEC197C0D2745C552C4FFF469C5F573F6
:100E6000734FE307C7CF38235B9C99A26A72B035F2
:100E700039C10AC71C1A3060181D2BF0C8F179A3BC
:100E800094E336359369059107126044FDB6C6FFB9
:100E9000E0CFA2CFC2A358AC32E32EEC0D9D1BFBDA
:100EA0000540BA678ECB38D7609CFE9EA170CC40BF
:100EB000728C8C507185DD84925CEE44B6E08015B6
:100EC00032DD1B4B8C6E8E3997A5AFC6F42985D3C6
:100ED000859385C854E4591D4EA0FEC507C1F7325D
:100EE00052F94D4585FCA0FA37B59D47E852238D50
:100EF000928743B4B84F951B1E4FE545BFCEC80C33
:100F0000B27DE7D92E88B72A61E12DC4212EB84DD4
:100F1000FD2187302511EC1F299431D29285381795
:100F2000DA634D8CB4065564B76CFCC28D5D978650
:100F300009D34369E83577CCAF91363C7CA36E4E3C
:100F40004AA2C94150EAABDF8704704F16F5A038BA
:100F5000F56016CD0CE5C7E3AD00126B12853C5C65
:100F60007F76ED49F29D8FDFABE1DD8701ED2C1B34
:100F70004B55117FC392D391C1D8A737C7E55B48C2
:100F80002BED31DECEFB9508E35184000B4D26732B
:100F9000118B1EE2040473E072FFE659C90448BFD6
:100FA000ABF399877C0704FB33B163616112AD0831
:100FB000AA30AC174D3086BF6713F1A7041B484217
:100FC0002384BB7FB408A69F43785CA14E8BA6E622
:100FD0007C4901F7315D2730010B570B79F702444B
:100FE00033BBB45BC701ABE301C2D2017A079EAD4C
:100FF0008402F1EEF7D82950012C35543ACC01C9BE
:101000003D666A980005247AF71C2440EBA24DC285
:1010100066C8372C030FF301066D9A42F0948FEDEA
:10102000BFE3283B72693775B4A09A6E31FD665BE9
:10103000CBF3BA8CA431FFBA7C2454D3C663899312
:10104000E4EDDA58474EB58FD793FDAF31EAB4ECF3
:10105000C9057D2B1596C1007E80E6F747CD6A77DE
:10106000F10E5913AA5C838870DCC4525220B66911
:101070002D6C6C8B662ACD5A4130D6FB7BA0EC7A66
:1010800022887C716EAF6206F4A8C688857636C564
:10109000C0D867967CE84DD4FBA96F0FB2A7A319FF
:1010A0006A30FD6FFC2BCEA41B8E574851C6980F9B
:1010B000E5087B4DFC59DDCF131B310C5E3B98E1FD
:1010C000F4C341D7A2645E16F9EBAE20E95D54BDCE
:1010D00099D3A7C1D9E53222D69F4FDD6B3C6DE98C
:1010E0004D965211DA2386BE01C451C29CC6F52F1B
:1010F0001FD0F1F55782FECBFB4ADF1D0046B8A793
:101100003A566608714E47F827265F6CD8C3059992
:101110000A758F4FC18872A05A1308A382842ECEFD
:10112000B5A34605D66A7856442386F2C963088B70
:10113000BDEE56D4361F375318E7DA1CFAD005D562
:101140005FE7B7AD362BCB06C053F432A8756FE31B
:10115000C9A1B0A6E6C2410F5D2E0A64504692496D
:101160005B2D002EB5213F0B4A719688844C98AABE
:101170002823EBEF455C6278D6E4FB6DC3D9356C70
:10118000B92AC67471C40C657CA3F96E2DB986B0FA
:10119000046394CF267D9E1EF799DAE08CDD86F3FA
:1011A000C8F1C64E155DED34BB90CDD626091EF6AE
:1011B000238451C1AE428F8496C957AE16363A2960
:1011C0008765B2BA5696D2F509EF304A0F6236FEFD
:1011D0000030BD091B50C33C48D725E18EB26F4D8E
:1011E000752DADC61EBAFA4F41AF7A6FA0A04FB6AB
:1011F0008834698A9E837A60F3A87E392A209C32DB
:101200005E7DC4AA97E6263542A1A0EF39B31C271C
:1012100063D27F75C01EB4FA4D7A818139E0792F8F
:1012200094A5283A437E97B594AF2A10380A7F498F
:1012300091C06C659AC6C95DD552469874AC93E46A
:1012400021B0EB08FAF4412EA6F9C5EDE33798C5B5
:10125000DF528241A2F2561AF3A4C6408DB95FAAAA
:10126000751E151E68782B2BF43EC7CBF31360E078
:10127000F48579880C227587B751E0D6E3A092D324
:10128000D7E36C5B3EB780E748D6D92F49CC75A031
:1012900004C94888E9CC3241AF30DEC6BC9DF7FCBA
:1012A000FF69035058A1D6B87B5E60FCCC0014AF38
:1012B0003A3041B34E634795E4BD5374D0F002B465
:1012C000FE48196C3F23F79B4411F2C245A63777BD
:1012D0006C10630E1BA7D196CA0D4F5B4351D614F9
:1012E000B723E799A49F4C7DD7DD0811844D5CE9B5
:1012F0006090048B1490F06F26450F208CE36F46AE
:1013000078EB12B45EF0DEEB222762784293BCE801
:1013100048C088BD0FDE232BD1880AE2B4338E612A
:1013200036435842AE6BD7F2FE0AC126947ACE8C71
:101330003B435A62EF708AFE4DD237DBA1B1061BE8
:1013400030174CA0241EBECB64E2CE135CD705A69A
:10135000763938F3852C160EB3E23DFF79880B936E
:10136000EFAD55CDB4EF8FB8167A05C05E920F4F32
:101370009858D422AD4325317852C69ACA5EA64EFB
:1013800079979ABBDF6DF1E2D0B3CA2A5C46825CE2
:101390001EDDD0C519892B2CBDC084D9333967E433
:1013A000E47926B69D1C1DE470A5A76189254A57DE
:1013B000337D0DCAF3CC22AAD7D9CBE6B296461517
:1013C0009568D80FDF6B36DA198216CE384ECFF219
:1013D00036C880075388042FB214195DC56CEF9589
:1013E0009C608B6AE4FC9DB29CED1D9C1BCAA326ED
:1013F000DD9C635B3B882BBA2235240148EEA04F6D
:101400006E964E2991AAAF5647BD7BDDA15599D85E
:10141000B5A147937BCD7BCF65DE5018F20549F12E
:1014200099D894213F7D52C6B1B4E19FF07E6064AB
:101430008B30E4AD2C97FB47F70901047BF4F7A749
:10144000A804A57F0858796D26276AD0D9AFC1C7EF
:101450001223E1AE98A40FBC1BFA9D910B1515A5A4
:1014600024531A13E0C30095389C364CCFF6A9BC20
:10147000C1530604F46FBF57E0A614A649707F3924
:101480002A4A5A593633B90D4725393704777C45EE
:10149000AC19932549E07A7BA2C695768D3C79B14B
:1014A000A7C38363032347D7ACFB84166F22490B82
:1014B00097AAD538575E2BBBA749EDD2D57A96BEF1
:1014C0008DF5F94656F52FA7A87AFF3FE7E88CF18E
:1014D00048E846CB4D25F935932FCE8BB8A9C5D317
:1014E000D22771866F72D9CA4E90D36DB13CD3CBDF
:1014F000C9303A26459D66445C5FD8E3907C1BD892
:1015000082DDD384D4C61B58BF02A53B100A3EE33C
:1015100009940B99882B47A79089C4482536DB721C
:1015200031ACF5A30115D0E62161EB5972DC9400D2
:101530000098F7B0F9FAC10A7EDC69CE905E82119C
:101540000B97E29955A23DFAEB88BC4DC2548D5FD2
:10155000DEA3E248132046C5A08104C42B9A84155B
:10156000B89E9B62A1EC7D083CAD214B89FCC696E0
:101570007C3A41358A13BD1B43BF367A4ECE709EEE
:101580002AF63933C7334B347D2A81FA252EC5C458
:10159000A1280ED54D15E069127119AAFF5948818D
:1015A0005653C935124D84699136D8ADF754D58C50
:1015B000F9C684126222F1B92B1DA57C567A4D5AC8
:1015C000C4F09D8F5DB59A7FE7B7A85D6D370000C9
:1015D0000000E4F2EA7A73F8FC6717F3D960090EA9
:1015E0008B0FE2F98361DF5369D0EE4251B5514868
:1015F00064F8DD3EEEA747F07C4BBB2B8EE28B60A0
:1016000057634B9BAA6763EAA3D57C4341A95474F3
:10161000D286C3114269C5093E8F94AFC599BBBB41
:10162000AC61646101F2D359B1415091166CCC9B0D
:10163000EC5CFE3BB3EC6ED7F10E5A8A5F1DB0C571
:1016400076542607BC66F0ED519A1FE8F751588E84
:101650001E80991FEED643CCFA2FAE80F2A8A8AE1A
:10166000437C8076D41AD4737461DFBF296F56151A
:1016700093075892F11DE87B68B2542030012DC5C4
:10168000D8FD6150140F584C1A5400127E46990C24
:101690009DD1A304F18217FEFC12E57581AFFF3DD9
:1016A00008D539874A8EF07AD4D0D6CFA9D65948F2
:1016B00041C268E3A435458D141AC444892C63C81B
:1016C000AF7BAC354327BE7ECF56403DA5AC0F97D0
:1016D000CCD46ED031D7146045AEDF0AAA33B388BC
:1016E000E01C26DC00B875C86711A1B58771F94AFE
:1016F0006AEC3F0E4121C24F928F1753EED5EA4F4D
:10170000917502590000000294E4DA4AB3AAA72EA8
:101710009CC780465EBD06331DD85D9F5F77730A08
:101720007D386BA70E8F4E7D01DA4474D2F17A2F8B
:101730007FE1ECF1A57D033B2F17B6E80D333C218B
:1017400091915B302C11C6586AE4351BB5A847B39C
:10175000FFD0960E484E9737601204FFCBA5F51DBB
:10176000409CDF36123DD92A72DAE88BE45BCFE980
:101770003852EC2CA0F779AD2070592062739CE3AD
:101780004609C912D47755074B6A261E5D077810A3
:101790004E4ADA5EF63B9B8DFD48D0BBAA212EF562
:1017A000DF854CA71D1A261BA082867F4B02D2F62E
:1017B00060C9860C1DBF736986184B44BC74E582F2
:1017C0001793B50A5608B74A73B804D214215E2C91
:1017D000A0E0C2015FDECE642AD8652BF074E3542A
:1017E000BFA09B50BA02002C95CE2A4FCF2B2B0EB8
:1017F0009BDD8F675B54A1472E842E24FA34E05A78
:10180000103BCFAFE2ED28D1176B9A1B496CFCCB94
:101810007A74092A415AFFA1F598C60CD26983D27D
:10182000C369875E7EBBFCC0D1C117D79BE15370F3
:10183000B743D038252649405B57BA4932AA9F3969
:10184000AA8E73008513796DF1912F9EA3A0657CFC
:101850007D53B47053016B925F38F1D73D7AD60750
:10186000727ADBA165A50741004BEBC5D03BEB309D
:1018700061420D4BA3D8078B12F5893D7CFB2E7975
:10188000A7BCD5BF729AD81539AD2570D16CB05DA3
:10189000BBF43AF66056FAF2A528AE0D76B379F1AC
:1018A0004BC72E6EB6616222D9A730234521DE4791
:1018B0008CEBE54C8B4E79A09D95B305AAAFECE679
:1018C0007473F0DC37AD933B206DA1D8CFF97E9EC9
:1018D000C6BB406456A6187528D2BA78645C4845E1
:1018E00070358C499A454A6DF29C8D480A612EE309
:1018F000D4EEA829404B53BB5639CE816CFD37A09E
:10190000791CC794176C37EA97F4D8D49F9F304F4F
:10191000E5A408B86BAEB9BC4F612044DF92DB1E72
:101920000483C0A12C09D8DF21F0200480AF73917B
:10193000BC0EBAE4F79B363C30F1B4BADCFA65F27F
:101940002B1D184E1662D4AC8B21A5A2F132C3C94F
:1019500065632D316BB88FE12493870499E6BDBA96
:10196000283063DAACC799378A8666B344D584AA2F
:10197000A15342A0381E5DF70529E7CA2A0B6AABBE
:10198000CEF03AF390E6D125A1331C33997D24D1D2
:101990007423FC6F7DDBA7E9C2DE17122D1CB37E1A
:1019A00088000308757D9A4937AF60047CBCD31C5E
:1019B00053703497EBE1CD3079A28694585A99C28E
:1019C00069D7B232626C0A3669B1354841CE799630
:1019D0007A0D2D33BF4D2FB8D8B3FBE47193B918EE
:1019E0000D51ABBB09D90DD7671E4728C7F7CE608D
:1019F0005828235E95FC2BDBF90D1FAB49E6D0A7D9
:101A0000377920E4CF05E36421ACDFB1E8F9E04C9D
:101A10003B5E89682A48C5640EDBF1538B1A2FF6AA
:101A20000C189C529B212E4AE7D6BBB71A0A22AB50
:101A30004AFDD3027D21FFB90E0F29ABACF4445E01
:101A40000FD5F357E54F61724EBA55378F9A1CD4B4
:101A5000B830AF0A951A1386D40A835C991B2BC041
:101A600093F513F5EAFB6F75746C2E77C344C53894
:101A700062B9F5AC58B4966EA4A545B51B7C9D2102
:101A80009516EE29572012BBF80A2325AC51FD7A92
:101A9000E09D43B0276F2ADF0408D3F11D3C128D6F
:101AA000AFF2D7B9029D46E3ABFF61C8612B19C8FD
:101AB000C1A16D0AA744FAB5A8D71E53156F7A487D
:101AC00041E930B5ADE2F070406AF331DD1950E51F
:101AD000BCB43D839FDFC8252790405B320447811B
:101AE000FA53B40A40157A745BDB24AB3AB791E33E
:101AF00044B747073990D2F5A9084658DC3210A3FD
:101B000047320445441371AC2EA7C971D0F9517EF8
:101B1000CAE509A81E775B3A08AA431CD68D6091D6
:101B2000466D64569E162ECEB399C8F6552713847B
:101B3000BC8AB3C8F51A72F76A0C46952F4A86B666
:101B4000D29894F1C3370E0C8711567EAFDA222952
:101B50006FEBFAEC96E0276B42A170091AAD48884A
:101B6000DAFCE13B62952856702803B258678D0A6B
:101B7000EA9A1595515F83070920BF37AFF70A74BA
:101B80003CA552F1E3F55830E117DE98F1387BF0CF
:101B9000AFBD165952996C7470487714FF53418445
:101BA000BCC5372F71843DF5467C63E000A0560725
:101BB000F78C6357BE545CE1FDAC35FAC2D5F25ADE
:101BC000BE7C318EBDDBFE4D036F5EA61F232DCA8A
:101BD00068F0C614CCC33EF021D4402A72B67EE22F
:101BE00085D68AFB48512777E4CBCD2FF6E1BCFEA2
:101BF000EDA1145FE532FCCFD9FB2FE9AD7D2D6857
:101C0000E79A15956A4AE4ABE4EBE00D40BDEF8F2F
:101C1000B975B439086DC09F04FFCCDE13304EB6E1
:101C2000E4E0CB69E5C61C2F436A632572D5DFBDAE
:101C3000DC0BE9089D3D266FC389F818AC42BF4E06
:101C40009D5D28B0264136768D8684FAD8D46758B3
:101C50001969202D35FE09D98CFDF921A157DF170F
:101C6000AE8ECBC97F2654DE104372DDBC18B9346A
:101C7000F9AB70F9744D8E6D2A331406D071E6AD50
:101C8000AABE862E9A8D8788AF039FCBF8789A6676
:101C90003809CDAE89C2CCAF6A16140948AE9B553F
:101CA000E40FA586A1757F7CEF0DCB3AB30D1F0223
:101CB0000000000C801FB4F4E0A641CC8700406116
:101CC00043E7FCB40000000124CA4534253C39FF39
:101CD000098C39855A5BCC273CBD28438645179A29
:101CE0004E3524A423A2FDCA6CD4FBBAE741B3FB52
:101CF0007C5507B56E3EB12972CC38EA273080B9E1
:101D00008CB8EE54AB3EDBDD06D095EA3E42886BE4
:101D1000AE89C7E84C38B693F6BE4C204A8CCE2B21
:101D200022D272494618568070675AFAC0CA6D535B
:101D300021CAE3866891D37CA9D5AD6A72A1FE530E
:101D4000E94085EA62A963753A2DEC9BFE58D87389
:101D5000205210435C2DB421B9961F726DBA42EA2D
:101D6000F285BE5212A7B13E2B89EF0F73057C9905
:101D7000C3C55F9653F8AF9B7A49A044546055F0B1
:101D8000103A608D905065AEF779DB2E08F9BBF202
:101D9000D278D086B594A10EB98189B7F9C043E84D
:101DA0008F3819DAED2FA75CDB01B338CEE6C3F22A
:101DB000D5AA879E116FD805F072ABD9A10FFF4647
:101DC000E94A8C0093E9866F6B1470BEB1B889C97B
:101DD000CC7D1A11D279FBD9D72413948F019C4B57
:101DE00069336601829888F84C13310F58C1061187
:101DF0003000000000B48991349B89FC75CD11CA74
:101E00001A6FFA71D645E70FEB3909B35A131FAAB7
:101E10003A93CF8D6ECAEC2C8EC5831B5AD6D189CE
:101E2000AC024FCB0F257696E05D2CFFA7EAEA9235
:101E3000F1725BEE08D8848AA959E31277DAD6CA20
:101E40004E362D7CA413D1E818319902540AD07A69
:101E500074A0AD2C834A6FF1B1501B6469E8842FE4
:101E60002CC8EB953DA518C74B82FC88E1D37B0EAF
:101E7000BE10BA6502859B469A377A774DC2C45325
:101E800030679154F63D39444342132E0929FD50E1
:101E9000A6DA94CE8697102B5C1C09CD0FFC15DCBE
:101EA000543B53E17CA7E1FD47C2AF7EEA3400001A
:101EB00000000C6FE65C04306C84C751E3B55F34FE
:101EC0009EDD05000000000C1CD4BCFBCD3AAEBC6E
:101ED000529254852CED0FFB00000000F873105D4A
:101EE000D81F06E0A15926B4393FC119F9D4BE4F15
:101EF000F433EC3F3FFE8F91D044F21278909E79FC
:101F0000A927EE05CB9F5A4B15DE6739181FE73A14
:101F10000A4198E7DEA728A0D354663379B53A83FF
:101F2000375F25407047B8796B62963F48EA9F6EED
:101F3000CB35E16F2DC4C24B9BA74D05790E1CFE1E
:101F4000095A9F87227A131B9F994D05DB1573D879
:101F500065FE395EA4437B6C79BD73914C9B4C94B8
:101F60001887EA68A7449F5C3666FD41145EB18E0F
:101F7000EB45DA770EE0EC5EF40DBF41C648F01594
:101F8000D860F74076237B1CE559445030CE064E8E
:101F9000C5A670C31817A237ACBF2C6FBC9B3F58A7
:101FA000121110390018DB7D0BD22CEE0AAF76949B
:101FB0007AC15C21D2619F1D7A9695DFA45181E69A
:101FC0001BD57C3644F060FF3AF632EC8FE09AC7BE
:101FD000E3BCADEBA694714B6D38974C36A275FF00
:101FE000FB3FEB60E131B1BC32776CBD49934BC232
:101FF00007BAF067FD68CAF5A4FF2A5EE2BEB569BC
:10200000B2A063931BB4BD4612FAEE885F46DFB2FE
:10201000BAE8BA5447EA000018FA0891779B1C877F
:102020008B01709EC0052BAAD7AF30A8018B28A0CA
:10203000F59599325F08C4EF65453CC36DEFB83440
:102040009D1C046686F2BC9D8797BE08DD58DD5353
:102050000F7DEC930BB95BE3087615DFC7682FA8FB
:10206000F84D338FAE0884C3E8CB9C718009D7113B
:102070006321040EC6F0509E0AA799149A5AF9AA31
:102080005F06DF5C52374B390C7E18C1ABD636F594
:1020900078BD9F790000000EF233610EC30B5A2405
:1020A000023F42353DA4ADC53050000076E7E34520
:1020B00008661821EBDD1476F8F155E83B9D8B930B
:1020C00092FFA7803438C2AD7CFFBD232B0B2C5F61
:1020D000EAC09500FB8C376B8A42913EEFD65143A4
:1020E000216F803EBDF2B32407A5924A765131722A
:1020F000354725E7B9D0F4C2DD52353A23C416FA84
:102100002A8D99D0B953C2125C3FCE8DDBD1C8D194
:1021100059E588FF4911ABAB7BD1F2B43749A0B187
:10212000FEFE6C08761D0B0000009AF4B16DA0F263
:1021300020E417A74D85B38E7ACB8730AF1190205E
:10214000A819EA2207FAC14CE8FCA2038F2AC53677
:10215000E4AF669BBA0ADD6590DAD72762D9193BEE
:10216000ABF666892DA53070E9AAE2D9C12347FDF7
:102170009A254A5F896297614B91FC341BFC97B2A8
:102180007B87F454FCD63648C28779A3C48F42B10A
:102190003147DDE8D00A714722F3F49F287A700CAA
:1021A000BC5930E0E4132465BD4C0E6D9E4D159076
:1021B0001972C928B6950E92F9795C64B9B97BD7C2
:1021C000DCB4B9B4967F7255AE00001EB0028E45E5
:1021D000BDF0A590B7301240B6409CF16263726DBD
:1021E000F0BA1AF6F0406A47A2FC9BD870191AF5AB
:1021F00024F64D2F64FDF7C3FDA7455D94318FD6BE
:102200009F5D216641D43951AF618C1E9F00000053
:10221000000611E97A8831E126B61C740000000638
:10222000F59835171AAB193A8CC60000000E7E14CB
:10223000D06E441C666167F18E287230D2BF7D6F0C
:10224000000008179962EE7818543AD57F61AC10F7
:10225000833E2C924F5A985997FB8297ADC873A230
:102260006C0D06CF0A69DAEB9EF7677FDEE8830B19
:10227000465A3F02B3607FDCA3FF148ECFA2657283
:10228000CE3E11392D9494478EC78C706B7C498E4D
:102290003CD74C00000002C877A5FDBA9A0A1A1B69
:1022A000D94A8303DFE2756E28D9631F02182727F6
:1022B0008F4BE7000000A90201000C010C010F0088
:1022C0000C100F00011E0C0100100F0000010F0088
:1022D000010F0C01011E02013F065B4F666D7D0779
:1022E0007F6F80000A3111241FBECFEFD8E0DEBF20
:1022F000CDBF14E0A0E0B1E0ECEDF1E702C0059045
:102300000D92AE38B107D9F726E0AEE8B4E001C0CF
:102310001D92A93BB207E1F711E1C3E7D1E104C087
:102320002197FE010E94E638C237D107C9F70E9403
:102330009E310C94EC380C9400008093BB0084E830
:102340008093BC008091BC0087FFFCCF8091B900D6
:10235000887F803231F481E080933A0481E090E01C
:1023600008958033D9F781E080933B04F7CFE5CF20
:10237000089594EA9093BC009091BC0097FFFCCF25
:1023800090E0880F991FF3CF089580913904815010
:1023900080933904882351F084EC8093BC008091B1
:1023A000BC0087FFFCCF8091BB00089584E8809338
:1023B000BC008091BC0087FFFCCF80913C04882347
:1023C00021F084E98093BC00EECF84EA8093BC00C6
:1023D0008091BC0087FFFCCFE6CFCF93C62F21E0D2
:1023E00020933C046093390424EA2093BC0020919C
:1023F000BC0027FFFCCF880F991F8E7F91708160F2
:10240000B6DF8C2FCF910895E62FF0E093E0F5959D
:10241000E7959A95E1F724E0829FC0011124E80F27
:10242000F91FE257FA4F677021E030E001C0220F38
:102430006A95EAF78081822B8083089590E0FC0101
:10244000E75AFA4F2491FC01EB5BFA4F3491FC01FF
:10245000EF5CFA4FE491EE23C9F0222339F02330E8
:1024600001F1A8F4213019F1223029F1F0E0EE0F4A
:10247000FF1FE95DFA4FA591B4918FB7F894EC91E5
:10248000611126C030953E233C938FBF08952730BD
:10249000A9F02830C9F0243049F7809180008F7D61
:1024A00003C0809180008F7780938000DFCF84B558
:1024B0008F7784BDDBCF84B58F7DFBCF8091B0005B
:1024C0008F778093B000D2CF8091B0008F7DF9CF0D
:1024D0003E2BDACFCF93DF9390E0FC01EB5BFA4F1A
:1024E00024918F5C9A4FFC0184918823D1F090E075
:1024F000880F991FFC01E35EFA4FA591B491FC018E
:10250000E95DFA4FC591D491623071F49FB7F894A8
:102510003C91822F809583238C93E8812E2B2883F6
:102520009FBFDF91CF9108958FB7F894EC912E2B38
:102530002C938FBFF6CF62E082E1CCDF62E083E1D3
:10254000C9DF88E48093B8001092B90008958E30F6
:1025500008F08E508770806480937C0080917A00B0
:10256000806480937A0080917A0086FDFCCF809110
:1025700078009091790008953FB7F89480918A058A
:1025800090918B05A0918C05B0918D0526B5A89BE7
:1025900005C02F3F19F00196A11DB11D3FBFBA2FF5
:1025A000A92F982F8827BC01CD01620F711D811DB5
:1025B000911D42E0660F771F881F991F4A95D1F73A
:1025C00008958F929F92AF92BF92CF92DF92EF9237
:1025D000FF926B017C01D0DF4B015C01C114D1047F
:1025E000E104F104B1F0C8DF681979098A099B098F
:1025F000683E73408105910588F321E0C21AD10835
:10260000E108F10888EE880E83E0981EA11CB11C39
:10261000E5CFFF90EF90DF90CF90BF90AF909F906D
:102620008F900895CF93DF93CDE5D6E061E0888168
:1026300051DF6AE070E080E090E0C3DF60E0888115
:10264000FDDE6AE070E080E090E0BBDF61E0888161
:10265000F5DE6AE070E080E090E0B3DFDF91CF91DB
:1026600008952FB7F8946091860570918705809141
:102670008805909189052FBF08950895B0E0A0E0E6
:10268000E4E4F3E10C94B7386C017B018B01040F97
:10269000151FEB015E01AE18BF08C017D10759F036
:1026A0006991D601ED91FC910190F081E02DC60178
:1026B0000995892B79F7C501CDB7DEB7EAE00C940F
:1026C000D3380F931F93CF93DF930BEA14E0EC0101
:1026D000C457DF4FC8010197F1F761E070E08881CE
:1026E00099817BDE52DE87FFF5CFDF91CF911F917D
:1026F0000F910895FF920F931F93CF93DF938C0157
:10270000EB01AFDF607F7370D801ED91FC919F0109
:102710002F703327AF01407F5370FF2EF694F6944D
:10272000B7E0BF15F8F089B190E00F2C02C0959585
:1027300087950A94E2F781706417750708F47C5F47
:10274000DB01A41BB50B2330310591F1E8F42130F6
:10275000310549F110F1882309F469C0A034B105AD
:1027600020F519C0AF2DB0E08DE08F1548F083B192
:1027700090E0189702C095958795AA95E2F7DBCF70
:1027800086B190E01E97F6CF25303105A1F160F1BA
:1027900026303105C9F180E010C08111FCCFAB01BA
:1027A00021E030E00AC0882399F130E020E0F3CF47
:1027B000811131C0A034B14090F5EE27FC7FE22BAF
:1027C000F32B407F53704E2B5F2BD8014D935C93BE
:1027D000882379F1209719F06F2DFE010995CDB767
:1027E000DEB7E5E00C94D83881111EC0D09728F3ED
:1027F000AB0187E0E2CF24E030E08823F1F2AB01C7
:1028000022E030E08BE0D9CF22E030E08111D5CF5B
:1028100023E030E0D2CFAB0126E030E0BCCFAB010B
:1028200024E030E083E0C9CF25E030E0B4CFAB0155
:10283000C4CF2330310598F288E0D1CF9ADD80E40F
:1028400090E095CD089595DD90E080E090CD0895DD
:10285000AEE2B1E014962C911497E6E7F5E0208300
:102860005C969C915C97928354968C91848321838F
:10287000938385830895F894309903C081E0809311
:1028800035058091350578940895F894E1E6F0E0F7
:1028900090E89083808378940895E091E20381E149
:1028A000E802F0011124EA5FFD4F81859285909343
:1028B0004A058093490508958091490590914A05FC
:1028C000E091E20321E1E202F0011124EA5FFD4F11
:1028D000248135818217930738F0268137812817A4
:1028E000390710F0928781870895BBDE6093580501
:1028F0007093590580935A0590935B0528EE33E059
:1029000040E050E00E94563830935D0520935C050E
:102910000895FC01F8948081918120813181281BE8
:10292000390B31832083789408959CEF960F923071
:1029300030F06A50623018F0833009F481E0089575
:1029400089B199B1E0916305EF70869586958270A3
:1029500092FB992790F9892B94E0E99FF0011124CB
:10296000E35CFB4FE80FF11D87FDFA9580818093B2
:1029700063058073A9F0F8942FEF3FEF803111F4D5
:1029800021E030E080914B0590914C05820F931F20
:1029900090934C0580934B0581E0809335057894A6
:1029A000089598E0899FF0011124E25DFE4F948123
:1029B00081E0891B848308958AE1F3CF089580E143
:1029C000F0CF08958CE0EDCF08958EE0EACF089522
:1029D00081E0E7CF08958DE0E4DF80919A0155CF43
:1029E00008958FE0DECF0895FC018081280F26171F
:1029F00014F440830895421714F0208308956083EF
:102A00000895282F44E060E08AEB91E0EDCF08952F
:102A1000CF93DF93EC01462FE091E20381E1E802DE
:102A2000F0011124EA5FFD4FE485E95FF0E0EE0F6D
:102A3000FF1FE45FFE4F8081918168EE73E00E948A
:102A40004338FB01309779F028813981C9010E9410
:102A50002F38009741F0442311F02E0F3F1F281B01
:102A6000390B39832883DF91CF910895FADD28EE61
:102A700033E040E050E00E94563830935D052093EB
:102A80005C0581E080935E050895EBDD10924805BA
:102A900010924705089580912D01882329F0909187
:102AA0002D0181E0943008F080E00895F4DF90E09B
:102AB00008958436910520F40A9758F481E008952A
:102AC000803127E2920738F4883E934030F483E067
:102AD000089582E0089585E0089584E008958F9236
:102AE0009F92AF92BF92CF92DF92EF920F93CF93CC
:102AF000DF93EC0131E0211101C030E0340FFE0121
:102B0000E30FF11D1082F0E0E0E0842F821B990BAF
:102B10004C018AE0A82EB12CE417B8F4222341F02E
:102B20008E169F0629F43150DE01A30FB11D0C93C0
:102B300031506E01C30ED11CCB01B5010E942F385C
:102B4000805DD6018C933196E7CF211101C0242FEF
:102B500080E02150330BE82FF0E0E217F30744F454
:102B6000EC0FFD1F9081903319F4E0828F5FF3CF5B
:102B7000DF91CF910F91EF90DF90CF90BF90AF900A
:102B80009F908F900895089590E080E0089584E9E3
:102B90008093BC0080913A04882331F010923A046B
:102BA00010923B0482E0089580913B04882321F039
:102BB00010923B0483E0089580E0089586EC95E050
:102BC00080DD80915206D5DB82E190E0D0DB90E0A1
:102BD00080E0CDDB81E0B1DB81E0AFDB8091A2065C
:102BE000ACDB8091A106A9DBD2DF83E998E00197F5
:102BF000F1F7089587E0D5DE4EDF882349F0809114
:102C0000A20690916A0190FB85F98093A206D6CF27
:102C10000895E091E20381E1E802F0011124EA5F06
:102C2000FD4FE7850E2E000CFF0B90917A018091ED
:102C3000A106992329F020912D019150233051F4C0
:102C4000EC58FB4F2081222321F0245091E02230C8
:102C500008F490E09295907F8F70892B8093A10665
:102C6000ADCF0895282F42E060E08AE791E0BCDE16
:102C700012DF8111CECF0895CF93DF93D82FC92FC4
:102C800086EC95E01EDDD0937106C0937206C0936A
:102C90007406D09375069091A706992361F08091F0
:102CA00073069295990F990F907C8370892B8160A0
:102CB0008D7F80937306809152065BDB80915E0668
:102CC0003CDB8091730639DB8091740636DB8091A2
:102CD000750633DB8091760630DB80915E068034AA
:102CE00019F48091770629DB52DF86EC95E0E9DC68
:102CF000D0936306C09364066091540670915506A4
:102D000090E080E05EDCDF91CF910895CF93C82FF3
:102D1000CF7086EC95E0D5DC809152062ADB82E10B
:102D200090E025DB90E080E022DB81E306DB82E0BF
:102D300004DB81E002DB8C2F00DB29DF86EC95E0F1
:102D4000C0DCCF9108958091A80687FD06C061E0A0
:102D500075DB8BEA94E00197F1F786EC95E0B1DC46
:102D60008091520606DB81E190E001DB10DF8BE011
:102D700097E20197F1F70895FF920F931F93CF9376
:102D8000DF93C82FD62FF42E890180915206F1DAF5
:102D90008C2FD3DAC1E0CD1748F1CF1538F5D80123
:102DA000ED91FC911197CF0101968D939C93E3597E
:102DB000FA4FE4918E2F90E0DADACF5FC83059F7FE
:102DC000E6DE86EC95E07DDC61E070E08091520605
:102DD0009091530602DBD9DA86FB882780F991E0CF
:102DE0008927CDB7DEB7E5E00C94D83890E080E0D5
:102DF000E3CFEF92FF920F931F93CF93DF93EC01FA
:102E0000F62EE72E142F052F5CDCC457DF4F888188
:102E1000B0DA82E190E0ABDA90E080E0A8DA8E2DC3
:102E20008CDA8F2D8ADA802F88DA812F86DAAFDE6E
:102E300083E998E00197F1F7CDB7DEB7E6E00C94AF
:102E4000D73894EF980F9F3470F48093680624E588
:102E500031E0829FA001839F500D112463E071E354
:102E600086EC95E0C6CF0895282F4AE56CE082E411
:102E700091E0BADD80912D01843019F080914201FA
:102E8000E0CF0895CF93C82F482F50E060E070E462
:102E900086EC95E0AEDFC093A506CF9108951F9311
:102EA000CF93DF9386EC95E00CDC8091520661DADB
:102EB00081E090E05CDA8091A3063FDA8091A4067D
:102EC0003CDA65DE86EC95E0FCDB6091560670919D
:102ED000570690E080E075DB8091A80687FD06C06C
:102EE00060E0ACDA8BEA94E00197F1F78091690633
:102EF000811120C0C0916C06D0916D06AE0161E0D9
:102F000072E086EC95E075DFD0936D06C0936C0699
:102F100010917006C0916E06D0916F06AE0162E00E
:102F200072E086EC95E065DFD0936F06C0936E0685
:102F300010937006DF91CF911F9108951F93CF9347
:102F4000DF93EC01122F9093600680935F067093DD
:102F500062066093610681E090E09093660680933C
:102F600065064C175D0720F06417750708F0EA0145
:102F70009091A606209169068091A30630916A0679
:102F800030FB87F98F7920FB84F9807F8160809303
:102F9000A3069093A40680E480935E068091730656
:102FA000807C8160809373061092760681E0809326
:102FB000770675DF8091A50665DF1093A70682E08E
:102FC00080936706D0936406C0936306CE0154DEF7
:102FD000DF91CF911F910895282F4FE060E08AEF95
:102FE00091E002DD80912D01843051F44091FA018D
:102FF000042E000C550B63E073E186EC95E0F9CEEE
:103000000895282F4FE160E082EF91E0EDDC8091A0
:103010002D01843051F44091F201042E000C550B27
:1030200062E073E186EC95E0E4CE0895282F4CE34E
:1030300060E08AED91E0D8DC8091DA0181110DC069
:1030400080914D05882349F050E040E061E070E454
:1030500086EC95E0CEDE10924D05089585E0A1DC6A
:1030600080912D01843049F440915A014F5F50E026
:1030700060E071E186EC95E0BCCE0895282F4FE327
:1030800060E082E591E0B0DC80915E06803241F044
:103090004091520150E063E073E386EC95E0A9CEE5
:1030A0000895282F40E260E08AE491E09DDC809161
:1030B0002D01843041F040914A0150E062E073E319
:1030C00086EC95E096CE0895FF920F931F93CF93D1
:1030D000DF93F090D201C4EDD2E00CEE12E0FE01DD
:1030E00065917491FE01329645915491F11002C0A0
:1030F000452F5527552786EC95E07BDE24960C1747
:103100001D0769F7CDB7DEB7E5E00C94D83884E148
:1031100048DC80912D01843009F4D6CF0895B0E0C9
:10312000A0E0E5E9F8E10C94B938AC01EB0120919D
:10313000490530914A05A8EEB3E00E949A386B0128
:103140007C01CA019695879597018601080F191F82
:10315000211D311DC901B8019A0150E040E00E94D3
:103160005638A90164E071E386EC95E042DECE01B9
:1031700096958795A7019601280F391F411D511D6E
:10318000CA01B9019E0150E040E00E945638A901F1
:1031900065E071E386EC95E02CDECDB7DEB7E8E0C4
:1031A0000C94D538CF93DF93EC01FE0165917491B7
:1031B0006115710549F0FE0132964591549186ECF6
:1031C00095E017DE2496F1CFDF91CF9108958CEE34
:1031D00092E0E8DF4091F201042E000C550B62E012
:1031E00073E186EC95E005DE4091FA01042E000CB7
:1031F000550B63E073E186EC95E0FBDD8CE293E038
:10320000D1DF8091C201882321F08CE093E0CACF06
:10321000089580E093E0FBCF82E1C3DB80912D0134
:10322000843009F4D4CF08958091CA01882321F015
:103230008CEB92E0B7CF089584EB92E0FBCF83E173
:10324000B0DB80912D01843009F0EECF0895E0913C
:10325000E20381E1E802F0011124EA5FFD4F80857D
:103260008230A9F480912D01811111C08091EA0171
:10327000823041F0833061F0813049F483E492E0A0
:1032800091CF089560EB74E080E496E048CF089514
:103290006CED75E080ED97E0F9CF282F43E060E01A
:1032A0008AEE91E0A1DBD3CF0895B0E0A0E0EBE59A
:1032B000F9E10C94B9388C01D62FFC01E856FF4F88
:1032C000808198E0E92EF12CC3E2803251F026E0B3
:1032D000E22EF12CC3E4803521F488E0E82EF12CB5
:1032E000C3E5C801EED968018CE8C80ED11CF6010F
:1032F00080813FD88C2F21D88D2F1FD848DCC80162
:10330000E0D9B701F6018081918167D8D12CCD2D0C
:10331000D0E0CE15DF0544F438D8C00FD11FCE540D
:10332000DF4F8883D394F3CFCDB7DEB7E8E00C94BA
:10333000D538B0E0A0E0EFE9F9E10C94B638EC0143
:10334000D62E142FFC01E856FF4F8081803261F0A9
:1033500098E0E92EF12C02E4803451F026E0E22ED0
:10336000F12C02E5803521F088E0E82EF12C02E214
:10337000CE01A7D980E0D0FA80F910FB81F9182F8F
:1033800013706E018CE8C80ED11CF60180810E947A
:10339000B911802F0E949D11812F0E949D11F7DB92
:1033A0005E01FAEBAF0EB11CCE018BD9B701F6016D
:1033B0008081918112D8912C092D10E00E151F05E6
:1033C00054F40E94C5110C0F1D1FF801E654FF4F65
:1033D00080839394F1CFF501808186FDE5CFCE0106
:1033E00070D9CDB7DEB7EBE00C94D238CF93DF9332
:1033F000EC01CDDB188283E090E00197F1F7DF91DB
:10340000CF910895CF93DF93EC01862F0E949D11F9
:103410008F858F5F8F87803128F0CE010F96E6DF92
:103420008C810CDADF91CF910895B0E0A0E0EBE160
:10343000FAE10C94BA38D82FC62FF42ED22E8091F0
:10344000AD0601DA61E289EA96E0DCDF6D2F89EAF8
:1034500096E0D8DF6FEF6F0D6D0F89EA96E0D2DF4F
:1034600062E289EA96E0CEDFEC2EE694E694E694FA
:103470006E2D89EA96E0C6DFCD0DDD27DD1F219791
:1034800083E0D595C7958A95E1F76C2F89EA96E098
:10349000B9DF88EB96E0AADFCE19CF5FCF9DE001C0
:1034A00011248091AD06CAD97801C00FD11FEC1646
:1034B000FD0669F060E00115110511F0F70160816A
:1034C00089EA96E09FDFFFEFEF1AFF0AF0CF88EB63
:1034D00096E08CDFCDB7DEB7E7E00C94D638B0E0ED
:1034E000A0E0E5E7FAE10C94B338E0EDE80FEA304C
:1034F00008F448C08E3209F067C024E0C22E94E080
:10350000C99EA0011124AEE8B5E01D929D012E5880
:10351000354024173507C8F38E3209F4EAE0D62E79
:10352000F0E0E852FD4DE49108EB12E2F12CE12CC1
:10353000CE2FD0E0CE010E2C02C0959587950A942F
:10354000E2F780FF30C0F80184903196A490319664
:1035500094903196B49066246394680CBB20A9F0D3
:10356000B12C662463946A0C9B14E9F0782C7B0CD4
:103570006A2D872D0E940412662D872D0E94041249
:10358000B394F2CF9EE0C92EBACF9B1461F07A2C8F
:103590007B0C672D882D0E940412672D862D0E94BA
:1035A0000412B394F2CFFFEFEF1AFF0A0C5F1F4F24
:1035B00088E0E816F10409F0BDCF0EE815E020E23E
:1035C0004C2D60E18D2D31DFCDB7DEB7EEE00C94F0
:1035D000CF380F931F9310E000E027DF1F910F916A
:1035E0000895B0E0A0E0E7EFFAE10C94B9386C017F
:1035F0008B017A01E9018091AD0625D961E289EA62
:1036000096E000DF60E0D7FC07C06091B00670E094
:10361000C616D7060CF4B60189EA96E0F3DE60918F
:10362000B00670E0E616F7060CF4B70189EA96E0FA
:10363000E9DE62E289EA96E0E5DE60E017FD07C0B8
:103640006091AE0670E0061717070CF4B80189EA1E
:1036500096E0D8DE60E0D7FD07C06091AE0670E06E
:10366000C617D7070CF4BE0189EA96E0CBDE88EBDB
:1036700096E0BCDECDB7DEB7E8E00C94D538E9EAD9
:10368000F6E0948783877687658723E0759567954D
:103690002A95E1F7478150E09B01A3CF089523E0ED
:1036A000660F771F2A95E1F7EACF0895CF93C82FC9
:1036B0008091AD060E94B91180E890E00E94B71198
:1036C0006C2F89EA96E09EDE88EB96E08FDECF9144
:1036D0000895CF93DF932091AE0630E04091B0067D
:1036E00050E070E060E090E080E07BDF8091AD062C
:1036F000A5D8C0E0D4E060E089EA96E083DE2197B7
:10370000D1F788EB96E072DE6091B6067091B7064D
:103710008091B4069091B506B2DFDF91CF91089504
:10372000A3E0B0E0E6E9FBE10C94BA389B838A831E
:10373000FC012781838594850696281719060CF4C9
:1037400037C0062F84817AD8F12CE12CF0EEF00FEF
:10375000F9830052110B02541B4F86E0D82E898149
:103760008F3560F5F80184918F3F41F1F7018D9D10
:10377000E00DF11D1124E256FC4F6491EA81FB81BA
:103780008085811160958A819B813CDEEA81FB8185
:1037900083859485019694878387FFEFEF1AFF0A4C
:1037A00086E0E816F104D9F68A819B810F961EDE29
:1037B00081E090E02396E7E00C94D63860E0DECF1D
:1037C000682F89EA96E0ACCF08950F931F93CF93AB
:1037D000DF938C01D0E0C0E0F801EC0FFD1F649195
:1037E000662339F089EA96E09BDF892B11F0219658
:1037F000F3CFCE01DF91CF911F910F910895FF92EA
:103800000F931F93CF93DF938A01F22E70E090E025
:1038100046DFC9EAD6E0F886C801D7DF1886CDB7FB
:10382000DEB7E5E00C94D83880912D018330F0F4B8
:10383000E091E2038130E8F081E1E802F001112437
:10384000EA5FFD4FE78545E151E0E40FF52FF11DFB
:1038500044918091810521E0833009F020E050E01F
:10386000455E5E4F67E088E2CACF0895843059F024
:10387000089581E1E802F0011124EA5FFD4FE68539
:103880004EE051E0E2CFE091E20381E1E802F00195
:103890001124EA5FFD4FE08949E051E0D6CFEF9275
:1038A000FF920F931F93CF93DF9390912D0193304D
:1038B00069F1182FC091E203EC2E0C2E000CFF08CA
:1038C000EAD801E1C002E0011124882321F1212F6F
:1038D00045E060E0CE018B5E9D4F86D80E9DF001E5
:1038E0000F9DF00D1124EA5FFD4FE7850E2E000CB1
:1038F000FF0BEC58FB4F90819F708091A106807F59
:10390000892B8093A1065AD984D98EDFCDB7DEB733
:10391000E6E00C94D73800912D01011118C0CC5E5F
:10392000DD4F212F46E060E0CE015ED8011115C0C9
:1039300080915E06803449F7E8810E2E000CFF0B63
:10394000E359FB4F8081873000F7E0D9DECFCA5EB4
:10395000DD4F212F219544E0E6CF488150E062E021
:1039600071E186EC95E045DAD0CF1F93CF93DF93DA
:103970008091810511E0823009F010E0212F42E0B2
:1039800051E060E082E23BDFC091E2030C2E000CCC
:10399000DD0B80912D018430C9F481E18C9FF00111
:1039A0008D9FF00D1124EA5FFD4F85858C5F10938C
:1039B000B10627E0829FC00111248E569F4F05DF7C
:1039C0001092B106DF91CF911F91089564D888239A
:1039D00059F081E18C9FF0018D9FF00D1124EA5F79
:1039E000FD4F8485895FE3CF81E18C9FF0018D9F3E
:1039F000F00D1124EA5FFD4F8385D9CF0F931F93FC
:103A0000CF93DF93C091E2032C2F0C2E000C330BCD
:103A100090912D0141E1C402E0011124913048F15F
:103A2000943008F1943029F5CD5EDD4F05E011E0CA
:103A300042E0282F60E0CE010E94F4140115110528
:103A400061F08881880F990B080F191FF801808198
:103A50009181909366068093650687DFDF91CF9111
:103A60001F910F910895CE5EDD4F10E000E048E019
:103A7000E0CFCF5EDD4F91E1929FF001939FF00D7B
:103A80001124EA5FFD4F90850CE011E043E0923095
:103A900080F246E0CECF68E370E088E190E0EFDDB1
:103AA00080912D01843079F480914E05811105C0FB
:103AB00060E289EA96E034CE08958091D2016AE20C
:103AC0008823B9F3F5CF80912D01833039F48091AB
:103AD000080165E5813069F76CE4EBCF0E944B1576
:103AE000882331F38091820163E5813009F7E1CFCA
:103AF000CF93C0918A018091AD060E94231461E8A2
:103B000089EA96E07FDC82E8C89F90011124245561
:103B1000384EAC2FB0E00E949A3861E0670F89EA16
:103B200096E070DC88EB96E061DCCF91089590918F
:103B30008A01890F8A300CF089E087FD80E080934C
:103B40008A01D6CF0895A8E0B0E0E9EAFDE10C943F
:103B5000B8383B9A439A88E08093B800F4D886EC52
:103B600095E00E946113809152060E94B91181E094
:103B700090E00E94B7118FE190E00E94B71185E0BC
:103B800090E00E94B71103D87E0189E0E80EF11C95
:103B900086EC95E00E94611368E070E08091520627
:103BA000909153060E94ED118E010F5F1F4FD02E92
:103BB000C12E0E94C511F80181938F01EE16FF06F8
:103BC000C1F7898186FDE4CF8BE097E20197F1F799
:103BD00086EC95E00E946113809152060E94B91113
:103BE00081E090E00E94B71181E390E00E94B7115C
:103BF00085E090E00E94B7110E94C71560915606BB
:103C00007091570690E080E00E94E11262E370E05C
:103C100080E090E00E94E1121A82198210E000E038
:103C2000E12CF12C0539F1E01F0740F450E040E0B1
:103C30000138110588F040E051E00EC040E052E04C
:103C4000063F82E0180740F040E053E00F3FE3E01A
:103C50001E0710F040E054E0EE2DF0E0E95AFD4F71
:103C6000E491E40FF52FF11D86E10E171F0711F403
:103C7000E39485E12F2D30E0F901EF56FD4FE491FB
:103C80004E0F511D0417150709F057C0F394F901A1
:103C9000E259FD4FE49141E04E0FBB24B39444360A
:103CA00018F04DE94E0FB12C2D2D3C2D61E064D85C
:103CB0008823B9F0BB2051F02D2D3C2D48E063E066
:103CC00085E15AD8882369F00F5F1F4F0F5F1F4FA0
:103CD0000135F4E01F0708F4A5CF83EE93E00197C8
:103CE000F1F780915E068032E1F0E091E20381E13C
:103CF000E802F0011124EA5FFD4FE7850E2E000C6B
:103D0000FF0BEC58FB4F80818F7080618093A10680
:103D10008091A2068078806180688093A2060E94CC
:103D2000DE1588E48093B80081E0809336053B9AE5
:103D300043982896E9E00C94D438B12C48E0B4CFED
:103D4000CF93DF9380912D01D0E0C0E0833079F4F0
:103D5000E091E201EE0FFF0BE15BFD4FC591D491C5
:103D600080910801823019F4D195C195D1098091D3
:103D70002D01833009F041C090910801209162012A
:103D800084E6280290011124923019F4319521958E
:103D9000310980915E06803269F1809145059091EC
:103DA0004605280F391FC20FD31FD195C195D109E0
:103DB00086EC95E00E946113809152060E94B91131
:103DC00082E190E00E94B71190E080E00E94B7117C
:103DD00081E00E949D1180E00E949D118D2F0E9424
:103DE0009D118C2F0E949D110E94C71583E998E0B8
:103DF0000197F1F7DF91CF91089590912D01BECFFA
:103E0000282F43E060E082EE91E00E94F41480915C
:103E10002D01833009F494CF0895282F49E167EEEE
:103E200082E691E00E94F4140E944B15811188CF24
:103E300008951F93CF93DF9391E018160CF090E054
:103E4000CFEFC80F82300CF4C0E080915E06D8E25C
:103E5000803221F0D8E4803509F4D8E510E090FBF9
:103E600010F986EC95E00E946113809152060E9441
:103E7000B9118D2F0E949D11812F0E949D118C2FB1
:103E80000E949D110E94C71586EC95E00E94611367
:103E9000DF91CF911F91089590912D0145E29430CB
:103EA00009F44AE1282F60E082E391E00E94F414D3
:103EB00080913201BEDF0E9456158A589A4F209198
:103EC0003201FC01208308950E9456158A589A4FAA
:103ED000FC018081AECF08958091E30381110CC075
:103EE00081E08093E30380919A010E9445148FEA58
:103EF000DDDB109282050895809157058111FBCF7B
:103F00001092E30381E00E9445148EEAF1CF809184
:103F1000E303811111C080918205882369F081E05B
:103F20008093E30380919A010E9445148FEABEDBDF
:103F3000109282050C94751408958F929F92AF92FF
:103F4000BF920F931F93CF93DF93CDB7DEB7A197A7
:103F50000FB6F894DEBF0FBECDBF19A2423008F4F1
:103F60004AE08E010F5D1F4F842E912CB12CA12CA5
:103F7000A50194010E945638E62FB901CA01EA3022
:103F800044F5E05DD801EE938D01232B242B252BE6
:103F900079F790E080E0109769F0FD010190002032
:103FA000E9F73197AF014A1B5B0BBD0189EA96E047
:103FB0000E943E13A1960FB6F894DEBF0FBECDBF90
:103FC000DF91CF911F910F91BF90AF909F908F90F5
:103FD0000895E95CD7CF682F70E090E080E04AE078
:103FE000ACCF0895CF93DF9370E060E090E080E085
:103FF00046DBC9EAD6E081E0888780E392E0E5DB32
:1040000080910B01E8DF6CE7CE018ADB85E0E3DF1E
:104010001886DF91CF9108951F93CF93DF9370E0BF
:1040200060E090E080E02BDB81E08093B1068AE9DC
:1040300091E0CBDB10913D051123F9F0D0913C05C7
:10404000DF5F91E0DA3008F092E081E01A3008F0AA
:1040500082E0C4E0C91BC81BC15018F080E2B0DB8D
:10406000FBCF8D2FB8DF8CE7ABDB812FB4DF109255
:10407000B106DF91CF911F91089584E991E0A5DB0E
:10408000F6CF0F931F93CF9390913805992309F49E
:10409000CCC09091A201913009F44DC090E1C82F9D
:1040A000892F0E94A7121816190614F08BEE91E0C2
:1040B00020910001309101012F3F3F4F21F4909357
:1040C000010180930001609100017091010147E0BE
:1040D000469F9001479F300D1124280F391F83E020
:1040E000359527958A95E1F73093010120930001DA
:1040F00064E6273882E03807B0F460E02C3E81E0C7
:10410000380788F0293682E03807B8F042E1429F4C
:10411000C001439F900D112480559B426FE170E0D8
:104120000E942F386E5A80910201962F981BA9F594
:1041300010928E043FC09FE0B2CF223482E0380755
:1041400070F043E2429FC001439F900D1124835EB3
:104150009E4467E270E00E942F38615DE4CF233116
:1041600082E0380770F048E2429FC001439F900D03
:104170001124805D92456FE270E00E942F38695FE4
:10418000D2CF429FC001439F900D11248D569D4078
:1041900067E270E00E942F38C6CF9E5F953018F01E
:1041A00060930201C5CF90918E049F5F90938E041F
:1041B0009530B0F70E94311300918F041091900454
:1041C0002091910430919204601B710B820B930B30
:1041D000613177428105910510F4CC2331F1809152
:1041E0005705811118C0C091020167E070E08CE6AC
:1041F00090E055DA1092B1066C2FC53608F064E6EF
:1042000070E090E080E04AE098DE1092B106C4369B
:1042100010F485E2D5DA0E94311360938F04709315
:1042200090048093910490939204CF911F910F91E9
:104230000895009771F0BC01FC0101900020E9F79E
:104240003197AF01481B590B89EA96E00C943E1355
:10425000089590E080E00895A9E0B0E0E2E3F1E2A3
:104260000C94AF38182FF0903D0528E340E868E043
:1042700080E0F1100BC0ADD920E04BEA51E064E0E2
:1042800084E2BDDA2996E2E10C94CB38A2D9812FE1
:10429000880F180F812F90E02F2D30E003962817FC
:1042A00039070CF4C901898725E0129FC001112448
:1042B000DC01AF52BB4F6D0192E0392E26E0222E79
:1042C0003AE0632E712C44E6442E512CB9851B171D
:1042D000C8F600913C0528E040E8632D660F660FA4
:1042E000660F80E076D9832C912CB40190E080E0B9
:1042F000D6D980E2011301C08EE362DA1F5F812FFD
:104300006AE00E942338092F805D5ADA80E3800F2B
:1043100057DA80E255DAF60182818430A1F5808196
:104320009181B2010E942F385B01B3010E942F38A6
:10433000F62E85E0F4E6AF16B10408F484E021E13E
:10434000281BB401229DC0011124A9D9B50190E018
:1043500080E04AE0F2DD8EE233DA8F2D3CDEB401FC
:104360008CE690E09CD9D60112968C91B4E08B9F9C
:10437000C0011124875A9B4F5CDFE5E0CE0ED11CB3
:1043800033943394A3CF0190F081E02DFF24FA946D
:10439000F80EB2E0B12CA12CBF15A0F0D6011396F7
:1043A0008D919C9168EE73E00E94433897FF04C0A2
:1043B00088519C4F61507109E60FF71FB3010E94AD
:1043C00043385B0180E2E82E0EE220E045E0BF01C9
:1043D000CE0101960E946F15B2E085E0BF1508F08E
:1043E00088E0E1E1E81BB401E29DC001112457D946
:1043F000CE0101961EDFF2E0FF1508F4B0CF8EE289
:10440000DFD92AE0A216B10410F480E3D9D9B501AE
:1044100090E080E04AE091DDA2CFA7E0B0E0E3E1E8
:10442000F2E20C94B2385090570551105EC0882EBD
:104430000E944B15982E6090490570904A05811195
:1044400076C0E091E20391E1E902F0011124EA5F14
:10445000FD4F80852AE8C22E24E0D22E13E083305F
:1044600081F0823049F48091AA016AE8C62E64E0A6
:10447000D62E12E0813029F096E8C92E94E0D92E8C
:1044800010E08FE2E82E0EE2212F45E0B301CE01CD
:1044900001960E946F15C3010E945915F82E512CE8
:1044A0008CE045E0112309F46CC08CE045E0552414
:1044B000539411E066C09091D0049F1509F48EC00A
:1044C00040E8481B20E260E187C0911012C028E05C
:1044D00042E168E28DE67DD868E270E08DE690E02A
:1044E000CED8C601A6DEF092D0042796EFE00C9459
:1044F000CE38B8018EE20E946F1A9801295F3F4FB3
:10450000C5016AE070E00E942F38962FB82EB901DD
:1045100080E3890F0E946F1AB801685E7F4F80E3C5
:104520008B0D0E946F1A84E08F1588F6DCCF809186
:1045300045059091460568EE73E00E94433897FF69
:1045400004C088519C4F61507109660E771E6AE065
:1045500070E00E9443385B01C3010E945915F82E98
:1045600030E2E32E0EE220E0482FB301CE010196A7
:104570000E946F154F2D56E8C52E54E0D52E83E0CE
:1045800010E0140F9EE0499FA0011124552011F066
:104590004C5F5F4F123038F0E3E01E9F400D511D1D
:1045A00011244350510929E230E0911002C030E05B
:1045B00020E0420F531F282F30E00AE610E0041BD2
:1045C000150B021713070CF48901882009F473CF27
:1045D00020E240E860E180E00E94E91ACE01019605
:1045E0003C01F30181903F01882009F46ECFB801AE
:1045F000882D0E946F1AFEE284E08F128EE090E018
:104600000396080F191FEDCF90934A058093490533
:1046100080E003DF64E670E080E090E00C94E1125B
:104620000895A4E0B0E0E7E1F3E20C94BD38809196
:104630005705811126C080916005811122C010911B
:104640002C011F3F11F568E370E08AE590E017D870
:104650008EE890E0BAD828E04CE060E182E70E9462
:10466000E91A0E944B1581110CC080917A0683FFD4
:1046700008C060E170E082E790E001D88EE690E04B
:10468000A4D82496E4E00C94D9380091020268E39F
:1046900070E08AE590E00E943F1B01110DC01A30C6
:1046A00020F460E289EA96E03BD8812F94DC6CE745
:1046B00089EA96E035D8CFCF80912D01843061F022
:1046C000EFE7F0E080E09491911720F58F5F31964D
:1046D0008F30C9F7ECE325C090E080E0FC01EB5897
:1046E000FF4FE491E11728F401968A309105B1F764
:1046F000F1CF843030F48F589F4FFC018491E0E07B
:1047000011C0E0E0843069F0EAE08E9FE02D1124D2
:10471000E85207C0893098F3EAE08E9FE02D11241B
:10472000EA5589E093E5998390E3980F893008F082
:1047300099E39A83893018F08BE2E11101C080E29D
:104740008B831C82CE01019674DD85CFEF920F938F
:104750001F93CF93DF9300D01F92CDB7DEB7809128
:104760005705811123C080913705811128C06091C0
:10477000A50670E080E2E82E00E020E042E0CE01F5
:1047800001960E946F151091810570E060E082E74C
:1047900090E00E944F1B81E0113009F080E080938F
:1047A000B106CE01019645DD1092B1060F900F9033
:1047B0000F90DF91CF911F910F91EF90089580E2BC
:1047C00089838DE48A831B82DECF909137059923FC
:1047D00039F0892F109237050E944217B7CF0895FC
:1047E0009091A506890F803414F08FE3F5CF87FFF1
:1047F000F3CF80E0F1CFCF93C82F80913705882386
:1048000041F0C3FD10C0C13011F4663061F481E0A5
:1048100009C08C2F8370833031F4CB3021F08FEFBF
:104820006630A9F3D2DF8C2FCF9108958091570580
:10483000811111C080918105813069F09091A506A8
:1048400080913705992341F0811108C09093370575
:104850000E9442177BCF08958823E1F30E944217FC
:1048600010923705F7CFCF9380918105E091E20355
:10487000843059F481E1E802D0011124AA5FBD4FD0
:10488000C1E018968C91833009F4C0E081E1E89F83
:10489000F0011124EA5FFD4F84E0ACE7B5E0019040
:1048A0000D928A95E1F71092800570E060E090E04B
:1048B00080E00E944F1BC093B1068CE795E0B9DC05
:1048C0001092B106CF910895CF93DF938091810527
:1048D000843061F4E091E20321E1E202F00111246D
:1048E000EA5FFD4FD1E08085833009F0D0E0C091D0
:1048F0002D0167E070E090E080E00E944F1BD093B4
:10490000B10624E0C29FC0011124875A9B4F91DC5D
:104910001092B106C0D880915705811101C0A3DF64
:10492000DF91CF910895CF93C82F7BDE8C2F75DD5B
:10493000CBDF1BD80E94141C81E0A3DB07DFCF91E3
:104940000895B0E0A0E0E7EAF4E20C94B538F82E60
:10495000E091E20321E1E202F0011124EA5FFD4F60
:10496000108599249394133009F0912C80912D0196
:1049700088248394843009F0812C80914D0588230C
:1049800051F050E040E061E070E486EC95E00E9478
:10499000F91610924D05891411F03B9A439A0E9422
:1049A0004D148FEF80932C0190919201133009F4F4
:1049B00091E080917306837C8093730620915E065C
:1049C000203409F400C1903C08F090E09093760602
:1049D00080916306909164060E943C16C091E203A8
:1049E0000C2E000CDD0B133009F0F5C084E0809331
:1049F0002D0110924E0581E18C9FF0018D9FF00DED
:104A00001124EA5FFD4FA5850A2E000CBB0BAB5F9E
:104A1000BE4F2C91022E000C330B8185928546816E
:104A20005781048115811093600600935F065093AF
:104A300062064093610630936606209365068017F0
:104A4000910720F04817590708F08C010E94A3161F
:104A50009091A6062091690630916B068091A3067D
:104A600040916A0640FB87F930FB86F98F7D20FB79
:104A700084F9807F8093A3069093A40680E28093BC
:104A80005E0680917306807C83608093730610922B
:104A9000760681E0809377060E944F178091A506E5
:104AA0000E9442171092A706809152060E94B911E7
:104AB00082E190E00E94B71190E080E00E94B7117F
:104AC0008FEF90E00E94B71190E080E00E94B71154
:104AD00090E080E00E94B71190E080E00E94B71162
:104AE0000E94C7158BE097E20197F1F710926706D5
:104AF0001093640600936306C8010E943C1621E1EE
:104B00002C9FC0012D9F900D1124EC01CA5FDD4F39
:104B10000E811F814C815D8160E074E186EC95E03F
:104B20000E94F916A80161E074E186EC95E00E940C
:104B3000F9164AE050E062E074E186EC95E00E94EC
:104B4000F91642E050E063E074E186EC95E00E94E3
:104B5000F91645E050E064E074E186EC95E00E94CF
:104B6000F91610923605488950E062E071E186EC52
:104B700095E00E94F91640915A014F5F50E060E0C5
:104B800071E186EC95E00E94F9160E94E7180E94F8
:104B900064189AD980915705811104C00E94691B3D
:104BA00081E0C1DE891411F03B9A43988091490558
:104BB00090914A059093480580934705CDB7DEB79D
:104BC000ECE00C94D1388D7F8093730610927606BA
:104BD00090937706FDCE21E12C9FC0012D9F900D73
:104BE0001124DC01AA5FBD4F5D0114960D911C914B
:104BF00015971696CD90DC901797809136058823EF
:104C000009F4BBC01F968C911F9786301CF084E07E
:104C10001F968C93F1100E94A31D8091A206909183
:104C2000720190FB84F98093A2060E94DE158091A8
:104C30002D01833009F08AC02091080181E18C9F09
:104C4000F0018D9FF00D1124EA5FFD4F41855285E3
:104C5000B601C8010E949E170E94091690912D016D
:104C60008091A206933009F074C080688093A206F8
:104C70000E94DE158091A206807F8093A2060E948A
:104C8000DE154091790550E062E073E386EC95E033
:104C90000E94F9164091520150E063E073E386EC04
:104CA00095E00E94F91680912D0194E0833079F00F
:104CB00081E18C9FF0018D9FF00D1124EA5FFD4F83
:104CC000E7850E2E000CFF0BEC58FB4F90819F7078
:104CD0008091A106807F892B8093A1060E94DE151A
:104CE0002FD88091A20690916A0190FB85F980935C
:104CF000A2060E94DE150E9456158A589A4FFC01A2
:104D000084810E942117A80160E074E386EC95E09D
:104D10000E94F916A60161E074E386EC95E00E941A
:104D2000F91643E050E063E074E386EC95E00E94FE
:104D3000F9164AE050E064E074E386EC95E00E94E6
:104D4000F9160E9414190E94271923CF20912D01D2
:104D500075CFF090820191E09F1990FB87F98093C5
:104D6000A2060E94DE158F2D880F8F0D982F9F7041
:104D70008091A206807F892B80CF10922D010E9406
:104D800056157C01D5011B96EC911B97EE0FFF0B7E
:104D9000E45FFE4F808191811996AD90BC90109395
:104DA000600600935F06D0926206C09261069093FF
:104DB000660680936506A016B10608F47BC0CA1487
:104DC000DB0408F477C080916706813069F10E94A6
:104DD000A3169091A606209169068091A3063091B2
:104DE0006A0630FB87F98F7920FB84F9807F816028
:104DF0008093A3069093A40680E480935E0680913E
:104E00007306807C8160809373061092760681E041
:104E1000809377060E944F17809168060E942117A1
:104E20008091A5060E9442171092A70681E0809308
:104E30006706B0926406A0926306C5010E943C1604
:104E400080915E06803499F481E18C9FF0018D9F02
:104E5000F00D1124EA5FFD4FE6850E2E000CFF0BCE
:104E6000E359FB4F8081873010F40E94861642E0A0
:104E700050E061E073E386EC95E00E94F916E701EB
:104E8000CA58DA4F4A8150E062E073E386EC95E05D
:104E90000E94F9164091520150E063E073E386EC02
:104EA00095E00E94F91688810E94191F8C810E944A
:104EB000211721CF580187CFCF9380912D018330C7
:104EC00011F18AE00E94D1140E944B158823D9F079
:104ED000C091820181E08C1B9091A20680FB97F922
:104EE0009093A2060E94DE158C2F880F8C0F982FAE
:104EF0009F708091A206807F892B8093A2060E94DA
:104F0000DE1581E01EDDCF91089580915705811156
:104F100006C00E944B15882311F080E0CDCF089584
:104F200088E00E94D1140E944B15882361F0809183
:104F3000A2069091720190FB84F98093A2060E94D0
:104F4000DE1581E0FECC08950F931F93CF93DF937E
:104F5000182FD62F0E945C140E943615C091E203D0
:104F600010924605109245058FEF111181E0082E31
:104F7000000C990B8C0F911DC7FD9A954C966CE116
:104F800070E00E9443388C018093E203D1110E94AB
:104F90004D148091490590914A0590933A0580936C
:104FA000390521E12C9FF0011124EA5FFD4FD085E6
:104FB000209FF001219FF00D1124EA5FFD4FC08575
:104FC00031E0D33009F030E021E0C33009F020E0D7
:104FD000321739F080E0B5DCDF91CF911F910F914E
:104FE00008950E943C160E94641F80E00E944F1C9E
:104FF0008091AA01882359F021E0D23009F020E005
:1050000091E0C23009F090E081E0291301C080E016
:1050100004DA80915705811101C025DC0E94B51C7E
:105020008091490590914A059093480580934705E2
:10503000D3CFEF92FF921F93CF93DF938BE495E052
:105040000E9489147C01892B09F466C081E01E143A
:105050001F040CF080E0809304011091E203412FC3
:10506000012E000C550B91E11902F0011124EA5FA9
:10507000FD4F9085933009F055C0E5850E2E000C4C
:10508000FF0BEB5FFE4F2081022E000C330B2E9D99
:10509000E0012F9DD00D3E9DD00D1124609149055A
:1050A00070914A05C60FD71F91E1949FF001959F1B
:1050B000F00D1124EA5FFD4F468157814C175D07C3
:1050C000C8F144815581C417D507A0F1CE01B901BB
:1050D0000E942F38009749F0C81BD90B1E141F04DB
:1050E00014F030E020E0C20FD31FD0934A05C093E4
:1050F000490581E0809342050E9431136093530576
:1051000070935405809355059093560580E085D99A
:105110000E945C140E943615DF91CF911F91FF9081
:10512000EF900895E385EE0FFF0BE45FFE4F2081C3
:105130003181ADCF60E008DF8091E203082E000CE2
:10514000990B21E11202F0011124EA5FFD4F308535
:10515000333059F0289FF001299FF00D1124EA5FA8
:10516000FD4F2085233009F0C0CF20910401222378
:1051700059F021E1289FF001299FF00D1124EA5FE9
:10518000FD4FC481D581B1CF21E1289FF001299F36
:10519000F00D1124EA5FFD4FC681D781A6CFB0E0A4
:1051A000A0E0E5EDF8E20C94B938C82FD62F837053
:1051B000833039F580915705811123C0CB3009F137
:1051C0000E9431136B017C018091950490919604AB
:1051D00005E914E0D83031F0809193049091940463
:1051E00003E914E09601281B390B203F310548F0F4
:1051F00081E0D83009F080E061E0A6DEF801D182DC
:10520000C0828C2FCDB7DEB7E8E00C94D538809102
:10521000570581113BC080916005811137C0809195
:105220002D01813051F180912D01823031F1809139
:105230002D01833059F520912D01233039F58091CE
:105240000801281B20930801E091E20340914905E1
:1052500050914A0581E1E802F0011124EA5FFD4F17
:1052600066817781848195810E949E170E94A01E8D
:1052700081E0D3D80C944B1D089580912D0181308D
:1052800031F081E080932D0180E05BCB089582E0D6
:10529000F9CF80915705811144C080913D0584313B
:1052A00068F540912D012091490530914A05E1EDC5
:1052B000F4E090E0891759F0608171812617370773
:1052C00019F452814517D1F09F5F3596F3CF909135
:1052D0002D01409145055091460565E0869FF001FE
:1052E0001124EF52FB4F31832083928354834383F5
:1052F0008F5F80933D0581E08093970468E170E0C3
:105300008DE290E00E943F1B88E690E00E94E51B42
:1053100064EF71E080E090E00E94E11281E003CB55
:1053200008950895833021F490912D019330B9F0C0
:1053300090915705911113C090918105891301C077
:1053400080E08093810580918105882349F00E9447
:105350007514FCD90E94B51C0E94141CB5CA08958E
:10536000109258051092590510925A0510925B053B
:10537000F0CF1F93CF93DF93C4EED3E06A817B819C
:10538000888199810E947A13182F882379F080915F
:10539000E303811114C080918205882381F00E946B
:1053A000871F888199818358954059F4299684E014
:1053B000C533D80719F7DF91CF911F9108950E9447
:1053C0007514113039F01B3089F7EE81FF81309769
:1053D00029F4ECCFEC81FD81309711F00995E6CFEF
:1053E0008885882319F39EDFE1CF8091810588238A
:1053F00081F0109281051092580510925905109273
:105400005A0510925B05A2D90E94B51C0E94141C7B
:105410005BCA0895B0E0A0E0E0E1FAE20C94B9388C
:105420002091E203C1E13C2F2303F0011124EA5F44
:10543000FD4F8085833009F4B2C0809157058111FA
:10544000AEC0D3DF0091E203002E000C110B2091BF
:105450002D01C09FC001C19F900D11248A5F9D4FF7
:10546000FC01211188C0C685D0912D010E944B15E9
:10547000882309F451C0C0904905D0904A05F12C09
:10548000E12C2091450530914605C90168EE73E095
:1054900037FF06C087EE93E0821B930B68E17CEF39
:1054A0000E944338DB01AB01770F660B770B4C0D85
:1054B0005D1D6E1D7F1D81E1809FF001819FF00DBC
:1054C0001124EA5FFD4F848195816C01F12CE12C60
:1054D0004C155D056E057F050CF44FC086819781E4
:1054E0006C01F12CE12CC416D506E606F7060CF487
:1054F00044C0E8E1FCEFAE9FC001AF9F900DBE9F9E
:10550000900D1124820F931F50934A054093490533
:105510009093460580934505D150D23058F4000F42
:10552000111FF801E856FB4F809145059091460503
:10553000918380830E945C140E94361580912D0116
:10554000833011F43B9A439A0091E203002E000C41
:10555000110B80912D018330A0F48130B0F1809146
:105560002D018093030183E080932D011092460565
:105570001092450508C0C78577CFAC0190E080E068
:10558000C3CF833089F080E0DCD98091360581116A
:1055900006C080912D01811102C03B9A4398CDB77E
:1055A000DEB7E8E00C94D53810922D011092360544
:1055B00081E1809FF001819FF00D1124EA5FFD4F92
:1055C000C7300CF0C6E0C687DECF80910301809320
:1055D0002D010E94A31D81E1809FF001819FF00DAC
:1055E0001124EA5FFD4FC6300CF0C5E0C787000FFD
:1055F000111FF801E856FB4F808191819093460579
:1056000080934505C0CFA5E0B0E0E9E0FBE20C9453
:10561000BF3841E1849FF0011124EA5FFD4F2185ED
:1056200032853A83298393859F70268540E1240241
:1056300090011124922B9B8394859F70278540E1D4
:10564000240290011124922B9C8395859F702089C0
:1056500040E1240290011124922B9D8395E0899FC3
:10566000B0011124665E7F4F45E050E0CE01019607
:105670000E9402382596E2E00C94DB380F931F93CA
:10568000CF93DF9380913B0581111CC060913D0554
:1056900083E591E00E941138C0E005EE10E0D5E00E
:1056A00080913D05C81770F4CD9FC001112445E0DD
:1056B00050E0B8018F529B4F0E9402380B5F1F4F82
:1056C000CF5FEECFDF91CF911F910F910895809121
:1056D0009704882319F0D2DF109297041092600586
:1056E000109258051092590510925A0510925B05B8
:1056F0000E94691B80E017C90895809157058111A8
:105700001AC080916005882311F0E1CF089581E0EF
:105710008093600510923C050E9475140E940C2035
:1057200080913C059BEA899F812D11248695809369
:105730000A010C942C210895B0E0A0E0E2EAFBE21B
:105740000C94BA3865E974E18AE695E00E947A1310
:10575000813009F089C00E94751480913D0588232D
:1057600009F47EC0E091E20321E1E202F00111249C
:10577000EA5FFD4FD084D091360500913C053B9AFD
:10578000439AE02EF12C35E0039F800111240F5243
:105790001B4FF801828180932D010E944B15C82F69
:1057A0008093360581E0F8019281943009F080E021
:1057B000E6E0F2E010E095E09E9DD0019F9DB00DE7
:1057C0001124AF52BB4F91E02085233009F090E0C7
:1057D00089130DC02D913C91119744815581241757
:1057E000350728F0468157814217530730F41F5F71
:1057F00071961C3141F71091E2038091E203082E6B
:10580000000C990B1817190621F00E945C141093D4
:10581000E203E091E20321E1E202F0011124EA5FF8
:10582000FD4F85E08E9DD0018F9DB00D1124AF52AC
:10583000BB4F8D919C9111979287818713968D9183
:105840009C9190934605809345058085D8120AC0A7
:10585000CC2311F0C1E0CD278C2F73D83B9A43980D
:1058600036DF50C0C1E0F8CF65E974E184E795E028
:105870000E947A13813009F04AC00E947514809109
:105880003D05882391F150913C05952FE82FE1507B
:10589000FF0BBF0145E0292F30E026173707BCF486
:1058A000429FD001439FB00D1124AF52BB4F2F5FD9
:1058B0003F4F429FF001439FF00D1124EF52FB4FE9
:1058C000242F01900D922A95E1F79F5FE4CF9FEF7F
:1058D000980F90933D05992329F0591718F082509D
:1058E00080933C0581E0809397040E940C20809176
:1058F0003C059BEA899F812D1124869580930A019E
:105900000E942C21CDB7DEB7E7E00C94D63865E9CC
:1059100074E188E695E00E947A13813099F70E943D
:1059200075149ECFA6E0B0E0E8E9FCE20C94BB3829
:1059300090913B05992331F010925E052696E6E0A2
:105940000C94D738182F0E945C1411110BC02091B1
:10595000490530914A058091390590913A052817FB
:10596000390751F36BEE90E080E00E94113862E459
:1059700081E090E00E94113880913705811102C0CA
:105980008091A50689838091E2038A8380912D010D
:105990008B8380914505909146059D838C838091F2
:1059A00008018E8346E050E06AE070E0CE01019687
:1059B0000E94023880913B05811139C0112359F1B1
:1059C00010E080913B05811102C0812F1CDE1F5F1A
:1059D0001C31B9F78EE2E82E81E0F82E00EB10E0E2
:1059E000F7016481C8010E941138F8E0EF0EF11C44
:1059F0000F5F1F4F0B3C110599F780913B058111FB
:105A000008C046E050E065ED70E086E795E00E9452
:105A1000023834DE03C08091E203F5DD8091490550
:105A200090914A0590933A058093390587CF1123C9
:105A3000A9F3D0CF0F931F93CF93DF9383E591E02A
:105A40000E94FA378531C0F480933D05C0E005EE31
:105A500010E0D5E080913D05C817A8F4CD9FC001A6
:105A6000112445E050E0B8018F529B4F0E94EA3765
:105A70000B5F1F4FCF5FEECF10923D0580913B052E
:105A8000811101C0FBDDDF91CF911F910F9108952E
:105A9000A4E0B0E0EEE4FDE20C94B538282FF62E39
:105AA00080915705882309F4E0C080910B01982F5D
:105AB000990F990F891B880F8A5F820F66E00E94F9
:105AC0002338492F50E05595479564E4B62E90FF52
:105AD000B12C11E0140F110FC22ED12CF60153E09E
