:020000040000FA
:100000000C94CC110C9453310C942C310C94F411AD
:100010000C94F4110C94F4110C94F4110C94F4114C
:100020000C94F4110C94F4110C94F4110C94F4113C
:100030000C94F4110C94F4110C94F4110C94F4112C
:100040000C94E2300C94F4110C94F4110C94F4110F
:100050000C94F4110C94F4110C94F4110C94F4110C
:100060000C94F4110C94F411534156454400202093
:10007000200031206B487A200035206B487A200020
:1000800039206B487A20003130206B487A003530B7
:10009000206B487A003130306B487A0031204D486F
:1000A0007A2000313020487A2000323520487A20EA
:1000B00000353020487A200031303020487A003531
:1000C000303020487A0031206B487A200035206B90
:1000D000487A200039206B487A20003130206B4864
:1000E0007A00535445503A20005058606870081800
:1000F0002030384048000810283840302E35206B1A
:10010000487A00312E30206B487A00312E32206B35
:10011000487A00312E38206B487A00322E30206B1E
:10012000487A00322E32206B487A00322E35206B0E
:10013000487A00332E30206B487A00342E30206B02
:10014000487A00362E30206B487A00204155544FB3
:10015000202000313130206B487A003834206B4841
:100160007A20003630206B487A20003430206B48EB
:100170007A20000020202020200044454C3A42579D
:10018000204641564F524954455300454D5054590D
:10019000204C495354000000020100000000000000
:1001A000030000000700020100000201000001003E
:1001B000090000000500010100000100010002012A
:1001C000000000000000000041555400204F4E0088
:1001D0004F46460020353000203735006B487A0006
:1001E0004D487A0052535300534E52003130300084
:1001F0003530250031306D0031356D0033306D0004
:1002000036306D0020413200204131002020202076
:10021000202053455454494E47532020202000F4B9
:10022000015802BC022003000080007301760178AF
:10023000017A017C017F0181018401860188018AA4
:10024000018C018E01900192019401510268028A91
:10025000029502F502650368039303AE03B103B48C
:1002600003D903E203E703EA03EC03EF03F203F528
:1002700003F703FB03FE03100427042D04320434A8
:1002800004360439043C0440044304450449044B47
:10029000044E0450040003740BD484606FAE6CF9F8
:1002A000BB84A265B14BF672011A21E85AD8D60474
:1002B000735E2C226EC4E9B58B819A1EE487C99EB9
:1002C0007B17526DADE3E58B04A72E996A32AA998C
:1002D00097CCA65B157956480163B1DF54270657C2
:1002E00006538CA627AA66890318517EFB67D3CED6
:1002F000DD3FFD3D1F478401F3856EF83B792B0CF4
:10030000904B67467D5488FDD612E5E748F20EDB38
:10031000994D71A54068D9C95939E475201CE9B1D6
:10032000F5013C19BB60F7FA6B1E689F19B6ED1416
:100330000F56BCC134CB009D43D40FF3629C9DF794
:100340008B9D533A8D2F3DDE3D3831039BC7C159FC
:10035000E9D175888D365886704E5B9ED0DBCBF721
:10036000EA1FDBA53BB3BD6BBCF37065D5170F640B
:10037000152420D5B87B0D272985881F5822574F73
:1003800009C04DD6E4C6B53A373327BB6A146903B2
:100390001BEDA8C343E8EADE410625C5C83CBF32D1
:1003A000B2A7DD22C2E9CA84F2C0267C7801F7D563
:1003B000C60533E4C278EC1BFDD2507D1129579954
:1003C000B0F1556674B45823A06F2ED89B08B33E85
:1003D00053CF5ECC7ADF4EED42166A9188431B1DE7
:1003E000845C52216658243671C56A0D2C869A2386
:1003F0009DE03543C97F41BD8299ED7A26B2D3A6EF
:10040000CE4F00E687E3D7682886F7CED2B3D31B5A
:100410000402B978B3ADE03C53A68A4A22BE1FCE8F
:10042000B176F22F81A8C17872B0156519E332A7B1
:100430004D0CD300B9C327BE744DD1E10C36DD237A
:10044000FBA722D344CAB3081BB40D4BDF1AA690F6
:1004500032925C1AA7CD852E351172F821357D3F79
:10046000DB298D30B34F451477CF992FA39081B0FE
:10047000AEE845E63AA9A262B7DBBE2539A5FCEA9B
:10048000C5BC3AEC90AEA6FB12AAC76222AFA98403
:10049000B964B8FB8DC11CC3D0876D5CB4FE3FA4AA
:1004A000B8D889F40159BB04A543441ACB4130F7AD
:1004B0005B9AEE28F44C7199CA4B7F2A13F04B5487
:1004C000B3FC90EDBE483FF15E0DA1BB1E59161561
:1004D000F04B504C96861BA9CCC2694E1003F0E934
:1004E00053E5E2BB45E28DAE407108864D08F496B7
:1004F00090585340A58B5B3CAD47B5D7E26A137863
:10050000D4DCC9EC0E93F0C01D953676A45385C992
:10051000ACE4718DAF6861209DFF45356E04D8272E
:1005200032C3DAEEA26604B72106527F398FFDEEA0
:100530009074B64FB6240E1248F0B230F2A54C912A
:1005400052E3C6487B3896239ED71B95153AC98B34
:100550006F637D1DC9EA96E601D785C0EA3DCAD31F
:10056000B7FB07543A00313D74E4125BA238335BA9
:10057000BF1DDC4EE8851077ABEA6579B0AA306123
:10058000C6F63BCC95FC837F8C7BB55205EBF721FF
:10059000DE89B66DEE317713AA935596086E1C82EC
:1005A000B57E95B994DD68425C3A00C37B6F606AA2
:1005B0002C07D76C82FBB2812569D6720AD2E8502B
:1005C0000588491B6372996CE37AAEB01B9ED425F3
:1005D00054258A901797DF39B87CEAF082DD25D25E
:1005E000ADE7F6362384A9C96A53F4822C1DEA06C6
:1005F000C64F705437802A6B63DBCC86E68C7F272E
:100600008C7254739E1BD64CFA058280D7B7119812
:10061000000000000000069869151CFC86877484A1
:100620005BD40FDBD727C54AB28F297A4A230AB891
:1006300007D03470818E53EF43163FA8A79E5A7798
:10064000C091B789155248C0B762ABE1746410AA73
:10065000096B9774217935A19725FC78C1EC6E87D9
:100660007740871A74828156DDEC37ADAF0331AC29
:10067000478574C02A459DF4120CF986B04A16D8F5
:10068000116C46C44A67988B1B42C2BEBB0E48849D
:10069000F708A6C38F8E8DABC29B5D5C6028578F19
:1006A0000EAD2EC15E95299AF48A27D441BB4AAC7F
:1006B0005DB29326FD87813F2735A6422C1538ADC4
:1006C000F8026F94DA08EE19D890FA89C3AD89FE62
:1006D000C60246811D0C8D782FEED3ED6C7B9549BB
:1006E0005687F4E263DA39CE681618ED98EE86F391
:1006F000B3C1121A519B571D199E987ED2FD3D2BF6
:1007000059154674577914817189D922DD9210D90F
:100710008991DF67006E53AFDAB528301E47E6B720
:10072000052D22CF7F6ACD88906B8C16368807A165
:10073000B7AFF331C4DB768B969EF017A73F847872
:1007400091A8CD3F8FA5DD5214F9395D0B568E1C53
:100750005A5B89EE809E33BDB145154234597820ED
:10076000FC2DDBC92E0F3526CF239B3E1D9F0F2668
:100770000EB7B54EACA286D5DA36045A73466A88EF
:10078000C52AA083E88B5F3CAF6A444E759B8F936C
:10079000373538BD029A1D8429642597E07C2AB636
:1007A000CBC166513CBC3BF3552BB7BD81ECF34943
:1007B000D5F803E0BDC60CEEC01908FB4F8C9408B9
:1007C0000EA53037F0B818937300BB5252B4980D91
:1007D0004B45B9890A34E91C245A8FA89DC2D927F0
:1007E000A9EEBFC08090BC2A9343FB0AB396D1AE5A
:1007F00013410168B92C53537C00A58441D69888D5
:1008000098FEDEF7E23743620E9383EE030A8DCA49
:100810008759366F61F7F4D6AB8B0F9C8396A46C27
:100820004643806BEA50DCD8CED4F4AE5BC60143BD
:1008300085718D0C395EE43B2BC488B2C554960E8D
:10084000879A5093D69C91CA09648B23C429441A71
:1008500067E1DAC71B2517022C8F2A133ACFD6651A
:10086000312B10F5B596DF01997BADD6B4C035A319
:1008700048E3B09EFE33101A09AE3C0AA1728F0005
:1008800051E17823F5E2BFA64628B34B24B1A1DE9F
:10089000B1C4486FED5AD461F0DBE1085C64C0CAB2
:1008A000E9A9DEDEECC0685B6DBD43828CCA69B12C
:1008B000A9C8710D5D6DA5AB1A6794EE0593E33F72
:1008C000E81AE60F7F79F2CBC53757DFFC4FB460EB
:1008D000C7973C61B00C4664F44392D2A5F0F3B7DD
:1008E000DFAB20B1F5302AB3DC4B39B7853E1E1B98
:1008F000948C26288045D60136D0EC934688D3D5F3
:10090000895D7A82213EC240E3B4DEF5A569D569EE
:10091000495C89CDAE137070ED690CECC6FE75EBC9
:100920004ED6B3C860FB341EF86492D929A8133898
:100930003D79C4BF21379DE34F21E53F2C5C5F41EA
:10094000FF148791E082040B1E5553DC5640A435FA
:1009500078E29B49222E09CD1F6F9483EEEA8BC467
:10096000C210E080D9A55F53349C8CEA95648794CB
:10097000D6321CEB93BFE35583C2F6FCC885B29414
:100980005C425F6B8E3B9779747EE35CC2631A2294
:10099000B17F94CBE7B7FF0E3795AF10531788128E
:1009A00072DDCBAB4B6B6824ACC95C72094FF1FBB9
:1009B0001DE7A230E9204BDA707C9EE234EB6A3509
:1009C000C233D79D07B1EFF675F5FDADC74BD0B774
:1009D000DDAE1E8D1EC0399CA71CC5CC3950C66B20
:1009E000C6DA37C7E120EB74A53DC008FAC2DFF2D2
:1009F0009E432BF07750498CC32F68F32A9B831AB0
:100A0000DC05D8B77C3C611176EC2DFE8608871595
:100A1000A3C01CB46A8D9EBF9AD5C85B051810157B
:100A2000FBC63CEEC5524B313607B94C81EA83D741
:100A300082FEFC43594E20BDD365CF1F5C711FBFA2
:100A400026EC44EB0174823C8E60DF479031177EC8
:100A500016C0EC1EC33A7A5921A29B8E8725D3FE7D
:100A600085DD6DE6D8CA74BADB4230963D862286B3
:100A70006FDE371A932F032EE16E1662C1E12DFE51
:100A8000CBA8DF6405EF23BC71617B1B602227BD0F
:100A9000C6A37207AA09B052F219154DBEAF263B84
:100AA0004D62A63C41077A34253CD6CDB6554787E2
:100AB0001ECBCFCED20D95C0D872A6E033242651DE
:100AC0007E71C7533FD4677352CB785A00111571AA
:100AD0005F8D3CCF40CDD97430D9A13FC658BCBE44
:100AE0007818319A3960BB8D7B3495A5F1543BB9A8
:100AF0008599AFC445EB64A76E5960EB1E7AFBFD88
:100B0000924323F127AC661266288A5CF6C63F76CC
:100B100004E80927ED05AA26E5B4AD40BAF7F48448
:100B2000CB7F07108DB6C7D477EABA962A98F056CD
:100B3000D7FF504D59793D41E0FAA99D3EA6D9799C
:100B4000C80DD156C5ADD7FB703CBDF3E95D1C5354
:100B500093331DF81BEE9FB750AC8F485961C98580
:100B60009EC8B0D27439DF33F528E06311A7C405FD
:100B7000BD3AD934CAF9AAE200E6E638573EEC1984
:100B80007C0D2745C552C4FFF469C5F573734FE367
:100B900007C7CF38235B9C99A26A72B03539C10A66
:100BA000C71C1A3060181D2BF0C8F179A394E336E6
:100BB000359369059107126044FDB6C6FFE0CFA2E8
:100BC000CFC2A358AC32E32EEC0D9D1BFB0540BAFF
:100BD000678ECB38D7609CFE9EA170CC40728C8C07
:100BE000507185DD84925CEE44B6E0801532DD1BE9
:100BF0004B8C6E8E3997A5AFC6F42985D385938526
:100C0000C854E4591D4EA0FEC507C1F73252F94D34
:100C10004585FCA0FA37B59D47E852238D9287435E
:100C2000B4B84F951B1E4FE545BFCEC80CB27DE74B
:100C3000D92E88B72A61E12DC4212EB84DFD218718
:100C4000302511EC1F299431D292853817DA634D83
:100C50008CB4065564B76CFCC28D5D978609D3438E
:100C600069E83577CCAF91363C7CA36E4E4AA2C979
:100C70004150EAABDF8704704F16F5A038F56016D7
:100C8000CD0CE5C7E3AD00126B12853C5C7F76EDC1
:100C900049F29D8FDFABE1DD8701ED2C1B4B551138
:100CA0007FC392D391C1D8A737C7E55B482BED31FD
:100CB000DECEFB95000000000000000008E3518438
:100CC000000B4D2673118B1EE20000000000000097
:100CD00000040473E072FFE659C90000000000043C
:100CE00048BFABF399877C07000000000004FB338A
:100CF000B163616112AD000000000008AA30AC17BA
:100D00004D3086BF6713F1A700000000000000000F
:100D1000041B48422384BB7FB4000000000008A6E7
:100D20009F43785CA14E8BA6E67C49000000000042
:100D300000000001F7315D273000000000000000D6
:100D400000010B570B79F7000000000000000002C3
:100D50004433BBB45BC70000000000000001ABE3FC
:100D600001C2D20000000000000000017A079EAD21
:100D700084000000000000000002F1EEF7D82950C6
:100D800000000000000000012C35543ACC000000A7
:100D9000000000000001C93D666A980000000000E4
:100DA000000005247AF71C2440EBA24DC266C83728
:100DB0002C030FF301066D9A42F0948FEDBFE328E8
:100DC0003B72693775B4A09A6E31FD665BCBF3BA9E
:100DD0008CA431FFBA7C2454D3C6638993E4EDDA42
:100DE00058474EB58FD793FDAF31EAB4ECC9057DB6
:100DF0002B1596C1007E80E6F747CD6A77F10E5934
:100E000013AA5C838870DCC4525220B6692D6C6CC6
:100E10008B662ACD5A4130D6FB7BA0EC7A22887CA7
:100E2000716EAF6206F4A8C688857636C5C0D867ED
:100E3000967CE84DD4FBA96F0FB2A7A3196A30FDC9
:100E40006FFC2BCEA41B8E574851C6980FE5087B2C
:100E50004DFC59DDCF131B310C5E3B98E1F4C341CF
:100E6000D7A2645E16F9EBAE20E95D54BD99D3A715
:100E7000C1D9E53222D69F4FDD6B3C6DE94D9652CC
:100E800011DA2386BE01C451C29CC6F52F1FD0F1D2
:100E9000F55782FECBFB4ADF1D0046B8A73A5666DF
:100EA00008714E47F827265F6CD8C305990A758FDD
:100EB0004FC18872A05A1308A382842ECEB5A346D0
:100EC00005D66A7856442386F2C963088BBDEE5670
:100ED000D4361F375318E7DA1CFAD005D55FE7B7C9
:100EE000AD362BCB06C053F432A8756FE3C9A1B061
:100EF000A6E6C2410F5D2E0A64504692495B2D0062
:100F00002EB5213F0B4A719688844C98AA2823EB72
:100F1000EF455C6278D6E4FB6DC3D9356CB92AC65F
:100F20007471C40C657CA3F96E2DB986B00463940A
:100F3000CF267D9E1EF799DAE08CDD86F3C8F1C6D8
:100F40004E155DED34BB90CDD626091EF623845197
:100F5000C1AE428F8496C957AE16363A298765B21C
:100F6000BA5696D2F509EF304A0F6236FE0030BD10
:100F7000091B50C33C48D725E18EB26F4D752DAD8E
:100F8000C61EBAFA4F41AF7A6FA0A04FB688346937
:100F90008A9E837A60F3A87E392A209C325E7DC4C3
:100FA000AA97E6263542A1A0EF39B31C2763D27F6A
:100FB00075C01EB4FA4D7A818139E0792F94A52845
:100FC0003A437E97B594AF2A10380A7F4991C06C96
:100FD000659AC6C95DD552469874AC93E421B0EBCE
:100FE00008FAF4412EA6F9C5EDE33798C5DF528221
:100FF00041A2F2561AF3A4C6408DB95FAA751E1518
:101000001E68782B2BF43EC7CBF31360E0F4857990
:10101000880C227587B751E0D6E3A092D3D7E36C52
:101020005B3EB780E748D6D92F49CC75A004C948A4
:1010300088E9CC3241AF30DEC6BC9DF7FCFF6903C6
:101040005058A1D6B87B5E60FCCC0014AF3A30415A
:10105000B34E634795E4BD5374D0F002B4FE481913
:101060006C3F23F79B4411F2C245A637776C10639F
:101070000E1BA7D196CA0D4F5B4351D614B723E779
:1010800099A49F4C7DD7DD0811844D5CE9609004E4
:101090008B1490F06F26450F208CE36F4678EB128F
:1010A000B45EF0DEEB222762784293BCE848C08849
:1010B000BD0FDE232BD1880AE2B4338E613643584C
:1010C00042AE6BD7F2FE0AC126947ACE8C3B435ACD
:1010D00062EF708AFE4DD237DBA1B1061B30174C90
:1010E000A0241EBECB64E2CE135CD705A6763938A9
:1010F000F3852C160EB3E23DFF79880B93EFAD55C7
:10110000CDB4EF8FB8167A05C05E920F4F9858D4C1
:1011100022AD4325317852C69ACA5EA64E79979A77
:10112000BBDF6DF1E2D0B3CA2A5C46825C1EDDD023
:10113000C519892B2CBDC084D9333967E4E47926DD
:10114000B69D1C1DE470A5A76189254A57337D0D06
:10115000CAF3CC22AAD7D9CBE6B29646159568D861
:101160000FDF6B36DA198216CE384ECFF236C880D2
:10117000075388042FB214195DC56CEF959C608BE2
:101180006AE4FC9DB29CED1D9C1BCAA326DD9C63FA
:101190005B3B882BBA2235240148EEA04F6E964E59
:1011A0002991AAAF5647BD7BDDA15599D8B5A14776
:1011B000937BCD7BCF65DE5018F20549F199D89429
:1011C000213F7D52C6B1B4E19FF07E60648B30E474
:1011D000AD2C97FB47F70901047BF4F7A7A804A5FA
:1011E0007F0858796D26276AD0D9AFC1C71223E18D
:1011F000AE98A40FBC1BFA9D910B1515A524531A8C
:1012000013E0C30095389C364CCFF6A9BCC15306F9
:1012100004F46FBF57E0A614A649707F392A4A5AD2
:10122000593633B90D4725393704777C45AC1993C6
:101230002549E07A7BA2C695768D3C79B1A7C38318
:1012400063032347D7ACFB84166F22490B97AAD5BB
:1012500038575E2BBBA749EDD2D57A96BE8DF5F9EE
:101260004656F52FA7A87AFF3FE7E88CF148E846F5
:10127000CB4D25F935932FCE8BB8A9C5D3D2277185
:10128000866F72D9CA4E90D36DB13CD3CBC9303A78
:1012900026459D66445C5FD8E3907C1BD882DDD3F5
:1012A00084D4C61B58BF02A53B100A3EE309940B29
:1012B00099882B47A79089C4482536DB7231ACF555
:1012C000A30115D0E62161EB5972DC94000098F778
:1012D000B0F9FAC10A7EDC69CE905E82110B97E20A
:1012E0009955A23DFAEB88BC4DC2548D5FDEA3E256
:1012F00048132046C5A08104C42B9A8415B89E9B30
:1013000062A1EC7D083CAD214B89FCC6967C3A413C
:10131000358A13BD1B43BF367A4ECE709E2AF639EE
:1013200033C7334B347D2A81FA252EC5C4A1280E3C
:10133000D54D15E069127119AAFF5948815653C954
:1013400035124D84699136D8ADF754D58CF9C684E1
:10135000126222F1B92B1DA57C567A4D5AC4F09D1C
:101360008F5DB59A7FE7B7A85D6D3700000000E498
:10137000F2EA7A73F8FC6717F3D960090E8B0FE273
:10138000F98361DF5369D0EE4251B5514864F8DD0D
:101390003EEEA747F07C4BBB2B8EE28B6057634B36
:1013A0009BAA6763EAA3D57C4341A95474D286C340
:1013B000114269C5093E8F94AFC599BBBBAC61644E
:1013C0006101F2D359B1415091166CCC9BEC5CFE9B
:1013D0003BB3EC6ED7F10E5A8A5F1DB0C57654262A
:1013E00007BC66F0ED519A1FE8F751588E1E8099A0
:1013F0001FEED643CCFA2FAE80F2A8A8AE437C8075
:1014000076D41AD4737461DFBF296F5615930758C9
:1014100092F11DE87B68B2542030012DC5D8FD61E2
:1014200050140F584C1A5400127E46990C9DD1A3AB
:1014300004F18217FEFC12E57581AFFF3D08D53936
:10144000874A8EF07AD4D0D6CFA9D6594841C268FF
:10145000E3A435458D141AC4000000000044892C13
:1014600063C8AF7BAC354327BE7ECF56403DA5ACAD
:101470000F97CCD46ED031D7146045AEDF0AAA33B3
:10148000B388E01C26DC00B875C86711A1B5877168
:10149000F94A6AEC3F0E4121C24F928F1753EED5A5
:1014A000EA4F917502590000000294E4DA4AB3AAA7
:1014B000A72E9CC780465EBD06331DD85D9F5F7713
:1014C000730A7D386BA70E8F4E7D01DA4474D2F11A
:1014D0007A2F7FE1ECF1A57D033B2F17B6E80D33A2
:1014E0003C2191915B302C11C6586AE4351BB5A89C
:1014F00047B3FFD0960E484E9737601204FFCBA536
:10150000F51D409CDF36123DD92A72DAE88BE45B88
:10151000CFE93852EC2CA0F779AD207059206273D6
:101520009CE34609C912D47755074B6A261E5D070E
:1015300078104E4ADA5EF63B9B8DFD48D0BBAA215F
:101540002EF5DF854CA71D1A261BA082867F4B0235
:10155000D2F660C9860C1DBF736986184B44BC74F3
:10156000E5821793B50A5608B74A73B804D2142116
:101570005E2CA0E0C2015FDECE642AD8652BF07439
:10158000E354BFA09B50BA02002C95CE2A4FCF2B1C
:101590002B0E9BDD8F675B54A1472E842E24FA34DB
:1015A000E05A103BCFAFE2ED28D1176B9A1B496C84
:1015B000FCCB7A74092A415AFFA1F598C60CD2696E
:1015C00083D2C369875E7EBBFCC0D1C117D79BE1C4
:1015D0005370B743D038252649405B57BA4932AAE1
:1015E0009F39AA8E73008513796DF1912F9EA3A068
:1015F000657C7D53B47053016B925F38F1D73D7AAF
:10160000D607727ADBA165A50741004BEBC5D03B3D
:10161000EB3061420D4BA3D8078B12F5893D7CFB63
:101620002E79A7BCD5BF729AD81539AD2570D16C6B
:10163000B05DBBF43AF66056FAF2A528AE0D76B36B
:1016400079F14BC72E6EB6616222D9A730234521AE
:10165000DE478CEBE54C8B4E79A09D95B305AAAF88
:10166000ECE67473F0DC37AD933B206DA1D8CFF975
:101670007E9EC6BB406456A6187528D2BA78645CB4
:10168000484570358C499A454A6DF29C8D480A61EF
:101690002EE3D4EEA829404B53BB5639CE816CFDC6
:1016A00037A0791CC794176C37EA97F4D8D49F9F5A
:1016B000304FE5A408B86BAEB9BC4F612044DF924F
:1016C000DB1E0483C0A12C09D8DF21F0200480AFE9
:1016D0007391BC0EBAE4F79B363C30F1B4BADCFA35
:1016E00065F22B1D184E1662D4AC8B21A5A2F132E7
:1016F000C3C965632D316BB88FE12493870499E6E4
:10170000BDBA283063DAACC799378A8666B344D548
:1017100084AAA15342A0381E5DF70529E7CA2A0B07
:101720006AABCEF03AF390E6D125A1331C33997D14
:1017300024D17423FC6F7DDBA7E9C2DE17122D1CB8
:10174000B37E880000000000000308757D9A4937C9
:10175000AF60047CBCD31C53703497EBE1CD30797F
:10176000A28694585A99C269D7B232626C0A366915
:10177000B1354841CE79967A0D2D33BF4D2FB8D86B
:10178000B3FBE47193B9180D51ABBB09D90DD76701
:101790001E4728C7F7CE605828235E95FC2BDBF93F
:1017A0000D1FAB49E6D0A7377920E4CF05E36421CC
:1017B000ACDFB1E8F9E04C3B5E89682A48C5640EAD
:1017C000DBF1538B1A2FF60C189C529B212E4AE703
:1017D000D6BBB71A0A22AB4AFDD3027D21FFB90E50
:1017E0000F29ABACF4445E0FD5F357E54F61724E51
:1017F000BA55378F9A1CD4B830AF0A951A1386D4CD
:101800000A835C991B2BC093F513F5EAFB6F757483
:101810006C2E77C344C53862B9F5AC58B4966EA443
:10182000A545B51B7C9D219516EE29572012BBF8C6
:101830000A2325AC51FD7AE09D43B0276F2ADF04CF
:1018400008D3F11D3C128DAFF2D7B9029D46E3AB30
:10185000FF61C8612B19C8C1A16D0AA744FAB5A8D8
:10186000D71E53156F7A4841E930B5ADE2F07040AC
:101870006AF331DD1950E5BCB43D839FDFC82527ED
:1018800090405B32044781FA53B40A40157A745B86
:10189000DB24AB3AB791E344B747073990D2F5A9B7
:1018A000084658DC3210A347320445441371AC2E6D
:1018B000A7C971D0F9517ECAE509A81E775B3A081D
:1018C000AA431CD68D6091466D64569E162ECEB3EB
:1018D00099C8F655271384BC8AB3C8F51A72F76AFB
:1018E0000C46952F4A86B6D29894F1C3370E0C87D2
:1018F00011567EAFDA22296FEBFAEC96E0276B42A5
:10190000A170091AAD4888DAFCE13B62952856704F
:101910002803B258678D0AEA9A1595515F83070923
:1019200020BF37AFF70A743CA552F1E3F55830E118
:1019300017DE98F1387BF0AFBD165952996C747070
:10194000487714FF534184BCC5372F71843DF54659
:101950007C63E000A05607F78C6357BE545CE1FD42
:10196000AC35FAC2D5F25ABE7C318EBDDBFE4D03DA
:101970006F5EA61F232DCA68F0C614CCC33EF021AB
:10198000D4402A72B67EE285D68AFB48512777E496
:10199000CBCD2FF6E1BCFEEDA1145FE532FCCFD933
:1019A000FB2FE9AD7D2D68E79A15956A4AE4ABE413
:1019B000EBE00D40BDEF8FB975B439086DC09F04E1
:1019C000FFCCDE13304EB6E4E0CB69E5C61C2F43F6
:1019D0006A632572D5DFBDDC0BE9089D3D266FC328
:1019E00089F818AC42BF4E9D5D28B0264136768DF1
:1019F0008684FAD8D467581969202D35FE09D98C08
:101A0000FDF921A157DF17AE8ECBC97F2654DE101A
:101A10004372DDBC18B934F9AB70F9744D8E6D2A80
:101A2000331406D071E6ADAABE862E9A8D8788AF94
:101A3000039FCBF8789A663809CDAE89C2CCAF6ADD
:101A400016140948AE9B55E40FA586A1757F7CEF5F
:101A50000DCB3AB30D1F020000000C801FB4F4E060
:101A6000A641CC8700406143E7FCB400000001249C
:101A7000CA4534253C39FF098C39855A5BCC273C53
:101A8000BD28438645179A4E3524A423A2FDCA6C6F
:101A9000D4FBBAE741B3FB7C5507B56E3EB1297262
:101AA000CC38EA273080B98CB8EE54AB3EDBDD068B
:101AB000D095EA3E42886BAE89C7E84C38B693F6BB
:101AC000BE4C204A8CCE2B22D272494618568070CA
:101AD000675AFAC0CA6D5321CAE3866891D37CA9BC
:101AE000D5AD6A72A1FE53E94085EA62A963753AF1
:101AF0002DEC9BFE58D873205210435C2DB421B9B5
:101B0000961F726DBA42EAF285BE5212A7B13E2B01
:101B100089EF0F73057C99C3C55F9653F8AF9B7A25
:101B200049A044546055F0103A608D905065AEF76E
:101B300079DB2E08F9BBF2D278D086B594A10EB924
:101B40008189B7F9C043E88F3819DAED2FA75CDB3C
:101B500001B338CEE6C3F2D5AA879E116FD805F03F
:101B600072ABD9A10FFF46E94A8C0093E9866F6BEF
:101B70001470BEB1B889C9CC7D1A11D279FBD9D7FE
:101B80002413948F019C4B69336601829888F84C2A
:101B900013310F58C106113000000000B489913490
:101BA0009B89FC75CD11CA1A6FFA71D645E70FEB08
:101BB0003909B35A131FAA3A93CF8D6ECAEC2C8EF3
:101BC000C5831B5AD6D189AC024FCB0F257696E040
:101BD0005D2CFFA7EAEA92F1725BEE08D8848AA92D
:101BE00059E31277DAD6CA4E362D7CA413D1E81801
:101BF000319902540AD07A74A0AD2C834A6FF1B1A6
:101C0000501B6469E8842F2CC8EB953DA518C74B81
:101C100082FC88E1D37B0EBE10BA6502859B469A92
:101C2000377A774DC2C45330679154F63D394443F7
:101C300042132E0929FD50A6DA94CE8697102B5C0C
:101C40001C09CD0FFC15DC543B53E17CA7E1FD479B
:101C5000C2AF7EEA34000000000C6FE65C04306C1A
:101C600084C751E3B55F349EDD05000000000C1C05
:101C7000D4BCFBCD3AAEBC529254852CED0FFB0088
:101C8000000000F873105DD81F06E0A15926B43992
:101C90003FC119F9D4BE4FF433EC3F3FFE8F91D0D2
:101CA00044F21278909E79A927EE05CB9F5A4B15E6
:101CB000DE6739181FE73A0A4198E7DEA728A0D364
:101CC00054663379B53A83375F25407047B8796BEE
:101CD00062963F48EA9F6ECB35E16F2DC4C24B9BA5
:101CE000A74D05790E1CFE095A9F87227A131B9F68
:101CF000994D05DB1573D865FE395EA4437B6C797D
:101D0000BD73914C9B4C941887EA68A7449F5C363E
:101D100066FD41145EB18EEB45DA770EE0EC5EF4C1
:101D20000DBF41C648F015D860F74076237B1CE50F
:101D300059445030CE064EC5A670C31817A237AC12
:101D4000BF2C6FBC9B3F58121110390018DB7D0B64
:101D5000D22CEE0AAF76947AC15C21D2619F1D7AB3
:101D60009695DFA45181E61BD57C3644F060FF3A9E
:101D7000F632EC8FE09AC7E3BCADEBA694714B6DE5
:101D800000000000000038974C36A275FFFB3FEBC7
:101D900060E131B1BC32776CBD49934BC207BAF0F8
:101DA00067FD68CAF5A4FF2A5EE2BEB569B2A0630A
:101DB000931BB4BD4612FAEE885F46DFB2BAE8BAAA
:101DC0005447EA000018FA0891779B1C878B017032
:101DD0009EC0052BAAD7AF30A8018B28A0F59599F6
:101DE000325F00000000000008C4EF65453CC36D91
:101DF000EFB8349D1C00000000000000000466865F
:101E0000F2BC9D8797BE000000000008DD58DD533E
:101E10000F7DEC930BB95BE30000000000000000B5
:101E2000087615DFC7682FA8F84D338FAE00000085
:101E300000000000000884C3E8CB9C718009D71122
:101E400063210000000000000000040EC6F0509E58
:101E50000AA7990000000000149A5AF9AA5F06DF49
:101E60005C52374B390C7E18C1ABD636F578BD9F26
:101E7000790000000EF233610EC30B5A24023F4278
:101E8000353DA4ADC53050000076E7E3450866183F
:101E900021EBDD1476F8F155E83B9D8B9392FFA77B
:101EA000803438C2AD7CFFBD232B0B2C5FEAC0957C
:101EB00000FB8C376B8A42913EEFD65143216F80F5
:101EC0003EBDF2B32407A5924A76513172354725BB
:101ED000E7B9D0F4C2DD52353A23C416FA2A8D99F7
:101EE000D0B953C2125C3FCE8DDBD1C8D159E58841
:101EF000FF4911ABAB7BD1F2B43749A0B1FEFE6C08
:101F000008761D0B0000009AF4B16DA0F220E417D2
:101F1000A74D85B38E7ACB8730AF119020A819EAF0
:101F20002207FAC14CE8FCA2038F2AC536E4AF664B
:101F30009BBA0ADD6590DAD72762D9193BABF66602
:101F4000892DA53070E9AAE2D9C12347FD9A254A17
:101F50005F896297614B91FC341BFC97B27B87F4DD
:101F600054FCD63648C28779A3C48F42B13147DDCD
:101F7000E8D00A714722F3F49F287A700CBC5930DC
:101F8000E0E4132465BD4C0E6D9E4D15901972C989
:101F900028B6950E92F9795C64B9B97BD7DCB4B9EF
:101FA000B4967F7255AE00001EB0028E45BDF0A5FE
:101FB00090B7301240B6409CF16263726DF0BA1A6D
:101FC000F6F0406A47A2FC9BD870190000000000A0
:101FD00000001AF524F64D2F64FDF7C3FDA7455DFB
:101FE00094318FD69F5D216641D43951AF618C1EEB
:101FF0009F000000000611E97A8831E126B61C74C2
:1020000000000006F59835171AAB193A8CC6000087
:10201000000E7E14D06E441C666167F18E2872300B
:10202000D2BF7D6F000008179962EE7818543AD538
:102030007F61AC000000000000000010833E2C9285
:102040004F5A985997FB8297ADC873A26C0D06CF73
:10205000000000000000000A69DAEB9EF7677FDEEF
:10206000E8830B465A3F00000000000002B3607F87
:10207000DCA3FF00000000000000148ECFA26572F8
:10208000CE3E11392D9494478EC78C706B7C498E4F
:102090003CD74C00000002C877A5FDBA9A000000AA
:1020A000000000000A1A1BD94A8303DFE2756E287C
:1020B000D9631F000000000000021827278F4BE79C
:1020C00000000000000000000000A9020013FF0053
:1020D000011304000413BC7F0513BC7F0000000043
:1020E00001000000061A00000000000001000100CD
:1020F000011A0100021A0A00031AF87F041A0100EB
:10210000051A6400061A55000000000000191000AE
:10211000011918000219400003192C010419AA0022
:1021200000000000003900000000000000390C0031
:10213000013937000239400003392C010439AC0061
:102140000000000000187F3101187F1E04187F1B5B
:1021500005187F0E081800140918003CAED5808DB4
:10216000142001A1C8817FDB40A6AF4D4F44204E13
:102170004F20524453004154532D32302A205636BA
:102180002E332E3100454550524F4D205245534578
:1021900054000000580284030807100E00000000DD
:1021A0000000442A3C542200082A1C2A080008087F
:1021B00008080800006060000000402010080400CB
:1021C0003E4141413E0000427F4000004261514992
:1021D00046002141454B31001814127F100027455D
:1021E000454539003C4A4949300001710905030061
:1021F000364949493600064949291E00003636004D
:1022000000000041221408007C1211127C007F495A
:10221000494936003E41414122007F4141221C0094
:102220007F49494141007F09090101003E41594967
:1022300032007F0808087F0000417F4100002040F5
:10224000413F01007F08142241007F404040400090
:102250007F020C027F007F0408107F003E41414155
:102260003E007F09090906003E4151215E007F09B9
:102270001929460026494949320001017F01010020
:102280003F4040403F001F2040201F003F4038405B
:102290003F006314081463000708700807006151C9
:1022A0004945430000007F0000007F1028440000E3
:1022B0007C04180478004464544C440000FFFFFF81
:1022C000FF01FFFFFFFF02FFFF03040506070809E8
:1022D0000A0B0C0D0E0F10FFFFFF11FFFF1213145E
:1022E00015161718191A1B1C1D1E1F202122232426
:1022F00025262728292A2BFFFFFFFFFFFFFFFFFFCF
:10230000FFFFFFFFFFFFFF2DFF2EFFFFFFFFFFFF80
:10231000FFFFFFFFFFFF2FFF2CFFFF000000002447
:102320000027002A0000000000250028002B0004E0
:10233000040404040404040202020202020303036C
:102340000303030102040810204080010204081066
:102350002001020408102000000008000201000013
:10236000030407000000000000000001000C010C45
:10237000010F000C100F00011E0C0100100F0000D7
:10238000010F00010F0C01011E02013F065B4F66A9
:102390006D7D077F6F80A93111241FBECFEFD8E07C
:1023A000DEBFCDBF14E0A0E0B1E0EAE5F3E702C094
:1023B00005900D92A238B107D9F726E0A2E8B4E063
:1023C00001C01D92A03BB207E1F711E1CCECD1E1D5
:1023D00004C02197FE010E94A539CB3CD107C9F763
:1023E0000E9446320C94AB390C9400008093BB00E1
:1023F00084E88093BC008091BC0087FFFCCF809173
:10240000B900887F803231F481E080932D0481E02F
:1024100090E008958033D9F781E080932E04F7CFC0
:102420000E94F611089594EA9093BC009091BC002C
:1024300097FFFCCF90E0880F991F0E94101208951B
:1024400080912C04815080932C04882351F084ECDB
:102450008093BC008091BC0087FFFCCF8091BB00C3
:10246000089584E88093BC008091BC0087FFFCCF76
:1024700080912F04882321F084E98093BC00EECF63
:1024800084EA8093BC008091BC0087FFFCCFE6CF3C
:10249000CF93C62F21E020932F0460932C0424EACD
:1024A0002093BC002091BC0027FFFCCF880F991F10
:1024B0008E7F917081600E9410128C2FCF910895B1
:1024C000E62FF0E093E0F595E7959A95E1F724E0A3
:1024D000829FC0011124E80FF91FEB57FA4F677074
:1024E00021E030E001C0220F6A95EAF78081822B5B
:1024F0008083089590E0FC01E95AFC4D2491FC0191
:10250000ED5BFC4D3491FC01E15DFC4DE491EE236B
:10251000C9F0222339F0233001F1A8F4213019F158
:10252000223029F1F0E0EE0FFF1FEB5DFC4DA5918D
:10253000B4918FB7F894EC91611126C030953E2389
:102540003C938FBF08952730A9F02830C9F024307C
:1025500049F7809180008F7D03C0809180008F7744
:1025600080938000DFCF84B58F7784BDDBCF84B5C7
:102570008F7DFBCF8091B0008F778093B000D2CF5A
:102580008091B0008F7DF9CF3E2BDACFCF93DF93D0
:1025900090E0FC01ED5BFC4D2491815D9C4DFC01C4
:1025A00084918823D1F090E0880F991FFC01E55EAB
:1025B000FC4DA591B491FC01EB5DFC4DC591D4910E
:1025C000623071F49FB7F8943C91822F80958323F9
:1025D0008C93E8812E2B28839FBFDF91CF910895A4
:1025E0008FB7F894EC912E2B2C938FBFF6CF62E02F
:1025F00082E10E94C61262E083E10E94C61288E472
:102600008093B8001092B90008958E3008F08E5073
:102610008770806480937C0080917A0080648093CE
:102620007A0080917A0086FDFCCF809178009091AD
:10263000790008953FB7F8948091810590918205C3
:10264000A0918305B091840526B5A89B05C02F3FB6
:1026500019F00196A11DB11D3FBFBA2FA92F982FC8
:102660008827BC01CD01620F711D811D911D42E0C3
:10267000660F771F881F991F4A95D1F708958F928B
:102680009F92AF92BF92CF92DF92EF92FF926B0137
:102690007C010E941A134B015C01C114D104E104B6
:1026A000F104B9F00E941A13681979098A099B0983
:1026B000683E73408105910580F321E0C21AD1087C
:1026C000E108F10888EE880E83E0981EA11CB11C79
:1026D000E4CFFF90EF90DF90CF90BF90AF909F90AE
:1026E0008F900895CF93DF93C4E5D6E061E08881B1
:1026F0000E94C6126AE070E080E090E00E943F1302
:1027000060E088810E947A126AE070E080E090E0E8
:102710000E943F1361E088810E947A126AE070E0B3
:1027200080E090E00E943F13DF91CF9108952FB792
:10273000F89460917D0570917E0580917F05909160
:1027400080052FBF08950895B0E0A0E0EAEAF3E124
:102750000C9476396C017B018B01040F151FEB0182
:102760005E01AE18BF08C017D10759F06991D601B4
:10277000ED91FC910190F081E02DC6010995892B26
:1027800079F7C501CDB7DEB7EAE00C9492390F9323
:102790001F93CF93DF930BEA14E0EC01C457DF4F94
:1027A000C8010197F1F761E070E0888199810E948A
:1027B00048120E94201287FFF3CFDF91CF911F9123
:1027C0000F910895FF920F931F93CF93DF938C0186
:1027D000EB010E949713607F7370D801ED91FC911B
:1027E0009F012F703327AF01407F5370FF2EF69467
:1027F000F694B7E0BF15F8F089B190E00F2C02C055
:10280000959587950A94E2F781706417750708F427
:102810007C5FDB01A41BB50B2330310591F1E8F49B
:102820002130310549F110F1882309F469C0A03441
:10283000B10520F519C0AF2DB0E08DE08F1548F03F
:1028400083B190E0189702C095958795AA95E2F715
:10285000DBCF86B190E01E97F6CF25303105A1F190
:1028600060F126303105C9F180E010C08111FCCF44
:10287000AB0121E030E00AC0882399F130E020E08C
:10288000F3CF811131C0A034B14090F5EE27FC7F29
:10289000E22BF32B407F53704E2B5F2BD8014D93CF
:1028A0005C93882379F1209719F06F2DFE0109952B
:1028B000CDB7DEB7E5E00C94973981111EC0D097F3
:1028C00028F3AB0187E0E2CF24E030E08823F1F287
:1028D000AB0122E030E08BE0D9CF22E030E0811183
:1028E000D5CF23E030E0D2CFAB0126E030E0BCCF43
:1028F000AB0124E030E083E0C9CF25E030E0B4CF85
:10290000AB01C4CF2330310598F288E0D1CF0E94CB
:10291000131280E490E00E94101208950E94131296
:1029200090E080E00E9410120895A0E3B1E01496B8
:102930002C911497E7E6F5E020835C969C915C97D8
:10294000928354968C918483218393838583089505
:10295000F894E1E6F0E090E890838083789408951D
:10296000F89480912905811103C086B1809581700A
:1029700078940895E091D40381E1E802F0011124F4
:10298000E850FE4F8185928590933F0580933E05E8
:102990000895E091D40380913E0590913F0521E197
:1029A000E202F0011124E850FE4F248135818217A4
:1029B000930738F0268137812817390710F092875E
:1029C000818708959CEF960F923030F06A50623004
:1029D00018F0833009F481E0089589B199B1E0914C
:1029E0005205EF7086958695827092FB992790F933
:1029F000892B94E0E99FF0011124E05DFB4FE80F83
:102A0000F11D87FDFA95808180935205807369F0EE
:102A1000F894803159F08FEF9FEF909341058093A8
:102A2000400581E0809329057894089581E090E045
:102A3000F4CF98E0899FF0011124E05DFE4F94816E
:102A400081E0891B8483089580E10E94191508950F
:102A50008CE00E94191508958EE00E9419150895C2
:102A600081E00E94191508958DE00E94191580914A
:102A70009C010E94A81408958FE00E9419150895E2
:102A8000FC018081280F261714F440830895421713
:102A900014F02083089560830895282F44E060E0B7
:102AA0008CEB91E00E9440150895CF93DF93EC01E9
:102AB000462FE091D40381E1E802F0011124E850AF
:102AC000FE4FE485E95FF0E0EE0FFF1FE25FFE4F8F
:102AD0008081918168EE73E00E94FB38FB013097A2
:102AE00079F028813981C9010E94E738009741F0C7
:102AF000442311F02E0F3F1F281B390B39832883E5
:102B0000DF91CF9108950E94971328EE33E040E0C3
:102B100050E00E940F3930934E0520934D0581E01F
:102B200080934F0508950E94971310923B051092D1
:102B30003A05089580912F01882329F090912F0163
:102B400081E0943008F080E008950E949A1590E0AA
:102B500008958436910520F40A9758F481E0089589
:102B6000803127E2920738F4883E934030F483E0C6
:102B7000089582E0089585E0089584E008958F9295
:102B80009F92AF92BF92CF92DF92EF920F93CF932B
:102B9000DF93EC0131E0211101C030E0340FFE0180
:102BA000E30FF11D1082F0E0E0E0842F821B990B0F
:102BB0004C018AE0A82EB12CE417B8F4222341F08E
:102BC0008E169F0629F43150DE01A30FB11D0C9320
:102BD00031506E01C30ED11CCB01B5010E94E73804
:102BE000805DD6018C933196E7CF211101C0242F4F
:102BF00080E02150330BE82FF0E0E217F30744F4B4
:102C0000EC0FFD1F9081903319F4E0828F5FF3CFBA
:102C1000DF91CF910F91EF90DF90CF90BF90AF9069
:102C20009F908F900895089590E080E008958F928E
:102C30009F92AF92BF920F931F93CF93DF93CDB725
:102C4000DEB7A1970FB6F894DEBF0FBECDBF19A2B5
:102C5000423008F44AE08E010F5D1F4F842E912C04
:102C6000B12CA12CA50194010E940F39E62FB901C6
:102C7000CA01EA3044F5E05DD801EE938D01232BC3
:102C8000242B252B79F790E080E0109769F0FD0167
:102C900001900020E9F73197AF014A1B5B0BBD01A2
:102CA00080EA96E00E94A413A1960FB6F894DEBFC6
:102CB0000FBECDBFDF91CF911F910F91BF90AF900D
:102CC0009F908F900895E95CD7CF009771F0BC0179
:102CD000FC0101900020E9F73197AF01481B590B27
:102CE00080EA96E00E94A413089590E080E00895A1
:102CF00084E98093BC0080912D04882331F01092E8
:102D00002D0410922E0482E0089580912E048823D1
:102D100021F010922E0483E0089580E008958DEB59
:102D200095E00E94C713809149060E94131282E128
:102D300090E00E94101290E080E00E94101281E06A
:102D40000E94F61181E00E94F611809199060E947E
:102D5000F611809198060E94F6110E94781683E978
:102D600098E00197F1F7089587E00E9419150E94F5
:102D70009A15882351F08091990690916C0190FBEF
:102D800085F9809399060E948F160895E091D403E7
:102D900081E1E802F0011124E850FE4FE7850E2E94
:102DA000000CFF0B90917C0180919806992329F0EB
:102DB00020912F019150233051F4E959FB4F20818C
:102DC000222321F0245091E0223008F490E09295E3
:102DD000907F8F70892B809398060E948F1608959C
:102DE000282F42E060E08CE791E00E9440150E94AD
:102DF0009A1581110E94C6160895CF93DF93D82F9C
:102E0000C92F8DEB95E00E94C713D0936806C0933D
:102E10006906C0936B06D0936C0690919E06992329
:102E200061F080916A069295990F990F907C83705A
:102E3000892B81608D7F80936A06809149060E946C
:102E40001312809155060E94F61180916A060E9425
:102E5000F61180916B060E94F61180916C060E941B
:102E6000F61180916D060E94F6118091550680340E
:102E700021F480916E060E94F6110E9478168DEB67
:102E800095E00E94C713D0935A06C0935B066091E9
:102E90004B0670914C0690E080E00E943F13DF915A
:102EA000CF910895CF93C82FCF708DEB95E00E94FE
:102EB000C713809149060E94131282E190E00E949C
:102EC000101290E080E00E94101281E30E94F6113F
:102ED00082E00E94F61181E00E94F6118C2F0E9480
:102EE000F6110E9478168DEB95E00E94C713CF91E2
:102EF000089580919F0687FD07C061E00E947A12C5
:102F00008BEA94E00197F1F78DEB95E00E94C713EF
:102F1000809149060E94131281E190E00E941012F4
:102F20000E9478168BE097E20197F1F70895B0E0E0
:102F3000A0E0EDE9F7E10C947539EC01162FFC01E6
:102F4000E856FF4F8081803261F098E0E92EF12C45
:102F500002E4803451F026E0E22EF12C02E58035C7
:102F600021F088E0E82EF12C02E2CE010E94C71386
:102F7000110F12706E018CE8C80ED11CF601808111
:102F80000E941312802F0E94F611812F0E94F611C9
:102F90000E9478165E01FAEBAF0EB11CCE010E94C2
:102FA000C713B701F601808191810E944812912CCC
:102FB000092D10E00E151F0554F40E9420120C0F6D
:102FC0001D1FF801E654FF4F80839394F1CFF50164
:102FD000808186FDE3CFCE010E94C713CDB7DEB757
:102FE000EBE00C949139EF92FF920F931F93CF93E4
:102FF000DF93EC01F62EE72E142F052F0E94C71346
:10300000C457DF4F88810E94131282E190E00E9432
:10301000101290E080E00E9410128E2D0E94F61196
:103020008F2D0E94F611802F0E94F611812F0E9491
:10303000F6110E94781683E998E00197F1F7CDB771
:10304000DEB7E6E00C94963994EF980F9F3478F44D
:1030500080935F0624E531E0829FA001839F500D9D
:10306000112463E071E38DEB95E00E94F31708955E
:10307000282F4AE56CE084E491E00E94401580919D
:103080002F01843021F0809144010E94241808957A
:10309000CF93C82F482F50E060E070E48DEB95E0AF
:1030A0000E94F317C0939C06CF9108951F93CF936E
:1030B000DF938DEB95E00E94C713809149060E9433
:1030C000131281E090E00E94101280919A060E94F3
:1030D000F61180919B060E94F6110E9478168DEBE6
:1030E00095E00E94C71360914D0670914E0690E0E6
:1030F00080E00E943F1380919F0687FD07C060E03B
:103100000E947A128BEA94E00197F1F780916006B1
:10311000811122C0C0916306D0916406AE0161E0C6
:1031200072E08DEB95E00E94F317D0936406C09394
:10313000630610916706C0916506D0916606AE01E0
:1031400062E072E08DEB95E00E94F317D093660683
:10315000C093650610936706DF91CF911F91089584
:103160001F93CF93DF93EC01122F90935706809318
:103170005606709359066093580681E090E090934C
:103180005D0680935C064C175D0720F06417750799
:1031900008F0EA0190919D062091600680919A06C0
:1031A0003091610630FB87F98F7920FB84F9807FAD
:1031B000816080939A0690939B0680E480935506E5
:1031C00080916A06807C816080936A0610926D0609
:1031D00081E080936E060E94561880919C060E94A2
:1031E000481810939E0682E080935E06D0935B069B
:1031F000C0935A06CE010E94FD16DF91CF911F9118
:103200000895282F4FE060E084EF91E00E94401580
:1032100080912F01843059F44091F401042E000C68
:10322000550B63E073E18DEB95E00E94F317089571
:10323000282F4FE160E08CEE91E00E9440158091D4
:103240002F01843059F44091EC01042E000C550BF1
:1032500062E073E18DEB95E00E94F3170895282F4B
:103260004CE360E08CED91E00E9440158091DC0120
:1032700081110EC080914205882351F050E040E05A
:1032800061E070E48DEB95E00E94F3171092420527
:10329000089585E00E94191580912F01843069F40A
:1032A00080915C0142E0811101C041E050E060E0AA
:1032B00071E18DEB95E00E94F3170895282F4FE3FD
:1032C00060E084E591E00E944015809155068032CF
:1032D00049F04091540150E063E073E38DEB95E0D9
:1032E0000E94F3170895282F40E260E08CE491E0FB
:1032F0000E94401580912F01843049F040914C018B
:1033000050E062E073E38DEB95E00E94F3170895BF
:10331000FF920F931F93CF93DF93F090D401C4E4F7
:10332000D1E20CE511E2FE0165917491FE01329645
:103330004591549181E0F81611F0452F55275527F6
:103340008DEB95E00E94F31724960C171D0759F793
:10335000CDB7DEB7E5E00C94973984E10E941915EA
:1033600080912F01843011F40E9488190895CF9321
:10337000DF93FC0165917491EC0124966115710550
:1033800051F00296FC01459154918DEB95E00E941D
:10339000F317CE01EECFDF91CF9108958091CC014C
:1033A000813029F48CE291E20E94B719089584E2F9
:1033B00091E2FACF83E10E94191580912F018430A8
:1033C00011F00E94CE1908958CEC90E20E94B7197A
:1033D0004091EC01042E000C550B62E073E18DEB83
:1033E00095E00E94F3174091F401042E000C550B58
:1033F00063E073E18DEB95E00E94F3178CE091E2BE
:103400000E94B7198091C401813029F48CEE90E2BA
:103410000E94B719089580EE90E2FACF82E10E94EF
:10342000191580912F01843011F40E94E419089538
:10343000B0E0A0E0EEE1FAE10C9478398C01D62FEF
:10344000FC01E856FF4F808198E0E92EF12CC3E2A1
:10345000803251F026E0E22EF12CC3E4803521F4D5
:1034600088E0E82EF12CC3E5C8010E94C71368016B
:103470008CE8C80ED11CF60180810E9413128C2F9B
:103480000E94F6118D2F0E94F6110E947816C80135
:103490000E94C713B701F601808191810E944812F2
:1034A000D12CCD2DD0E0CE15DF054CF40E9420129A
:1034B000C00FD11FCE54DF4F8883D394F2CFCDB746
:1034C000DEB7E8E00C949439CF93DF93EC010E94CF
:1034D0007816188283E090E00197F1F7DF91CF91A1
:1034E0000895CF93DF93EC01862F0E94F6118F850C
:1034F0008F5F8F87803138F0CE010F960E94641A5B
:103500008C810E948714DF91CF910895B0E0A0E0F4
:10351000ECE8FAE10C947939D82FC62FF42ED22E8C
:103520008091A4060E948E1461E280EA96E00E94D7
:10353000711A6D2F80EA96E00E94711A6FEF6F0D7D
:103540006D0F80EA96E00E94711A62E280EA96E0CE
:103550000E94711AEC2EE694E694E6946E2D80EAB1
:1035600096E00E94711ACD0DDD27DD1F219783E0C3
:10357000D595C7958A95E1F76C2F80EA96E00E9471
:10358000711A8FEA96E00E94641ACE19CF5FCF9D20
:10359000E00111248091A4060E9487147801C00FD5
:1035A000D11FEC16FD0671F060E00115110511F058
:1035B000F701608180EA96E00E94711AFFEFEF1A2E
:1035C000FF0AEFCF8FEA96E00E94641ACDB7DEB70C
:1035D000E7E00C949539B0E0A0E0E1EFFAE10C945B
:1035E0007239E0EDE80FEA3008F448C08E3209F095
:1035F00068C024E0C22E94E0C99EA0011124A5E871
:10360000B5E01D929D012558354024173507C8F3B4
:103610008E3209F4EAE0D62EF0E0E557FC4DE49155
:103620000BE613E2F12CE12CCE2FD0E0CE010E2CD4
:1036300002C0959587950A94E2F780FF30C0F801A3
:1036400084903196A490319694903196B4906624EB
:103650006394680CBB20A9F0B12C662463946A0CB7
:103660009B14E9F0782C7B0C6A2D872D0E94601248
:10367000662D872D0E946012B394F2CF9EE0C92E72
:10368000BACF9B1461F07A2C7B0C672D882D0E9499
:103690006012672D862D0E946012B394F2CFFFEF67
:1036A000EF1AFF0A0C5F1F4F88E0E816F10409F0DB
:1036B000BDCF05E815E020E24C2D60E18D2D0E9484
:1036C000861ACDB7DEB7EEE00C948E39B0E0A0E0FC
:1036D000ECE6FBE10C9478396C018B017A01E9018D
:1036E0008091A4060E948E1461E280EA96E00E9416
:1036F000711A60E0D7FC07C06091A70670E0C6169B
:10370000D7060CF4B60180EA96E00E94711A609127
:10371000A70670E0E616F7060CF4B70180EA96E01B
:103720000E94711A62E280EA96E00E94711A60E0DB
:1037300017FD07C06091A50670E0061717070CF487
:10374000B80180EA96E00E94711A60E0D7FD07C0D8
:103750006091A50670E0C617D7070CF4BE0180EA99
:1037600096E00E94711A8FEA96E00E94641ACDB723
:10377000DEB7E8E00C949439E0EAF6E094878387BA
:103780007687658723E0759567952A95E1F74781E8
:1037900050E09B010E94661B089523E0660F771F8F
:1037A0002A95E1F70E94BC1B0895FF920F931F9387
:1037B000CF93DF938A01F22E70E090E00E94CD1B40
:1037C000C0EAD6E0F886C8010E9465161886CDB713
:1037D000DEB7E5E00C949739A7E0B0E0E2EFFBE15B
:1037E0000C94713990904C05911062C0882E0E9403
:1037F0009A15682EA0903E05B0903F0581117AC0C1
:10380000E091D40391E1E902F0011124E850FE4F68
:1038100080852DE7C22E24E0D22E13E0833081F084
:10382000823049F48091AC016DE7C62E64E0D62E5B
:1038300012E0813029F099E7C92E94E0D92E10E0EA
:103840008FE2E82E0EE2212F45E0B501CE01019670
:103850000E94BF15C5010E94A915782E112341F0C1
:10386000B12CA12C9CE045E09924939411E06DC00B
:10387000912CB12CA12C9CE045E067C09091C40430
:10388000971509F49CC040E8481B10E000E020E2D6
:1038900060E193C0611010C020E0A60164E08DE6F5
:1038A0000E94D51B7092C404F0920501E0920401BD
:1038B0002796EFE00C948D39B8018EE20E94EB1A46
:1038C0009801295F3F4FC5016AE070E00E94E73828
:1038D000962FB82EB90180E3890F0E94EB1AB80128
:1038E000685E7F4F80E38B0D0E94EB1A84E08715A2
:1038F00098F6D8CF80913C0590913D0568EE73E035
:103900000E94FB3897FF04C088519C4F6150710999
:103910006B01CA0CDB1C6AE070E00E94FB385B01A3
:10392000C6010E94A915782E30E2E32E0EE220E0B7
:10393000482FB601CE0101960E94BF15472D59E7C9
:10394000C52E54E0D52E93E010E0140F8EE0489F72
:10395000A0011124992011F04C5F5F4F123038F014
:10396000E3E01E9F400D511D11244350510929E2EF
:1039700030E0611002C030E020E0892F90E0420F7B
:10398000531F2AE630E07901E41AF50AE816F90631
:103990000CF47C0120910401309105018E2D37FD3E
:1039A00003C02E1508F4822F882009F467CF10E099
:1039B00000E020E240E860E180E00E94861ACE014B
:1039C00001964C018701F40151904F01552009F4F3
:1039D00061CFB801852D0E94EB1AFEE284E05F12F0
:1039E0008EE090E00396080F191FEDCF90933F05EE
:1039F00080933E0580E00E94EC1B64E670E080E06E
:103A000090E00E943F130895EF920F93CF93DF93BE
:103A100000D01F92CDB7DEB780914C0581111DC03B
:103A200080912B05811121C060919C0670E080E29D
:103A3000E82E00E020E042E0CE0101960E94BF1592
:103A40008091720521E0813009F020E0AE014F5FE6
:103A50005F4F60E082E70E94D51B0F900F900F90A0
:103A6000DF91CF910F91EF90089580E289838DE4EB
:103A70008A831B82E5CF90912B05992341F0892FF2
:103A800010922B050E9448180E94041D08959091E1
:103A90009C06890F803414F08FE3F4CF87FFF2CFB8
:103AA00080E0F0CFCF93C82F80912B05882341F081
:103AB000C3FD11C0C13011F4663069F481E009C062
:103AC0008C2F8370833039F4CB3029F08FEF663040
:103AD000A9F30E943B1D8C2FCF91089580914C0536
:103AE000811112C080917205813071F090919C0615
:103AF00080912B05992349F0811109C090932B05E2
:103B00000E9448180E94041D08958823D9F30E943A
:103B1000481810922B05F6CFCF93C82F8091A4069A
:103B20000E94131280E890E00E9410126C2F80EA2D
:103B300096E00E94711A8FEA96E00E94641ACF9173
:103B40000895CF93DF932091A50630E04091A7061A
:103B500050E070E060E090E080E00E94661B8091A1
:103B6000A4060E948714C0E0D4E060E080EA96E0FA
:103B70000E94711A2197C9F78FEA96E00E94641A91
:103B80006091AD067091AE068091AB069091AC0647
:103B90000E94BC1BDF91CF910895A3E0B0E0E3ED5C
:103BA000FDE10C9479399B838A83FC01278183850D
:103BB00094850696281719060CF43AC0062F8481BE
:103BC0000E948714F12CE12CF0EEF00FF9830052E3
:103BD000110B04541D4D86E0D82E89818F3570F568
:103BE000F80184918F3F51F1F7018D9DE00DF11D9A
:103BF0001124E456FE4D6491EA81FB818085811198
:103C000060958A819B810E94711AEA81FB8183857C
:103C10009485019694878387FFEFEF1AFF0A86E069
:103C2000E816F104D1F68A819B810F960E94641AEE
:103C300081E090E02396E7E00C94953960E0DCCFDA
:103C4000682F80EA96E00E94CD1D0895CF93809161
:103C50002F018430B1F48091430581110CC0C0E282
:103C600068E370E088E190E00E94BC1B8C2F0E940A
:103C7000201ECF9108958091D401CAE2882381F358
:103C8000EECF80912F01833039F480910B01C5E58F
:103C9000813031F7CCE4E4CF0E949A158823F9F201
:103CA00080918401C3E58130D1F6DACF0F931F9361
:103CB000CF93DF938C01D0E0C0E0F801EC0FFD1F43
:103CC0006491662341F080EA96E00E94CD1D892B25
:103CD00011F02196F2CFCE01DF91CF911F910F917C
:103CE0000895FF920F931F93CF93DF938A01F22ED3
:103CF00070E090E00E94CD1BC0EAD6E0F886C801D3
:103D00000E94561E1886CDB7DEB7E5E00C949739B1
:103D100080912F018330F8F4E091D403813018F1C1
:103D200081E1E802F0011124E850FE4FE78545EFFC
:103D300050E0E40FF52FF11D44918091720521E0D0
:103D4000833009F020E050E045505F4F67E088E2A3
:103D50000E94711E08958330E9F3843071F0E0E031
:103D600050E040E0E6CF81E1E802F0011124E850A4
:103D7000FE4FE6854EEE50E0DCCFE091D40381E1CA
:103D8000E802F0011124E850FE4FE08949EE50E0CE
:103D9000D0CFEF92FF920F931F93CF93DF93909129
:103DA0002F01933091F1182FC091D403EC2E0C2EDB
:103DB000000CFF080E949A1501E1C002E0011124E5
:103DC000882341F1212F45E060E0CE01895F9D4FBE
:103DD0000E9440150E9DF0010F9DF00D1124E8503A
:103DE000FE4FE7850E2E000CFF0BE959FB4F90812B
:103DF0009F7080919806807F892B809398060E94FF
:103E00008F160E94C6160E94881ECDB7DEB7E6E068
:103E10000C94963900912F0101111AC0CA5FDD4F31
:103E2000212F46E060E0CE010E944015011116C02E
:103E300080915506803439F7E8810E2E000CFF0B77
:103E4000E05AFB4F80818730F0F60E945217DBCF9B
:103E5000C85FDD4F212F219544E0E4CF488150E039
:103E600062E071E18DEB95E00E94F317CCCF1F93D8
:103E7000CF93DF938091720511E0823009F010E05A
:103E8000212F42EE50E060E082E20E94711EC0915C
:103E9000D4030C2E000CDD0B80912F018430D1F463
:103EA00081E18C9FF0018D9FF00D1124E850FE4FB1
:103EB00085858C5F1093A80627E0829FC00111249E
:103EC0008E589F4F0E94561E1092A806DF91CF91E8
:103ED0001F9108950E949A15882359F081E18C9FC3
:103EE000F0018D9FF00D1124E850FE4F8485895F0D
:103EF000E1CF81E18C9FF0018D9FF00D1124E850FE
:103F0000FE4F8385D7CF0F931F93CF93DF93C0913D
:103F1000D4032C2F0C2E000C330B90912F0141E178
:103F2000C402E0011124913050F1943010F194302A
:103F300031F5CB5FDD4F08E011E042E0282F60E073
:103F4000CE010E9440150115110561F08881880F8E
:103F5000990B080F191FF8018081918190935D06DC
:103F600080935C060E94371FDF91CF911F910F91C4
:103F70000895CC5FDD4F10E000E048E0DFCFCD5F7B
:103F8000DD4F91E1929FF001939FF00D1124E850D5
:103F9000FE4F90850EE011E043E0923078F246E06B
:103FA000CDCFCF93C0918C018091A4060E948E1436
:103FB00061E880EA96E00E94711A82E8C89F900149
:103FC00011242455384EAC2FB0E00E94583961E0DE
:103FD000670F80EA96E00E94711A8FEA96E00E94CD
:103FE000641ACF91089590918C01890F8A300CF05A
:103FF00089E087FD80E080938C010E94D11F0895A5
:10400000A8E0B0E0E6E0F0E20C9474393B9A439A01
:1040100088E08093B8000E9479178DEB95E00E94AC
:10402000C713809149060E94131281E090E00E941C
:1040300010128FE190E00E94101285E090E00E9443
:1040400010120E9478167E0189E0E80EF11C8DEBBB
:1040500095E00E94C71368E070E080914906909156
:104060004A060E9448128E010F5F1F4F0E942012C5
:10407000F80181938F01EE15FF05C1F7898186FD57
:10408000E6CF8BE097E20197F1F78DEB95E00E9488
:10409000C713809149060E94131281E090E00E94AC
:1040A000101281E390E00E94101285E090E00E94DF
:1040B00010120E94781660914D0670914E0690E0A5
:1040C00080E00E943F1362E370E080E090E00E9495
:1040D0003F13D12CC12CF12CE12C10E000E0F7E3D0
:1040E000EF16F10408F076C0F701EE0FFF1FE95D4F
:1040F000FD4F85919491C816D90609F06BC08FEFDA
:10410000E81AF80A95E1B92E809149060E94131227
:104110008B2D0E94F611B12CA12CF801EB56FD4F0E
:104120004F01F401EA0DFB1D84910E94F611FFEF8F
:10413000AF1ABF0A87E0A816B10499F70E94781653
:104140008DEB95E00E94C71361E070E08091490615
:1041500090914A060E9448120E94201286FD0EC0CD
:104160009FEFC91AD90A095F1F4F0733EEE11E07F7
:1041700009F0B5CF83EE93E00197F1F780915506F2
:104180008032E1F0E091D40381E1E802F0011124F2
:10419000E850FE4FE7850E2E000CFF0BE959FB4F50
:1041A00080818F70806180939806809199068078D5
:1041B00080618068809399060E948F1688E48093BE
:1041C000B80081E080932A053B9A43982896ECE05A
:1041D0000C94903986E1B82E97CFCF93DF93E0917E
:1041E000E401EE0FFF0BE15EFD4FC591D49180918C
:1041F0002F01833009F052C080910B01823019F4F5
:10420000D195C195D109CE0120912F01233009F01C
:1042100048C020910B0141E0223009F44FEF20917A
:1042200055062032C1F12091640154E62502900127
:1042300011244203E001439FD00D112420913C053D
:1042400030913D05C20FD31FC80FD91FD195C1951D
:10425000D1098DEB95E00E94C713809149060E9419
:10426000131282E190E00E94101290E080E00E9420
:10427000101281E00E94F61180E00E94F6118D2F4D
:104280000E94F6118C2F0E94F6110E94781683E985
:1042900098E00197F1F7DF91CF91089590E080E0E9
:1042A000B3CF20912F01B7CF282F43E060E084EEF9
:1042B00091E00E94401580912F01833011F40E94FB
:1042C000ED200895282F49E167EE84E691E00E94F1
:1042D00040150E949A1581110E94ED2008951F93A8
:1042E000CF93DF9391E018160CF090E0CFEFC80F5A
:1042F00082300CF4C0E080915506D8E2803221F083
:10430000D8E4803509F4D8E510E090FB10F98DEB86
:1043100095E00E94C713809149060E9413128D2FC9
:104320000E94F611812F0E94F6118C2F0E94F61127
:104330000E9478168DEB95E00E94C713DF91CF9114
:104340001F91089590912F0145E2943009F44AE1BC
:10435000282F60E084E391E00E94401580913401B1
:104360000E946F210895682F70E090E080E04AE09D
:104370000E9417160895CF93DF9370E060E090E0FD
:1043800080E00E94BC1BC0EAD6E081E088878CE018
:1043900092E00E94561E80910D010E94B3218CE78D
:1043A0000E94201E85E00E94B3211886DF91CF91E4
:1043B00008951F93CF93DF9370E060E090E080E07A
:1043C0000E94BC1B81E08093A8068AE791E00E94CE
:1043D000561E10917605112319F1D0917305DF5FF8
:1043E00091E0DA3008F092E081E01A3008F082E0E3
:1043F000C4E0C91BC81BC15020F080E20E94201EEF
:10440000FACF8D2F0E94B3218CE70E94201E812FAE
:104410000E94B3211092A806DF91CF911F910895B9
:1044200084E791E00E94561EF5CFCF9380914C0512
:10443000811112C08091510581110EC068E370E0B6
:104440008AE590E00E94BC1BC0912E01CF3F31F461
:104450008EE690E00E94561ECF910895CA3018F45F
:1044600080E20E94201E8C2F0E94B3218CE70E94C4
:10447000201EF2CF0F931F93CF9390912C05992379
:1044800009F4CFC09091A401913009F44DC090E19E
:10449000C82F892F0E9405131816190614F08BEEE9
:1044A00091E020910001309101012F3F3F4F21F415
:1044B00090930101809300016091000170910101CE
:1044C00047E0469F9001479F300D1124280F391F68
:1044D00083E0359527958A95E1F730930101209384
:1044E000000164E6273882E03807B0F460E02C3E33
:1044F00081E0380788F0293682E03807B8F042E1D9
:10450000429FC001439F900D112480559B426FE153
:1045100070E00E94E7386E5A80910201962F981B36
:10452000A9F5109282043FC09FE0B2CF223482E00E
:10453000380770F043E2429FC001439F900D112461
:10454000835E9E4467E270E00E94E738615DE4CFDD
:10455000233182E0380770F048E2429FC001439F58
:10456000900D1124805D92456FE270E00E94E73863
:10457000695FD2CF429FC001439F900D11248D5699
:104580009D4067E270E00E94E738C6CF9E5F95309D
:1045900018F060930201C5CF909182049F5F9093C1
:1045A00082049530B0F70E94971300918304109114
:1045B00084042091850430918604601B710B820B6A
:1045C000930B613177428105910510F4CC2349F1B9
:1045D00080914C0581111BC0C091020167E070E021
:1045E0008CE690E00E94CD1B1092A8066C2FC53679
:1045F00008F064E670E090E080E04AE00E94171660
:104600001092A806C43618F485E20E94201E0E946B
:10461000971360938304709384048093850490932C
:104620008604CF911F910F910895A9E0B0E0EBE1CE
:10463000F3E20C946E39D0907605DD2009F49CC02D
:10464000F09073059BEAF99EF12C1124F6948111E8
:1046500097C0809106018F1509F465C0F09206019C
:10466000D11090C010E000E028E340E868E080E06E
:104670000E94861A20E04BE851E064E084E20E9448
:10468000711E2996E2E10C948A39ED91FC91119703
:104690001150B12CA12C133098F413968D919C914C
:1046A00068EE73E00E94FB3897FF04C088519C4F6E
:1046B00061507109E60FF71FB3010E94FB385B01DF
:1046C00080E2E82E0EE220E045E0BF01CE01019637
:1046D0000E94BF1585E0133008F488E0E1E1F0E0C6
:1046E000E81BF109B40126E02E9FC0012F9F900D19
:1046F00011240E94CD1BCE0101960E946516133035
:1047000008F0CAC08EE20E94201E3AE0A316B1044F
:1047100018F480E30E94201EB50190E080E04AE09A
:104720000E941716B9C0DD2009F4ABCF2F2C220C44
:10473000F20C8F2D90E02D2D30E0039628173907CD
:104740000CF4C901182F02E0F11608F09ACF602F7F
:1047500070E090E080E00E94CD1B80917305F81618
:1047600031F080E20E94201EF3940E5FEDCF8EE3C5
:10477000F9CF1092060176CF8111FBCFF12C69CFD2
:10478000F092060110E000E028E340E868E080E0F5
:104790000E94861A2F2C220CF20C8F2D90E02D2DCA
:1047A00030E00396281739070CF4C901898725E002
:1047B000F29EC0011124DC01AB53BB4F6D012F2CC5
:1047C000312C512C412C92E0F92E2AE0622E712CD2
:1047D000B22CB9852B1608F054CFA090730510E0C9
:1047E00000E028E040E86F2D660F660F660F80E05E
:1047F0000E94861A8F2C912CB40190E080E00E94D8
:10480000CD1B80E22A1001C08EE30E94201EE8E04A
:10481000EB1518F080E30E94201EFFEF2F1A3F0ACD
:104820004F0A5F0A4AE0C201B1010E94171680E2F6
:104830000E94201ED60112961C911297143009F086
:1048400024CF8D919C9164E670E00E94E7385B0173
:10485000B3010E94E738162F83E0B4E6AB16B1042B
:1048600008F482E08E5FE1E1F0E0E81BF109B401B9
:1048700026E02E9FC0012F9F900D11240E94CD1B7A
:10488000B50190E080E04AE00E9417168EE20E9497
:10489000201E812F0E94B321B4018CE690E00E947B
:1048A000CD1BD60112968C91B4E08B9FC0011124D0
:1048B000845B9B4F0E946516E5E0CE0ED11CF394FD
:1048C000F39486CF0E9497136093770570937805D1
:1048D0008093790590937A05409176054423B1F051
:1048E00041502091740560E083E795E00E944015F7
:1048F0009091D5038091730598130E94D9218091DE
:1049000073058093D50380E00E94152310927505EE
:104910001092740508958091D60381110DC081E035
:104920008093D60380919C010E94A8148FEA0E9474
:104930008C1D10927B05089580914C058111FBCF51
:104940001092D60381E00E94A8148EEAF0CF8091E5
:10495000D60381111CC080917B058823C1F081E0C2
:104960008093D60380919C010E94A8148FEA0E9434
:104970008C1D10927B050E94971328EE33E040E0D7
:1049800050E00E940F3930934E0520934D05089555
:1049900080917205E091D403843059F481E1E802FA
:1049A000D0011124A850BE4F21E018968C9183307D
:1049B00009F420E081E1E89FF0011124E850FE4F66
:1049C00084E0ADE6B5E001900D928A95E1F7109292
:1049D00071054DE655E060E080E00E94D51B08952A
:1049E00080917205843061F4E091D40381E1E802A2
:1049F000F0011124E850FE4F21E08085833009F05A
:104A000020E040912F0184E0489FA0011124445BE5
:104A10005B4F67E080E00E94D51B80E20E94201E71
:104A20000E94261E80914C05811102C00E94C8245C
:104A300008950E94EC1B0E94F0240E94371F0E94E0
:104A4000881E81E00E943A220E94041D0E941522C5
:104A50000895B0E0A0E0EFE2F5E20C947439F82E8E
:104A6000E091D40321E1E202F0011124E850FE4F6D
:104A7000108599249394133009F0912C80912F0183
:104A800088248394843009F0812C80914205882306
:104A900051F050E040E061E070E48DEB95E00E9461
:104AA000F31710924205891411F03B9A439A0E9421
:104AB000BA148FEF80932E0190919401133009F472
:104AC00091E080916A06837C80936A062091550666
:104AD000203409F40AC1903C08F090E090936D06F0
:104AE00080915A0690915B060E94FD16C091D403F6
:104AF0000C2E000CDD0B133009F0FFC084E0809316
:104B00002F011092430581E18C9FF0018D9FF00DE4
:104B10001124E850FE4FA5850A2E000CBB0BA85FA0
:104B2000BE4F2C91022E000C330B8185928546815D
:104B300057810481158110935706009356065093B0
:104B400059064093580630935D0620935C06801703
:104B5000910720F04817590708F08C010E94791737
:104B600090919D06209160063091620680919A0690
:104B70004091610640FB87F930FB86F98F7D20FB71
:104B800084F9807F80939A0690939B0680E28093BD
:104B9000550680916A06807C836080936A06109235
:104BA0006D0681E080936E060E94561880919C06E7
:104BB0000E94481810929E06809149060E94131286
:104BC00082E190E00E94101290E080E00E941012BA
:104BD0008FEF90E00E94101290E080E00E9410128F
:104BE00090E080E00E94101290E080E00E9410129D
:104BF0000E9478168BE097E20197F1F710925E061B
:104C000010935B0600935A06C8010E94FD1621E12D
:104C10002C9FC0012D9F900D1124EC01C850DE4F38
:104C20000E811F814C815D8160E074E18DEB95E028
:104C30000E94F317A80161E074E18DEB95E00E94FA
:104C4000F3174AE050E062E074E18DEB95E00E94DA
:104C5000F31742E050E063E074E18DEB95E00E94D1
:104C6000F31745E050E064E074E18DEB95E00E94BD
:104C7000F31710922A05488950E062E071E18DEB4C
:104C800095E00E94F31780915C0141E0811142E0C0
:104C900050E060E071E18DEB95E00E94F3170E9417
:104CA000E4190E9488190E94A51589599A4FDC01C0
:104CB0008C910E946F2180914C05811105C00E944A
:104CC000A11D81E00E941925891411F03B9A439897
:104CD00080913E0590913F0590933B0580933A0566
:104CE000CDB7DEB7ECE00C9490398D7F80936A06E7
:104CF00010926D0690936E06F3CE21E12C9FC001B9
:104D00002D9F900D1124DC01A850BE4F5D0114961B
:104D10000D911C9115971696CD90DC901797809168
:104D20002A05882309F4BCC01F968C911F978630F2
:104D30001CF084E01F968C93F1100E94002080915B
:104D400099069091740190FB84F9809399060E94D2
:104D50008F1680912F01833009F089C020910B01BB
:104D600081E18C9FF0018D9FF00D1124E850FE4FE2
:104D700041855285B601C8010E94B0180E94C6162E
:104D800090912F0180919906933009F073C080684B
:104D9000809399060E948F1680919906807F809358
:104DA00099060E948F1640916A0550E062E073E315
:104DB0008DEB95E00E94F3174091540150E063E0C1
:104DC00073E38DEB95E00E94F31780912F0194E03F
:104DD000833079F081E18C9FF0018D9FF00D1124DB
:104DE000E850FE4FE7850E2E000CFF0BE959FB4FF4
:104DF00090819F7080919806807F892B8093980680
:104E00000E948F160E94ED208091990690916C016E
:104E100090FB85F9809399060E948F160E94A51534
:104E200089599A4FFC0184810E942418A80160E0EE
:104E300074E38DEB95E00E94F317A60161E074E343
:104E40008DEB95E00E94F31743E050E063E074E3DC
:104E50008DEB95E00E94F3174AE050E064E074E3C4
:104E60008DEB95E00E94F3170E94CE191CCF209184
:104E70002F0176CF91E020918401213009F490E058
:104E800090FB87F9809399060E948F168091840188
:104E900090E0811193E080919906807F892B7FCFEC
:104EA00010922F010E94A5157C01D5011B96EC9153
:104EB0001B97EE0FFF0BE25FFE4F808191811996E9
:104EC000AD90BC901093570600935606D0925906A9
:104ED000C092580690935D0680935C06A016B106BA
:104EE00008F47BC0CA14DB0408F477C080915E0626
:104EF000813069F10E94791790919D06209160069A
:104F000080919A063091610630FB87F98F7920FBFA
:104F100084F9807F816080939A0690939B0680E459
:104F20008093550680916A06807C816080936A0632
:104F300010926D0681E080936E060E945618809153
:104F40005F060E94241880919C060E9448181092C7
:104F50009E0681E080935E06B0925B06A0925A06A0
:104F6000C5010E94FD1680915506803499F481E1B7
:104F70008C9FF0018D9FF00D1124E850FE4FE685C7
:104F80000E2E000CFF0BE05AFB4F8081873010F48F
:104F90000E94521742E050E061E073E38DEB95E030
:104FA0000E94F317E701C959DA4F4A8150E062E0E5
:104FB00073E38DEB95E00E94F3174091540150E0AC
:104FC00063E073E38DEB95E00E94F31788810E9404
:104FD0006F218C810E94241821CF580187CF8091A6
:104FE0002F01833031F18AE00E9419150E949A1531
:104FF0008823F9F091E080918401813009F490E0F8
:105000008091990690FB87F9809399060E948F16EC
:105010008091840193E0811101C090E08091990614
:10502000807F892B809399060E948F1681E00E94D1
:105030002925089580914C05811107C00E949A1579
:10504000882319F080E00E94EF27089588E00E94ED
:1050500019150E949A15882369F0809199069091FC
:10506000740190FB84F9809399060E948F1681E069
:105070000E94292508950F931F93CF93DF93182F34
:10508000D62F0E94C9140E948315C091D403109298
:105090003D0510923C058FEF111181E0082E000CA8
:1050A000990B8C0F911DC7FD9A954C966CE170E0A1
:1050B0000E94FB388C018093D403D1110E94BA1452
:1050C00080913E0590913F0590932E0580932D058C
:1050D00021E12C9FF0011124E850FE4FD085209F44
:1050E000F001219FF00D1124E850FE4FC0859093F0
:1050F0003B0580933A05D33031F1C33021F10E9452
:10510000FD1680E00E94C91E8091AC01813059F4E7
:1051100021E0D23009F020E091E0C23009F090E0C7
:1051200081E0291301C080E00E94EC1B80914C05B6
:10513000811102C00E94C8240E94371FDF91CF91C5
:105140001F910F91089580E00E942925F7CFEF92DB
:10515000FF920F931F93CF93DF93E0904005F09061
:10516000410581E01E141F040CF080E080930701CC
:10517000E091D4030E2F0E2E000C110B91E1E902E9
:10518000F0011124E850FE4F9085933009F055C08E
:10519000E5850E2E000CFF0BE85FFE4F2081022EEE
:1051A000000C330B4091400550914105249FE001D4
:1051B000259FD00D349FD00D112440913E05509174
:1051C0003F05C40FD51F109241051092400591E193
:1051D000909FF001919FF00D1124E850FE4F468101
:1051E00057814C175D0788F144815581C417D50755
:1051F00060F1CE01B9010E94E738009709F05DC067
:10520000D0933F05C0933E0581E0809337050E940F
:105210009713609348057093490580934A059093CE
:105220004B0580E00E94EC1B0E94C9140E9483156C
:10523000CDB7DEB7E6E00C949639E385EE0FFF0BB1
:10524000E25FFE4F20813181ADCF60E00E943B28BC
:105250008091D403082E000C990B21E1289FF001C6
:10526000299FF00D1124E850FE4F3085333059F05E
:10527000209FF001219FF00D1124E850FE4F208562
:10528000233009F0BDCF20910701222359F021E1FD
:10529000289FF001299FF00D1124E850FE4FC48192
:1052A000D581AECF21E1289FF001299FF00D112477
:1052B000E850FE4FC681D781A3CFC81BD90B1E145F
:1052C0001F0414F030E020E0C20FD31F99CFB0E0EC
:1052D000A0E0EDE6F9E20C947839C82FD62F837060
:1052E000833041F580914C05811124C0CB3011F100
:1052F0000E9497136B017C018091890490918A042C
:1053000009E814E0D83031F0809187049091880446
:1053100007E814E09601281B390B203F310550F0B7
:1053200081E0D83009F080E061E00E943B28F8017C
:10533000D182C0828C2FCDB7DEB7E8E00C949439CF
:1053400080914C0581113DC080915105811139C07A
:1053500080912F01813059F180912F01823039F1F4
:1053600080912F01833069F520912F01233049F579
:1053700080910B01281B20930B01E091D4034091F5
:105380003E0550913F0581E1E802F0011124E8500B
:10539000FE4F66817781848195810E94B0180E94BA
:1053A000ED2081E00E94EC1B0E94261E0895809152
:1053B0002F01813039F081E080932F0180E00E943D
:1053C0002925089582E0F8CF80914C05811144C0D1
:1053D00080917605843168F520913E0530913F0536
:1053E000E5ECF4E090E0891769F0408151814217C3
:1053F000530729F440912F0152815417D1F09F5F38
:105400003596F1CF90912F0140913C0550913D058B
:1054100065E0869FF0011124EB53FB4F318320831D
:105420009283548343838F5F8093760581E08093DA
:10543000C30468E170E08DE290E00E94BC1B88E646
:1054400090E00E94561E64EF71E080E090E00E94C0
:105450003F1381E00E9419250895833021F4909133
:105460002F01933009F190914C0591111DC090913D
:105470007205891301C080E08093720580917205E6
:10548000882399F00E9497136093770570937805AD
:105490008093790590937A050E94041D0E94371F1E
:1054A0000E94881E0E94F0240895109277051092A1
:1054B00078051092790510927A05EECFCF93DF939D
:1054C000C7EDD3E06A817B81888199810E94E213D4
:1054D0008823C9F09091D603911109C090917B0562
:1054E000992329F00E94A724DF91CF91089581305C
:1054F00081F4EC81FD81309711F0099504C0888515
:1055000081110E942D2A299684E0C832D807D1F64D
:10551000EBCF8B30C1F7EE81FF81309771F7F3CF7E
:1055200080917205882391F0109272051092770590
:10553000109278051092790510927A050E94041D48
:105540000E94371F0E94881E0E94F02408950F9326
:105550001F93CF93DF932091D40311E12103F00136
:105560001124E850FE4F8085833009F4A3C0809158
:105570004C0581119FC00E94902AC091D4030C2E2B
:10558000000CDD0B20912F011C9FC0011D9F900D71
:10559000112488509E4FFC01211178C0168500917E
:1055A0002F010E949A15882309F442C0E0913C051E
:1055B000F0913D05CF0168EE73E0F7FF06C087EE7E
:1055C00093E08E1B9F0B68E17CEF0E94FB384091BB
:1055D0003E0550913F05460F571F81E18C9FD0013A
:1055E0008D9FB00D1124A850BE4F14962D913C9163
:1055F00015974217530708F44BC016962D913C910E
:105600002417350708F444C028E13CEF629FC0012D
:10561000639F900D729F900D11248E0F9F1F9A0112
:1056200030933F0520933E0590933D0580933C05C4
:105630000150023050F4CC0FDD1FC557DB4F809175
:105640003C0590913D05998388830E94C9140E946E
:10565000831580912F01833011F43B9A439AC091B6
:10566000D4030C2E000CDD0B80912F01833098F4B5
:10567000813098F180912F018093030183E0809322
:105680002F0110923D0510923C0507C0178587CF6A
:1056900090E080E0C5CF833091F080E00E94292522
:1056A00080912A05811106C080912F01811102C0CD
:1056B0003B9A4398DF91CF911F910F9108951092DB
:1056C0002F0110922A0581E18C9FF0018D9FF00D32
:1056D0001124E850FE4F1687E0CF8091030180939C
:1056E0002F010E94002081E18C9FF0018D9FF00D21
:1056F0001124E850FE4F1787CC0FDD1FC557DB4F35
:105700008881998190933D0580933C05C6CFEF92A7
:105710000F931F93CF93DF93EC01862F90E0FC0152
:1057200053E0EE0FFF1F5A95E1F7E05DFE4F148145
:105730006631A9F4E12FEE0FFF0BE15EFD4F65919D
:10574000749140E2E42E0EE220E043E0CE010E949C
:10575000BF15DF91CF911F910F91EF9008956E309B
:1057600051F468E072E0113011F064E072E0CE01B3
:105770000E949A38EECF25812230F0F0880F991FD1
:10578000FC01EA56FE4F349189569E4FFC018491EC
:10579000613151F4112371F0165FF4E01F9FB001E5
:1057A000112468537E4FE3CF2330B9F38111119553
:1057B000130FF3CF12E0F1CF11110AC0211103C072
:1057C00068EC71E0D4CF6531E9F460ED71E0CFCFE2
:1057D0006B3009F41F5F612F012E000C770B77FFF0
:1057E00003C071956195710990E2E92E0EE220E007
:1057F00043E0CE010E94BF1517FF02C08DE28883EF
:105800001B82A7CF6B3031F380E2E82E0EE220E05E
:1058100043E070E060E0CE010E94BF15F1CFA5E04B
:10582000B0E0E5E1FCE20C947439282F362F80912A
:105830004C05882309F45CC080910D01082E000CF2
:10584000990B0197982F990F990F891B880F820F39
:1058500066E00E94DB3880E040E0933010F084E4A2
:1058600043E0622F01E0090F041B000F10E0C82E77
:10587000D12C460183E2880E911CE22EF12CCE0140
:1058800001963323C9F10E94872B80913805082E99
:10589000000C990BA12CB12C8E159F0529F4A0901A
:1058A000390581E0BA2CB82683E0EE0CFF1C8A95FE
:1058B000E1F7C701805D9E4F7C01B801C6010596E6
:1058C0000E94CD1B8EE3B11001C080E20E94201E19
:1058D000C7010E946516B801C4010E94CD1BAA2011
:1058E000E9F08EE30E94201ECE0101960E9465160B
:1058F0002596ECE00C9490390E94872BB801C401E6
:105900000E94CD1B80913805082E000C990BE816DB
:10591000F90621F4809139058111E3CF80E2E2CFCD
:105920001F93CF93DF93D0E0C0E016E080910D018C
:10593000082E000C990B0197189F9001199F300DAC
:1059400011242C0F3D1F2931310564F4982F990F34
:10595000890F880F61E08C0F0E940F2C2196C630B2
:10596000D10521F7DF91CF911F91089580914C05CA
:10597000882329F180910D018F5F86300CF081E042
:1059800080930D01082E000C990B0197982F990F09
:10599000890F880F80933805109239050E94A11D48
:1059A0000E94BB210E94902C0E9497136093770560
:1059B000709378058093790590937A05089584E033
:1059C0000E942D2A0895B0E0A0E0E9EEFCE20C94DC
:1059D000783980917205882339F00E94902ACDB7DA
:1059E000DEB7E8E00C94943980914C058823B1F03F
:1059F0008091390591E089278093390561E0809194
:105A000038050E940F2C0E949713609377057093BE
:105A100078058093790590937A05E1CF0E949A15D5
:105A2000811104C080913C01811104C082E00E9478
:105A30002D2AD5CF80913E0590913F050E94FD16FD
:105A40006EE170E080E090E00E943F13E091D403AB
:105A50002E2F0E2E000C330B81E1E802F0011124F1
:105A6000E850FE4F80858230C1F044815581068127
:105A700017818330B1F460E074E18DEB95E00E9412
:105A8000F317A80161E074E18DEB95E00E94F31734
:105A90004AE050E062E074E132C000E315E74EEA0C
:105AA00056E081E1829FF001839FF00D1124E850C0
:105AB000FE4FE385EE0FFF0BE25FFE4FC081D18109
:105AC000CB30D10510F0CAE0D0E0C13039F0C5309C
:105AD00029F0C93019F0CA3009F0C5E060E074E37C
