:020000040000FA
:100000000C948B120C9484370C9484370C94B31298
:100010000C94B3120C94B3120C94B3120C94B3124C
:100020000C94B3120C94B3120C94B3120C94B3123C
:100030000C94B3120C94B3120C94B3120C94B3122C
:100040000C943A370C94B3120C94B3120C94B31270
:100050000C94B3120C94B3120C94B3120C94B3120C
:100060000C94B3120C94B31253415645440000183B
:10007000314B6683A0BEDDFE525300202000534D5D
:10008000002020200031206B487A200035206B486A
:100090007A200039206B487A20003130206B487A72
:1000A000003530206B487A003130306B487A0031AF
:1000B000204D487A2000313020487A200032352007
:1000C000487A2000353020487A20003130302048EE
:1000D0007A0035303020487A0031206B487A200091
:1000E00035206B487A200039206B487A2000313067
:1000F000206B487A00535445503A200050586068AD
:100100007008182030384048000810283840302E39
:1001100035206B487A00312E30206B487A00312E22
:1001200032206B487A00312E38206B487A00322E0C
:1001300030206B487A00322E32206B487A00322E03
:1001400035206B487A00332E30206B487A00342EED
:1001500030206B487A00362E30206B487A002041E0
:1001600055544F202000313130206B487A0038340C
:10017000206B487A20003630206B487A20003430DB
:10018000206B487A20000000000000000000000002
:10019000000100000007000201000002010000034E
:1001A0000001000201000000000201000011000532
:1001B00000000001000F0001000900000002010022
:1001C00000020141555400204F4E004F464600208A
:1001D000353000203735006B487A004D487A0052A0
:1001E000535300534E52003130300035302500312A
:1001F000306D0031356D0033306D0036306D00529A
:100200004F5700434F4C0052535300535054005229
:100210002B4200532B42002041320020413100206C
:10022000202020202053455454494E47532020205D
:1002300020000431F7210531F52D000000000C10DD
:1002400014181C20252B32373C67020205050502D5
:10025000050202020302020302660806056A670736
:100260006A060606060408040205020202050708DB
:100270000708030607070802030403070304037FB4
:10028000727577797B7E80838587898B8D8F91933B
:1002900050678994F4646792ADB0B3D8E1E6E9EBB6
:1002A000EEF1F4F6FAFD0F262C313335383B3F42A0
:1002B00044484A4D4F00187F3101187F1E04187FB3
:1002C0001B05187F0E081800140918003C0013FFC6
:1002D00000011304000413BC7F0513BC7F00000061
:1002E00000001A1800011A0F00021A204E031A14F7
:1002F00000041A1400051A3C00061A000000000051
:1003000000001A7F00011A7F00021A204E031A14FF
:1003100000041A1400051A3C00061A5500000000DB
:100320000000191000011918000219400003192CCF
:10033000010419AA000818140009183C000A18A0A2
:100340000F0B18280000000000031402000414051D
:1003500000000000000334030004340A0000000021
:1003600000003900000000000000390C000139379E
:10037000000239400003392C010439AC00000000B0
:100380000044454C3A4257204641564F5249544545
:100390005300454D505459204C49535400414D2071
:1003A000004C5342005553420043572000464D2015
:1003B000000104070A0D101316191C1F2225282BF3
:1003C0002E31011316191C1F2225282B2E31010254
:1003D00003040A10161C222C36404A545E5F60014A
:1003E00002080E18222C36404A4C4DAED5808D1492
:1003F0002001A1C8817FDB40A6AFDA12A83F01012E
:100400000101014D4F445F4E4F5F524453206769D5
:10041000746875622E636F6D2F646971657A697493
:100420002F61747332305F6174735F65780041547B
:1004300053204558004154532D32302B2056372E2F
:10044000312E32004D454D205245534554004D4507
:100450004D20574541520000005802840308071000
:100460000E415454000000FD217815415643000A06
:1004700001031A741553514C0000014C1B7815539D
:100480004D4100000177197415534D54000001646B
:10049000197415414E42000002E21A741542464F8B
:1004A000000001941A741553534D000102FC18F218
:1004B000165356430001028B2CF216434F460000A0
:1004C000031F19F21653594E0000026A2CF216430C
:1004D0005750000701871A74154445200000024751
:1004E0001A6D15464D50000102101B6D15464D4FFB
:1004F000000002E0196D154653410016012E1A6DD9
:10050000154653540000011D1A6D15535741000044
:1005100001341B7415534352000401D12078155344
:100520005054000002AA2078155357550000023E8F
:100530001774154449530000027616781552534932
:100540000001023B1774154E41560000023817781F
:1005500015434150000002CA17781543505500005A
:1005600002321778154241500000022F17781553B8
:10057000434E0001022C17781546564100000158E1
:1005800019781553574C0000022217781500020401
:1005900001030506080A07090B0C0E100D0F1112B6
:1005A0001416131517181A1C191B1D000301040239
:1005B000050609070A080B0C0F0D100E1112151372
:1005C000161417181B191C1A1D00000000250028FE
:1005D000002B0004040404040404040202020202C6
:1005E00002030303030303010204081020408001F7
:1005F0000204081020010204081020000000080076
:1006000002010000030407000000000000000000D9
:1006100003740BD484606FAE6CF9BB84A265B14BDC
:10062000F672011A21E85AD8D604735E2C226EC4E1
:10063000E9B58B819A1EE487C99E7B17526DADE3A5
:10064000E58B04A72E996A32AA9997CCA65B1579F7
:1006500056480163B1DF5427065706538CA627AAD4
:1006600066890318517EFB67D3CEDD3FFD3D1F47F2
:100670008401F3856EF83B792B0C904B67467D54D3
:1006800088FDD612E5E748F20EDB994D71A540686A
:10069000D9C95939E475201CE9B1F5013C19BB6091
:1006A000F7FA6B1E689F19B6ED140F56BCC134CB18
:1006B000009D43D40FF3629C9DF78B9D533A8D2F81
:1006C0003DDE3D3831039BC7C159E9D175888D3670
:1006D0005886704E5B9ED0DBCBF7EA1FDBA53BB3A1
:1006E000BD6BBCF37065D5170F64152420D5B87B9E
:1006F0000D272985881F5822574F09C04DD6E4C6BB
:10070000B53A373327BB6A1469031BEDA8C343E826
:10071000EADE410625C5C83CBF32B2A7DD22C2E9E8
:10072000CA84F2C0267C7801F7D5C60533E4C278C6
:10073000EC1BFDD2507D11295799B0F1556674B468
:100740005823A06F2ED89B08B33E53CF5ECC7ADFE0
:100750004EED42166A9188431B1D845C52216658F7
:10076000243671C56A0D2C869A239DE03543C97FD6
:1007700041BD8299ED7A26B2D3A6CE4F00E687E33B
:10078000D7682886F7CED2B3D31B0402B978B3ADAD
:10079000E03C53A68A4A22BE1FCEB176F22F81A832
:1007A000C17872B0156519E332A74D0CD300B9C3F7
:1007B00027BE744DD1E10C36DD23FBA722D344CAFA
:1007C000B3081BB40D4BDF1AA69032925C1AA7CD6A
:1007D000852E351172F821357D3FDB298D30B34FE1
:1007E000451477CF992FA39081B0AEE845E63AA99A
:1007F000A262B7DBBE2539A5FCEAC5BC3AEC90AED7
:10080000A6FB12AAC76222AFA984B964B8FB8DC146
:100810001CC3D0876D5CB4FE3FA4B8D889F40159DD
:10082000BB04A543441ACB4130F75B9AEE28F44C45
:100830007199CA4B7F2A13F04B54B3FC90EDBE481C
:100840003FF15E0DA1BB1E591615F04B504C96861C
:100850001BA9CCC2694E1003F0E953E5E2BB45E2A7
:100860008DAE407108864D08F49690585340A58B84
:100870005B3CAD47B5D7E26A1378D4DCC9EC0E9384
:10088000F0C01D953676A45385C9ACE4718DAF6870
:1008900061209DFF45356E04D82732C3DAEEA2668B
:1008A00004B72106527F398FFDEE9074B64FB624FF
:1008B0000E1248F0B230F2A54C9152E3C6487B3894
:1008C00096239ED71B95153AC98B6F637D1DC9EA88
:1008D00096E601D785C0EA3DCAD3B7FB07543A0074
:1008E000313D74E4125BA238335BBF1DDC4EE885FA
:1008F0001077ABEA6579B0AA3061C6F63BCC95FCBF
:10090000837F8C7BB55205EBF721DE89B66DEE3126
:100910007713AA935596086E1C82B57E95B994DD1F
:1009200068425C3A00C37B6F606A2C07D76C82FB1D
:10093000B2812569D6720AD2E8500588491B6372D4
:10094000996CE37AAEB01B9ED42554258A901797F4
:10095000DF39B87CEAF082DD25D2ADE7F6362384B4
:10096000A9C96A53F4822C1DEA06C64F7054378019
:100970002A6B63DBCC86E68C7F278C7254739E1BBC
:10098000D64CFA058280D7B71198069869151CFCD9
:10099000868774845BD40FDBD727C54AB28F297A48
:1009A0004A230AB807D03470818E53EF43163FA80C
:1009B000A79E5A77C091B789155248C0B762ABE17C
:1009C000746410AA096B9774217935A19725FC7876
:1009D000C1EC6E877740871A74828156DDEC37ADA3
:1009E000AF0331AC478574C02A459DF4120CF986DB
:1009F000B04A16D8116C46C44A67988B1B42C2BED7
:100A0000BB0E4884F708A6C38F8E8DABC29B5D5C7E
:100A10006028578F0EAD2EC15E95299AF48A27D48F
:100A200041BB4AAC5DB29326FD87813F2735A64284
:100A30002C1538ADF8026F94DA08EE19D890FA89BF
:100A4000C3AD89FEC60246811D0C8D782FEED3ED15
:100A50006C7B95495687F4E263DA39CE681618ED57
:100A600098EE86F3B3C1121A519B571D199E987EBA
:100A7000D2FD3D2B59154674577914817189D922BD
:100A8000DD9210D98991DF67006E53AFDAB5283057
:100A90001E47E6B7052D22CF7F6ACD88906B8C1656
:100AA000368807A1B7AFF331C4DB768B969EF0177B
:100AB000A73F847891A8CD3F8FA5DD5214F9395D09
:100AC0000B568E1C5A5B89EE809E33BDB145154294
:100AD00034597820FC2DDBC92E0F3526CF239B3EC1
:100AE0001D9F0F260EB7B54EACA286D5DA36045A36
:100AF00073466A88C52AA083E88B5F3CAF6A444E80
:100B0000759B8F93373538BD029A1D8429642597CC
:100B1000E07C2AB6CBC166513CBC3BF3552BB7BD3C
:100B200081ECF349D5F803E0BDC60CEEC01908FB13
:100B30004F8C94080EA53037F0B818937300BB5251
:100B400052B4980D4B45B9890A34E91C245A8FA830
:100B50009DC2D927A9EEBFC08090BC2A9343FB0A4F
:100B6000B396D1AE13410168B92C53537C00A584D0
:100B700041D6988898FEDEF7E23743620E9383EE03
:100B8000030A8DCA8759366F61F7F4D6AB8B0F9C79
:100B90008396A46C4643806BEA50DCD8CED4F4AE86
:100BA0005BC6014385718D0C395EE43B2BC488B272
:100BB000C554960E879A5093D69C91CA09648B238C
:100BC000C429441A67E1DAC71B2517022C8F2A13A0
:100BD0003ACFD665312B10F5B596DF01997BADD6AE
:100BE000B4C035A348E3B09EFE33101A09AE3C0AE8
:100BF000A1728F0051E17823F5E2BFA64628B34BDE
:100C000024B1A1DEB1C4486FED5AD461F0DBE10834
:100C10005C64C0CAE9A9DEDEECC0685B6DBD4382DE
:100C20008CCA69B1A9C8710D5D6DA5AB1A6794EE48
:100C30000593E33FE81AE60F7F79F2CBC53757DF1C
:100C4000FC4FB460C7973C61B00C4664F44392D249
:100C5000A5F0F3B7DFAB20B1F5302AB3DC4B39B7E1
:100C6000853E1E1B948C26288045D60136D0EC93F9
:100C70004688D3D5895D7A82213EC240E3B4DEF551
:100C8000A569D569495C89CDAE137070ED690CEC2E
:100C9000C6FE75EB4ED6B3C860FB341EF86492D91D
:100CA00029A813383D79C4BF21379DE34F21E53F83
:100CB0002C5C5F41FF148791E082040B1E5553DCCE
:100CC0005640A43578E29B49222E09CD1F6F9483AC
:100CD000EEEA8BC4C210E080D9A55F53349C8CEA45
:100CE00095648794D6321CEB93BFE35583C2F6FC20
:100CF000C885B2945C425F6B8E3B9779747EE35CEF
:100D0000C2631A22B17F94CBE7B7FF0E3795AF10BD
:100D10005317881272DDCBAB4B6B6824ACC95C7285
:100D2000094FF1FB1DE7A230E9204BDA707C9EE20F
:100D300034EB6A35C233D79D07B1EFF675F5FDADDB
:100D4000C74BD0B7DDAE1E8D1EC0399CA71CC5CCCD
:100D50003950C66BC6DA37C7E120EB74A53DC00831
:100D6000FAC2DFF29E432BF07750498CC32F68F311
:100D70002A9B831ADC05D8B77C3C611176EC2DFEEA
:100D800086088715A3C01CB46A8D9EBF9AD5C85B20
:100D900005181015FBC63CEEC5524B313607B94C51
:100DA00081EA83D782FEFC43594E20BDD365CF1F15
:100DB0005C711FBF26EC44EB0174823C8E60DF4700
:100DC0009031177E16C0EC1EC33A7A5921A29B8E31
:100DD0008725D3FE85DD6DE6D8CA74BADB4230962E
:100DE0003D8622866FDE371A932F032EE16E166240
:100DF000C1E12DFECBA8DF6405EF23BC71617B1B35
:100E0000602227BDC6A37207AA09B052F219154D78
:100E1000BEAF263B4D62A63C41077A34253CD6CD79
:100E2000B65547871ECBCFCED20D95C0D872A6E05F
:100E3000332426517E71C7533FD4677352CB785AFF
:100E4000001115715F8D3CCF40CDD97430D9A13FD1
:100E5000C658BCBE7818319A3960BB8D7B3495A5D5
:100E6000F1543BB98599AFC445EB64A76E5960EB6B
:100E70001E7AFBFD924323F127AC661266288A5C3A
:100E8000F6C63F7604E80927ED05AA26E5B4AD408D
:100E9000BAF7F484CB7F07108DB6C7D477EABA9639
:100EA0002A98F056D7FF504D59793D41E0FAA99D57
:100EB0003EA6D979C80DD156C5ADD7FB703CBDF360
:100EC000E95D1C5393331DF81BEE9FB750AC8F4860
:100ED0005961C9859EC8B0D27439DF33F528E06303
:100EE00011A7C405BD3AD934CAF9AAE200E6E6382A
:100EF000573EEC197C0D2745C552C4FFF469C5F572
:100F000073734FE307C7CF38235B9C99A26A72B013
:100F10003539C10AC71C1A3060181D2BF0C8F17989
:100F2000A394E336359369059107126044FDB6C674
:100F3000FFE0CFA2CFC2A358AC32E32EEC0D9D1B35
:100F4000FB0540BA678ECB38D7609CFE9EA170CC63
:100F500040728C8C507185DD84925CEE44B6E080EA
:100F60001532DD1B4B8C6E8E3997A5AFC6F42985E3
:100F7000D3859385C854E4591D4EA0FEC507C1F71B
:100F80003252F94D4585FCA0FA37B59D47E852230A
:100F90008D928743B4B84F951B1E4FE545BFCEC811
:100FA0000CB27DE7D92E88B72A61E12DC4212EB875
:100FB0004DFD2187302511EC1F299431D2928538BF
:100FC00017DA634D8CB4065564B76CFCC28D5D971F
:100FD0008609D34369E83577CCAF91363C7CA36E64
:100FE0004E4AA2C94150EAABDF8704704F16F5A004
:100FF00038F56016CD0CE5C7E3AD00126B12853CE9
:101000005C7F76ED49F29D8FDFABE1DD8701ED2C52
:101010001B4B55117FC392D391C1D8A737C7E55B4E
:10102000482BED31DECEFB9508E35184000B4D26B5
:1010300073118B1EE2040473E072FFE659C9044881
:10104000BFABF399877C0704FB33B163616112ADD9
:1010500008AA30AC174D3086BF6713F1A7041B48B0
:10106000422384BB7FB408A69F43785CA14E8BA625
:10107000E67C4901F7315D2730010B570B79F70208
:101080004433BBB45BC701ABE301C2D2017A079E14
:10109000AD8402F1EEF7D82950012C35543ACC0139
:1010A000C93D666A9805247AF71C2440EBA24DC21C
:1010B00066C8372C030FF301066D9A42F0948FED4A
:1010C000BFE3283B72693775B4A09A6E31FD665B49
:1010D000CBF3BA8CA431FFBA7C2454D3C663899372
:1010E000E4EDDA58474EB58FD793FDAF31EAB4EC53
:1010F000C9057D2B1596C1007E80E6F747CD6A773E
:10110000F10E5913AA5C838870DCC4525220B66970
:101110002D6C6C8B662ACD5A4130D6FB7BA0EC7AC5
:1011200022887C716EAF6206F4A8C688857636C5C3
:10113000C0D867967CE84DD4FBA96F0FB2A7A3195E
:101140006A30FD6FFC2BCEA41B8E574851C6980FFA
:10115000E5087B4DFC59DDCF131B310C5E3B98E15C
:10116000F4C341D7A2645E16F9EBAE20E95D54BD2D
:1011700099D3A7C1D9E53222D69F4FDD6B3C6DE9EB
:101180004D965211DA2386BE01C451C29CC6F52F7A
:101190001FD0F1F55782FECBFB4ADF1D0046B8A7F2
:1011A0003A566608714E47F827265F6CD8C30599F2
:1011B0000A758F4FC18872A05A1308A382842ECE5D
:1011C000B5A34605D66A7856442386F2C963088BD0
:1011D000BDEE56D4361F375318E7DA1CFAD005D5C2
:1011E0005FE7B7AD362BCB06C053F432A8756FE37B
:1011F000C9A1B0A6E6C2410F5D2E0A6450469249CD
:101200005B2D002EB5213F0B4A719688844C98AA1D
:101210002823EBEF455C6278D6E4FB6DC3D9356CCF
:10122000B92AC67471C40C657CA3F96E2DB986B059
:10123000046394CF267D9E1EF799DAE08CDD86F359
:10124000C8F1C64E155DED34BB90CDD626091EF60D
:10125000238451C1AE428F8496C957AE16363A29BF
:101260008765B2BA5696D2F509EF304A0F6236FE5C
:101270000030BD091B50C33C48D725E18EB26F4DED
:10128000752DADC61EBAFA4F41AF7A6FA0A04FB60A
:101290008834698A9E837A60F3A87E392A209C323A
:1012A0005E7DC4AA97E6263542A1A0EF39B31C277C
:1012B00063D27F75C01EB4FA4D7A818139E0792FEF
:1012C00094A5283A437E97B594AF2A10380A7F49EF
:1012D00091C06C659AC6C95DD552469874AC93E4CA
:1012E00021B0EB08FAF4412EA6F9C5EDE33798C515
:1012F000DF528241A2F2561AF3A4C6408DB95FAA0A
:10130000751E151E68782B2BF43EC7CBF31360E0D7
:10131000F48579880C227587B751E0D6E3A092D383
:10132000D7E36C5B3EB780E748D6D92F49CC75A090
:1013300004C94888E9CC3241AF30DEC6BC9DF7FC19
:10134000FF69035058A1D6B87B5E60FCCC0014AF97
:101350003A3041B34E634795E4BD5374D0F002B4C4
:10136000FE48196C3F23F79B4411F2C245A637771C
:101370006C10630E1BA7D196CA0D4F5B4351D61458
:10138000B723E799A49F4C7DD7DD0811844D5CE914
:101390006090048B1490F06F26450F208CE36F460D
:1013A00078EB12B45EF0DEEB222762784293BCE861
:1013B00048C088BD0FDE232BD1880AE2B4338E618A
:1013C00036435842AE6BD7F2FE0AC126947ACE8CD1
:1013D0003B435A62EF708AFE4DD237DBA1B1061B48
:1013E00030174CA0241EBECB64E2CE135CD705A6FA
:1013F000763938F3852C160EB3E23DFF79880B93CE
:10140000EFAD55CDB4EF8FB8167A05C05E920F4F91
:101410009858D422AD4325317852C69ACA5EA64E5A
:1014200079979ABBDF6DF1E2D0B3CA2A5C46825C41
:101430001EDDD0C519892B2CBDC084D9333967E492
:10144000E47926B69D1C1DE470A5A76189254A573D
:10145000337D0DCAF3CC22AAD7D9CBE6B296461576
:101460009568D80FDF6B36DA198216CE384ECFF278
:1014700036C880075388042FB214195DC56CEF95E8
:101480009C608B6AE4FC9DB29CED1D9C1BCAA3264C
:10149000DD9C635B3B882BBA2235240148EEA04FCC
:1014A0006E964E2991AAAF5647BD7BDDA15599D8BE
:1014B000B5A147937BCD7BCF65DE5018F20549F18E
:1014C00099D894213F7D52C6B1B4E19FF07E60640B
:1014D0008B30E4AD2C97FB47F70901047BF4F7A7A9
:1014E000A804A57F0858796D26276AD0D9AFC1C74F
:1014F0001223E1AE98A40FBC1BFA9D910B1515A504
:1015000024531A13E0C30095389C364CCFF6A9BC7F
:10151000C1530604F46FBF57E0A614A649707F3983
:101520002A4A5A593633B90D4725393704777C454D
:10153000AC19932549E07A7BA2C695768D3C79B1AA
:10154000A7C38363032347D7ACFB84166F22490BE1
:1015500097AAD538575E2BBBA749EDD2D57A96BE50
:101560008DF5F94656F52FA7A87AFF3FE7E88CF1ED
:1015700048E846CB4D25F935932FCE8BB8A9C5D376
:10158000D22771866F72D9CA4E90D36DB13CD3CB3E
:10159000C9303A26459D66445C5FD8E3907C1BD8F1
:1015A00082DDD384D4C61B58BF02A53B100A3EE39C
:1015B00009940B99882B47A79089C4482536DB727C
:1015C00031ACF5A30115D0E62161EB5972DC94989A
:1015D000F7B0F9FAC10A7EDC69CE905E82110B97F2
:1015E000E29955A23DFAEB88BC4DC2548D5FDEA353
:1015F000E248132046C5A08104C42B9A8415B89EE6
:101600009B62A1EC7D083CAD214B89FCC6967C3ADF
:1016100041358A13BD1B43BF367A4ECE709E2AF6E3
:101620003933C7334B347D2A81FA252EC5C4A1280E
:101630000ED54D15E069127119AAFF59488156530C
:10164000C935124D84699136D8ADF754D58CF9C699
:1016500084126222F1B92B1DA57C567A4D5AC4F032
:101660009D8F5DB59A7FE7B7A85D6D37E4F2EA7AA2
:1016700073F8FC6717F3D960090E8B0FE2F98361E9
:10168000DF5369D0EE4251B5514864F8DD3EEEA714
:1016900047F07C4BBB2B8EE28B6057634B9BAA675A
:1016A00063EAA3D57C4341A95474D286C31142692D
:1016B000C5093E8F94AFC599BBBBAC61646101F2B3
:1016C000D359B1415091166CCC9BEC5CFE3BB3EC12
:1016D0006ED7F10E5A8A5F1DB0C576542607BC66D8
:1016E000F0ED519A1FE8F751588E1E80991FEED6E3
:1016F00043CCFA2FAE80F2A8A8AE437C8076D41AF1
:10170000D4737461DFBF296F561593075892F11D8A
:10171000E87B68B2542030012DC5D8FD6150140F0C
:10172000584C1A5400127E46990C9DD1A304F182A4
:1017300017FEFC12E57581AFFF3D08D539874A8E4B
:10174000F07AD4D0D6CFA9D6594841C268E3A4359F
:10175000458D141AC444892C63C8AF7BAC3543272C
:10176000BE7ECF56403DA5AC0F97CCD46ED031D7BE
:10177000146045AEDF0AAA33B388E01C26DC00B84B
:1017800075C86711A1B58771F94A6AEC3F0E41210E
:10179000C24F928F1753EED5EA4F917502590294BA
:1017A000E4DA4AB3AAA72E9CC780465EBD06331D65
:1017B000D85D9F5F77730A7D386BA70E8F4E7D01D2
:1017C000DA4474D2F17A2F7FE1ECF1A57D033B2F4F
:1017D00017B6E80D333C2191915B302C11C6586A45
:1017E000E4351BB5A847B3FFD0960E484E97376037
:1017F0001204FFCBA5F51D409CDF36123DD92A729D
:10180000DAE88BE45BCFE93852EC2CA0F779AD2015
:1018100070592062739CE34609C912D47755074B6F
:101820006A261E5D0778104E4ADA5EF63B9B8DFDF8
:1018300048D0BBAA212EF5DF854CA71D1A261BA078
:1018400082867F4B02D2F660C9860C1DBF73698603
:10185000184B44BC74E5821793B50A5608B74A730F
:10186000B804D214215E2CA0E0C2015FDECE642A4F
:10187000D8652BF074E354BFA09B50BA02002C959E
:10188000CE2A4FCF2B2B0E9BDD8F675B54A1472EAB
:10189000842E24FA34E05A103BCFAFE2ED28D11762
:1018A0006B9A1B496CFCCB7A74092A415AFFA1F54B
:1018B00098C60CD26983D2C369875E7EBBFCC0D157
:1018C000C117D79BE15370B743D038252649405BF9
:1018D00057BA4932AA9F39AA8E73008513796DF1E0
:1018E000912F9EA3A0657C7D53B47053016B925FD2
:1018F00038F1D73D7AD607727ADBA165A50741009A
:101900004BEBC5D03BEB3061420D4BA3D8078B129C
:10191000F5893D7CFB2E79A7BCD5BF729AD81539C5
:10192000AD2570D16CB05DBBF43AF66056FAF2A505
:1019300028AE0D76B379F14BC72E6EB6616222D90F
:10194000A730234521DE478CEBE54C8B4E79A09DDB
:1019500095B305AAAFECE67473F0DC37AD933B208A
:101960006DA1D8CFF97E9EC6BB406456A6187528D7
:10197000D2BA78645C484570358C499A454A6DF214
:101980009C8D480A612EE3D4EEA829404B53BB56E8
:1019900039CE816CFD37A0791CC794176C37EA9754
:1019A000F4D8D49F9F304FE5A408B86BAEB9BC4FB4
:1019B000612044DF92DB1E0483C0A12C09D8DF2103
:1019C000F0200480AF7391BC0EBAE4F79B363C3034
:1019D000F1B4BADCFA65F22B1D184E1662D4AC8B4A
:1019E00021A5A2F132C3C965632D316BB88FE12403
:1019F00093870499E6BDBA283063DAACC799378A71
:101A00008666B344D584AAA15342A0381E5DF7056B
:101A100029E7CA2A0B6AABCEF03AF390E6D125A1AA
:101A2000331C33997D24D17423FC6F7DDBA7E9C27D
:101A3000DE17122D1CB37E880308757D9A4937AFD7
:101A400060047CBCD31C53703497EBE1CD3079A299
:101A50008694585A99C269D7B232626C0A3669B113
:101A6000354841CE79967A0D2D33BF4D2FB8D8B376
:101A7000FBE47193B9180D51ABBB09D90DD7671EA3
:101A80004728C7F7CE605828235E95FC2BDBF90D5D
:101A90001FAB49E6D0A7377920E4CF05E36421AC3A
:101AA000DFB1E8F9E04C3B5E89682A48C5640EDB8B
:101AB000F1538B1A2FF60C189C529B212E4AE7D615
:101AC000BBB71A0A22AB4AFDD3027D21FFB90E0F24
:101AD00029ABACF4445E0FD5F357E54F61724EBAB3
:101AE00055378F9A1CD4B830AF0A951A1386D40A8A
:101AF000835C991B2BC093F513F5EAFB6F75746C2F
:101B00002E77C344C53862B9F5AC58B4966EA4A517
:101B100045B51B7C9D219516EE29572012BBF80A6E
:101B20002325AC51FD7AE09D43B0276F2ADF0408DE
:101B3000D3F11D3C128DAFF2D7B9029D46E3ABFF46
:101B400061C8612B19C8C1A16D0AA744FAB5A8D70D
:101B50001E53156F7A4841E930B5ADE2F070406A26
:101B6000F331DD1950E5BCB43D839FDFC8252790D4
:101B7000405B32044781FA53B40A40157A745BDB48
:101B800024AB3AB791E344B747073990D2F5A90897
:101B90004658DC3210A347320445441371AC2EA7DB
:101BA000C971D0F9517ECAE509A81E775B3A08AA27
:101BB000431CD68D6091466D64569E162ECEB39909
:101BC000C8F655271384BC8AB3C8F51A72F76A0C95
:101BD00046952F4A86B6D29894F1C3370E0C8711DA
:101BE000567EAFDA22296FEBFAEC96E0276B42A122
:101BF00070091AAD4888DAFCE13B629528567028D6
:101C000003B258678D0AEA9A1595515F8307092038
:101C1000BF37AFF70A743CA552F1E3F55830E1172E
:101C2000DE98F1387BF0AFBD165952996C7470484C
:101C30007714FF534184BCC5372F71843DF5467C32
:101C400063E000A05607F78C6357BE545CE1FDAC1F
:101C500035FAC2D5F25ABE7C318EBDDBFE4D036F24
:101C60005EA61F232DCA68F0C614CCC33EF021D453
:101C7000402A72B67EE285D68AFB48512777E4CBAC
:101C8000CD2FF6E1BCFEEDA1145FE532FCCFD9FB10
:101C90002FE9AD7D2D68E79A15956A4AE4ABE4EB30
:101CA000E00D40BDEF8FB975B439086DC09F04FFDA
:101CB000CCDE13304EB6E4E0CB69E5C61C2F436A98
:101CC000632572D5DFBDDC0BE9089D3D266FC38916
:101CD000F818AC42BF4E9D5D28B0264136768D8601
:101CE00084FAD8D467581969202D35FE09D98CFD9E
:101CF000F921A157DF17AE8ECBC97F2654DE1043E2
:101D000072DDBC18B934F9AB70F9744D8E6D2A339D
:101D10001406D071E6ADAABE862E9A8D8788AF03D1
:101D20009FCBF8789A663809CDAE89C2CCAF6A16D7
:101D3000140948AE9B55E40FA586A1757F7CEF0D75
:101D4000CB3AB30D1F020C801FB4F4E0A641CC8740
:101D500000406143E7FCB40124CA4534253C39FF07
:101D6000098C39855A5BCC273CBD28438645179A98
:101D70004E3524A423A2FDCA6CD4FBBAE741B3FBC1
:101D80007C5507B56E3EB12972CC38EA273080B950
:101D90008CB8EE54AB3EDBDD06D095EA3E42886B54
:101DA000AE89C7E84C38B693F6BE4C204A8CCE2B91
:101DB00022D272494618568070675AFAC0CA6D53CB
:101DC00021CAE3866891D37CA9D5AD6A72A1FE537E
:101DD000E94085EA62A963753A2DEC9BFE58D873F9
:101DE000205210435C2DB421B9961F726DBA42EA9D
:101DF000F285BE5212A7B13E2B89EF0F73057C9975
:101E0000C3C55F9653F8AF9B7A49A044546055F020
:101E1000103A608D905065AEF779DB2E08F9BBF271
:101E2000D278D086B594A10EB98189B7F9C043E8BC
:101E30008F3819DAED2FA75CDB01B338CEE6C3F299
:101E4000D5AA879E116FD805F072ABD9A10FFF46B6
:101E5000E94A8C0093E9866F6B1470BEB1B889C9EA
:101E6000CC7D1A11D279FBD9D72413948F019C4BC6
:101E700069336601829888F84C13310F58C10611F6
:101E800030B48991349B89FC75CD11CA1A6FFA71EF
:101E9000D645E70FEB3909B35A131FAA3A93CF8DF2
:101EA0006ECAEC2C8EC5831B5AD6D189AC024FCB9F
:101EB0000F257696E05D2CFFA7EAEA92F1725BEEC1
:101EC00008D8848AA959E31277DAD6CA4E362D7C0F
:101ED000A413D1E818319902540AD07A74A0AD2C19
:101EE000834A6FF1B1501B6469E8842F2CC8EB95CD
:101EF0003DA518C74B82FC88E1D37B0EBE10BA65A6
:101F000002859B469A377A774DC2C4533067915405
:101F1000F63D39444342132E0929FD50A6DA94CEEA
:101F20008697102B5C1C09CD0FFC15DC543B53E14C
:101F30007CA7E1FD47C2AF7EEA340C6FE65C04305B
:101F40006C84C751E3B55F349EDD050C1CD4BCFB2B
:101F5000CD3AAEBC529254852CED0FFBF873105D58
:101F6000D81F06E0A15926B4393FC119F9D4BE4F94
:101F7000F433EC3F3FFE8F91D044F21278909E797B
:101F8000A927EE05CB9F5A4B15DE6739181FE73A94
:101F90000A4198E7DEA728A0D354663379B53A837F
:101FA000375F25407047B8796B62963F48EA9F6E6D
:101FB000CB35E16F2DC4C24B9BA74D05790E1CFE9E
:101FC000095A9F87227A131B9F994D05DB1573D8F9
:101FD00065FE395EA4437B6C79BD73914C9B4C9438
:101FE0001887EA68A7449F5C3666FD41145EB18E8F
:101FF000EB45DA770EE0EC5EF40DBF41C648F01514
:10200000D860F74076237B1CE559445030CE064E0D
:10201000C5A670C31817A237ACBF2C6FBC9B3F5826
:10202000121110390018DB7D0BD22CEE0AAF76941A
:102030007AC15C21D2619F1D7A9695DFA45181E619
:102040001BD57C3644F060FF3AF632EC8FE09AC73D
:10205000E3BCADEBA694714B6D38974C36A275FF7F
:10206000FB3FEB60E131B1BC32776CBD49934BC2B1
:1020700007BAF067FD68CAF5A4FF2A5EE2BEB5693B
:10208000B2A063931BB4BD4612FAEE885F46DFB27E
:10209000BAE8BA5447EA18FA0891779B1C878B0173
:1020A000709EC0052BAAD7AF30A8018B28A0F5954C
:1020B00099325F08C4EF65453CC36DEFB8349D1C91
:1020C000046686F2BC9D8797BE08DD58DD530F7D00
:1020D000EC930BB95BE3087615DFC7682FA8F84DC2
:1020E000338FAE0884C3E8CB9C718009D71163217C
:1020F000040EC6F0509E0AA799149A5AF9AA5F06D0
:10210000DF5C52374B390C7E18C1ABD636F578BD43
:102110009F790EF233610EC30B5A24023F42353DC4
:10212000A4ADC5305076E7E34508661821EBDD1411
:1021300076F8F155E83B9D8B9392FFA7803438C227
:10214000AD7CFFBD232B0B2C5FEAC09500FB8C37C9
:102150006B8A42913EEFD65143216F803EBDF2B370
:102160002407A5924A76513172354725E7B9D0F454
:10217000C2DD52353A23C416FA2A8D99D0B953C21A
:10218000125C3FCE8DDBD1C8D159E588FF4911AB38
:10219000AB7BD1F2B43749A0B1FEFE6C08761D0BC3
:1021A0009AF4B16DA0F220E417A74D85B38E7ACBD7
:1021B0008730AF119020A819EA2207FAC14CE8FC39
:1021C000A2038F2AC536E4AF669BBA0ADD6590DAB2
:1021D000D72762D9193BABF666892DA53070E9AADD
:1021E000E2D9C12347FD9A254A5F896297614B91E5
:1021F000FC341BFC97B27B87F454FCD63648C2876C
:1022000079A3C48F42B13147DDE8D00A714722F388
:10221000F49F287A700CBC5930E0E4132465BD4C5F
:102220000E6D9E4D15901972C928B6950E92F979CA
:102230005C64B9B97BD7DCB4B9B4967F7255AE1E75
:10224000B0028E45BDF0A590B7301240B6409CF16B
:102250006263726DF0BA1AF6F0406A47A2FC9BD82E
:1022600070191AF524F64D2F64FDF7C3FDA7455DDF
:1022700094318FD69F5D216641D43951AF618C1E58
:102280009F0611E97A8831E126B61C7406F5983567
:10229000171AAB193A8CC60E7E14D06E441C6661B8
:1022A00067F18E287230D2BF7D6F08179962EE7881
:1022B00018543AD57F61AC10833E2C924F5A9859EE
:1022C00097FB8297ADC873A26C0D06CF0A69DAEB53
:1022D0009EF7677FDEE8830B465A3F02B3607FDCE0
:1022E000A3FF148ECFA26572CE3E11392D94944770
:1022F0008EC78C706B7C498E3CD74C02C877A5FD8D
:10230000BA9A0A1A1BD94A8303DFE2756E28D96389
:102310001F021827278F4BE7000000A90201000CBD
:10232000010C010F000C100F00011E0C0100100F1A
:102330000000010F00010F0C01011E02013F065BAE
:102340004F666D7D077F6F800000000000442A3CCF
:102350005422082A1C2A0808083E08080808080809
:1023600008006060000040201008043E4141413EEA
:1023700000427F400042615149462141454B31189E
:1023800014127F1027454545393C4A4949300171AF
:102390000905033649494936064949291E0036369A
:1023A000000041221408007C1211127C7F49494927
:1023B000363E414141227F4141221C7F49494141F2
:1023C0007F090901013E415949327F0808087F0011
:1023D000417F41002040413F017F081422417F405E
:1023E0004040407F020C027F7F0408107F3E414145
:1023F000413E7F090909063E4151215E7F091929A5
:1024000046264949493201017F01013F4040403F92
:102410001F2040201F3F4038403F631408146307CB
:1024200008700807615149454300007F00002054AF
:102430005454787F48444438384444442038444411
:10244000487F3854545418087E0901020C525252E5
:102450003E7F0804047800447D40002040443D0055
:102460007F1028440000417F40007C041804787CE1
:102470000804047838444444387C141414080814BC
:1024800014187C7C080404084854545420043F4425
:1024900040203C4040207C1C2040201C3C403040E0
:1024A0003C44281028440C5050503C4464544C4444
:1024B000808080808000FFFFFFFF01FFFFFFFF02A1
:1024C00003FF0405060708090A0B0C0D0E0F101177
:1024D000FFFFFF12FFFF131415161718191A1B1C04
:1024E0001D1E1F202122232425262728292A2B2CA4
:1024F000FFFFFFFF48FF2E2F3031323334353637A0
:1025000038393A3B3C3D3E3F4041424344454647D3
:10251000FF2DFFFFFF3711241FBECFEFD8E0DEBF36
:10252000CDBF14E0A0E0B1E0EAE7F3E702C0059018
:102530000D92A83DB107D9F727E0A8EDB4E001C09E
:102540001D92A038B207E1F712E1CBE8D2E104C056
:102550002197FE010E94A539CA38D107C9F70E9408
:102560007D380C94BB390C940000EBE7F4E081E07B
:10257000818310820895EBE7F4E081E0828310828A
:102580000895B0E0A0E0E7ECF2E10C947639EC01BC
:10259000241708F020E031E0211101C030E0340FB1
:1025A000FE01E30FF11D1082F0E0E0E0842F821BBA
:1025B000990B5C011EE28AE0C82ED12CE417B8F416
:1025C000222341F0AE16BF0629F43150DE01A30FDD
:1025D000B11D1C9331507E01E30EF11CCB01B601FD
:1025E0000E94EE38805DD7018C933196E7CF2111A0
:1025F00001C0242F80E02150330BE82FF0E0E217D8
:10260000F30744F4EC0FFD1F9081903319F400831D
:102610008F5FF3CFCDB7DEB7EAE00C949239E62FA7
:10262000E695E695E695880F880FE80FF0E0EF59FC
:10263000F94F677021E030E001C0220F6A95EAF798
:102640008081822B808308959091590780915A0749
:10265000EAE3F7E080839183089590E0FC01E55080
:10266000FA4F2491FC01E951FA4F3491FC01ED52EB
:10267000FA4FE491EE23C9F0222339F0233001F11F
:10268000A8F4213019F1223029F1F0E0EE0FFF1FFC
:10269000E753FA4FA591B4918FB7F894EC9161117B
:1026A00026C030953E233C938FBF08952730A9F074
:1026B0002830C9F0243049F7809180008F7D03C015
:1026C000809180008F7780938000DFCF84B58F77F3
:1026D00084BDDBCF84B58F7DFBCF8091B0008F7739
:1026E0008093B000D2CF8091B0008F7DF9CF3E2B88
:1026F000DACF3FB7F89480915D0690915E06A09185
:102700005F06B091600626B5A89B05C02F3F19F063
:102710000196A11DB11D3FBFBA2FA92F982F882761
:10272000BC01CD01620F711D811D911D42E0660F3C
:10273000771F881F991F4A95D1F708958F929F920E
:10274000AF92BF92CF92DF92EF92FF926B017C012A
:10275000D0DF4B015C01C114D104E104F104B1F0FC
:10276000C8DF681979098A099B09683E73408105A9
:10277000910588F321E0C21AD108E108F10888EE3A
:10278000880E83E0981EA11CB11CE5CFFF90EF904E
:10279000DF90CF90BF90AF909F908F9008952FB70C
:1027A000F8946091590670915A0680915B06909159
:1027B0005C062FBF08950F931F93CF93DF93EC0117
:1027C0008B01EDDF607F737048815981942F9F707A
:1027D0009A01207F3370EA81FB818081EC818E2316
:1027E0006217730708F47C5FFB01E21BF30B933065
:1027F000A1F158F4913069F178F0882309F451C0BF
:10280000E034F10538F090E005C09530B1F170F199
:102810009630C9F180E005C081113AC09B01892F33
:1028200091E0207F3370292B44275C7F242B352BAC
:10283000398328838823B9F10115110529F0632F05
:1028400066956695F8010995DF91CF911F910F91DB
:1028500008958111D8CF93E0E4CF81111BC0E034FB
:10286000F140C0F29B0183E094E0DBCF811115C001
:10287000F09780F29B0187E0D4CF882381F09B0101
:1028800092E08BE0CECF882331F392E081E0C9CF94
:10289000892FC7CF9B0196E0BDCF95E0BBCF94E0D9
:1028A000B9CF9B01B7CF933078F288E0CDCF90E0DD
:1028B00080E02091BC0027FD09C00197D1F710925C
:1028C000BC0084E08093BC0080E0089581E008951E
:1028D0008093BC00ECCF089584EAFADF811101C037
:1028E00044CE08958093BB0084E8F2DF811102C0DA
:1028F00042DE0AC08091B900887F8033C9F38834F2
:1029000011F0803209F431DE81E090E00895CF9338
:10291000C82F10927C0410927D04DEDF80917C042D
:10292000811103C08C2F880FDDDFCF910895CF93E5
:10293000C82F10927C0410927D0481E080937E0465
:1029400060937B04662381F0C7DF80917C04811152
:1029500004C08C2F880F8160C5DF60917B046111FA
:1029600003C084E98093BC00862FCF910895DFCF08
:1029700008956DE0DCCF0895B5CF08958091990654
:10298000C6DF80E4AFCF089580919906C0DF80E074
:10299000A9CF089580917B048823C9F0815080934A
:1029A0007B04882339F084EC93DF81110EC0E3DDD2
:1029B00080E0089584E88CDF8823C9F380917E0449
:1029C000882331F084E98093BC008091BB00089596
:1029D00083DFFBCFEF92FF920F931F93CF93DF9391
:1029E000C8E8D3E10BEA14E084579F4F7C01C8018B
:1029F0000197F1F761E070E0F70180819181B7DF25
:102A000080917B04882329F0C5DF87FD02C02197D0
:102A100071F7CDB7DEB7E6E00C94963963CF089531
:102A2000A3E0B0E0E6E1F5E10C947A39F0909A0683
:102A300010E000E020EE280F2983E82FE052FF0B82
:102A4000EB54FB4DFB83EA8385E0E82EF981FF35EB
:102A500008F5EA81FB8184918F3FE1F0F8018E9DBA
:102A6000E00DF11D1124E85BFC4D8491F11080957F
:102A7000D5DF0F5F1F4F0530110541F78F2D819571
:102A8000CDDF80919B068A5F80939B062396E6E0CC
:102A90000C94963980E0EACFE0E8F5E010821382EA
:102AA0008AE086831182148287831282158280874E
:102AB0000895FC012FB7F8948081918111821082D2
:102AC0002FBF0895982F990F890F23E0280F909119
:102AD000FB05291708F4922F089581E090912104B5
:102AE000943009F080E00895F8DF91E08927089597
:102AF00081E00895E09161001092B900EF70E53037
:102B000008F0E4E0F0E0E158FB4F80818093B800EA
:102B100008959FB7F894E1E6F0E020E820838083F1
:102B20009FBFE8CF08959FB7F894309903C081E024
:102B300080936D0580916D059FBF0895982F8091BA
:102B4000390620912104882319F08150233041F463
:102B5000992321F0945081E0923010F480E00895A0
:102B600008959A0136952795620F731F811D911D57
:102B70009A0150E040E00E941539C9010895FC0116
:102B8000DB011B968C911B9783871E968C911E9759
:102B900086871C968C911C9784871F968C918787BB
:102BA0000895CF93DF9380914D06882391F0809113
:102BB0003301823071F4C7E0D1E08885823021F49E
:102BC0006BE271E0CE01DBDF629684E0CF31D807A3
:102BD000A1F7DF91CF91089580913B050895CF93A0
:102BE000DF93DB01E82FF0E0EF5BFA4F80E041502C
:102BF00060F09D9190320CF490E221919217B9F31C
:102C0000EF012197988381E0F2CFDF91CF91089572
:102C10006AE00C94E2380895833041F4643028F07F
:102C2000663020F06A50623008F081E00895861B1B
:102C3000970BBC01469FC001479F900D1124622F46
:102C400070E00E94EE38862F0895873822E09207C0
:102C500058F58C3E21E0920748F1893622E0920730
:102C600038F02FE142E168E672E0E1DF8E5A089524
:102C7000823422E0920738F027E243E261E472E016
:102C8000D6DF815D0895833122E0920738F02FE28C
:102C900048E262E172E0CBDF895F089527E247E016
:102CA0006BEE71E0C4CF089584E6089580E0089546
:102CB0008E508770806480937C0087EC80937A00CC
:102CC00080917A0086FDFCCF809178009091790008
:102CD0000895FC018081280F261714F4408308957D
:102CE000421714F02083089560830895282F44E04C
:102CF00060E085E496E0EDCF08958091220422E122
:102D0000829FC0011124895F9E4F0895CF939091B7
:102D10004D06992391F0C82FF0DFFC012085223069
:102D200061F420913301223041F46BE271E0CC2355
:102D300019F0BC018BE291E022DFCF910895DDDF35
:102D4000FC01818592859093F5058093F4050895A3
:102D5000D4DFFC018091F4059091F5052481358143
:102D60008217930738F0268137812817390710F02A
:102D7000928781870895C1DFFC018085089528EE40
:102D800033E040E050E00E9415393093F90520937C
:102D9000F805089504DD7093FD056093FC05EFCF01
:102DA0000895FDDCECDF81E080937E05089580913D
:102DB0002104823069F0833019F0813039F40895AC
:102DC00080912004823021F081E0089580E0089510
:102DD00082E0089590912104915081E0933008F0B1
:102DE00080E00895F7CF08958436910520F40A977E
:102DF00058F481E00895803127E2920738F4883E44
:102E0000934030F483E0089582E0089585E00895CA
:102E100084E008959AE0899FF0011124E759FB4F5F
:102E200085919491009719F0FC010995089581E02E
:102E30000895E82FF0E0E05DF94F808191E0892767
:102E4000808308958DE1F5DF80914D06882319F088
:102E500081E05CDFA6CE08958BE1EBCF08958AE197
:102E6000E8CF089589E1E5DF8091490652CE0895C3
:102E700087E1DFCF089586E1DCCF089584E1D9CFE3
:102E800008956AE070E080E090E058CC0895249ABC
:102E9000F8DF2C98F6DF2C9AF4CF089584E980931C
:102EA000BC0080917C04811109C080917D04811156
:102EB00007C010927C0410927D04089582E0F9CF3F
:102EC00083E0F7CFCF93DF93D82FC92F8DE996E01A
:102ED00081DDD0934807C0934907C0934B07D09337
:102EE0004C0790917E07992361F080914A07929553
:102EF000990F990F907C8370892B81608D7F8093CF
:102F00004A078091290703DD80913507EBDC80912A
:102F10004A07E8DC80914B07E5DC80914C07E2DC56
:102F200080914D07DFDC80913507803419F4809162
:102F30004E07D8DCB3DF8DE996E04CDDD0933A073D
:102F4000C0933B0760912B0770912C0790E080E0C5
:102F5000F5DBDF91CF9108959C0190914A07937C16
:102F600090934A0780913507803461F0203C310509
:102F700008F020E020934D0780913A0790913B079D
:102F8000A1CF08959D7F90934A0730934D072093DA
:102F90004E07F2CF88E14DDFEEDE833029F08091DD
:102FA000480690E0D9CF089581E0FBCFB0E0A0E0E3
:102FB000ECEDF7E10C94743980915206811157C001
:102FC00080917D05882309F452C004DF81114FC030
:102FD000E6DB6B017C018091F2059091F305C091D5
:102FE000F405D091F505C817D90708F445C04E017E
:102FF000881A990AC40140916F055091700560913B
:1030000071057091720597018601041B150B260B43
:10301000370BB901A8010091790510917A0520912B
:103020007B0530917C0546015701801A910AA20A5E
:10303000B30A95018401023311052105310510F40D
:10304000C297A8F0483251056105710580F0CE01A4
:1030500039DF10927D05C0926F05D0927005E09225
:103060007105F0927205D093F305C093F205CDB7C8
:10307000DEB7ECE00C9490398C1B9D0BBCCFFF921B
:103080000F931F93CF93DF93D82F8091350708E0DC
:1030900010E0C3E2803241F006E010E0C3E4803586
:1030A00019F408E010E0C3E58DE996E093DC809127
:1030B00029072DDC8C2F16DC8D2F14DCEFDE8DE93B
:1030C00096E088DCB8018091290790912A074FDCAF
:1030D000F12CCF2DD0E0C017D10734F45BDCC15BFD
:1030E000D84F8883F394F5CFCDB7DEB7E5E00C94E5
:1030F0009739FF920F931F93CF93DF93C82FD62F4B
:10310000F42E89018091290702DC8C2FEBDBC1E0D2
:10311000DC1738F5CF1528F5D801ED91FC91119702
:10312000CF0101968D939C93E15FF94F8491DADB97
:10313000CF5FC83069F7B2DE8DE996E04BDC61E025
:1031400070E08091290790912A0711DC23DC86FB2F
:10315000882780F991E08927CDB7DEB7E5E00C94A8
:10316000973980E0E4CF80917F0787FD06C061E05A
:1031700074DA8BEA94E00197F1F78DE996E02ADCA6
:1031800080912907C4DB81E190E0F6DB87DE8BE0EC
:1031900097E20197F1F70895EF92FF920F931F9333
:1031A000CF93DF93EC01F62EE72E142F052F12DCC0
:1031B000C457DF4F8881ABDB82E194DB80E092DB98
:1031C0008E2D90DB8F2D8EDB802F8CDB812F8ADB89
:1031D00065DE83E998E00197F1F7CDB7DEB7E6E069
:1031E0000C949639409178075091790761E071E02D
:1031F0008DE996E0D1CF089587E01BDEEBDD8823D3
:1032000049F0809179079091370690FB85F980937A
:103210007907E8CF089571DDDC011F96EC91F0E0AD
:10322000E653FB4F80818ADCE8E7F7E0982F929520
:10323000907F80818F70892B8083D4CF0895282F31
:1032400042E060E089E396E044DDC4DD8111E3CF34
:1032500008951F93CF93DF93EC01162F462F50E074
:1032600060E070E499DFC152DF4F1883DF91CF91A6
:103270001F91089560916E05611116C0809123041D
:1032800090912104943091F490914C06981710F489
:10329000682F691B80910401861729F0609304014F
:1032A0008DE996E0D6CF089560E0F4CF682FF2CF95
:1032B000282F4FE060E08CE496E00BDD8091210444
:1032C000843009F4D7CF0895282F4FE360E084E3DA
:1032D00096E0FFDC80913507803241F04091340662
:1032E00050E063E073E38DE996E056CF0895282F10
:1032F00040E260E083E396E0ECDC59DD4091330688
:10330000E82FF0E0E058FA4F4383809121048430A5
:1033100031F050E062E073E38DE996E03DCF08952F
:10332000CF93DF93EB01AC0160E074E18DE996E0AF
:1033300033DFAE0161E074E18DE996E02DDF4AE014
:1033400050E062E074E18DE996E026DFDF91CF91F5
:103350000895E82FF0E0E058FA4F438150E062E032
:1033600073E38DE996E018DF4091340650E063E0A6
:1033700073E38DE996E010CF0895FF920F931F93AA
:10338000CF93DF93F0903E06C5EBD2E00DEC12E058
:10339000FE0165917491FE01329645915491F110B0
:1033A00002C0452F552755278DE996E0F5DE249676
:1033B0000C171D0769F7CDB7DEB7E5E00C94973918
:1033C0008EE037DD80912104843009F4D6CF089552
:1033D0008B3008F085E0E82FF0E0E25CFD4FE491EF
:1033E00084EF8E0F8F3470F4E0933F0784E591E013
:1033F000E89FA001E99F500D112463E071E38DE97E
:1034000096E0CACE089590912104943079F0282F47
:103410004AE060E081E396E05CDCC9DCE82F809163
:103420003106F0E0E058FA4F8683D2CF0895AB0121
:10343000BC018DE996E0B0CE0895282F4FE060E002
:1034400080E496E046DC80912104843031F4609180
:10345000400670E083E093E1EACF0895282F4FE122
:1034600060E08FE396E035DC80912104843031F414
:1034700060913F0670E082E093E1D9CF08956091BA
:103480003C066F5F70E080E091E1D1CF08958CE061
:10349000D0DC80912104843009F4F1CF08951F938A
:1034A000CF93DF93C0912104D09120041C2FC3300F
:1034B00009F41D2F22DCFC018189F4E68F02C00192
:1034C0001124123019F491958195910970E060E012
:1034D000C33059F460913B0624E66202B001112426
:1034E000D23019F47195619571092091EF053091F1
:1034F000F005820F931F680F791F7195619571090F
:1035000080E091E094DFDF91CF911F910895282F03
:1035100048E065E08BE396E0DCDB43DC809121044E
:10352000833009F4BCCF0895CF93C82F24DC8330B7
:1035300079F02C2F49E167EE86E396E0CADBDDDB0C
:1035400020913606FC01218B2CDC44DC8111A7DFA5
:10355000CF910895B0E0A0E0E0EBFAE10C94783967
:10356000AC018B012091F4053091F505A8EEB3E094
:103570000E9459396B017C01F4DAEC01A801C70102
:10358000B601EFDA7C01BE0184E091E350DFB701C0
:1035900085E091E34CDFCDB7DEB7E8E00C949439D9
:1035A000CF93DF93EC01FE0185919491009739F060
:1035B000FE013296659174913ADF2496F4CFDF9143
:1035C000CF91089585E035DC80912104843039F075
:1035D00080913506811104C081E693E0E1CF089522
:1035E00089E693E0FBCF8DEC92E0DADF60913F0655
:1035F00070E082E093E11BDF6091400670E083E0C1
:1036000093E115DF81E293E0CBDF80913D068111EC
:1036100004C081EE92E0C4CF089581E093E0FBCF37
:103620008DE007DC80912104843009F4DCCF08951B
:103630008091210481110CC09EDB823031F4809195
:103640004106823031F0833051F082E392E0A8CF1E
:10365000089560EB74E080E496E07CCF08956CED13
:1036600075E080ED97E0F9CF282F43E060E081E43A
:1036700096E02FDBDDCF089570E060E082E095E119
:10368000D6CE089550E040E061E070E48DE996E028
:1036900083DD109273050895282F4CE360E082E3E8
:1036A00096E017DB80913206811104C0809173058A
:1036B0008111E8CF0895B0E0A0E0E1E6FBE10C94D1
:1036C0007539EC01D62E142FFC01E856FF4F80818E
:1036D000803261F098E0E92EF12C02E4803451F060
:1036E00026E0E22EF12C02E5803521F088E0E82E7C
:1036F000F12C02E2CE016ED980E0D0FA80F910FB05
:1037000081F9182F13706E018CE8C80ED11CF601D8
:103710008081FDD8802FE6D8812FE4D8BFDB5E0101
:10372000FAEBAF0EB11CCE0155D9B701F60180817D
:1037300091811DD9912C092D10E00E151F054CF417
:1037400029D90C0F1D1FF801E654FF4F8083939475
:10375000F2CFF501808186FDE6CFCE013BD9CDB712
:10376000DEB7EBE00C949139B0E0A0E0EAEBFBE1CE
:103770000C947739EC012ED9FE01E457FF4F80817C
:10378000C6D881E090E0F8D8FE01E352FF4F808177
:10379000A9D8FE01E252FF4F8081A4D87FDBCE0181
:1037A00019D9FE01E057FF4F6081718190E080E000
:1037B0000E949E13FE01EE51FF4F808187FD07C0DE
:1037C00060E00E942D138BEA94E00197F1F7FE016F
:1037D000ED55FF4F8081811123C08E010A551F4F87
:1037E000F801E080F180A70161E072E0CE01D4DC55
:1037F000F801F182E0820C5F1F4FF801B0807E017A
:10380000F8EAEF0EF11CF701C080D180A60162E05A
:1038100072E0CE01C1DCF701D182C082F801B08232
:10382000CDB7DEB7E9E00C9493391F93CF93DF93C4
:10383000EC01122F90933707809336077093390766
:103840006093380781E090E090933D0780933C07B8
:103850004C175D0720F06417750708F0EA01909196
:103860007D072091400780917A073091410730FB16
:1038700087F98F7920FB84F9807F816080937A07B4
:1038800090937B0780E48093350780914A07807C82
:10389000816080934A0710924D0781E080934E0724
:1038A0008DE996E061DF60917C078DE996E0D1DCDF
:1038B00010937E0782E080933E07D0933B07C0932E
:1038C0003A07CE01FFDADF91CF911F9108950F9350
:1038D0001F93CF93DF93EC0184E080932104109237
:1038E0007405ED850E2E000CFF0BE054FB4F20817C
:1038F000022E000C330B89859A854E815F810C81E5
:103900001D81109337070093360750933907409372
:10391000380730933D0720933C078017910720F02C
:103920004817590708F08C011EDC90917D07209103
:1039300040073091420780917A074091410740FB50
:1039400087F930FB86F98F7D20FB84F9807F809397
:103950007A0790937B0780E28093350780914A072E
:10396000807C836080934A0710924D0781E08093AA
:103970004E078DE996E0F8DE60917C078DE996E0D0
:1039800068DC10927E0750E040E060E07FEF8DE958
:1039900096E002DC83E79EE10197F1F710923E0783
:1039A00010933B0700933A07C8018CDA6E817F8140
:1039B0008C819D81B5DC89E493E0F2DD10926A058B
:1039C000488950E062E071E18DE996E0E5DB57DD82
:1039D0000ADED3DCDF91CF911F910F9108955ECA6B
:1039E00008950F931F93CF93DF93082FD62F142F93
:1039F000C22F0E94C41481E211D8802F0FD8812FCA
:103A00000DD882E20BD88D2F09D88C2F07D8E7DF8D
:103A1000DF91CF911F910F910895E9E9F6E082833C
:103A2000638370E093E0759567959A95E1F7262F8B
:103A30004FE7D7CF0895660F660F660FEECF089554
:103A4000EF92FF920F931F93CF93DF93F12CE12C12
:103A50000097A1F0EC010E94BE148E017801EC1ACF
:103A6000FD0AF80181918F01882339F090919B061E
:103A70009A37A0F70E941015F1CFB1DFC701CDB77B
:103A8000DEB7E6E00C949639A4E0B0E0EAE4FDE1AC
:103A90000C947839082F80914F06882309F43CC094
:103AA00080914A068130B1F080E102D918161906DA
:103AB00014F08BEE91E040912504509126044F3F85
:103AC000540751F49093260480932504BED8809324
:103AD000280418C08FE0E9CF6FE0649F9001659FD4
:103AE000300D1124820F931F24E0959587952A9518
:103AF000E1F79093260480932504A7D89091280499
:103B0000891303C010924E0607C090914E069F5F26
:103B100090934E069A30D8F610912804809127048D
:103B2000181301E00E94CF136B017C0180915006B5
:103B3000909151069601281B390BC901813197429A
:103B400010F40023F1F080912F06811112C005E2DC
:103B5000143608F000E268E38CE65FDF1436A8F064
:103B600081E3898380E38A838B831C82CE01019663
:103B700067DFD0925106C09250068091280480934E
:103B800027042496E8E00C9494391A3040F0812FF1
:103B90003FD8805D8983905D9A830B83E6CF80E276
:103BA0008983105D1A83F9CFA3E0B0E0EAEDFDE16F
:103BB0000C947C3980912F0681111EC080916E0576
:103BC00081111EC06091230470E000E220E042E019
:103BD000CE0101960E94C1121091000660E082E7BA
:103BE0001CDF81E0113009F080E080939A06CE015D
:103BF000019626DF10929A062396E4E00C949839F9
:103C000080E289838DE48A831B82E6CF90916E05E2
:103C1000911115C020912304482F880F550B240FB4
:103C2000352F311D37FD06C02034310514F02FE348
:103C300030E0922F909323041DDBB6CF08951092AD
:103C40006E05FACFCF93C82F80916E05882341F07F
:103C5000C3FD10C0C13011F4663061F481E009C0C9
:103C60008C2F8370833031F4CB3021F08FEF6630AE
:103C7000A9F3CCDF8C2FCF91089580912F0681116D
:103C80000CC080910006813041F080916E05882340
:103C900029F010926E05EEDA87CF08958091230403
:103CA0008823D9F380936E05F6CFCF93C82F0E9457
:103CB000BE1480919B068A3718F48C2F0E94101531
:103CC0008EDE81E090E0CF91089568E388E1A5DE83
:103CD00080912104833091F020F48130A8F480E2B7
:103CE0000BC08430E1F7809174058823C1F3809183
:103CF0003E068111F4CF8AE2D8CF08958091200446
:103D0000813041F085E5F8CF80913A06813039F76E
:103D100083E5F2CF8CE4F0CF0F931F93CF93DF9323
:103D2000D0E0C0E00097A1F08C010E94BE14D0E06A
:103D3000C0E0F801EC0FFD1F8491882341F09091C1
:103D40009B069A3710F40E9410152196F2CF47DE99
:103D5000CE01DF91CF911F910F910895A4E0B0E0C3
:103D6000E4EBFEE10C947C3960E080E056DE09E98A
:103D700016E081E0F80181838FE192E0CDDF809150
:103D80002404805D89838CE78A8385E38B831C828E
:103D9000CE01019655DEF80111822496E4E00C94E0
:103DA0009839FF920F931F93CF93DF938A01F22EDE
:103DB00042DEC9E9D6E0F982C801AEDF1982CDB78B
:103DC000DEB7E5E00C9497390E947D16FC018091E6
:103DD00021048330B0F48130B8F0E78548E051E049
:103DE000E40FF52FF11D44918091000621E083300E
:103DF00009F020E050E0425F5E4F67E088E2D1CFFB
:103E00000895843029F00895E68541E051E0E8CF37
:103E1000E0894CEF50E0E4CF0F931F93CF93DF93F3
:103E2000D0912104D33031F1C82F0E947D168C012E
:103E3000D330D0F4D13018F12C2F45E060E00F964C
:103E40000E946916D8011F96EC91F0E0E653FB4FF3
:103E5000C0818C2F0E949E158295807FCF708C2B05
:103E600080937807BFD902C0D43041F181E00E942D
:103E70008616AADFDF91CF911F910F9108952C2F05
:103E800046E060E00E960E94691680913507803406
:103E900069F7D8011E96EC91F0E0ED53FB4F40819D
:103EA000473020F750E0516062E071E38DE996E021
:103EB00073D98DE996E00E94EA14D8CF2C2F219572
:103EC00044E060E040960E946916F801408950E0A5
:103ED00062E071E18DE996E05FD9C8CFCF93809120
:103EE0000006C1E0823009F0C0E02C2F45EF50E021
:103EF00060E082E256DF0E947D16FC0133859485E6
:103F0000858520912104213028F0243088F08C5FB1
:103F1000243009F0832FC0939A0627E0829FC001C6
:103F200011248B579F4FF8DE10929A06CF91089577
:103F300087E0890FF0CF0F931F93CF93DF93D82F94
:103F40000E947D16C0912104C13060F08C01045F95
:103F50001F4F48E0C43080F08C01035F1F4F42E0E8
:103F6000C43051F08C01055F1F4FDC0118968C9115
:103F700046E0823008F443E02D2F60E0C8010E9443
:103F8000691681E00E948616D801EC91C43079F45C
:103F9000F0E0E054FB4F808190E090933D078093E8
:103FA0003C079CDFDF91CF911F910F910895C111C4
:103FB000F8CFF0E0EE0FFF1FE056FB4F80819181BC
:103FC000ECCFCF93C82F0E94C4148DE80E940E1529
:103FD00080E1C11184E10E940E158EEAC1118FEAC1
:103FE0000E940E15FCDCCF9108951092290481E007
:103FF0000E94891580E0E5DF10925206089581E065
:1040000080932904809149060E94891581E0D9DFB7
:1040100010925206089580912904811102C0EFCFB9
:10402000089580912F06811101C0DFCF0895CF93AD
:10403000DF9327E04FE760E080E0D3DC0E94BE140E
:10404000C0E0D4E080E00E940E152197D9F7C7DCCC
:1040500060919C0680919B06E0DCDF91CF910895F2
:104060000F931F93CF93DF93C82F68E080E0D5DCD8
:104070000E94BE14CF3F69F4C1E8C15021F080E036
:104080000E940E15FACFABDCDF91CF911F910F91FB
:1040900008958091210421E1A1EBB3E00EEC13E03F
:1040A000843029F42CE0A2ECB3E00FED13E050E0F3
:1040B00040E0942FF801E40FF51F64916C1758F459
:1040C0004F5F5F4F4217A8F3EFEFE20FEA0FFB2FAE
:1040D000F11DD49123C0FD01E40FF51FD4914423B9
:1040E000E9F09150292F30E0F801E20FF31F94918D
:1040F0002A0F3B1FF9012491E62FE91B79F0C91B18
:10410000D21B6E2F70E0CB0195958795CD9F800DCA
:10411000911D11240E94EE38D22FD60FDD2389F095
:10412000F0E8DF9FC0011124489661E370E00E942F
:10413000EE38D62FC62FC15020F08CE00E940E150D
:10414000FACFC0E8CD1BC15008F49DCF88E00E9493
:104150000E15F9CFCF93C0914306282F43E060E0BE
:1041600083E496E00E946916C1FF06C08091430671
:1041700081FD02C08FEF74DFCF910895CF93E0915E
:104180004206F0E0E259FF4FC4910E94C41481E856
:104190000E940E1581E08C0F0E940E1520DCCF913D
:1041A000089590914206890F8A300CF089E087FDCE
:1041B00080E080934206E2CF0895A8E0B0E0E3EE0D
:1041C000F0E20C947639439A88E08093B8000E941C
:1041D000B3188DE996E00E94EA14809129070E94A5
:1041E000871481E090E00E94BC148FE190E00E946F
:1041F000BC1485E090E00E94BC140E944E175E0142
:1042000089E0A80EB11C8DE996E00E94EA1468E0EE
:1042100070E08091290790912A070E94B7148E01BF
:104220000F5F1F4FE02ED12E0E94CA14D8018D932C
:104230008D01AA16BB06C1F7898186FDE4CF8BE00C
:1042400097E20197F1F78DE996E00E94EA148091D8
:1042500029070E94871481E090E00E94BC1481E34A
:1042600090E00E94BC1485E090E00E94BC140E9483
:104270004E1760912D0770912E0790E080E00E940C
:104280009E1362E370E080E090E00E949E131A8229
:10429000198210E000E0F12C0539B1E01B0740F471
:1042A00030E020E00138110590F020E031E00FC04F
:1042B000063FE2E01E0748F020E033E00F3FF3E066
:1042C0001F0728F020E034E006C020E032E085E15E
:1042D0000115110509F086E14F2D50E0FA01E15872
:1042E000FD4FE491E20FF32FF11DE017F10709F004
:1042F0004EC0F394475B5D4FFA01449192E0C92EA2
:10430000443618F04456CC24C3942E2D3D2D60E045
:104310000E9479188823C1F0CC2059F02E2D3D2D14
:1043200048E06C2D85E10E947918882369F00F5FC1
:104330001F4F0F5F1F4F0135F4E01F0708F4ACCF8C
:1043400083EE93E00197F1F70E947D1620913507E7
:10435000203281F0DC011F96EC91F0E0E653FB4F38
:1043600080818F7080618093780780E980937907DE
:104370000E94F21888E48093B8000E947A1581E0C8
:1043800080936A0543982896EAE00C949239C12CF0
:1043900048E0BBCF1F93CF93DF9391E018160CF04A
:1043A00090E0CFEFC80F82300CF4C0E08091350769
:1043B000D8E2803221F0D8E4803509F4D8E510E065
:1043C00090FB10F98DE996E00E94EA14809129078C
:1043D0000E9487148D2F0E947214812F0E947214E4
:1043E0008C2F0E9472140E944E178DE996E00E9455
:1043F000EA14DF91CF911F9108959091210445E235
:10440000943009F44AE1282F60E080E396E00E94AE
:10441000691680913006BEDF0E94D716E82FF0E0C3
:10442000E058FA4F80913006808308950E94D71695
:10443000E82FF0E0E058FA4F8081ACCF0895EF927A
:10444000FF921F93CF93DF93142FC62FD0E07E01EE
:1044500093E0F594E7949A95E1F7C20FD11D219767
:1044600023E0D595C7952A95E1F74FEF410F480F07
:104470002C2F6E2DB6DACE19CF5FC19FE00111242B
:104480000E94BE14219720F080E00E940E15FACF02
:10449000A6DADF91CF911F91FF90EF900895ACE0E5
:1044A000B0E0E5E5F2E20C946E39D82EF090FB0511
:1044B0008091FA058F1538F08FEF8F0DF11001C044
:1044C00080E08093FA0560E080E0A7DA81E08093E5
:1044D0009A0681E893E020DCE090FA0580E2898387
:1044E0008A838B838C838D831E82FF20B1F08F2D76
:1044F0000E9408168C0181E08E0D0E940816105D46
:10450000905D1D83002381F1005D0C832CE72B83DC
:104510009A83882311F0805D8983CE01019690DA19
:1045200010929A06E090FA051BEAE19E112D1124E3
:104530001695D11021C08091050118131DC0FF20D0
:1045400051F1812F0E946215F92E182F02E01F15DC
:1045500010F5602F80E06FDA80E2E11201C08EE397
:10456000A4DB1F5F0E5FF3CF2CE72C839B83882394
:10457000A1F2805D8A83D1CF1093050128E340E842
:1045800068E080E0F1100BC05ADF20E042E953E020
:1045900064E084E206DC2C96E2E10C948A394FDF79
:1045A000812F0E946215D82E292E25E0829FC001FE
:1045B0001124DC01A757BA4F7D0112E081E1382EAA
:1045C0009EE2592E28EE822E23E0922E3AE0A32E70
:1045D000B12C44E6642E712CD214E8F6C090FA0592
:1045E00028E040E8612F660F660F660F80E027DF46
:1045F000612F80E020DA442443944D0C842D0E94E6
:10460000081620E2DC1001C02EE32983805D8A8336
:10461000905D9B83B0E2BC831D82CE01019610DACF
:10462000F7018281843009F049C080819181803115
:104630009742B8F185E0932D981B892F880F890F39
:10464000612F880FF8D9D7018D919C91B3010E94F9
:10465000EE389B01B5010E94EE3800E3060F2436C8
:10466000310508F1B1E3B983E0E3EA8324532B83F6
:104670005C820D831E82CE010196E2D9612F8CE609
:10468000DAD9D70112968C91B4E08B9FC001112426
:1046900083569C4F41DB1E5FE5E0EE0EF11CD42CEF
:1046A0009BCF84E0C8CF822F0E940816805D89834B
:1046B000905D9A835B820C831D82DDCF0190F08137
:1046C000E02DDD24DA94D80EB2E0C12CBD1598F0AF
:1046D000D70113968D919C91B4010E94023997FFE6
:1046E00004C088519C4F61507109E60FF71FB50156
:1046F0000E940239C62E00E220E045E0BF01CE0153
:1047000001960E94C112B2E085E0BD1508F088E074
:10471000932D981B892F880F890F612F880F8BD9B4
:10472000CE0101968DD9E2E0ED1508F4A7CF8C2DCE
:104730000E9408165986805D8A87905D9B871C863B
:10474000CE0109969ACF80912904882309F10E940D
:10475000EA1681111DC020E14CE060E182E76FDEC6
:104760008091510783FF06C060E182E756D98EE74A
:1047700090E0D2DA60E282E750D98091210484305F
:1047800021F40E94EC15811104C08BE790E0C4CAAB
:10479000089588E790E0FBCFA4E0B0E0E2EDF3E21B
:1047A0000C947B3980912F06811117C080910106EE
:1047B000811113C00091430610910601F09021046D
:1047C00068E38AE52AD91F3F61F481E890E0A4DA22
:1047D00001FF02C0812F44DCB6DF2496E5E00C9493
:1047E000973984E0F81601F100FF1EC0EEECF3E00B
:1047F00080E09491911730F48F5F31968F30C9F734
:1048000099E003C0982F8A30D8F723E52983905D7B
:104810009A83893038F480E28B831C82CE01019622
:104820000FD9D6CF8BE2F8CF812F143608F083E66C
:104830000E940816882331F0805D8983905D9A83F9
:104840008CE7EACF80E2F9CFB0E0A0E0EAE2F4E260
:104850000C94783920912F0621119AC020910106DD
:10486000211196C0D0917D05D11192C0C0907905DB
:10487000D0907A05E0907B05F0907C058B019C013F
:104880000C191D092E093F096801790114EFC116A1
:1048900011E0D106E104F10408F47AC0C090750576
:1048A000D0907605E0907705F09078058B019C011B
:1048B0000C191D092E093F096801790118EEC1166E
:1048C00013E0D106E104F10408F462C06B017C013D
:1048D000C0927505D0927605E0927705F092780542
:1048E000C091210410910601C43051F08091460618
:1048F000813009F452C0CC2329F0C43008F04DC0F7
:1049000081E008C08091F8059091F9054817590792
:1049100051F080E00E943F1880915307181719F05A
:104920008093060139DF90913206809106018F3F16
:1049300041F0992331F0C11104C0D1E0891708F08A
:10494000D0E0809173058D1771F043E050E0D111F4
:1049500002C050E040E061E070E48DE996E00E9422
:10496000CC18D0937305C43099F429EBC2162BE010
:10497000D206E104F10460F080915207881F882775
:10498000881F90917405891719F0809374059DD93B
:10499000CDB7DEB7E8E00C9494398FEFBFCFB0E02D
:1049A000A0E0E5EDF4E20C9471398E3209F448C0D0
:1049B00000ED080F0A3008F08BC05EE0F52EC42F22
:1049C000E62E84E0F89EA001112470E060E081E60C
:1049D00096E00E94B439E02FF0E0E35CFC4DE491F6
:1049E000B12CA12C2DE1C22E23E2D22E0E2F10E0ED
:1049F000C8010A2C02C0959587950A94E2F780FFBA
:104A000031C0F6017490319694903196849031962D
:104A1000D49155245394570CDD23B1F0D0E05524A4
:104A20005394590C8D16F1F0672C6D0E692D862D5F
:104A30000E940F13652D862D0E940F13DF5FF2CFAA
:104A40000AE034E0F32EBBCF8D1661F0692C6D0EB9
:104A5000662D872D0E940F13662D852D0E940F1342
:104A6000DF5FF2CFF4E0CF0ED11C8FEFA81AB80AA7
:104A7000E8E0AE16B10409F0BBCFD0E08E0183E0D0
:104A8000159507958A95E1F76F9693E0D595C795AB
:104A90009A95E1F74FEF4E0D4F0D2C2F602F8E2D75
:104AA0000E94F11CC01BCF5FCF9DE00111240E942A
:104AB000BE1401E616E0CF59D94FC017D10731F027
:104AC000F80181918F010E940E15F7CF0E94EF1C13
:104AD000CDB7DEB7EFE00C948D39A7E0B0E0E3E7A7
:104AE000F5E20C94723980902F0681109DC0982EAB
:104AF0000E94EA16A82E0E947D166090F405709020
:104B0000F505A110B5C0FC01808524EDE22E24E05E
:104B1000F22E13E0833081F0823049F48091440614
:104B200034EDE32E34E0F32E12E0813029F090EDE5
:104B3000E92E94E0F92E10E00FE2212F45E0B301B9
:104B4000CE0101960E94C112C3010E94F416B82E34
:104B5000812C8CE045E0112329F08CE045E088248D
:104B6000839411E0140F9EE0499FA0011124882036
:104B700011F04C5F5F4F123038F0E3E01E9F400DA4
:104B8000511D11244350510927E230E0A11002C009
:104B900030E020E0420F531F282F30E00AE610E0FB
:104BA000041B150B021713070CF48901992019F146
:104BB00020E240E860E180E042DCCE0101964C0159
:104BC000F40171904F017720F9F040E1602F872DBB
:104BD000E6DEFEE284E07F128EE090E00396080FAE
:104BE000191FEECF00E220E0482FB301CE0101965D
:104BF0000E94C11259C090913A059B15F1F240E80C
:104C0000481B20E260E1D8CFA11012C028E042E1A9
:104C100068E28DE614DC68E28DE60E940D1DC70196
:104C20000E94201DB0923A052796EEE00C948E3932
:104C3000B8016250710940E18EE2B1DE98012B5F4C
:104C40003F4FC6016AE070E00E94EE38962FD82EE2
:104C500040E1622F80E3890FA2DEB8016A5E7F4FD8
:104C600040E180E38D0D9BDE84E08B1578F6DACF92
:104C70008091EF059091F00568EE73E00E94023993
:104C800097FF04C088519C4F61507109660E771ED2
:104C90006AE070E00E9402396B01C3010E94F416C1
:104CA000B82E81119FCF19824B2D80EDE82E84E024
:104CB000F82E83E010E056CF9093F5058093F4052D
:104CC00080E00BDF64E670E080E090E00C949E13DF
:104CD000089540E250E060E270E081E495E00E94D7
:104CE000B43910926705109266058FEF80936105C5
:104CF0000895EFDF8FEF8093630580936205109234
:104D00006905109268050895F4DF1092400510922D
:104D10003F0510923E0510926505109264050895B6
:104D2000A6E1B0E0E6E9F6E20C947B3980916705F4
:104D3000E0916605E81758F58E1BF0E0EF5BFA4F3F
:104D4000DE01119690E08D0120E2981710F4208189
:104D500031962D939F5F9031B9F7809168059091BE
:104D60006905892BB1F445E050E060E270E0CE01C6
:104D700041960E94B4391E8A60E380E00E940D1DB6
:104D8000C8010E94201D6696E5E00C94973980E0EA
:104D9000D4CF809163058F3F91F0F09062050E941F
:104DA0000816805D898B905D9A8B8AE38B8B8F2DA3
:104DB0000E940816805D8C8B905D9D8BDCCF8DE210
:104DC0008D8B8C8B8A8B898B8AE38B8BD4CF9CDFEA
:104DD000A7CF089580913B0591E0892780933B05FB
:104DE000811105C08091400581110E943C1BEFCFCD
:104DF00008957FDF95CF0895EF92FF920F931F9351
:104E0000CF93DF9320912F06211118C02091290400
:104E10002223A1F020913B05222381F0209101065D
:104E200021110CC0EC0180912104843061F080914B
:104E30004005882319F00E943C1BC9DFCDB7DEB7BF
:104E4000E6E00C9496398091F4059091F505209157
:104E50003C0530913D052817390731F090933D0509
:104E600080933C05C6DFEACF80913E0590913F05D7
:104E70009E01281B390BC90180399140F8F2D0936B
:104E80003F05C0933E0580917D058111D7CFE0900D
:104E90007905F0907A05CE018E199F0984389340E8
:104EA00068F280914005811114C041E05AEA62E045
:104EB00075E18DE996E00E94CC1841E050E061E098
:104EC00075E18DE996E00E94CC1881E08093400561
:104ED000C9CF8DE996E00E94EA14809129070E94CB
:104EE000871484E290E00E94BC1480E00E94721457
:104EF0000E944E178DE996E00E94EA1480912907DE
:104F00000E94B91408E617E00E94CA14F8018193C0
:104F10008F01F7E005371F07B9F78091680786FD15
:104F20008DCF8091690780FF04C080916A0780FD62
:104F300013C08091680590916905009709F47ECFB0
:104F40009C012E193F0937FD8DCFC81BD90BC137E6
:104F5000D74108F087CF72CFCE0181609093690569
:104F60008093680500916E0710916F071027012745
:104F70001027812F82958F70F12EF694F694F69477
:104F8000823049F5302F3071E32E8091610538175A
:104F900019F09FDEE0926105802F8F70F0FC44C015
:104FA0008830C8F444E060E777E0880F880F0E94FB
:104FB000EF15882381F0E1E6F5E080E292919032EE
:104FC00011F48150D9F78093670510926605D0934C
:104FD0006505C093640548E0F4121EC02091720775
:104FE000822F82958F709091710790FF03C080612E
:104FF000883190F454E0259F900111242C739091F6
:1050000073079295969596959370922B9C3320F406
:10501000809363059093620580916705813148F420
:10502000109266057DDE0ACF42E062E777E0880FE6
:10503000BECF2091640530916505FE01E21BF30BA4
:105040009F012E35314070F3D0936505C093640500
:10505000909166059F5F909366058D5F981700F7A6
:10506000E1CFCF93C0912F06C11122C00E947D16BF
:10507000FC0180910006843031F4C1E0809121046C
:10508000843009F4C0E094E0A5E3B5E001900D920E
:105090009A95E1F71092390560E080E00E940D1DBD
:1050A000C0939A0685E395E00E94201D10929A060F
:1050B000CF910895B0E0A0E0E0E6F8E20C946F39FB
:1050C000009709F48FC07C01C091F405D091F505DB
:1050D0000E947D16FC01048510E0095F1F4FD80176
:1050E000AA0FBB1FA056BB4F0D90BC91A02D9701DE
:1050F0000E9453392091EF053091F0056901330F7B
:10510000EE08FF08C60ED71EE81EF91E30902204D6
:105110004E01B12CA12CD701C60189539D4CAF4F34
:10512000BF4F8F389546A105B10508F470C0C7017F
:10513000B60128EE33E040E050E00E943739290103
:105140003A016B017C01F7FE0BC038EEC30E33E071
:10515000D31EE11CF11C81E0481A51086108710856
:10516000840C951CA61CB71C26E982169104A10488
:10517000B104ECF130E3831635E79306A104B104E2
:10518000E4F5E401F801FF27EE0FFF1FE056FB4FA7
:105190008081918168EE73E00E9402399B01611564
:1051A000710571F0C4010E94EE38009749F01414A3
:1051B00015041604170414F4C20FD31FC81BD90B0F
:1051C000D093F505C093F405D092F005C092EF0599
:1051D00010912104E7E0F1E080E0143009F066C0AE
:1051E0000E949F16CDB7DEB7E1E10C948B3926E91A
:1051F000822E912CA12CB12CC4CFC12CD12C7601A4
:1052000090E3892E95E7992EA12CB12CBACF9E015F
:10521000A8EEB3E00E9459394B015C018C0C9D1C37
:10522000AE1CBF1C44815581268137810E945939AB
:1052300086169706A806B9064CF49A010E945939B9
:1052400086169706A806B9060CF0BACFC501B401B8
:1052500028EE33E040E050E00E9437396B017C01DA
:10526000F7FE0AC088EEC80E83E0D81EE11CF11CD0
:1052700021503109410951092639310541055105AE
:1052800044F0203385E73807410551053CF4E90136
:1052900097CF26E930E040E050E0F9CFC12CD12C87
:1052A000760120E335E740E050E0F1CF9085933080
:1052B00059F024813581C217D30730F02681378118
:1052C0002C173D0708F047C08F5F72968C3271F73C
:1052D00080910301181741F0109303018FEF9FEFA6
:1052E00090930201809301010E94CF136B017C0116
:1052F00080916B0590916C059601281B390B283223
:105300003105A0F080910101909102018C179D0759
:1053100039F0CE010E946217D0930201C0930101BF
:105320000E944F1AD0926C05C0926B050E94A8167D
:105330000E94CF136093790570937A0580937B0563
:1053400090937C051092F3051092F20580E0C5DB86
:105350000E94D11647CF381609F4BACF80932204A1
:1053600080DE0E946E1F80E00E940C1FB1CF8091F2
:10537000000640912104843019F421E0443009F002
:1053800020E084E0489FA001112443565C4F67E071
:1053900080E00E94D11E0E94651E63CE0895CF93C7
:1053A000C82FFAD98C2F99DBE2DF0E946E1F0E9472
:1053B000E41E80914F06882319F081E00E94441D6D
:1053C0000E94D41DCF9108958F929F92AF92BF9269
:1053D000FF920F931F93CF93DF93F090220480915D
:1053E000F4059091F5050E9462176EE170E080E08F
:1053F00090E00E949E130E947D16FC0120852230C1
:1054000051F08481958106811781233041F4B801E0
:105410000E9490192FC000E315E78EEA96E0E3851D
:10542000F0E0EE0FFF1FE056FB4FC081D181CB3083
:10543000D10508F0CAC0C13039F0C53029F0C930F3
:1054400019F0CA3009F0C5E0AC0160E074E38DE901
:1054500096E00E94CC18A80161E074E38DE996E023
:105460000E94CC184C2F50E062E074E38DE996E086
:105470000E94CC18F89410926D05789480913E07A4
:10548000C0913A07D0913B07823009F460C0C091C7
:1054900000010E94CF134B015C0180913507D1E4DC
:1054A000803209F4D1E28DE996E00E94EA1480E0AE
:1054B000C0FB83F9C82FC870809129070E94871408
:1054C0008D2F0E9472148C2F0E947214D134A9F473
:1054D000C1E080913A0790913B078930974008F4EA
:1054E000C0E080E00E94721480E00E94721480E0AC
:1054F0000E9472148C2F0E9472140E944E1768E74B
:1055000070E080E090E00E949E1364E670E080E02E
:1055100090E00E949E1368EC70E080E090E00E94B2
:105520009E1340E060E08DE996E00E945B1B0E94C4
:105530002413C2DB8091570786FF49C041E060E039
:105540008DE996E00E945B1B0E942413EC012097DA
:1055500091F1D093F505C093F4050E947D16FC01EE
:105560008085823099F4E7E0F1E020A531A5C217EB
:10557000D30708F44BC022A533A52C173D0708F428
:1055800045C08093220480E00E9486168091220408
:105590008F1529F080E00E940C1F0E9416220E94A5
:1055A000181B0E94A81681E0FADE0E94D116D09343
:1055B000F305C093F205DF91CF911F910F91FF90FA
:1055C000BF90AF909F908F900895CAE03DCF0E940A
:1055D00093158111B3CF0E94CF13681979098A09F5
:1055E0009B0900912F0710913007209131073091CE
:1055F0003207061717072807390708F49FCF80914D
:10560000570780FF88CF40E061E09ACF8F5F7296A6
:105610008B3209F0AACFB7CFB0E0A0E0E2E1FBE225
:105620000C947539D82E0E947D16EC0118859924AA
:105630009394133009F0912CAA24A394809121040F
:10564000843009F0A12CA910439A8091730581112F
:105650000E94421B0E949F168FEF80930601133019
:1056600011F5CE010E94671C0E94162280912F0620
:10567000811108C080910106811104C00E94172089
:1056800081E08DDE0E943A19A91043988091F405BB
:105690009091F5059093F3058093F205CDB7DEB7B1
:1056A000EBE00C9491390C811D81EE80FF8080919C
:1056B000480690E00E94AC170E94D716B82E0E94B0
:1056C000EA16882309F471C08F85863014F085E0CE
:1056D0008F8780916A05882309F0D1100E94DD2010
:1056E000C090210483E020912004D12CC81619F029
:1056F000D0903A062C2D49855A85B701C8010E94E1
:10570000151C4091370683E0C81609F44AC0EF859E
:105710000E2E000CFF0BE653FB4F20818D2D880FC2
:105720008D0D31E03D195091380690E050FB94F911
:1057300030FB97F98F70907F2F7020937807892B1B
:1057400040FB85F9809379070E94F2180E940B199B
:105750008B2D0E94A9190E944F1AEB2DF0E0E05802
:10576000FA4F86810E94E819A80160E074E38DE990
:1057700096E00E94CC18A70161E074E38DE996E001
:105780000E94CC1885E593E00E94D01A80913506DE
:1057900081119DC081E693E00E94D01A0E94181BDF
:1057A00063CF24E080E031E0BECF10922104EB858E
:1057B000EE0FFF0BE056FB4F80819181C984DA84A4
:1057C0001093370700933607F0923907E0923807B5
:1057D00090933D0780933C07C016D10618F0EC1457
:1057E000FD0408F4680180913E07813009F440C04F
:1057F0000E94B31890917D072091400780917A070D
:105800003091410730FB87F98F7920FB84F9807F45
:10581000816080937A0790937B0780E480933507BB
:1058200080914A07807C816080934A0710924D07DF
:1058300081E080934E078DE996E00E94B41B809131
:105840003F0794EF980F9F3468F424E531E0829F7E
:10585000A001839F500D112463E071E38DE996E070
:105860000E94CC1860917C078DE996E00E9429196E
:1058700010927E0781E080933E07D0923B07C09252
:105880003A07C6010E946217809135078034A9F457
:10589000EE850E2E000CFF0BED53FB4F4081473081
:1058A00060F450E0516062E071E38DE996E00E949F
:1058B000CC188DE996E00E94EA1462E070E081E085
:1058C00093E30E94171A8B2D0E94A91946CF89E6EF
:1058D00093E062CF80912104833049F08AE00E94F6
:1058E00019170E94EA16882311F080E095CE0895DA
:1058F00080912F0681110EC080912104843021F403
:1059000069DA0C94A32308950E94EA16882311F003
:1059100080E0E0CF089588E00E9419170E94EA16FF
:10592000882311F080E078CE08950F931F93CF93D2
:10593000DF93D82FC62F0E94A8160E94D1160E946E
:105940007D16FC0100851092F0051092EF05809104
:105950002204DD2359F18F5F8C3218F480932204E6
:1059600002C01092220480E00E948616C1110E949B
:105970009F16C091F405D091F505D093EE05C09324
:10598000ED050E947D16FC01108591E0133009F0B1
:1059900090E081E0033009F080E0981769F080E042
:1059A0003BDEDF91CF911F910F910895811102C0CD
:1059B0008BE2D4CF8150D2CFCE010E9462170E94D9
:1059C000162280E00E940C1F0E94EA1681110E949C
:1059D0004F1A80914406882359F091E0023009F073
:1059E00090E081E0123009F080E011E0981301C0EE
:1059F00010E00E94181B812F70D833DB0E946E1FAD
:105A0000D093F305C093F205CCCFB0E0A0E0EBE07B
:105A1000FDE20C947439009709F468C011E018167F
:105A200019060CF010E0EC01109300010E947D16A5
:105A3000AC01DC0118960C911897033009F05BC09B
:105A40001D96EC91F0E0E054FB4FE081F0E0E09037
:105A5000F405F090F5059F01DE010E9468394B01C5
:105A60005C018E0C9F1CA11CB11C75016401DA0144
:105A700014968D919C91B0E0A0E0C816D906EA0674
:105A8000FB0664F0DA0116968D919C91B0E0A0E0DF
:105A90008C159D05AE05BF050CF051C060E0812F4F
:105AA00044DF0E947D16FC01033019F080858330AD
:105AB00081F51C161D0654F5248135813093F505BA
:105AC0002093F40581E080937D050E94CF136093BD
:105AD000790570937A0580937B0590937C0580E02F
