:100000000C94E9110C94C22F0C9404300C9411122E
:100010000C9411120C9411120C9411120C941112D4
:100020000C9411120C9411120C9411120C941112C4
:100030000C9411120C9411120C9411120C941112B4
:100040000C94782F0C9411120C9411120C94111220
:100050000C9411120C9411120C9411120C94111294
:100060000C9411120C941112300031206B487A203C
:100070000035206B487A200039206B487A20003107
:1000800030206B487A003530206B487A00313030B0
:100090006B487A0031204D487A2000313020487A70
:1000A0002000323520487A2000353020487A200060
:1000B00031303020487A0035303020487A00312005
:1000C0006B487A200035206B487A200039206B4835
:1000D0007A20003130206B487A00535445503A2042
:1000E00000505860687008182030384048000810E8
:1000F000283840302E35206B487A00312E30206B66
:10010000487A00312E32206B487A00312E38206B2D
:10011000487A00322E30206B487A00322E32206B23
:10012000487A00322E35206B487A00332E30206B0F
:10013000487A00342E30206B487A00362E30206BFF
:10014000487A00204155544F202000313130206B37
:10015000487A003834206B487A20003630206B48CB
:100160007A20003430206B487A2000000000000024
:100170000000000000000100000007000201000074
:100180000201000003000100020100000000020162
:10019000000002010500000001000F00010009003D
:1001A00000000201000041555400204F4E004F4610
:1001B000460020353000203735006B487A004D4826
:1001C0007A0052535300534E5200313030003530D4
:1001D000250031306D0031356D0033306D00363023
:1001E0006D00524F5700434F4C00204132002041D8
:1001F00031002D2D2D002020202020205345545447
:10020000494E475320202020000431F7210531F5C5
:100210002D0000000067020205050502050202022A
:100220000302020302660806056A67076A060606F5
:10023000060408040205020202050708070803066F
:1002400007070802030403070304037F7275777925
:100250007B7E80838587898B8D8F9193506789946E
:10026000F4646792ADB0B3D8E1E6E9EBEEF1F4F6F1
:10027000FAFD0F262C313335383B3F4244484A4D76
:100280004F00187F3101187F1E04187F1B05187F4F
:100290000E081800140918003C0013FF0001130495
:1002A000000413BC7F0513BC7F00000000001A008F
:1002B00000061A000000000000001A0100011A01E7
:1002C00000021A0A00031A1400041A1400051A3C4A
:1002D00000061A550000000000001910000119184E
:1002E000000219400003192C010419AA000818146F
:1002F0000009183C000A18A00F0B18280000000085
:10030000000C1014181C20252B32373C003900003B
:100310000000000000390C000139370002394000AC
:1003200003392C010439AC0000000000AED5808DEB
:10033000142001A1C8817FDB40A6AF4465627567C8
:1003400020737461727465640A000A0A2D2D2D20D1
:100350004154535F4558204445425547205354412A
:100360005254202D2D2D0A00000058028403080746
:10037000100E415454000000F621E315415643008D
:100380000A014818DC1553514C0000012018E315F0
:10039000534D410000018518DC15534D54000001F8
:1003A0007218DC15414E420000023519DC15424638
:1003B0004F000001A321DC1553534D0001025E16CE
:1003C000DA155356430001027E28DA15434F4600E2
:1003D00000039616DA1553594E0000024928DA1523
:1003E0004357500007019421DC15444520000002CA
:1003F0003818D315464D500001026B19D315464DE0
:100400004F000002D518D3154653410016010B18B2
:10041000D315465354000A01F617D315535741001C
:1004200000019719DC15534352000401C21FE31564
:100430005350540000020016E315535755000002B4
:100440001516DC154449530000025B15E3155253A1
:10045000490001020316DC154E4156000002FD154D
:10046000E3154341500000020616E31543505500C2
:1004700000020F16E3154241500000020916E31571
:1004800053434E0001020C16E3154656410000018D
:10049000EA17E31500020401030506080A07090B21
:1004A0000C0E100D0F11121416131517181A1C1913
:1004B0001B0003010402050609070A080B0C0F0DB7
:1004C000100E11121513161417181B191C1A534D60
:1004D0000003060708010203040A10161C222C362A
:1004E000404A545E0002080E18222C36404A202052
:1004F00020000000000800020100000304070000C3
:1005000000000000000000000000250028002B0073
:1005100000000000240027002A000404040404044E
:1005200004040202020202020303030303030102A2
:100530000408102040800102040810200102040871
:1005400010200003740BD484606FAE6CF9BB84A2DE
:1005500065B14BF672011A21E85AD8D604735E2CA5
:10056000226EC4E9B58B819A1EE487C99E7B17521F
:100570006DADE3E58B04A72E996A32AA9997CCA6B4
:100580005B157956480163B1DF5427065706538C33
:10059000A627AA66890318517EFB67D3CEDD3FFDEF
:1005A0003D1F478401F3856EF83B792B0C904B6718
:1005B000467D5488FDD612E5E748F20EDB994D7171
:1005C000A54068D9C95939E475201CE9B1F5013C49
:1005D00019BB60F7FA6B1E689F19B6ED140F56BC75
:1005E000C134CB009D43D40FF3629C9DF78B9D5388
:1005F0003A8D2F3DDE3D3831039BC7C159E9D17596
:10060000888D365886704E5B9ED0DBCBF7EA1FDBB9
:10061000A53BB3BD6BBCF37065D5170F64152420E3
:10062000D5B87B0D272985881F5822574F09C04D03
:10063000D6E4C6B53A373327BB6A1469031BEDA865
:10064000C343E8EADE410625C5C83CBF32B2A7DD98
:1006500022C2E9CA84F2C0267C7801F7D5C60533E8
:10066000E4C278EC1BFDD2507D11295799B0F155A9
:100670006674B45823A06F2ED89B08B33E53CF5E48
:10068000CC7ADF4EED42166A9188431B1D845C5282
:10069000216658243671C56A0D2C869A239DE03553
:1006A00043C97F41BD8299ED7A26B2D3A6CE4F00D1
:1006B000E687E3D7682886F7CED2B3D31B0402B906
:1006C00078B3ADE03C53A68A4A22BE1FCEB176F283
:1006D0002F81A8C17872B0156519E332A74D0CD3EC
:1006E00000B9C327BE744DD1E10C36DD23FBA72230
:1006F000D344CAB3081BB40D4BDF1AA69032925CE8
:100700001AA7CD852E351172F821357D3FDB298D55
:1007100030B34F451477CF992FA39081B0AEE84501
:10072000E63AA9A262B7DBBE2539A5FCEAC5BC3A08
:10073000EC90AEA6FB12AAC76222AFA984B964B836
:10074000FB8DC11CC3D0876D5CB4FE3FA4B8D889B3
:10075000F40159BB04A543441ACB4130F75B9AEE30
:1007600028F44C7199CA4B7F2A13F04B54B3FC9078
:10077000EDBE483FF15E0DA1BB1E591615F04B5062
:100780004C96861BA9CCC2694E1003F0E953E5E2F2
:10079000BB45E28DAE407108864D08F496905853E3
:1007A00040A58B5B3CAD47B5D7E26A1378D4DCC972
:1007B000EC0E93F0C01D953676A45385C9ACE47158
:1007C0008DAF6861209DFF45356E04D82732C3DAAE
:1007D000EEA26604B72106527F398FFDEE9074B603
:1007E0004FB6240E1248F0B230F2A54C9152E3C637
:1007F000487B3896239ED71B95153AC98B6F637D2E
:100800001DC9EA96E601D785C0EA3DCAD3B7FB0702
:10081000543A00313D74E4125BA238335BBF1DDCF7
:100820004EE8851077ABEA6579B0AA3061C6F63B31
:10083000CC95FC837F8C7BB55205EBF721DE89B626
:100840006DEE317713AA935596086E1C82B57E958E
:10085000B994DD68425C3A00C37B6F606A2C07D7AD
:100860006C82FBB2812569D6720AD2E850058849AC
:100870001B6372996CE37AAEB01B9ED42554258A13
:10088000901797DF39B87CEAF082DD25D2ADE7F624
:10089000362384A9C96A53F4822C1DEA06C64F7018
:1008A0005437802A6B63DBCC86E68C7F278C7254AE
:1008B000739E1BD64CFA058280D7B71198069869AB
:1008C000151CFC868774845BD40FDBD727C54AB21E
:1008D0008F297A4A230AB807D03470818E53EF43A8
:1008E000163FA8A79E5A77C091B789155248C0B73E
:1008F00062ABE1746410AA096B9774217935A197F2
:1009000025FC78C1EC6E877740871A74828156DDAA
:10091000EC37ADAF0331AC478574C02A459DF41266
:100920000CF986B04A16D8116C46C44A67988B1BDE
:1009300042C2BEBB0E4884F708A6C38F8E8DABC2E1
:100940009B5D5C6028578F0EAD2EC15E95299AF491
:100950008A27D441BB4AAC5DB29326FD87813F27ED
:1009600035A6422C1538ADF8026F94DA08EE19D886
:1009700090FA89C3AD89FEC60246811D0C8D782F81
:10098000EED3ED6C7B95495687F4E263DA39CE6895
:100990001618ED98EE86F3B3C1121A519B571D1924
:1009A0009E987ED2FD3D2B5915467457791481715E
:1009B00089D922DD9210D98991DF67006E53AFDAB1
:1009C000B528301E47E6B7052D22CF7F6ACD889027
:1009D0006B8C16368807A1B7AFF331C4DB768B96E4
:1009E0009EF017A73F847891A8CD3F8FA5DD5214C4
:1009F000F9395D0B568E1C5A5B89EE809E33BDB172
:100A000045154234597820FC2DDBC92E0F3526CFF1
:100A1000239B3E1D9F0F260EB7B54EACA286D5DA9E
:100A200036045A73466A88C52AA083E88B5F3CAFB8
:100A30006A444E759B8F93373538BD029A1D8429C1
:100A4000642597E07C2AB6CBC166513CBC3BF3558C
:100A50002BB7BD81ECF349D5F803E0BDC60CEEC061
:100A60001908FB4F8C94080EA53037F0B818937313
:100A700000BB5252B4980D4B45B9890A34E91C2485
:100A80005A8FA89DC2D927A9EEBFC08090BC2A93D7
:100A900043FB0AB396D1AE13410168B92C53537C82
:100AA00000A58441D6988898FEDEF7E23743620EAF
:100AB0009383EE030A8DCA8759366F61F7F4D6AB7C
:100AC0008B0F9C8396A46C4643806BEA50DCD8CE97
:100AD000D4F4AE5BC6014385718D0C395EE43B2BCB
:100AE000C488B2C554960E879A5093D69C91CA0971
:100AF000648B23C429441A67E1DAC71B2517022C2B
:100B00008F2A133ACFD665312B10F5B596DF0199B0
:100B10007BADD6B4C035A348E3B09EFE33101A09AE
:100B2000AE3C0AA1728F0051E17823F5E2BFA646E0
:100B300028B34B24B1A1DEB1C4486FED5AD461F0A3
:100B4000DBE1085C64C0CAE9A9DEDEECC0685B6D6D
:100B5000BD43828CCA69B1A9C8710D5D6DA5AB1A80
:100B60006794EE0593E33FE81AE60F7F79F2CBC571
:100B70003757DFFC4FB460C7973C61B00C4664F454
:100B80004392D2A5F0F3B7DFAB20B1F5302AB3DC46
:100B90004B39B7853E1E1B948C26288045D60136DE
:100BA000D0EC934688D3D5895D7A82213EC240E35A
:100BB000B4DEF5A569D569495C89CDAE137070EDD9
:100BC000690CECC6FE75EB4ED6B3C860FB341EF85C
:100BD0006492D929A813383D79C4BF21379DE34FCA
:100BE00021E53F2C5C5F41FF148791E082040B1EDE
:100BF0005553DC5640A43578E29B49222E09CD1F7F
:100C00006F9483EEEA8BC4C210E080D9A55F5334A1
:100C10009C8CEA95648794D6321CEB93BFE3558392
:100C2000C2F6FCC885B2945C425F6B8E3B977974C8
:100C30007EE35CC2631A22B17F94CBE7B7FF0E3725
:100C400095AF105317881272DDCBAB4B6B6824AC99
:100C5000C95C72094FF1FB1DE7A230E9204BDA7045
:100C60007C9EE234EB6A35C233D79D07B1EFF6754F
:100C7000F5FDADC74BD0B7DDAE1E8D1EC0399CA7AC
:100C80001CC5CC3950C66BC6DA37C7E120EB74A55A
:100C90003DC008FAC2DFF29E432BF07750498CC367
:100CA0002F68F32A9B831ADC05D8B77C3C61117648
:100CB000EC2DFE86088715A3C01CB46A8D9EBF9AD2
:100CC000D5C85B05181015FBC63CEEC5524B313636
:100CD00007B94C81EA83D782FEFC43594E20BDD32D
:100CE00065CF1F5C711FBF26EC44EB0174823C8E04
:100CF00060DF479031177E16C0EC1EC33A7A592147
:100D0000A29B8E8725D3FE85DD6DE6D8CA74BADB3B
:100D10004230963D8622866FDE371A932F032EE1EE
:100D20006E1662C1E12DFECBA8DF6405EF23BC7116
:100D3000617B1B602227BDC6A37207AA09B052F2CD
:100D400019154DBEAF263B4D62A63C41077A3425AE
:100D50003CD6CDB65547871ECBCFCED20D95C0D849
:100D600072A6E0332426517E71C7533FD467735275
:100D7000CB785A001115715F8D3CCF40CDD97430BE
:100D8000D9A13FC658BCBE7818319A3960BB8D7B5B
:100D90003495A5F1543BB98599AFC445EB64A76E72
:100DA0005960EB1E7AFBFD924323F127AC66126675
:100DB000288A5CF6C63F7604E80927ED05AA26E5F1
:100DC000B4AD40BAF7F484CB7F07108DB6C7D477A3
:100DD000EABA962A98F056D7FF504D59793D41E02E
:100DE000FAA99D3EA6D979C80DD156C5ADD7FB70DD
:100DF0003CBDF3E95D1C5393331DF81BEE9FB750C8
:100E0000AC8F485961C9859EC8B0D27439DF33F5BB
:100E100028E06311A7C405BD3AD934CAF9AAE20093
:100E2000E6E638573EEC197C0D2745C552C4FFF461
:100E300069C5F573734FE307C7CF38235B9C99A24D
:100E40006A72B03539C10AC71C1A3060181D2BF000
:100E5000C8F179A394E3363593690591071260448C
:100E6000FDB6C6FFE0CFA2CFC2A358AC32E32EEC52
:100E70000D9D1BFB0540BA678ECB38D7609CFE9E4C
:100E8000A170CC40728C8C507185DD84925CEE44F4
:100E9000B6E0801532DD1B4B8C6E8E3997A5AFC640
:100EA000F42985D3859385C854E4591D4EA0FEC509
:100EB00007C1F73252F94D4585FCA0FA37B59D4779
:100EC000E852238D928743B4B84F951B1E4FE545DA
:100ED000BFCEC80CB27DE7D92E88B72A61E12DC4F8
:100EE000212EB84DFD2187302511EC1F299431D2D8
:100EF00092853817DA634D8CB4065564B76CFCC222
:100F00008D5D978609D34369E83577CCAF91363C40
:100F10007CA36E4E4AA2C94150EAABDF8704704FF2
:100F200016F5A038F56016CD0CE5C7E3AD00126BE1
:100F300012853C5C7F76ED49F29D8FDFABE1DD876A
:100F400001ED2C1B4B55117FC392D391C1D8A7370C
:100F5000C7E55B482BED31DECEFB9508E3518400FD
:100F60000B4D2673118B1EE2040473E072FFE659E9
:100F7000C90448BFABF399877C0704FB33B16361B5
:100F80006112AD08AA30AC174D3086BF6713F1A7C8
:100F9000041B48422384BB7FB408A69F43785CA10E
:100FA0004E8BA6E67C4901F7315D2730010B570BCC
:100FB00079F7024433BBB45BC701ABE301C2D20192
:100FC0007A079EAD8402F1EEF7D82950012C3554F2
:100FD0003ACC01C93D666A9805247AF71C2440EB97
:100FE000A24DC266C8372C030FF301066D9A42F07A
:100FF000948FEDBFE3283B72693775B4A09A6E31C8
:10100000FD665BCBF3BA8CA431FFBA7C2454D3C603
:10101000638993E4EDDA58474EB58FD793FDAF312E
:10102000EAB4ECC9057D2B1596C1007E80E6F74732
:10103000CD6A77F10E5913AA5C838870DCC45252D2
:1010400020B6692D6C6C8B662ACD5A4130D6FB7B5D
:10105000A0EC7A22887C716EAF6206F4A8C68885FF
:101060007636C5C0D867967CE84DD4FBA96F0FB221
:10107000A7A3196A30FD6FFC2BCEA41B8E574851D5
:10108000C6980FE5087B4DFC59DDCF131B310C5E74
:101090003B98E1F4C341D7A2645E16F9EBAE20E9B8
:1010A0005D54BD99D3A7C1D9E53222D69F4FDD6BE0
:1010B0003C6DE94D965211DA2386BE01C451C29CA3
:1010C000C6F52F1FD0F1F55782FECBFB4ADF1D007E
:1010D00046B8A73A566608714E47F827265F6CD87F
:1010E000C305990A758F4FC18872A05A1308A3824D
:1010F000842ECEB5A34605D66A7856442386F2C917
:1011000063088BBDEE56D4361F375318E7DA1CFA46
:10111000D005D55FE7B7AD362BCB06C053F432A868
:10112000756FE3C9A1B0A6E6C2410F5D2E0A6450F7
:101130004692495B2D002EB5213F0B4A719688845B
:101140004C98AA2823EBEF455C6278D6E4FB6DC38C
:10115000D9356CB92AC67471C40C657CA3F96E2D9F
:10116000B986B0046394CF267D9E1EF799DAE08C91
:10117000DD86F3C8F1C64E155DED34BB90CDD626A5
:10118000091EF6238451C1AE428F8496C957AE160C
:10119000363A298765B2BA5696D2F509EF304A0F2A
:1011A0006236FE0030BD091B50C33C48D725E18E96
:1011B000B26F4D752DADC61EBAFA4F41AF7A6FA012
:1011C000A04FB68834698A9E837A60F3A87E392A54
:1011D000209C325E7DC4AA97E6263542A1A0EF3955
:1011E000B31C2763D27F75C01EB4FA4D7A81813952
:1011F000E0792F94A5283A437E97B594AF2A10380A
:101200000A7F4991C06C659AC6C95DD552469874EB
:10121000AC93E421B0EB08FAF4412EA6F9C5EDE356
:101220003798C5DF528241A2F2561AF3A4C6408D08
:10123000B95FAA751E151E68782B2BF43EC7CBF339
:101240001360E0F48579880C227587B751E0D6E306
:10125000A092D3D7E36C5B3EB780E748D6D92F493D
:10126000CC75A004C94888E9CC3241AF30DEC6BC99
:101270009DF7FCFF69035058A1D6B87B5E60FCCC9B
:101280000014AF3A3041B34E634795E4BD5374D078
:10129000F002B4FE48196C3F23F79B4411F2C2459B
:1012A000A637776C10630E1BA7D196CA0D4F5B4310
:1012B00051D614B723E799A49F4C7DD7DD0811843C
:1012C0004D5CE96090048B1490F06F26450F208CE4
:1012D000E36F4678EB12B45EF0DEEB2227627842D1
:1012E00093BCE848C088BD0FDE232BD1880AE2B446
:1012F000338E6136435842AE6BD7F2FE0AC1269454
:101300007ACE8C3B435A62EF708AFE4DD237DBA116
:10131000B1061B30174CA0241EBECB64E2CE135C7A
:10132000D705A6763938F3852C160EB3E23DFF7942
:10133000880B93EFAD55CDB4EF8FB8167A05C05E2C
:10134000920F4F9858D422AD4325317852C69ACA8D
:101350005EA64E79979ABBDF6DF1E2D0B3CA2A5CE4
:1013600046825C1EDDD0C519892B2CBDC084D933C3
:101370003967E4E47926B69D1C1DE470A5A7618950
:10138000254A57337D0DCAF3CC22AAD7D9CBE6B272
:101390009646159568D80FDF6B36DA198216CE3867
:1013A0004ECFF236C880075388042FB214195DC59A
:1013B0006CEF959C608B6AE4FC9DB29CED1D9C1BC0
:1013C000CAA326DD9C635B3B882BBA2235240148E7
:1013D000EEA04F6E964E2991AAAF5647BD7BDDA178
:1013E0005599D8B5A147937BCD7BCF65DE5018F2D8
:1013F0000549F199D894213F7D52C6B1B4E19FF0DF
:101400007E60648B30E4AD2C97FB47F70901047BC9
:10141000F4F7A7A804A57F0858796D26276AD0D9C4
:10142000AFC1C71223E1AE98A40FBC1BFA9D910B6C
:101430001515A524531A13E0C30095389C364CCFDC
:10144000F6A9BCC1530604F46FBF57E0A614A64921
:10145000707F392A4A5A593633B90D47253937042E
:10146000777C45AC19932549E07A7BA2C695768DA9
:101470003C79B1A7C38363032347D7ACFB84166FC2
:1014800022490B97AAD538575E2BBBA749EDD2D579
:101490007A96BE8DF5F94656F52FA7A87AFF3FE755
:1014A000E88CF148E846CB4D25F935932FCE8BB823
:1014B000A9C5D3D22771866F72D9CA4E90D36DB1A8
:1014C0003CD3CBC9303A26459D66445C5FD8E39057
:1014D0007C1BD882DDD384D4C61B58BF02A53B1029
:1014E0000A3EE309940B99882B47A79089C44825A5
:1014F00036DB7231ACF5A30115D0E62161EB5972F0
:10150000DC9498F7B0F9FAC10A7EDC69CE905E826D
:10151000110B97E29955A23DFAEB88BC4DC2548D50
:101520005FDEA3E248132046C5A08104C42B9A8441
:1015300015B89E9B62A1EC7D083CAD214B89FCC691
:10154000967C3A41358A13BD1B43BF367A4ECE7026
:101550009E2AF63933C7334B347D2A81FA252EC5AE
:10156000C4A1280ED54D15E069127119AAFF59487A
:10157000815653C935124D84699136D8ADF754D58B
:101580008CF9C684126222F1B92B1DA57C567A4DC6
:101590005AC4F09D8F5DB59A7FE7B7A85D6D37E4BB
:1015A000F2EA7A73F8FC6717F3D960090E8B0FE241
:1015B000F98361DF5369D0EE4251B5514864F8DDDB
:1015C0003EEEA747F07C4BBB2B8EE28B6057634B04
:1015D0009BAA6763EAA3D57C4341A95474D286C30E
:1015E000114269C5093E8F94AFC599BBBBAC61641C
:1015F0006101F2D359B1415091166CCC9BEC5CFE69
:101600003BB3EC6ED7F10E5A8A5F1DB0C5765426F7
:1016100007BC66F0ED519A1FE8F751588E1E80996D
:101620001FEED643CCFA2FAE80F2A8A8AE437C8042
:1016300076D41AD4737461DFBF296F561593075897
:1016400092F11DE87B68B2542030012DC5D8FD61B0
:1016500050140F584C1A5400127E46990C9DD1A379
:1016600004F18217FEFC12E57581AFFF3D08D53904
:10167000874A8EF07AD4D0D6CFA9D6594841C268CD
:10168000E3A435458D141AC444892C63C8AF7BACE0
:10169000354327BE7ECF56403DA5AC0F97CCD46EC8
:1016A000D031D7146045AEDF0AAA33B388E01C26D8
:1016B000DC00B875C86711A1B58771F94A6AEC3FBB
:1016C0000E4121C24F928F1753EED5EA4F9175020A
:1016D000590294E4DA4AB3AAA72E9CC780465EBD9D
:1016E00006331DD85D9F5F77730A7D386BA70E8F19
:1016F0004E7D01DA4474D2F17A2F7FE1ECF1A57DC1
:10170000033B2F17B6E80D333C2191915B302C1130
:10171000C6586AE4351BB5A847B3FFD0960E484EAD
:101720009737601204FFCBA5F51D409CDF36123DB4
:10173000D92A72DAE88BE45BCFE93852EC2CA0F7B7
:1017400079AD2070592062739CE34609C912D477A1
:1017500055074B6A261E5D0778104E4ADA5EF63B47
:101760009B8DFD48D0BBAA212EF5DF854CA71D1A05
:10177000261BA082867F4B02D2F660C9860C1DBF55
:10178000736986184B44BC74E5821793B50A5608F2
:10179000B74A73B804D214215E2CA0E0C2015FDE08
:1017A000CE642AD8652BF074E354BFA09B50BA02D4
:1017B000002C95CE2A4FCF2B2B0E9BDD8F675B54D1
:1017C000A1472E842E24FA34E05A103BCFAFE2ED2D
:1017D00028D1176B9A1B496CFCCB7A74092A415AA1
:1017E000FFA1F598C60CD26983D2C369875E7EBB20
:1017F000FCC0D1C117D79BE15370B743D038252621
:1018000049405B57BA4932AA9F39AA8E73008513A3
:10181000796DF1912F9EA3A0657C7D53B470530127
:101820006B925F38F1D73D7AD607727ADBA165A556
:101830000741004BEBC5D03BEB3061420D4BA3D8C9
:10184000078B12F5893D7CFB2E79A7BCD5BF729A18
:10185000D81539AD2570D16CB05DBBF43AF6605641
:10186000FAF2A528AE0D76B379F14BC72E6EB661AC
:101870006222D9A730234521DE478CEBE54C8B4E05
:1018800079A09D95B305AAAFECE67473F0DC37AD93
:10189000933B206DA1D8CFF97E9EC6BB406456A66F
:1018A000187528D2BA78645C484570358C499A45D9
:1018B0004A6DF29C8D480A612EE3D4EEA829404B74
:1018C00053BB5639CE816CFD37A0791CC794176C79
:1018D00037EA97F4D8D49F9F304FE5A408B86BAE91
:1018E000B9BC4F612044DF92DB1E0483C0A12C09E8
:1018F000D8DF21F0200480AF7391BC0EBAE4F79BCF
:10190000363C30F1B4BADCFA65F22B1D184E166283
:10191000D4AC8B21A5A2F132C3C965632D316BB85C
:101920008FE12493870499E6BDBA283063DAACC707
:1019300099378A8666B344D584AAA15342A0381E3B
:101940005DF70529E7CA2A0B6AABCEF03AF390E6B9
:10195000D125A1331C33997D24D17423FC6F7DDB09
:10196000A7E9C2DE17122D1CB37E880308757D9A85
:101970004937AF60047CBCD31C53703497EBE1CD86
:101980003079A28694585A99C269D7B232626C0AE9
:101990003669B1354841CE79967A0D2D33BF4D2F3A
:1019A000B8D8B3FBE47193B9180D51ABBB09D90D8D
:1019B000D7671E4728C7F7CE605828235E95FC2BB3
:1019C000DBF90D1FAB49E6D0A7377920E4CF05E35B
:1019D0006421ACDFB1E8F9E04C3B5E89682A48C578
:1019E000640EDBF1538B1A2FF60C189C529B212EA0
:1019F0004AE7D6BBB71A0A22AB4AFDD3027D21FFC4
:101A0000B90E0F29ABACF4445E0FD5F357E54F6127
:101A1000724EBA55378F9A1CD4B830AF0A951A1344
:101A200086D40A835C991B2BC093F513F5EAFB6FF0
:101A300075746C2E77C344C53862B9F5AC58B4964A
:101A40006EA4A545B51B7C9D219516EE2957201245
:101A5000BBF80A2325AC51FD7AE09D43B0276F2ADD
:101A6000DF0408D3F11D3C128DAFF2D7B9029D46B9
:101A7000E3ABFF61C8612B19C8C1A16D0AA744FA85
:101A8000B5A8D71E53156F7A4841E930B5ADE2F0DD
:101A900070406AF331DD1950E5BCB43D839FDFC867
:101AA000252790405B32044781FA53B40A40157AE7
:101AB000745BDB24AB3AB791E344B747073990D264
:101AC000F5A9084658DC3210A34732044544137187
:101AD000AC2EA7C971D0F9517ECAE509A81E775B63
:101AE0003A08AA431CD68D6091466D64569E162E08
:101AF000CEB399C8F655271384BC8AB3C8F51A72B9
:101B0000F76A0C46952F4A86B6D29894F1C3370EE1
:101B10000C8711567EAFDA22296FEBFAEC96E0279C
:101B20006B42A170091AAD4888DAFCE13B62952846
:101B300056702803B258678D0AEA9A1595515F834B
:101B4000070920BF37AFF70A743CA552F1E3F558F7
:101B500030E117DE98F1387BF0AFBD165952996C21
:101B60007470487714FF534184BCC5372F71843D8E
:101B7000F5467C63E000A05607F78C6357BE545CC3
:101B8000E1FDAC35FAC2D5F25ABE7C318EBDDBFE2A
:101B90004D036F5EA61F232DCA68F0C614CCC33E4A
:101BA000F021D4402A72B67EE285D68AFB485127BE
:101BB00077E4CBCD2FF6E1BCFEEDA1145FE532FC5E
:101BC000CFD9FB2FE9AD7D2D68E79A15956A4AE4D8
:101BD000ABE4EBE00D40BDEF8FB975B439086DC0D3
:101BE0009F04FFCCDE13304EB6E4E0CB69E5C61CA3
:101BF0002F436A632572D5DFBDDC0BE9089D3D26C6
:101C00006FC389F818AC42BF4E9D5D28B02641369F
:101C1000768D8684FAD8D467581969202D35FE0947
:101C2000D98CFDF921A157DF17AE8ECBC97F265481
:101C3000DE104372DDBC18B934F9AB70F9744D8E07
:101C40006D2A331406D071E6ADAABE862E9A8D8712
:101C500088AF039FCBF8789A663809CDAE89C2CC9D
:101C6000AF6A16140948AE9B55E40FA586A1757F8F
:101C70007CEF0DCB3AB30D1F020C801FB4F4E0A62D
:101C800041CC8700406143E7FCB40124CA453425B8
:101C90003C39FF098C39855A5BCC273CBD284386EB
:101CA00045179A4E3524A423A2FDCA6CD4FBBAE78B
:101CB00041B3FB7C5507B56E3EB12972CC38EA279B
:101CC0003080B98CB8EE54AB3EDBDD06D095EA3EF1
:101CD00042886BAE89C7E84C38B693F6BE4C204AB2
:101CE0008CCE2B22D272494618568070675AFAC0A1
:101CF000CA6D5321CAE3866891D37CA9D5AD6A72B7
:101D0000A1FE53E94085EA62A963753A2DEC9BFE7A
:101D100058D873205210435C2DB421B9961F726DB0
:101D2000BA42EAF285BE5212A7B13E2B89EF0F7379
:101D3000057C99C3C55F9653F8AF9B7A49A044547C
:101D40006055F0103A608D905065AEF779DB2E0843
:101D5000F9BBF2D278D086B594A10EB98189B7F9D2
:101D6000C043E88F3819DAED2FA75CDB01B338CE1A
:101D7000E6C3F2D5AA879E116FD805F072ABD9A140
:101D80000FFF46E94A8C0093E9866F6B1470BEB171
:101D9000B889C9CC7D1A11D279FBD9D72413948F75
:101DA000019C4B69336601829888F84C13310F58B7
:101DB000C1061130B48991349B89FC75CD11CA1AC2
:101DC0006FFA71D645E70FEB3909B35A131FAA3AD8
:101DD00093CF8D6ECAEC2C8EC5831B5AD6D189AC9D
:101DE000024FCB0F257696E05D2CFFA7EAEA92F131
:101DF000725BEE08D8848AA959E31277DAD6CA4E04
:101E0000362D7CA413D1E818319902540AD07A7483
:101E1000A0AD2C834A6FF1B1501B6469E8842F2C6C
:101E2000C8EB953DA518C74B82FC88E1D37B0EBE5D
:101E300010BA6502859B469A377A774DC2C45330F3
:101E4000679154F63D39444342132E0929FD50A6AB
:101E5000DA94CE8697102B5C1C09CD0FFC15DC5450
:101E60003B53E17CA7E1FD47C2AF7EEA340C6FE64D
:101E70005C04306C84C751E3B55F349EDD050C1CF7
:101E8000D4BCFBCD3AAEBC529254852CED0FFBF87E
:101E900073105DD81F06E0A15926B4393FC119F966
:101EA000D4BE4FF433EC3F3FFE8F91D044F2127812
:101EB000909E79A927EE05CB9F5A4B15DE673918FE
:101EC0001FE73A0A4198E7DEA728A0D35466337982
:101ED000B53A83375F25407047B8796B62963F48C3
:101EE000EA9F6ECB35E16F2DC4C24B9BA74D0579A0
:101EF0000E1CFE095A9F87227A131B9F994D05DB02
:101F00001573D865FE395EA4437B6C79BD73914C23
:101F10009B4C941887EA68A7449F5C3666FD411481
:101F20005EB18EEB45DA770EE0EC5EF40DBF41C694
:101F300048F015D860F74076237B1CE559445030B3
:101F4000CE064EC5A670C31817A237ACBF2C6FBC07
:101F50009B3F58121110390018DB7D0BD22CEE0A72
:101F6000AF76947AC15C21D2619F1D7A9695DFA4E9
:101F70005181E61BD57C3644F060FF3AF632EC8F97
:101F8000E09AC7E3BCADEBA694714B6D38974C3625
:101F9000A275FFFB3FEB60E131B1BC32776CBD490C
:101FA000934BC207BAF067FD68CAF5A4FF2A5EE248
:101FB000BEB569B2A063931BB4BD4612FAEE885F4A
:101FC00046DFB2BAE8BA5447EA18FA0891779B1C80
:101FD000878B01709EC0052BAAD7AF30A8018B2834
:101FE000A0F59599325F08C4EF65453CC36DEFB825
:101FF000349D1C046686F2BC9D8797BE08DD58DDC3
:10200000530F7DEC930BB95BE3087615DFC7682FA0
:10201000A8F84D338FAE0884C3E8CB9C718009D7F4
:10202000116321040EC6F0509E0AA799149A5AF91A
:10203000AA5F06DF5C52374B390C7E18C1ABD6362F
:10204000F578BD9F790EF233610EC30B5A24023F1F
:1020500042353DA4ADC5305076E7E345086618210A
:10206000EBDD1476F8F155E83B9D8B9392FFA7804A
:102070003438C2AD7CFFBD232B0B2C5FEAC095002A
:10208000FB8C376B8A42913EEFD65143216F803EE5
:10209000BDF2B32407A5924A76513172354725E740
:1020A000B9D0F4C2DD52353A23C416FA2A8D99D03C
:1020B000B953C2125C3FCE8DDBD1C8D159E588FF40
:1020C0004911ABAB7BD1F2B43749A0B1FEFE6C082D
:1020D000761D0B9AF4B16DA0F220E417A74D85B3DD
:1020E0008E7ACB8730AF119020A819EA2207FAC167
:1020F0004CE8FCA2038F2AC536E4AF669BBA0ADD22
:102100006590DAD72762D9193BABF666892DA530E1
:1021100070E9AAE2D9C12347FD9A254A5F896297EF
:10212000614B91FC341BFC97B27B87F454FCD63690
:1021300048C28779A3C48F42B13147DDE8D00A7124
:102140004722F3F49F287A700CBC5930E0E4132442
:1021500065BD4C0E6D9E4D15901972C928B6950E31
:1021600092F9795C64B9B97BD7DCB4B9B4967F7263
:1021700055AE1EB0028E45BDF0A590B7301240B6E8
:10218000409CF16263726DF0BA1AF6F0406A47A2A1
:10219000FC9BD870191AF524F64D2F64FDF7C3FD8A
:1021A000A7455D94318FD69F5D216641D43951AFEB
:1021B000618C1E9F0611E97A8831E126B61C7406EF
:1021C000F59835171AAB193A8CC60E7E14D06E44AA
:1021D0001C666167F18E287230D2BF7D6F08179937
:1021E00062EE7818543AD57F61AC10833E2C924F42
:1021F0005A985997FB8297ADC873A26C0D06CF0A07
:1022000069DAEB9EF7677FDEE8830B465A3F02B33D
:10221000607FDCA3FF148ECFA26572CE3E11392DF4
:102220009494478EC78C706B7C498E3CD74C02C807
:1022300077A5FDBA9A0A1A1BD94A8303DFE2756EA5
:1022400028D9631F021827278F4BE7000000A90237
:102250000000000000442A3C5422082A1C2A0808D6
:10226000083E0808080808080800606000004020D0
:102270001008043E4141413E00427F40004261510E
:1022800049462141454B311814127F1027454545D9
:10229000393C4A49493001710905033649494936F3
:1022A000064949291E003636000041221408007CE8
:1022B0001211127C7F494949363E414141227F41FA
:1022C00041221C7F494941417F090901013E415991
:1022D00049327F0808087F00417F41002040413F8C
:1022E000017F081422417F404040407F020C027F62
:1022F0007F0408107F3E4141413E7F090909063EA7
:102300004151215E7F091929462649494932010177
:102310007F01013F4040403F1F2040201F3F403889
:10232000403F63140814630708700807615149456A
:102330004300007F00007F102844007C04180478CC
:102340004464544C4400FFFFFFFF01FFFFFFFF0206
:1023500003FF0405060708090A0B0C0D0E0F1011E8
:10236000FFFFFF12FFFF131415161718191A1B1C75
:102370001D1E1F202122232425262728292A2B2C15
:10238000FFFFFFFFFFFFFFFFFFFFFFFFFFFFFFFF5D
:102390002EFF2FFFFFFFFFFFFFFFFFFFFFFFFF30BD
:1023A000FF2DFFFF01000C010C010F000C100F00AE
:1023B000011E0C0100100F0000010F00010F0C01A5
:1023C000011E02013F065B4F666D7D077F6F800037
:1023D000603011241FBECFEFD8E0DEBFCDBF14E0C8
:1023E000A0E0B1E0E4E4F1E702C005900D92AC3565
:1023F000B107D9F726E0ACE5B4E001C01D92A336E1
:10240000B207E1F711E1C9EED1E104C02197FE0165
:102410000E949338C83ED107C9F70E94E1300C945E
:10242000A0380C9400008093BB0084E88093BC002B
:102430008091BC0087FFFCCF8091B900887F8032FB
:1024400031F481E08093090481E090E008958033C5
:10245000D9F781E080930A04F7CFE5CF089594EA95
:102460009093BC009091BC0097FFFCCF90E0880F48
:10247000991FF3CF08958091080481508093080438
:10248000882351F084EC8093BC008091BC0087FFCE
:10249000FCCF8091BB00089584E88093BC008091BC
:1024A000BC0087FFFCCF80910B04882321F084E9D6
:1024B0008093BC00EECF84EA8093BC008091BC0086
:1024C00087FFFCCFE6CFCF93C62F21E020930B04EC
:1024D0006093080424EA2093BC002091BC0027FFED
:1024E000FCCF880F991F8E7F91708160B6DF8C2F93
:1024F000CF910895B0E0A0E0E0E8F2E10C946438F8
:10250000EC01241708F020E031E0211101C030E097
:10251000340FFE01E30FF11D1082F0E0E0E0842FA4
:10252000821B990B5C011EE28AE0C82ED12CE417B5
:10253000B8F4222341F0AE16BF0629F43150DE0173
:10254000A30FB11D1C9331507E01E30EF11CCB0192
:10255000B6010E94DC37805DD7018C933196E7CFBE
:10256000211101C0242F80E02150330BE82FF0E02F
:10257000E217F30744F4EC0FFD1F9081903319F438
:1025800000838F5FF3CFCDB7DEB7EAE00C948038DD
:10259000E62FF0E093E0F595E7959A95E1F724E0D2
:1025A000829FC0011124E80FF91FE85BFA4F6770A2
:1025B00021E030E001C0220F6A95EAF78081822B8A
:1025C00080830895809141054ADF80E42CCF0895EF
:1025D0008091410544DF80E026CF0895CF93DF93BB
:1025E00090E0FC01E25DFA4F2491865E9A4FFC0177
:1025F00084918823C1F090E0880F991FFC01E05F6F
:10260000FA4FC591D491FC01EA5FFA4FA591B491BC
:102610009FB7F8943881822F809583238883EC912B
:10262000E22BEC939FBFDF91CF91089582E1D6DF3B
:1026300083E1D4DF88E48093B8001092B900089554
:1026400090E0FC01EE50FB4F2491FC01E25DFA4F5B
:102650003491FC01E65EFA4FE491EE23C9F02223A7
:1026600039F0233001F1A8F4213019F1223029F199
:10267000F0E0EE0FFF1FEA5FFA4FA591B4918FB71C
:10268000F894EC91611126C030953E233C938FBFA6
:1026900008952730A9F02830C9F0243049F78091F7
:1026A00080008F7D03C0809180008F7780938000B1
:1026B000DFCF84B58F7784BDDBCF84B58F7DFBCF33
:1026C0008091B0008F778093B000D2CF8091B0001E
:1026D0008F7DF9CF3E2BDACF3FB7F89480913D053F
:1026E00090913E05A0913F05B091400526B5A89B6D
:1026F00005C02F3F19F00196A11DB11D3FBFBA2F94
:10270000A92F982F8827BC01CD01620F711D811D53
:10271000911D42E0660F771F881F991F4A95D1F7D8
:1027200008958F929F92AF92BF92CF92DF92EF92D5
:10273000FF926B017C01D0DF4B015C01C114D1041D
:10274000E104F104B1F0C8DF681979098A099B092D
:10275000683E73408105910588F321E0C21AD108D3
:10276000E108F10888EE880E83E0981EA11CB11CD8
:10277000E5CFFF90EF90DF90CF90BF90AF909F900C
:102780008F9008952FB7F8946091390570913A05AC
:1027900080913B0590913C052FBF08950F931F93A7
:1027A000CF93DF930BEA14E0EC01C457DF4FC8016D
:1027B0000197F1F761E070E08881998184DE5BDE4A
:1027C00087FFF5CFDF91CF911F910F9108958091F1
:1027D00061008F7020E43DE043E050E0813089F0FB
:1027E00020EA36E841E050E0823058F028EB38E843
:1027F00040E050E004C0220F331F441F551F8A954C
:10280000D2F760E074E284EF90E00E940338205138
:1028100031094109510956954795379527952093D8
:10282000B80008959FB7F894E1E6F0E020E820832F
:1028300080839FBFCCCF0895E2EBF4E01082138237
:102840008AE08683118214828783128215828087B0
:10285000089598DF6093DB047093DC048093DD04BB
:102860009093DE0428EE33E040E050E00E9403380D
:102870003093E0042093DF040895FC014FB7F894EF
:102880008081918120813181281B390B3183208304
:102890004FBF08959FB7F894309903C081E08093AB
:1028A000AF048091AF049FBF0895E091050482E1D9
:1028B000E802F0011124E358FE4F81859285909340
:1028C000CC048093CB0408958091CB049091CC04E8
:1028D000E091050422E1E202F0011124E358FE4FE9
:1028E000248135818217930738F026813781281794
:1028F000390710F0928781870895089508958330ED
:1029000041F4643028F0663020F06A50623008F0FC
:1029100081E0089564E6873822E09207B8F460E029
:102920008C3E21E0920790F0893622E0920780F0F9
:1029300042E1489F9001499F300D1124C901805503
:102940009B426FE170E00E94DC376E5A862F08953B
:10295000823422E0920778F043E2489F9001499F39
:10296000300D1124C901835E9E4467E270E00E942D
:10297000DC37615DEBCF833122E0920778F048E2EB
:10298000489F9001499F300D1124C901805D9245F7
:102990006FE270E00E94DC37695FD8CF47E0489F64
:1029A0009001499F300D1124C9018D569D4067E269
:1029B00070E00E94DC37CACF9091C00095FFFCCF39
:1029C0008093C60008958DE0F7DF8AE0F5CF089583
:1029D000F3DFF9CF0895FC012491222341F03091D7
:1029E000C00035FFFCCF2093C6000196F4CF0895B8
:1029F000A6E0B0E0EEEFF4E10C946A38009739F409
:102A000088E690E0E8DF2696E4E00C94863897FFAD
:102A10000AC02091C00025FFFCCF2DE22093C60004
:102A2000919581959109E0E00AE010E021E02E0FF8
:102A300041E050E04C0F5D1F4E0F511DFA01B801EF
:102A40000E94F037805D8083CB01E22F009771F701
:102A50002150C8F28091C00085FFFCCFE1E0F0E09A
:102A6000EC0FFD1FE20FF11D80818093C600F0CFB7
:102A70008E508770806480937C0087E880937A0012
:102A800080917A00806480937A0080917A0086FD3C
:102A9000FCCF80917800909179000895FC018081AD
:102AA000280F261714F440830895421714F020834A
:102AB000089560830895282F44E060E080E395E066
:102AC000EDCF0895CF93DF93EC01462FE0910504FD
:102AD00082E1E802F0011124E358FE4FE485E95F4A
:102AE000F0E0EE0FFF1FE55FFE4F8081918168EE01
:102AF00073E00E94F037FB01309779F0288139812B
:102B0000C9010E94DC37009741F0442311F02E0FD9
:102B10003F1F281B390B39832883DF91CF910895FC
:102B200031DE28EE33E040E050E00E94033830937D
:102B3000E0042093DF0481E08093E1040895809114
:102B40000604823069F0833019F0813039F4089539
:102B500080910801823021F081E0089580E008959D
:102B600082E0089580910604882329F0909106045C
:102B700081E0943008F080E008958436910520F4D7
:102B80000A9758F481E00895803127E2920738F4DB
:102B9000883E934030F483E0089582E0089585E014
:102BA000089584E008959091060481E0943009F03E
:102BB00080E00895D7CF08959091060481E0943085
:102BC00009F480E0089581E008959AE0899FF0017A
:102BD0001124E658FC4F85919491009719F0FC015F
:102BE0000995089581E00895E82FF0E0E55EFA4F39
:102BF000908181E0891B8083089587E1F5CF089556
:102C000083E1F2CF089586E1EFCF089588E1ECCF1C
:102C100008958AE1E9CF08958BE1E6CF089589E12F
:102C2000E3DF80913405FECD089584E1DDCF089582
:102C3000249A6AE070E080E090E073DD2C986AE00E
:102C400070E080E090E06DDD2C9A6AE070E080E05A
:102C500090E067CD089584E98093BC0080910904D9
:102C6000882331F01092090410920A0482E008953A
:102C700080910A04882321F010920A0483E00895C9
:102C800080E0089580E895E089DD80910C06E7DB1F
:102C900082E190E0E2DB90E080E0DFDB81E0C3DB1B
:102CA00081E0C1DB80915C06BEDB80915B06BBDB13
:102CB000D2DF83E998E00197F1F7089587E094DF88
:102CC00051DF882349F080915C069091220590FBAA
:102CD00085F980935C06D6CF0895E091050482E1E2
:102CE000E802F0011124E358FE4FE7850E2E000C98
:102CF000FF0B9091240580915B06992329F0209188
:102D000006049150233051F4E35BFB4F20812223D2
:102D100021F0245091E0223008F490E09295907FC9
:102D20008F70892B80935B06ADCF0895282F42E0EA
:102D300060E084E295E0B2DE15DF8111CECF089528
:102D4000CF93DF93D82FC92F80E895E027DDD0936C
:102D50002B06C0932C06C0932E06D0932F0690917D
:102D60006106992361F080912D069295990F990F34
:102D7000907C8370892B81608D7F80932D0680915C
:102D80000C066DDB809118064EDB80912D064BDB27
:102D900080912E0648DB80912F0645DB809130061E
:102DA00042DB80911806803419F4809131063BDBB8
:102DB00052DF80E895E0F2DCD0931D06C0931E063A
:102DC00060910E0670910F0690E080E0AADCDF9122
:102DD000CF910895FF920F931F93CF93DF93D82F36
:102DE0008091180608E010E0C3E2803241F006E06E
:102DF00010E0C3E4803519F408E010E0C3E580E892
:102E000095E0CCDC80910C062ADB8C2F0CDB8D2F1F
:102E10000ADB21DF80E895E0C1DCB80180910C0677
:102E200090910D0650DBF12CCF2DD0E0C017D107CB
:102E300034F421DBCE5CD94F8883F394F5CFCDB742
:102E4000DEB7E5E00C948538CF93C82FCF7080E8CB
:102E500095E0A4DC80910C0602DB82E190E0FDDAD3
:102E600090E080E0FADA81E3DEDA82E0DCDA81E029
:102E7000DADA8C2FD8DAEFDE80E895E08FDCCF91BC
:102E800008958091620687FD06C061E0D9DB8BEA78
:102E900094E00197F1F780E895E080DC80910C06E2
:102EA000DEDA81E190E0D9DAD6DE8BE097E20197B5
:102EB000F1F70895FF920F931F93CF93DF93C82FDD
:102EC000D62FF42E890180910C06C9DA8C2FABDA4B
:102ED000C1E0DC1748F5CF1538F5D801ED91FC912C
:102EE0001197CF0101968D939C93EE5BFA4FE4917D
:102EF0008E2F90E0B2DACF5FC83059F7ACDE80E8B1
:102F000095E04CDC61E070E080910C0690910D063C
:102F1000DADAB1DA86FB882780F991E08927CDB724
:102F2000DEB7E5E00C94853890E080E0E3CFEF92E7
:102F3000FF920F931F93CF93DF93EC01F62EE72EB2
:102F4000142F052F2BDCC457DF4F888188DA82E1EC
:102F500090E083DA90E080E080DA8E2D64DA8F2DC5
:102F600062DA802F60DA812F5EDA75DE83E998E01D
:102F70000197F1F7CDB7DEB7E6E00C9484381F93E4
:102F8000CF93DF93EC01162F462F50E060E070E402
:102F9000CEDFC152DF4F1883DF91CF911F9108958B
:102FA0008091060460910901843071F470E0809191
:102FB0003705681B710987FD739577FD09C060347B
:102FC000710514F06FE370E080E895E0D8CF0895C4
:102FD00060E0FACF282F4FE060E087E395E05EDD08
:102FE00080910604843009F4DBCF0895282F4FE048
:102FF00060E08BE295E052DD80910604843051F46C
:1030000040912B05042E000C550B63E073E180E822
:1030100095E08DCF0895282F4FE160E08AE295E09A
:103020003DDD80910604843051F440912A05042E40
:10303000000C550B62E073E180E895E078CF0895CD
:10304000282F4CE360E08DE195E028DD80911D059F
:1030500081110DC08091D004882349F050E040E0F8
:1030600061E070E480E895E062DF1092D00408959A
:103070008CE0BADD80910604843049F44091270544
:103080004F5F50E060E071E180E895E050CF089537
:1030900090910604943029F1282F4AE060E08CE1F9
:1030A00095E0FCDC4CDDE0911C05A82FB0E0AE54AF
:1030B000BB4F1696EC93F0E0EF5FFC4FE49184EF8A
:1030C0008E0F8F3470F4E093220684E591E0E89F40
:1030D000A001E99F500D112463E071E380E895E0C1
:1030E00026CF0895282F4FE360E08FE195E0D6DCEE
:1030F00080911806803241F040911F0550E063E056
:1031000073E380E895E013CF0895282F40E260E054
:103110008EE195E0C3DC13DD40911E05E82FF0E061
:10312000EE54FB4F438380910604843031F050E02D
:1031300062E073E380E895E0FACE0895E82FF0E0CE
:10314000EE54FB4F438150E062E073E380E895E08A
:10315000EEDE40911F0550E063E073E380E895E008
:10316000E6CE0895FF920F931F93CF93DF93F090D5
:103170002905C1E8D2E009E912E0FE0165917491E8
:10318000FE01329645915491F11002C0452F55270A
:10319000552780E895E0CBDE24960C171D0769F7CC
:1031A000CDB7DEB7E5E00C9485388EE01DDD80916B
:1031B0000604843009F4D6CF0895B0E0A0E0E3EE31
:1031C000F8E10C946638AC01EB012091CB0430910E
:1031D000CC04A8EEB3E00E9447386B017C01CA0121
:1031E0009695879597018601080F191F211D311D9E
:1031F000C901B8019A0150E040E00E940338A901DA
:1032000064E071E380E895E092DECE0196958795C3
:10321000A7019601280F391F411D511DCA01B9018F
:103220009E0150E040E00E940338A90165E071E38F
:1032300080E895E07CDECDB7DEB7E8E00C9482381C
:10324000CF93DF93EC01FE016591749161157105D7
:1032500049F0FE0132964591549180E895E067DE91
:103260002496F1CFDF91CF91089585E0BDDC809168
:103270000604843039F080912005811104C08CE06F
:1032800093E0DECF089584E193E0FBCF89E992E0FB
:10329000D7DF40912A05042E000C550B62E073E144
:1032A00080E895E044DE40912B05042E000C550B80
:1032B00063E073E180E895E03ADE89ED92E0C0DFFB
:1032C00080912805811104C08DEA92E0B9CF08955C
:1032D00089EB92E0FBCF8DE087DC8091060484309F
:1032E00009F4D4CF089580910604811114C0E091AF
:1032F000050482E1E802F0011124E358FE4F8085C5
:10330000823031F480912C05823031F0833051F0DD
:1033100089E092E095CF089560EB74E080E496E058
:103320004CCF08956CED75E080ED97E0F9CF282F34
:1033300043E060E08CE295E0B1DBD5CF0895B0E0EA
:10334000A0E0E5EAF9E10C946338EC01D62E142FE5
:10335000FC01E856FF4F8081803261F098E0E92E51
:10336000F12C02E4803451F026E0E22EF12C02E54B
:10337000803521F088E0E82EF12C02E2CE010EDA51
:1033800080E0D0FA80F910FB81F9182F13706E01DC
:103390008CE8C80ED11CF601808161D8802F43D8FB
:1033A000812F41D858DC5E01FAEBAF0EB11CCE0183
:1033B000F5D9B701F6018081918185D8912C092D2D
:1033C00010E00E151F054CF456D80C0F1D1FF80108
:1033D000E654FF4F80839394F2CFF501808186FD00
:1033E000E6CFCE01DBD9CDB7DEB7EBE00C947F386A
:1033F000B0E0A0E0EEEFF9E10C946538EC01CED935
:10340000FE01E457FF4F80812AD881E090E025D863
:10341000FE01E352FF4F808106D8FE01E252FF4FCA
:10342000808101D818DCCE01B9D9FE01E057FF4FE9
:103430006081718190E080E074D9FE01EE51FF4F10
:10344000808187FD06C060E0FBD88BEA94E001979D
:10345000F1F7FE01ED55FF4F8081811123C08E01F0
:103460000A551F4FF801E080F180A70161E072E08A
:10347000CE015DDDF801F182E0820C5F1F4FF801A3
:10348000B0807E01F8EAEF0EF11CF701C080D18018
:10349000A60162E072E0CE014ADDF701D182C0826E
:1034A000F801B082CDB7DEB7E9E00C9481381F9304
:1034B000CF93DF93EC01122F90931A068093190695
:1034C00070931C0660931B0681E090E090932006A9
:1034D00080931F064C175D0720F06417750708F0EE
:1034E000EA01909160062091230680915D0630915B
:1034F000240630FB87F98F7920FB84F9807F816077
:1035000080935D0690935E0680E480931806809118
:103510002D06807C816080932D061092300681E01C
:103520008093310680E895E063DF60915F0680E874
:1035300095E025DD1093610682E080932106D0930B
:103540001E06C0931D06CE01FBDBDF91CF911F91BC
:103550000895CF93DF93EC017EDB1882DF91CF914A
:1035600008950E941312809147058F5F809347054D
:10357000803220F087E495E0ECDF24C80895B0E0C5
:10358000A0E0E5ECFAE10C946638C82ED42EC62FE4
:10359000D0E07E0183E0F594E7948A95E1F7C20FCD
:1035A000D11D219793E0D595C7959A95E1F710D84D
:1035B00081E2D7DF8C2DD5DF8FEF8D0D8C0DD1DF24
:1035C00082E2CFDF8E2DCDDF8C2FCBDF87E495E03D
:1035D000C0DFCE19CF5FCD9DE00111240E94E21221
:1035E0007801C00FD11FEC16FD0659F080E00115DF
:1035F000110511F0F7018081B4DFFFEFEF1AFF0A28
:10360000F2CF87E495E0A5DFCDB7DEB7E8E00C9414
:103610008238A3E0B0E0EFE0FBE10C9469388983E5
:1036200080914305909144058A3791050CF046C07E
:1036300089818A830E94E21210E000E09A81905210
:103640009983EA81E052FF0BEB5BFC4DFB83EA833D
:1036500085E0F82EF981FF3508F036C0EA81FB815C
:1036600084918F3F89F1F8018F9DE00DF11D1124A8
:10367000E05BFD4D8491909142059111809571DF41
:103680008091430590914405019690934405809361
:1036900043050F5F1F4F05301105E1F6809142058C
:1036A00081955FDF80914305909144050196909349
:1036B00044058093430587E495E04BDF81E090E08B
:1036C0002396E5E00C94853880E0D5CF0F931F93C7
:1036D000CF93DF93009769F0EC018C01C8018C1B3C
:1036E0009D0BF80121918F01222329F0822F91DF78
:1036F000F5CF90E080E0DF91CF911F910F91089579
:103700000F931F93CF93DF938C01D0E0C0E0F801BB
:10371000EC0FFD1F8491882319F07BDF2196F7CFF2
:10372000CE01DF91CF911F910F9108954F925F923B
:103730006F927F92AF92BF92CF92DF92EF92FF9201
:103740000F931F93CF93DF93CDB7DEB72A970FB6B2
:10375000F894DEBF0FBECDBF6B017C01B12C8AE0B7
:10376000482E512C612C712C8E010F5F1F4F9AE057
:10377000A92EC701B601A30192010E940338F801E6
:10378000EB0DF11D80E3C80EA29EC0181124C0826B
:1037900069017A01B394C114D104E104F10449F739
:1037A000EB2CF12C6801CE0CDF1C0C151D0529F04B
:1037B000F60182916F012DDFF8CFC7012A960FB66F
:1037C000F894DEBF0FBECDBFDF91CF911F910F9157
:1037D000FF90EF90DF90CF90BF90AF907F906F9071
:1037E0005F904F900895EF92FF920F931F93CF93A6
:1037F000DF937C018B01EA010E94E81281E2B1DED5
:1038000080E0F7FC06C0C7018038910514F08FE70F
:1038100090E0A7DE8FE7A5DE82E2A3DE80E017FD61
:1038200006C0C8010830110514F087E090E099DE69
:1038300080E0D7FD05C0CE01289714F087E090E026
:1038400090DE87E495E085DECDB7DEB7E6E00C9448
:103850008438E1E4F5E0938382837583648323E015
:10386000759567952A95E1F7AB01BDCF0895A4E062
:10387000B0E0EDE3FCE10C946A38109107041F3FBF
:1038800041F080910604811113C08091310581308F
:1038900079F468E370E08AE590E0DBDF0EEE14E097
:1038A000F80184910F5F1F4F8823B1F0B2DEF8CF8B
:1038B00000912E0568E370E08AE590E0CADF01110F
:1038C00025C01A3010F480E2A4DE612F70E090E091
:1038D00080E02CDF8CE79DDE45D9811113C010E01C
:1038E00000E028E04CE060E182E749DE80913406A8
:1038F00083FF08C060E170E082E790E0AADF8EEC11
:1039000094E0FEDE2496E4E00C9486389091060460
:10391000E5EDF4E02FE0943019F4E4EEF4E02AE071
:1039200080E03491311760F48F5F31962813F9CF1E
:103930009430F9F491E0853008F490E089E00AC011
:103940009430B9F48430B0F7E82FF0E0EF52FB4F39
:10395000849190E023E52983893078F4805D8A831F
:1039600080E291118BE28B831C82CE010196AEDE48
:10397000B3CF91E0893010F7ECCF89E3F0CFFF921D
:103980000F931F93CF93DF938A01F22E98E0699FE4
:10399000B001112490E05DDFC1E4D5E0F982C801F7
:1039A00095DE1982CDB7DEB7E5E00C9485380F932C
:1039B000CF93DF9300D01F92CDB7DEB78091DA04AA
:1039C00081111AC08091B00481111DC0609109015C
:1039D00070E000E220E042E0CE0101960E947A12FF
:1039E00080911A0521E0813009F020E0AE014F5F9F
:1039F0005F4F60E082E7C3DF0F900F900F90DF9181
:103A0000CF910F91089580E289838DE48A831B8290
:103A1000E7CF9091B004911115C020910901482F72
:103A2000880F550B240F352F311D37FD06C020346C
:103A3000310514F02FE330E0922F90930901B0DAB2
:103A4000B6CF08951092B004FACFCF93C82F8091CB
:103A5000B004882341F0C3FD10C0C13011F46630BA
:103A600061F481E009C08C2F8370833031F4CB3056
:103A700021F08FEF6630A9F3CCDF8C2FCF91089522
:103A80008091DA0481110CC080911A05813041F0D7
:103A90008091B004882329F01092B00481DA87CF96
:103AA0000895809109018823D9F38093B00460E0E0
:103AB00080E895E064DAF3CFCF93DF9370E060E0C5
:103AC00090E080E0C6DEC1E4D5E081E0898386EF46
:103AD00091E016DE60910A0170E090E080E026DE61
:103AE0008CE797DD65E070E080E090E01FDE1982F2
:103AF000DF91CF910895CF93DF93809106048330B7
:103B000030F5E0910504813038F182E1E802F001FE
:103B10001124E358FE4FE7858DEE90E0E80FF92F72
:103B2000F11DC491D0911A0568E370E088E290E03D
:103B300090DE81E0D33009F080E0809342058C2F45
:103B400090E08D509F4FDCDD1092420502C0843022
:103B500069F0DF91CF91089582E1E802F00111242C
:103B6000E358FE4FE68586EE90E0D8CFE09105045D
:103B700082E1E802F0011124E358FE4FE08981EE72
:103B800090E0CCCF1F93CF93DF93909106049330B6
:103B900099F1282F80910504C82F082E000CDD0B09
:103BA00030910604333028F542E18402C00111242B
:103BB000313030F145E060E084579E4F0E944E1551
:103BC00082E18C9FF0018D9FF00D1124E358FE4F90
:103BD000E7850E2E000CFF0BE35BFB4F90819F707F
:103BE00080915B06807F892B80935B064BD875D8CC
:103BF00002C0343011F17FDFDF91CF911F91089522
:103C000046E060E085579E4F0E944E158091180651
:103C1000803489F782E18C9FF0018D9FF00D112493
:103C2000E358FE4FE6850E2E000CFF0BEA5BFB4FC0
:103C30008081873000F708D9DECF219512E181021B
:103C4000C001112444E060E083579E4F0E944E154E
:103C50001C9FF0011D9FF00D1124E358FE4F408979
:103C600050E062E071E180E895E061D9C4CFCF9384
:103C700080911A05C1E0823009F0C0E070E060E098
:103C800082E290E0E6DDC09342058AED90E038DD07
:103C900080910504082E000C990B20910604213018
:103CA00030F12430C8F0243011F522E1289FF001D2
:103CB000299FF00D1124E358FE4F85858C5FC0933A
:103CC000420527E0829FC001112486599F4F18DDCD
:103CD00010924205CF91089522E1289FF001299F7B
:103CE000F00D1124E358FE4F8485895FE8CF22E16F
:103CF000289FF001299FF00D1124E358FE4F838582
:103D0000DECF0F931F93CF93DF93C09105042C2F29
:103D10000C2E000C330B9091060442E1C402E0012A
:103D20001124913050F1943010F1943031F5C65790
:103D3000DE4F04E011E042E0282F60E0CE010E9457
:103D40004E150115110569F0888190E0880F991FC3
:103D5000080F191FF80180819181909320068093AC
:103D60001F0685DFDF91CF911F910F910895C757EF
:103D7000DE4F10E000E048E0DFCFC857DE4F92E1B1
:103D8000929FF001939FF00D1124E358FE4F908510
:103D90000BE011E043E0923078F246E0CDCF68E3EB
:103DA00070E088E190E055DD80910604833091F069
:103DB00020F48130A8F480E20BC08430E1F78091D8
:103DC000D1048823C1F3809129058111F4CF8AE2BF
:103DD00020CC089580910801813041F085E5F8CF2D
:103DE00080912505813039F783E5F2CF8CE4F0CF5F
:103DF0000F931F93CF939091B104992309F478C046
:103E0000909135059130D1F090E1C82F892F0E9413
:103E100038151816190614F08BEE91E04091000148
:103E2000509101014F3F540759F490930101809341
:103E300000010E948A148093020119C09FE0E5CF1F
:103E40006FE0649F9001659F300D1124820F931FD6
:103E500024E0959587952A95E1F790930101809349
:103E600000010E948A1490910201891303C01092EC
:103E70005C0407C090915C049F5F90935C049A304F
:103E8000D0F60E94C21300915D0410915E0420914F
:103E90005F0430916004601B710B820B930B6131E6
:103EA00077428105910510F4CC2311F18091DA0459
:103EB000811114C0C091020168E370E08CE690E0CB
:103EC000C8DC109242056C2F70E090E080E02EDCA0
:103ED00010924205C43610F485E29BDB0E94C213A7
:103EE00060935D0470935E0480935F04909360041C
:103EF000CF911F910F910895CF93C82F0E94E81280
:103F00008DE82FDB80E1C11184E12BDB8EEAC1114A
:103F10008FEA27DB87E495E01CDBCF910895CF93F0
:103F2000DF9347E050E070E060E090E080E05BDC31
:103F30000E94E212C0E0D4E080E013DB2197E1F7B9
:103F400087E495E006DB6091450570914605809118
:103F50004305909144057DDCDF91CF910895CF9387
:103F6000E0912D05F0E0E45FFB4FC081CF5F0E9440
:103F7000E81281E8F6DA8C2FF4DA87E495E0E9DAE2
:103F8000CF91089590912D05890F8A300CF089E02A
:103F900087FD80E080932D05E2CF0895A8E0B0E092
:103FA000E4EDFFE10C9464388CE40E94DC140E9480
:103FB000E31485E40E94DC140E94E3143B9A439AC4
:103FC00089E40E94DC140E94E31488E08093B80026
:103FD00089E60E94DC140E94E31481E50E94DC144F
:103FE0000E94E3140E94411780E895E00E94CE13DE
:103FF00080910C060E942F1281E090E00E942D1209
:104000008FE190E00E942D1285E090E00E942D1239
:104010000E942B165E0189E0A80EB11C80E895E095
:104020000E94CE1368E070E080910C0690910D061E
:104030000E9463128E010F5F1F4FE02ED12E0E944F
:104040003B12F80181938F01AE16BF06C1F789813B
:1040500086FDE4CF8BE097E20197F1F781E70E94BC
:10406000DC140E94E31485E50E94DC140E94E31432
:1040700080E895E00E94CE1380910C060E942F12DA
:1040800081E090E00E942D1281E390E00E942D12C9
:1040900085E090E00E942D120E942B166091100680
:1040A0007091110690E080E00E94911385E70E94D4
:1040B000DC140E94E31462E370E080E090E00E9470
:1040C000911384E40E94DC140E94E3141A82198282
:1040D00010E000E0F12C0539F1E01F0740F430E07A
:1040E00020E00138110590F020E031E00FC0063FDC
:1040F00082E0180748F020E033E00F3FE3E01E07BE
:1041000028F020E034E006C020E032E085E101152F
:10411000110509F086E14F2D50E0FA01E55BFD4FF6
:10412000E491E20FF32FF11D0E171F0709F07CC079
:10413000F3944B5E5D4FFA01449192E0C92E4436F0
:1041400018F04456CC24C3942E2D3D2D60E00E94DF
:104150005A178823C1F0CC2059F02E2D3D2D48E070
:104160006C2D85E10E945A17882369F00F5F1F4F5D
:104170000F5F1F4F0135F4E01F0708F4ACCF83EE4B
:1041800093E00197F1F784E60E94DC140E94E314A7
:1041900083E40E94DC140E94E314809118068032AC
:1041A000E1F0E091050482E1E802F0011124E35816
:1041B000FE4FE7850E2E000CFF0BE35BFB4F80816B
:1041C0008F70806180935B0680915C06807880614F
:1041D000806880935C060E94421683E60E94DC148D
:1041E0000E94E3148EE40E94DC140E94E31488E42D
:1041F0008093B8000E94E7138EE60E94DC140E94B0
:10420000E31481E08093AE043B9A439886E40E94D5
:10421000DC140E94E3148CE60E94DC140E94E31478
:104220002896EAE00C948038C12C48E08DCFCF93DB
:10423000DF9380910604833009F070C080910801FB
:10424000E091050442E1E402F0011124E358FE4F3D
:10425000218994E6290290011124823019F43195C4
:104260002195310980910604833009F05AC080916C
:10427000260544E68402C001112440910801423021
:1042800019F4919581959109C091C904D091CA04FE
:10429000C20FD31FC80FD91F8091C804882369F0AB
:1042A0001092C80482E60E94DC1480E20E94DC14B2
:1042B000CE010E94F8140E94E31480911806803207
:1042C00029F1D195C195D10980E895E00E94CE13DE
:1042D00080910C060E942F1282E190E00E942D1224
:1042E00090E080E00E942D1281E00E94131280E095
:1042F0000E9413128D2F0E9413128C2F0E941312F2
:104300000E942B1683E998E00197F1F782E40E945E
:10431000DC140E94E314DF91CF910895809106048C
:104320008FCF90E080E0B0CF282F48E065E086E2B4
:1043300095E00E944E150E949015809106048330EE
:1043400009F475CF0895CF93DF93C091050492E1EE
:10435000C902E0011124C358DE4F9885933081F0E3
:10436000282F49E167EE81E295E00E944E15809189
:104370002105898B0E9490150E94B215811157DF8B
:10438000DF91CF9108951F93CF93DF9391E018169B
:104390000CF090E0CFEFC80F82300CF4C0E08091B9
:1043A0001806D8E2803221F0D8E4803509F4D8E547
:1043B00010E090FB10F980E895E00E94CE13809108
:1043C0000C060E942F128D2F0E941312812F0E9423
:1043D00013128C2F0E9413120E942B1680E895E076
:1043E0000E94CE13DF91CF911F9108959091060402
:1043F00045E2943009F44AE1282F60E08BE195E032
:104400000E944E1580911B05BEDF0E949F15E82F6C
:10441000F0E0EE54FB4F80911B0580830895CF930D
:104420000E949F15E82FF0E0EE54FB4FC08187E615
:104430000E94DC140E94E3148C2FA5DF87E40E9405
:10444000DC140E94E314CF91089580917C018111C6
:104450000CC081E080937C01809134050E9412148D
:1044600081E04ADD1092CF0408958091DA04811131
:10447000FBCF10927C0181E00E94121480E0F1CF0A
:1044800080917C01811111C08091CF04882369F053
:1044900081E080937C01809134050E94121481E0B8
:1044A0002BDD1092CF040C9429140895B0E0A0E005
:1044B000ECE5F2E20C9460388E3209F445C0C0EDB0
:1044C000C80FCA3008F064C09EE0C92ED62E84E022
:1044D000C89EA001112470E060E088E495E00E948D
:1044E0009938EC2FF0E0EC53FC4DE491F12CE12CE9
:1044F00004EA13E2CE2FD0E0CE010E2C02C0959537
:1045000087950A94E2F780FF31C0F80184903196D4
:10451000A490319694903196B49066246394680C7C
:10452000BB20B1F0B12C662463946A0C9B14F1F0AB
:10453000782C7B0C6A2D872D0E94C812662D872D42
:104540000E94C812B394F2CFCAE084E0C82EBECF56
:104550009B1461F07A2C7B0C672D882D0E94C81269
:10456000672D862D0E94C812B394F2CF0C5F1F4FA7
:10457000FFEFEF1AFF0A88E0E816F10409F0BCCF5C
:1045800008E415E020E24C2D60E18D2D0E94BF1A59
:10459000CDB7DEB7EEE00C947C38A7E0B0E0E3EDF9
:1045A000F2E20C946038A090DA04A110F0C0682EFA
:1045B0008091C704882319F081E30E94E8140E94C7
:1045C000B215782E8090CB049090CC048111E3C07A
:1045D000E091050482E1E802F0011124E358FE4F66
:1045E0008085833031F437E5E32E34E0F32E13E099
:1045F00010C0823049F480912F0567E5E62E64E013
:10460000F62E12E0813029F043E5E42E44E0F42E4A
:1046100010E00FE2212F45E0B401CE0101960E9487
:104620007A12C4010E94BD15982EA12C5CE0852E43
:1046300045E0112331F02CE0822E45E0AA24A3941A
:1046400011E0140F8EE0489FA0011124AA2011F060
:104650004C5F5F4F123038F0E3E01E9F400D511D5C
:1046600011244350510987E290E0711002C090E09C
:1046700080E0480F591F882D90E06AE670E05B01EA
:10468000A41AB50AA816B9060CF45C018091C704F7
:10469000882319F082E30E94E814662061F110E09B
:1046A00000E020E240E860E180E00E94BF1A8091D3
:1046B000C704882319F083E30E94E8148E010F5F7A
:1046C0001F4FF80181908F01882009F1B501882DD5
:1046D000EDDEFEE284E08F128EE090E00396A80EFD
:1046E000B91EEFCF00E220E0482FB701CE010196BE
:1046F0000E947A126DC08091AD048915C1F240E824
:10470000481910E000E020E260E1882DCECF77204C
:10471000C9F0B501625071098EE2C8DE95012B5FC8
:104720003F4FC6016AE070E00E94DC37962F182FD9
:10473000B90180E3890FBADEB5016A5E7F4F80E37D
:10474000810FB4DE8091C704882319F084E30E94AE
:10475000E814772019F084E0891580F010E000E07B
:1047600028E042E168E28DE60E94BF1A68E270E04C
:104770008DE690E06ED8C7010E94661B9092AD0452
:104780008091C704882319F085E30E94E8142796D6
:10479000EEE00C947C388091C9049091CA0468EED4
:1047A00073E00E94F03797FF04C088519C4F61501E
:1047B00071097B01E80CF91C6AE070E00E94F03797
:1047C0006B01C7010E94BD15982E81118BCF1982F4
:1047D000492D83E5E82E84E0F82E93E0892E10E041
:1047E00030CF9093CC048093CB0480E0D6DE64E697
:1047F00070E080E090E00C949113089580911A0588
:10480000E0910504843059F482E1E802D0011124DA
:10481000A358BE4F21E018968C91833009F420E014
:1048200082E1E89FF0011124E358FE4F84E0A5E106
:10483000B5E001900D928A95E1F71092190545E1D6
:1048400055E060E080E09BC8089580911A058430AF
:1048500061F4E091050482E1E802F0011124E358DB
:10486000FE4F21E08085833009F020E0409106046E
:1048700084E0489FA00111244A5E5B4F67E080E01E
:104880007ED88DDA8091DA04811101C0B7CF089506
:10489000CF93C82F8091C704882319F083E50E9425
:1048A000E8148091DA04811102C00E94371C8091C3
:1048B000C704882319F081E70E94E8148C2F6DDE6D
:1048C0008091C704882319F086E60E94E814BDDFB2
:1048D0008091C704882319F08DE60E94E814C7D997
:1048E0008091C704882319F084E70E94E81403D953
:1048F0008091C704882319F082E60E94E81481E0C1
:1049000077DA8091C704882319F080E70E94E814C1
:104910004ED88091C704882329F086E50E94E814C8
:104920001092C704CF910895B0E0A0E0EAE9F4E264
:104930000C946338982EE091050422E1E202F00124
:104940001124E358FE4F1085DD24D394133009F071
:10495000D12C80910604CC24C394843009F0C12C5E
:1049600081E40E94DC140E94E3148091D004882327
:1049700051F050E040E061E070E480E895E00E9492
:1049800097171092D004CD1411F03B9A439A0E94CD
:1049900055148FEF809307048BE60E94DC140E946D
:1049A000E31490913305133009F491E080912D06C2
:1049B000837C80932D0620911806203409F43AC197
:1049C000903C08F090E09093300680911D06909105
:1049D0001E060E94A0168BE40E94DC140E94E314C1
:1049E000C09105040C2E000CDD0B133009F02AC118
:1049F00086E40E94DC140E94E31484E080930604A1
:104A00001092D10482E18C9FF0018D9FF00D112452
:104A1000E358FE4FA5850A2E000CBB0BAC5FBE4FC2
:104A20002C91022E000C330B818592854681578193
:104A30000481158110931A060093190650931C06E1
:104A400040931B063093200620931F068017910782
:104A500020F04817590708F08C010E9441179091E7
:104A60006006209123063091250680915D064091D5
:104A7000240640FB87F930FB86F98F7D20FB84F903
:104A8000807F80935D0690935E0680E28093180697
:104A900080912D06807C836080932D0610923006D5
:104AA00081E08093310680E895E00E94F8196091DA
:104AB0005F0680E895E00E94BF1710926106809122
:104AC0000C060E942F1282E190E00E942D1290E0CD
:104AD00080E00E942D128FEF90E00E942D1290E056
:104AE00080E00E942D1290E080E00E942D1290E064
:104AF00080E00E942D120E942B168BE097E2019716
:104B0000F1F71092210610931E0600931D06C801AE
:104B10000E94A01622E12C9FC0012D9F900D112410
:104B2000EC01C358DE4F0E811F814C815D8160E036
:104B300074E180E895E00E949717A80161E074E1B4
:104B400080E895E00E9497174AE050E062E074E147
:104B500080E895E00E94971742E050E063E074E13E
:104B600080E895E00E94971745E050E064E074E12A
:104B700080E895E00E9497171092AE04488950E0B3
:104B800062E071E180E895E00E9497174091270567
:104B90004F5F50E060E071E180E895E00E94971778
:104BA0000E9446190E94B21886E60E94DC140E94F8
:104BB000E31487E60E94DC140E94E31430DC87E4EF
:104BC0000E94DC140E94E31481E08093C70480916A
:104BD000DA04811117C08FE60E94DC140E94E314EE
:104BE0009ED98FE40E94DC140E94E31485E70E94A2
:104BF000DC140E94E31481E04BDE85E50E94DC14A6
:104C00000E94E3140E94D017CD1411F03B9A4398F0
:104C10008091CB049091CC049093C6048093C504FA
:104C20008AE50E94DC140E94E314CDB7DEB7EBE006
:104C30000C947F388D7F80932D06109230069093D0
:104C40003106C3CE22E12C9FC0012D9F900D11246F
:104C5000DC01A358BE4F5D0114960D911C91159770
:104C60001696ED90FC908091AE04882309F46CC1F7
:104C700083E50E94DC140E94E314F50187858630E9
:104C800014F084E0878788E50E94DC1480E20E94AB
:104C9000DC14CE010E94F81480E20E94DC1422E1B0
:104CA0002C9FC0012D9F900D11249C0123583E4F35
:104CB0005901D90119968D919C910E94F81480E2B6
:104CC0000E94DC14F5018785082E000C990B0E94C8
:104CD000F81480E20E94DC14D5011C968C91082EF9
:104CE000000C990B0E94F8140E94E314911056D9FD
:104CF00080915C069091230590FB84F980935C067B
:104D00000E94421683E70E94DC140E94E314809103
:104D10000604833009F0FFC02091080182E18C9FD6
:104D2000F0018D9FF00D1124E358FE4F418552850F
:104D3000B701C8010E94571A83E50E94DC140E9443
:104D4000E3140E946D169091060480915C069330E6
:104D500009F0E4C0806880935C060E94421680914E
:104D60005C06807F80935C060E9442160E949F151D
:104D70000E949E1880910604833009F4E3C082E10A
:104D80008C9FF0018D9FF00D1124E358FE4FE785B5
:104D90000E2E000CFF0BE35BFB4FC08187E70E94E8
:104DA000DC1480E20E94DC148C2F90E00E94F81446
:104DB0000E94E314CF7080915B06807F8C2B8093E0
:104DC0005B060E94421687E50E94DC140E94E314F1
:104DD00081E08093C8042BDA80915C0690912205D3
:104DE00090FB85F980935C060E94421688E70E943A
:104DF000DC140E94E31483E70E94DC140E94E31495
:104E000083E60E94DC140E94E3140E949F15C82FC1
:104E100083E60E94DC140E94E31481E30E94DC1408
:104E20000E94E314EC2FF0E0EE54FB4FE681F0E03B
:104E3000EF5FFC4FE49184EF8E0F8F3478F4E093B2
:104E4000220684E591E0E89FA001E99F500D11241E
:104E500063E071E380E895E00E94971781E60E9485
:104E6000DC140E94E31482E30E94DC140E94E31429
:104E7000A80160E074E380E895E00E949717A7011D
:104E800061E074E380E895E00E94971782E60E9453
:104E9000DC140E94E31483E30E94DC140E94E314F8
:104EA00043E050E063E074E380E895E00E949717E8
:104EB0004AE050E064E074E380E895E00E949717D0
:104EC00083E60E94DC140E94E31484E30E94DC1455
:104ED0000E94E31480912005882309F4D7C084E15F
:104EE00093E00E94201984E60E94DC140E94E314DF
:104EF00083E40E94DC140E94E31483E40E94DC1427
:104F00000E94E31481E60E94DC140E94E3140E94D4
:104F1000731981E44ACE2091060400CFB090250594
:104F200091E09B1990FB87F980935C060E944216E2
:104F30008B2D880F8B0D982F9F7080915C06807F42
:104F4000892B10CFC4E02ACF8DE40E94DC140E948C
:104F5000E314109206040E949F15982ED5011B960B
:104F6000EC911B97EE0FFF0BE55FFE4F8081918167
:104F70001996AD90BC9010931A0600931906F09202
:104F80001C06E0921B069093200680931F06A01635
:104F9000B10608F479C0EA14FB0408F475C08091E6
:104FA0002106813009F440C00E94411790916006AB
:104FB0002091230680915D063091240630FB87F90D
:104FC0008F7920FB84F9807F816080935D069093C8
:104FD0005E0680E48093180680912D06807C8160B7
:104FE00080932D061092300681E08093310680E890
:104FF00095E00E94F8198091220694EF980F9F3453
:1050000068F424E531E0829FA001839F500D1124B4
:1050100063E071E380E895E00E94971760915F0676
:1050200080E895E00E94BF171092610681E08093AE
:105030002106B0921E06A0921D06C5010E94A01670
:1050400080911806803499F482E18C9FF0018D9F45
:10505000F00D1124E358FE4FE6850E2E000CFF0BD9
:10506000EA5BFB4F8081873010F40E94241742E0F6
:1050700050E061E073E380E895E00E949717892D86
:105080000E949E188DE6B8CE580189CF8CE093E03F
:1050900028CFCF9380910604833019F18AE00E94D3
:1050A000F4158091060481508230D8F4C091250512
:1050B00081E08C1B90915C0680FB97F990935C06D5
:1050C0000E9442168C2F880F8C0F982F9F70809112
:1050D0005C06807F892B80935C060E94421681E0EB
:1050E00023DCCF9108958091DA04811106C00E94DB
:1050F000B215882311F080E0CCCF089588E00E949B
:10510000F4150E94B215882361F080915C0690919D
:10511000230590FB84F980935C060E94421681E08F
:1051200003CC0895EF92FF920F931F93CF93DF93D9
:10513000D82F162F0E9464140E949015C091050468
:105140001092CA041092C9048FEFD11181E0082E89
:10515000000C990B8C0F911DC7FD9A95849664E203
:1051600070E00E94F0377C018093050411110E94C9
:1051700055140091CB041091CC041093BC040093FF
:10518000BB0483E50E94DC1480E20E94DC148DE203
:10519000D1118BE20E94DC1480E20E94DC14D0E08A
:1051A000CE010E94F8148EE30E94DC14C7010E9415
:1051B000F81480E20E94DC14C8010E94F8140E94D6
:1051C000E31482E18C9FF0018D9FF00D1124E358D0
:1051D000FE4FD0858E9DF0018F9DF00D1124E35878
:1051E000FE4FC08591E0D33009F090E081E0C330FC
:1051F00009F080E0981761F08DE40E94DC140E94B1
:10520000E31480E091DBCDB7DEB7E6E00C948438A0
:10521000C8010E94A01603D980E00E94C21D0E940E
:10522000B215811104D880912F05882359F021E00F
:10523000D23009F020E091E0C23009F090E081E046
:10524000291301C080E0A9D98091DA04811101C03D
:10525000D5DA0E94371E1093C6040093C504D3CF3D
:10526000B0E0A0E0E6E3F9E20C9462388DEC94E063
:105270000E943D148C01009709F477C0D1E0181604
:1052800019060CF0D0E0D0930301C09105044C2F17
:105290000C2E000C550B82E1C802F0011124E358DA
:1052A000FE4F8085833009F065C0E5850E2E000C29
:1052B000FF0BEC5FFE4FE0810E2E000CFF0BE09029
:1052C000CB04F090CC049F01D8010E9456384B01CA
:1052D0005C018E0C9F1CA11CB11C7501640182E154
:1052E000849FD001859FB00D1124A358BE4F169600
:1052F0004D915C91179770E060E04C155D056E056F
:105300007F050CF440C014968D919C91B0E0A0E014
:10531000C816D906EA06FB06B4F19401C401BF0120
:105320000E94DC37009751F0C81AD90A10161106EE
:1053300014F0F0E0E0E096012E0F3F1F3093CC0414
:105340002093CB0481E08093C2040E94C213609337
:10535000D6047093D7048093D8049093D90480E046
:105360001CD90E9464140E949015CDB7DEB7ECE002
:105370000C947E38E385EE0FFF0BE55FFE4F019046
:10538000F081E02D9CCF60E08D2FCCDE8091050474
:10539000082E000C990B22E1C202F0011124E358FF
:1053A000FE4F3085333051F0289FF001299FF00DDA
:1053B0001124E358FE4F2085233069F422E1289F11
:1053C000F001299FF00D1124E358FE4F101611062D
:1053D0003CF4C480D580D092CC04C092CB04B2CF30
:1053E000C680D780F8CFB0E0A0E0E9EFF9E20C94F6
:1053F0006638C82FD62F8370833039F58091DA0450
:10540000811123C0CB3009F10E94C2136B017C01D2
:10541000809163049091640403E614E0D83031F085
:10542000809161049091620401E614E09601281BCA
:10543000390B203F310548F081E0D83009F080E099
:1054400061E070DEF801D182C0828C2FCDB7DEB76B
:10545000E8E00C9482388091DA04811133C08091A5
:105460000604823051F0833051F0813059F582E0EA
:105470008093060480E058CA089581E0F9CF209116
:1054800006042330F9F480910801281B20930801B9
:10549000E09105044091CB045091CC0482E1E802F4
:1054A000F0011124E358FE4F668177818481958154
:1054B0000E94571A0E9417210E940F2281E06DD886
:1054C0000C94CF1E0895833021F4909106049330FC
:1054D000C1F09091DA04911114C090911A058913CA
:1054E00001C080E080931A0580911A05882351F04D
:1054F0000E9429140E94D71C0E94371E0E947B1D07
:10550000A4C908951092DB041092DC041092DD040B
:105510001092DE04EFCF80911A05882389F0109253
:105520001A051092DB041092DC041092DD04109234
:10553000DE040E94D71C0E94371E0E947B1D85C975
:105540000895B0E0A0E0E7EAFAE20C946638C09172
:1055500005040C2F0C2E000C110B82E1C802E00197
:105560001124C358DE4F8885833009F49FC0809191
:10557000DA0481119BC0CFDF80910604811186C0BF
:10558000CE85D09106040E94B215882309F44FC03D
:105590002091CB043091CC04A8EEB3E00E944738B0
:1055A000C090C904D090CA040D2C000CEE08FF086E
:1055B0006C0D7D1D8E1D9F1D28EE33E040E050E0F8
:1055C0000E94253897FF08C068517C4F8F4F9F4F2E
:1055D0002150310941095109E2E1E09FD001E19FE9
:1055E000B00D1124A358BE4F1496ED91FC91159760
:1055F0006F01F12CE12C2C153D054E055F055CF08B
:105600001696ED91FC916F01F12CE12CC216D30698
:10561000E406F50624F49F0160E070E0CB013093CE
:10562000CC042093CB047093CA046093C904D15076
:10563000D23058F4000F111FF801EB59FB4F809145
:10564000C9049091CA04918380830E9464140E94CB
:10565000901580910604833011F43B9A439A00918F
:105660000504002E000C110B80910604833080F499
:10567000813090F1809106048093070183E080934C
:1056800006041092CA041092C90404C0CF8579CFD1
:10569000833089F080E048D98091AE04811106C042
:1056A00080910604811102C03B9A4398CDB7DEB7C2
:1056B000E8E00C948238109206041092AE0482E165
:1056C000809FF001819FF00D1124E358FE4FC730F9
:1056D0000CF0C6E0C687DECF8091070180930604F8
:1056E0000E94CE1F82E1809FF001819FF00D112466
:1056F000E358FE4FC6300CF0C5E0C787000F111FFE
:10570000F801EB59FB4F808191819093CA048093FB
:10571000C904C0CFA6E0B0E0E0E9FBE20C946C382D
:1057200042E1849FF0011124E358FE4F2185328528
:105730003A83298393859F70268540E1249F9001B9
:105740001124922B9B8394859F70278540E1249F91
:1057500090011124922B9C8395859F70208940E1B4
:10576000249F90011124922B9D8391899E8396E022
:10577000899FB0011124665E7F4F46E050E0CE0164
:1057800001960E94AF372696E2E00C948838A7E095
:10579000B0E0EDECFBE20C9468389091BD049923E5
:1057A00031F01092E1042796E6E00C948438182F2B
:1057B0000E94641411110BC02091CB043091CC04D1
:1057C0008091BB049091BC042817390751F36BEE0C
:1057D00090E080E00E94BE3767E081E090E00E94A8
:1057E000BE378091B004811102C080910901898384
:1057F000809105048A83809106048B838091C9047B
:105800009091CA049D838C83809108018E8380913E
:1058100007018F8347E050E06AE070E0CE01019617
:105820000E94AF378091BD04811137C0112349F127
:1058300010E08091BD04811102C0812F6BDF1F5FDA
:105840001432B9F78BE1E82E85E0F82E02EF10E074
:10585000F70161917F01C8010E94BE370F5F1F4FA2
:105860000F30F1E01F07A1F78091BD0481110CC03A
:1058700049E050E060E171E082EB94E00E94AF37D4
:1058800003C08091050446DF8091CB049091CC0445
:105890009093BC048093BB0486CF1123A9F3D2CF8D
:1058A000A8E0B0E0E6E5FCE20C945F38182F562E35
:1058B0008091DA04882309F4D4C080910A01982FDA
:1058C000990F990F891B880F8A5F810F66E00E94EC
:1058D000D037E92EF12CF594E79444E4C42E90FFE0
:1058E000C12CE394EE0C812F0E94E515A12EB12C62
:1058F00062EF71E0882319F1F501E55EFA4FF0805F
:105900008AE0189FF0011124E958FC4FE4911A3104
:1059100079F0E23008F44DC0153191F56AE06F0D71
:10592000F11001C062E084E0689FB00111242FC033
:1059300081E06EEE71E0F81611F06AEE71E0CE01D2
:1059400005960E9490376090C304062C000C7708DF
:10595000D12C460183E2880E911C88E0E89E7001FC
:1059600011246A147B0421F48091C40481118BC03A
:10597000511048C0B701C4010E94291C80E26BC0CD
:105980002F2DE33039F484E0F89EB00111246A55DC
:105990007E4FD5CFC501880F991FFC01E459FE4FFA
:1059A0006491FC01E359FE4FE491E1112195620FEE
:1059B000BACFF1100AC066EA71E0EE2309F4BFCF56
:1059C0006EEA71E0123009F4BACF1B3041F460E3A3
:1059D0006F0D6D8380E38E838F831886B4CF123171
:1059E00009F4F3946F2D67FD619570E000E220E00B
:1059F00043E0CE0105960E947A12F7FEEECF8DE2CB
:105A00008D83EBCF8AE0189FB00111246E587C4F34
:105A100044E050E0CE0101960E94873711E06A14FD
:105A20007B0409F010E0512CB701C60105960E94D5
:105A3000291C8EE3111101C080E20E94091BCE01D6
:105A400001960E94661BB701C4010E94291C5520C3
:105A500009F494CF8EE30E94091BCE0105960E94A3
:105A6000661B2896EFE00C947B388AE0189FB00103
:105A700011246E587C4F44E050E0CE0101960E9404
:105A8000873710E0D1CF5110F0CFB701C4010E9489
:105A9000291CE0CFCF93DF93C0910A010C2E000C9C
:105AA000DD0BCE010197C82FCC0FC80FCC0FD6E06D
:105AB000DC0FCD3130F461E08C2FF2DECF5FCD13FF
:105AC000F8CFDF91CF910895CF930E948F1F8091DF
:105AD000DA048823D1F10E949F15C82F8091B80461
