:020000040000FA
:100000000C947F110C945A2D0C94332D0C94A71141
:100010000C94A7110C94A7110C94A7110C94A71180
:100020000C94A7110C94A7110C94A7110C94A71170
:100030000C94A7110C94A7110C94A7110C94A71160
:100040000C94E92C0C94A7110C94A7110C94A711F3
:100050000C94A7110C94A7110C94A7110C94A71140
:100060000C94A7110C94A71153415645440020202D
:10007000200031206B487A200035206B487A200020
:1000800039206B487A20003130206B487A003530B7
:10009000206B487A003130306B487A0031204D486F
:1000A0007A2000313020487A2000323520487A20EA
:1000B00000353020487A200031303020487A003531
:1000C000303020487A0031206B487A200035206B90
:1000D000487A200039206B487A20003130206B4864
:1000E0007A00535445503A20005058606870081800
:1000F0002030384048000810283840302E35206B1A
:10010000487A00312E30206B487A00312E32206B35
:10011000487A00312E38206B487A00322E30206B1E
:10012000487A00322E32206B487A00322E35206B0E
:10013000487A00332E30206B487A00342E30206B02
:10014000487A00362E30206B487A00204155544FB3
:10015000202000313130206B487A003834206B4841
:100160007A20003630206B487A20003430206B48EB
:100170007A200000204D485A2020002044454C3A67
:100180004257004E4F205341564544002020202026
:1001900020464D204641564F524954455320202079
:1001A0002000000002010000000000000300000029
:1001B0000700020100000201000001000900000028
:1001C00005000101000041555400204F4E004F46EC
:1001D000460020353000203735006B487A004D4806
:1001E0007A0052535300534E5200313030003530B4
:1001F000250031306D0031356D0033306D00363003
:100200006D0020413200204131002020202020209C
:1002100053455454494E475320202020000000806D
:10022000007301760178017A017C017F01810184EC
:1002300001860188018A018C018E0190019201944E
:1002400001510268028A029502F502650368039370
:1002500003AE03B103B403D903E203E703EA03ECFB
:1002600003EF03F203F503F703FB03FE0310042778
:10027000042D0432043404360439043C044004439D
:1002800004450449044B044E0450040003740BD489
:1002900084606FAE6CF9BB84A265B14BF672011A33
:1002A00021E85AD8D604735E2C226EC4E9B58B813E
:1002B0009A1EE487C99E7B17526DADE3E58B04A7B8
:1002C0002E996A32AA9997CCA65B15795648016394
:1002D000B1DF5427065706538CA627AA6689031850
:1002E000517EFB67D3CEDD3FFD3D1F478401F38583
:1002F0006EF83B792B0C904B67467D5488FDD612E7
:10030000E5E748F20EDB994D71A54068D9C9593926
:10031000E475201CE9B1F5013C19BB60F7FA6B1ECE
:10032000689F19B6ED140F56BCC134CB009D43D461
:100330000FF3629C9DF78B9D533A8D2F3DDE3D3828
:1003400031039BC7C159E9D175888D365886704EE7
:100350005B9ED0DBCBF7EA1FDBA53BB3BD6BBCF3E9
:100360007065D5170F64152420D5B87B0D27298516
:10037000881F5822574F09C04DD6E4C6B53A3733C7
:1003800027BB6A1469031BEDA8C343E8EADE4106F4
:1003900025C5C83CBF32B2A7DD22C2E9CA84F2C07B
:1003A000267C7801F7D5C60533E4C278EC1BFDD274
:1003B000507D11295799B0F1556674B45823A06F38
:1003C0002ED89B08B33E53CF5ECC7ADF4EED42165B
:1003D0006A9188431B1D845C52216658243671C57E
:1003E0006A0D2C869A239DE03543C97F41BD8299D1
:1003F000ED7A26B2D3A6CE4F00E687E3D7682886EB
:10040000F7CED2B3D31B0402B978B3ADE03C53A608
:100410008A4A22BE1FCEB176F22F81A8C17872B06F
:10042000156519E332A74D0CD300B9C327BE744D2F
:10043000D1E10C36DD23FBA722D344CAB3081BB499
:100440000D4BDF1AA69032925C1AA7CD852E35117E
:1004500072F821357D3FDB298D30B34F451477CFBE
:10046000992FA39081B0AEE845E63AA9A262B7DB26
:10047000BE2539A5FCEAC5BC3AEC90AEA6FB12AA93
:10048000C76222AFA984B964B8FB8DC11CC3D087F1
:100490006D5CB4FE3FA4B8D889F40159BB04A543F0
:1004A000441ACB4130F75B9AEE28F44C7199CA4B51
:1004B0007F2A13F04B54B3FC90EDBE483FF15E0D24
:1004C000A1BB1E591615F04B504C96861BA9CCC2E9
:1004D000694E1003F0E953E5E2BB45E28DAE407191
:1004E00008864D08F49690585340A58B5B3CAD4769
:1004F000B5D7E26A1378D4DCC9EC0E93F0C01D9531
:100500003676A45385C9ACE4718DAF6861209DFF38
:1005100045356E04D82732C3DAEEA26604B7210649
:10052000527F398FFDEE9074B64FB6240E1248F00C
:10053000B230F2A54C9152E3C6487B3896239ED741
:100540001B95153AC98B6F637D1DC9EA96E601D7E5
:1005500085C0EA3DCAD3B7FB07543A00313D74E485
:10056000125BA238335BBF1DDC4EE8851077ABEA27
:100570006579B0AA3061C6F63BCC95FC837F8C7B55
:10058000B55205EBF721DE89B66DEE317713AA93EC
:100590005596086E1C82B57E95B994DD68425C3A2A
:1005A00000C37B6F606A2C07D76C82FBB281256920
:1005B000D6720AD2E8500588491B6372996CE37AB7
:1005C000AEB01B9ED42554258A901797DF39B87C8E
:1005D000EAF082DD25D2ADE7F6362384A9C96A5355
:1005E000F4822C1DEA06C64F705437802A6B63DBF9
:1005F000CC86E68C7F278C7254739E1BD64CFA05F2
:100600008280D7B711980000000000000698691595
:100610001CFC868774845BD40FDBD727C54AB28F56
:10062000297A4A230AB807D03470818E53EF4316D3
:100630003FA8A79E5A77C091B789155248C0B762A4
:10064000ABE1746410AA096B9774217935A19725E1
:10065000FC78C1EC6E877740871A74828156DDEC96
:1006600037ADAF0331AC478574C02A459DF4120CF9
:10067000F986B04A16D8116C46C44A67988B1B425B
:10068000C2BEBB0E4884F708A6C38F8E8DABC29B3B
:100690005D5C6028578F0EAD2EC15E95299AF48A55
:1006A00027D441BB4AAC5DB29326FD87813F2735F5
:1006B000A6422C1538ADF8026F94DA08EE19D890DE
:1006C000FA89C3AD89FEC60246811D0C8D782FEED6
:1006D000D3ED6C7B95495687F4E263DA39CE681620
:1006E00018ED98EE86F3B3C1121A519B571D199E4F
:1006F000987ED2FD3D2B5915467457791481718926
:10070000D922DD9210D98991DF67006E53AFDAB537
:1007100028301E47E6B7052D22CF7F6ACD88906B23
:100720008C16368807A1B7AFF331C4DB768B969E63
:10073000F017A73F847891A8CD3F8FA5DD5214F91B
:10074000395D0B568E1C5A5B89EE809E33BDB145D8
:10075000154234597820FC2DDBC92E0F3526CF23C6
:100760009B3E1D9F0F260EB7B54EACA286D5DA363E
:10077000045A73466A88C52AA083E88B5F3CAF6A37
:10078000444E759B8F93373538BD029A1D8429647A
:100790002597E07C2AB6CBC166513CBC3BF3552B78
:1007A000B7BD81ECF349D5F803E0BDC60CEEC01926
:1007B00008FB4F8C94080EA53037F0B818937300DF
:1007C000BB5252B4980D4B45B9890A34E91C245ADE
:1007D0008FA89DC2D927A9EEBFC08090BC2A9343A1
:1007E000FB0AB396D1AE13410168B92C53537C0078
:1007F000A58441D6988898FEDEF7E23743620E93CF
:1008000083EE030A8DCA8759366F61F7F4D6AB8B36
:100810000F9C8396A46C4643806BEA50DCD8CED400
:10082000F4AE5BC6014385718D0C395EE43B2BC48D
:1008300088B2C554960E879A5093D69C91CA096483
:100840008B23C429441A67E1DAC71B2517022C8FB2
:100850002A133ACFD665312B10F5B596DF01997B77
:10086000ADD6B4C035A348E3B09EFE33101A09AE2E
:100870003C0AA1728F0051E17823F5E2BFA6462819
:10088000B34B24B1A1DEB1C4486FED5AD461F0DBA3
:10089000E1085C64C0CAE9A9DEDEECC0685B6DBD3E
:1008A00043828CCA69B1A9C8710D5D6DA5AB1A6789
:1008B00094EE0593E33FE81AE60F7F79F2CBC53754
:1008C00057DFFC4FB460C7973C61B00C4664F443FB
:1008D00092D2A5F0F3B7DFAB20B1F5302AB3DC4BF1
:1008E00039B7853E1E1B948C26288045D60136D00C
:1008F000EC934688D3D5895D7A82213EC240E3B429
:10090000DEF5A569D569495C89CDAE137070ED69D6
:100910000CECC6FE75EB4ED6B3C860FB341EF86413
:1009200092D929A813383D79C4BF21379DE34F21BF
:10093000E53F2C5C5F41FF148791E082040B1E555C
:1009400053DC5640A43578E29B49222E09CD1F6F17
:100950009483EEEA8BC4C210E080D9A55F53349C27
:100960008CEA95648794D6321CEB93BFE35583C21F
:10097000F6FCC885B2945C425F6B8E3B9779747EBF
:10098000E35CC2631A22B17F94CBE7B7FF0E3795C1
:10099000AF105317881272DDCBAB4B6B6824ACC918
:1009A0005C72094FF1FB1DE7A230E9204BDA707C45
:1009B0009EE234EB6A35C233D79D07B1EFF675F589
:1009C000FDADC74BD0B7DDAE1E8D1EC0399CA71C38
:1009D000C5CC3950C66BC6DA37C7E120EB74A53DEC
:1009E000C008FAC2DFF29E432BF07750498CC32F28
:1009F00068F32A9B831ADC05D8B77C3C611176EC3E
:100A00002DFE86088715A3C01CB46A8D9EBF9AD59B
:100A1000C85B05181015FBC63CEEC5524B313607B6
:100A2000B94C81EA83D782FEFC43594E20BDD36581
:100A3000CF1F5C711FBF26EC44EB0174823C8E60BB
:100A4000DF479031177E16C0EC1EC33A7A5921A2B7
:100A50009B8E8725D3FE85DD6DE6D8CA74BADB424E
:100A600030963D8622866FDE371A932F032EE16E75
:100A70001662C1E12DFECBA8DF6405EF23BC7161D6
:100A80007B1B602227BDC6A37207AA09B052F219C8
:100A9000154DBEAF263B4D62A63C41077A34253C3E
:100AA000D6CDB65547871ECBCFCED20D95C0D872C6
:100AB000A6E0332426517E71C7533FD4677352CBCF
:100AC000785A001115715F8D3CCF40CDD97430D963
:100AD000A13FC658BCBE7818319A3960BB8D7B34B3
:100AE00095A5F1543BB98599AFC445EB64A76E5900
:100AF00060EB1E7AFBFD924323F127AC6612662859
:100B00008A5CF6C63F7604E80927ED05AA26E5B417
:100B1000AD40BAF7F484CB7F07108DB6C7D477EA1F
:100B2000BA962A98F056D7FF504D59793D41E0FAD0
:100B3000A99D3EA6D979C80DD156C5ADD7FB703C4D
:100B4000BDF3E95D1C5393331DF81BEE9FB750AC0A
:100B50008F485961C9859EC8B0D27439DF33F528F2
:100B6000E06311A7C405BD3AD934CAF9AAE200E688
:100B7000E638573EEC197C0D2745C552C4FFF46991
:100B8000C5F573734FE307C7CF38235B9C99A26AFF
:100B900072B03539C10AC71C1A3060181D2BF0C855
:100BA000F179A394E336359369059107126044FD0A
:100BB000B6C6FFE0CFA2CFC2A358AC32E32EEC0DF5
:100BC0009D1BFB0540BA678ECB38D7609CFE9EA16B
:100BD00070CC40728C8C507185DD84925CEE44B692
:100BE000E0801532DD1B4B8C6E8E3997A5AFC6F4B5
:100BF0002985D3859385C854E4591D4EA0FEC507A9
:100C0000C1F73252F94D4585FCA0FA37B59D47E84A
:100C100052238D928743B4B84F951B1E4FE545BFB5
:100C2000CEC80CB27DE7D92E88B72A61E12DC42148
:100C30002EB84DFD2187302511EC1F299431D29219
:100C4000853817DA634D8CB4065564B76CFCC28DD9
:100C50005D978609D34369E83577CCAF91363C7C04
:100C6000A36E4E4AA2C94150EAABDF8704704F160B
:100C7000F5A038F56016CD0CE5C7E3AD00126B1298
:100C8000853C5C7F76ED49F29D8FDFABE1DD87012E
:100C9000ED2C1B4B55117FC392D391C1D8A737C7F9
:100CA000E55B482BED31DECEFB9500000000000037
:100CB000000008E35184000B4D2673118B1EE200E7
:100CC00000000000000000040473E072FFE659C950
:100CD00000000000000448BFABF399877C070000C8
:100CE00000000004FB33B163616112AD000000003D
:100CF0000008AA30AC174D3086BF6713F1A700007B
:100D0000000000000000041B48422384BB7FB400A5
:100D10000000000008A69F43785CA14E8BA6E67CED
:100D200049000000000000000001F7315D2730009D
:100D300000000000000000010B570B79F7000000D5
:100D40000000000000024433BBB45BC70000000099
:100D500000000001ABE301C2D2000000000000006F
:100D600000017A079EAD8400000000000000000230
:100D7000F1EEF7D8295000000000000000012C35EA
:100D8000543ACC000000000000000001C93D666A32
:100D9000980000000000000005247AF71C2440EBB6
:100DA000A24DC266C8372C030FF301066D9A42F0BC
:100DB000948FEDBFE3283B72693775B4A09A6E310A
:100DC000FD665BCBF3BA8CA431FFBA7C2454D3C646
:100DD000638993E4EDDA58474EB58FD793FDAF3171
:100DE000EAB4ECC9057D2B1596C1007E80E6F74775
:100DF000CD6A77F10E5913AA5C838870DCC4525215
:100E000020B6692D6C6C8B662ACD5A4130D6FB7B9F
:100E1000A0EC7A22887C716EAF6206F4A8C6888541
:100E20007636C5C0D867967CE84DD4FBA96F0FB263
:100E3000A7A3196A30FD6FFC2BCEA41B8E57485117
:100E4000C6980FE5087B4DFC59DDCF131B310C5EB6
:100E50003B98E1F4C341D7A2645E16F9EBAE20E9FA
:100E60005D54BD99D3A7C1D9E53222D69F4FDD6B22
:100E70003C6DE94D965211DA2386BE01C451C29CE5
:100E8000C6F52F1FD0F1F55782FECBFB4ADF1D00C0
:100E900046B8A73A566608714E47F827265F6CD8C1
:100EA000C305990A758F4FC18872A05A1308A3828F
:100EB000842ECEB5A34605D66A7856442386F2C959
:100EC00063088BBDEE56D4361F375318E7DA1CFA89
:100ED000D005D55FE7B7AD362BCB06C053F432A8AB
:100EE000756FE3C9A1B0A6E6C2410F5D2E0A64503A
:100EF0004692495B2D002EB5213F0B4A719688849E
:100F00004C98AA2823EBEF455C6278D6E4FB6DC3CE
:100F1000D9356CB92AC67471C40C657CA3F96E2DE1
:100F2000B986B0046394CF267D9E1EF799DAE08CD3
:100F3000DD86F3C8F1C64E155DED34BB90CDD626E7
:100F4000091EF6238451C1AE428F8496C957AE164E
:100F5000363A298765B2BA5696D2F509EF304A0F6C
:100F60006236FE0030BD091B50C33C48D725E18ED8
:100F7000B26F4D752DADC61EBAFA4F41AF7A6FA054
:100F8000A04FB68834698A9E837A60F3A87E392A96
:100F9000209C325E7DC4AA97E6263542A1A0EF3997
:100FA000B31C2763D27F75C01EB4FA4D7A81813994
:100FB000E0792F94A5283A437E97B594AF2A10384C
:100FC0000A7F4991C06C659AC6C95DD5524698742E
:100FD000AC93E421B0EB08FAF4412EA6F9C5EDE399
:100FE0003798C5DF528241A2F2561AF3A4C6408D4B
:100FF000B95FAA751E151E68782B2BF43EC7CBF37C
:101000001360E0F48579880C227587B751E0D6E348
:10101000A092D3D7E36C5B3EB780E748D6D92F497F
:10102000CC75A004C94888E9CC3241AF30DEC6BCDB
:101030009DF7FCFF69035058A1D6B87B5E60FCCCDD
:101040000014AF3A3041B34E634795E4BD5374D0BA
:10105000F002B4FE48196C3F23F79B4411F2C245DD
:10106000A637776C10630E1BA7D196CA0D4F5B4352
:1010700051D614B723E799A49F4C7DD7DD0811847E
:101080004D5CE96090048B1490F06F26450F208C26
:10109000E36F4678EB12B45EF0DEEB222762784213
:1010A00093BCE848C088BD0FDE232BD1880AE2B488
:1010B000338E6136435842AE6BD7F2FE0AC1269496
:1010C0007ACE8C3B435A62EF708AFE4DD237DBA159
:1010D000B1061B30174CA0241EBECB64E2CE135CBD
:1010E000D705A6763938F3852C160EB3E23DFF7985
:1010F000880B93EFAD55CDB4EF8FB8167A05C05E6F
:10110000920F4F9858D422AD4325317852C69ACACF
:101110005EA64E79979ABBDF6DF1E2D0B3CA2A5C26
:1011200046825C1EDDD0C519892B2CBDC084D93305
:101130003967E4E47926B69D1C1DE470A5A7618992
:10114000254A57337D0DCAF3CC22AAD7D9CBE6B2B4
:101150009646159568D80FDF6B36DA198216CE38A9
:101160004ECFF236C880075388042FB214195DC5DC
:101170006CEF959C608B6AE4FC9DB29CED1D9C1B02
:10118000CAA326DD9C635B3B882BBA223524014829
:10119000EEA04F6E964E2991AAAF5647BD7BDDA1BA
:1011A0005599D8B5A147937BCD7BCF65DE5018F21A
:1011B0000549F199D894213F7D52C6B1B4E19FF021
:1011C0007E60648B30E4AD2C97FB47F70901047B0C
:1011D000F4F7A7A804A57F0858796D26276AD0D907
:1011E000AFC1C71223E1AE98A40FBC1BFA9D910BAF
:1011F0001515A524531A13E0C30095389C364CCF1F
:10120000F6A9BCC1530604F46FBF57E0A614A64963
:10121000707F392A4A5A593633B90D472539370470
:10122000777C45AC19932549E07A7BA2C695768DEB
:101230003C79B1A7C38363032347D7ACFB84166F04
:1012400022490B97AAD538575E2BBBA749EDD2D5BB
:101250007A96BE8DF5F94656F52FA7A87AFF3FE797
:10126000E88CF148E846CB4D25F935932FCE8BB865
:10127000A9C5D3D22771866F72D9CA4E90D36DB1EA
:101280003CD3CBC9303A26459D66445C5FD8E39099
:101290007C1BD882DDD384D4C61B58BF02A53B106B
:1012A0000A3EE309940B99882B47A79089C44825E7
:1012B00036DB7231ACF5A30115D0E62161EB597232
:1012C000DC94000098F7B0F9FAC10A7EDC69CE9090
:1012D0005E82110B97E29955A23DFAEB88BC4DC294
:1012E000548D5FDEA3E248132046C5A08104C42BC1
:1012F0009A8415B89E9B62A1EC7D083CAD214B8978
:10130000FCC6967C3A41358A13BD1B43BF367A4EE4
:10131000CE709E2AF63933C7334B347D2A81FA25A5
:101320002EC5C4A1280ED54D15E069127119AAFF6A
:101330005948815653C935124D84699136D8ADF755
:1013400054D58CF9C684126222F1B92B1DA57C56A6
:101350007A4D5AC4F09D8F5DB59A7FE7B7A85D6D51
:101360003700000000E4F2EA7A73F8FC6717F3D95B
:1013700060090E8B0FE2F98361DF5369D0EE4251B1
:10138000B5514864F8DD3EEEA747F07C4BBB2B8E91
:10139000E28B6057634B9BAA6763EAA3D57C43410A
:1013A000A95474D286C3114269C5093E8F94AFC552
:1013B00099BBBBAC61646101F2D359B14150911644
:1013C0006CCC9BEC5CFE3BB3EC6ED7F10E5A8A5FA3
:1013D0001DB0C576542607BC66F0ED519A1FE8F79C
:1013E00051588E1E80991FEED643CCFA2FAE80F254
:1013F000A8A8AE437C8076D41AD4737461DFBF2969
:101400006F561593075892F11DE87B68B25420304F
:10141000012DC5D8FD6150140F584C1A5400127E8E
:1014200046990C9DD1A304F18217FEFC12E575814B
:10143000AFFF3D08D539874A8EF07AD4D0D6CFA9F0
:10144000D6594841C268E3A435458D141AC400003A
:1014500000000044892C63C8AF7BAC354327BE7EB7
:10146000CF56403DA5AC0F97CCD46ED031D7146089
:1014700045AEDF0AAA33B388E01C26DC00B875C885
:101480006711A1B58771F94A6AEC3F0E4121C24F3D
:10149000928F1753EED5EA4F917502590000000262
:1014A00094E4DA4AB3AAA72E9CC780465EBD0633F1
:1014B0001DD85D9F5F77730A7D386BA70E8F4E7DB9
:1014C00001DA4474D2F17A2F7FE1ECF1A57D033B80
:1014D0002F17B6E80D333C2191915B302C11C65883
:1014E0006AE4351BB5A847B3FFD0960E484E973730
:1014F000601204FFCBA5F51D409CDF36123DD92AB2
:1015000072DAE88BE45BCFE93852EC2CA0F779ADC6
:101510002070592062739CE34609C912D47755079D
:101520004B6A261E5D0778104E4ADA5EF63B9B8DAD
:10153000FD48D0BBAA212EF5DF854CA71D1A261B1E
:10154000A082867F4B02D2F660C9860C1DBF7369EC
:1015500086184B44BC74E5821793B50A5608B74AFF
:1015600073B804D214215E2CA0E0C2015FDECE6409
:101570002AD8652BF074E354BFA09B50BA02002C0C
:1015800095CE2A4FCF2B2B0E9BDD8F675B54A14747
:101590002E842E24FA34E05A103BCFAFE2ED28D14E
:1015A000176B9A1B496CFCCB7A74092A415AFFA12C
:1015B000F598C60CD26983D2C369875E7EBBFCC036
:1015C000D1C117D79BE15370B743D0382526494086
:1015D0005B57BA4932AA9F39AA8E73008513796D79
:1015E000F1912F9EA3A0657C7D53B47053016B9243
:1015F0005F38F1D73D7AD607727ADBA165A507413E
:10160000004BEBC5D03BEB3061420D4BA3D8078BB1
:1016100012F5893D7CFB2E79A7BCD5BF729AD815EF
:1016200039AD2570D16CB05DBBF43AF66056FAF274
:10163000A528AE0D76B379F14BC72E6EB661622246
:10164000D9A730234521DE478CEBE54C8B4E79A0A2
:101650009D95B305AAAFECE67473F0DC37AD933B10
:10166000206DA1D8CFF97E9EC6BB406456A61875E2
:1016700028D2BA78645C484570358C499A454A6DE1
:10168000F29C8D480A612EE3D4EEA829404B53BB4F
:101690005639CE816CFD37A0791CC794176C37EA98
:1016A00097F4D8D49F9F304FE5A408B86BAEB9BC6F
:1016B0004F612044DF92DB1E0483C0A12C09D8DFD8
:1016C00021F0200480AF7391BC0EBAE4F79B363C46
:1016D00030F1B4BADCFA65F22B1D184E1662D4ACA8
:1016E0008B21A5A2F132C3C965632D316BB88FE19F
:1016F0002493870499E6BDBA283063DAACC79937DA
:101700008A8666B344D584AAA15342A0381E5DF7E9
:101710000529E7CA2A0B6AABCEF03AF390E6D12549
:10172000A1331C33997D24D17423FC6F7DDBA7E9A1
:10173000C2DE17122D1CB37E8800000000000003DB
:1017400008757D9A4937AF60047CBCD31C53703454
:1017500097EBE1CD3079A28694585A99C269D7B2F5
:1017600032626C0A3669B1354841CE79967A0D2DD0
:1017700033BF4D2FB8D8B3FBE47193B9180D51ABFB
:10178000BB09D90DD7671E4728C7F7CE6058282355
:101790005E95FC2BDBF90D1FAB49E6D0A73779200E
:1017A000E4CF05E36421ACDFB1E8F9E04C3B5E89AE
:1017B000682A48C5640EDBF1538B1A2FF60C189C6F
:1017C000529B212E4AE7D6BBB71A0A22AB4AFDD359
:1017D000027D21FFB90E0F29ABACF4445E0FD5F3A7
:1017E00057E54F61724EBA55378F9A1CD4B830AF57
:1017F0000A951A1386D40A835C991B2BC093F513A0
:10180000F5EAFB6F75746C2E77C344C53862B9F581
:10181000AC58B4966EA4A545B51B7C9D219516EEDB
:1018200029572012BBF80A2325AC51FD7AE09D43CD
:10183000B0276F2ADF0408D3F11D3C128DAFF2D719
:10184000B9029D46E3ABFF61C8612B19C8C1A16D08
:101850000AA744FAB5A8D71E53156F7A4841E93054
:10186000B5ADE2F070406AF331DD1950E5BCB43D2E
:10187000839FDFC8252790405B32044781FA53B429
:101880000A40157A745BDB24AB3AB791E344B7475F
:10189000073990D2F5A9084658DC3210A347320424
:1018A00045441371AC2EA7C971D0F9517ECAE50920
:1018B000A81E775B3A08AA431CD68D6091466D64DA
:1018C000569E162ECEB399C8F655271384BC8AB3FC
:1018D000C8F51A72F76A0C46952F4A86B6D29894C4
:1018E000F1C3370E0C8711567EAFDA22296FEBFA5F
:1018F000EC96E0276B42A170091AAD4888DAFCE14A
:101900003B62952856702803B258678D0AEA9A15EB
:1019100095515F83070920BF37AFF70A743CA55282
:10192000F1E3F55830E117DE98F1387BF0AFBD16E2
:101930005952996C7470487714FF534184BCC53771
:101940002F71843DF5467C63E000A05607F78C6359
:1019500057BE545CE1FDAC35FAC2D5F25ABE7C31BB
:101960008EBDDBFE4D036F5EA61F232DCA68F0C639
:1019700014CCC33EF021D4402A72B67EE285D68ACA
:10198000FB48512777E4CBCD2FF6E1BCFEEDA11447
:101990005FE532FCCFD9FB2FE9AD7D2D68E79A15C5
:1019A000956A4AE4ABE4EBE00D40BDEF8FB975B446
:1019B00039086DC09F04FFCCDE13304EB6E4E0CB97
:1019C00069E5C61C2F436A632572D5DFBDDC0BE9D0
:1019D000089D3D266FC389F818AC42BF4E9D5D2817
:1019E000B0264136768D8684FAD8D4675819692096
:1019F0002D35FE09D98CFDF921A157DF17AE8ECB0D
:101A0000C97F2654DE104372DDBC18B934F9AB70BF
:101A1000F9744D8E6D2A331406D071E6ADAABE86D8
:101A20002E9A8D8788AF039FCBF8789A663809CDB8
:101A3000AE89C2CCAF6A16140948AE9B55E40FA517
:101A400086A1757F7CEF0DCB3AB30D1F020000001D
:101A50000C801FB4F4E0A641CC8700406143E7FC52
:101A6000B40000000124CA4534253C39FF098C39F3
:101A7000855A5BCC273CBD28438645179A4E3524B2
:101A8000A423A2FDCA6CD4FBBAE741B3FB7C550783
:101A9000B56E3EB12972CC38EA273080B98CB8EEE9
:101AA00054AB3EDBDD06D095EA3E42886BAE89C77B
:101AB000E84C38B693F6BE4C204A8CCE2B22D2721C
:101AC000494618568070675AFAC0CA6D5321CAE356
:101AD000866891D37CA9D5AD6A72A1FE53E9408591
:101AE000EA62A963753A2DEC9BFE58D87320521018
:101AF000435C2DB421B9961F726DBA42EAF285BEDD
:101B00005212A7B13E2B89EF0F73057C99C3C55FB5
:101B10009653F8AF9B7A49A044546055F0103A6050
:101B20008D905065AEF779DB2E08F9BBF2D278D0F4
:101B300086B594A10EB98189B7F9C043E88F3819E9
:101B4000DAED2FA75CDB01B338CEE6C3F2D5AA8766
:101B50009E116FD805F072ABD9A10FFF46E94A8CF0
:101B60000093E9866F6B1470BEB1B889C9CC7D1A39
:101B700011D279FBD9D72413948F019C4B6933661A
:101B800001829888F84C13310F58C10611300000BB
:101B90000000B48991349B89FC75CD11CA1A6FFA83
:101BA00071D645E70FEB3909B35A131FAA3A93CF01
:101BB0008D6ECAEC2C8EC5831B5AD6D189AC024FD0
:101BC000CB0F257696E05D2CFFA7EAEA92F1725BD7
:101BD000EE08D8848AA959E31277DAD6CA4E362D90
:101BE0007CA413D1E818319902540AD07A74A0ADBC
:101BF0002C834A6FF1B1501B6469E8842F2CC8EB29
:101C0000953DA518C74B82FC88E1D37B0EBE10BA68
:101C10006502859B469A377A774DC2C453306791E7
:101C200054F63D39444342132E0929FD50A6DA9457
:101C3000CE8697102B5C1C09CD0FFC15DC543B5352
:101C4000E17CA7E1FD47C2AF7EEA34000000000C52
:101C50006FE65C04306C84C751E3B55F349EDD05EC
:101C6000000000000C1CD4BCFBCD3AAEBC52925418
:101C7000852CED0FFB00000000F873105DD81F06E7
:101C8000E0A15926B4393FC119F9D4BE4FF433EC61
:101C90003F3FFE8F91D044F21278909E79A927EEB3
:101CA00005CB9F5A4B15DE6739181FE73A0A419852
:101CB000E7DEA728A0D354663379B53A83375F258A
:101CC000407047B8796B62963F48EA9F6ECB35E12A
:101CD0006F2DC4C24B9BA74D05790E1CFE095A9F60
:101CE00087227A131B9F994D05DB1573D865FE3942
:101CF0005EA4437B6C79BD73914C9B4C941887EA2E
:101D000068A7449F5C3666FD41145EB18EEB45DAF0
:101D1000770EE0EC5EF40DBF41C648F015D860F7D1
:101D20004076237B1CE559445030CE064EC5A67044
:101D3000C31817A237ACBF2C6FBC9B3F58121110B1
:101D4000390018DB7D0BD22CEE0AAF76947AC15C99
:101D500021D2619F1D7A9695DFA45181E61BD57C27
:101D60003644F060FF3AF632EC8FE09AC7E3BCAD40
:101D7000EBA694714B6D00000000000038974C36C4
:101D8000A275FFFB3FEB60E131B1BC32776CBD491E
:101D9000934BC207BAF067FD68CAF5A4FF2A5EE25A
:101DA000BEB569B2A063931BB4BD4612FAEE885F5C
:101DB00046DFB2BAE8BA5447EA000018FA08917749
:101DC0009B1C878B01709EC0052BAAD7AF30A80142
:101DD0008B28A0F59599325F00000000000008C430
:101DE000EF65453CC36DEFB8349D1C00000000005A
:101DF000000000046686F2BC9D8797BE00000000CC
:101E00000008DD58DD530F7DEC930BB95BE3000058
:101E1000000000000000087615DFC7682FA8F84D05
:101E2000338FAE00000000000000000884C3E8CB40
:101E30009C718009D71163210000000000000000A0
:101E4000040EC6F0509E0AA7990000000000149AE4
:101E50005AF9AA5F06DF5C52374B390C7E18C1ABCA
:101E6000D636F578BD9F790000000EF233610EC3BF
:101E70000B5A24023F42353DA4ADC53050000076D8
:101E8000E7E34508661821EBDD1476F8F155E83BE9
:101E90009D8B9392FFA7803438C2AD7CFFBD232B6E
:101EA0000B2C5FEAC09500FB8C376B8A42913EEFAA
:101EB000D65143216F803EBDF2B32407A5924A76E6
:101EC000513172354725E7B9D0F4C2DD52353A2396
:101ED000C416FA2A8D99D0B953C2125C3FCE8DDB5D
:101EE000D1C8D159E588FF4911ABAB7BD1F2B437EA
:101EF00049A0B1FEFE6C08761D0B0000009AF4B1FB
:101F00006DA0F220E417A74D85B38E7ACB8730AF52
:101F1000119020A819EA2207FAC14CE8FCA2038F0D
:101F20002AC536E4AF669BBA0ADD6590DAD7276228
:101F3000D9193BABF666892DA53070E9AAE2D9C163
:101F40002347FD9A254A5F896297614B91FC341BB8
:101F5000FC97B27B87F454FCD63648C28779A3C479
:101F60008F42B13147DDE8D00A714722F3F49F2850
:101F70007A700CBC5930E0E4132465BD4C0E6D9EA4
:101F80004D15901972C928B6950E92F9795C64B90D
:101F9000B97BD7DCB4B9B4967F7255AE00001EB0E1
:101FA000028E45BDF0A590B7301240B6409CF1625C
:101FB00063726DF0BA1AF6F0406A47A2FC9BD870C3
:101FC00019000000000000001AF524F64D2F64FDF2
:101FD000F7C3FDA7455D94318FD69F5D216641D43F
:101FE0003951AF618C1E9F000000000611E97A880C
:101FF00031E126B61C7400000006F59835171AABBF
:10200000193A8CC60000000E7E14D06E441C666126
:1020100067F18E287230D2BF7D6F00000817996279
:10202000EE7818543AD57F61AC0000000000000043
:102030000010833E2C924F5A985997FB8297ADC857
:1020400073A26C0D06CF000000000000000A69DAE0
:10205000EB9EF7677FDEE8830B465A3F00000000E7
:10206000000002B3607FDCA3FF000000000000005E
:10207000148ECFA26572CE3E11392D9494478EC72F
:102080008C706B7C498E3CD74C00000002C877A551
:10209000FDBA9A000000000000000A1A1BD94A830A
:1020A00003DFE2756E28D9631F0000000000000204
:1020B0001827278F4BE700000000000000000000F9
:1020C000A902AED5808D142001A1C8817FDB40A676
:1020D000AF4D4F44204E4F20524453004154532D96
:1020E00032302A2056352E382E3100454550524F79
:1020F0004D20524553455400000058028403080700
:10210000100E000000000000442A3C542200082A5F
:102110001C2A080008080808080000606000000089
:102120004020100804003E4141413E0000427F40F3
:1021300000004261514946002141454B31001814CD
:10214000127F10002745454539003C4A4949300077
:1021500001710905030036494949360006494929F4
:102160001E000036360000000041221408007C12D8
:1021700011127C007F49494936003E41414122000D
:102180007F4141221C007F49494141007F090901EB
:1021900001003E41594932007F0808087F00004194
:1021A0007F4100002040413F01007F081422410090
:1021B0007F40404040007F020C027F007F040810F7
:1021C0007F003E4141413E007F09090906003E4132
:1021D00051215E007F0919294600264949493200EC
:1021E00001017F0101003F4040403F001F2040208F
:1021F0001F003F4038403F00631408146300070885
:102200007008070061514945430000007F0000004D
:102210007F10284400007C04180478004464544C67
:10222000440000FFFFFFFF01FFFFFFFF02FFFF036E
:102230000405060708090A0B0C0D0E0F10FFFFFF1F
:1022400011FFFF12131415161718191A1B1C1D1E47
:102250001F202122232425262728292A2BFFFFFFA0
:10226000FFFFFFFFFFFFFFFFFFFFFFFFFF2DFF2E21
:10227000FFFFFFFFFFFFFFFFFFFFFFFF2FFF2CFF11
:10228000FF00000000240027002A000000000025B5
:102290000028002B000404040404040404020202C5
:1022A0000202020303030303030102040810204097
:1022B0008001020408102001020408102000000020
:1022C00008000201000003040700000000000000F5
:1022D0000002000A010B020C000B110C00021E0A86
:1022E0000100110C0000020C00020F0A01011E0285
:1022F000013F065B4F666D7D077F6F80B02D112417
:102300001FBECFEFD8E0DEBFCDBF14E0A0E0B1E04C
:10231000EAE7FBE602C005900D92A634B107D9F7B3
:1023200025E0A6E4B4E001C01D92A03BB207E1F7AE
:1023300011E1CFE7D1E104C02197FE010E94B5353C
:10234000CE37D107C9F70E944E2E0C94BB350C94A2
:1023500000008093BB0084E88093BC008091BC00A7
:1023600087FFFCCF8091B900887F803231F481E013
:102370008093F10381E090E008958033D9F781E004
:102380008093F203F7CF0E94A911089594EA9093E5
:10239000BC009091BC0097FFFCCF90E0880F991F84
:1023A0000E94C31108958091F00381508093F0033F
:1023B000882351F084EC8093BC008091BC0087FF9F
:1023C000FCCF8091BB00089584E88093BC0080918D
:1023D000BC0087FFFCCF8091F303882321F084E9C0
:1023E0008093BC00EECF84EA8093BC008091BC0057
:1023F00087FFFCCFE6CFCF93C62F21E02093F303D6
:102400006093F00324EA2093BC002091BC0027FFD6
:10241000FCCF880F991F8E7F917081600E94C3113D
:102420008C2FCF910895E42FF0E023E0F595E79508
:102430002A95E1F724E0629FB0011124E60FF71F0F
:10244000E80FF91F477021E030E001C0220F4A95E4
:10245000EAF78081822B8083089590E0FC01E354A9
:10246000FD4D2491FC01E755FD4D3491FC01EB56E7
:10247000FD4DE491EE23C9F0222339F0233001F120
:10248000A8F4213019F1223029F1F0E0EE0FFF1FFE
:10249000E557FD4DA591B4918FB7F894EC9161117A
:1024A00026C030953E233C938FBF08952730A9F076
:1024B0002830C9F0243049F7809180008F7D03C017
:1024C000809180008F7780938000DFCF84B58F77F5
:1024D00084BDDBCF84B58F7DFBCF8091B0008F773B
:1024E0008093B000D2CF8091B0008F7DF9CF3E2B8A
:1024F000DACFCF93DF9390E0FC01E755FD4D2491B7
:102500008B569D4DFC0184918823D1F090E0880F7B
:10251000991FFC01EF57FD4DA591B491FC01E557C2
:10252000FD4DC591D491623071F49FB7F8943C9100
:10253000822F809583238C93E8812E2B28839FBF45
:10254000DF91CF9108958FB7F894EC912E2B2C93B7
:102550008FBFF6CF62E082E10E94791262E083E1F0
:102560000E94791288E48093B8001092B90008950F
:102570008E3008F08E508770806480937C0080914C
:102580007A00806480937A0080917A0086FDFCCF87
:10259000809178009091790008953FB7F8948091E8
:1025A000B8049091B904A091BA04B091BB0426B5C7
:1025B000A89B05C02F3F19F00196A11DB11D3FBF7B
:1025C000BA2FA92F982F8827BC01CD01620F711D4A
:1025D000811D911D42E0660F771F881F991F4A9544
:1025E000D1F708958F929F92AF92BF92CF92DF92D0
:1025F000EF92FF926B017C010E94CD124B015C01B6
:10260000C114D104E104F104B9F00E94CD1268199B
:1026100079098A099B09683E73408105910580F319
:1026200021E0C21AD108E108F10888EE880E83E0A3
:10263000981EA11CB11CE4CFFF90EF90DF90CF90CB
:10264000BF90AF909F908F900895CF93DF93C4E693
:10265000D5E061E088810E9479126AE070E080E054
:1026600090E00E94F21260E088810E942D126AE0E0
:1026700070E080E090E00E94F21261E088810E94A8
:102680002D126AE070E080E090E00E94F212DF918B
:10269000CF9108952FB7F8946091B4047091B50468
:1026A0008091B6049091B7042FBF08950895B0E0CB
:1026B000A0E0EDE5F3E10C9486356C017B018B0124
:1026C000040F151FEB015E01AE18BF08C017D1073C
:1026D00059F06991D601ED91FC910190F081E02DC6
:1026E000C6010995892B79F7C501CDB7DEB7EAE0B8
:1026F0000C94A2350F931F93CF93DF930BEA14E052
:10270000EC01C457DF4FC8010197F1F761E070E0B9
:10271000888199810E94FB110E94D31187FFF3CF1A
:10272000DF91CF911F910F910895FF920F931F9307
:10273000CF93DF938C01EB010E944A13607F73708B
:10274000D801ED91FC919F012F703327AF01407F9D
:102750005370FF2EF694F694B7E0BF15F8F089B1E8
:1027600090E00F2C02C0959587950A94E2F781704E
:102770006417750708F47C5FDB01A41BB50B2330DD
:10278000310591F1E8F42130310549F110F1882348
:1027900009F469C0A034B10520F519C0AF2DB0E02F
:1027A0008DE08F1548F083B190E0189702C09595A1
:1027B0008795AA95E2F7DBCF86B190E01E97F6CF1A
:1027C00025303105A1F160F126303105C9F180E0F5
:1027D00010C08111FCCFAB0121E030E00AC088239A
:1027E00099F130E020E0F3CF811131C0A034B14045
:1027F00090F5EE27FC7FE22BF32B407F53704E2B9E
:102800005F2BD8014D935C93882379F1209719F0C1
:102810006F2DFE010995CDB7DEB7E5E00C94A73525
:1028200081111EC0D09728F3AB0187E0E2CF24E0EE
:1028300030E08823F1F2AB0122E030E08BE0D9CF29
:1028400022E030E08111D5CF23E030E0D2CFAB01E0
:1028500026E030E0BCCFAB0124E030E083E0C9CF1C
:1028600025E030E0B4CFAB01C4CF2330310598F27E
:1028700088E0D1CF0E94C61180E490E00E94C3118D
:1028800008950E94C61190E080E00E94C31108954F
:10289000F894E1E6F0E090E89083808378940895DE
:1028A000CF93DF93EC01462FE0919A0381E1E80298
:1028B000F0011124E254FE4FE485EE0FFF0BE455C6
:1028C000FE4F8081918168EE73E00E940B35FB0121
:1028D000309779F028813981C9010E94F734009737
:1028E00041F0442311F02E0F3F1F281B390B398371
:1028F0002883DF91CF910895F8948091610481112C
:1029000003C086B180958170789408950E944A131F
:1029100028EE33E040E050E00E941F3530937B0406
:1029200020937A0481E08093780408950E944A13EA
:1029300010928F0410928E040895E0919A0381E121
:10294000E802F0011124E254FE4F818592859093B4
:102950009104809390040895E0919A0380919004EB
:102960009091910421E1E202F0011124E254FE4F22
:10297000248135818217930738F026813781281703
:10298000390710F092878187089580910B01882381
:1029900029F090910B0181E0943008F080E00895D7
:1029A000643029F06A3019F0833009F481E0089529
:1029B00089B199B1E0919804EF70869586958270FF
:1029C00092FB992790F9892B94E0E99FF00111245B
:1029D000EC50FC4FE80FF11D87FDFA958081809344
:1029E0009804807369F0F894803159F08FEF9FEF6D
:1029F000909393048093920481E08093610478948F
:102A0000089581E090E0F4CF98E0899FF0011124CF
:102A1000E25FFE4F948181E0891B8483089580E109
:102A20000E94041508958CE00E94041508958EE01C
:102A30000E940415089581E00E94041508958DE018
:102A40000E94041580917A010E94481408958FE035
:102A50000E9404150895FC018081280F261714F4A4
:102A600040830895421714F02083089560830895E9
:102A7000282F44E060E08AE991E00E942B15089538
:102A80008436910520F40A9758F481E00895803146
:102A900027E2920738F4883E934030F483E00895AB
:102AA00082E0089585E0089584E008958F929F92D2
:102AB000AF92BF92CF92DF92EF920F93CF93DF93BB
:102AC000EC0131E0211101C030E0340FFE01E30FD1
:102AD000F11D1082F0E0E0E0842F821B990B4C0185
:102AE0008AE0A82EB12CE417B8F4222341F08E1608
:102AF0009F0629F43150DE01A30FB11D0C93315014
:102B00006E01C30ED11CCB01B5010E94F734805D6C
:102B1000D6018C933196E7CF211101C0242F80E09C
:102B20002150330BE82FF0E0E217F30744F4EC0FE9
:102B3000FD1F9081903319F4E0828F5FF3CFDF9116
:102B4000CF910F91EF90DF90CF90BF90AF909F907B
:102B50008F900895089590E080E0089584E980932F
:102B6000BC008091F103882331F01092F1031092A0
:102B7000F20382E008958091F203882321F01092FD
:102B8000F20383E0089580E008950F931F93CF939D
:102B9000DF93182F092FEB018DEC94E00E947A133C
:102BA000809159050E94C61182E190E00E94C311F4
:102BB00090E080E00E94C311802F0E94A911812F14
:102BC0000E94A9118D2F0E94A9118C2F0E94A9117A
:102BD0000E94AE1583E998E00197F1F7DF91CF915C
:102BE0001F910F910895CF93C82F682F70E080E058
:102BF00090E40E94C515C093AC05CF91089585E07F
:102C00000E94041580910B01843059F480913A019F
:102C100062E0811101C061E070E080E091E10E941A
:102C2000C5150895282F4AE56CE082E291E00E94E4
:102C30002B1580910B01843099F08091220194EF43
:102C4000980F9F3468F480936F0524E531E0829FEC
:102C5000B001839F700D112483E091E30E94C5159C
:102C60000895282F4FE360E082E391E00E942B1546
:102C700080916505803239F06091320170E083E027
:102C800093E30E94C5150895282F40E260E08AE290
:102C900091E00E942B1580910B01843039F06091F6
:102CA0002A0170E082E093E30E94C51508958DEC3F
:102CB00094E00E947A13809159050E94C61182E126
:102CC00090E00E94C31190E080E00E94C31181E077
:102CD0000E94A91181E00E94A9118091A9050E947A
:102CE000A9118091A8050E94A9110E94AE1583E93F
:102CF00098E00197F1F7089587E00E9404150E947B
:102D0000C514882351F08091A90590914A0190FB48
:102D100085F98093A9050E9457160895E0919A03BA
:102D200081E1E802F0011124E254FE4FE7850E2E06
:102D3000000CFF0B90915A018091A805992329F06E
:102D400020910B019150233051F4E55DFB4F208120
:102D5000222321F0245091E0223008F490E0929553
:102D6000907F8F70892B8093A8050E945716089535
:102D7000282F42E060E08AE591E00E942B150E9436
:102D8000C51481110E948E160895CF93DF93D82F1A
:102D9000C92F8DEC94E00E947A13D0937805C093EC
:102DA0007905C0937B05D0937C059091AE0599235E
:102DB00061F080917A059295990F990F907C8370BC
:102DC000892B81608D7F80937A05809159050E94BF
:102DD000C611809165050E94A91180917A050E9413
:102DE000A91180917B050E94A91180917C050E9408
:102DF000A91180917D050E94A911809165058034FB
:102E000021F480917E050E94A9110E94AE158DECDF
:102E100094E00E947A13D0936A05C0936B05609189
:102E20005B0570915C0590E080E00E94F212DF91FA
:102E3000CF9108951F93CF93DF938DEC94E00E9480
:102E40007A13809159050E94C61181E090E00E949A
:102E5000C3118091AA050E94A9118091AB050E941F
:102E6000A9110E94AE158DEC94E00E947A13609136
:102E70005D0570915E0590E080E00E94F212809105
:102E8000AF0587FD07C060E00E942D128BEA94E039
:102E90000197F1F78091700581111EC0C0917305F3
:102EA000D0917405BE0181E092E00E94C515D093D7
:102EB0007405C093730510917705C0917505D09185
:102EC0007605BE0182E092E00E94C515D09376059A
:102ED000C093750510937705DF91CF911F910895E9
:102EE0008091AF0587FD07C061E00E942D128BEA3B
:102EF00094E00197F1F78DEC94E00E947A138091B1
:102F000059050E94C61181E190E00E94C3110E9400
:102F1000AE158BE097E20197F1F70895CF93C82F94
:102F2000CF708DEC94E00E947A13809159050E9435
:102F3000C61182E190E00E94C31190E080E00E94FF
:102F4000C31181E30E94A91182E00E94A91181E0CE
:102F50000E94A9118C2F0E94A9110E94AE158DEC20
:102F600094E00E947A13CF910895B0E0A0E0EBEBDB
:102F7000F7E10C948535EC01162FFC01E856FF4F64
:102F80008081803261F098E0E92EF12C02E48034F7
:102F900051F026E0E22EF12C02E5803521F088E0A8
:102FA000E82EF12C02E2CE010E947A13110F12706A
:102FB0006E018CE8C80ED11CF60180810E94C611FA
:102FC000802F0E94A911812F0E94A9110E94AE1585
:102FD0005E01FAEBAF0EB11CCE010E947A13B7016D
:102FE000F601808191810E94FB11912C092D10E046
:102FF0000E151F0554F40E94D3110C0F1D1FF8016C
:10300000E654FF4F80839394F1CFF501808186FDD4
:10301000E3CFCE010E947A13CDB7DEB7EBE00C947C
:10302000A135B0E0A0E0E7E1F8E10C9488358C012F
:10303000D62FFC01E856FF4F808198E0E92EF12C55
:10304000C3E2803251F026E0E22EF12CC3E4803559
:1030500021F488E0E82EF12CC3E5C8010E947A1320
:1030600068018CE8C80ED11CF60180810E94C6114F
:103070008C2F0E94A9118D2F0E94A9110E94AE15BC
:10308000C8010E947A13B701F601808191810E94E4
:10309000FB11D12CCD2DD0E0CE15DF054CF40E94D4
:1030A000D311C00FD11FCE54DF4F8883D394F2CFFA
:1030B000CDB7DEB7E8E00C94A435CF93DF93EC01F5
:1030C0000E94AE15188283E090E00197F1F7DF913E
:1030D000CF910895CF93DF93EC01862F0E94A91121
:1030E00088898F5F888B803138F0CE0140960E94AE
:1030F0005D188C810E943A14DF91CF910895B0E061
:10310000A0E0E5E8F8E10C948935D82FC62FF42E1D
:10311000D22E8091C0040E94411461E28CEB94E0B5
:103120000E946A186D2F8CEB94E00E946A186FEF72
:103130006F0D6D0F8CEB94E00E946A1862E28CEBCD
:1031400094E00E946A18EC2EE694E694E6946E2DC4
:103150008CEB94E00E946A18CD0DDD27DD1F2197CE
:1031600083E0D595C7958A95E1F76C2F8CEB94E0B9
:103170000E946A188CEC94E00E945D18CE19CF5F13
:10318000CF9DE00111248091C0040E943A1478017F
:10319000C00FD11FEC16FD0671F060E0011511059E
:1031A00011F0F70160818CEB94E00E946A18FFEF48
:1031B000EF1AFF0AEFCF8CEC94E00E945D18CDB7B8
:1031C000DEB7E7E00C94A535B0E0A0E0EAEEF8E168
:1031D0000C9488356C018B017A01E9018091C0045F
:1031E0000E94411461E28CEB94E00E946A1860E056
:1031F000D7FC07C06091C30470E0C616D7060CF474
:10320000B6018CEB94E00E946A186091C30470E0F0
:10321000E616F7060CF4B7018CEB94E00E946A18EE
:1032200062E28CEB94E00E946A1860E017FD07C030
:103230006091C10470E0061717070CF4B8018CEB1D
:1032400094E00E946A1860E0D7FD07C06091C10455
:1032500070E0C617D7070CF4BE018CEB94E00E9417
:103260006A188CEC94E00E945D18CDB7DEB7E8E0F8
:103270000C94A435ECEBF4E094878387768765871C
:1032800023E0759567952A95E1F7478150E09B010A
:103290000E94E4180895CF93C82F8091C0040E9423
:1032A000C61180E890E00E94C3116C2F8CEB94E073
:1032B0000E946A188CEC94E00E945D18CF910895EA
:1032C000CF93C0910C0180918504882311F0C11126
:1032D00015C081E0C827C0930C0180917A01C1110B
:1032E00001C081E00E9448148FEAC11101C08EEA3A
:1032F0000E944B19C11102C010927C04CF91089515
:10330000CF93DF932091C10430E04091C30450E09B
:1033100070E060E090E080E00E94E4188091C004DA
:103320000E943A14C0E0D4E060E08CEB94E00E948C
:103330006A182197C9F78CEC94E00E945D1860919F
:10334000C9047091CA048091C7049091C8040E9476
:103350003A19DF91CF910895A3E0B0E0E2EBF9E1F3
:103360000C9489359B838A83FC012781838594850E
:103370000696281719060CF43AC0062F84810E947D
:103380003A14F12CE12CF0EEF00FF9830052110BFE
:103390000E5D1D4D86E0D82E89818F3570F5F801C0
:1033A00084918F3F51F1F7018D9DE00DF11D1124A6
:1033B000EE5FFE4D6491EA81FB818085811160950D
:1033C0008A819B810E946A18EA81FB8183859485AA
:1033D000019694878387FFEFEF1AFF0A86E0E816CD
:1033E000F104D1F68A819B8140960E945D1881E0AC
:1033F00090E02396E7E00C94A53560E0DCCF0F93D6
:103400001F93CF93DF938C01D0E0C0E0F801EC0F65
:10341000FD1F6491662341F08CEB94E00E94AC198F
:10342000892B11F02196F2CFCE01DF91CF911F9120
:103430000F910895FF920F931F93CF93DF938A010B
:10344000F22E98E0699FB001112490E00E943A1991
:10345000CCEBD4E0F886C8010E94FF191886CDB7DE
:10346000DEB7E5E00C94A73580910B018330F8F4CA
:10347000E0919A03813018F181E1E802F001112412
:10348000E254FE4FE78545EF50E0E40FF52FF11DC4
:1034900044918091B20421E0833009F020E050E0B3
:1034A00045505F4F67E088E20E941A1A0895833002
:1034B000E9F3843071F0E0E050E040E0E6CF81E1F4
:1034C000E802F0011124E254FE4FE6854EEE50E092
:1034D000DCCFE0919A0381E1E802F0011124E2548B
:1034E000FE4FE08949EE50E0D0CFEF92FF920F936C
:1034F0001F93CF93DF93182FC0919A03EC2E0C2EBD
:10350000000CFF080E94C51401E1C002E001112473
:10351000882341F1212F45E060E0CE0183539E4F87
:103520000E942B150E9DF0010F9DF00D1124E25409
:10353000FE4FE7850E2E000CFF0BE55DFB4F9081E3
:103540009F708091A805807F892B8093A8050E9499
:1035500057160E948E160E94341ACDB7DEB7E6E0E9
:103560000C94A63500910B0101111AC0C453DE4F13
:10357000212F46E060E0CE010E942B15011116C0FC
:1035800080916505803439F7E8810E2E000CFF0B21
:10359000EC5DFB4F80818730F0F60E948E17DBCF09
:1035A000C253DE4F212F219544E0E4CF688170E0C3
:1035B00082E091E10E94C515CECF1F93CF93DF9398
:1035C0008091B20411E0823009F010E0212F42EE28
:1035D00050E060E082E20E941A1AC0919A030C2E19
:1035E000000CDD0B80910B018430D1F481E18C9FC4
:1035F000F0018D9FF00D1124E254FE4F85858C5F04
:103600001093C40427E0829FC00111248E589F4F5D
:103610000E94FF191092C404DF91CF911F91089569
:103620000E94C514882359F081E18C9FF0018D9F81
:10363000F00D1124E254FE4F8485895FE1CF81E1D2
:103640008C9FF0018D9FF00D1124E254FE4F838575
:10365000D7CF0F931F93CF93DF93C0919A032C2F53
:103660000C2E000C330B90910B0141E1C402E001E0
:103670001124913050F1943010F1943031F5C5534C
:10368000DE4F05E011E042E0282F60E0CE010E940D
:103690002B150115110561F08881880F990B080F12
:1036A000191FF8018081918190936D0580936C05BD
:1036B0000E94DD1ADF91CF911F910F910895C6539B
:1036C000DE4F10E000E048E0DFCFC753DE4F91E16E
:1036D000929FF001939FF00D1124E254FE4F9085CC
:1036E0000EE911E043E0923078F246E0CDCF682F4A
:1036F0008CEB94E00E94AC190895CF9380910B015C
:10370000833089F480910801C5E5813009F4CCE467
:1037100068E370E088E190E00E943A198C2F0E94E3
:10372000771BCF9108950E94C514882329F08091BA
:103730006201C3E5813061F380910B01843029F48B
:1037400080917304CAE28111E3CFC0E2E1CFCF934D
:10375000C0916A018091C0040E94411461E88CEB21
:1037600094E00E946A1882E8C89F900111242455B1
:10377000384EAC2FB0E00E94683561E0670F8CEBEB
:1037800094E00E946A188CEC94E00E945D18CF913E
:10379000089590916A01890F8A300CF089E087FDC5
:1037A00080E080936A010E94A71B0895CF93DF9366
:1037B0002091420180917F049091800434E623029D
:1037C000800D911D112420910B01233031F42091A3
:1037D0000801223079F5845F9140209165052032FF
:1037E00031F1CC27DD27C81BD90B8DEC94E00E946A
:1037F0007A13809159050E94C61182E190E00E94DF
:10380000C31190E080E00E94C31181E00E94A911E1
:1038100080E00E94A9118D2F0E94A9118C2F0E9477
:10382000A9110E94AE1583E998E00197F1F7DF91A5
:10383000CF9108958C509E4FD0CF282F49E167EE4D
:1038400082E491E00E942B150E94C51481110E9410
:10385000D61B0895A8E0B0E0E0E3FCE10C948435C9
:103860003B9A439A88E08093B8000E9470178DECD1
:1038700094E00E947A13809159050E94C61181E05C
:1038800090E00E94C3118FE190E00E94C31185E097
:1038900090E00E94C3110E94AE157E0129E0E20E65
:1038A000F11C8DEC94E00E947A1368E070E0809146
:1038B000590590915A050E94FB118E010F5F1F4F11
:1038C0000E94D311F80181938F01EE16FF06C1F714
:1038D000898186FDE6CF8BE097E20197F1F78DECC9
:1038E00094E00E947A13809159050E94C61181E0EC
:1038F00090E00E94C31181E390E00E94C31185E033
:1039000090E00E94C3110E94AE1560915D05709118
:103910005E0590E080E00E94F21262E370E080E0D9
:1039200090E00E94F212D12CC12C10E000E02BEAB2
:10393000A22E24E0B22E8DE192E0FC01259134917B
:10394000C216D30609F460C00296F2E08B389F07D6
:10395000A1F796E1F92E809159050E94C6118F2D8D
:103960000E94A911F12CE12CC80185579D4F4C01F3
:10397000F401EE0DFF1D84910E94A9119FEFE91A39
:10398000F90AE7E0EE16F10499F70E94AE15C501B9
:103990000197F1F7FFEFCF1ADF0A095F1F4F0733D7
:1039A0002EE1120709F0C7CF83EE93E00197F1F7FC
:1039B000809165058032E1F0E0919A0381E1E802AF
:1039C000F0011124E254FE4FE7850E2E000CFF0B90
:1039D000E55DFB4F80818F7080618093A8058091A9
:1039E000A9058078806180688093A9050E94571698
:1039F00088E48093B80081E0809362043B9A439806
:103A00002896ECE00C94A03585E1F82EA4CF1F9306
:103A1000CF93DF9391E018160CF090E0CFEFC80F32
:103A200082300CF4C0E080916505D8E2803221F04C
:103A3000D8E4803509F4D8E510E090FB10F98DEC5E
:103A400094E00E947A13809159050E94C6118D2F2F
:103A50000E94A911812F0E94A9118C2F0E94A911E7
:103A60000E94AE158DEC94E00E947A13DF91CF9105
:103A70001F91089590910B0145E2943009F44AE1B9
:103A8000282F60E082E191E00E942B1580911201C5
:103A90000E94071D08950E94C514E82FF0E0EB591D
:103AA000FB4F80810E94071D0895A2E0B0E0EBE586
:103AB000FDE10C947E356A838DB69EB6E0EDE80F8D
:103AC000EA3008F45CC08E3209F082C044E04983D9
:103AD000A98194E0A99F900111244DB75EB7421BC4
:103AE000530B0FB6F8945EBF0FBE4DBF0DB71EB798
:103AF0000F5F1F4FADB7BEB711961C92119712966C
:103B0000200F311F1D92A217B307E1F78E3209F47F
:103B1000EAE0F0E0EF50FD4DE49181ED682E82E2A5
:103B2000782EB12CA12CEE2EF12CC7010A2C02C04C
:103B3000959587950A94E2F780FF34C0F30144908D
:103B40003196C490319654903196D4902224239487
:103B5000240CDD20B9F0D12C222423942C0C5D14EC
:103B600009F1342C3D0C4C2D632DC8010E94131219
:103B7000422D632DC8010E941312D394F0CF5EE052
:103B80005983A6CF5D1471F03C2C3D0C432D642D60
:103B9000C8010E941312432D622DC8010E94131206
:103BA000D394F0CFFFEFAF1ABF0A44E0640E711C4C
:103BB00058E0A516B10409F0B8CF20E2498160E1D0
:103BC0008A810E947F180FB6F8949EBE0FBE8DBEEC
:103BD0000FB6F8949EBE0FBE8DBE2296E2E10C9405
:103BE0009A358F929F92AF92BF920F931F93CF936C
:103BF000DF93CDB7DEB7A1970FB6F894DEBF0FBE47
:103C0000CDBF19A2423008F44AE08E010F5D1F4F6C
:103C1000842E912CB12CA12CA50194010E941F355A
:103C2000E62FB901CA01EA3044F5E05DD801EE9310
:103C30008D01232B242B252B79F790E080E0109722
:103C400069F0FD0101900020E9F73197AF014A1BAF
:103C50005B0BBD018CEB94E00E945713A1960FB64D
:103C6000F894DEBF0FBECDBFDF91CF911F910F91B2
:103C7000BF90AF909F908F900895E95CD7CF0F933E
:103C80001F93CF9390916404992309F4CFC090912E
:103C90008201913009F44DC090E1C82F892F0E9414
:103CA000B8121816190614F08BEE91E0209100015D
:103CB000309101012F3F3F4F21F4909301018093F8
:103CC0000001609100017091010147E0469F900161
:103CD000479F300D1124280F391F83E03595279514
:103CE0008A95E1F7309301012093000164E62738BB
:103CF00082E03807B0F460E02C3E81E0380788F0BD
:103D0000293682E03807B8F042E1429FC001439F64
:103D1000900D112480559B426FE170E00E94F734B2
:103D20006E5A80910201962F981BA9F510924604B5
:103D30003FC09FE0B2CF223482E0380770F043E208
:103D4000429FC001439F900D1124835E9E4467E211
:103D500070E00E94F734615DE4CF233182E03807E0
:103D600070F048E2429FC001439F900D1124805D96
:103D700092456FE270E00E94F734695FD2CF429FB4
:103D8000C001439F900D11248D569D4067E270E065
:103D90000E94F734C6CF9E5F953018F06093020101
:103DA000C5CF909146049F5F909346049530B0F73D
:103DB0000E944A130091470410914804209149043D
:103DC00030914A04601B710B820B930B6131774277
:103DD0008105910510F4CC2349F18091850481116E
:103DE0001BC0C091020168E370E08CE690E00E9485
:103DF0003A191092C4046C2FC53608F064E670E0DE
:103E000090E080E04AE00E94F11D1092C404C436A4
:103E100018F485E20E94771B0E944A1360934704BE
:103E2000709348048093490490934A04CF911F9162
:103E30000F910895BC01990F880B990B4AE00E94DD
:103E4000F11D0895682F70E090E080E04AE00E9444
:103E5000F11D0895CF93DF9370E060E090E080E083
:103E60000E943A19CCEBD4E081E088878AE092E0A6
:103E70000E94FF1980910D010E94221F8CE70E9471
:103E8000771B83E00E94221F1886DF91CF9108954F
:103E9000B0E0A0E0EEE4FFE10C94843521E04CE8D2
:103EA00051E060E080E00E941A1A10917204111132
:103EB0000CC020E043E851E063E08EE10E941A1A52
:103EC000CDB7DEB7ECE00C94A035C0917104CE7F85
:103ED00082E08C0F811708F4182FD0E0CE01880FF4
:103EE000991F9C01235B3B4F690130E1832E912C8C
:103EF0005E010C2FF0907104C11708F047C0B401A7
:103F000090E080E00E943A1980E2CF1101C08EE378
:103F10000E94771B80E30E94771B2196CE010E94AE
:103F20001A1F8AE30E94771BF601E190F1906F015E
:103F300000E0F4E6EF16F10428F00F5F24E6E21A41
:103F4000F108F7CF043640F480E20E94771B0A3074
:103F500018F480E20E94771B802F0E94221F8EE2BD
:103F60000E94771B80E03AE0E316F10428F08F5FAF
:103F70009AE0E91AF108F7CF0E94221F84E791E046
:103F80000E94FF19E0E18E0E911CB3CFFFEFAF1A34
:103F9000BF0A1A151B0441F410E000E028E040E8D5
:103FA00060E280E00E947F1868E370E090E080E0CB
:103FB0000E943A1980E20E94771B8F2D90E00196B3
:103FC0000E941A1F8FE20E94771B809172040E9448
:103FD000221F8BE791E00E94FF1972CFCF9380914F
:103FE0008504811112C08091970481110EC068E38D
:103FF00070E08AE590E00E943A19C0910A01CF3F33
:1040000031F48EE690E00E94FF19CF910895CA30F6
:1040100018F480E20E94771B8C2F0E94221F8CE7ED
:104020000E94771BF2CF009771F0BC01FC01019058
:104030000020E9F73197AF01481B590B8CEB94E056
:104040000E945713089590E080E00895FF920F9327
:104050001F93CF93DF938A01F22E98E0699FB001FE
:10406000112490E00E943A19CCEBD4E0F886C80104
:104070000E9413201886CDB7DEB7E5E00C94A73573
:10408000EF920F93CF93DF9300D01F92CDB7DEB79F
:104090008091850481111DC080916304811121C02C
:1040A0006091AC0570E080E2E82E00E020E042E0A4
:1040B000CE0101960E9456158091B20421E0813014
:1040C00009F020E0AE014F5F5F4F60E082E70E94A1
:1040D00026200F900F900F90DF91CF910F91EF90CE
:1040E000089580E289838DE48A831B82E5CF9091D5
:1040F0006304992341F0892F109263040E94F31501
:104100000E94402008959091AC05890F803414F0EE
:104110008FE3F4CF87FFF2CF80E0F0CFCF93C82FAB
:1041200080916304882341F0C3FD11C0C13011F4B4
:10413000663069F481E009C08C2F8370833039F4D4
:10414000CB3029F08FEF6630A9F30E9477208C2FB7
:10415000CF9108958091B204813071F09091AC05B7
:1041600080916304992349F0811109C090936304FD
:104170000E94F3150E94402008958823D9F30E94DD
:10418000F31510926304F6CFA7E0B0E0EAECF0E29A
:104190000C94833590918504911153C0182F0E947F
:1041A000C514882EA0909004B090910481116DC028
:1041B000E0919A0391E1E902F0011124E254FE4FEB
:1041C000808531E4C32E34E0D32E23E0833081F0A8
:1041D000823049F480918A0171E4C72E74E0D72EB1
:1041E00022E0813029F02DE3C22E24E0D22E20E0FF
:1041F0008FE2E82E0EE245E0B501CE0101960E9465
:104200005615C5010E944015982EB12CA12C9CE09A
:10421000F92E65C080914C04891509F46BC040E803
:104220004F1910E000E020E260E18F2D61C08110A5
:104230000CC020E0A60164E08CE60E94262090924B
:104240004C042796EDE00C949F35B801625071093B
:104250008EE20E94551D98012C5F3F4FC5016AE018
:1042600070E00E94F734962FF82EB90180E3890F91
:104270000E94551DB8016C5E7F4F80E38F0D0E9438
:10428000551D84E08915A8F6DACF80917F049091BE
:10429000800468EE73E00E940B3597FF04C08851DC
:1042A0009C4F615071096B01CA0CDB1C6AE070E025
:1042B0000E940B355B01C6010E944015982E40E21A
:1042C000E42E0EE220E0482FB601CE0101960E94B6
:1042D000561553E0F52E6DE3C62E64E0D62E11235D
:1042E00009F498CF10E000E020E240E860E180E0CF
:1042F0000E947F180F2D10E0CE0101967C01F7017E
:1043000071907F01772009F492CFB801872D0E9428
:10431000551DFEE286E090E07F1611F080E190E00E
:10432000080F191FECCF909391048093900480E0C4
:104330000E94C42064E670E080E090E00E94F212E7
:1043400008958091B204E0919A03843059F481E198
:10435000E802D0011124A254BE4F21E018968C919E
:10436000833009F420E081E1E89FF0011124E25458
:10437000FE4F84E0ADEAB4E001900D928A95E1F73A
:104380001092B1044DEA54E060E080E00E942620E3
:1043900008958091B204843061F4E0919A0381E140
:1043A000E802F0011124E254FE4F21E080858330C1
:1043B00009F020E040910B0184E0489FA001112406
:1043C000405F5B4F67E080E00E94262080E20E9411
:1043D000771B0E947D1B80918504811102C00E9481
:1043E000A12108950E94C4200E94C9210E94DD1AC3
:1043F0000E94341A81E00E943F1E0E9440200E94C9
:10440000EE1F0895B0E0A0E0E8E0F2E20C948535FC
:10441000D82E80910B01AA24A394843009F0A12CFA
:10442000E0919A0381E1E802F0011124E254FE4F89
:10443000BB24B3948085833009F0B12CAB1411F008
:104440003B9A439A0E949D148FEF80930A01E0915A
:104450009A030E2F0E2E000C110B81E1E802F001E1
:104460001124E254FE4F808590917201833009F44B
:1044700091E080917A05837C80937A05209165058F
:10448000203409F459C1903C08F090E090937D05E8
:1044900080916A0590916B050E94C51681E1809F0D
:1044A000F001819FF00D1124E254FE4F808583308E
:1044B00009F04AC184E080930B0110927304A58532
:1044C0000A2E000CBB0BAB5FBE4F2C91022E000CD2
:1044D000330B8185928546815781C481D581D093E4
:1044E0006705C0936605509369054093680530934E
:1044F0006D0520936C058C179D0720F04817590710
:1045000008F0EC010E9470179091AD0520917005A4
:10451000309172058091AA054091710540FB87F9A1
:1045200030FB86F98F7D20FB84F9807F8093AA057C
:104530009093AB0580E28093650580917A05807C3D
:10454000836080937A0510927D0581E080937E05DB
:104550000E941A178091AC050E94F3151092AE05C7
:10456000809159050E94C61182E190E00E94C3111A
:1045700090E080E00E94C3118FEF90E00E94C31191
:1045800090E080E00E94C31190E080E00E94C3119F
:1045900090E080E00E94C3110E94AE158BE097E28C
:1045A0000197F1F710926E05D0936B05C0936A05E1
:1045B000CE010E94C51681E1809FE001819FD00D50
:1045C0001124C254DE4F0E811F816C817D8180E0F9
:1045D00094E10E94C515B80181E094E10E94C515DF
:1045E0006AE070E082E094E10E94C51562E070E04C
:1045F00083E094E10E94C51565E070E084E094E1F9
:104600000E94C51510926204688970E082E091E111
:104610000E94C51580913A0161E0811162E070E06D
:1046200080E091E10E94C5156FEF70E080E093E1BA
:104630000E94C51564E070E081E093E10E94C51519
:1046400066E170E082E093E10E94C51564E070E0ED
:1046500083E093E10E94C5156CEB7FE784E093E172
:104660000E94C5156CEB7FE785E093E10E94C515BC
:1046700061E070E081E09AE10E94C5156AE070E0B7
:1046800082E09AE10E94C51568EF7FE783E09AE136
:104690000E94C51561E070E084E09AE10E94C515B2
:1046A00064E670E085E09AE10E94C51565E570E07A
:1046B00086E09AE10E94C51561E070E081E090E03B
:1046C0000E94C51570E060E080E099E10E94C51588
:1046D00060E370E081E099E10E94C51560E470E05C
:1046E00082E099E10E94C5156CE271E083E099E1F6
:1046F0000E94C5156DE770E084E099E10E94C51540
:104700000E944B1D80918504811105C00E94801973
:1047100081E00E94F221AB1411F03B9A4398809102
:1047200090049091910490938F0480938E04CDB760
:10473000DEB7EBE00C94A1358D7F80937A05109263
:104740007D0590937E05A4CEC481D581E680F78057
:1047500080916204882309F403C18785853014F0B1
:1047600084E08787D1100E942A1C8091A90590912E
:10477000520190FB84F98093A9050E9457168091FD
:104780000B01833009F0D1C09090080181E1809F36
:10479000F001819FF00D1124E254FE4FC184D284B8
:1047A000D0936705C0936605F0926905E0926805AD
:1047B00081E090E090936D0580936C05CC16DD064A
:1047C00008F4B6C0EC14FD0408F4B2C09091AD0535
:1047D000209170058091AA053091710530FB87F911
:1047E0008F7920FB84F9807F81608093AA05909364
:1047F000AB0580E48093650580917A05807C8160BB
:1048000080937A0510927D0581E080937E050E9459
:104810001A178091AC050E94F3159092AE0582E0C4
:1048200080936E05D0926B05C0926A05C6010E9406
:10483000C5160E948E1690910B018091A9059330A8
:1048400009F078C080688093A9050E94571680916E
:10485000A905807F8093A9050E945716609168047E
:1048600070E082E093E30E94C5156091320170E030
:1048700083E093E30E94C51580910B0194E083309F
:1048800079F081E1809FF001819FF00D1124E254C5
:10489000FE4FE7850E2E000CFF0BE55DFB4F908170
:1048A0009F708091A805807F892B8093A8050E9426
:1048B00057160E94D61B8091A90590914A0190FB42
:1048C00085F98093A9050E9457160E94C514E82F08
:1048D000F0E0EB59FB4F8081811112C0848194EF8D
:1048E000980F9F3468F480936F0524E531E0829F30
:1048F000B001839F700D112483E091E30E94C515E0
:10490000BE0180E094E30E94C515B70181E094E305
:104910000E94C51563E070E083E094E30E94C51532
:104920006AE070E084E094E3E9CE90900B012ECF32
:104930006E014CCF91E020916201213009F490E0AA
:1049400090FB87F98093A9050E9457168091620118
:1049500090E0811193E08091A905807F892B7ACF27
:1049600010920B01A385AA0FBB0BA256BE4F8D91CF
:104970009C91C184D284D0936705C0936605F09260
:104980006905E092680590936D0580936C05CC16DF
:10499000DD0608F476C0EC14FD0408F472C08091C2
:1049A0006E058130D1F10E9470179091AD05209174
:1049B00070058091AA053091710530FB87F98F79D8
:1049C00020FB84F9807F81608093AA059093AB05DA
:1049D00080E48093650580917A05807C8160809376
:1049E0007A0510927D0581E080937E050E941A175A
:1049F00080916F0594EF980F9F3458F424E531E0CF
:104A0000829FB001839F700D112483E091E30E9487
:104A1000C5158091AC050E94F3151092AE0581E09A
:104A200080936E05D0926B05C0926A05C6010E9404
:104A3000C5166091670470E082E093E30E94C5159B
:104A40006091320170E083E093E30E94C51580918C
:104A50006505803409F039CF81E1809FF001819FA5
:104A6000F00D1124E254FE4FE6850E2E000CFF0BD4
:104A7000EC5DFB4F8081873008F027CF0E948E17B6
:104A800024CF6E018CCF80910B01833031F18AE00D
:104A90000E9404150E94C5148823F9F091E08091CA
:104AA0006201813009F490E08091A90590FB87F9BB
:104AB0008093A9050E9457168091620193E08111AD
:104AC00001C090E08091A905807F892B8093A90582
:104AD0000E94571681E00E940222089588E00E94F9
:104AE00004150E94C514882369F08091A90590914E
:104AF000520190FB84F98093A9050E94571681E02A
:104B00000E94022208950F931F93CF93DF93182FD3
:104B1000D62F0E94AC140E948614C0919A03109262
:104B2000800410927F048FEF111181E0082E000C99
:104B3000990B8C0F911DC7FD9A954C966CE170E016
:104B40000E940B358C0180939A03D1110E949D1411
:104B5000809190049091910490936C0480936B04E5
:104B600021E12C9FF0011124E254FE4FD085209FBB
:104B7000F001219FF00D1124E254FE4FC085909367
:104B80008F0480938E04D33031F1C33021F10E9421
:104B9000C51680E00E94751A80918A01813059F40F
:104BA00021E0D23009F020E091E0C23009F090E03D
:104BB00081E0291301C080E00E94C4208091850417
:104BC000811102C00E94A1210E94DD1ADF91CF91C4
:104BD0001F910F91089580E00E940222F7CFEF927B
:104BE000FF920F931F93CF93DF93E0909204F09086
:104BF000930481E01E141F040CF080E080930401F4
:104C0000E0919A030E2F0E2E000C110B91E1E90298
:104C1000F0011124E254FE4F9085933009F055C005
:104C2000E5850E2E000CFF0BEB5FFE4F2081022E60
:104C3000000C330B4091920450919304249FE001A7
:104C4000259FD00D349FD00D112440919004509198
:104C50009104C40FD51F109293041092920491E115
:104C6000909FF001919FF00D1124E254FE4F468178
:104C700057814C175D0788F144815581C417D507CA
:104C800060F1CE01B9010E94F734009709F05DC0D0
:104C9000D0939104C093900481E0809394040E9487
:104CA0004A1360938A0470938B0480938C049093CE
:104CB0008D0480E00E94C4200E94AC140E948614DF
:104CC000CDB7DEB7E6E00C94A635E385EE0FFF0B1B
:104CD000E256FE4F20813181ADCF60E00E948325F6
:104CE00080919A03082E000C990B21E1289FF00176
:104CF000299FF00D1124E254FE4F3085333059F0D6
:104D0000209FF001219FF00D1124E254FE4F2085D9
:104D1000233009F0BDCF20910401222359F021E175
:104D2000289FF001299FF00D1124E254FE4FC48109
:104D3000D581AECF21E1289FF001299FF00D1124EC
:104D4000E254FE4FC681D781A3CFC81BD90B1E14D6
:104D50001F0414F030E020E0C20FD31F99CFCF938F
:104D6000C82F8370833069F480918504811109C054
:104D7000CB3039F081E0683009F080E061E00E94DA
:104D800083258C2FCF9108951F93CF93DF9380912C
:104D90008504811114C0E0919A0381E1E802F001D9
:104DA0001124E254FE4F8085833069F481E08093C2
:104DB0009704109271040E9480190E94481FDF918D
:104DC000CF911F91089580910B0181111EC016850E
:104DD0000E94AC140E94861480910B01833011F460
:104DE0003B9A439AC0919A030C2E000CDD0B8091E4
:104DF0000B01833060F4813040F180910B0180938E
:104E0000030183E080930B0104C01785E1CF833059
:104E100071F080E00E940222809162048111CFCF64
:104E200080910B018111CBCF3B9A4398C8CF109250
:104E30000B011092620481E18C9FF0018D9FF00DB7
:104E40001124E254FE4F1687E4CF80910301809332
:104E50000B010E942A1C81E18C9FF0018D9FF00DB7
:104E60001124E254FE4F178710929404D2CF809100
:104E70008504811135C080910B01813039F1809119
:104E80000B01823019F180910B01833049F590912B
:104E90000B01933029F52091900430919104809179
:104EA0000801981B90930801990F9350A901490F8D
:104EB000511D97FD5A95CA010E94C5160E94D61B26
:104EC00081E00E94C4200E947D1B089580910B0107
:104ED000813039F482E080930B0180E00E9402224D
:104EE000089581E0F8CF80918504811148C0E09158
:104EF0009A0381E1E802F0011124E254FE4F80851B
:104F00008330B1F5E0917204EA30F0F4209190041E
:104F100030919104ADE4B4E080E0E81739F04D91B0
:104F20005D914217530781F08F5FF7CF81E08E0FBD
:104F300080937204F0E0EE0FFF1FE35BFB4F3183C1
:104F4000208381E080934B0468E170E08DE290E083
:104F50000E943A1988E690E00E94FF1964EF71E020
:104F600080E090E00E94F21281E00E94F221089518
:104F70000E94C514882319F080E00E9443250895FB
:104F80009091B204981301C080E08093B2048091A4
:104F9000B204882399F00E944A13609381047093AD
:104FA000820480938304909384040E9440200E9492
:104FB000DD1A0E94341A0E94C921089510928104BA
:104FC000109282041092830410928404EECFCF9347
:104FD000DF93CBE9D3E06A817B81888199810E944C
:104FE0009513813091F4EC81FD81309711F0099592
:104FF00004C0888581110E94C027299683E0CC3E99
:10500000D80749F7DF91CF9108958B30B1F7EE8142
:10501000FF81309761F7F1CF8091B204882391F03E
:105020001092B204109281041092820410928304B0
:10503000109284040E9440200E94DD1A0E94341ABB
:105040000E94C92108951F93CF93DF93EC01162F7F
:105050000E94D534181721F0612FCE010E94DD3453
:10506000DF91CF911F910895EF92FF920F931F93BD
:10507000CF93DF936091720484EA91E00E94232829
:1050800010E0C0E9D1E0809172041817B8F4E12F64
:10509000F0E0EE0FFF1FE35BFB4F00816181CE016B
:1050A0000E9423287E0182E0E80EF11C602FCE01D1
:1050B00001960E9423281F5FE701E5CFCDB7DEB739
:1050C000E6E00C94A63580914B04882321F00E94E1
:1050D000342810924B04109297040E94801980E0AB
:1050E0000E94F221089560ED74E181EA94E00E944B
:1050F00095138130A9F480917204882379F0E091AE
:105100007104F0E0EE0FFF1FE35BFB4F80819181A4
:1051100090939104809390040E94C5160E94632886
:1051200060ED74E18BEA94E00E949513813091F573
:1051300020917204222351F140917104342F822F67
:105140008150990BBC01832F90E08617970784F458
:10515000DC01AA0FBB1FA35BBB4F880F991FFC018B
:10516000E15BFB4F808191818D939C933F5FEBCFFF
:105170008FEF820F80937204882329F0481718F06C
:1051800022502093710481E080934B040E94801987
:105190000E94481F60ED74E18BE994E00E94951332
:1051A000813011F40E94632808950F931F93CF93C9
:1051B000DF93EC018B01FB0162850E942328F8013B
:1051C0006185CE0101960E942328F8016385CE01F6
:1051D00002960E942328F8016485CE0103960E945E
:1051E0002328F8016585CE0104960E942328F80142
:1051F0006685CE0105960E942328F8016785CE01B9
:1052000006960E942328F8016089CE0107960E9425
:105210002328DF91CF911F910F9108950F931F9332
:10522000CF93DF93C82F0E94AC14C11112C02091FC
:1052300090043091910480916B0490916C04281734
:10524000390739F410927804DF91CF911F910F91B3
:1052500008956BEE90E080E00E9423286AE381E0ED
:1052600090E00E94232860916304611102C0609164
:10527000AC058AE090E00E94232860919A038BE0BD
:1052800090E00E94232860910B018CE090E00E9446
:105290002328609180048DE090E00E942328609193
:1052A0007F048EE090E00E942328609108018FE047
:1052B00090E00E942328CC2381F10EEB11E0C4E1A1
:1052C000D0E0B801CE010E94D52828960F5E1F4F6E
:1052D000C43FD105B1F70EE011E0CAEFD0E0F8010C
:1052E0006481CE010E942328085F1F4F2196CC3095
:1052F000F1E0DF07A1F705E614E0CCE2D1E0F80128
:1053000061918F01CE010E9423282196C233F1E0E2
:10531000DF07A9F70E9434280FC080919A0321E18A
:105320008202B001112462547E4FE8E08E02C00177
:10533000112444960E94D528809190049091910464
:1053400090936C0480936B047FCF0E94D5340895B2
:10535000CF92DF92FF920F931F93CF93DF9384EA54
:1053600091E00E94A529F82E8AE08F15D8F0F092DE
:1053700072048DE4C82E84E0D82E10E0C0E9D1E09C
:10538000F116A1F0CE010E94A529082FCE010196A9
:105390000E94A5292296902FF601819391936F0187
:1053A0001F5FEECF109272040E943428DF91CF91DC
:1053B0001F910F91FF90DF90CF900895CF92DF92D1
:1053C000EF920F93CF936C01862F90E0FC0143E0A6
:1053D000EE0FFF1F4A95E1F7E25FFE4FC4816E308A
:1053E00079F466E072E0C13011F062E072E0C6016B
:1053F0000E94CE34CF910F91EF90DF90CF9008951F
:1054000025812230F0F0880F991FFC01EE55FE4FE8
:1054100034918D559E4FFC018491613151F4CC2320
:1054200071F0C65FF4E0CF9FB00111246A537E4F44
:10543000DECF2330B9F38111C195C30FF3CFC2E0A2
:10544000F1CF211105C0C11103C066EC71E0CFCFCF
:105450006B30D1F461E06C0F062E000C770B77FFF8
:1054600003C071956195710980E2E82E0EE220E09B
:1054700043E0C6010E945615C7FF03C08DE2F60146
:105480008083F6011382B6CF6C2FE6CFA5E0B0E0A3
:10549000ECE4FAE20C948435382F462F8091850491
:1054A000882309F461C080910D018150932F2AEF68
:1054B000829F900D1124892F66E00E94EB3401E059
:1054C000933008F400E084E4933008F480E0632F24
:1054D000C82ED12C560123E2A20EB11CE32EF12CD2
:1054E000802F880F880F081B090F000F0E5F88E0C0
:1054F000089F80011124CE0101964423C9F10E9426
:10550000DE2980917D04082E000C990B812C912CB2
:105510008E159F0529F480907E0481E0982C9826B2
:1055200083E0EE0CFF1C8A95E1F7C701825F9E4F76
:105530007C01B801C60105960E943A198EE39110CC
:1055400001C080E20E94771BC7010E941320B801AE
:10555000C5010E943A198820E9F08EE30E94771B6A
:10556000CE0101960E9413202596ECE00C94A03504
:105570000E94DE29B801C5010E943A1980917D047C
:10558000082E000C990BE816F90621F480917E0490
:105590008111E3CF80E2E2CF1F93CF93DF93D0E07E
:1055A000C0E016E080910D01082E000C990B0197C8
:1055B000189F9001199F300D11242C0F3D1F22318F
:1055C000310564F4982F990F890F880F61E08C0FD3
:1055D0000E94462A2196C630D10521F7DF91CF914E
:1055E0001F9108950E948019809185048823D9F025
:1055F0000E94C514E82FF0E0EB59FB4F80818093A7
:105600001201828180932A0184818093220181E0AA
:1056100080930D010E942A1F10927D0410927E0437
:105620000E94CC2A08950E94C514E82FF0E0EB599F
:10563000FB4F80911201808380912A0182838091A7
:105640002201848381E0809379040E940E2980E006
:105650000E94F22108950E940C288091850491E017
:105660008927809385040E94F22A809185048823EB
:1056700051F00E944A1360938104709382048093D6
:10568000830490938404089580918504882329F1EC
:1056900080910D018F5F84300CF081E080930D01CB
:1056A000082E000C990B0197982F990F890F880FDE
:1056B00080937D0410927E040E9480190E942A1F0C
:1056C0000E94CC2A0E944A13609381047093820442
:1056D0008093830490938404089584E00E94C027FB
:1056E0000895B0E0A0E0E7E7FBE20C9488358091F4
:1056F000B204882339F00E940C28CDB7DEB7E8E069
:105700000C94A435809185048823B1F080917E04A7
:1057100091E0892780937E0461E080917D040E945E
:10572000462A0E944A1360938104709382048093F6
:10573000830490938404E1CF0E94C514811104C0B6
:1057400080911A01811104C082E00E94C027D5CF48
:1057500080919004909191040E94C5166EE170E0D2
:1057600080E090E00E94F212E0919A032E2F0E2E1C
:10577000000C330B81E1E802F0011124E254FE4FEA
:1057800080858230A1F06481758106811781833024
:1057900091F480E094E10E94C515B80181E094E1A4
:1057A0000E94C5156AE070E082E094E12EC000E33B
:1057B00015E76EEA76E081E1829FF001839FF00DAC
:1057C0001124E254FE4FE385EE0FFF0BE256FE4F2D
:1057D000C081D181CB30D10510F0CAE0D0E0C1301A
:1057E00039F0C53029F0C93019F0CA3009F0C5E0E8
:1057F00080E094E30E94C515B80181E094E30E9423
:10580000C5156C2F70E082E094E30E94C515F894F2
:10581000109261047894C09104010E944A136B01B4
:105820007C0180916E05823009F458C08091650535
:10583000D1E4803209F4D1E28DEC94E00E947A1335
:1058400080E0C0FB83F9C82FC870809159050E9481
:10585000C6118D2F0E94A9118C2F0E94A911D1343D
:10586000A9F4C1E080916A0590916B058930974059
:1058700008F4C0E080E00E94A91180E00E94A91114
:1058800080E00E94A9118C2F0E94A9110E94AE15E0
:1058900068E770E080E090E00E94F21260915B05A2
:1058A00070915C0590E080E00E94F21260E08DEC67
:1058B00094E00E94B5179091890580918A058093A4
:1058C0006A0590936B050E9493218091870586FF5E
:1058D00041C061E08DEC94E00E94B51761E08DEC71
:1058E00094E00E94B51720918A0530918905309384
:1058F0006B0520936A052115310509F4FECE30931E
:10590000910420939004E0919A0381E1E802F00170
:105910001124E254FE4F80858230D1F1833009F4A6
:105920004CC080919004909191040E94C51680E033
:105930000E94751A0E94AC1481E00E94F2210E941C
:105940009614809190049091910490938F04809389
:105950008E04D3CE0E947C148111BBCF8091880528
:10596000817809F0BBCF0E944A136C197D098E091A
:105970009F0900915F0510916005209161053091AC
:105980006205601771078207930708F487CFA6CFD7
:10599000EEEBF1E082E046A157A12417350740F075
:1059A00040A551A54217530718F080939A03B9CF29
:1059B0008F5F71968C3179F7B4CFC9016AE070E0DE
:1059C0000E94F734281B390B3093910420939004E4
:1059D000A8CF1F920F920FB60F9211242F933F93CF
:1059E0008F939F93AF93BF938091B4049091B5042C
:1059F000A091B604B091B7043091B30423E0230F13
:105A00002D3758F50196A11DB11D2093B304809345
:105A1000B4049093B504A093B604B093B7048091F6
:105A2000B8049091B904A091BA04B091BB04019656
:105A3000A11DB11D8093B8049093B904A093BA043A
:105A4000B093BB04BF91AF919F918F913F912F91E4
:105A50000F900FBE0F901F90189526E8230F029607
:105A6000A11DB11DD2CF1F920F920FB60F9211241C
:105A70002F933F934F935F936F937F938F939F9356
:105A8000AF93BF93EF93FF93E091EE03F091EF0399
:105A90000995FF91EF91BF91AF919F918F917F9168
:105AA0006F915F914F913F912F910F900FBE0F908B
:105AB0001F9018951F920F920FB60F9211242F93DB
:105AC0003F934F935F936F937F938F939F93AF9386
:105AD000BF93EF93FF93E091EC03F091ED030995F1
