:100000000C9410120C948D300C94CF300C94381248
:100010000C9438120C9438120C9438120C94381238
:100020000C9438120C9438120C9438120C94381228
:100030000C9438120C9438120C9438120C94381218
:100040000C9443300C9438120C9438120C943812DF
:100050000C9438120C9438120C9438120C943812F8
:100060000C9438120C943812534156454400534DA9
:1000700000010203040A10161C222C36404A545E6A
:100080002020200031206B487A200035206B487AF0
:10009000200039206B487A20003130206B487A00EC
:1000A0003530206B487A003130306B487A0031208F
:1000B0004D487A2000313020487A200032352048DF
:1000C0007A2000353020487A200031303020487ABC
:1000D0000035303020487A0031206B487A200035D6
:1000E000206B487A200039206B487A20003130207C
:1000F0006B487A00535445503A200050586068705D
:1001000008182030384048000810283840302E3574
:10011000206B487A00312E30206B487A00312E3225
:10012000206B487A00312E38206B487A00322E300E
:10013000206B487A00322E32206B487A00322E35FE
:10014000206B487A00332E30206B487A00342E30F2
:10015000206B487A00362E30206B487A00204155BB
:10016000544F202000313130206B487A0038342041
:100170006B487A20003630206B487A2000343020DB
:100180006B487A20000044454C3A4257204641567D
:100190004F524954455300454D505459204C4953F2
:1001A0005400414D20004C534200555342004357E8
:1001B0002000464D2000000000000000000000006C
:1001C000010000000700020100000201000003001E
:1001D0000100020100000000020100000201050010
:1001E000000001000F0001000900000002010000F2
:1001F00041555400204F4E004F46460020353000F8
:10020000203735006B487A004D487A00525353002E
:10021000534E5200313030003530250031306D0002
:1002200031356D0033306D0036306D00524F570060
:10023000434F4C002041320020413100202020203B
:10024000202053455454494E475320202020000479
:1002500031F7210531F52D000000000C1014181C99
:1002600020252B32373C67020205050502050202F4
:10027000020302020302660806056A67076A0606A9
:10028000060604080402050202020507080708031F
:100290000607070802030403070304037F72757748
:1002A000797B7E80838587898B8D8F919350678939
:1002B00094F4646792ADB0B3D8E1E6E9EBEEF1F403
:1002C000F6FAFD0F262C313335383B3F4244484A7D
:1002D0004D4F00187F3101187F1E04187F1B051831
:1002E0007F0E081800140918003C0013FF000113CA
:1002F00004000413BC7F0513BC7F00000000001A3B
:100300001800011A0F00021A204E031A1400041AD2
:100310001400051A3C00061A000000000000001A34
:100320007F00011A7F00021A204E031A1400041ADB
:100330001400051A3C00061A5500000000000019C0
:100340001000011918000219400003192C010419AA
:10035000AA000818140009183C000A18A00F0B186E
:10036000280000000000031402000414050000002F
:1003700000000334030004340A00000000000039C8
:1003800000000000000000390C000139370002397C
:10039000400003392C010439AC0000000000AED548
:1003A000808D142001A1C8817FDB40A6AFDA12A89E
:1003B0003F415453204558004154532D32302B2097
:1003C00056372E302E32004D454D20524553455460
:1003D000004D454D2057454152000000580284030E
:1003E0000807100E415454000000DC207C164156D2
:1003F00043000A018B19751653514C000001E01897
:100400007C16534D410000011B197516534D5400C5
:10041000000108197516414E42000002F7197516C1
:1004200042464F0000018920751653534D000102CA
:1004300068177316535643000102032A7316434F7D
:1004400046000003A017731653594E000002EA2914
:1004500073164357500007017A2075164445200053
:100460000002F8186C16464D50000102291A6C164D
:10047000464D4F0000026B196C16465341001601A1
:10048000CD186C16465354000A01BA186C1653570F
:10049000410000014D1A7516534352000401131F09
:1004A0007C16535054000002991675165357550088
:1004B0000002AB16751644495300000222167C1642
:1004C0005253490001029C1675164E415600000217
:1004D00096167C1643415000000240177C1643508C
:1004E00055000002A5167C164241500000029F16DE
:1004F0007C1653434E000102A2167C16465641005C
:100500000001AE187C1600020401030506080A0764
:10051000090B0C0E100D0F11121416131517181AC3
:100520001C191B0003010402050609070A080B0C2D
:100530000F0D100E11121513161417181B191C1A73
:100540000000000800020100000304070000000092
:100550000000000000000000250028002B00000023
:100560000000240027002A000404040404040404F6
:10057000020202020202030303030303010204084E
:1005800010204080010204081020010204081020FD
:100590000003740BD484606FAE6CF9BB84A265B1A8
:1005A0004BF672011A21E85AD8D604735E2C226EDB
:1005B000C4E9B58B819A1EE487C99E7B17526DAD45
:1005C000E3E58B04A72E996A32AA9997CCA65B150E
:1005D0007956480163B1DF5427065706538CA62786
:1005E000AA66890318517EFB67D3CEDD3FFD3D1F10
:1005F000478401F3856EF83B792B0C904B67467D61
:100600005488FDD612E5E748F20EDB994D71A540FE
:1006100068D9C95939E475201CE9B1F5013C19BB09
:1006200060F7FA6B1E689F19B6ED140F56BCC13403
:10063000CB009D43D40FF3629C9DF78B9D533A8D65
:100640002F3DDE3D3831039BC7C159E9D175888DF7
:10065000365886704E5B9ED0DBCBF7EA1FDBA53B9E
:10066000B3BD6BBCF37065D5170F64152420D5B8E6
:100670007B0D272985881F5822574F09C04DD6E486
:10068000C6B53A373327BB6A1469031BEDA8C343C9
:10069000E8EADE410625C5C83CBF32B2A7DD22C26A
:1006A000E9CA84F2C0267C7801F7D5C60533E4C2D6
:1006B00078EC1BFDD2507D11295799B0F155667425
:1006C000B45823A06F2ED89B08B33E53CF5ECC7A8C
:1006D000DF4EED42166A9188431B1D845C522166F1
:1006E00058243671C56A0D2C869A239DE03543C97E
:1006F0007F41BD8299ED7A26B2D3A6CE4F00E68720
:10070000E3D7682886F7CED2B3D31B0402B978B3F7
:10071000ADE03C53A68A4A22BE1FCEB176F22F81AD
:10072000A8C17872B0156519E332A74D0CD300B992
:10073000C327BE744DD1E10C36DD23FBA722D34481
:10074000CAB3081BB40D4BDF1AA69032925C1AA7ED
:10075000CD852E351172F821357D3FDB298D30B3E3
:100760004F451477CF992FA39081B0AEE845E63A74
:10077000A9A262B7DBBE2539A5FCEAC5BC3AEC905C
:10078000AEA6FB12AAC76222AFA984B964B8FB8DDA
:10079000C11CC3D0876D5CB4FE3FA4B8D889F401F6
:1007A00059BB04A543441ACB4130F75B9AEE28F4B9
:1007B0004C7199CA4B7F2A13F04B54B3FC90EDBE99
:1007C000483FF15E0DA1BB1E591615F04B504C96DB
:1007D000861BA9CCC2694E1003F0E953E5E2BB4584
:1007E000E28DAE407108864D08F49690585340A5AE
:1007F0008B5B3CAD47B5D7E26A1378D4DCC9EC0E0D
:1008000093F0C01D953676A45385C9ACE4718DAFC5
:100810006861209DFF45356E04D82732C3DAEEA209
:100820006604B72106527F398FFDEE9074B64FB63D
:10083000240E1248F0B230F2A54C9152E3C6487B28
:100840003896239ED71B95153AC98B6F637D1DC9BA
:10085000EA96E601D785C0EA3DCAD3B7FB07543A0A
:1008600000313D74E4125BA238335BBF1DDC4EE8FF
:10087000851077ABEA6579B0AA3061C6F63BCC95B6
:10088000FC837F8C7BB55205EBF721DE89B66DEEDC
:10089000317713AA935596086E1C82B57E95B9944C
:1008A000DD68425C3A00C37B6F606A2C07D76C82BC
:1008B000FBB2812569D6720AD2E8500588491B63CC
:1008C00072996CE37AAEB01B9ED42554258A90179A
:1008D00097DF39B87CEAF082DD25D2ADE7F6362322
:1008E00084A9C96A53F4822C1DEA06C64F70543796
:1008F000802A6B63DBCC86E68C7F278C7254739ED8
:100900001BD64CFA058280D7B71198069869151C3A
:10091000FC868774845BD40FDBD727C54AB28F2946
:100920007A4A230AB807D03470818E53EF43163FBA
:10093000A8A79E5A77C091B789155248C0B762AB35
:10094000E1746410AA096B9774217935A19725FC8D
:1009500078C1EC6E877740871A74828156DDEC3758
:10096000ADAF0331AC478574C02A459DF4120CF934
:1009700086B04A16D8116C46C44A67988B1B42C28F
:10098000BEBB0E4884F708A6C38F8E8DABC29B5D9D
:100990005C6028578F0EAD2EC15E95299AF48A2788
:1009A000D441BB4AAC5DB29326FD87813F2735A673
:1009B000422C1538ADF8026F94DA08EE19D890FA87
:1009C00089C3AD89FEC60246811D0C8D782FEED3FA
:1009D000ED6C7B95495687F4E263DA39CE681618D8
:1009E000ED98EE86F3B3C1121A519B571D199E98CC
:1009F0007ED2FD3D2B59154674577914817189D9E2
:100A000022DD9210D98991DF67006E53AFDAB528E5
:100A1000301E47E6B7052D22CF7F6ACD88906B8CBC
:100A200016368807A1B7AFF331C4DB768B969EF0FC
:100A300017A73F847891A8CD3F8FA5DD5214F939CF
:100A40005D0B568E1C5A5B89EE809E33BDB14515F9
:100A50004234597820FC2DDBC92E0F3526CF239B3D
:100A60003E1D9F0F260EB7B54EACA286D5DA3604D2
:100A70005A73466A88C52AA083E88B5F3CAF6A44F4
:100A80004E759B8F93373538BD029A1D8429642596
:100A900097E07C2AB6CBC166513CBC3BF3552BB7E3
:100AA000BD81ECF349D5F803E0BDC60CEEC01908D2
:100AB000FB4F8C94080EA53037F0B818937300BB29
:100AC0005252B4980D4B45B9890A34E91C245A8F07
:100AD000A89DC2D927A9EEBFC08090BC2A9343FB32
:100AE0000AB396D1AE13410168B92C53537C00A5CB
:100AF0008441D6988898FEDEF7E23743620E9383EE
:100B0000EE030A8DCA8759366F61F7F4D6AB8B0FA7
:100B10009C8396A46C4643806BEA50DCD8CED4F418
:100B2000AE5BC6014385718D0C395EE43B2BC488F6
:100B3000B2C554960E879A5093D69C91CA09648B7D
:100B400023C429441A67E1DAC71B2517022C8F2A10
:100B5000133ACFD665312B10F5B596DF01997BADF1
:100B6000D6B4C035A348E3B09EFE33101A09AE3C9C
:100B70000AA1728F0051E17823F5E2BFA64628B39F
:100B80004B24B1A1DEB1C4486FED5AD461F0DBE172
:100B9000085C64C0CAE9A9DEDEECC0685B6DBD43D9
:100BA000828CCA69B1A9C8710D5D6DA5AB1A679435
:100BB000EE0593E33FE81AE60F7F79F2CBC537578E
:100BC000DFFC4FB460C7973C61B00C4664F44392BD
:100BD000D2A5F0F3B7DFAB20B1F5302AB3DC4B3947
:100BE000B7853E1E1B948C26288045D60136D0EC56
:100BF000934688D3D5895D7A82213EC240E3B4DE34
:100C0000F5A569D569495C89CDAE137070ED690CA5
:100C1000ECC6FE75EB4ED6B3C860FB341EF864928A
:100C2000D929A813383D79C4BF21379DE34F21E569
:100C30003F2C5C5F41FF148791E082040B1E5553EB
:100C4000DC5640A43578E29B49222E09CD1F6F94D3
:100C500083EEEA8BC4C210E080D9A55F53349C8C2C
:100C6000EA95648794D6321CEB93BFE35583C2F6B2
:100C7000FCC885B2945C425F6B8E3B9779747EE3CF
:100C80005CC2631A22B17F94CBE7B7FF0E3795AFF2
:100C9000105317881272DDCBAB4B6B6824ACC95C68
:100CA00072094FF1FB1DE7A230E9204BDA707C9E00
:100CB000E234EB6A35C233D79D07B1EFF675F5FD27
:100CC000ADC74BD0B7DDAE1E8D1EC0399CA71CC56D
:100CD000CC3950C66BC6DA37C7E120EB74A53DC0EE
:100CE00008FAC2DFF29E432BF07750498CC32F687D
:100CF000F32A9B831ADC05D8B77C3C611176EC2D76
:100D0000FE86088715A3C01CB46A8D9EBF9AD5C8FD
:100D10005B05181015FBC63CEEC5524B313607B9C2
:100D20004C81EA83D782FEFC43594E20BDD365CF68
:100D30001F5C711FBF26EC44EB0174823C8E60DFA8
:100D4000479031177E16C0EC1EC33A7A5921A29BF8
:100D50008E8725D3FE85DD6DE6D8CA74BADB4230B6
:100D6000963D8622866FDE371A932F032EE16E168C
:100D700062C1E12DFECBA8DF6405EF23BC71617B6E
:100D80001B602227BDC6A37207AA09B052F219152B
:100D90004DBEAF263B4D62A63C41077A34253CD67A
:100DA000CDB65547871ECBCFCED20D95C0D872A6F3
:100DB000E0332426517E71C7533FD4677352CB78FA
:100DC0005A001115715F8D3CCF40CDD97430D9A137
:100DD0003FC658BCBE7818319A3960BB8D7B3495BC
:100DE000A5F1543BB98599AFC445EB64A76E596032
:100DF000EB1E7AFBFD924323F127AC661266288A2C
:100E00005CF6C63F7604E80927ED05AA26E5B4ADF1
:100E100040BAF7F484CB7F07108DB6C7D477EABA0F
:100E2000962A98F056D7FF504D59793D41E0FAA9DE
:100E30009D3EA6D979C80DD156C5ADD7FB703CBD36
:100E4000F3E95D1C5393331DF81BEE9FB750AC8F35
:100E5000485961C9859EC8B0D27439DF33F528E09E
:100E60006311A7C405BD3AD934CAF9AAE200E6E67F
:100E700038573EEC197C0D2745C552C4FFF469C5AF
:100E8000F573734FE307C7CF38235B9C99A26A724F
:100E9000B03539C10AC71C1A3060181D2BF0C8F1D3
:100EA00079A394E336359369059107126044FDB642
:100EB000C6FFE0CFA2CFC2A358AC32E32EEC0D9D0B
:100EC0001BFB0540BA678ECB38D7609CFE9EA17095
:100ED000CC40728C8C507185DD84925CEE44B6E01F
:100EE000801532DD1B4B8C6E8E3997A5AFC6F42969
:100EF00085D3859385C854E4591D4EA0FEC507C10E
:100F0000F73252F94D4585FCA0FA37B59D47E852B6
:100F1000238D928743B4B84F951B1E4FE545BFCE36
:100F2000C80CB27DE7D92E88B72A61E12DC4212EE5
:100F3000B84DFD2187302511EC1F299431D29285BF
:100F40003817DA634D8CB4065564B76CFCC28D5DFE
:100F5000978609D34369E83577CCAF91363C7CA3BB
:100F60006E4E4AA2C94150EAABDF8704704F16F5B6
:100F7000A038F56016CD0CE5C7E3AD00126B128505
:100F80003C5C7F76ED49F29D8FDFABE1DD8701EDC3
:100F90002C1B4B55117FC392D391C1D8A737C7E5FE
:100FA0005B482BED31DECEFB9508E35184000B4D01
:100FB0002673118B1EE2040473E072FFE659C90424
:100FC00048BFABF399877C0704FB33B163616112BF
:100FD000AD08AA30AC174D3086BF6713F1A7041BCC
:100FE00048422384BB7FB408A69F43785CA14E8B04
:100FF000A6E67C4901F7315D2730010B570B79F7E5
:10100000024433BBB45BC701ABE301C2D2017A0730
:101010009EAD8402F1EEF7D82950012C35543ACC1C
:1010200001C93D666A9805247AF71C2440EBA24D5D
:10103000C266C8372C030FF301066D9A42F0948FF5
:10104000EDBFE3283B72693775B4A09A6E31FD6637
:101050005BCBF3BA8CA431FFBA7C2454D3C663892A
:1010600093E4EDDA58474EB58FD793FDAF31EAB42C
:10107000ECC9057D2B1596C1007E80E6F747CD6A49
:1010800077F10E5913AA5C838870DCC4525220B6E3
:10109000692D6C6C8B662ACD5A4130D6FB7BA0EC57
:1010A0007A22887C716EAF6206F4A8C6888576368F
:1010B000C5C0D867967CE84DD4FBA96F0FB2A7A333
:1010C000196A30FD6FFC2BCEA41B8E574851C69871
:1010D0000FE5087B4DFC59DDCF131B310C5E3B98AF
:1010E000E1F4C341D7A2645E16F9EBAE20E95D548A
:1010F000BD99D3A7C1D9E53222D69F4FDD6B3C6D98
:10110000E94D965211DA2386BE01C451C29CC6F540
:101110002F1FD0F1F55782FECBFB4ADF1D0046B8EA
:10112000A73A566608714E47F827265F6CD8C30564
:10113000990A758F4FC18872A05A1308A382842E12
:10114000CEB5A34605D66A7856442386F2C963080D
:101150008BBDEE56D4361F375318E7DA1CFAD0058C
:10116000D55FE7B7AD362BCB06C053F432A8756F09
:10117000E3C9A1B0A6E6C2410F5D2E0A64504692B3
:10118000495B2D002EB5213F0B4A719688844C98FF
:10119000AA2823EBEF455C6278D6E4FB6DC3D93512
:1011A0006CB92AC67471C40C657CA3F96E2DB9861E
:1011B000B0046394CF267D9E1EF799DAE08CDD861D
:1011C000F3C8F1C64E155DED34BB90CDD626091E91
:1011D000F6238451C1AE428F8496C957AE16363A73
:1011E000298765B2BA5696D2F509EF304A0F6236B2
:1011F000FE0030BD091B50C33C48D725E18EB26FBD
:101200004D752DADC61EBAFA4F41AF7A6FA0A04FF3
:10121000B68834698A9E837A60F3A87E392A209C36
:10122000325E7DC4AA97E6263542A1A0EF39B31CF1
:101230002763D27F75C01EB4FA4D7A818139E07977
:101240002F94A5283A437E97B594AF2A10380A7F89
:101250004991C06C659AC6C95DD552469874AC93E5
:10126000E421B0EB08FAF4412EA6F9C5EDE3379876
:10127000C5DF528241A2F2561AF3A4C6408DB95F6F
:10128000AA751E151E68782B2BF43EC7CBF313608E
:10129000E0F48579880C227587B751E0D6E3A092F7
:1012A000D3D7E36C5B3EB780E748D6D92F49CC75DE
:1012B000A004C94888E9CC3241AF30DEC6BC9DF7F6
:1012C000FCFF69035058A1D6B87B5E60FCCC0014CB
:1012D000AF3A3041B34E634795E4BD5374D0F0024A
:1012E000B4FE48196C3F23F79B4411F2C245A63760
:1012F000776C10630E1BA7D196CA0D4F5B4351D676
:1013000014B723E799A49F4C7DD7DD0811844D5C69
:10131000E96090048B1490F06F26450F208CE36FEA
:101320004678EB12B45EF0DEEB222762784293BC83
:10133000E848C088BD0FDE232BD1880AE2B4338E83
:101340006136435842AE6BD7F2FE0AC126947ACE7C
:101350008C3B435A62EF708AFE4DD237DBA1B10657
:101360001B30174CA0241EBECB64E2CE135CD70505
:10137000A6763938F3852C160EB3E23DFF79880B3B
:1013800093EFAD55CDB4EF8FB8167A05C05E920FCE
:101390004F9858D422AD4325317852C69ACA5EA6DA
:1013A0004E79979ABBDF6DF1E2D0B3CA2A5C4682D0
:1013B0005C1EDDD0C519892B2CBDC084D93339679B
:1013C000E4E47926B69D1C1DE470A5A76189254A31
:1013D00057337D0DCAF3CC22AAD7D9CBE6B29646B5
:1013E000159568D80FDF6B36DA198216CE384ECFD6
:1013F000F236C880075388042FB214195DC56CEF0C
:10140000959C608B6AE4FC9DB29CED1D9C1BCAA35D
:1014100026DD9C635B3B882BBA2235240148EEA075
:101420004F6E964E2991AAAF5647BD7BDDA15599C7
:10143000D8B5A147937BCD7BCF65DE5018F2054927
:10144000F199D894213F7D52C6B1B4E19FF07E60FE
:10145000648B30E4AD2C97FB47F70901047BF4F76C
:10146000A7A804A57F0858796D26276AD0D9AFC1EF
:10147000C71223E1AE98A40FBC1BFA9D910B151562
:10148000A524531A13E0C30095389C364CCFF6A917
:10149000BCC1530604F46FBF57E0A614A649707F81
:1014A000392A4A5A593633B90D4725393704777CDA
:1014B00045AC19932549E07A7BA2C695768D3C7997
:1014C000B1A7C38363032347D7ACFB84166F2249BC
:1014D0000B97AAD538575E2BBBA749EDD2D57A9684
:1014E000BE8DF5F94656F52FA7A87AFF3FE7E88CA1
:1014F000F148E846CB4D25F935932FCE8BB8A9C5D9
:10150000D3D22771866F72D9CA4E90D36DB13CD3B6
:10151000CBC9303A26459D66445C5FD8E3907C1B7E
:10152000D882DDD384D4C61B58BF02A53B100A3E27
:10153000E309940B99882B47A79089C4482536DB8B
:101540007231ACF5A30115D0E62161EB5972DC9440
:1015500098F7B0F9FAC10A7EDC69CE905E82110B71
:1015600097E29955A23DFAEB88BC4DC2548D5FDEDF
:10157000A3E248132046C5A08104C42B9A8415B861
:101580009E9B62A1EC7D083CAD214B89FCC6967CFC
:101590003A41358A13BD1B43BF367A4ECE709E2A20
:1015A000F63933C7334B347D2A81FA252EC5C4A1C1
:1015B000280ED54D15E069127119AAFF59488156B8
:1015C00053C935124D84699136D8ADF754D58CF98D
:1015D000C684126222F1B92B1DA57C567A4D5AC4DD
:1015E000F09D8F5DB59A7FE7B7A85D6D37E4F2EAAD
:1015F0007A73F8FC6717F3D960090E8B0FE2F98351
:1016000061DF5369D0EE4251B5514864F8DD3EEEDA
:10161000A747F07C4BBB2B8EE28B6057634B9BAA9A
:101620006763EAA3D57C4341A95474D286C31142AF
:1016300069C5093E8F94AFC599BBBBAC61646101BC
:10164000F2D359B1415091166CCC9BEC5CFE3BB38C
:10165000EC6ED7F10E5A8A5F1DB0C576542607BCD2
:1016600066F0ED519A1FE8F751588E1E80991FEED3
:10167000D643CCFA2FAE80F2A8A8AE437C8076D4B5
:101680001AD4737461DFBF296F561593075892F10E
:101690001DE87B68B2542030012DC5D8FD6150147F
:1016A0000F584C1A5400127E46990C9DD1A304F198
:1016B0008217FEFC12E57581AFFF3D08D539874AD8
:1016C0008EF07AD4D0D6CFA9D6594841C268E3A4C7
:1016D00035458D141AC444892C63C8AF7BAC35439F
:1016E00027BE7ECF56403DA5AC0F97CCD46ED031EF
:1016F000D7146045AEDF0AAA33B388E01C26DC00AD
:10170000B875C86711A1B58771F94A6AEC3F0E41F7
:1017100021C24F928F1753EED5EA4F9175025902AD
:1017200094E4DA4AB3AAA72E9CC780465EBD06336E
:101730001DD85D9F5F77730A7D386BA70E8F4E7D36
:1017400001DA4474D2F17A2F7FE1ECF1A57D033BFD
:101750002F17B6E80D333C2191915B302C11C65800
:101760006AE4351BB5A847B3FFD0960E484E9737AD
:10177000601204FFCBA5F51D409CDF36123DD92A2F
:1017800072DAE88BE45BCFE93852EC2CA0F779AD44
:101790002070592062739CE34609C912D47755071B
:1017A0004B6A261E5D0778104E4ADA5EF63B9B8D2B
:1017B000FD48D0BBAA212EF5DF854CA71D1A261B9C
:1017C000A082867F4B02D2F660C9860C1DBF73696A
:1017D00086184B44BC74E5821793B50A5608B74A7D
:1017E00073B804D214215E2CA0E0C2015FDECE6487
:1017F0002AD8652BF074E354BFA09B50BA02002C8A
:1018000095CE2A4FCF2B2B0E9BDD8F675B54A147C4
:101810002E842E24FA34E05A103BCFAFE2ED28D1CB
:10182000176B9A1B496CFCCB7A74092A415AFFA1A9
:10183000F598C60CD26983D2C369875E7EBBFCC0B3
:10184000D1C117D79BE15370B743D0382526494003
:101850005B57BA4932AA9F39AA8E73008513796DF6
:10186000F1912F9EA3A0657C7D53B47053016B92C0
:101870005F38F1D73D7AD607727ADBA165A50741BB
:10188000004BEBC5D03BEB3061420D4BA3D8078B2F
:1018900012F5893D7CFB2E79A7BCD5BF729AD8156D
:1018A00039AD2570D16CB05DBBF43AF66056FAF2F2
:1018B000A528AE0D76B379F14BC72E6EB6616222C4
:1018C000D9A730234521DE478CEBE54C8B4E79A020
:1018D0009D95B305AAAFECE67473F0DC37AD933B8E
:1018E000206DA1D8CFF97E9EC6BB406456A6187560
:1018F00028D2BA78645C484570358C499A454A6D5F
:10190000F29C8D480A612EE3D4EEA829404B53BBCC
:101910005639CE816CFD37A0791CC794176C37EA15
:1019200097F4D8D49F9F304FE5A408B86BAEB9BCEC
:101930004F612044DF92DB1E0483C0A12C09D8DF55
:1019400021F0200480AF7391BC0EBAE4F79B363CC3
:1019500030F1B4BADCFA65F22B1D184E1662D4AC25
:101960008B21A5A2F132C3C965632D316BB88FE11C
:101970002493870499E6BDBA283063DAACC7993757
:101980008A8666B344D584AAA15342A0381E5DF767
:101990000529E7CA2A0B6AABCEF03AF390E6D125C7
:1019A000A1331C33997D24D17423FC6F7DDBA7E91F
:1019B000C2DE17122D1CB37E880308757D9A493745
:1019C000AF60047CBCD31C53703497EBE1CD30790D
:1019D000A28694585A99C269D7B232626C0A3669A3
:1019E000B1354841CE79967A0D2D33BF4D2FB8D8F9
:1019F000B3FBE47193B9180D51ABBB09D90DD7678F
:101A00001E4728C7F7CE605828235E95FC2BDBF9CC
:101A10000D1FAB49E6D0A7377920E4CF05E3642159
:101A2000ACDFB1E8F9E04C3B5E89682A48C5640E3A
:101A3000DBF1538B1A2FF60C189C529B212E4AE790
:101A4000D6BBB71A0A22AB4AFDD3027D21FFB90EDD
:101A50000F29ABACF4445E0FD5F357E54F61724EDE
:101A6000BA55378F9A1CD4B830AF0A951A1386D45A
:101A70000A835C991B2BC093F513F5EAFB6F757411
:101A80006C2E77C344C53862B9F5AC58B4966EA4D1
:101A9000A545B51B7C9D219516EE29572012BBF854
:101AA0000A2325AC51FD7AE09D43B0276F2ADF045D
:101AB00008D3F11D3C128DAFF2D7B9029D46E3ABBE
:101AC000FF61C8612B19C8C1A16D0AA744FAB5A866
:101AD000D71E53156F7A4841E930B5ADE2F070403A
:101AE0006AF331DD1950E5BCB43D839FDFC825277B
:101AF00090405B32044781FA53B40A40157A745B14
:101B0000DB24AB3AB791E344B747073990D2F5A944
:101B1000084658DC3210A347320445441371AC2EFA
:101B2000A7C971D0F9517ECAE509A81E775B3A08AA
:101B3000AA431CD68D6091466D64569E162ECEB378
:101B400099C8F655271384BC8AB3C8F51A72F76A88
:101B50000C46952F4A86B6D29894F1C3370E0C875F
:101B600011567EAFDA22296FEBFAEC96E0276B4232
:101B7000A170091AAD4888DAFCE13B6295285670DD
:101B80002803B258678D0AEA9A1595515F830709B1
:101B900020BF37AFF70A743CA552F1E3F55830E1A6
:101BA00017DE98F1387BF0AFBD165952996C7470FE
:101BB000487714FF534184BCC5372F71843DF546E7
:101BC0007C63E000A05607F78C6357BE545CE1FDD0
:101BD000AC35FAC2D5F25ABE7C318EBDDBFE4D0368
:101BE0006F5EA61F232DCA68F0C614CCC33EF02139
:101BF000D4402A72B67EE285D68AFB48512777E424
:101C0000CBCD2FF6E1BCFEEDA1145FE532FCCFD9C0
:101C1000FB2FE9AD7D2D68E79A15956A4AE4ABE4A0
:101C2000EBE00D40BDEF8FB975B439086DC09F046E
:101C3000FFCCDE13304EB6E4E0CB69E5C61C2F4383
:101C40006A632572D5DFBDDC0BE9089D3D266FC3B5
:101C500089F818AC42BF4E9D5D28B0264136768D7E
:101C60008684FAD8D467581969202D35FE09D98C95
:101C7000FDF921A157DF17AE8ECBC97F2654DE10A8
:101C80004372DDBC18B934F9AB70F9744D8E6D2A0E
:101C9000331406D071E6ADAABE862E9A8D8788AF22
:101CA000039FCBF8789A663809CDAE89C2CCAF6A6B
:101CB00016140948AE9B55E40FA586A1757F7CEFED
:101CC0000DCB3AB30D1F020C801FB4F4E0A641CC3B
:101CD0008700406143E7FCB40124CA4534253C3900
:101CE000FF098C39855A5BCC273CBD2843864517B4
:101CF0009A4E3524A423A2FDCA6CD4FBBAE741B3A3
:101D0000FB7C5507B56E3EB12972CC38EA2730808E
:101D1000B98CB8EE54AB3EDBDD06D095EA3E428886
:101D20006BAE89C7E84C38B693F6BE4C204A8CCED1
:101D30002B22D272494618568070675AFAC0CA6D73
:101D40005321CAE3866891D37CA9D5AD6A72A1FEFE
:101D500053E94085EA62A963753A2DEC9BFE58D899
:101D600073205210435C2DB421B9961F726DBA4294
:101D7000EAF285BE5212A7B13E2B89EF0F73057CA4
:101D800099C3C55F9653F8AF9B7A49A044546055F8
:101D9000F0103A608D905065AEF779DB2E08F9BBF4
:101DA000F2D278D086B594A10EB98189B7F9C04333
:101DB000E88F3819DAED2FA75CDB01B338CEE6C324
:101DC000F2D5AA879E116FD805F072ABD9A10FFF8B
:101DD00046E94A8C0093E9866F6B1470BEB1B889EE
:101DE000C9CC7D1A11D279FBD9D72413948F019CC9
:101DF0004B69336601829888F84C13310F58C1063D
:101E00001130B48991349B89FC75CD11CA1A6FFACF
:101E100071D645E70FEB3909B35A131FAA3A93CF8E
:101E20008D6ECAEC2C8EC5831B5AD6D189AC024F5D
:101E3000CB0F257696E05D2CFFA7EAEA92F1725B64
:101E4000EE08D8848AA959E31277DAD6CA4E362D1D
:101E50007CA413D1E818319902540AD07A74A0AD49
:101E60002C834A6FF1B1501B6469E8842F2CC8EBB6
:101E7000953DA518C74B82FC88E1D37B0EBE10BAF6
:101E80006502859B469A377A774DC2C45330679175
:101E900054F63D39444342132E0929FD50A6DA94E5
:101EA000CE8697102B5C1C09CD0FFC15DC543B53E0
:101EB000E17CA7E1FD47C2AF7EEA340C6FE65C042B
:101EC000306C84C751E3B55F349EDD050C1CD4BC77
:101ED000FBCD3AAEBC529254852CED0FFBF873103B
:101EE0005DD81F06E0A15926B4393FC119F9D4BE07
:101EF0004FF433EC3F3FFE8F91D044F21278909E26
:101F000079A927EE05CB9F5A4B15DE6739181FE7D5
:101F10003A0A4198E7DEA728A0D354663379B53A48
:101F200083375F25407047B8796B62963F48EA9FD8
:101F30006ECB35E16F2DC4C24B9BA74D05790E1CAE
:101F4000FE095A9F87227A131B9F994D05DB157353
:101F5000D865FE395EA4437B6C79BD73914C9B4C74
:101F6000941887EA68A7449F5C3666FD41145EB109
:101F70008EEB45DA770EE0EC5EF40DBF41C648F01B
:101F800015D860F74076237B1CE559445030CE06C7
:101F90004EC5A670C31817A237ACBF2C6FBC9B3FB1
:101FA00058121110390018DB7D0BD22CEE0AAF76D7
:101FB000947AC15C21D2619F1D7A9695DFA45181EC
:101FC000E61BD57C3644F060FF3AF632EC8FE09A9F
:101FD000C7E3BCADEBA694714B6D38974C36A27538
:101FE000FFFB3FEB60E131B1BC32776CBD49934BF5
:101FF000C207BAF067FD68CAF5A4FF2A5EE2BEB563
:1020000069B2A063931BB4BD4612FAEE885F46DF47
:10201000B2BAE8BA5447EA18FA0891779B1C878B42
:1020200001709EC0052BAAD7AF30A8018B28A0F560
:102030009599325F08C4EF65453CC36DEFB8349D98
:102040001C046686F2BC9D8797BE08DD58DD530FE1
:102050007DEC930BB95BE3087615DFC7682FA8F812
:102060004D338FAE0884C3E8CB9C718009D71163D0
:1020700021040EC6F0509E0AA799149A5AF9AA5F35
:1020800006DF5C52374B390C7E18C1ABD636F5787B
:10209000BD9F790EF233610EC30B5A24023F4235C5
:1020A0003DA4ADC5305076E7E34508661821EBDD69
:1020B0001476F8F155E83B9D8B9392FFA780343856
:1020C000C2AD7CFFBD232B0B2C5FEAC09500FB8CBF
:1020D000376B8A42913EEFD65143216F803EBDF26D
:1020E000B32407A5924A76513172354725E7B9D016
:1020F000F4C2DD52353A23C416FA2A8D99D0B95369
:10210000C2125C3FCE8DDBD1C8D159E588FF4911A1
:10211000ABAB7BD1F2B43749A0B1FEFE6C08761DA3
:102120000B9AF4B16DA0F220E417A74D85B38E7A17
:10213000CB8730AF119020A819EA2207FAC14CE8EA
:10214000FCA2038F2AC536E4AF669BBA0ADD659010
:10215000DAD72762D9193BABF666892DA53070E92D
:10216000AAE2D9C12347FD9A254A5F896297614B4C
:1021700091FC341BFC97B27B87F454FCD63648C2E2
:102180008779A3C48F42B13147DDE8D00A71472275
:10219000F3F49F287A700CBC5930E0E4132465BD39
:1021A0004C0E6D9E4D15901972C928B6950E92F978
:1021B000795C64B9B97BD7DCB4B9B4967F7255AE9B
:1021C0001EB0028E45BDF0A590B7301240B6409CBF
:1021D000F16263726DF0BA1AF6F0406A47A2FC9B96
:1021E000D870191AF524F64D2F64FDF7C3FDA745E5
:1021F0005D94318FD69F5D216641D43951AF618C9A
:102200001E9F0611E97A8831E126B61C7406F598FE
:1022100035171AAB193A8CC60E7E14D06E441C6664
:102220006167F18E287230D2BF7D6F08179962EE18
:102230007818543AD57F61AC10833E2C924F5A984F
:102240005997FB8297ADC873A26C0D06CF0A69DA65
:10225000EB9EF7677FDEE8830B465A3F02B3607F51
:10226000DCA3FF148ECFA26572CE3E11392D94945B
:10227000478EC78C706B7C498E3CD74C02C877A5C3
:10228000FDBA9A0A1A1BD94A8303DFE2756E28D970
:10229000631F021827278F4BE7000000A9020100E7
:1022A0000C010C010F000C100F00011E0C0100109E
:1022B0000F0000010F00010F0C01011E02013F067B
:1022C0005B4F666D7D077F6F800000000000442A31
:1022D0003C5422082A1C2A0808083E080808080856
:1022E0000808006060000040201008043E414141A1
:1022F0003E00427F400042615149462141454B31F9
:102300001814127F1027454545393C4A4949300188
:10231000710905033649494936064949291E0036DF
:1023200036000041221408007C1211127C7F4949BA
:1023300049363E414141227F4141221C7F4949416A
:10234000417F090901013E415949327F0808087F50
:1023500000417F41002040413F017F081422417F1E
:10236000404040407F020C027F7F0408107F3E41C6
:1023700041413E7F090909063E4151215E7F09190D
:102380002946264949493201017F01013F40404029
:102390003F1F2040201F3F4038403F631408146314
:1023A0000708700807615149454300007F00007F1E
:1023B000102844007C041804784464544C4400FF02
:1023C000FFFFFF01FFFFFFFF0203FF0405060708F1
:1023D000090A0B0C0D0E0F1011FFFFFF12FFFF1368
:1023E0001415161718191A1B1C1D1E1F2021222335
:1023F0002425262728292A2B2CFFFFFFFFFFFFFF7C
:10240000FFFFFFFFFFFFFFFFFF2EFF2FFFFFFFFF7D
:10241000FFFFFFFFFFFFFFFF30FF2DFFFF002B310E
:1024200011241FBECFEFD8E0DEBFCDBF14E0A0E087
:10243000B1E0E2E6F3E702C005900D92A235B107E4
:10244000D9F726E0A2E5B4E001C01D92A03CB20796
:10245000E1F712E1C0E1D2E104C02197FE010E9440
:10246000A239CF30D107C9F70E94AB310C94AF39F4
:102470000C9400008093BB0084E88093BC008091A2
:10248000BC0087FFFCCF8091B900887F803231F497
:1024900081E080930E0481E090E008958033D9F7C5
:1024A00081E080930F04F7CFE5CF089594EA9093ED
:1024B000BC009091BC0097FFFCCF90E0880F991F63
:1024C000F3CF089580910D04815080930D048823EB
:1024D00051F084EC8093BC008091BC0087FFFCCF5E
:1024E0008091BB00089584E88093BC008091BC007B
:1024F00087FFFCCF80911004882321F084E980932A
:10250000BC00EECF84EA8093BC008091BC0087FFC2
:10251000FCCFE6CFCF93C62F21E020931004609329
:102520000D0424EA2093BC002091BC0027FFFCCFBF
:10253000880F991F8E7F91708160B6DF8C2FCF91AD
:102540000895B0E0A0E0E7EAF2E10C947339EC0101
:10255000241708F020E031E0211101C030E0340FF1
:10256000FE01E30FF11D1082F0E0E0E0842F821BFA
:10257000990B5C011EE28AE0C82ED12CE417B8F456
:10258000222341F0AE16BF0629F43150DE01A30F1D
:10259000B11D1C9331507E01E30EF11CCB01B6013D
:1025A0000E94E138805DD7018C933196E7CF2111ED
:1025B00001C0242F80E02150330BE82FF0E0E21718
:1025C000F30744F4EC0FFD1F9081903319F400835E
:1025D0008F5FF3CFCDB7DEB7EAE00C948F39E62FEB
:1025E000F0E093E0F595E7959A95E1F724E0829F76
:1025F000C0011124E80FF91FE156FA4F677021E07E
:1026000030E001C0220F6A95EAF78081822B808337
:1026100008958091D7054ADF80E42CCF08958091FA
:10262000D70544DF80E026CF0895CF93DF9390E075
:10263000FC01E458FA4F249188599A4FFC01849187
:102640008823C1F090E0880F991FFC01E25AFA4FED
:10265000C591D491FC01EC5AFA4FA591B4919FB762
:10266000F8943881822F809583238883EC91E22B24
:10267000EC939FBFDF91CF91089582E1D6DF83E194
:10268000D4DF88E48093B8001092B900089590E0F8
:10269000FC01E05CFA4F2491FC01E458FA4F3491BC
:1026A000FC01E859FA4FE491EE23C9F0222339F0F6
:1026B000233001F1A8F4213019F1223029F1F0E0A2
:1026C000EE0FFF1FEC5AFA4FA591B4918FB7F89413
:1026D000EC91611126C030953E233C938FBF089545
:1026E0002730A9F02830C9F0243049F780918000C4
:1026F0008F7D03C0809180008F7780938000DFCF33
:1027000084B58F7784BDDBCF84B58F7DFBCF80917F
:10271000B0008F778093B000D2CF8091B0008F7DD2
:10272000F9CF3E2BDACF3FB7F89480919B0590917B
:102730009C05A0919D05B0919E0526B5A89B05C05E
:102740002F3F19F00196A11DB11D3FBFBA2FA92F30
:10275000982F8827BC01CD01620F711D811D911D2D
:1027600042E0660F771F881F991F4A95D1F7089599
:102770008F929F92AF92BF92CF92DF92EF92FF9291
:102780006B017C01D0DF4B015C01C114D104E10479
:10279000F104B1F0C8DF681979098A099B09683E1C
:1027A00073408105910588F321E0C21AD108E10840
:1027B000F10888EE880E83E0981EA11CB11CE5CFBD
:1027C000FF90EF90DF90CF90BF90AF909F908F9051
:1027D00008952FB7F89460919705709198058091AE
:1027E000990590919A052FBF08950F931F93CF934A
:1027F000DF93EC018B01EDDF607F7370E881F9817D
:102800009F012F703327AF01407F5370AA81BB8196
:102810008C919C8189236417750708F47C5FDB0128
:10282000A41BB50B23303105D1F168F421303105FB
:1028300089F190F0882309F45AC0A034B10550F012
:1028400030E020E007C025303105D1F190F126308D
:102850003105E9F180E005C08111FCCFAB0121E039
:1028600030E0EE27FC7FE22BF32B407F53704E2BA2
:102870005F2B598348838823E1F10115110529F065
:10288000652F66956695F8010995DF91CF911F91A7
:102890000F9108958111D4CF23E030E0E2CF811170
:1028A0001CC0A034B140B0F2AB0124E030E083E0C2
:1028B000D8CF811116C0D09768F2AB0187E0D1CF95
:1028C000882391F0AB0122E030E08BE0CACF88236F
:1028D00019F322E030E081E0C4CFAB0126E030E024
:1028E000B9CF25E030E0B6CF24E030E0B3CFAB0184
:1028F000B1CF2330310548F288E0C7CFEF92FF9285
:102900000F931F93CF93DF93C9E8D3E10BEA14E051
:1029100084579F4F7C01219799F0C8010197F1F7E7
:1029200061E070E0F70180819181F4DD813099F7F9
:10293000C9DD87FFF0CFCDB7DEB7E6E00C94933961
:1029400088E198E00FB6F894A895809360000FBED8
:1029500090936000FFCF8ECD0895A3E0B0E0E3EB4D
:10296000F4E10C94783910E000E020EE280F298380
:10297000E82FE052FF0BE254FC4DFB83EA8385E035
:10298000F82EF981FF3588F5EA81FB8184918F3F2C
:1029900061F1F8018F9DE00DF11D1124E753FD4D0C
:1029A00084919091D80591118095D5DF8091D905BA
:1029B0009091DA0501969093DA058093D9050F5F1F
:1029C0001F4F05301105E9F68091D8058195C3DFC9
:1029D0008091D9059091DA0501969093DA0580935C
:1029E000D9052396E5E00C94943980E0DACF809104
:1029F00061008F7020E939E542E050E0813089F0D4
:102A000028EC3CE241E050E0823058F028EB38E816
:102A100040E050E004C0220F331F441F551F8A9529
:102A2000D2F760E074E284EF90E00E940839205110
:102A300031094109510956954795379527952093B6
:102A4000B80008959FB7F894E1E6F0E020E820830D
:102A500080839FBFCCCF0895EEEAF4E0108213820A
:102A60008AE086831182148287831282158280878E
:102A70000895AFDE60935B0570935C0580935D0500
:102A800090935E0528EE33E040E050E00E94083964
:102A90003093600520935F050895FC014FB7F894CB
:102AA0008081918120813181281B390B31832083E2
:102AB0004FBF08959FB7F894309903C081E0809389
:102AC000AB048091AB049FBF0895E091300182E197
:102AD000E89FF0011124ED5CFE4F81859285909373
:102AE0002E0580932D05089580912D0590912E053A
:102AF000E091300122E1E29FF0011124ED5CFE4FF4
:102B0000248135818217930738F026813781281771
:102B1000390710F0928781870895982F990F890FB0
:102B200023E0280F90911F05291708F4922F08958C
:102B3000833041F4643028F0663020F06A5062300F
:102B400008F081E0089564E6873822E09207B8F43F
:102B500060E08C3E21E0920790F0893622E09207F7
:102B600080F042E1489F9001499F300D1124C90136
:102B700080559B426FE170E00E94E1386E5A862FCB
:102B80000895823422E0920778F043E2489F900152
:102B9000499F300D1124C901835E9E4467E270E0B5
:102BA0000E94E138615DEBCF833122E0920778F03B
:102BB00048E2489F9001499F300D1124C901805D72
:102BC00092456FE270E00E94E138695FD8CF47E03C
:102BD000489F9001499F300D1124C9018D569D4099
:102BE00067E270E00E94E138CACFE091300182E1F3
:102BF000E89FF0011124ED5CFE4F808508958E5012
:102C00008770806480937C0087E880937A0080914D
:102C10007A00806480937A0080917A0086FDFCCFF0
:102C200080917800909179000895FC018081280FAF
:102C3000261714F440830895421714F02083089552
:102C400060830895282F44E060E087E495E0EDCFAD
:102C50000895BFDD28EE33E040E050E00E940839DF
:102C60003093600520935F0581E0809361050895AE
:102C700080913201823069F0833019F0813039F46B
:102C8000089580910A01823021F081E0089580E06A
:102C9000089582E0089580913201882329F090916F
:102CA000320181E0943008F080E008958436910587
:102CB00020F40A9758F481E00895803127E29207C2
:102CC00038F4883E934030F483E0089582E008951C
:102CD00085E0089584E008959091320181E0943078
:102CE00009F080E00895D7CF08959091320181E0F6
:102CF000943009F480E0089581E008959AE0899F76
:102D0000F0011124E451FC4F85919491009719F042
:102D1000FC010995089581E00895E82FF0E0EE5C4C
:102D2000FA4F908181E0891B8083089587E1F5CF78
:102D3000089583E1F2CF089586E1EFCF08958AE107
:102D4000ECCF08958BE1E9CF089589E1E6DF80912A
:102D50004B0578CE089584E1E0CF0895249A6AE087
:102D600070E080E090E004DD2C986AE070E080E0A4
:102D700090E0FEDC2C9A6AE070E080E090E0F8CC15
:102D8000089584E98093BC0080910E04882331F07B
:102D900010920E0410920F0482E0089580910F04A7
:102DA000882321F010920F0483E0089580E00895B5
:102DB000CF93DF93D82FC92F8DED95E09FDDD09372
:102DC0008806C0938906C0938B06D0938C06909199
:102DD000BE06992361F080918A069295990F990F0A
:102DE000907C8370892B81608D7F80938A0680918F
:102DF00069065CDB809175063DDB80918A063ADBD3
:102E000080918B0637DB80918C0634DB80918D06B8
:102E100031DB80917506803419F480918E062ADBAF
:102E2000B0DF8DED95E06ADDD0937A06C0937B0626
:102E300060916B0670916C0690E080E099DCDF9108
:102E4000CF9108959C0190918A06937C90938A0675
:102E500080917506803461F0203C310508F020E057
:102E600020938D0680917A0690917B06A1CF0895DC
:102E70009D7F90938A0630938D0620938E06F2CF25
:102E800088E14BDFB2DE833029F080914A0590E083
:102E9000D9CF089581E0FBCF8DED95E02FDD8091B6
:102EA000690604DB82E190E0FFDA90E080E0FCDA82
:102EB00081E0E0DA81E0DEDA8091B906DBDA809148
:102EC000B806D8DA5EDF83E998E00197F1F7089554
:102ED00087E023DFE0DE882349F08091B9069091F6
:102EE000390590FB85F98093B906D6CF0895E09116
:102EF000300182E1E89FF0011124ED5CFE4FE7858F
:102F00000E2E000CFF0BE25CFB4F908180913B0585
:102F1000882329F0209132018150233039F49923FC
:102F200021F0945081E0923008F480E08295807F17
:102F30009091B8069F70892B8093B806ADCF089505
:102F4000282F42E060E08BE395E06FDEA4DE811184
:102F5000CECF0895FF920F931F93CF93DF93D82F77
:102F60008091750608E010E0C3E2803241F006E08F
:102F700010E0C3E4803519F408E010E0C3E58DEDFE
:102F800095E0BCDC8091690691DA8C2F73DA8D2F85
:102F900071DAF7DE8DED95E0B1DCB801809169065C
:102FA00090916A06B7DAF12CCF2DD0E0C017D10787
:102FB00034F488DAC157D94F8883F394F5CFCDB76D
:102FC000DEB7E5E00C949439CF93C82FCF708DED28
:102FD00095E094DC8091690669DA82E190E064DA38
:102FE00090E080E061DA81E345DA82E043DA81E073
:102FF00041DA8C2F3FDAC5DE8DED95E07FDCCF9195
:1030000008958091BF0687FD06C061E040DB8BEA32
:1030100094E00197F1F78DED95E070DC8091690601
:1030200045DA81E190E040DAACDE8BE097E201978F
:10303000F1F70895FF920F931F93CF93DF93C82F5B
:10304000D62FF42E89018091690630DA8C2F12DA9E
:10305000C1E0DC1748F5CF1538F5D801ED91FC91AA
:103060001197CF0101968D939C93E057FA4FE4910D
:103070008E2F90E019DACF5FC83059F782DE8DEDE0
:1030800095E03CDC61E070E08091690690916A0611
:1030900041DA18DA86FB882780F991E08927CDB7D5
:1030A000DEB7E5E00C94943990E080E0E3CFEF9256
:1030B000FF920F931F93CF93DF93EC01F62EE72E31
:1030C000142F052F1BDCC457DF4F8881EFD982E115
:1030D00090E0EAD990E080E0E7D98E2DCBD98F2D12
:1030E000C9D9802FC7D9812FC5D94BDE83E998E094
:1030F0000197F1F7CDB7DEB7E6E00C9493391F9353
:10310000CF93DF93EC01162F462F50E060E070E480
:10311000CEDFC152DF4F1883DF91CF911F91089509
:103120006091AC04611116C080910B019091320145
:10313000943091F490914E05981710F4682F691B04
:1031400080910801861729F0609308018DED95E0C4
:10315000D6CF089560E0F4CF682FF2CF282F4FE04C
:1031600060E08EE495E061DD80913201843009F405
:10317000D7CF0895282F4FE060E082E495E055DD39
:1031800080913201843041F44091420550E063E087
:1031900073E18DED95E08BCF0895282F4FE160E02E
:1031A00081E495E042DD80913201843041F4409128
:1031B000410550E062E073E18DED95E078CF089530
:1031C000282F4CE360E084E395E02FDD8091340507
:1031D00081110DC080914F05882349F050E040E0F7
:1031E00061E070E48DED95E062DF10924F05089587
:1031F0008CE093DD80913201843049F440913E05AA
:103200004F5F50E060E071E18DED95E050CF0895A3
:10321000282F4FE360E086E395E007DD8091750697
:10322000803241F04091360550E063E073E38DED6C
:1032300095E03DCF0895282F40E260E085E395E0DA
:10324000F4DC16DD40913505E82FF0E0E255FB4F48
:10325000438380913201843031F050E062E073E3C7
:103260008DED95E024CF0895E82FF0E0E255FB4F77
:10327000438150E062E073E38DED95E018DF40910B
:10328000360550E063E073E38DED95E010CF0895CF
:10329000FF920F931F93CF93DF93F0904005C2ED01
:1032A000D2E00AEE12E0FE0165917491FE013296C1
:1032B00045915491F11002C0452F552755278DEDAA
:1032C00095E0F5DE24960C171D0769F7CDB7DEB73C
:1032D000E5E00C9494398EE020DD80913201843059
:1032E00009F4D6CF0895E82FF0E0E55AFD4FE491B8
:1032F00084EF8E0F8F3470F4E0937F0684E591E0C5
:10330000E89FA001E99F500D112463E071E38DED6A
:1033100095E0CDCE089590913201943079F0282F28
:103320004AE060E083E395E080DCA2DCE82F809156
:103330003305F0E0E255FB4F8683D5CF0895B0E02A
:10334000A0E0E5EAF9E10C947539AC01EB012091BC
:103350002D0530912E05A8EEB3E00E944C396B018B
:103360007C01CA019695879597018601080F191F60
:10337000211D311DC901B8019A0150E040E00E94B1
:103380000839A90164E071E38DED95E090DECE018E
:1033900096958795A7019601280F391F411D511D4C
:1033A000CA01B9019E0150E040E00E940839A9011C
:1033B00065E071E38DED95E07ADECDB7DEB7E8E04C
:1033C0000C949139CF93DF93EC01FE0165917491D8
:1033D0006115710549F0FE013296459154918DEDCC
:1033E00095E065DE2496F1CFDF91CF91089585E0D9
:1033F00094DC80913201843039F08091370581115D
:1034000004C08EE793E0DECF089586E893E0FBCF1B
:103410008AEE92E0D7DF4091410550E062E073E12F
:103420008DED95E044DE4091420550E063E073E1AC
:103430008DED95E03CDE8EE393E0C4DF80913F05A7
:10344000811104C08EEF92E0BDCF08958EE193E02C
:10345000FBCF8DE062DC80913201843009F4D8CF5B
:1034600008958091320181110CC0BFDB823031F4AC
:1034700080914305823031F0833051F08FE492E047
:10348000A1CF089560EB74E080E496E058CF0895F2
:103490006CED75E080ED97E0F9CF282F43E060E018
:1034A00083E495E0C2DBDDCF0895B0E0A0E0EBE57A
:1034B000FAE10C947239EC01D62E142FFC01E85677
:1034C000FF4F8081803261F098E0E92EF12C02E418
:1034D000803451F026E0E22EF12C02E5803521F017
:1034E00088E0E82EF12C02E2CE0108DA80E0D0FA82
:1034F00080F910FB81F9182F13706E018CE8C80E4B
:10350000D11CF60180810E945612802F0E943A122F
:10351000812F0E943A1235DC5E01FAEBAF0EB11C2E
:10352000CE01ECD9B701F601808191810E948A1207
:10353000912C092D10E00E151F0554F40E94621203
:103540000C0F1D1FF801E654FF4F80839394F1CFB9
:10355000F501808186FDE4CFCE01D0D9CDB7DEB7AD
:10356000EBE00C948E39B0E0A0E0E9EBFAE10C94CA
:103570007439EC01C3D9FE01E457FF4F80810E94EA
:10358000561281E090E00E945412FE01E352FF4F78
:1035900080810E943A12FE01E252FF4F80810E9418
:1035A0003A12EFDBCE01AAD9FE01E057FF4F60814E
:1035B000718190E080E0DCD8FE01EE51FF4F808108
:1035C00087FD06C060E063D88BEA94E00197F1F7CD
:1035D000FE01ED55FF4F8081811123C08E010A55F8
:1035E0001F4FF801E080F180A70161E072E0CE0199
:1035F0005EDDF801F182E0820C5F1F4FF801B080C0
:103600007E01F8EAEF0EF11CF701C080D180A6011F
:1036100062E072E0CE014BDDF701D182C082F80199
:10362000B082CDB7DEB7E9E00C9490391F93CF9309
:10363000DF93EC01122F90937706809376067093B8
:1036400079066093780681E090E090937D06809300
:103650007C064C175D0720F06417750708F0EA0137
:103660009091BD06209180068091BA063091810626
:1036700030FB87F98F7920FB84F9807F816080930C
:10368000BA069093BB0680E48093750680918A0603
:10369000807C816080938A0610928D0681E0809301
:1036A0008E068DED95E05FDF6091BC068DED95E0B7
:1036B00026DD1093BE0682E080937E06D0937B06C3
:1036C000C0937A06CE0174DBDF91CF911F910895EC
:1036D00058CB08950F931F93CF93DF93082FD62FC6
:1036E000142FC22F0E940F1381E235D9802F33D9B6
:1036F000812F31D982E22FD98D2F2DD98C2F2BD923
:10370000E7DFDF91CF911F910F910895E7EDF5E08D
:10371000828393837583648393E0759567959A9507
:10372000E1F7262F4FE7D6CF089523E0660F771FE6
:103730002A95E1F7EBCF0895EF92FF920F931F9335
:10374000CF93DF93F12CE12C0097B1F0EC010E94B4
:1037500009138E017801EC1AFD0AF80181918F019D
:10376000882349F02091D9053091DA052A373105AF
:103770008CF7F3D8EFCFACDFC701CDB7DEB7E6E00B
:103780000C949339A4E0B0E0E8ECFBE10C947B39B5
:10379000843608F083E66AE00E94D538882371F009
:1037A000805D8983905D9A838CE78B831C82CE0138
:1037B0000196C2DF2496E2E00C94973980E2F1CFC3
:1037C000A3E0B0E0E6EEFBE10C94793980915A0574
:1037D000811120C08091AC04811120C060910B0147
:1037E00070E000E220E042E0CE0101960E94A112CA
:1037F0001091310570E060E082E790E096DF81E0B3
:10380000113009F080E08093D805CE01019694DF55
:103810001092D8052396E4E00C94953980E28983D0
:103820008DE48A831B82E4CF9091AC04911115C082
:1038300020910B01482F880F550B240F352F311D78
:1038400037FD06C02034310514F02FE330E0922F0D
:1038500090930B0165DCB4CF08951092AC04FACFBD
:10386000CF93C82F8091AC04882341F0C3FD10C0D2
:10387000C13011F4663061F481E009C08C2F83708F
:10388000833031F4CB3021F08FEF6630A9F3CCDFF9
:103890008C2FCF91089580915A0581110CC0809191
:1038A0003105813041F08091AC04882329F01092D9
:1038B000AC0436DC85CF089580910B018823D9F3C1
:1038C0008093AC04F6CFA4E0B0E0E9E6FCE10C9410
:1038D00075399091AD04992309F477C090914C0506
:1038E0009130C1F090E1182F892F89D91816190647
:1038F00014F08BEE91E040910001509101014F3F97
:10390000540751F490930101809300011CD98093D6
:10391000020118C09FE0E7CF6FE0649F9001659FB0
:10392000300D1124820F931F24E0959587952A95D9
:10393000E1F7909301018093000105D99091020174
:10394000891303C01092520407C0909152049F5FE4
:10395000909352049A30D8F60E94E913C090530411
:10396000D0905404E0905504F09056046C197D09F1
:103970008E099F09613177428105910510F4112369
:1039800021F180915A05811116C01091020105E2C2
:10399000143608F000E268E370E08CE690E0B6DEF2
:1039A0001436B8F081E3898380E38A838B831C8299
:1039B000CE010196C1DE0E94E91360935304709317
:1039C000540480935504909356042496E8E00C9494
:1039D00091391A3050F0812F6AE00E94D538805D0D
:1039E0008983905D9A830B83E2CF80E28983105DA7
:1039F0001A83F9CFCF93C82F0E9409138091D9055C
:103A00009091DA058A3791051CF48C2F0E94AD1431
:103A10005FDE81E090E0CF91089568E370E088E197
:103A200090E074DE80913201833091F020F4813097
:103A3000A8F480E20BC08430E1F780915005882320
:103A4000C1F3809140058111F4CF8AE2D3CF08956C
:103A500080910A01813041F085E5F8CF80913C05E5
:103A6000813039F783E5F2CF8CE4F0CF0F931F93C9
:103A7000CF93DF93D0E0C0E00097B9F08C010E94B3
:103A80000913D0E0C0E0F801EC0FFD1F84918823FA
:103A900059F02091D9053091DA052A37310514F40F
:103AA0000E94AD142196EFCF13DECE01DF91CF91AE
:103AB0001F910F910895A4E0B0E0E1E6FDE10C94C0
:103AC000793970E060E090E080E020DE07ED15E0FD
:103AD00081E0F80181838CE392E0C8DF80910C01E2
:103AE000805D89838CE78A8385E38B831C82CE018A
:103AF000019622DEF80111822496E4E00C949539B7
:103B0000FF920F931F93CF93DF938A01F22E70E001
:103B100090E00BDEC7EDD5E0F982C801A7DF19827E
:103B2000CDB7DEB7E5E00C94943980913201833053
:103B3000F0F4E09130018130E8F082E1E89FF0019B
:103B40001124ED5CFE4FE78547E051E0E40FF52FCF
:103B5000F11D44918091310521E0833009F020E08E
:103B600050E0435F5E4F67E088E2CACF089584303B
:103B700059F0089582E1E89FF0011124ED5CFE4FB9
:103B8000E68540E051E0E2CFE091300182E1E89F3C
:103B9000F0011124ED5CFE4FE0894BEF50E0D6CFF1
:103BA0001F93CF93DF9390913201933009F43FC07C
:103BB000282F80913001C82FD0E03091320133306E
:103BC00098F542E1849FC00111243130A0F145E015
:103BD00060E08E5B9E4F29D882E18C9FF0018D9F23
:103BE000F00D1124ED5CFE4FE7850E2E000CFF0B4F
:103BF000E25CFB4F908180913B05882329F0209166
:103C000032018150233041F4992329F081E02CEFD7
:103C1000290F223008F480E08295807F9F70892BE5
:103C20008093B80639D902C0343011F17EDFDF91BC
:103C3000CF911F91089546E060E08F5B9E4F0E94F8
:103C4000151680917506803489F782E18C9FF0010A
:103C50008D9FF00D1124ED5CFE4FE6850E2E000CBD
:103C6000FF0BE95CFB4F8081873000F7ADD9DECFD9
:103C7000219512E1819FC001112444E060E08D5B39
:103C80009E4F0E9415161C9FF0011D9FF00D1124E0
:103C9000ED5CFE4F408950E062E071E18DED95E012
:103CA00006DAC4CFCF9380913105C1E0823009F0AC
:103CB000C0E02C2F44EF50E060E082E221DFE09191
:103CC000300122E1E29FF0011124ED5CFE4F3385CB
:103CD0008485258590913201913038F0895F943048
:103CE00028F084E0820F943009F0832FC093D80528
:103CF00027E0829FC00111248C579F4FB7DE10929E
:103D0000D805CF9108950F931F93CF93DF93C09160
:103D100030012C2F30E09091320142E1C49FE0014C
:103D20001124913050F1943010F1943031F5C05C91
:103D3000DE4F05E011E042E0282F60E0CE010E9456
:103D400015160115110569F0888190E0880F991FFB
:103D5000080F191FF8018081918190937D0680934F
:103D60007C06A0DFDF91CF911F910F910895C15C78
:103D7000DE4F10E000E048E0DFCFC25CDE4F92E1B2
:103D8000929FF001939FF00D1124ED5CFE4F908502
:103D900000E111E043E0923078F246E0CDCFCF93DE
:103DA000C82F0E940F138DE80E94AB1480E1C1114F
:103DB00084E10E94AB148EEAC1118FEA0E94AB1419
:103DC00087DCCF910895CF93DF9327E04FE760E042
:103DD00080E080DC0E940913C0E0D4E080E00E9413
:103DE000AB142197D9F774DC6091DB057091DC0589
:103DF0008091D9059091DA0589DCDF91CF91089502
:103E0000CF93E0914405F0E0EF5EFB4FC081CF5FC0
:103E10000E940F1381E80E94AB148C2F0E94AB14F8
:103E200057DCCF91089590914405890F8A300CF0AA
:103E300089E087FD80E080934405E2CF0895A8E003
:103E4000B0E0E5E2FFE10C9473393B9A439A88E0D5
:103E50008093B800D6D88DED95E00E947E148091B5
:103E600069060E94561281E090E00E9454128FE190
:103E700090E00E94541285E090E00E9454120E944B
:103E8000C1165E0189E0A80EB11C8DED95E00E947F
:103E90007E1468E070E08091690690916A060E9445
:103EA0008A128E010F5F1F4FE02ED12E0E946212E8
:103EB000F80181938F01AE16BF06C1F7898186FD97
:103EC000E4CF8BE097E20197F1F78DED95E00E944A
:103ED0007E14809169060E94561281E090E00E9453
:103EE000541281E390E00E94541285E090E00E9419
:103EF00054120E94C11660916D0670916E0690E09A
:103F000080E00E94B81362E370E080E090E00E94DD
:103F1000B8131A82198210E000E0F12C0539F1E0A3
:103F20001F0740F430E020E00138110590F020E058
:103F300031E00FC0063F82E0180748F020E033E090
:103F40000F3FE3E01E0728F020E034E006C020E049
:103F500032E085E10115110509F086E14F2D50E0B1
:103F6000FA01E456FD4FE491E20FF32FF11D0E1715
:103F70001F0709F057C0F3944A595D4FFA01449165
:103F800092E0C92E443618F04456CC24C3942E2D0A
:103F90003D2D60E04FD88823B9F0CC2051F02E2D74
:103FA0003D2D48E06C2D85E145D8882369F00F5FF1
:103FB0001F4F0F5F1F4F0135F4E01F0708F4AECF0E
:103FC00083EE93E00197F1F7809175068032E1F07E
:103FD000E091300182E1E89FF0011124ED5CFE4F99
:103FE000E7850E2E000CFF0BE25CFB4F80818F708B
:103FF00080618093B8068091B9068078806180687E
:104000008093B9060E944C1788E48093B8000E9400
:10401000F71481E08093AA043B9A43982896EAE03B
:104020000C948F39C12C48E0B2CFCF93DF938091AD
:104030003201833009F05BC080910A01E0913001C8
:1040400092E1E99FF0011124ED5CFE4F218994E695
:10405000290290011124823019F4319521953109FA
:1040600080913201D0E0C0E0833069F4C0913D0519
:1040700084E6C802E001112480910A01823019F41B
:10408000D195C195D10980917506803269F18091F1
:104090002B0590912C05280F391FC20FD31FD195E6
:1040A000C195D1098DED95E00E947E14809169063D
:1040B0000E94561282E190E00E94541290E080E04B
:1040C0000E94541281E00E943A1280E00E943A124B
:1040D0008D2F0E943A128C2F0E943A120E94C11614
:1040E00083E998E00197F1F7DF91CF9108958091EE
:1040F0003201A4CF282F48E065E08DE395E00E94CF
:1041000015160E94291680913201833009F48DCF53
:104110000895CF93C82F0E94F5158330C1F02C2F3E
:1041200049E167EE88E395E00E941516E0913001C1
:1041300082E1E89FF0011124ED5CFE4F809138058B
:10414000818B0E9429160E944B1681116EDFCF9140
:1041500008951F93CF93DF9391E018160CF090E031
:10416000CFEFC80F82300CF4C0E080917506D8E222
:10417000803221F0D8E4803509F4D8E510E090FBD6
:1041800010F98DED95E00E947E14809169060E94E1
:1041900056128D2F0E943A12812F0E943A128C2FB4
:1041A0000E943A120E94C1168DED95E00E947E1485
:1041B000DF91CF911F9108959091320145E29430A3
:1041C00009F44AE1282F60E082E395E00E94151689
:1041D00080913205BEDF0E943816E82FF0E0E255EC
:1041E000FB4F80913205808308950E943816E82F96
:1041F000F0E0E255FB4F8081ACCF0895EF92FF9243
:104200001F93CF93DF93142FC62FD0E07E0193E04E
:10421000F594E7949A95E1F7C20FD11D219723E019
:10422000D595C7952A95E1F74FEF410F480F2C2FF1
:104230006E2D50DACE19CF5FC19FE00111240E948C
:104240000913219720F080E00E94AB14FACF40DAE6
:10425000DF91CF911F91FF90EF900895ADE0B0E016
:10426000E4E3F1E20C946B39F82E00911F05809184
:104270001E05801738F08FEF800F011101C080E01C
:1042800080931E0570E060E090E080E03FDA81E01E
:104290008093D80586E891E0E9DB20911E0586E051
:1042A000E4E4F4E0DE01119601900D928A95E1F7C5
:1042B0000023A9F12F5F4AE0822F642F0E94D53896
:1042C000392F802F0E94D538905D9D83E3E00A301E
:1042D00018F0805D8C83E2E08CE7A1E0B0E0AC0FE9
:1042E000BD1FAE0FB11D8C93AFEFAE0F81E090E01C
:1042F0008C0F9D1F8A0F911DDC01305D3C932A308D
:1043000070F0E250A1E0B0E0AC0FBD1FAE0FB11DE8
:10431000FD01822F6AE00E94D538805D8083CE0146
:1043200001960ADA1092D80510911E058BEA189FA3
:10433000112D11241695F1101EC080910301181340
:104340001AC0002339F1812F0E948D15F92E182FE4
:1043500002E01F15F8F4602F70E090E080E0E5D9EE
:1043600080911E05181729F080E244DB1F5F0E5F65
:10437000F0CF8EE3FACF1093030128E340E868E022
:1043800080E001110BC03ADF20E047E951E064E032
:1043900084E2B6DB2D96E2E10C9487392FDF812F82
:1043A0000E948D15182F9D87B5E08B9FC0011124A9
:1043B000FC01E954FB4F7F0182E0582E9AE0392E30
:1043C00028EE822E23E0922E3AE0A32EB12C44E672
:1043D000642E712CFD851F17E8F640901E0528E01D
:1043E00040E8652D660F660F660F80E007DFC52C7D
:1043F000D12CB60190E080E098D922242394210E9C
:10440000822D632D0E94D53820E2141101C02EE3C5
:104410002983805D8A83905D9B8320E22C831D82AB
:10442000CE01019689D9D70112961C9112971430AA
:1044300009F065C08D919C918031974208F453C07A
:1044400085E0E1E1E81BB601F6E0EF9FC001112431
:104450006CD9D7018D919C91B3010E94E1389B01E9
:10446000B5010E94E138462F2436310508F43DC0DD
:10447000B1E3B983E0E3EA8324532B83E3E0A1E0D3
:10448000B0E0AC0FBD1FAE0FB11DFEE2FC93A1E08A
:10449000AE0F21E030E02C0F3D1F2A0F311DD90156
:1044A000405D4C93EE5F81E090E08C0F9D1F8E0F7E
:1044B000911DFC011082CE0101963ED9B6018CE619
:1044C00090E033D9D70112968C91B4E08B9FC00154
:1044D00011248E559E4FCADAE5E0EE0EF11C53947E
:1044E0005394122D77CF84E0ACCF822F632D0E949E
:1044F000D538805D8983905D9A83E2E0C0CFED91ED
:10450000FC9111971150412C133090F413968D911A
:104510009C91B4010E94F53897FF04C088519C4FCC
:1045200061507109E60FF71FB5010E94F538462E5C
:1045300000E220E045E0BF01CE0101960E94A112F9
:1045400085E0133008F488E0B1E1B81BB601E6E07D
:10455000BE9FC0011124E9D8CE010196EDD81330D9
:1045600008F0ACCFFEE2F987842D632D0E94D53888
:10457000805D8A87905D9B871C86CE0109969DCFC2
:10458000A4E0B0E0E6ECF2E20C94793980915A05AF
:10459000811125C080915505811121C010913101F3
:1045A0001F3F09F568E370E08AE590E0AFD880E846
:1045B00090E05CDA0E944B16811111C028E04CE0BB
:1045C00060E182E71BDE8091910683FF08C060E115
:1045D00070E082E790E09AD88EE690E047DA249681
:1045E000E4E00C9495390091450568E370E08AE5B4
:1045F00090E08CD880913201843019F4812FC2D898
:10460000D9CFE1E7F0E080E00023C1F39491911766
:1046100038F48F5F31968F30C9F791E089E003C09D
:1046200090E08930D0F723E52983893059F0805D07
:104630008A8380E291118BE28B831C82CE010196EA
:104640007BD8B8CF89E3F4CF8091BB0381110CC034
:1046500081E08093BB0380914B050E94221581E08D
:104660009EDB10929005089580915A058111FBCF31
:104670001092BB0381E00E94221580E0F1CF80916F
:10468000BB03811111C080919005882369F081E0FE
:104690008093BB0380914B050E94221581E07FDB54
:1046A000109290050C9439150895B0E0A0E0EBE568
:1046B000F3E20C946D398E3209F448C0C0EDC80F96
:1046C000CA3008F077C02EE0A22EB62E84E0A89E55
:1046D00080011124A80170E060E08FE995E00E945C
:1046E000A839EC2FF0E0E254FD4DE491D12CC12C1F
:1046F0008EE9E82E82E2F82ECE2FD0E0CE010C2CEF
:1047000002C0959587950A94E2F780FF31C0F701C2
:1047100064903196849031967490319694904424AC
:104720004394460C9920B1F0912C44244394480CB6
:104730007914F1F0562C590C682D852D0E94EF123A
:10474000642D852D0E94EF129394F2CFCAE094E07D
:10475000A92EBBCF791461F0582C590C652D862DEC
:104760000E94EF12652D842D0E94EF129394F2CFD8
:10477000F4E0EF0EF11C8FEFC81AD80AE8E0CE166D
:10478000D10409F0BBCF4FEF4B0D4A0D25E062E09D
:104790008B2D0E946A1B0E940913CFE9D5E00156B8
:1047A0001A4F0C171D0721F089910E94AB14F9CF05
:1047B0000E94681BCDB7DEB7E0E10C948939A7E011
:1047C000B0E0E5EEF3E20C946F3980905A05811069
:1047D000A3C0982E0E944B16A82E60902D057090B5
:1047E0002E058111BAC0E091300192E1E99FF001FC
:1047F0001124ED5CFE4F80852EE4E22E24E0F22EA3
:1048000013E0833081F0823049F4809146053EE424
:10481000E32E34E0F32E12E0813029F09AE4E92E01
:1048200094E0F92E10E00FE2212F45E0B301CE0114
:1048300001960E94A112C3010E945616B82E812C27
:104840008CE045E0112329F08CE045E08824839436
:1048500011E0140F9EE0499FA0011124882011F05F
:104860004C5F5F4F123038F0E3E01E9F400D511D4A
:1048700011244350510927E230E0A11002C030E07A
:1048800020E0420F531F282F30E00AE610E0041BFF
:10489000150B021713070CF48901992011F120E27E
:1048A00040E860E180E0AADCCE0101964C01F40111
:1048B00071904F017720F1F0B801872DF6DEFEE20E
:1048C00084E07F128EE090E00396080F191FEFCF6F
:1048D00000E220E0482FB301CE0101960E94A11210
:1048E00058C09091A9049B15F9F240E8481B20E2BA
:1048F00060E1D9CFA11014C028E042E168E28DE662
:104900007DDC68E270E08DE690E00E94861BC701C6
:104910000E949C1BB092A9042796EEE00C948B3960
:10492000B801625071098EE2C0DE98012B5F3F4FE3
:10493000C6016AE070E00E94E138962FD82EB901D6
:1049400080E3890FB2DEB8016A5E7F4F80E38D0D90
:10495000ACDE84E08B1580F6DDCF80912B05909145
:104960002C0568EE73E00E94F53897FF04C088516B
:104970009C4F61507109660E771E6AE070E00E94DC
:10498000F5386B01C3010E945616B82E8111A0CFD5
:1049900019824B2D8AE4E82E84E0F82E83E010E0A3
:1049A00058CF90932E0580932D0580E008DF64E6B4
:1049B00070E080E090E00C94B8130895A6E0B0E0B9
:1049C000E4EEF4E20C947B3942E1849FF00111247F
:1049D000ED5CFE4F218532853A83298393859F7054
:1049E000268540E1249F90011124922B9B8394857E
:1049F0009F70278540E1249F90011124922B9C8376
:104A000095859F70208940E1249F90011124922B6D
:104A10009D8391899E8396E0899FB0011124665EF3
:104A20007F4F46E050E0CE0101960E94B4382696B2
:104A3000E2E00C9497390F931F93CF93DF9380910B
:104A40001D0581111AC010911F05153108F014E1E0
:104A5000612F8DE791E00E94C338C9E1D1E000E009
:104A6000011759F045E050E0BE01CE0182569C4F3F
:104A70000E94B4380F5F2596F3CFDF91CF911F913D
:104A80000F910895A7E0B0E0E8E4F5E20C947739DF
:104A900090911D05992331F0109261052796E6E06B
:104AA0000C949339182F0E94741511110BC020918A
:104AB0002D0530912E0580911B0590911C0528171E
:104AC000390751F36BEE90E080E00E94C33867E055
:104AD00081E090E00E94C3388091AC04811102C053
:104AE00080910B018983809130018A83809132010A
:104AF0008B8380912B0590912C059D838C838091D5
:104B00000A018E83809109018F8347E050E06AE0BB
:104B100070E0CE0101960E94B43880911D0581118C
:104B200038C0112351F110E080911D05811102C0A0
:104B3000812F44DF1F5F1432B9F782E3E82E85E04E
:104B4000F82E02EF10E0F70161917F01C8010E9489
:104B5000C3380F5F1F4F0F30F1E01F07A1F780919F
:104B60001D05811108C049E050E060E171E08EEA66
:104B700094E00E94B4385FDF03C0809130011EDFF3
:104B800080912D0590912E0590931C0580931B0517
:104B900085CF1123A9F3D1CFA8E0B0E0E2EDF5E293
:104BA0000C947239F82EE62E80915A05882309F468
:104BB00067C090910C01892F880F890F880F2F2DC6
:104BC000281B2A5F822F90E095958795A12C20FFC6
:104BD00002C024E4A22E11E0180F110F8F2D0E94A5
:104BE0007E16811106C08DE289838A838B831C82A5
:104BF0002BC02F2D30E0F901EE5CFA4FC0808AE027
:104C0000F89EF0011124E751FC4FE4918AE1F81677
:104C100081F0E23008F450C085E1F81235C06AE056
:104C20006C0DC11001C062E084E0689FB0011124E6
:104C300032C081E068E372E0C81611F064E372E00C
:104C4000CE0101960E94953890902505012F10E025
:104C5000B12C650183E2C80ED11C9F1004C0809165
:104C6000260581117EC0E11050C0B801C6010E9426
:104C7000951B80E20E94FA1CCE0101960E949C1BAB
:104C80002896EBE00C948E398C2DE33039F484E0D7
:104C9000C89EB001112460517E4FD2CF220F331F26
:104CA000F901EA54FE4F6491F901E954FE4FE49191
:104CB000E1118195680FB8CFC1100BC060EF71E0B2
:104CC000EE2309F4BDCF82E068EF71E0F81609F435
:104CD000B7CF8BE0F81205C060E36C0D698380E309
:104CE00084CF82E1F81201C0C3946C2D67FD6195F9
:104CF00070E000E220E043E0CE0101960E94A112A4
:104D0000C7FE75CF8DE2898372CFE12C8AE0F89ED1
:104D1000B00111246C517C4F44E050E0CE01059667
:104D20000E948C389F101BC081E0FE2CF826B80131
:104D3000C50105960E94951B8EE3F11001C080E22B
:104D40000E94FA1CCE0105960E949C1BB801C60168
:104D50000E94951BEE2009F48CCF8EE38BCFF12CB3
:104D6000E6CFE110D3CFB801C6010E94951BF5CF65
:104D7000CF93DF93C0910C010C2E000CDD0BCE0104
:104D80000197C82FCC0FC80FCC0FD6E0DC0FCD3168
:104D900030F461E08C2F00DFCF5FCD13F8CFDF91CF
:104DA000CF910895CF93C0915A05C11133C0E091BE
:104DB00030018E2F90E020913105243071F422E1F2
:104DC000289FD001299FB00D1124AD5CBE4FC1E0DA
:104DD00018968C91833009F4C0E082E1E89FF001DD
:104DE0001124ED5CFE4F84E0A4EAB4E001900D9242
:104DF0008A95E1F71092A80470E060E090E080E00E
:104E00000E94951BC093D80584EA94E00E949C1BE5
:104E10001092D805CF91089580913105843029F4FE
:104E20000E94F51521E0833009F020E04091320125
:104E300084E0489FA00111244E555E4F67E080E05A
:104E40000E94801D0E940D1DADCF0895CF93C82FE5
:104E500097DB8C2FB4DCE0DF0E94521E0E94951D70
:104E600081E00E94631C0E94E01BCF910895CF93C4
:104E70000E94E31E80915A058823D1F10E943816C2
:104E8000C82F8091B4048F3F11F40E942C15EC2F91
:104E9000F0E0E255FB4F808180933205838180935F
:104EA0003505868180933305E091300182E1E89FEA
:104EB000F0011124ED5CFE4F8189809338058091CB
:104EC0000C01882311F086301CF081E080930C01E6
:104ED0000E945B1D90910C01892F880F890F880F0C
:104EE0008650809325051092260542DFCF910895C4
:104EF0000E943816E82FF0E0E255FB4F8091320512
:104F0000808380913505838380913305868381E09A
:104F100080936205B7DD80E099DFE8CFB0E0A0E0E4
:104F2000E4E9F7E20C947239982EE09130010E2FEB
:104F300010E022E1E29FF0011124ED5CFE4FC085FC
:104F4000AA24A394C33009F0A12C80913201BB2480
:104F5000B394843009F0B12C80914F05882351F02F
:104F600050E040E061E070E48DED95E00E9457185C
:104F700010924F05BA1411F03B9A439A0E9465159E
:104F80008FEF80933101C33009F0EAC084E0809351
:104F900032011092500582E1809FF001819FF00D57
:104FA0001124ED5CFE4FA5850A2E000CBB0BAB5FF8
:104FB000BE4F2C91022E000C330B818592854681C9
:104FC0005781C481D581D0937706C09376065093DC
:104FD00079064093780630937D0620937C068C17E3
:104FE0009D0720F04817590708F0EC010E940118AE
:104FF0009091BD0620918006309182068091BA067C
:105000004091810640FB87F930FB86F98F7D20FBBC
:1050100084F9807F8093BA069093BB0680E28093E8
:10502000750680918A06807C836080938A06109240
:105030008D0681E080938E068DED95E00E94B31A77
:105040006091BC068DED95E00E947F181092BE061F
:10505000809169060E94561282E190E00E945412EB
:1050600090E080E00E9454128FEF90E00E94541272
:1050700090E080E00E94541290E080E00E94541280
:1050800090E080E00E9454120E94C1168BE097E2EB
:105090000197F1F710927E06D0937B06C0937A06B3
:1050A000CE010E94D81682E1809FE001819FD00D41
:1050B0001124CD5CDE4F0E811F814C815D8160E04B
:1050C00074E18DED95E00E945718A80161E074E14C
:1050D0008DED95E00E9457184AE050E062E074E1DF
:1050E0008DED95E00E94571886E693E00E94E21944
:1050F0001092AA04488950E062E071E18DED95E0DC
:105100000E94571840913E054F5F50E060E071E10A
:105110008DED95E00E9457180E94081A0E944819C8
:1051200064D880915A05811108C08091550581117C
:1051300004C00E94E31E81E089DE0E949018BA1428
:1051400011F03B9A439880912D0590912E059093F4
:105150002A0580932905CDB7DEB7EBE00C948E3994
:1051600022E1209FC001219F900D1124DC01AD5C44
:10517000BE4F6D011496CD91DC9115971696ED906A
:10518000FC9080914A0590E00E9422170E944B16E5
:10519000882309F47FC0F6018785863014F084E007
:1051A00087878091AA04882309F091100E941F1F0D
:1051B000C0903201F3E0CF1609F408C1D0903C054D
:1051C0002091320132E1309FC001319F900D1124B6
:1051D0008C010D5C1E4FD80119964D915C91B70161
:1051E000CE010E94161B40913905B3E024E080E017
:1051F00031E0CB1671F0D8011F96EC910E2E000C09
:10520000FF0BE25CFB4F20818D2D880F8D0D31E06F
:105210003D1950913A0590E050FB94F930FB97F915
:105220008F70907F2F702093B806892B40FB85F9F3
:105230008093B9060E944C170E9477170E94381677
:105240000E9434190E9415200E943816E82FF0E0C1
:10525000E255FB4F86810E947319AE0160E074E352
:105260008DED95E00E945718A70161E074E38DED84
:1052700095E00E94571882E793E00E94E21980911E
:1052800037058111A0C08EE793E00E94E2190E94C9
:10529000311A46CF109232010E943816982ED6014C
:1052A0001B96EC911B97EE0FFF0BE05FFE4F80818A
:1052B00091811996CD90DC90D0937706C0937606B5
:1052C000F0927906E092780690937D0680937C06B2
:1052D000CC16DD0618F0EC14FD0408F46E01809184
:1052E0007E06813009F440C00E9401189091BD06ED
:1052F000209180068091BA063091810630FB87F9B3
:105300008F7920FB84F9807F81608093BA06909327
:10531000BB0680E48093750680918A06807C81605C
:1053200080938A0610928D0681E080938E068DED23
:1053300095E00E94B31A80917F0694EF980F9F34F6
:1053400068F424E531E0829FA001839F500D112471
:1053500063E071E38DED95E00E9457186091BC0603
:105360008DED95E00E947F181092BE0681E080933B
:105370007E06D0927B06C0927A06C6010E94D8169D
:1053800080917506803499F482E1809FF001819FBD
:10539000F00D1124ED5CFE4FE6850E2E000CFF0B88
:1053A000E95CFB4F8081873010F40E94E41742E0F3
:1053B00050E061E073E38DED95E00E945718892D70
:1053C0000E94341941CF86E893E05FCF20910A0113
:1053D000D12CF8CE80913201833049F08AE00E94CE
:1053E0008D160E944B16882311F080E097CD08950A
:1053F00080915A05811106C00E944B16882311F036
:1054000080E0E8CF089588E00E948D160E944B1638
:10541000882311F080E082CD08950F931F93CF93DE
:10542000DF93182FD62F0E9474150E942916C09161
:10543000300110922C0510922B051123A1F181E06F
:105440008C0F843218F48093300102C01092300126
:10545000D1110E94651500912D0510912E05109314
:105460001C0500931B0582E18C9FF0011124ED5C6B
:10547000FE4FD085E09130018E9FF0011124ED5C4C
:10548000FE4FC08591E0D33009F090E081E0C33059
:1054900009F080E0981769F080E040DDDF91CF915E
:1054A0001F910F91089583E2CC2369F28FEF8C0F47
:1054B000CACFC8010E94D8160E94F52080E00E9441
:1054C000D01D0E944B1681110E9415208091460527
:1054D000882359F021E0D23009F020E091E0C23079
:1054E00009F090E081E0291301C080E068D95ADC1E
:1054F0000E94521E10932A0500932905CFCFB0E0D9
:10550000A0E0E5E8FAE20C9471398FE295E00E94A0
:105510004D158C01009709F475C0D1E018161906D5
:105520000CF0D0E0D0930401C09130014C2F50E03A
:1055300082E1C89FF0011124ED5CFE4F808583302D
:1055400009F065C0E5850E2E000CFF0BEB5FFE4FEA
:10555000E0810E2E000CFF0BE0902D05F0902E0543
:105560009F01D8010E945B394B015C018E0C9F1C8E
:10557000A11CB11C7501640182E1849FD001859F4B
:10558000B00D1124AD5CBE4F16964D915C911797EE
:1055900070E060E04C155D056E057F050CF440C0C1
:1055A00014968D919C91B0E0A0E0C816D906EA0649
:1055B000FB06B4F19401C401BF010E94E1380097D9
:1055C00051F0C81AD90A1016110614F0F0E0E0E004
:1055D00096012E0F3F1F30932E0520932D0581E05D
:1055E000809324050E94E913609356057093570534
:1055F000809358059093590580E0E1D80E94741576
:105600000E942916CDB7DEB7ECE00C948D39E38506
:10561000EE0FFF0BE05FFE4F0190F081E02D9CCF7D
:1056200060E08D2FFADE8091300190E022E1C29F90
:10563000F0011124ED5CFE4F3085333051F0289F8E
:10564000F001299FF00D1124ED5CFE4F20852330E1
:1056500069F422E1289FF001299FF00D1124ED5CEF
:10566000FE4F101611063CF4C480D580D0922E0552
:10567000C0922D05B4CFC680D780F8CFB0E0A0E0AF
:10568000E4E4FBE20C947539C82FD62F8370833085
:1056900039F580915A05811123C0CB3009F10E9460
:1056A000E9136B017C018091590490915A0409E53A
:1056B00014E0D83031F0809157049091580407E5F8
:1056C00014E09601281B390B203F310548F081E09A
:1056D000D83009F080E061E0A0DEF801D182C0821C
:1056E0008C2FCDB7DEB7E8E00C94913980915A0544
:1056F000811137C080915505811133C080913201ED
:10570000823051F0833051F0813059F582E080933E
:10571000320180E003CC089581E0F9CF209132017D
:105720002330F9F480910A01281B20930A01E091AB
:10573000300140912D0550912E0582E1E89FF00146
:105740001124ED5CFE4F66817781848195810E94F2
:10575000161B0E9415200E94F52081E030D80C9481
:105760000D1D089580915A05811144C080911F0537
:10577000843168F54091320120912D0530912E053C
:10578000E7EBF4E090E0891759F06081718126170A
:10579000370719F452814517D1F09F5F3596F3CF43
:1057A0009091320140912B0550912C0565E0869F28
:1057B000F0011124E954FB4F3183208392835483F9
:1057C00043838F5F80931F0581E080935B0468E1D2
:1057D00070E08DE290E00E94861B88E690E00E94D7
:1057E000361D64EF71E080E090E00E94B81381E024
:1057F0002DCB0895089580915B04882319F01BD95F
:1058000010925B041092550510925B0510925C0596
:1058100010925D0510925E050E94E31E81E016CB9A
:10582000089580915A05811110C0809155058823F3
:1058300011F0E1CF089581E08093550510921E0587
:105840000E94391581E00C942E210895EF92FF9269
:105850000F931F93CF93DF9368E975E182E795E09B
:105860000E94F513813009F07DC00E9439158091A6
:105870001F05882309F470C0E091300182E1E89FA0
:10588000F0011124ED5CFE4FE0840091AA04E09148
:105890001E053B9A439ACE2FD0E085E0E89FF001A9
:1058A0001124E954FB4FF280F0923201A3E3B1E0FE
:1058B00010E091E084E0F81290E081E018962C91DD
:1058C0001897233009F080E0981310C080819181EF
:1058D00014962D913C9115978217930738F01696E0
:1058E0002D913C9117972817390730F41F5F529676
:1058F0001432F9F61091300180913001811721F0B6
:105900000E94741510933001E091300182E1E89F0C
:10591000F0011124ED5CFE4F85E08C9FD0018D9F3E
:10592000B00D1124A954BB4F8D919C911197928772
:10593000818713968D919C9190932C0580932B05D4
:105940008085E8120BC08FEF8F0D833048F481E023
:105950008027E4DA3B9A43984EDF3FC081E0F9CFDD
:1059600080E0F7CF68E975E18BE895E00E94F513D8
:105970008130F1F50E94391520911F05222351F144
:1059800040911E05842F35E051E0580F5217B8F4AE
:1059900090E0389FD001399FB00D1124A954BB4F1E
:1059A0000196389FF001399FF00D1124E954FB4F07
:1059B000832F01900D928A95E1F7852FE5CF8FEF28
:1059C000820F80931F0581110DC010921E0581E08A
:1059D00080935B0481E00E942E21CDB7DEB7E6E024
:1059E0000C949339481798F3225020931E05EFCF5B
:1059F00068E975E18DE695E00E94F513813069F75D
:105A00000E943915A9CF833021F49091320193304F
:105A100001F190915A0591111CC0909131058913A3
:105A20000BC01092310510925B0510925C0510922C
:105A30005D0510925E0506C080933105882399F3B9
:105A40000E9439150E94E01B0E94521E0E94951D63
:105A5000E3C908951F93CF93DF93CCEBD3E06A8122
:105A60007B81888199810E94F513182F882379F012
:105A70008091BB03811114C080919005882381F02F
:105A80000E943F23888199818159954059F4299634
:105A900084E0CD30D80719F7DF91CF911F91089599
:105AA0000E943915113039F01B3089F7EE81FF81E2
:105AB000309729F4ECCFEC81FD81309711F00995F6
:105AC000E6CF8885882319F39EDFE1CF80915A05C0
:105AD0008823D1F080910C0191E0980F96300CF062
